{
	"data": {
		"bytecode": {
			"linkReferences": {},
			"object": "60806040523480156200001157600080fd5b5060405180604001604052806040518060400160405280600381526020017f4e6f74000000000000000000000000000000000000000000000000000000000081525081526020016040518060400160405280601181526020017f4d617468416e64496e666f726d61746963000000000000000000000000000000815250815250600a906002620000a3929190620015ae565b506040518060a001604052806040518060200160405280600081525081526020016040518060400160405280600481526020017f4d6174680000000000000000000000000000000000000000000000000000000081525081526020016040518060400160405280600781526020017f506879736963730000000000000000000000000000000000000000000000000081525081526020016040518060400160405280601081526020017f436f6d707574657220536369656e63650000000000000000000000000000000081525081526020016040518060400160405280600781526020017f5275737369616e000000000000000000000000000000000000000000000000008152508152506008906005620001c092919062001615565b506040518061016001604052806040518060400160405280600381526020017f4e6f74000000000000000000000000000000000000000000000000000000000081525081526020016040518060400160405280601981526020017f456c65637472696369747920616e64206d61676e657469736d0000000000000081525081526020016040518060400160405280600b81526020017f50726f746f747970696e6700000000000000000000000000000000000000000081525081526020016040518060400160405280601681526020017f4d656368616e69637320616e6420737472656e6774680000000000000000000081525081526020016040518060600160405280602a81526020016200cba7602a913981526020016040518060600160405280602881526020016200cbd16028913981526020016040518060400160405280601381526020017f4175746f6e6f6d6f7573206176696f6e6963730000000000000000000000000081525081526020016040518060400160405280600881526020017f526f626f7469637300000000000000000000000000000000000000000000000081525081526020016040518060400160405280600b81526020017f50726f6772616d6d696e6700000000000000000000000000000000000000000081525081526020016040518060600160405280602281526020016200cb856022913981526020016040518060400160405280601f81526020017f417374726f6e6f6d7920616e64204165726f73706163652053797374656d7300815250815250600990600b620004129291906200167c565b506007600181600181540180825580915050039060005260206000209050506040518060e001604052806040518060400160405280600981526020017f446576656c6f706572000000000000000000000000000000000000000000000081525081526020016040518060400160405280600281526020017f475000000000000000000000000000000000000000000000000000000000000081525081526020016040518060400160405280600281526020017fd0980000000000000000000000000000000000000000000000000000000000008152508152602001604051806020016040528060008152508152602001600067ffffffffffffffff81111562000520576200051f62001bc9565b5b6040519080825280602002602001820160405280156200055557816020015b60608152602001906001900390816200053f5790505b508152602001600060ff168152602001604051602001620005769062001b06565b60405160208183030381529060405280519060200120815250600080735b38da6a701c568545dcfcb03fcb875f56beddc473ffffffffffffffffffffffffffffffffffffffff1673ffffffffffffffffffffffffffffffffffffffff1681526020019081526020016000206000820151816000019080519060200190620005ff929190620016e3565b5060208201518160010190805190602001906200061e929190620016e3565b5060408201518160020190805190602001906200063d929190620016e3565b5060608201518160030190805190602001906200065c929190620016e3565b5060808201518160040190805190602001906200067b92919062001774565b5060a08201518160050160006101000a81548160ff021916908360ff16021790555060c0820151816006015590505060405180608001604052806040518060400160405280600681526020017f61646d696e31000000000000000000000000000000000000000000000000000081525081526020016040518060400160405280600281526020017f475000000000000000000000000000000000000000000000000000000000000081525081526020016040516020016200073c9062001acb565b604051602081830303815290604052805190602001208152602001600115158152506002600073ab8483f64d9c6d1ecf9b849ae677dd3315835cb273ffffffffffffffffffffffffffffffffffffffff1673ffffffffffffffffffffffffffffffffffffffff1681526020019081526020016000206000820151816000019080519060200190620007cf929190620016e3565b506020820151816001019080519060200190620007ee929190620016e3565b506040820151816002015560608201518160030160006101000a81548160ff021916908315150217905550905050735b38da6a701c568545dcfcb03fcb875f56beddc46005604051620008419062001aef565b908152602001604051809103902060006101000a81548173ffffffffffffffffffffffffffffffffffffffff021916908373ffffffffffffffffffffffffffffffffffffffff16021790555073ab8483f64d9c6d1ecf9b849ae677dd3315835cb26005604051620008b29062001ab4565b908152602001604051809103902060006101000a81548173ffffffffffffffffffffffffffffffffffffffff021916908373ffffffffffffffffffffffffffffffffffffffff160217905550600660046000735b38da6a701c568545dcfcb03fcb875f56beddc473ffffffffffffffffffffffffffffffffffffffff1673ffffffffffffffffffffffffffffffffffffffff16815260200190815260200160002060006101000a81548160ff0219169083600781111562000978576200097762001b6b565b5b021790555060076004600073ab8483f64d9c6d1ecf9b849ae677dd3315835cb273ffffffffffffffffffffffffffffffffffffffff1673ffffffffffffffffffffffffffffffffffffffff16815260200190815260200160002060006101000a81548160ff02191690836007811115620009f757620009f662001b6b565b5b02179055506040518060e001604052806040518060400160405280600481526020017f6976616e0000000000000000000000000000000000000000000000000000000081525081526020016040518060400160405280600281526020017f444d00000000000000000000000000000000000000000000000000000000000081525081526020016040518060400160405280600281526020017fd0980000000000000000000000000000000000000000000000000000000000008152508152602001604051806020016040528060008152508152602001600067ffffffffffffffff81111562000aeb5762000aea62001bc9565b5b60405190808252806020026020018201604052801562000b2057816020015b606081526020019060019003908162000b0a5790505b508152602001600060ff16815260200160405160200162000b419062001a55565b60405160208183030381529060405280519060200120815250600080734b20993bc481177ec7e8f571cecae8a9e22c02db73ffffffffffffffffffffffffffffffffffffffff1673ffffffffffffffffffffffffffffffffffffffff168152602001908152602001600020600082015181600001908051906020019062000bca929190620016e3565b50602082015181600101908051906020019062000be9929190620016e3565b50604082015181600201908051906020019062000c08929190620016e3565b50606082015181600301908051906020019062000c27929190620016e3565b50608082015181600401908051906020019062000c4692919062001774565b5060a08201518160050160006101000a81548160ff021916908360ff16021790555060c0820151816006015590505060405180608001604052806040518060400160405280600681526020017f61646d696e32000000000000000000000000000000000000000000000000000081525081526020016040518060400160405280600281526020017f444d000000000000000000000000000000000000000000000000000000000000815250815260200160405160200162000d079062001a90565b60405160208183030381529060405280519060200120815260200160011515815250600260007378731d3ca6b7e34ac0f824c42a7cc18a495cabab73ffffffffffffffffffffffffffffffffffffffff1673ffffffffffffffffffffffffffffffffffffffff168152602001908152602001600020600082015181600001908051906020019062000d9a929190620016e3565b50602082015181600101908051906020019062000db9929190620016e3565b506040820151816002015560608201518160030160006101000a81548160ff021916908315150217905550905050734b20993bc481177ec7e8f571cecae8a9e22c02db600560405162000e0c9062001a3e565b908152602001604051809103902060006101000a81548173ffffffffffffffffffffffffffffffffffffffff021916908373ffffffffffffffffffffffffffffffffffffffff1602179055507378731d3ca6b7e34ac0f824c42a7cc18a495cabab600560405162000e7d9062001a79565b908152602001604051809103902060006101000a81548173ffffffffffffffffffffffffffffffffffffffff021916908373ffffffffffffffffffffffffffffffffffffffff160217905550600660046000734b20993bc481177ec7e8f571cecae8a9e22c02db73ffffffffffffffffffffffffffffffffffffffff1673ffffffffffffffffffffffffffffffffffffffff16815260200190815260200160002060006101000a81548160ff0219169083600781111562000f435762000f4262001b6b565b5b02179055506007600460007378731d3ca6b7e34ac0f824c42a7cc18a495cabab73ffffffffffffffffffffffffffffffffffffffff1673ffffffffffffffffffffffffffffffffffffffff16815260200190815260200160002060006101000a81548160ff0219169083600781111562000fc25762000fc162001b6b565b5b02179055506040518061012001604052806040518060400160405280600981526020017f536369656e74697374000000000000000000000000000000000000000000000081525081526020016040518060400160405280600281526020017f4453000000000000000000000000000000000000000000000000000000000000815250815260200160405180602001604052806000815250815260200160018152602001600067ffffffffffffffff81111562001083576200108262001bc9565b5b604051908082528060200260200182016040528015620010b25781602001602082028036833780820191505090505b508152602001600067ffffffffffffffff811115620010d657620010d562001bc9565b5b604051908082528060200260200182016040528015620011055781602001602082028036833780820191505090505b5081526020016040516020016200111c9062001a1a565b604051602081830303815290604052805190602001208152602001600115158152602001600115158152506001600073617f2e2fd72fd9d5503197092ac168c91465e7f273ffffffffffffffffffffffffffffffffffffffff1673ffffffffffffffffffffffffffffffffffffffff1681526020019081526020016000206000820151816000019080519060200190620011b8929190620016e3565b506020820151816001019080519060200190620011d7929190620016e3565b506040820151816002019080519060200190620011f6929190620016e3565b506060820151816003015560808201518160040190805190602001906200121f929190620017db565b5060a08201518160050190805190602001906200123e929190620017db565b5060c0820151816006015560e08201518160070160006101000a81548160ff0219169083151502179055506101008201518160070160016101000a81548160ff0219169083151502179055509050506001600073617f2e2fd72fd9d5503197092ac168c91465e7f273ffffffffffffffffffffffffffffffffffffffff1673ffffffffffffffffffffffffffffffffffffffff168152602001908152602001600020600501600390806001815401808255809150506001900390600052602060002090601091828204019190066002029091909190916101000a81548161ffff021916908361ffff16021790555060006001600073617f2e2fd72fd9d5503197092ac168c91465e7f273ffffffffffffffffffffffffffffffffffffffff1673ffffffffffffffffffffffffffffffffffffffff168152602001908152602001600020905080600401600190806001815401808255809150506001900390600052602060002090601091828204019190066002029091909190916101000a81548161ffff021916908361ffff16021790555080600401600290806001815401808255809150506001900390600052602060002090601091828204019190066002029091909190916101000a81548161ffff021916908361ffff16021790555080600501600390806001815401808255809150506001900390600052602060002090601091828204019190066002029091909190916101000a81548161ffff021916908361ffff16021790555080600501600490806001815401808255809150506001900390600052602060002090601091828204019190066002029091909190916101000a81548161ffff021916908361ffff16021790555073617f2e2fd72fd9d5503197092ac168c91465e7f26005604051620014dc9062001a03565b908152602001604051809103902060006101000a81548173ffffffffffffffffffffffffffffffffffffffff021916908373ffffffffffffffffffffffffffffffffffffffff16021790555060056004600073617f2e2fd72fd9d5503197092ac168c91465e7f273ffffffffffffffffffffffffffffffffffffffff1673ffffffffffffffffffffffffffffffffffffffff16815260200190815260200160002060006101000a81548160ff02191690836007811115620015a257620015a162001b6b565b5b02179055505062001cee565b82805482825590600052602060002090810192821562001602579160200282015b8281111562001601578251829080519060200190620015f0929190620016e3565b5091602001919060010190620015cf565b5b5090506200161191906200188c565b5090565b82805482825590600052602060002090810192821562001669579160200282015b828111156200166857825182908051906020019062001657929190620016e3565b509160200191906001019062001636565b5b5090506200167891906200188c565b5090565b828054828255906000526020600020908101928215620016d0579160200282015b82811115620016cf578251829080519060200190620016be929190620016e3565b50916020019190600101906200169d565b5b509050620016df91906200188c565b5090565b828054620016f19062001b35565b90600052602060002090601f01602090048101928262001715576000855562001761565b82601f106200173057805160ff191683800117855562001761565b8280016001018555821562001761579182015b828111156200176057825182559160200191906001019062001743565b5b509050620017709190620018b4565b5090565b828054828255906000526020600020908101928215620017c8579160200282015b82811115620017c7578251829080519060200190620017b6929190620016e3565b509160200191906001019062001795565b5b509050620017d791906200188c565b5090565b82805482825590600052602060002090600f01601090048101928215620018795791602002820160005b838211156200184757835183826101000a81548161ffff021916908361ffff160217905550926020019260020160208160010104928301926001030262001805565b8015620018775782816101000a81549061ffff021916905560020160208160010104928301926001030262001847565b505b509050620018889190620018b4565b5090565b5b80821115620018b05760008181620018a69190620018d3565b506001016200188d565b5090565b5b80821115620018cf576000816000905550600101620018b5565b5090565b508054620018e19062001b35565b6000825580601f10620018f5575062001916565b601f016020900490600052602060002090810190620019159190620018b4565b5b50565b60006200192860098362001b2a565b9150620019358262001bf8565b600982019050919050565b60006200194f60048362001b2a565b91506200195c8262001c21565b600482019050919050565b60006200197660068362001b2a565b9150620019838262001c4a565b600682019050919050565b60006200199d60018362001b2a565b9150620019aa8262001c73565b600182019050919050565b6000620019c460068362001b2a565b9150620019d18262001c9c565b600682019050919050565b6000620019eb60098362001b2a565b9150620019f88262001cc5565b600982019050919050565b600062001a108262001919565b9150819050919050565b600062001a278262001919565b915062001a34826200198e565b9150819050919050565b600062001a4b8262001940565b9150819050919050565b600062001a628262001940565b915062001a6f826200198e565b9150819050919050565b600062001a868262001967565b9150819050919050565b600062001a9d8262001967565b915062001aaa826200198e565b9150819050919050565b600062001ac182620019b5565b9150819050919050565b600062001ad882620019b5565b915062001ae5826200198e565b9150819050919050565b600062001afc82620019dc565b9150819050919050565b600062001b1382620019dc565b915062001b20826200198e565b9150819050919050565b600081905092915050565b6000600282049050600182168062001b4e57607f821691505b6020821081141562001b655762001b6462001b9a565b5b50919050565b7f4e487b7100000000000000000000000000000000000000000000000000000000600052602160045260246000fd5b7f4e487b7100000000000000000000000000000000000000000000000000000000600052602260045260246000fd5b7f4e487b7100000000000000000000000000000000000000000000000000000000600052604160045260246000fd5b7f536369656e746973740000000000000000000000000000000000000000000000600082015250565b7f6976616e00000000000000000000000000000000000000000000000000000000600082015250565b7f61646d696e320000000000000000000000000000000000000000000000000000600082015250565b7f3100000000000000000000000000000000000000000000000000000000000000600082015250565b7f61646d696e310000000000000000000000000000000000000000000000000000600082015250565b7f446576656c6f7065720000000000000000000000000000000000000000000000600082015250565b61ae878062001cfe6000396000f3fe608060405234801561001057600080fd5b50600436106101a95760003560e01c806386c65d28116100f9578063cecdda4b11610097578063eaeb60e311610071578063eaeb60e3146104be578063f481345a146104ee578063f7e4d10f14610525578063fa308c9314610541576101a9565b8063cecdda4b14610452578063df514f671461046e578063e9d77f4a146104a2576101a9565b80639a79c8ed116100d35780639a79c8ed146103cc5780639cad5d4c146103ea578063aa27d9aa1461041a578063cc92157014610436576101a9565b806386c65d281461034e5780639026dee81461037e5780639516f6d0146103ae576101a9565b80635d788f26116101665780637258319c116101405780637258319c146102dc57806374f0be9f146102f8578063776eb2ed146103165780637d8981f614610332576101a9565b80635d788f261461028857806360d3e335146102a45780636630503b146102c0576101a9565b806308926658146101ae5780631256fa53146101ca5780633964e561146101e857806348eed213146102185780634a451e7c1461023457806350879f6114610250575b600080fd5b6101c860048036038101906101c391906180d9565b61055d565b005b6101d2610b48565b6040516101df9190619ef2565b60405180910390f35b61020260048036038101906101fd9190617dcd565b610b9c565b60405161020f9190619ed0565b60405180910390f35b610232600480360381019061022d9190617dfa565b610c33565b005b61024e60048036038101906102499190617efd565b610f89565b005b61026a60048036038101906102659190618398565b611557565b60405161027f99989796959493929190619f0d565b60405180910390f35b6102a2600480360381019061029d9190618423565b611f78565b005b6102be60048036038101906102b991906181c4565b612599565b005b6102da60048036038101906102d59190617efd565b6129c7565b005b6102f660048036038101906102f19190618423565b612f52565b005b610300613500565b60405161030d9190619eae565b60405180910390f35b610330600480360381019061032b9190617efd565b6135d9565b005b61034c60048036038101906103479190617efd565b613c1b565b005b61036860048036038101906103639190618599565b6143e0565b6040516103759190619fc4565b60405180910390f35b61039860048036038101906103939190617dcd565b61448c565b6040516103a59190619fc4565b60405180910390f35b6103b6614560565b6040516103c39190619eae565b60405180910390f35b6103d4614639565b6040516103e19190619eae565b60405180910390f35b61040460048036038101906103ff9190618599565b614712565b6040516104119190619fc4565b60405180910390f35b610434600480360381019061042f9190617efd565b6147be565b005b610450600480360381019061044b9190617fa4565b614a36565b005b61046c6004803603810190610467919061827f565b614ee9565b005b61048860048036038101906104839190617dcd565b6152ed565b604051610499959493929190619fe6565b60405180910390f35b6104bc60048036038101906104b791906184de565b615667565b005b6104d860048036038101906104d39190618599565b615ca6565b6040516104e59190619fc4565b60405180910390f35b61050860048036038101906105039190617dcd565b615d52565b60405161051c98979695949392919061a05c565b60405180910390f35b61053f600480360381019061053a9190617efd565b61654a565b005b61055b60048036038101906105569190617e72565b616b01565b005b8484600660078111156105735761057261a4c8565b5b600460003373ffffffffffffffffffffffffffffffffffffffff1673ffffffffffffffffffffffffffffffffffffffff16815260200190815260200160002060009054906101000a900460ff1660078111156105d2576105d161a4c8565b5b141580156106515750600560078111156105ef576105ee61a4c8565b5b600460003373ffffffffffffffffffffffffffffffffffffffff1673ffffffffffffffffffffffffffffffffffffffff16815260200190815260200160002060009054906101000a900460ff16600781111561064e5761064d61a4c8565b5b14155b80156106cd575060078081111561066b5761066a61a4c8565b5b600460003373ffffffffffffffffffffffffffffffffffffffff1673ffffffffffffffffffffffffffffffffffffffff16815260200190815260200160002060009054906101000a900460ff1660078111156106ca576106c961a4c8565b5b14155b15610713577fb2bfa9090d50ad1a62cb284547f85f0e78e3b3dcca2d82c2ece1a3e9abf252663360008060405161070693929190619a58565b60405180910390a1610b3f565b81816040516020016107269291906190aa565b604051602081830303815290604052805190602001206000803373ffffffffffffffffffffffffffffffffffffffff1673ffffffffffffffffffffffffffffffffffffffff1681526020019081526020016000206006015414806107f3575081816040516020016107989291906190aa565b60405160208183030381529060405280519060200120600160003373ffffffffffffffffffffffffffffffffffffffff1673ffffffffffffffffffffffffffffffffffffffff16815260200190815260200160002060060154145b806108675750818160405160200161080c9291906190aa565b60405160208183030381529060405280519060200120600260003373ffffffffffffffffffffffffffffffffffffffff1673ffffffffffffffffffffffffffffffffffffffff16815260200190815260200160002060020154145b6108ac577fb2bfa9090d50ad1a62cb284547f85f0e78e3b3dcca2d82c2ece1a3e9abf252663360008060405161089f9392919061964c565b60405180910390a1610b3f565b600660078111156108c0576108bf61a4c8565b5b600460003373ffffffffffffffffffffffffffffffffffffffff1673ffffffffffffffffffffffffffffffffffffffff16815260200190815260200160002060009054906101000a900460ff16600781111561091f5761091e61a4c8565b5b14610965577fb2bfa9090d50ad1a62cb284547f85f0e78e3b3dcca2d82c2ece1a3e9abf252663360008060405161095893929190619696565b60405180910390a1610b3e565b60006005856040516109779190619093565b908152602001604051809103902060009054906101000a900473ffffffffffffffffffffffffffffffffffffffff16905060006109b333617071565b1415610aff57600560078111156109cd576109cc61a4c8565b5b600460008373ffffffffffffffffffffffffffffffffffffffff1673ffffffffffffffffffffffffffffffffffffffff16815260200190815260200160002060009054906101000a900460ff166007811115610a2c57610a2b61a4c8565b5b1415610abd57610a3c86856171ff565b15610ab8576000610a4e8786846172f8565b9050600660003373ffffffffffffffffffffffffffffffffffffffff1673ffffffffffffffffffffffffffffffffffffffff168152602001908152602001600020819080600181540180825580915050600190039060005260206000200160009091909190915055505b610afa565b7fb2bfa9090d50ad1a62cb284547f85f0e78e3b3dcca2d82c2ece1a3e9abf2526633600080604051610af193929190619aa2565b60405180910390a15b610b3c565b7fb2bfa9090d50ad1a62cb284547f85f0e78e3b3dcca2d82c2ece1a3e9abf2526633600080604051610b3393929190619602565b60405180910390a15b505b5b50505050505050565b6000600460003373ffffffffffffffffffffffffffffffffffffffff1673ffffffffffffffffffffffffffffffffffffffff16815260200190815260200160002060009054906101000a900460ff16905090565b6060600660008373ffffffffffffffffffffffffffffffffffffffff1673ffffffffffffffffffffffffffffffffffffffff168152602001908152602001600020805480602002602001604051908101604052809291908181526020018280548015610c2757602002820191906000526020600020905b815481526020019060010190808311610c13575b50505050509050919050565b818160066007811115610c4957610c4861a4c8565b5b600460003373ffffffffffffffffffffffffffffffffffffffff1673ffffffffffffffffffffffffffffffffffffffff16815260200190815260200160002060009054906101000a900460ff166007811115610ca857610ca761a4c8565b5b14158015610d27575060056007811115610cc557610cc461a4c8565b5b600460003373ffffffffffffffffffffffffffffffffffffffff1673ffffffffffffffffffffffffffffffffffffffff16815260200190815260200160002060009054906101000a900460ff166007811115610d2457610d2361a4c8565b5b14155b8015610da35750600780811115610d4157610d4061a4c8565b5b600460003373ffffffffffffffffffffffffffffffffffffffff1673ffffffffffffffffffffffffffffffffffffffff16815260200190815260200160002060009054906101000a900460ff166007811115610da057610d9f61a4c8565b5b14155b15610de9577fb2bfa9090d50ad1a62cb284547f85f0e78e3b3dcca2d82c2ece1a3e9abf2526633600080604051610ddc93929190619a58565b60405180910390a1610f83565b8181604051602001610dfc9291906190aa565b604051602081830303815290604052805190602001206000803373ffffffffffffffffffffffffffffffffffffffff1673ffffffffffffffffffffffffffffffffffffffff168152602001908152602001600020600601541480610ec957508181604051602001610e6e9291906190aa565b60405160208183030381529060405280519060200120600160003373ffffffffffffffffffffffffffffffffffffffff1673ffffffffffffffffffffffffffffffffffffffff16815260200190815260200160002060060154145b80610f3d57508181604051602001610ee29291906190aa565b60405160208183030381529060405280519060200120600260003373ffffffffffffffffffffffffffffffffffffffff1673ffffffffffffffffffffffffffffffffffffffff16815260200190815260200160002060020154145b610f82577fb2bfa9090d50ad1a62cb284547f85f0e78e3b3dcca2d82c2ece1a3e9abf2526633600080604051610f759392919061964c565b60405180910390a1610f83565b5b50505050565b828260066007811115610f9f57610f9e61a4c8565b5b600460003373ffffffffffffffffffffffffffffffffffffffff1673ffffffffffffffffffffffffffffffffffffffff16815260200190815260200160002060009054906101000a900460ff166007811115610ffe57610ffd61a4c8565b5b1415801561107d57506005600781111561101b5761101a61a4c8565b5b600460003373ffffffffffffffffffffffffffffffffffffffff1673ffffffffffffffffffffffffffffffffffffffff16815260200190815260200160002060009054906101000a900460ff16600781111561107a5761107961a4c8565b5b14155b80156110f957506007808111156110975761109661a4c8565b5b600460003373ffffffffffffffffffffffffffffffffffffffff1673ffffffffffffffffffffffffffffffffffffffff16815260200190815260200160002060009054906101000a900460ff1660078111156110f6576110f561a4c8565b5b14155b1561113f577fb2bfa9090d50ad1a62cb284547f85f0e78e3b3dcca2d82c2ece1a3e9abf252663360008060405161113293929190619a58565b60405180910390a1611550565b81816040516020016111529291906190aa565b604051602081830303815290604052805190602001206000803373ffffffffffffffffffffffffffffffffffffffff1673ffffffffffffffffffffffffffffffffffffffff16815260200190815260200160002060060154148061121f575081816040516020016111c49291906190aa565b60405160208183030381529060405280519060200120600160003373ffffffffffffffffffffffffffffffffffffffff1673ffffffffffffffffffffffffffffffffffffffff16815260200190815260200160002060060154145b80611293575081816040516020016112389291906190aa565b60405160208183030381529060405280519060200120600260003373ffffffffffffffffffffffffffffffffffffffff1673ffffffffffffffffffffffffffffffffffffffff16815260200190815260200160002060020154145b6112d8577fb2bfa9090d50ad1a62cb284547f85f0e78e3b3dcca2d82c2ece1a3e9abf25266336000806040516112cb9392919061964c565b60405180910390a1611550565b600660078111156112ec576112eb61a4c8565b5b600460003373ffffffffffffffffffffffffffffffffffffffff1673ffffffffffffffffffffffffffffffffffffffff16815260200190815260200160002060009054906101000a900460ff16600781111561134b5761134a61a4c8565b5b14611391577fb2bfa9090d50ad1a62cb284547f85f0e78e3b3dcca2d82c2ece1a3e9abf252663360008060405161138493929190619696565b60405180910390a161154f565b826014815110156113dd577fb2bfa9090d50ad1a62cb284547f85f0e78e3b3dcca2d82c2ece1a3e9abf25266336000806040516113d0939291906199c4565b60405180910390a161154d565b61015481511115611429577fb2bfa9090d50ad1a62cb284547f85f0e78e3b3dcca2d82c2ece1a3e9abf252663360008060405161141c93929190619852565b60405180910390a161154d565b33600061143582617071565b90506000811415611482577fb2bfa9090d50ad1a62cb284547f85f0e78e3b3dcca2d82c2ece1a3e9abf25266336000806040516114749392919061997a565b60405180910390a15061154b565b600061148d33617071565b90506000600782815481106114a5576114a461a526565b5b90600052602060002090600902019050878160080160003373ffffffffffffffffffffffffffffffffffffffff1673ffffffffffffffffffffffffffffffffffffffff168152602001908152602001600020908051906020019061150a929190617a3b565b507fb2bfa9090d50ad1a62cb284547f85f0e78e3b3dcca2d82c2ece1a3e9abf252663360008460405161153f93929190619c5e565b60405180910390a15050505b505b505b5b5050505050565b6000606080606080606060008060608b8b6006600781111561157c5761157b61a4c8565b5b600460003373ffffffffffffffffffffffffffffffffffffffff1673ffffffffffffffffffffffffffffffffffffffff16815260200190815260200160002060009054906101000a900460ff1660078111156115db576115da61a4c8565b5b1415801561165a5750600560078111156115f8576115f761a4c8565b5b600460003373ffffffffffffffffffffffffffffffffffffffff1673ffffffffffffffffffffffffffffffffffffffff16815260200190815260200160002060009054906101000a900460ff1660078111156116575761165661a4c8565b5b14155b80156116d657506007808111156116745761167361a4c8565b5b600460003373ffffffffffffffffffffffffffffffffffffffff1673ffffffffffffffffffffffffffffffffffffffff16815260200190815260200160002060009054906101000a900460ff1660078111156116d3576116d261a4c8565b5b14155b1561171c577fb2bfa9090d50ad1a62cb284547f85f0e78e3b3dcca2d82c2ece1a3e9abf252663360008060405161170f93929190619a58565b60405180910390a1611f67565b818160405160200161172f9291906190aa565b604051602081830303815290604052805190602001206000803373ffffffffffffffffffffffffffffffffffffffff1673ffffffffffffffffffffffffffffffffffffffff1681526020019081526020016000206006015414806117fc575081816040516020016117a19291906190aa565b60405160208183030381529060405280519060200120600160003373ffffffffffffffffffffffffffffffffffffffff1673ffffffffffffffffffffffffffffffffffffffff16815260200190815260200160002060060154145b80611870575081816040516020016118159291906190aa565b60405160208183030381529060405280519060200120600260003373ffffffffffffffffffffffffffffffffffffffff1673ffffffffffffffffffffffffffffffffffffffff16815260200190815260200160002060020154145b6118b5577fb2bfa9090d50ad1a62cb284547f85f0e78e3b3dcca2d82c2ece1a3e9abf25266336000806040516118a89392919061964c565b60405180910390a1611f67565b600660078111156118c9576118c861a4c8565b5b600460003373ffffffffffffffffffffffffffffffffffffffff1673ffffffffffffffffffffffffffffffffffffffff16815260200190815260200160002060009054906101000a900460ff1660078111156119285761192761a4c8565b5b1461196e577fb2bfa9090d50ad1a62cb284547f85f0e78e3b3dcca2d82c2ece1a3e9abf252663360008060405161196193929190619696565b60405180910390a1611f66565b6007805490508c1015611f27576000805b600660003373ffffffffffffffffffffffffffffffffffffffff1673ffffffffffffffffffffffffffffffffffffffff16815260200190815260200160002080549050811015611a4a576000600660003373ffffffffffffffffffffffffffffffffffffffff1673ffffffffffffffffffffffffffffffffffffffff1681526020019081526020016000208281548110611a1c57611a1b61a526565b5b906000526020600020015490508e811415611a3657600192505b508080611a429061a450565b91505061197f565b508015611ee557600060078e81548110611a6757611a6661a526565b5b906000526020600020906009020190508060070160003373ffffffffffffffffffffffffffffffffffffffff1673ffffffffffffffffffffffffffffffffffffffff168152602001908152602001600020805480602002602001604051908101604052809291908181526020016000905b82821015611b84578382906000526020600020018054611af79061a3ed565b80601f0160208091040260200160405190810160405280929190818152602001828054611b239061a3ed565b8015611b705780601f10611b4557610100808354040283529160200191611b70565b820191906000526020600020905b815481529060010190602001808311611b5357829003601f168201915b505050505081526020019060010190611ad8565b5050505099508060080160003373ffffffffffffffffffffffffffffffffffffffff1673ffffffffffffffffffffffffffffffffffffffff1681526020019081526020016000208054611bd69061a3ed565b80601f0160208091040260200160405190810160405280929190818152602001828054611c029061a3ed565b8015611c4f5780601f10611c2457610100808354040283529160200191611c4f565b820191906000526020600020905b815481529060010190602001808311611c3257829003601f168201915b505050505098508060060160009054906101000a900460ff1681600001826001018c8c856003018660020160009054906101000a900473ffffffffffffffffffffffffffffffffffffffff168760040160009054906101000a900461ffff1688600501878054611cbe9061a3ed565b80601f0160208091040260200160405190810160405280929190818152602001828054611cea9061a3ed565b8015611d375780601f10611d0c57610100808354040283529160200191611d37565b820191906000526020600020905b815481529060010190602001808311611d1a57829003601f168201915b50505050509750868054611d4a9061a3ed565b80601f0160208091040260200160405190810160405280929190818152602001828054611d769061a3ed565b8015611dc35780601f10611d9857610100808354040283529160200191611dc3565b820191906000526020600020905b815481529060010190602001808311611da657829003601f168201915b5050505050965083805480602002602001604051908101604052809291908181526020018280548015611e4b57602002820191906000526020600020905b8160009054906101000a900473ffffffffffffffffffffffffffffffffffffffff1673ffffffffffffffffffffffffffffffffffffffff1681526020019060010190808311611e01575b5050505050935080805480602002602001604051908101604052809291908181526020018280548015611ec557602002820191906000526020600020906000905b82829054906101000a900461ffff1661ffff1681526020019060020190602082600101049283019260010382029150808411611e8c5790505b505050505090509c509c509c509c509c509c509c509c509c505050611f65565b7fb2bfa9090d50ad1a62cb284547f85f0e78e3b3dcca2d82c2ece1a3e9abf2526633600080604051611f1993929190619b36565b60405180910390a150611f64565b7fb2bfa9090d50ad1a62cb284547f85f0e78e3b3dcca2d82c2ece1a3e9abf2526633600080604051611f5b9392919061989c565b60405180910390a15b5b5b5b505093979b92969a50939750939750565b838360066007811115611f8e57611f8d61a4c8565b5b600460003373ffffffffffffffffffffffffffffffffffffffff1673ffffffffffffffffffffffffffffffffffffffff16815260200190815260200160002060009054906101000a900460ff166007811115611fed57611fec61a4c8565b5b1415801561206c57506005600781111561200a5761200961a4c8565b5b600460003373ffffffffffffffffffffffffffffffffffffffff1673ffffffffffffffffffffffffffffffffffffffff16815260200190815260200160002060009054906101000a900460ff1660078111156120695761206861a4c8565b5b14155b80156120e857506007808111156120865761208561a4c8565b5b600460003373ffffffffffffffffffffffffffffffffffffffff1673ffffffffffffffffffffffffffffffffffffffff16815260200190815260200160002060009054906101000a900460ff1660078111156120e5576120e461a4c8565b5b14155b1561212e577fb2bfa9090d50ad1a62cb284547f85f0e78e3b3dcca2d82c2ece1a3e9abf252663360008060405161212193929190619a58565b60405180910390a1612591565b81816040516020016121419291906190aa565b604051602081830303815290604052805190602001206000803373ffffffffffffffffffffffffffffffffffffffff1673ffffffffffffffffffffffffffffffffffffffff16815260200190815260200160002060060154148061220e575081816040516020016121b39291906190aa565b60405160208183030381529060405280519060200120600160003373ffffffffffffffffffffffffffffffffffffffff1673ffffffffffffffffffffffffffffffffffffffff16815260200190815260200160002060060154145b80612282575081816040516020016122279291906190aa565b60405160208183030381529060405280519060200120600260003373ffffffffffffffffffffffffffffffffffffffff1673ffffffffffffffffffffffffffffffffffffffff16815260200190815260200160002060020154145b6122c7577fb2bfa9090d50ad1a62cb284547f85f0e78e3b3dcca2d82c2ece1a3e9abf25266336000806040516122ba9392919061964c565b60405180910390a1612591565b600560078111156122db576122da61a4c8565b5b600460003373ffffffffffffffffffffffffffffffffffffffff1673ffffffffffffffffffffffffffffffffffffffff16815260200190815260200160002060009054906101000a900460ff16600781111561233a5761233961a4c8565b5b14612380577fb2bfa9090d50ad1a62cb284547f85f0e78e3b3dcca2d82c2ece1a3e9abf252663360008060405161237393929190619162565b60405180910390a1612590565b60006005846040516123929190619093565b908152602001604051809103902060009054906101000a900473ffffffffffffffffffffffffffffffffffffffff169050600660078111156123d7576123d661a4c8565b5b600460008373ffffffffffffffffffffffffffffffffffffffff1673ffffffffffffffffffffffffffffffffffffffff16815260200190815260200160002060009054906101000a900460ff1660078111156124365761243561a4c8565b5b14156125515760078054905085101561250f576007858154811061245d5761245c61a526565b5b9060005260206000209060090201600301819080600181540180825580915050600190039060005260206000200160009091909190916101000a81548173ffffffffffffffffffffffffffffffffffffffff021916908373ffffffffffffffffffffffffffffffffffffffff1602179055507fb2bfa9090d50ad1a62cb284547f85f0e78e3b3dcca2d82c2ece1a3e9abf2526633828760405161250293929190619cf2565b60405180910390a161254c565b7fb2bfa9090d50ad1a62cb284547f85f0e78e3b3dcca2d82c2ece1a3e9abf252663360008760405161254393929190619d86565b60405180910390a15b61258e565b7fb2bfa9090d50ad1a62cb284547f85f0e78e3b3dcca2d82c2ece1a3e9abf252663360008760405161258593929190619d3c565b60405180910390a15b505b5b505050505050565b8383600660078111156125af576125ae61a4c8565b5b600460003373ffffffffffffffffffffffffffffffffffffffff1673ffffffffffffffffffffffffffffffffffffffff16815260200190815260200160002060009054906101000a900460ff16600781111561260e5761260d61a4c8565b5b1415801561268d57506005600781111561262b5761262a61a4c8565b5b600460003373ffffffffffffffffffffffffffffffffffffffff1673ffffffffffffffffffffffffffffffffffffffff16815260200190815260200160002060009054906101000a900460ff16600781111561268a5761268961a4c8565b5b14155b801561270957506007808111156126a7576126a661a4c8565b5b600460003373ffffffffffffffffffffffffffffffffffffffff1673ffffffffffffffffffffffffffffffffffffffff16815260200190815260200160002060009054906101000a900460ff1660078111156127065761270561a4c8565b5b14155b1561274f577fb2bfa9090d50ad1a62cb284547f85f0e78e3b3dcca2d82c2ece1a3e9abf252663360008060405161274293929190619a58565b60405180910390a16129bf565b81816040516020016127629291906190aa565b604051602081830303815290604052805190602001206000803373ffffffffffffffffffffffffffffffffffffffff1673ffffffffffffffffffffffffffffffffffffffff16815260200190815260200160002060060154148061282f575081816040516020016127d49291906190aa565b60405160208183030381529060405280519060200120600160003373ffffffffffffffffffffffffffffffffffffffff1673ffffffffffffffffffffffffffffffffffffffff16815260200190815260200160002060060154145b806128a3575081816040516020016128489291906190aa565b60405160208183030381529060405280519060200120600260003373ffffffffffffffffffffffffffffffffffffffff1673ffffffffffffffffffffffffffffffffffffffff16815260200190815260200160002060020154145b6128e8577fb2bfa9090d50ad1a62cb284547f85f0e78e3b3dcca2d82c2ece1a3e9abf25266336000806040516128db9392919061964c565b60405180910390a16129bf565b600560078111156128fc576128fb61a4c8565b5b600460003373ffffffffffffffffffffffffffffffffffffffff1673ffffffffffffffffffffffffffffffffffffffff16815260200190815260200160002060009054906101000a900460ff16600781111561295b5761295a61a4c8565b5b146129a1577fb2bfa9090d50ad1a62cb284547f85f0e78e3b3dcca2d82c2ece1a3e9abf252663360008060405161299493929190619162565b60405180910390a16129be565b6129ab84846171ff565b156129bd576129bb8484336172f8565b505b5b5b505050505050565b8282600660078111156129dd576129dc61a4c8565b5b600460003373ffffffffffffffffffffffffffffffffffffffff1673ffffffffffffffffffffffffffffffffffffffff16815260200190815260200160002060009054906101000a900460ff166007811115612a3c57612a3b61a4c8565b5b14158015612abb575060056007811115612a5957612a5861a4c8565b5b600460003373ffffffffffffffffffffffffffffffffffffffff1673ffffffffffffffffffffffffffffffffffffffff16815260200190815260200160002060009054906101000a900460ff166007811115612ab857612ab761a4c8565b5b14155b8015612b375750600780811115612ad557612ad461a4c8565b5b600460003373ffffffffffffffffffffffffffffffffffffffff1673ffffffffffffffffffffffffffffffffffffffff16815260200190815260200160002060009054906101000a900460ff166007811115612b3457612b3361a4c8565b5b14155b15612b7d577fb2bfa9090d50ad1a62cb284547f85f0e78e3b3dcca2d82c2ece1a3e9abf2526633600080604051612b7093929190619a58565b60405180910390a1612f4b565b8181604051602001612b909291906190aa565b604051602081830303815290604052805190602001206000803373ffffffffffffffffffffffffffffffffffffffff1673ffffffffffffffffffffffffffffffffffffffff168152602001908152602001600020600601541480612c5d57508181604051602001612c029291906190aa565b60405160208183030381529060405280519060200120600160003373ffffffffffffffffffffffffffffffffffffffff1673ffffffffffffffffffffffffffffffffffffffff16815260200190815260200160002060060154145b80612cd157508181604051602001612c769291906190aa565b60405160208183030381529060405280519060200120600260003373ffffffffffffffffffffffffffffffffffffffff1673ffffffffffffffffffffffffffffffffffffffff16815260200190815260200160002060020154145b612d16577fb2bfa9090d50ad1a62cb284547f85f0e78e3b3dcca2d82c2ece1a3e9abf2526633600080604051612d099392919061964c565b60405180910390a1612f4b565b60066007811115612d2a57612d2961a4c8565b5b600460003373ffffffffffffffffffffffffffffffffffffffff1673ffffffffffffffffffffffffffffffffffffffff16815260200190815260200160002060009054906101000a900460ff166007811115612d8957612d8861a4c8565b5b14612dcf577fb2bfa9090d50ad1a62cb284547f85f0e78e3b3dcca2d82c2ece1a3e9abf2526633600080604051612dc293929190619696565b60405180910390a1612f4a565b82601481511015612e1b577fb2bfa9090d50ad1a62cb284547f85f0e78e3b3dcca2d82c2ece1a3e9abf2526633600080604051612e0e939291906199c4565b60405180910390a1612f48565b61015481511115612e67577fb2bfa9090d50ad1a62cb284547f85f0e78e3b3dcca2d82c2ece1a3e9abf2526633600080604051612e5a93929190619852565b60405180910390a1612f48565b336000612e7382617071565b90506000811415612ec0577fb2bfa9090d50ad1a62cb284547f85f0e78e3b3dcca2d82c2ece1a3e9abf2526633600080604051612eb29392919061997a565b60405180910390a150612f46565b6000612ecb33617071565b90508660078281548110612ee257612ee161a526565b5b90600052602060002090600902016001019080519060200190612f06929190617a3b565b507fb2bfa9090d50ad1a62cb284547f85f0e78e3b3dcca2d82c2ece1a3e9abf2526633600083604051612f3b93929190619ca8565b60405180910390a150505b505b505b5b5050505050565b838360066007811115612f6857612f6761a4c8565b5b600460003373ffffffffffffffffffffffffffffffffffffffff1673ffffffffffffffffffffffffffffffffffffffff16815260200190815260200160002060009054906101000a900460ff166007811115612fc757612fc661a4c8565b5b14158015613046575060056007811115612fe457612fe361a4c8565b5b600460003373ffffffffffffffffffffffffffffffffffffffff1673ffffffffffffffffffffffffffffffffffffffff16815260200190815260200160002060009054906101000a900460ff1660078111156130435761304261a4c8565b5b14155b80156130c257506007808111156130605761305f61a4c8565b5b600460003373ffffffffffffffffffffffffffffffffffffffff1673ffffffffffffffffffffffffffffffffffffffff16815260200190815260200160002060009054906101000a900460ff1660078111156130bf576130be61a4c8565b5b14155b15613108577fb2bfa9090d50ad1a62cb284547f85f0e78e3b3dcca2d82c2ece1a3e9abf25266336000806040516130fb93929190619a58565b60405180910390a16134f8565b818160405160200161311b9291906190aa565b604051602081830303815290604052805190602001206000803373ffffffffffffffffffffffffffffffffffffffff1673ffffffffffffffffffffffffffffffffffffffff1681526020019081526020016000206006015414806131e85750818160405160200161318d9291906190aa565b60405160208183030381529060405280519060200120600160003373ffffffffffffffffffffffffffffffffffffffff1673ffffffffffffffffffffffffffffffffffffffff16815260200190815260200160002060060154145b8061325c575081816040516020016132019291906190aa565b60405160208183030381529060405280519060200120600260003373ffffffffffffffffffffffffffffffffffffffff1673ffffffffffffffffffffffffffffffffffffffff16815260200190815260200160002060020154145b6132a1577fb2bfa9090d50ad1a62cb284547f85f0e78e3b3dcca2d82c2ece1a3e9abf25266336000806040516132949392919061964c565b60405180910390a16134f8565b600660078111156132b5576132b461a4c8565b5b600460003373ffffffffffffffffffffffffffffffffffffffff1673ffffffffffffffffffffffffffffffffffffffff16815260200190815260200160002060009054906101000a900460ff1660078111156133145761331361a4c8565b5b1461335a577fb2bfa9090d50ad1a62cb284547f85f0e78e3b3dcca2d82c2ece1a3e9abf252663360008060405161334d93929190619696565b60405180910390a16134f7565b826014815110156133a6577fb2bfa9090d50ad1a62cb284547f85f0e78e3b3dcca2d82c2ece1a3e9abf2526633600080604051613399939291906199c4565b60405180910390a16134f5565b610154815111156133f2577fb2bfa9090d50ad1a62cb284547f85f0e78e3b3dcca2d82c2ece1a3e9abf25266336000806040516133e593929190619852565b60405180910390a16134f5565b60008060003373ffffffffffffffffffffffffffffffffffffffff1673ffffffffffffffffffffffffffffffffffffffff168152602001908152602001600020600401905085818054905011156134b657848187815481106134575761345661a526565b5b906000526020600020019080519060200190613474929190617a3b565b507fb2bfa9090d50ad1a62cb284547f85f0e78e3b3dcca2d82c2ece1a3e9abf25266336000806040516134a993929190619524565b60405180910390a16134f3565b7fb2bfa9090d50ad1a62cb284547f85f0e78e3b3dcca2d82c2ece1a3e9abf25266336000806040516134ea93929190619b80565b60405180910390a15b505b505b5b505050505050565b60606008805480602002602001604051908101604052809291908181526020016000905b828210156135d05783829060005260206000200180546135439061a3ed565b80601f016020809104026020016040519081016040528092919081815260200182805461356f9061a3ed565b80156135bc5780601f10613591576101008083540402835291602001916135bc565b820191906000526020600020905b81548152906001019060200180831161359f57829003601f168201915b505050505081526020019060010190613524565b50505050905090565b8282600660078111156135ef576135ee61a4c8565b5b600460003373ffffffffffffffffffffffffffffffffffffffff1673ffffffffffffffffffffffffffffffffffffffff16815260200190815260200160002060009054906101000a900460ff16600781111561364e5761364d61a4c8565b5b141580156136cd57506005600781111561366b5761366a61a4c8565b5b600460003373ffffffffffffffffffffffffffffffffffffffff1673ffffffffffffffffffffffffffffffffffffffff16815260200190815260200160002060009054906101000a900460ff1660078111156136ca576136c961a4c8565b5b14155b801561374957506007808111156136e7576136e661a4c8565b5b600460003373ffffffffffffffffffffffffffffffffffffffff1673ffffffffffffffffffffffffffffffffffffffff16815260200190815260200160002060009054906101000a900460ff1660078111156137465761374561a4c8565b5b14155b1561378f577fb2bfa9090d50ad1a62cb284547f85f0e78e3b3dcca2d82c2ece1a3e9abf252663360008060405161378293929190619a58565b60405180910390a1613c14565b81816040516020016137a29291906190aa565b604051602081830303815290604052805190602001206000803373ffffffffffffffffffffffffffffffffffffffff1673ffffffffffffffffffffffffffffffffffffffff16815260200190815260200160002060060154148061386f575081816040516020016138149291906190aa565b60405160208183030381529060405280519060200120600160003373ffffffffffffffffffffffffffffffffffffffff1673ffffffffffffffffffffffffffffffffffffffff16815260200190815260200160002060060154145b806138e3575081816040516020016138889291906190aa565b60405160208183030381529060405280519060200120600260003373ffffffffffffffffffffffffffffffffffffffff1673ffffffffffffffffffffffffffffffffffffffff16815260200190815260200160002060020154145b613928577fb2bfa9090d50ad1a62cb284547f85f0e78e3b3dcca2d82c2ece1a3e9abf252663360008060405161391b9392919061964c565b60405180910390a1613c14565b6006600781111561393c5761393b61a4c8565b5b600460003373ffffffffffffffffffffffffffffffffffffffff1673ffffffffffffffffffffffffffffffffffffffff16815260200190815260200160002060009054906101000a900460ff16600781111561399b5761399a61a4c8565b5b146139e1577fb2bfa9090d50ad1a62cb284547f85f0e78e3b3dcca2d82c2ece1a3e9abf25266336000806040516139d493929190619696565b60405180910390a1613c13565b82601481511015613a2d577fb2bfa9090d50ad1a62cb284547f85f0e78e3b3dcca2d82c2ece1a3e9abf2526633600080604051613a20939291906199c4565b60405180910390a1613c11565b61015481511115613a79577fb2bfa9090d50ad1a62cb284547f85f0e78e3b3dcca2d82c2ece1a3e9abf2526633600080604051613a6c93929190619852565b60405180910390a1613c11565b336000613a8582617071565b90506000811415613ad2577fb2bfa9090d50ad1a62cb284547f85f0e78e3b3dcca2d82c2ece1a3e9abf2526633600080604051613ac49392919061997a565b60405180910390a150613c0f565b6000613add33617071565b9050600060078281548110613af557613af461a526565b5b906000526020600020906009020160070160003373ffffffffffffffffffffffffffffffffffffffff1673ffffffffffffffffffffffffffffffffffffffff1681526020019081526020016000209050600a81805490501015613bce578088908060018154018082558091505060019003906000526020600020016000909190919091509080519060200190613b8c929190617a3b565b507fb2bfa9090d50ad1a62cb284547f85f0e78e3b3dcca2d82c2ece1a3e9abf2526633600084604051613bc193929190619dd0565b60405180910390a1613c0b565b7fb2bfa9090d50ad1a62cb284547f85f0e78e3b3dcca2d82c2ece1a3e9abf2526633600084604051613c0293929190619e1a565b60405180910390a15b5050505b505b505b5b5050505050565b828260066007811115613c3157613c3061a4c8565b5b600460003373ffffffffffffffffffffffffffffffffffffffff1673ffffffffffffffffffffffffffffffffffffffff16815260200190815260200160002060009054906101000a900460ff166007811115613c9057613c8f61a4c8565b5b14158015613d0f575060056007811115613cad57613cac61a4c8565b5b600460003373ffffffffffffffffffffffffffffffffffffffff1673ffffffffffffffffffffffffffffffffffffffff16815260200190815260200160002060009054906101000a900460ff166007811115613d0c57613d0b61a4c8565b5b14155b8015613d8b5750600780811115613d2957613d2861a4c8565b5b600460003373ffffffffffffffffffffffffffffffffffffffff1673ffffffffffffffffffffffffffffffffffffffff16815260200190815260200160002060009054906101000a900460ff166007811115613d8857613d8761a4c8565b5b14155b15613dd1577fb2bfa9090d50ad1a62cb284547f85f0e78e3b3dcca2d82c2ece1a3e9abf2526633600080604051613dc493929190619a58565b60405180910390a16143d9565b8181604051602001613de49291906190aa565b604051602081830303815290604052805190602001206000803373ffffffffffffffffffffffffffffffffffffffff1673ffffffffffffffffffffffffffffffffffffffff168152602001908152602001600020600601541480613eb157508181604051602001613e569291906190aa565b60405160208183030381529060405280519060200120600160003373ffffffffffffffffffffffffffffffffffffffff1673ffffffffffffffffffffffffffffffffffffffff16815260200190815260200160002060060154145b80613f2557508181604051602001613eca9291906190aa565b60405160208183030381529060405280519060200120600260003373ffffffffffffffffffffffffffffffffffffffff1673ffffffffffffffffffffffffffffffffffffffff16815260200190815260200160002060020154145b613f6a577fb2bfa9090d50ad1a62cb284547f85f0e78e3b3dcca2d82c2ece1a3e9abf2526633600080604051613f5d9392919061964c565b60405180910390a16143d9565b600780811115613f7d57613f7c61a4c8565b5b600460003373ffffffffffffffffffffffffffffffffffffffff1673ffffffffffffffffffffffffffffffffffffffff16815260200190815260200160002060009054906101000a900460ff166007811115613fdc57613fdb61a4c8565b5b14614022577fb2bfa9090d50ad1a62cb284547f85f0e78e3b3dcca2d82c2ece1a3e9abf252663360008060405161401593929190619aec565b60405180910390a16143d8565b600260003373ffffffffffffffffffffffffffffffffffffffff1673ffffffffffffffffffffffffffffffffffffffff16815260200190815260200160002060030160009054906101000a900460ff166140b7577fb2bfa9090d50ad1a62cb284547f85f0e78e3b3dcca2d82c2ece1a3e9abf25266336000806040516140aa93929190619240565b60405180910390a16143d8565b60006005846040516140c99190619093565b908152602001604051809103902060009054906101000a900473ffffffffffffffffffffffffffffffffffffffff1690506006600781111561410e5761410d61a4c8565b5b600460008373ffffffffffffffffffffffffffffffffffffffff1673ffffffffffffffffffffffffffffffffffffffff16815260200190815260200160002060009054906101000a900460ff16600781111561416d5761416c61a4c8565b5b14806141e95750600560078111156141885761418761a4c8565b5b600460008373ffffffffffffffffffffffffffffffffffffffff1673ffffffffffffffffffffffffffffffffffffffff16815260200190815260200160002060009054906101000a900460ff1660078111156141e7576141e661a4c8565b5b145b1561425b576001600460008373ffffffffffffffffffffffffffffffffffffffff1673ffffffffffffffffffffffffffffffffffffffff16815260200190815260200160002060006101000a81548160ff021916908360078111156142515761425061a4c8565b5b0217905550614399565b60078081111561426e5761426d61a4c8565b5b600460008373ffffffffffffffffffffffffffffffffffffffff1673ffffffffffffffffffffffffffffffffffffffff16815260200190815260200160002060009054906101000a900460ff1660078111156142cd576142cc61a4c8565b5b141561435657600260008273ffffffffffffffffffffffffffffffffffffffff1673ffffffffffffffffffffffffffffffffffffffff168152602001908152602001600020600080820160006143239190617ac1565b6001820160006143339190617ac1565b60028201600090556003820160006101000a81549060ff02191690555050614398565b7fb2bfa9090d50ad1a62cb284547f85f0e78e3b3dcca2d82c2ece1a3e9abf252663360008060405161438a939291906195b8565b60405180910390a1506143d7565b5b7fb2bfa9090d50ad1a62cb284547f85f0e78e3b3dcca2d82c2ece1a3e9abf25266336000806040516143cd939291906196e0565b60405180910390a1505b5b5b5050505050565b600881815481106143f057600080fd5b90600052602060002001600091509050805461440b9061a3ed565b80601f01602080910402602001604051908101604052809291908181526020018280546144379061a3ed565b80156144845780601f1061445957610100808354040283529160200191614484565b820191906000526020600020905b81548152906001019060200180831161446757829003601f168201915b505050505081565b6060600260008373ffffffffffffffffffffffffffffffffffffffff1673ffffffffffffffffffffffffffffffffffffffff16815260200190815260200160002060010180546144db9061a3ed565b80601f01602080910402602001604051908101604052809291908181526020018280546145079061a3ed565b80156145545780601f1061452957610100808354040283529160200191614554565b820191906000526020600020905b81548152906001019060200180831161453757829003601f168201915b50505050509050919050565b60606009805480602002602001604051908101604052809291908181526020016000905b828210156146305783829060005260206000200180546145a39061a3ed565b80601f01602080910402602001604051908101604052809291908181526020018280546145cf9061a3ed565b801561461c5780601f106145f15761010080835404028352916020019161461c565b820191906000526020600020905b8154815290600101906020018083116145ff57829003601f168201915b505050505081526020019060010190614584565b50505050905090565b6060600a805480602002602001604051908101604052809291908181526020016000905b8282101561470957838290600052602060002001805461467c9061a3ed565b80601f01602080910402602001604051908101604052809291908181526020018280546146a89061a3ed565b80156146f55780601f106146ca576101008083540402835291602001916146f5565b820191906000526020600020905b8154815290600101906020018083116146d857829003601f168201915b50505050508152602001906001019061465d565b50505050905090565b6009818154811061472257600080fd5b90600052602060002001600091509050805461473d9061a3ed565b80601f01602080910402602001604051908101604052809291908181526020018280546147699061a3ed565b80156147b65780601f1061478b576101008083540402835291602001916147b6565b820191906000526020600020905b81548152906001019060200180831161479957829003601f168201915b505050505081565b6147c883836174ff565b15614a3157600460078111156147e1576147e061a4c8565b5b600460003373ffffffffffffffffffffffffffffffffffffffff1673ffffffffffffffffffffffffffffffffffffffff16815260200190815260200160002060009054906101000a900460ff1660078111156148405761483f61a4c8565b5b14156149f3576000600260003373ffffffffffffffffffffffffffffffffffffffff1673ffffffffffffffffffffffffffffffffffffffff1681526020019081526020016000209050838160000190805190602001906148a1929190617a3b565b5083836040516020016148b59291906190aa565b604051602081830303815290604052805190602001208160020181905550818160010190805190602001906148eb929190617a3b565b50336005856040516148fd9190619093565b908152602001604051809103902060006101000a81548173ffffffffffffffffffffffffffffffffffffffff021916908373ffffffffffffffffffffffffffffffffffffffff1602179055506007600460003373ffffffffffffffffffffffffffffffffffffffff1673ffffffffffffffffffffffffffffffffffffffff16815260200190815260200160002060006101000a81548160ff021916908360078111156149ac576149ab61a4c8565b5b02179055507fb2bfa9090d50ad1a62cb284547f85f0e78e3b3dcca2d82c2ece1a3e9abf25266336000806040516149e593929190619930565b60405180910390a150614a30565b7fb2bfa9090d50ad1a62cb284547f85f0e78e3b3dcca2d82c2ece1a3e9abf2526633600080604051614a27939291906190ce565b60405180910390a15b5b505050565b826000815114614ad15760005b8151811015614acb57600880549050828281518110614a6557614a6461a526565b5b602002602001015161ffff1610614ab8577fb2bfa9090d50ad1a62cb284547f85f0e78e3b3dcca2d82c2ece1a3e9abf2526633600080604051614aaa939291906193fc565b60405180910390a150614ee0565b8080614ac39061a450565b915050614a43565b50614b12565b7fb2bfa9090d50ad1a62cb284547f85f0e78e3b3dcca2d82c2ece1a3e9abf2526633600080604051614b0593929190619368565b60405180910390a1614ee0565b614b1c87876174ff565b15614ede5760026007811115614b3557614b3461a4c8565b5b600460003373ffffffffffffffffffffffffffffffffffffffff1673ffffffffffffffffffffffffffffffffffffffff16815260200190815260200160002060009054906101000a900460ff166007811115614b9457614b9361a4c8565b5b1415614ea0576000835114614e5e5760005b8351811015614c2e57600980549050848281518110614bc857614bc761a526565b5b602002602001015161ffff1610614c1b577fb2bfa9090d50ad1a62cb284547f85f0e78e3b3dcca2d82c2ece1a3e9abf2526633600080604051614c0d939291906194da565b60405180910390a150614edf565b8080614c269061a450565b915050614ba6565b506000600160003373ffffffffffffffffffffffffffffffffffffffff1673ffffffffffffffffffffffffffffffffffffffff168152602001908152602001600020905087816000019080519060200190614c8a929190617a3b565b508787604051602001614c9e9291906190aa565b60405160208183030381529060405280519060200120816006018190555085816001019080519060200190614cd4929190617a3b565b5084816004019080519060200190614ced929190617b01565b5083816005019080519060200190614d06929190617b01565b5082816002019080519060200190614d1f929190617a3b565b5033600589604051614d319190619093565b908152602001604051809103902060006101000a81548173ffffffffffffffffffffffffffffffffffffffff021916908373ffffffffffffffffffffffffffffffffffffffff1602179055506005600460003373ffffffffffffffffffffffffffffffffffffffff1673ffffffffffffffffffffffffffffffffffffffff16815260200190815260200160002060006101000a81548160ff02191690836007811115614de057614ddf61a4c8565b5b02179055506001600384604051614df79190619093565b908152602001604051809103902060006101000a81548160ff0219169083151502179055507fb2bfa9090d50ad1a62cb284547f85f0e78e3b3dcca2d82c2ece1a3e9abf2526633600080604051614e50939291906198e6565b60405180910390a150614e9b565b7fb2bfa9090d50ad1a62cb284547f85f0e78e3b3dcca2d82c2ece1a3e9abf2526633600080604051614e92939291906191ac565b60405180910390a15b614edd565b7fb2bfa9090d50ad1a62cb284547f85f0e78e3b3dcca2d82c2ece1a3e9abf2526633600080604051614ed4939291906192d4565b60405180910390a15b5b5b5b50505050505050565b614ef386866174ff565b156152e557600b8360ff1611158015614f10575060018360ff1610155b156152a7576002825114156152655760036007811115614f3357614f3261a4c8565b5b600460003373ffffffffffffffffffffffffffffffffffffffff1673ffffffffffffffffffffffffffffffffffffffff16815260200190815260200160002060009054906101000a900460ff166007811115614f9257614f9161a4c8565b5b141561522357600381604051614fa89190619093565b908152602001604051809103902060009054906101000a900460ff166151e15760008060003373ffffffffffffffffffffffffffffffffffffffff1673ffffffffffffffffffffffffffffffffffffffff168152602001908152602001600020905086816000019080519060200190615022929190617a3b565b5086866040516020016150369291906190aa565b6040516020818303038152906040528051906020012081600601819055508481600101908051906020019061506c929190617a3b565b50838160050160006101000a81548160ff021916908360ff160217905550828160020190805190602001906150a2929190617a3b565b5060016003836040516150b59190619093565b908152602001604051809103902060006101000a81548160ff021916908315150217905550336005886040516150eb9190619093565b908152602001604051809103902060006101000a81548173ffffffffffffffffffffffffffffffffffffffff021916908373ffffffffffffffffffffffffffffffffffffffff1602179055506006600460003373ffffffffffffffffffffffffffffffffffffffff1673ffffffffffffffffffffffffffffffffffffffff16815260200190815260200160002060006101000a81548160ff0219169083600781111561519a5761519961a4c8565b5b02179055507fb2bfa9090d50ad1a62cb284547f85f0e78e3b3dcca2d82c2ece1a3e9abf25266336000806040516151d39392919061956e565b60405180910390a15061521e565b7fb2bfa9090d50ad1a62cb284547f85f0e78e3b3dcca2d82c2ece1a3e9abf25266336000806040516152159392919061972a565b60405180910390a15b615260565b7fb2bfa9090d50ad1a62cb284547f85f0e78e3b3dcca2d82c2ece1a3e9abf2526633600080604051615257939291906192d4565b60405180910390a15b6152a2565b7fb2bfa9090d50ad1a62cb284547f85f0e78e3b3dcca2d82c2ece1a3e9abf2526633600080604051615299939291906193b2565b60405180910390a15b6152e4565b7fb2bfa9090d50ad1a62cb284547f85f0e78e3b3dcca2d82c2ece1a3e9abf25266336000806040516152db939291906197be565b60405180910390a15b5b505050505050565b60608060608060606152fe866177c3565b90506000600160008873ffffffffffffffffffffffffffffffffffffffff1673ffffffffffffffffffffffffffffffffffffffff1681526020019081526020016000206040518061012001604052908160008201805461535d9061a3ed565b80601f01602080910402602001604051908101604052809291908181526020018280546153899061a3ed565b80156153d65780601f106153ab576101008083540402835291602001916153d6565b820191906000526020600020905b8154815290600101906020018083116153b957829003601f168201915b505050505081526020016001820180546153ef9061a3ed565b80601f016020809104026020016040519081016040528092919081815260200182805461541b9061a3ed565b80156154685780601f1061543d57610100808354040283529160200191615468565b820191906000526020600020905b81548152906001019060200180831161544b57829003601f168201915b505050505081526020016002820180546154819061a3ed565b80601f01602080910402602001604051908101604052809291908181526020018280546154ad9061a3ed565b80156154fa5780601f106154cf576101008083540402835291602001916154fa565b820191906000526020600020905b8154815290600101906020018083116154dd57829003601f168201915b50505050508152602001600382015481526020016004820180548060200260200160405190810160405280929190818152602001828054801561558457602002820191906000526020600020906000905b82829054906101000a900461ffff1661ffff168152602001906002019060208260010104928301926001038202915080841161554b5790505b505050505081526020016005820180548060200260200160405190810160405280929190818152602001828054801561560457602002820191906000526020600020906000905b82829054906101000a900461ffff1661ffff16815260200190600201906020826001010492830192600103820291508084116155cb5790505b50505050508152602001600682015481526020016007820160009054906101000a900460ff161515151581526020016007820160019054906101000a900460ff161515151581525050905080600001518160200151955095505091939590929450565b83836006600781111561567d5761567c61a4c8565b5b600460003373ffffffffffffffffffffffffffffffffffffffff1673ffffffffffffffffffffffffffffffffffffffff16815260200190815260200160002060009054906101000a900460ff1660078111156156dc576156db61a4c8565b5b1415801561575b5750600560078111156156f9576156f861a4c8565b5b600460003373ffffffffffffffffffffffffffffffffffffffff1673ffffffffffffffffffffffffffffffffffffffff16815260200190815260200160002060009054906101000a900460ff1660078111156157585761575761a4c8565b5b14155b80156157d757506007808111156157755761577461a4c8565b5b600460003373ffffffffffffffffffffffffffffffffffffffff1673ffffffffffffffffffffffffffffffffffffffff16815260200190815260200160002060009054906101000a900460ff1660078111156157d4576157d361a4c8565b5b14155b1561581d577fb2bfa9090d50ad1a62cb284547f85f0e78e3b3dcca2d82c2ece1a3e9abf252663360008060405161581093929190619a58565b60405180910390a1615c9e565b81816040516020016158309291906190aa565b604051602081830303815290604052805190602001206000803373ffffffffffffffffffffffffffffffffffffffff1673ffffffffffffffffffffffffffffffffffffffff1681526020019081526020016000206006015414806158fd575081816040516020016158a29291906190aa565b60405160208183030381529060405280519060200120600160003373ffffffffffffffffffffffffffffffffffffffff1673ffffffffffffffffffffffffffffffffffffffff16815260200190815260200160002060060154145b80615971575081816040516020016159169291906190aa565b60405160208183030381529060405280519060200120600260003373ffffffffffffffffffffffffffffffffffffffff1673ffffffffffffffffffffffffffffffffffffffff16815260200190815260200160002060020154145b6159b6577fb2bfa9090d50ad1a62cb284547f85f0e78e3b3dcca2d82c2ece1a3e9abf25266336000806040516159a99392919061964c565b60405180910390a1615c9e565b600660078111156159ca576159c961a4c8565b5b600460003373ffffffffffffffffffffffffffffffffffffffff1673ffffffffffffffffffffffffffffffffffffffff16815260200190815260200160002060009054906101000a900460ff166007811115615a2957615a2861a4c8565b5b14615a6f577fb2bfa9090d50ad1a62cb284547f85f0e78e3b3dcca2d82c2ece1a3e9abf2526633600080604051615a6293929190619696565b60405180910390a1615c9d565b82601481511015615abb577fb2bfa9090d50ad1a62cb284547f85f0e78e3b3dcca2d82c2ece1a3e9abf2526633600080604051615aae939291906199c4565b60405180910390a1615c9b565b61015481511115615b07577fb2bfa9090d50ad1a62cb284547f85f0e78e3b3dcca2d82c2ece1a3e9abf2526633600080604051615afa93929190619852565b60405180910390a1615c9b565b336000615b1382617071565b90506000811415615b60577fb2bfa9090d50ad1a62cb284547f85f0e78e3b3dcca2d82c2ece1a3e9abf2526633600080604051615b529392919061997a565b60405180910390a150615c99565b6000615b6b33617071565b9050600060078281548110615b8357615b8261a526565b5b906000526020600020906009020160070160003373ffffffffffffffffffffffffffffffffffffffff1673ffffffffffffffffffffffffffffffffffffffff16815260200190815260200160002090508860ff1681805490501115615c585787818a60ff1681548110615bf957615bf861a526565b5b906000526020600020019080519060200190615c16929190617a3b565b507fb2bfa9090d50ad1a62cb284547f85f0e78e3b3dcca2d82c2ece1a3e9abf2526633600084604051615c4b93929190619c14565b60405180910390a1615c95565b7fb2bfa9090d50ad1a62cb284547f85f0e78e3b3dcca2d82c2ece1a3e9abf2526633600084604051615c8c93929190619bca565b60405180910390a15b5050505b505b505b5b505050505050565b600a8181548110615cb657600080fd5b906000526020600020016000915090508054615cd19061a3ed565b80601f0160208091040260200160405190810160405280929190818152602001828054615cfd9061a3ed565b8015615d4a5780601f10615d1f57610100808354040283529160200191615d4a565b820191906000526020600020905b815481529060010190602001808311615d2d57829003601f168201915b505050505081565b615d5a617bab565b606080606080606080600080615d6f33617071565b9050615d7a8a6177c3565b925060008060008c73ffffffffffffffffffffffffffffffffffffffff1673ffffffffffffffffffffffffffffffffffffffff1681526020019081526020016000206040518060e0016040529081600082018054615dd79061a3ed565b80601f0160208091040260200160405190810160405280929190818152602001828054615e039061a3ed565b8015615e505780601f10615e2557610100808354040283529160200191615e50565b820191906000526020600020905b815481529060010190602001808311615e3357829003601f168201915b50505050508152602001600182018054615e699061a3ed565b80601f0160208091040260200160405190810160405280929190818152602001828054615e959061a3ed565b8015615ee25780601f10615eb757610100808354040283529160200191615ee2565b820191906000526020600020905b815481529060010190602001808311615ec557829003601f168201915b50505050508152602001600282018054615efb9061a3ed565b80601f0160208091040260200160405190810160405280929190818152602001828054615f279061a3ed565b8015615f745780601f10615f4957610100808354040283529160200191615f74565b820191906000526020600020905b815481529060010190602001808311615f5757829003601f168201915b50505050508152602001600382018054615f8d9061a3ed565b80601f0160208091040260200160405190810160405280929190818152602001828054615fb99061a3ed565b80156160065780601f10615fdb57610100808354040283529160200191616006565b820191906000526020600020905b815481529060010190602001808311615fe957829003601f168201915b5050505050815260200160048201805480602002602001604051908101604052809291908181526020016000905b828210156160e05783829060005260206000200180546160539061a3ed565b80601f016020809104026020016040519081016040528092919081815260200182805461607f9061a3ed565b80156160cc5780601f106160a1576101008083540402835291602001916160cc565b820191906000526020600020905b8154815290600101906020018083116160af57829003601f168201915b505050505081526020019060010190616034565b5050505081526020016005820160009054906101000a900460ff1660ff1660ff16815260200160068201548152505090506000801b8160c00181815250506000600783815481106161345761613361a526565b5b906000526020600020906009020190508060080160008d73ffffffffffffffffffffffffffffffffffffffff1673ffffffffffffffffffffffffffffffffffffffff16815260200190815260200160002080546161909061a3ed565b80601f01602080910402602001604051908101604052809291908181526020018280546161bc9061a3ed565b80156162095780601f106161de57610100808354040283529160200191616209565b820191906000526020600020905b8154815290600101906020018083116161ec57829003601f168201915b505050505097508060070160008d73ffffffffffffffffffffffffffffffffffffffff1673ffffffffffffffffffffffffffffffffffffffff168152602001908152602001600020805480602002602001604051908101604052809291908181526020016000905b8282101561631d5783829060005260206000200180546162909061a3ed565b80601f01602080910402602001604051908101604052809291908181526020018280546162bc9061a3ed565b80156163095780601f106162de57610100808354040283529160200191616309565b820191906000526020600020905b8154815290600101906020018083116162ec57829003601f168201915b505050505081526020019060010190616271565b5050505095508181600001826001018a60098560040160009054906101000a900461ffff1661ffff16815481106163575761635661a526565b5b906000526020600020018a8a8760020160009054906101000a900473ffffffffffffffffffffffffffffffffffffffff168680546163949061a3ed565b80601f01602080910402602001604051908101604052809291908181526020018280546163c09061a3ed565b801561640d5780601f106163e25761010080835404028352916020019161640d565b820191906000526020600020905b8154815290600101906020018083116163f057829003601f168201915b505050505096508580546164209061a3ed565b80601f016020809104026020016040519081016040528092919081815260200182805461644c9061a3ed565b80156164995780601f1061646e57610100808354040283529160200191616499565b820191906000526020600020905b81548152906001019060200180831161647c57829003601f168201915b505050505095508380546164ac9061a3ed565b80601f01602080910402602001604051908101604052809291908181526020018280546164d89061a3ed565b80156165255780601f106164fa57610100808354040283529160200191616525565b820191906000526020600020905b81548152906001019060200180831161650857829003601f168201915b505050505093509a509a509a509a509a509a509a509a50505050919395975091939597565b8282600660078111156165605761655f61a4c8565b5b600460003373ffffffffffffffffffffffffffffffffffffffff1673ffffffffffffffffffffffffffffffffffffffff16815260200190815260200160002060009054906101000a900460ff1660078111156165bf576165be61a4c8565b5b1415801561663e5750600560078111156165dc576165db61a4c8565b5b600460003373ffffffffffffffffffffffffffffffffffffffff1673ffffffffffffffffffffffffffffffffffffffff16815260200190815260200160002060009054906101000a900460ff16600781111561663b5761663a61a4c8565b5b14155b80156166ba57506007808111156166585761665761a4c8565b5b600460003373ffffffffffffffffffffffffffffffffffffffff1673ffffffffffffffffffffffffffffffffffffffff16815260200190815260200160002060009054906101000a900460ff1660078111156166b7576166b661a4c8565b5b14155b15616700577fb2bfa9090d50ad1a62cb284547f85f0e78e3b3dcca2d82c2ece1a3e9abf25266336000806040516166f393929190619a58565b60405180910390a1616afa565b81816040516020016167139291906190aa565b604051602081830303815290604052805190602001206000803373ffffffffffffffffffffffffffffffffffffffff1673ffffffffffffffffffffffffffffffffffffffff1681526020019081526020016000206006015414806167e0575081816040516020016167859291906190aa565b60405160208183030381529060405280519060200120600160003373ffffffffffffffffffffffffffffffffffffffff1673ffffffffffffffffffffffffffffffffffffffff16815260200190815260200160002060060154145b80616854575081816040516020016167f99291906190aa565b60405160208183030381529060405280519060200120600260003373ffffffffffffffffffffffffffffffffffffffff1673ffffffffffffffffffffffffffffffffffffffff16815260200190815260200160002060020154145b616899577fb2bfa9090d50ad1a62cb284547f85f0e78e3b3dcca2d82c2ece1a3e9abf252663360008060405161688c9392919061964c565b60405180910390a1616afa565b600660078111156168ad576168ac61a4c8565b5b600460003373ffffffffffffffffffffffffffffffffffffffff1673ffffffffffffffffffffffffffffffffffffffff16815260200190815260200160002060009054906101000a900460ff16600781111561690c5761690b61a4c8565b5b14616952577fb2bfa9090d50ad1a62cb284547f85f0e78e3b3dcca2d82c2ece1a3e9abf252663360008060405161694593929190619696565b60405180910390a1616af9565b8260148151101561699e577fb2bfa9090d50ad1a62cb284547f85f0e78e3b3dcca2d82c2ece1a3e9abf2526633600080604051616991939291906199c4565b60405180910390a1616af7565b610154815111156169ea577fb2bfa9090d50ad1a62cb284547f85f0e78e3b3dcca2d82c2ece1a3e9abf25266336000806040516169dd93929190619852565b60405180910390a1616af7565b60008060003373ffffffffffffffffffffffffffffffffffffffff1673ffffffffffffffffffffffffffffffffffffffff1681526020019081526020016000206004019050600a81805490501015616ab8578085908060018154018082558091505060019003906000526020600020016000909190919091509080519060200190616a76929190617a3b565b507fb2bfa9090d50ad1a62cb284547f85f0e78e3b3dcca2d82c2ece1a3e9abf2526633600080604051616aab939291906191f6565b60405180910390a1616af5565b7fb2bfa9090d50ad1a62cb284547f85f0e78e3b3dcca2d82c2ece1a3e9abf2526633600080604051616aec9392919061928a565b60405180910390a15b505b505b5b5050505050565b828260066007811115616b1757616b1661a4c8565b5b600460003373ffffffffffffffffffffffffffffffffffffffff1673ffffffffffffffffffffffffffffffffffffffff16815260200190815260200160002060009054906101000a900460ff166007811115616b7657616b7561a4c8565b5b14158015616bf5575060056007811115616b9357616b9261a4c8565b5b600460003373ffffffffffffffffffffffffffffffffffffffff1673ffffffffffffffffffffffffffffffffffffffff16815260200190815260200160002060009054906101000a900460ff166007811115616bf257616bf161a4c8565b5b14155b8015616c715750600780811115616c0f57616c0e61a4c8565b5b600460003373ffffffffffffffffffffffffffffffffffffffff1673ffffffffffffffffffffffffffffffffffffffff16815260200190815260200160002060009054906101000a900460ff166007811115616c6e57616c6d61a4c8565b5b14155b15616cb7577fb2bfa9090d50ad1a62cb284547f85f0e78e3b3dcca2d82c2ece1a3e9abf2526633600080604051616caa93929190619a58565b60405180910390a161706a565b8181604051602001616cca9291906190aa565b604051602081830303815290604052805190602001206000803373ffffffffffffffffffffffffffffffffffffffff1673ffffffffffffffffffffffffffffffffffffffff168152602001908152602001600020600601541480616d9757508181604051602001616d3c9291906190aa565b60405160208183030381529060405280519060200120600160003373ffffffffffffffffffffffffffffffffffffffff1673ffffffffffffffffffffffffffffffffffffffff16815260200190815260200160002060060154145b80616e0b57508181604051602001616db09291906190aa565b60405160208183030381529060405280519060200120600260003373ffffffffffffffffffffffffffffffffffffffff1673ffffffffffffffffffffffffffffffffffffffff16815260200190815260200160002060020154145b616e50577fb2bfa9090d50ad1a62cb284547f85f0e78e3b3dcca2d82c2ece1a3e9abf2526633600080604051616e439392919061964c565b60405180910390a161706a565b60056007811115616e6457616e6361a4c8565b5b600460003373ffffffffffffffffffffffffffffffffffffffff1673ffffffffffffffffffffffffffffffffffffffff16815260200190815260200160002060009054906101000a900460ff166007811115616ec357616ec261a4c8565b5b14616f09577fb2bfa9090d50ad1a62cb284547f85f0e78e3b3dcca2d82c2ece1a3e9abf2526633600080604051616efc93929190619162565b60405180910390a1617069565b60006007811115616f1d57616f1c61a4c8565b5b600460008573ffffffffffffffffffffffffffffffffffffffff1673ffffffffffffffffffffffffffffffffffffffff16815260200190815260200160002060009054906101000a900460ff166007811115616f7c57616f7b61a4c8565b5b141561702b576003600460008573ffffffffffffffffffffffffffffffffffffffff1673ffffffffffffffffffffffffffffffffffffffff16815260200190815260200160002060006101000a81548160ff02191690836007811115616fe557616fe461a4c8565b5b02179055507fb2bfa9090d50ad1a62cb284547f85f0e78e3b3dcca2d82c2ece1a3e9abf252663360008060405161701e93929190619118565b60405180910390a1617068565b7fb2bfa9090d50ad1a62cb284547f85f0e78e3b3dcca2d82c2ece1a3e9abf252663360008060405161705f939291906190ce565b60405180910390a15b5b5b5050505050565b600080600660008473ffffffffffffffffffffffffffffffffffffffff1673ffffffffffffffffffffffffffffffffffffffff16815260200190815260200160002080549050146171f9576000600660008473ffffffffffffffffffffffffffffffffffffffff1673ffffffffffffffffffffffffffffffffffffffff16815260200190815260200160002080548060200260200160405190810160405280929190818152602001828054801561714757602002820191906000526020600020905b815481526020019060010190808311617133575b5050505050905060005b81518110156171f657600082828151811061716f5761716e61a526565b5b6020026020010151905060038081111561718c5761718b61a4c8565b5b600782815481106171a05761719f61a526565b5b906000526020600020906009020160060160009054906101000a900460ff1660038111156171d1576171d061a4c8565b5b14156171e2578093505050506171fa565b5080806171ee9061a450565b915050617151565b50505b5b919050565b6000600e8351106172b057606483511161726e576009805490508261ffff16101561722d57600190506172f2565b7fb2bfa9090d50ad1a62cb284547f85f0e78e3b3dcca2d82c2ece1a3e9abf25266336000806040516172619392919061931e565b60405180910390a16172ab565b7fb2bfa9090d50ad1a62cb284547f85f0e78e3b3dcca2d82c2ece1a3e9abf25266336000806040516172a293929190619a0e565b60405180910390a15b6172ed565b7fb2bfa9090d50ad1a62cb284547f85f0e78e3b3dcca2d82c2ece1a3e9abf25266336000806040516172e493929190619490565b60405180910390a15b600090505b92915050565b60006007600181600181540180825580915050039060005260206000209050506000600160078054905061732c919061a2ba565b90506000600782815481106173445761734361a526565b5b906000526020600020906009020190508581600001908051906020019061736c929190617a3b565b50838160020160006101000a81548173ffffffffffffffffffffffffffffffffffffffff021916908373ffffffffffffffffffffffffffffffffffffffff160217905550848160040160006101000a81548161ffff021916908361ffff160217905550600160008573ffffffffffffffffffffffffffffffffffffffff1673ffffffffffffffffffffffffffffffffffffffff16815260200190815260200160002060040181600501908054617423929190617bee565b5060038160060160006101000a81548160ff0219169083600381111561744c5761744b61a4c8565b5b0217905550600660008573ffffffffffffffffffffffffffffffffffffffff1673ffffffffffffffffffffffffffffffffffffffff1681526020019081526020016000208290806001815401808255809150506001900390600052602060002001600090919091909150557fb2bfa9090d50ad1a62cb284547f85f0e78e3b3dcca2d82c2ece1a3e9abf25266336000846040516174eb93929190619e64565b60405180910390a181925050509392505050565b60008082511461777b57600073ffffffffffffffffffffffffffffffffffffffff166005846040516175319190619093565b908152602001604051809103902060009054906101000a900473ffffffffffffffffffffffffffffffffffffffff1673ffffffffffffffffffffffffffffffffffffffff16141561773957600560078111156175905761758f61a4c8565b5b600460003373ffffffffffffffffffffffffffffffffffffffff1673ffffffffffffffffffffffffffffffffffffffff16815260200190815260200160002060009054906101000a900460ff1660078111156175ef576175ee61a4c8565b5b1415801561766e57506006600781111561760c5761760b61a4c8565b5b600460003373ffffffffffffffffffffffffffffffffffffffff1673ffffffffffffffffffffffffffffffffffffffff16815260200190815260200160002060009054906101000a900460ff16600781111561766b5761766a61a4c8565b5b14155b80156176ea57506007808111156176885761768761a4c8565b5b600460003373ffffffffffffffffffffffffffffffffffffffff1673ffffffffffffffffffffffffffffffffffffffff16815260200190815260200160002060009054906101000a900460ff1660078111156176e7576176e661a4c8565b5b14155b156176f857600190506177bd565b7fb2bfa9090d50ad1a62cb284547f85f0e78e3b3dcca2d82c2ece1a3e9abf252663360008060405161772c93929190619774565b60405180910390a1617776565b7fb2bfa9090d50ad1a62cb284547f85f0e78e3b3dcca2d82c2ece1a3e9abf252663360008060405161776d93929190619808565b60405180910390a15b6177b8565b7fb2bfa9090d50ad1a62cb284547f85f0e78e3b3dcca2d82c2ece1a3e9abf25266336000806040516177af93929190619446565b60405180910390a15b600090505b92915050565b60606000600660008473ffffffffffffffffffffffffffffffffffffffff1673ffffffffffffffffffffffffffffffffffffffff1681526020019081526020016000208054905014617a35576000600660008473ffffffffffffffffffffffffffffffffffffffff1673ffffffffffffffffffffffffffffffffffffffff16815260200190815260200160002080548060200260200160405190810160405280929190818152602001828054801561789a57602002820191906000526020600020905b815481526020019060010190808311617886575b50505050509050600660008473ffffffffffffffffffffffffffffffffffffffff1673ffffffffffffffffffffffffffffffffffffffff1681526020019081526020016000208054905067ffffffffffffffff8111156178fd576178fc61a555565b5b60405190808252806020026020018201604052801561793057816020015b606081526020019060019003908161791b5790505b5091506000805b8251811015617a2d57600781815481106179545761795361a526565b5b906000526020600020906009020160000180546179709061a3ed565b80601f016020809104026020016040519081016040528092919081815260200182805461799c9061a3ed565b80156179e95780601f106179be576101008083540402835291602001916179e9565b820191906000526020600020905b8154815290600101906020018083116179cc57829003601f168201915b5050505050848381518110617a0157617a0061a526565b5b60200260200101819052508180617a179061a450565b9250508080617a259061a450565b915050617937565b505050617a36565b5b919050565b828054617a479061a3ed565b90600052602060002090601f016020900481019282617a695760008555617ab0565b82601f10617a8257805160ff1916838001178555617ab0565b82800160010185558215617ab0579182015b82811115617aaf578251825591602001919060010190617a94565b5b509050617abd9190617c4e565b5090565b508054617acd9061a3ed565b6000825580601f10617adf5750617afe565b601f016020900490600052602060002090810190617afd9190617c4e565b5b50565b82805482825590600052602060002090600f01601090048101928215617b9a5791602002820160005b83821115617b6a57835183826101000a81548161ffff021916908361ffff1602179055509260200192600201602081600101049283019260010302617b2a565b8015617b985782816101000a81549061ffff0219169055600201602081600101049283019260010302617b6a565b505b509050617ba79190617c4e565b5090565b6040518060e001604052806060815260200160608152602001606081526020016060815260200160608152602001600060ff168152602001600080191681525090565b82805482825590600052602060002090600f01601090048101928215617c3d57600052602060002091600f016010900482015b82811115617c3c578254825591600101919060010190617c21565b5b509050617c4a9190617c4e565b5090565b5b80821115617c67576000816000905550600101617c4f565b5090565b6000617c7e617c798461a130565b61a10b565b90508083825260208201905082856020860282011115617ca157617ca061a589565b5b60005b85811015617cd15781617cb78882617d8e565b845260208401935060208301925050600181019050617ca4565b5050509392505050565b6000617cee617ce98461a15c565b61a10b565b905082815260208101848484011115617d0a57617d0961a58e565b5b617d1584828561a3ab565b509392505050565b600081359050617d2c8161adf5565b92915050565b600082601f830112617d4757617d4661a584565b5b8135617d57848260208601617c6b565b91505092915050565b600082601f830112617d7557617d7461a584565b5b8135617d85848260208601617cdb565b91505092915050565b600081359050617d9d8161ae0c565b92915050565b600081359050617db28161ae23565b92915050565b600081359050617dc78161ae3a565b92915050565b600060208284031215617de357617de261a598565b5b6000617df184828501617d1d565b91505092915050565b60008060408385031215617e1157617e1061a598565b5b600083013567ffffffffffffffff811115617e2f57617e2e61a593565b5b617e3b85828601617d60565b925050602083013567ffffffffffffffff811115617e5c57617e5b61a593565b5b617e6885828601617d60565b9150509250929050565b600080600060608486031215617e8b57617e8a61a598565b5b600084013567ffffffffffffffff811115617ea957617ea861a593565b5b617eb586828701617d60565b935050602084013567ffffffffffffffff811115617ed657617ed561a593565b5b617ee286828701617d60565b9250506040617ef386828701617d1d565b9150509250925092565b600080600060608486031215617f1657617f1561a598565b5b600084013567ffffffffffffffff811115617f3457617f3361a593565b5b617f4086828701617d60565b935050602084013567ffffffffffffffff811115617f6157617f6061a593565b5b617f6d86828701617d60565b925050604084013567ffffffffffffffff811115617f8e57617f8d61a593565b5b617f9a86828701617d60565b9150509250925092565b60008060008060008060c08789031215617fc157617fc061a598565b5b600087013567ffffffffffffffff811115617fdf57617fde61a593565b5b617feb89828a01617d60565b965050602087013567ffffffffffffffff81111561800c5761800b61a593565b5b61801889828a01617d60565b955050604087013567ffffffffffffffff8111156180395761803861a593565b5b61804589828a01617d60565b945050606087013567ffffffffffffffff8111156180665761806561a593565b5b61807289828a01617d32565b935050608087013567ffffffffffffffff8111156180935761809261a593565b5b61809f89828a01617d32565b92505060a087013567ffffffffffffffff8111156180c0576180bf61a593565b5b6180cc89828a01617d60565b9150509295509295509295565b600080600080600060a086880312156180f5576180f461a598565b5b600086013567ffffffffffffffff8111156181135761811261a593565b5b61811f88828901617d60565b955050602086013567ffffffffffffffff8111156181405761813f61a593565b5b61814c88828901617d60565b945050604086013567ffffffffffffffff81111561816d5761816c61a593565b5b61817988828901617d60565b935050606086013567ffffffffffffffff81111561819a5761819961a593565b5b6181a688828901617d60565b92505060806181b788828901617d8e565b9150509295509295909350565b600080600080608085870312156181de576181dd61a598565b5b600085013567ffffffffffffffff8111156181fc576181fb61a593565b5b61820887828801617d60565b945050602085013567ffffffffffffffff8111156182295761822861a593565b5b61823587828801617d60565b935050604085013567ffffffffffffffff8111156182565761825561a593565b5b61826287828801617d60565b925050606061827387828801617d8e565b91505092959194509250565b60008060008060008060c0878903121561829c5761829b61a598565b5b600087013567ffffffffffffffff8111156182ba576182b961a593565b5b6182c689828a01617d60565b965050602087013567ffffffffffffffff8111156182e7576182e661a593565b5b6182f389828a01617d60565b955050604087013567ffffffffffffffff8111156183145761831361a593565b5b61832089828a01617d60565b945050606061833189828a01617db8565b935050608087013567ffffffffffffffff8111156183525761835161a593565b5b61835e89828a01617d60565b92505060a087013567ffffffffffffffff81111561837f5761837e61a593565b5b61838b89828a01617d60565b9150509295509295509295565b6000806000606084860312156183b1576183b061a598565b5b600084013567ffffffffffffffff8111156183cf576183ce61a593565b5b6183db86828701617d60565b935050602084013567ffffffffffffffff8111156183fc576183fb61a593565b5b61840886828701617d60565b925050604061841986828701617da3565b9150509250925092565b6000806000806080858703121561843d5761843c61a598565b5b600085013567ffffffffffffffff81111561845b5761845a61a593565b5b61846787828801617d60565b945050602085013567ffffffffffffffff8111156184885761848761a593565b5b61849487828801617d60565b93505060406184a587828801617da3565b925050606085013567ffffffffffffffff8111156184c6576184c561a593565b5b6184d287828801617d60565b91505092959194509250565b600080600080608085870312156184f8576184f761a598565b5b600085013567ffffffffffffffff8111156185165761851561a593565b5b61852287828801617d60565b945050602085013567ffffffffffffffff8111156185435761854261a593565b5b61854f87828801617d60565b935050604061856087828801617db8565b925050606085013567ffffffffffffffff8111156185815761858061a593565b5b61858d87828801617d60565b91505092959194509250565b6000602082840312156185af576185ae61a598565b5b60006185bd84828501617da3565b91505092915050565b60006185d28383618622565b60208301905092915050565b60006185ea8383618880565b905092915050565b60006185fe8383619048565b60208301905092915050565b60006186168383619066565b60208301905092915050565b61862b8161a2ee565b82525050565b61863a8161a2ee565b82525050565b600061864b8261a1cd565b618655818561a238565b93506186608361a18d565b8060005b8381101561869157815161867888826185c6565b97506186838361a204565b925050600181019050618664565b5085935050505092915050565b60006186a98261a1d8565b6186b3818561a249565b9350836020820285016186c58561a19d565b8060005b8581101561870157848403895281516186e285826185de565b94506186ed8361a211565b925060208a019950506001810190506186c9565b50829750879550505050505092915050565b600061871e8261a1d8565b618728818561a25a565b93508360208202850161873a8561a19d565b8060005b85811015618776578484038952815161875785826185de565b94506187628361a211565b925060208a0199505060018101905061873e565b50829750879550505050505092915050565b60006187938261a1e3565b61879d818561a26b565b93506187a88361a1ad565b8060005b838110156187d95781516187c088826185f2565b97506187cb8361a21e565b9250506001810190506187ac565b5085935050505092915050565b60006187f18261a1ee565b6187fb818561a27c565b93506188068361a1bd565b8060005b8381101561883757815161881e888261860a565b97506188298361a22b565b92505060018101905061880a565b5085935050505092915050565b61884d8161a300565b82525050565b61885c8161a375565b82525050565b61886b8161a387565b82525050565b61887a8161a399565b82525050565b600061888b8261a1f9565b618895818561a28d565b93506188a581856020860161a3ba565b6188ae8161a59d565b840191505092915050565b60006188c48261a1f9565b6188ce818561a29e565b93506188de81856020860161a3ba565b6188e78161a59d565b840191505092915050565b60006188fd8261a1f9565b618907818561a2af565b935061891781856020860161a3ba565b80840191505092915050565b6000618930601c8361a29e565b915061893b8261a5ae565b602082019050919050565b600061895360118361a29e565b915061895e8261a5d7565b602082019050919050565b600061897660138361a29e565b91506189818261a600565b602082019050919050565b600061899960188361a29e565b91506189a48261a629565b602082019050919050565b60006189bc601d8361a29e565b91506189c78261a652565b602082019050919050565b60006189df601c8361a29e565b91506189ea8261a67b565b602082019050919050565b6000618a0260168361a29e565b9150618a0d8261a6a4565b602082019050919050565b6000618a2560218361a29e565b9150618a308261a6cd565b604082019050919050565b6000618a4860148361a29e565b9150618a538261a71c565b602082019050919050565b6000618a6b601e8361a29e565b9150618a768261a745565b602082019050919050565b6000618a8e60208361a29e565b9150618a998261a76e565b602082019050919050565b6000618ab1600b8361a29e565b9150618abc8261a797565b602082019050919050565b6000618ad460198361a29e565b9150618adf8261a7c0565b602082019050919050565b6000618af760268361a29e565b9150618b028261a7e9565b604082019050919050565b6000618b1a60188361a29e565b9150618b258261a838565b602082019050919050565b6000618b3d60158361a29e565b9150618b488261a861565b602082019050919050565b6000618b6060198361a29e565b9150618b6b8261a88a565b602082019050919050565b6000618b83601d8361a29e565b9150618b8e8261a8b3565b602082019050919050565b6000618ba660128361a29e565b9150618bb18261a8dc565b602082019050919050565b6000618bc9601f8361a29e565b9150618bd48261a905565b602082019050919050565b6000618bec600b8361a29e565b9150618bf78261a92e565b602082019050919050565b6000618c0f600e8361a29e565b9150618c1a8261a957565b602082019050919050565b6000618c3260268361a29e565b9150618c3d8261a980565b604082019050919050565b6000618c5560118361a29e565b9150618c608261a9cf565b602082019050919050565b6000618c7860138361a29e565b9150618c838261a9f8565b602082019050919050565b6000618c9b60148361a29e565b9150618ca68261aa21565b602082019050919050565b6000618cbe60158361a29e565b9150618cc98261aa4a565b602082019050919050565b6000618ce160178361a29e565b9150618cec8261aa73565b602082019050919050565b6000618d0460128361a29e565b9150618d0f8261aa9c565b602082019050919050565b6000618d27600e8361a29e565b9150618d328261aac5565b602082019050919050565b6000618d4a60158361a29e565b9150618d558261aaee565b602082019050919050565b6000618d6d60268361a29e565b9150618d788261ab17565b604082019050919050565b6000618d9060108361a29e565b9150618d9b8261ab66565b602082019050919050565b6000618db3601b8361a29e565b9150618dbe8261ab8f565b602082019050919050565b6000618dd6601f8361a29e565b9150618de18261abb8565b602082019050919050565b6000618df9601d8361a29e565b9150618e048261abe1565b602082019050919050565b6000618e1c601e8361a29e565b9150618e278261ac0a565b602082019050919050565b6000618e3f60118361a29e565b9150618e4a8261ac33565b602082019050919050565b6000618e62601c8361a29e565b9150618e6d8261ac5c565b602082019050919050565b6000618e8560198361a29e565b9150618e908261ac85565b602082019050919050565b6000618ea860188361a29e565b9150618eb38261acae565b602082019050919050565b6000618ecb60088361a29e565b9150618ed68261acd7565b602082019050919050565b6000618eee60118361a29e565b9150618ef98261ad00565b602082019050919050565b6000618f1160208361a29e565b9150618f1c8261ad29565b602082019050919050565b6000618f34601f8361a29e565b9150618f3f8261ad52565b602082019050919050565b6000618f5760158361a29e565b9150618f628261ad7b565b602082019050919050565b6000618f7a601c8361a29e565b9150618f858261ada4565b602082019050919050565b600060e0830160008301518482036000860152618fad8282618880565b91505060208301518482036020860152618fc78282618880565b91505060408301518482036040860152618fe18282618880565b91505060608301518482036060860152618ffb8282618880565b91505060808301518482036080860152619015828261869e565b91505060a083015161902a60a0860182619084565b5060c083015161903d60c0860182618844565b508091505092915050565b6190518161a330565b82525050565b6190608161a330565b82525050565b61906f8161a35e565b82525050565b61907e8161a35e565b82525050565b61908d8161a368565b82525050565b600061909f82846188f2565b915081905092915050565b60006190b682856188f2565b91506190c282846188f2565b91508190509392505050565b60006080820190506190e36000830186618631565b6190f06020830185618631565b6190fd6040830184618871565b818103606083015261910e81618923565b9050949350505050565b600060808201905061912d6000830186618631565b61913a6020830185618631565b6191476040830184618871565b818103606083015261915881618946565b9050949350505050565b60006080820190506191776000830186618631565b6191846020830185618631565b6191916040830184618871565b81810360608301526191a281618969565b9050949350505050565b60006080820190506191c16000830186618631565b6191ce6020830185618631565b6191db6040830184618871565b81810360608301526191ec816189af565b9050949350505050565b600060808201905061920b6000830186618631565b6192186020830185618631565b6192256040830184618871565b8181036060830152619236816189d2565b9050949350505050565b60006080820190506192556000830186618631565b6192626020830185618631565b61926f6040830184618871565b8181036060830152619280816189f5565b9050949350505050565b600060808201905061929f6000830186618631565b6192ac6020830185618631565b6192b96040830184618871565b81810360608301526192ca81618a18565b9050949350505050565b60006080820190506192e96000830186618631565b6192f66020830185618631565b6193036040830184618871565b818103606083015261931481618a3b565b9050949350505050565b60006080820190506193336000830186618631565b6193406020830185618631565b61934d6040830184618871565b818103606083015261935e81618a5e565b9050949350505050565b600060808201905061937d6000830186618631565b61938a6020830185618631565b6193976040830184618871565b81810360608301526193a881618a81565b9050949350505050565b60006080820190506193c76000830186618631565b6193d46020830185618631565b6193e16040830184618871565b81810360608301526193f281618ac7565b9050949350505050565b60006080820190506194116000830186618631565b61941e6020830185618631565b61942b6040830184618871565b818103606083015261943c81618aea565b9050949350505050565b600060808201905061945b6000830186618631565b6194686020830185618631565b6194756040830184618871565b818103606083015261948681618b30565b9050949350505050565b60006080820190506194a56000830186618631565b6194b26020830185618631565b6194bf6040830184618871565b81810360608301526194d081618b53565b9050949350505050565b60006080820190506194ef6000830186618631565b6194fc6020830185618631565b6195096040830184618871565b818103606083015261951a81618b76565b9050949350505050565b60006080820190506195396000830186618631565b6195466020830185618631565b6195536040830184618871565b818103606083015261956481618b99565b9050949350505050565b60006080820190506195836000830186618631565b6195906020830185618631565b61959d6040830184618871565b81810360608301526195ae81618bbc565b9050949350505050565b60006080820190506195cd6000830186618631565b6195da6020830185618631565b6195e76040830184618871565b81810360608301526195f881618c02565b9050949350505050565b60006080820190506196176000830186618631565b6196246020830185618631565b6196316040830184618871565b818103606083015261964281618c25565b9050949350505050565b60006080820190506196616000830186618631565b61966e6020830185618631565b61967b6040830184618871565b818103606083015261968c81618c48565b9050949350505050565b60006080820190506196ab6000830186618631565b6196b86020830185618631565b6196c56040830184618871565b81810360608301526196d681618c6b565b9050949350505050565b60006080820190506196f56000830186618631565b6197026020830185618631565b61970f6040830184618871565b818103606083015261972081618c8e565b9050949350505050565b600060808201905061973f6000830186618631565b61974c6020830185618631565b6197596040830184618871565b818103606083015261976a81618cb1565b9050949350505050565b60006080820190506197896000830186618631565b6197966020830185618631565b6197a36040830184618871565b81810360608301526197b481618cd4565b9050949350505050565b60006080820190506197d36000830186618631565b6197e06020830185618631565b6197ed6040830184618871565b81810360608301526197fe81618cf7565b9050949350505050565b600060808201905061981d6000830186618631565b61982a6020830185618631565b6198376040830184618871565b818103606083015261984881618d3d565b9050949350505050565b60006080820190506198676000830186618631565b6198746020830185618631565b6198816040830184618871565b818103606083015261989281618d83565b9050949350505050565b60006080820190506198b16000830186618631565b6198be6020830185618631565b6198cb6040830184618871565b81810360608301526198dc81618da6565b9050949350505050565b60006080820190506198fb6000830186618631565b6199086020830185618631565b6199156040830184618871565b818103606083015261992681618dc9565b9050949350505050565b60006080820190506199456000830186618631565b6199526020830185618631565b61995f6040830184618871565b818103606083015261997081618dec565b9050949350505050565b600060808201905061998f6000830186618631565b61999c6020830185618631565b6199a96040830184618871565b81810360608301526199ba81618e0f565b9050949350505050565b60006080820190506199d96000830186618631565b6199e66020830185618631565b6199f36040830184618871565b8181036060830152619a0481618e32565b9050949350505050565b6000608082019050619a236000830186618631565b619a306020830185618631565b619a3d6040830184618871565b8181036060830152619a4e81618e55565b9050949350505050565b6000608082019050619a6d6000830186618631565b619a7a6020830185618631565b619a876040830184618871565b8181036060830152619a9881618e78565b9050949350505050565b6000608082019050619ab76000830186618631565b619ac46020830185618631565b619ad16040830184618871565b8181036060830152619ae281618e9b565b9050949350505050565b6000608082019050619b016000830186618631565b619b0e6020830185618631565b619b1b6040830184618871565b8181036060830152619b2c81618ee1565b9050949350505050565b6000608082019050619b4b6000830186618631565b619b586020830185618631565b619b656040830184618871565b8181036060830152619b7681618f04565b9050949350505050565b6000608082019050619b956000830186618631565b619ba26020830185618631565b619baf6040830184618871565b8181036060830152619bc081618f27565b9050949350505050565b6000608082019050619bdf6000830186618631565b619bec6020830185618631565b619bf96040830184619075565b8181036060830152619c0a8161898c565b9050949350505050565b6000608082019050619c296000830186618631565b619c366020830185618631565b619c436040830184619075565b8181036060830152619c5481618aa4565b9050949350505050565b6000608082019050619c736000830186618631565b619c806020830185618631565b619c8d6040830184619075565b8181036060830152619c9e81618b0d565b9050949350505050565b6000608082019050619cbd6000830186618631565b619cca6020830185618631565b619cd76040830184619075565b8181036060830152619ce881618bdf565b9050949350505050565b6000608082019050619d076000830186618631565b619d146020830185618631565b619d216040830184619075565b8181036060830152619d3281618d1a565b9050949350505050565b6000608082019050619d516000830186618631565b619d5e6020830185618631565b619d6b6040830184619075565b8181036060830152619d7c81618d60565b9050949350505050565b6000608082019050619d9b6000830186618631565b619da86020830185618631565b619db56040830184619075565b8181036060830152619dc681618da6565b9050949350505050565b6000608082019050619de56000830186618631565b619df26020830185618631565b619dff6040830184619075565b8181036060830152619e1081618ebe565b9050949350505050565b6000608082019050619e2f6000830186618631565b619e3c6020830185618631565b619e496040830184619075565b8181036060830152619e5a81618f4a565b9050949350505050565b6000608082019050619e796000830186618631565b619e866020830185618631565b619e936040830184619075565b8181036060830152619ea481618f6d565b9050949350505050565b60006020820190508181036000830152619ec88184618713565b905092915050565b60006020820190508181036000830152619eea81846187e6565b905092915050565b6000602082019050619f076000830184618853565b92915050565b600061012082019050619f23600083018c618862565b8181036020830152619f35818b6188b9565b90508181036040830152619f49818a6188b9565b90508181036060830152619f5d8189618713565b90508181036080830152619f7181886188b9565b905081810360a0830152619f858187618640565b9050619f9460c0830186618631565b619fa160e0830185619057565b818103610100830152619fb48184618788565b90509a9950505050505050505050565b60006020820190508181036000830152619fde81846188b9565b905092915050565b600060a082019050818103600083015261a00081886188b9565b9050818103602083015261a01481876188b9565b9050818103604083015261a0288186618713565b9050818103606083015261a03c8185618713565b9050818103608083015261a0508184618713565b90509695505050505050565b600061010082019050818103600083015261a077818b618f90565b9050818103602083015261a08b818a6188b9565b9050818103604083015261a09f81896188b9565b9050818103606083015261a0b381886188b9565b9050818103608083015261a0c781876188b9565b905081810360a083015261a0db8186618713565b905081810360c083015261a0ef8185618713565b905061a0fe60e0830184618631565b9998505050505050505050565b600061a11561a126565b905061a121828261a41f565b919050565b6000604051905090565b600067ffffffffffffffff82111561a14b5761a14a61a555565b5b602082029050602081019050919050565b600067ffffffffffffffff82111561a1775761a17661a555565b5b61a1808261a59d565b9050602081019050919050565b6000819050602082019050919050565b6000819050602082019050919050565b6000819050602082019050919050565b6000819050602082019050919050565b600081519050919050565b600081519050919050565b600081519050919050565b600081519050919050565b600081519050919050565b6000602082019050919050565b6000602082019050919050565b6000602082019050919050565b6000602082019050919050565b600082825260208201905092915050565b600082825260208201905092915050565b600082825260208201905092915050565b600082825260208201905092915050565b600082825260208201905092915050565b600082825260208201905092915050565b600082825260208201905092915050565b600081905092915050565b600061a2c58261a35e565b915061a2d08361a35e565b92508282101561a2e35761a2e261a499565b5b828203905092915050565b600061a2f98261a33e565b9050919050565b6000819050919050565b600081905061a3188261adcd565b919050565b600081905061a32b8261ade1565b919050565b600061ffff82169050919050565b600073ffffffffffffffffffffffffffffffffffffffff82169050919050565b6000819050919050565b600060ff82169050919050565b600061a3808261a30a565b9050919050565b600061a3928261a31d565b9050919050565b600061a3a48261a35e565b9050919050565b82818337600083830152505050565b60005b8381101561a3d857808201518184015260208101905061a3bd565b8381111561a3e7576000848401525b50505050565b6000600282049050600182168061a40557607f821691505b6020821081141561a4195761a41861a4f7565b5b50919050565b61a4288261a59d565b810181811067ffffffffffffffff8211171561a4475761a44661a555565b5b80604052505050565b600061a45b8261a35e565b91507fffffffffffffffffffffffffffffffffffffffffffffffffffffffffffffffff82141561a48e5761a48d61a499565b5b600182019050919050565b7f4e487b7100000000000000000000000000000000000000000000000000000000600052601160045260246000fd5b7f4e487b7100000000000000000000000000000000000000000000000000000000600052602160045260246000fd5b7f4e487b7100000000000000000000000000000000000000000000000000000000600052602260045260246000fd5b7f4e487b7100000000000000000000000000000000000000000000000000000000600052603260045260246000fd5b7f4e487b7100000000000000000000000000000000000000000000000000000000600052604160045260246000fd5b600080fd5b600080fd5b600080fd5b600080fd5b600080fd5b6000601f19601f8301169050919050565b7f4552524f523a206164647265737320616c7265616479207573696e6700000000600082015250565b7f416464726573732067656e657261746564000000000000000000000000000000600082015250565b7f4552524f523a206f6e6c79207465616368657200000000000000000000000000600082015250565b7f4552524f523a2077726f6e67206e756d626572207461736b0000000000000000600082015250565b7f4552524f523a206e6f7420696e707574206c61626f7261746f72696573000000600082015250565b7f5375636365737366756c6c7920616464207374726f6e67207369646500000000600082015250565b7f4552524f523a206f6e6c7920686561642061646d696e00000000000000000000600082015250565b7f4552524f523a206861766520746f6f206d756368207374726f6e67207369646560008201527f7300000000000000000000000000000000000000000000000000000000000000602082015250565b7f4552524f523a2077726f6e672061646472657373000000000000000000000000600082015250565b7f4552524f523a2077726f6e67206e756d626572206c61626f7261746f72790000600082015250565b7f4552524f523a206e6f7420696e707574207363686f6f6c207375626a65637473600082015250565b7f4368616e6765207461736b000000000000000000000000000000000000000000600082015250565b7f4552524f523a2077726f6e6720636c617373206c657474657200000000000000600082015250565b7f4552524f523a20696e707574206e6f74206578697374207363686f6f6c20737560008201527f626a656374730000000000000000000000000000000000000000000000000000602082015250565b7f5375636365737366756c6c79206368616e676520726f6c650000000000000000600082015250565b7f4552524f523a20656d7074792070617373776f72640000000000000000000000600082015250565b7f4552524f523a2073686f7274206e616d652070726f6a65637400000000000000600082015250565b7f4552524f523a206e6f74206578697374206c61626f7261746f72696573000000600082015250565b7f4368616e6765207374726f6e6720736964650000000000000000000000000000600082015250565b7f53747564656e74207375636365737366756c6c79207265676973746572656400600082015250565b7f4368616e676520676f616c000000000000000000000000000000000000000000600082015250565b7f55736572206e6f74206578697374000000000000000000000000000000000000600082015250565b7f4552524f523a20796f7520616c7265616479206861766520616374697665207060008201527f726f6a6563740000000000000000000000000000000000000000000000000000602082015250565b7f4552524f523a2077726f6e672064617461000000000000000000000000000000600082015250565b7f4552524f523a206f6e6c792073747564656e7400000000000000000000000000600082015250565b7f5375636365737366756c6c7920626c6f636b6564000000000000000000000000600082015250565b7f4552524f523a20656d61696c206f636375706965640000000000000000000000600082015250565b7f4552524f523a2061646472657373206f63637570696564000000000000000000600082015250565b7f4552524f523a2077726f6e6720636c6173730000000000000000000000000000600082015250565b7f41646420696e2070726f6a656374000000000000000000000000000000000000600082015250565b7f4552524f523a206c6f67696e206f636375706965640000000000000000000000600082015250565b7f4552524f523a20746869732061646472657373206e6f742062656c6f6e67207360008201527f747564656e740000000000000000000000000000000000000000000000000000602082015250565b7f4552524f523a206c6f6e67207465787400000000000000000000000000000000600082015250565b7f4552524f523a2077726f6e67206e756d6265722070726f6a6563740000000000600082015250565b7f54656163686572207375636365737366756c6c79207265676973746572656400600082015250565b7f41646d696e207375636365737366756c6c792072656769737465726564000000600082015250565b7f4552524f523a206e6f742068617665206163746976652070726f6a6563740000600082015250565b7f4552524f523a2073686f72742074657874000000000000000000000000000000600082015250565b7f4552524f523a20746f6f206c6f6e67206e616d652070726f6a65637400000000600082015250565b7f4552524f523a20796f75206e6f74207265676973746572656400000000000000600082015250565b7f4552524f523a2074656163686572206e6f742065786973740000000000000000600082015250565b7f416464207461736b000000000000000000000000000000000000000000000000600082015250565b7f4552524f523a206f6e6c792061646d696e000000000000000000000000000000600082015250565b7f4552524f523a20796f75206e6f74206861766520746869732070726f6a656374600082015250565b7f4552524f523a2077726f6e67206e756d626572207374726f6e67207369646500600082015250565b7f4552524f523a20746f6f206d756368207461736b730000000000000000000000600082015250565b7f50726f6a656374207375636365737366756c6c79206372656174656400000000600082015250565b6008811061adde5761addd61a4c8565b5b50565b6004811061adf25761adf161a4c8565b5b50565b61adfe8161a2ee565b811461ae0957600080fd5b50565b61ae158161a330565b811461ae2057600080fd5b50565b61ae2c8161a35e565b811461ae3757600080fd5b50565b61ae438161a368565b811461ae4e57600080fd5b5056fea2646970667358221220ae64b77fe6d7dcd6fbb820d1493d5d8cb11d04c09fbb7d2081e7d9605bd651bf64736f6c634300080700334d617468656d61746963616c206d6f64656c696e6720616e6420616e616c79736973546865726d616c207068656e6f6d656e6120616e64206d6f6c6563756c617220737472756374757265734d6963726f656c656374726f6e69637320616e64206369726375697420656e67696e656572696e67",
			"opcodes": "PUSH1 0x80 PUSH1 0x40 MSTORE CALLVALUE DUP1 ISZERO PUSH3 0x11 JUMPI PUSH1 0x0 DUP1 REVERT JUMPDEST POP PUSH1 0x40 MLOAD DUP1 PUSH1 0x40 ADD PUSH1 0x40 MSTORE DUP1 PUSH1 0x40 MLOAD DUP1 PUSH1 0x40 ADD PUSH1 0x40 MSTORE DUP1 PUSH1 0x3 DUP2 MSTORE PUSH1 0x20 ADD PUSH32 0x4E6F740000000000000000000000000000000000000000000000000000000000 DUP2 MSTORE POP DUP2 MSTORE PUSH1 0x20 ADD PUSH1 0x40 MLOAD DUP1 PUSH1 0x40 ADD PUSH1 0x40 MSTORE DUP1 PUSH1 0x11 DUP2 MSTORE PUSH1 0x20 ADD PUSH32 0x4D617468416E64496E666F726D61746963000000000000000000000000000000 DUP2 MSTORE POP DUP2 MSTORE POP PUSH1 0xA SWAP1 PUSH1 0x2 PUSH3 0xA3 SWAP3 SWAP2 SWAP1 PUSH3 0x15AE JUMP JUMPDEST POP PUSH1 0x40 MLOAD DUP1 PUSH1 0xA0 ADD PUSH1 0x40 MSTORE DUP1 PUSH1 0x40 MLOAD DUP1 PUSH1 0x20 ADD PUSH1 0x40 MSTORE DUP1 PUSH1 0x0 DUP2 MSTORE POP DUP2 MSTORE PUSH1 0x20 ADD PUSH1 0x40 MLOAD DUP1 PUSH1 0x40 ADD PUSH1 0x40 MSTORE DUP1 PUSH1 0x4 DUP2 MSTORE PUSH1 0x20 ADD PUSH32 0x4D61746800000000000000000000000000000000000000000000000000000000 DUP2 MSTORE POP DUP2 MSTORE PUSH1 0x20 ADD PUSH1 0x40 MLOAD DUP1 PUSH1 0x40 ADD PUSH1 0x40 MSTORE DUP1 PUSH1 0x7 DUP2 MSTORE PUSH1 0x20 ADD PUSH32 0x5068797369637300000000000000000000000000000000000000000000000000 DUP2 MSTORE POP DUP2 MSTORE PUSH1 0x20 ADD PUSH1 0x40 MLOAD DUP1 PUSH1 0x40 ADD PUSH1 0x40 MSTORE DUP1 PUSH1 0x10 DUP2 MSTORE PUSH1 0x20 ADD PUSH32 0x436F6D707574657220536369656E636500000000000000000000000000000000 DUP2 MSTORE POP DUP2 MSTORE PUSH1 0x20 ADD PUSH1 0x40 MLOAD DUP1 PUSH1 0x40 ADD PUSH1 0x40 MSTORE DUP1 PUSH1 0x7 DUP2 MSTORE PUSH1 0x20 ADD PUSH32 0x5275737369616E00000000000000000000000000000000000000000000000000 DUP2 MSTORE POP DUP2 MSTORE POP PUSH1 0x8 SWAP1 PUSH1 0x5 PUSH3 0x1C0 SWAP3 SWAP2 SWAP1 PUSH3 0x1615 JUMP JUMPDEST POP PUSH1 0x40 MLOAD DUP1 PUSH2 0x160 ADD PUSH1 0x40 MSTORE DUP1 PUSH1 0x40 MLOAD DUP1 PUSH1 0x40 ADD PUSH1 0x40 MSTORE DUP1 PUSH1 0x3 DUP2 MSTORE PUSH1 0x20 ADD PUSH32 0x4E6F740000000000000000000000000000000000000000000000000000000000 DUP2 MSTORE POP DUP2 MSTORE PUSH1 0x20 ADD PUSH1 0x40 MLOAD DUP1 PUSH1 0x40 ADD PUSH1 0x40 MSTORE DUP1 PUSH1 0x19 DUP2 MSTORE PUSH1 0x20 ADD PUSH32 0x456C65637472696369747920616E64206D61676E657469736D00000000000000 DUP2 MSTORE POP DUP2 MSTORE PUSH1 0x20 ADD PUSH1 0x40 MLOAD DUP1 PUSH1 0x40 ADD PUSH1 0x40 MSTORE DUP1 PUSH1 0xB DUP2 MSTORE PUSH1 0x20 ADD PUSH32 0x50726F746F747970696E67000000000000000000000000000000000000000000 DUP2 MSTORE POP DUP2 MSTORE PUSH1 0x20 ADD PUSH1 0x40 MLOAD DUP1 PUSH1 0x40 ADD PUSH1 0x40 MSTORE DUP1 PUSH1 0x16 DUP2 MSTORE PUSH1 0x20 ADD PUSH32 0x4D656368616E69637320616E6420737472656E67746800000000000000000000 DUP2 MSTORE POP DUP2 MSTORE PUSH1 0x20 ADD PUSH1 0x40 MLOAD DUP1 PUSH1 0x60 ADD PUSH1 0x40 MSTORE DUP1 PUSH1 0x2A DUP2 MSTORE PUSH1 0x20 ADD PUSH3 0xCBA7 PUSH1 0x2A SWAP2 CODECOPY DUP2 MSTORE PUSH1 0x20 ADD PUSH1 0x40 MLOAD DUP1 PUSH1 0x60 ADD PUSH1 0x40 MSTORE DUP1 PUSH1 0x28 DUP2 MSTORE PUSH1 0x20 ADD PUSH3 0xCBD1 PUSH1 0x28 SWAP2 CODECOPY DUP2 MSTORE PUSH1 0x20 ADD PUSH1 0x40 MLOAD DUP1 PUSH1 0x40 ADD PUSH1 0x40 MSTORE DUP1 PUSH1 0x13 DUP2 MSTORE PUSH1 0x20 ADD PUSH32 0x4175746F6E6F6D6F7573206176696F6E69637300000000000000000000000000 DUP2 MSTORE POP DUP2 MSTORE PUSH1 0x20 ADD PUSH1 0x40 MLOAD DUP1 PUSH1 0x40 ADD PUSH1 0x40 MSTORE DUP1 PUSH1 0x8 DUP2 MSTORE PUSH1 0x20 ADD PUSH32 0x526F626F74696373000000000000000000000000000000000000000000000000 DUP2 MSTORE POP DUP2 MSTORE PUSH1 0x20 ADD PUSH1 0x40 MLOAD DUP1 PUSH1 0x40 ADD PUSH1 0x40 MSTORE DUP1 PUSH1 0xB DUP2 MSTORE PUSH1 0x20 ADD PUSH32 0x50726F6772616D6D696E67000000000000000000000000000000000000000000 DUP2 MSTORE POP DUP2 MSTORE PUSH1 0x20 ADD PUSH1 0x40 MLOAD DUP1 PUSH1 0x60 ADD PUSH1 0x40 MSTORE DUP1 PUSH1 0x22 DUP2 MSTORE PUSH1 0x20 ADD PUSH3 0xCB85 PUSH1 0x22 SWAP2 CODECOPY DUP2 MSTORE PUSH1 0x20 ADD PUSH1 0x40 MLOAD DUP1 PUSH1 0x40 ADD PUSH1 0x40 MSTORE DUP1 PUSH1 0x1F DUP2 MSTORE PUSH1 0x20 ADD PUSH32 0x417374726F6E6F6D7920616E64204165726F73706163652053797374656D7300 DUP2 MSTORE POP DUP2 MSTORE POP PUSH1 0x9 SWAP1 PUSH1 0xB PUSH3 0x412 SWAP3 SWAP2 SWAP1 PUSH3 0x167C JUMP JUMPDEST POP PUSH1 0x7 PUSH1 0x1 DUP2 PUSH1 0x1 DUP2 SLOAD ADD DUP1 DUP3 SSTORE DUP1 SWAP2 POP POP SUB SWAP1 PUSH1 0x0 MSTORE PUSH1 0x20 PUSH1 0x0 KECCAK256 SWAP1 POP POP PUSH1 0x40 MLOAD DUP1 PUSH1 0xE0 ADD PUSH1 0x40 MSTORE DUP1 PUSH1 0x40 MLOAD DUP1 PUSH1 0x40 ADD PUSH1 0x40 MSTORE DUP1 PUSH1 0x9 DUP2 MSTORE PUSH1 0x20 ADD PUSH32 0x446576656C6F7065720000000000000000000000000000000000000000000000 DUP2 MSTORE POP DUP2 MSTORE PUSH1 0x20 ADD PUSH1 0x40 MLOAD DUP1 PUSH1 0x40 ADD PUSH1 0x40 MSTORE DUP1 PUSH1 0x2 DUP2 MSTORE PUSH1 0x20 ADD PUSH32 0x4750000000000000000000000000000000000000000000000000000000000000 DUP2 MSTORE POP DUP2 MSTORE PUSH1 0x20 ADD PUSH1 0x40 MLOAD DUP1 PUSH1 0x40 ADD PUSH1 0x40 MSTORE DUP1 PUSH1 0x2 DUP2 MSTORE PUSH1 0x20 ADD PUSH32 0xD098000000000000000000000000000000000000000000000000000000000000 DUP2 MSTORE POP DUP2 MSTORE PUSH1 0x20 ADD PUSH1 0x40 MLOAD DUP1 PUSH1 0x20 ADD PUSH1 0x40 MSTORE DUP1 PUSH1 0x0 DUP2 MSTORE POP DUP2 MSTORE PUSH1 0x20 ADD PUSH1 0x0 PUSH8 0xFFFFFFFFFFFFFFFF DUP2 GT ISZERO PUSH3 0x520 JUMPI PUSH3 0x51F PUSH3 0x1BC9 JUMP JUMPDEST JUMPDEST PUSH1 0x40 MLOAD SWAP1 DUP1 DUP3 MSTORE DUP1 PUSH1 0x20 MUL PUSH1 0x20 ADD DUP3 ADD PUSH1 0x40 MSTORE DUP1 ISZERO PUSH3 0x555 JUMPI DUP2 PUSH1 0x20 ADD JUMPDEST PUSH1 0x60 DUP2 MSTORE PUSH1 0x20 ADD SWAP1 PUSH1 0x1 SWAP1 SUB SWAP1 DUP2 PUSH3 0x53F JUMPI SWAP1 POP JUMPDEST POP DUP2 MSTORE PUSH1 0x20 ADD PUSH1 0x0 PUSH1 0xFF AND DUP2 MSTORE PUSH1 0x20 ADD PUSH1 0x40 MLOAD PUSH1 0x20 ADD PUSH3 0x576 SWAP1 PUSH3 0x1B06 JUMP JUMPDEST PUSH1 0x40 MLOAD PUSH1 0x20 DUP2 DUP4 SUB SUB DUP2 MSTORE SWAP1 PUSH1 0x40 MSTORE DUP1 MLOAD SWAP1 PUSH1 0x20 ADD KECCAK256 DUP2 MSTORE POP PUSH1 0x0 DUP1 PUSH20 0x5B38DA6A701C568545DCFCB03FCB875F56BEDDC4 PUSH20 0xFFFFFFFFFFFFFFFFFFFFFFFFFFFFFFFFFFFFFFFF AND PUSH20 0xFFFFFFFFFFFFFFFFFFFFFFFFFFFFFFFFFFFFFFFF AND DUP2 MSTORE PUSH1 0x20 ADD SWAP1 DUP2 MSTORE PUSH1 0x20 ADD PUSH1 0x0 KECCAK256 PUSH1 0x0 DUP3 ADD MLOAD DUP2 PUSH1 0x0 ADD SWAP1 DUP1 MLOAD SWAP1 PUSH1 0x20 ADD SWAP1 PUSH3 0x5FF SWAP3 SWAP2 SWAP1 PUSH3 0x16E3 JUMP JUMPDEST POP PUSH1 0x20 DUP3 ADD MLOAD DUP2 PUSH1 0x1 ADD SWAP1 DUP1 MLOAD SWAP1 PUSH1 0x20 ADD SWAP1 PUSH3 0x61E SWAP3 SWAP2 SWAP1 PUSH3 0x16E3 JUMP JUMPDEST POP PUSH1 0x40 DUP3 ADD MLOAD DUP2 PUSH1 0x2 ADD SWAP1 DUP1 MLOAD SWAP1 PUSH1 0x20 ADD SWAP1 PUSH3 0x63D SWAP3 SWAP2 SWAP1 PUSH3 0x16E3 JUMP JUMPDEST POP PUSH1 0x60 DUP3 ADD MLOAD DUP2 PUSH1 0x3 ADD SWAP1 DUP1 MLOAD SWAP1 PUSH1 0x20 ADD SWAP1 PUSH3 0x65C SWAP3 SWAP2 SWAP1 PUSH3 0x16E3 JUMP JUMPDEST POP PUSH1 0x80 DUP3 ADD MLOAD DUP2 PUSH1 0x4 ADD SWAP1 DUP1 MLOAD SWAP1 PUSH1 0x20 ADD SWAP1 PUSH3 0x67B SWAP3 SWAP2 SWAP1 PUSH3 0x1774 JUMP JUMPDEST POP PUSH1 0xA0 DUP3 ADD MLOAD DUP2 PUSH1 0x5 ADD PUSH1 0x0 PUSH2 0x100 EXP DUP2 SLOAD DUP2 PUSH1 0xFF MUL NOT AND SWAP1 DUP4 PUSH1 0xFF AND MUL OR SWAP1 SSTORE POP PUSH1 0xC0 DUP3 ADD MLOAD DUP2 PUSH1 0x6 ADD SSTORE SWAP1 POP POP PUSH1 0x40 MLOAD DUP1 PUSH1 0x80 ADD PUSH1 0x40 MSTORE DUP1 PUSH1 0x40 MLOAD DUP1 PUSH1 0x40 ADD PUSH1 0x40 MSTORE DUP1 PUSH1 0x6 DUP2 MSTORE PUSH1 0x20 ADD PUSH32 0x61646D696E310000000000000000000000000000000000000000000000000000 DUP2 MSTORE POP DUP2 MSTORE PUSH1 0x20 ADD PUSH1 0x40 MLOAD DUP1 PUSH1 0x40 ADD PUSH1 0x40 MSTORE DUP1 PUSH1 0x2 DUP2 MSTORE PUSH1 0x20 ADD PUSH32 0x4750000000000000000000000000000000000000000000000000000000000000 DUP2 MSTORE POP DUP2 MSTORE PUSH1 0x20 ADD PUSH1 0x40 MLOAD PUSH1 0x20 ADD PUSH3 0x73C SWAP1 PUSH3 0x1ACB JUMP JUMPDEST PUSH1 0x40 MLOAD PUSH1 0x20 DUP2 DUP4 SUB SUB DUP2 MSTORE SWAP1 PUSH1 0x40 MSTORE DUP1 MLOAD SWAP1 PUSH1 0x20 ADD KECCAK256 DUP2 MSTORE PUSH1 0x20 ADD PUSH1 0x1 ISZERO ISZERO DUP2 MSTORE POP PUSH1 0x2 PUSH1 0x0 PUSH20 0xAB8483F64D9C6D1ECF9B849AE677DD3315835CB2 PUSH20 0xFFFFFFFFFFFFFFFFFFFFFFFFFFFFFFFFFFFFFFFF AND PUSH20 0xFFFFFFFFFFFFFFFFFFFFFFFFFFFFFFFFFFFFFFFF AND DUP2 MSTORE PUSH1 0x20 ADD SWAP1 DUP2 MSTORE PUSH1 0x20 ADD PUSH1 0x0 KECCAK256 PUSH1 0x0 DUP3 ADD MLOAD DUP2 PUSH1 0x0 ADD SWAP1 DUP1 MLOAD SWAP1 PUSH1 0x20 ADD SWAP1 PUSH3 0x7CF SWAP3 SWAP2 SWAP1 PUSH3 0x16E3 JUMP JUMPDEST POP PUSH1 0x20 DUP3 ADD MLOAD DUP2 PUSH1 0x1 ADD SWAP1 DUP1 MLOAD SWAP1 PUSH1 0x20 ADD SWAP1 PUSH3 0x7EE SWAP3 SWAP2 SWAP1 PUSH3 0x16E3 JUMP JUMPDEST POP PUSH1 0x40 DUP3 ADD MLOAD DUP2 PUSH1 0x2 ADD SSTORE PUSH1 0x60 DUP3 ADD MLOAD DUP2 PUSH1 0x3 ADD PUSH1 0x0 PUSH2 0x100 EXP DUP2 SLOAD DUP2 PUSH1 0xFF MUL NOT AND SWAP1 DUP4 ISZERO ISZERO MUL OR SWAP1 SSTORE POP SWAP1 POP POP PUSH20 0x5B38DA6A701C568545DCFCB03FCB875F56BEDDC4 PUSH1 0x5 PUSH1 0x40 MLOAD PUSH3 0x841 SWAP1 PUSH3 0x1AEF JUMP JUMPDEST SWAP1 DUP2 MSTORE PUSH1 0x20 ADD PUSH1 0x40 MLOAD DUP1 SWAP2 SUB SWAP1 KECCAK256 PUSH1 0x0 PUSH2 0x100 EXP DUP2 SLOAD DUP2 PUSH20 0xFFFFFFFFFFFFFFFFFFFFFFFFFFFFFFFFFFFFFFFF MUL NOT AND SWAP1 DUP4 PUSH20 0xFFFFFFFFFFFFFFFFFFFFFFFFFFFFFFFFFFFFFFFF AND MUL OR SWAP1 SSTORE POP PUSH20 0xAB8483F64D9C6D1ECF9B849AE677DD3315835CB2 PUSH1 0x5 PUSH1 0x40 MLOAD PUSH3 0x8B2 SWAP1 PUSH3 0x1AB4 JUMP JUMPDEST SWAP1 DUP2 MSTORE PUSH1 0x20 ADD PUSH1 0x40 MLOAD DUP1 SWAP2 SUB SWAP1 KECCAK256 PUSH1 0x0 PUSH2 0x100 EXP DUP2 SLOAD DUP2 PUSH20 0xFFFFFFFFFFFFFFFFFFFFFFFFFFFFFFFFFFFFFFFF MUL NOT AND SWAP1 DUP4 PUSH20 0xFFFFFFFFFFFFFFFFFFFFFFFFFFFFFFFFFFFFFFFF AND MUL OR SWAP1 SSTORE POP PUSH1 0x6 PUSH1 0x4 PUSH1 0x0 PUSH20 0x5B38DA6A701C568545DCFCB03FCB875F56BEDDC4 PUSH20 0xFFFFFFFFFFFFFFFFFFFFFFFFFFFFFFFFFFFFFFFF AND PUSH20 0xFFFFFFFFFFFFFFFFFFFFFFFFFFFFFFFFFFFFFFFF AND DUP2 MSTORE PUSH1 0x20 ADD SWAP1 DUP2 MSTORE PUSH1 0x20 ADD PUSH1 0x0 KECCAK256 PUSH1 0x0 PUSH2 0x100 EXP DUP2 SLOAD DUP2 PUSH1 0xFF MUL NOT AND SWAP1 DUP4 PUSH1 0x7 DUP2 GT ISZERO PUSH3 0x978 JUMPI PUSH3 0x977 PUSH3 0x1B6B JUMP JUMPDEST JUMPDEST MUL OR SWAP1 SSTORE POP PUSH1 0x7 PUSH1 0x4 PUSH1 0x0 PUSH20 0xAB8483F64D9C6D1ECF9B849AE677DD3315835CB2 PUSH20 0xFFFFFFFFFFFFFFFFFFFFFFFFFFFFFFFFFFFFFFFF AND PUSH20 0xFFFFFFFFFFFFFFFFFFFFFFFFFFFFFFFFFFFFFFFF AND DUP2 MSTORE PUSH1 0x20 ADD SWAP1 DUP2 MSTORE PUSH1 0x20 ADD PUSH1 0x0 KECCAK256 PUSH1 0x0 PUSH2 0x100 EXP DUP2 SLOAD DUP2 PUSH1 0xFF MUL NOT AND SWAP1 DUP4 PUSH1 0x7 DUP2 GT ISZERO PUSH3 0x9F7 JUMPI PUSH3 0x9F6 PUSH3 0x1B6B JUMP JUMPDEST JUMPDEST MUL OR SWAP1 SSTORE POP PUSH1 0x40 MLOAD DUP1 PUSH1 0xE0 ADD PUSH1 0x40 MSTORE DUP1 PUSH1 0x40 MLOAD DUP1 PUSH1 0x40 ADD PUSH1 0x40 MSTORE DUP1 PUSH1 0x4 DUP2 MSTORE PUSH1 0x20 ADD PUSH32 0x6976616E00000000000000000000000000000000000000000000000000000000 DUP2 MSTORE POP DUP2 MSTORE PUSH1 0x20 ADD PUSH1 0x40 MLOAD DUP1 PUSH1 0x40 ADD PUSH1 0x40 MSTORE DUP1 PUSH1 0x2 DUP2 MSTORE PUSH1 0x20 ADD PUSH32 0x444D000000000000000000000000000000000000000000000000000000000000 DUP2 MSTORE POP DUP2 MSTORE PUSH1 0x20 ADD PUSH1 0x40 MLOAD DUP1 PUSH1 0x40 ADD PUSH1 0x40 MSTORE DUP1 PUSH1 0x2 DUP2 MSTORE PUSH1 0x20 ADD PUSH32 0xD098000000000000000000000000000000000000000000000000000000000000 DUP2 MSTORE POP DUP2 MSTORE PUSH1 0x20 ADD PUSH1 0x40 MLOAD DUP1 PUSH1 0x20 ADD PUSH1 0x40 MSTORE DUP1 PUSH1 0x0 DUP2 MSTORE POP DUP2 MSTORE PUSH1 0x20 ADD PUSH1 0x0 PUSH8 0xFFFFFFFFFFFFFFFF DUP2 GT ISZERO PUSH3 0xAEB JUMPI PUSH3 0xAEA PUSH3 0x1BC9 JUMP JUMPDEST JUMPDEST PUSH1 0x40 MLOAD SWAP1 DUP1 DUP3 MSTORE DUP1 PUSH1 0x20 MUL PUSH1 0x20 ADD DUP3 ADD PUSH1 0x40 MSTORE DUP1 ISZERO PUSH3 0xB20 JUMPI DUP2 PUSH1 0x20 ADD JUMPDEST PUSH1 0x60 DUP2 MSTORE PUSH1 0x20 ADD SWAP1 PUSH1 0x1 SWAP1 SUB SWAP1 DUP2 PUSH3 0xB0A JUMPI SWAP1 POP JUMPDEST POP DUP2 MSTORE PUSH1 0x20 ADD PUSH1 0x0 PUSH1 0xFF AND DUP2 MSTORE PUSH1 0x20 ADD PUSH1 0x40 MLOAD PUSH1 0x20 ADD PUSH3 0xB41 SWAP1 PUSH3 0x1A55 JUMP JUMPDEST PUSH1 0x40 MLOAD PUSH1 0x20 DUP2 DUP4 SUB SUB DUP2 MSTORE SWAP1 PUSH1 0x40 MSTORE DUP1 MLOAD SWAP1 PUSH1 0x20 ADD KECCAK256 DUP2 MSTORE POP PUSH1 0x0 DUP1 PUSH20 0x4B20993BC481177EC7E8F571CECAE8A9E22C02DB PUSH20 0xFFFFFFFFFFFFFFFFFFFFFFFFFFFFFFFFFFFFFFFF AND PUSH20 0xFFFFFFFFFFFFFFFFFFFFFFFFFFFFFFFFFFFFFFFF AND DUP2 MSTORE PUSH1 0x20 ADD SWAP1 DUP2 MSTORE PUSH1 0x20 ADD PUSH1 0x0 KECCAK256 PUSH1 0x0 DUP3 ADD MLOAD DUP2 PUSH1 0x0 ADD SWAP1 DUP1 MLOAD SWAP1 PUSH1 0x20 ADD SWAP1 PUSH3 0xBCA SWAP3 SWAP2 SWAP1 PUSH3 0x16E3 JUMP JUMPDEST POP PUSH1 0x20 DUP3 ADD MLOAD DUP2 PUSH1 0x1 ADD SWAP1 DUP1 MLOAD SWAP1 PUSH1 0x20 ADD SWAP1 PUSH3 0xBE9 SWAP3 SWAP2 SWAP1 PUSH3 0x16E3 JUMP JUMPDEST POP PUSH1 0x40 DUP3 ADD MLOAD DUP2 PUSH1 0x2 ADD SWAP1 DUP1 MLOAD SWAP1 PUSH1 0x20 ADD SWAP1 PUSH3 0xC08 SWAP3 SWAP2 SWAP1 PUSH3 0x16E3 JUMP JUMPDEST POP PUSH1 0x60 DUP3 ADD MLOAD DUP2 PUSH1 0x3 ADD SWAP1 DUP1 MLOAD SWAP1 PUSH1 0x20 ADD SWAP1 PUSH3 0xC27 SWAP3 SWAP2 SWAP1 PUSH3 0x16E3 JUMP JUMPDEST POP PUSH1 0x80 DUP3 ADD MLOAD DUP2 PUSH1 0x4 ADD SWAP1 DUP1 MLOAD SWAP1 PUSH1 0x20 ADD SWAP1 PUSH3 0xC46 SWAP3 SWAP2 SWAP1 PUSH3 0x1774 JUMP JUMPDEST POP PUSH1 0xA0 DUP3 ADD MLOAD DUP2 PUSH1 0x5 ADD PUSH1 0x0 PUSH2 0x100 EXP DUP2 SLOAD DUP2 PUSH1 0xFF MUL NOT AND SWAP1 DUP4 PUSH1 0xFF AND MUL OR SWAP1 SSTORE POP PUSH1 0xC0 DUP3 ADD MLOAD DUP2 PUSH1 0x6 ADD SSTORE SWAP1 POP POP PUSH1 0x40 MLOAD DUP1 PUSH1 0x80 ADD PUSH1 0x40 MSTORE DUP1 PUSH1 0x40 MLOAD DUP1 PUSH1 0x40 ADD PUSH1 0x40 MSTORE DUP1 PUSH1 0x6 DUP2 MSTORE PUSH1 0x20 ADD PUSH32 0x61646D696E320000000000000000000000000000000000000000000000000000 DUP2 MSTORE POP DUP2 MSTORE PUSH1 0x20 ADD PUSH1 0x40 MLOAD DUP1 PUSH1 0x40 ADD PUSH1 0x40 MSTORE DUP1 PUSH1 0x2 DUP2 MSTORE PUSH1 0x20 ADD PUSH32 0x444D000000000000000000000000000000000000000000000000000000000000 DUP2 MSTORE POP DUP2 MSTORE PUSH1 0x20 ADD PUSH1 0x40 MLOAD PUSH1 0x20 ADD PUSH3 0xD07 SWAP1 PUSH3 0x1A90 JUMP JUMPDEST PUSH1 0x40 MLOAD PUSH1 0x20 DUP2 DUP4 SUB SUB DUP2 MSTORE SWAP1 PUSH1 0x40 MSTORE DUP1 MLOAD SWAP1 PUSH1 0x20 ADD KECCAK256 DUP2 MSTORE PUSH1 0x20 ADD PUSH1 0x1 ISZERO ISZERO DUP2 MSTORE POP PUSH1 0x2 PUSH1 0x0 PUSH20 0x78731D3CA6B7E34AC0F824C42A7CC18A495CABAB PUSH20 0xFFFFFFFFFFFFFFFFFFFFFFFFFFFFFFFFFFFFFFFF AND PUSH20 0xFFFFFFFFFFFFFFFFFFFFFFFFFFFFFFFFFFFFFFFF AND DUP2 MSTORE PUSH1 0x20 ADD SWAP1 DUP2 MSTORE PUSH1 0x20 ADD PUSH1 0x0 KECCAK256 PUSH1 0x0 DUP3 ADD MLOAD DUP2 PUSH1 0x0 ADD SWAP1 DUP1 MLOAD SWAP1 PUSH1 0x20 ADD SWAP1 PUSH3 0xD9A SWAP3 SWAP2 SWAP1 PUSH3 0x16E3 JUMP JUMPDEST POP PUSH1 0x20 DUP3 ADD MLOAD DUP2 PUSH1 0x1 ADD SWAP1 DUP1 MLOAD SWAP1 PUSH1 0x20 ADD SWAP1 PUSH3 0xDB9 SWAP3 SWAP2 SWAP1 PUSH3 0x16E3 JUMP JUMPDEST POP PUSH1 0x40 DUP3 ADD MLOAD DUP2 PUSH1 0x2 ADD SSTORE PUSH1 0x60 DUP3 ADD MLOAD DUP2 PUSH1 0x3 ADD PUSH1 0x0 PUSH2 0x100 EXP DUP2 SLOAD DUP2 PUSH1 0xFF MUL NOT AND SWAP1 DUP4 ISZERO ISZERO MUL OR SWAP1 SSTORE POP SWAP1 POP POP PUSH20 0x4B20993BC481177EC7E8F571CECAE8A9E22C02DB PUSH1 0x5 PUSH1 0x40 MLOAD PUSH3 0xE0C SWAP1 PUSH3 0x1A3E JUMP JUMPDEST SWAP1 DUP2 MSTORE PUSH1 0x20 ADD PUSH1 0x40 MLOAD DUP1 SWAP2 SUB SWAP1 KECCAK256 PUSH1 0x0 PUSH2 0x100 EXP DUP2 SLOAD DUP2 PUSH20 0xFFFFFFFFFFFFFFFFFFFFFFFFFFFFFFFFFFFFFFFF MUL NOT AND SWAP1 DUP4 PUSH20 0xFFFFFFFFFFFFFFFFFFFFFFFFFFFFFFFFFFFFFFFF AND MUL OR SWAP1 SSTORE POP PUSH20 0x78731D3CA6B7E34AC0F824C42A7CC18A495CABAB PUSH1 0x5 PUSH1 0x40 MLOAD PUSH3 0xE7D SWAP1 PUSH3 0x1A79 JUMP JUMPDEST SWAP1 DUP2 MSTORE PUSH1 0x20 ADD PUSH1 0x40 MLOAD DUP1 SWAP2 SUB SWAP1 KECCAK256 PUSH1 0x0 PUSH2 0x100 EXP DUP2 SLOAD DUP2 PUSH20 0xFFFFFFFFFFFFFFFFFFFFFFFFFFFFFFFFFFFFFFFF MUL NOT AND SWAP1 DUP4 PUSH20 0xFFFFFFFFFFFFFFFFFFFFFFFFFFFFFFFFFFFFFFFF AND MUL OR SWAP1 SSTORE POP PUSH1 0x6 PUSH1 0x4 PUSH1 0x0 PUSH20 0x4B20993BC481177EC7E8F571CECAE8A9E22C02DB PUSH20 0xFFFFFFFFFFFFFFFFFFFFFFFFFFFFFFFFFFFFFFFF AND PUSH20 0xFFFFFFFFFFFFFFFFFFFFFFFFFFFFFFFFFFFFFFFF AND DUP2 MSTORE PUSH1 0x20 ADD SWAP1 DUP2 MSTORE PUSH1 0x20 ADD PUSH1 0x0 KECCAK256 PUSH1 0x0 PUSH2 0x100 EXP DUP2 SLOAD DUP2 PUSH1 0xFF MUL NOT AND SWAP1 DUP4 PUSH1 0x7 DUP2 GT ISZERO PUSH3 0xF43 JUMPI PUSH3 0xF42 PUSH3 0x1B6B JUMP JUMPDEST JUMPDEST MUL OR SWAP1 SSTORE POP PUSH1 0x7 PUSH1 0x4 PUSH1 0x0 PUSH20 0x78731D3CA6B7E34AC0F824C42A7CC18A495CABAB PUSH20 0xFFFFFFFFFFFFFFFFFFFFFFFFFFFFFFFFFFFFFFFF AND PUSH20 0xFFFFFFFFFFFFFFFFFFFFFFFFFFFFFFFFFFFFFFFF AND DUP2 MSTORE PUSH1 0x20 ADD SWAP1 DUP2 MSTORE PUSH1 0x20 ADD PUSH1 0x0 KECCAK256 PUSH1 0x0 PUSH2 0x100 EXP DUP2 SLOAD DUP2 PUSH1 0xFF MUL NOT AND SWAP1 DUP4 PUSH1 0x7 DUP2 GT ISZERO PUSH3 0xFC2 JUMPI PUSH3 0xFC1 PUSH3 0x1B6B JUMP JUMPDEST JUMPDEST MUL OR SWAP1 SSTORE POP PUSH1 0x40 MLOAD DUP1 PUSH2 0x120 ADD PUSH1 0x40 MSTORE DUP1 PUSH1 0x40 MLOAD DUP1 PUSH1 0x40 ADD PUSH1 0x40 MSTORE DUP1 PUSH1 0x9 DUP2 MSTORE PUSH1 0x20 ADD PUSH32 0x536369656E746973740000000000000000000000000000000000000000000000 DUP2 MSTORE POP DUP2 MSTORE PUSH1 0x20 ADD PUSH1 0x40 MLOAD DUP1 PUSH1 0x40 ADD PUSH1 0x40 MSTORE DUP1 PUSH1 0x2 DUP2 MSTORE PUSH1 0x20 ADD PUSH32 0x4453000000000000000000000000000000000000000000000000000000000000 DUP2 MSTORE POP DUP2 MSTORE PUSH1 0x20 ADD PUSH1 0x40 MLOAD DUP1 PUSH1 0x20 ADD PUSH1 0x40 MSTORE DUP1 PUSH1 0x0 DUP2 MSTORE POP DUP2 MSTORE PUSH1 0x20 ADD PUSH1 0x1 DUP2 MSTORE PUSH1 0x20 ADD PUSH1 0x0 PUSH8 0xFFFFFFFFFFFFFFFF DUP2 GT ISZERO PUSH3 0x1083 JUMPI PUSH3 0x1082 PUSH3 0x1BC9 JUMP JUMPDEST JUMPDEST PUSH1 0x40 MLOAD SWAP1 DUP1 DUP3 MSTORE DUP1 PUSH1 0x20 MUL PUSH1 0x20 ADD DUP3 ADD PUSH1 0x40 MSTORE DUP1 ISZERO PUSH3 0x10B2 JUMPI DUP2 PUSH1 0x20 ADD PUSH1 0x20 DUP3 MUL DUP1 CALLDATASIZE DUP4 CALLDATACOPY DUP1 DUP3 ADD SWAP2 POP POP SWAP1 POP JUMPDEST POP DUP2 MSTORE PUSH1 0x20 ADD PUSH1 0x0 PUSH8 0xFFFFFFFFFFFFFFFF DUP2 GT ISZERO PUSH3 0x10D6 JUMPI PUSH3 0x10D5 PUSH3 0x1BC9 JUMP JUMPDEST JUMPDEST PUSH1 0x40 MLOAD SWAP1 DUP1 DUP3 MSTORE DUP1 PUSH1 0x20 MUL PUSH1 0x20 ADD DUP3 ADD PUSH1 0x40 MSTORE DUP1 ISZERO PUSH3 0x1105 JUMPI DUP2 PUSH1 0x20 ADD PUSH1 0x20 DUP3 MUL DUP1 CALLDATASIZE DUP4 CALLDATACOPY DUP1 DUP3 ADD SWAP2 POP POP SWAP1 POP JUMPDEST POP DUP2 MSTORE PUSH1 0x20 ADD PUSH1 0x40 MLOAD PUSH1 0x20 ADD PUSH3 0x111C SWAP1 PUSH3 0x1A1A JUMP JUMPDEST PUSH1 0x40 MLOAD PUSH1 0x20 DUP2 DUP4 SUB SUB DUP2 MSTORE SWAP1 PUSH1 0x40 MSTORE DUP1 MLOAD SWAP1 PUSH1 0x20 ADD KECCAK256 DUP2 MSTORE PUSH1 0x20 ADD PUSH1 0x1 ISZERO ISZERO DUP2 MSTORE PUSH1 0x20 ADD PUSH1 0x1 ISZERO ISZERO DUP2 MSTORE POP PUSH1 0x1 PUSH1 0x0 PUSH20 0x617F2E2FD72FD9D5503197092AC168C91465E7F2 PUSH20 0xFFFFFFFFFFFFFFFFFFFFFFFFFFFFFFFFFFFFFFFF AND PUSH20 0xFFFFFFFFFFFFFFFFFFFFFFFFFFFFFFFFFFFFFFFF AND DUP2 MSTORE PUSH1 0x20 ADD SWAP1 DUP2 MSTORE PUSH1 0x20 ADD PUSH1 0x0 KECCAK256 PUSH1 0x0 DUP3 ADD MLOAD DUP2 PUSH1 0x0 ADD SWAP1 DUP1 MLOAD SWAP1 PUSH1 0x20 ADD SWAP1 PUSH3 0x11B8 SWAP3 SWAP2 SWAP1 PUSH3 0x16E3 JUMP JUMPDEST POP PUSH1 0x20 DUP3 ADD MLOAD DUP2 PUSH1 0x1 ADD SWAP1 DUP1 MLOAD SWAP1 PUSH1 0x20 ADD SWAP1 PUSH3 0x11D7 SWAP3 SWAP2 SWAP1 PUSH3 0x16E3 JUMP JUMPDEST POP PUSH1 0x40 DUP3 ADD MLOAD DUP2 PUSH1 0x2 ADD SWAP1 DUP1 MLOAD SWAP1 PUSH1 0x20 ADD SWAP1 PUSH3 0x11F6 SWAP3 SWAP2 SWAP1 PUSH3 0x16E3 JUMP JUMPDEST POP PUSH1 0x60 DUP3 ADD MLOAD DUP2 PUSH1 0x3 ADD SSTORE PUSH1 0x80 DUP3 ADD MLOAD DUP2 PUSH1 0x4 ADD SWAP1 DUP1 MLOAD SWAP1 PUSH1 0x20 ADD SWAP1 PUSH3 0x121F SWAP3 SWAP2 SWAP1 PUSH3 0x17DB JUMP JUMPDEST POP PUSH1 0xA0 DUP3 ADD MLOAD DUP2 PUSH1 0x5 ADD SWAP1 DUP1 MLOAD SWAP1 PUSH1 0x20 ADD SWAP1 PUSH3 0x123E SWAP3 SWAP2 SWAP1 PUSH3 0x17DB JUMP JUMPDEST POP PUSH1 0xC0 DUP3 ADD MLOAD DUP2 PUSH1 0x6 ADD SSTORE PUSH1 0xE0 DUP3 ADD MLOAD DUP2 PUSH1 0x7 ADD PUSH1 0x0 PUSH2 0x100 EXP DUP2 SLOAD DUP2 PUSH1 0xFF MUL NOT AND SWAP1 DUP4 ISZERO ISZERO MUL OR SWAP1 SSTORE POP PUSH2 0x100 DUP3 ADD MLOAD DUP2 PUSH1 0x7 ADD PUSH1 0x1 PUSH2 0x100 EXP DUP2 SLOAD DUP2 PUSH1 0xFF MUL NOT AND SWAP1 DUP4 ISZERO ISZERO MUL OR SWAP1 SSTORE POP SWAP1 POP POP PUSH1 0x1 PUSH1 0x0 PUSH20 0x617F2E2FD72FD9D5503197092AC168C91465E7F2 PUSH20 0xFFFFFFFFFFFFFFFFFFFFFFFFFFFFFFFFFFFFFFFF AND PUSH20 0xFFFFFFFFFFFFFFFFFFFFFFFFFFFFFFFFFFFFFFFF AND DUP2 MSTORE PUSH1 0x20 ADD SWAP1 DUP2 MSTORE PUSH1 0x20 ADD PUSH1 0x0 KECCAK256 PUSH1 0x5 ADD PUSH1 0x3 SWAP1 DUP1 PUSH1 0x1 DUP2 SLOAD ADD DUP1 DUP3 SSTORE DUP1 SWAP2 POP POP PUSH1 0x1 SWAP1 SUB SWAP1 PUSH1 0x0 MSTORE PUSH1 0x20 PUSH1 0x0 KECCAK256 SWAP1 PUSH1 0x10 SWAP2 DUP3 DUP3 DIV ADD SWAP2 SWAP1 MOD PUSH1 0x2 MUL SWAP1 SWAP2 SWAP1 SWAP2 SWAP1 SWAP2 PUSH2 0x100 EXP DUP2 SLOAD DUP2 PUSH2 0xFFFF MUL NOT AND SWAP1 DUP4 PUSH2 0xFFFF AND MUL OR SWAP1 SSTORE POP PUSH1 0x0 PUSH1 0x1 PUSH1 0x0 PUSH20 0x617F2E2FD72FD9D5503197092AC168C91465E7F2 PUSH20 0xFFFFFFFFFFFFFFFFFFFFFFFFFFFFFFFFFFFFFFFF AND PUSH20 0xFFFFFFFFFFFFFFFFFFFFFFFFFFFFFFFFFFFFFFFF AND DUP2 MSTORE PUSH1 0x20 ADD SWAP1 DUP2 MSTORE PUSH1 0x20 ADD PUSH1 0x0 KECCAK256 SWAP1 POP DUP1 PUSH1 0x4 ADD PUSH1 0x1 SWAP1 DUP1 PUSH1 0x1 DUP2 SLOAD ADD DUP1 DUP3 SSTORE DUP1 SWAP2 POP POP PUSH1 0x1 SWAP1 SUB SWAP1 PUSH1 0x0 MSTORE PUSH1 0x20 PUSH1 0x0 KECCAK256 SWAP1 PUSH1 0x10 SWAP2 DUP3 DUP3 DIV ADD SWAP2 SWAP1 MOD PUSH1 0x2 MUL SWAP1 SWAP2 SWAP1 SWAP2 SWAP1 SWAP2 PUSH2 0x100 EXP DUP2 SLOAD DUP2 PUSH2 0xFFFF MUL NOT AND SWAP1 DUP4 PUSH2 0xFFFF AND MUL OR SWAP1 SSTORE POP DUP1 PUSH1 0x4 ADD PUSH1 0x2 SWAP1 DUP1 PUSH1 0x1 DUP2 SLOAD ADD DUP1 DUP3 SSTORE DUP1 SWAP2 POP POP PUSH1 0x1 SWAP1 SUB SWAP1 PUSH1 0x0 MSTORE PUSH1 0x20 PUSH1 0x0 KECCAK256 SWAP1 PUSH1 0x10 SWAP2 DUP3 DUP3 DIV ADD SWAP2 SWAP1 MOD PUSH1 0x2 MUL SWAP1 SWAP2 SWAP1 SWAP2 SWAP1 SWAP2 PUSH2 0x100 EXP DUP2 SLOAD DUP2 PUSH2 0xFFFF MUL NOT AND SWAP1 DUP4 PUSH2 0xFFFF AND MUL OR SWAP1 SSTORE POP DUP1 PUSH1 0x5 ADD PUSH1 0x3 SWAP1 DUP1 PUSH1 0x1 DUP2 SLOAD ADD DUP1 DUP3 SSTORE DUP1 SWAP2 POP POP PUSH1 0x1 SWAP1 SUB SWAP1 PUSH1 0x0 MSTORE PUSH1 0x20 PUSH1 0x0 KECCAK256 SWAP1 PUSH1 0x10 SWAP2 DUP3 DUP3 DIV ADD SWAP2 SWAP1 MOD PUSH1 0x2 MUL SWAP1 SWAP2 SWAP1 SWAP2 SWAP1 SWAP2 PUSH2 0x100 EXP DUP2 SLOAD DUP2 PUSH2 0xFFFF MUL NOT AND SWAP1 DUP4 PUSH2 0xFFFF AND MUL OR SWAP1 SSTORE POP DUP1 PUSH1 0x5 ADD PUSH1 0x4 SWAP1 DUP1 PUSH1 0x1 DUP2 SLOAD ADD DUP1 DUP3 SSTORE DUP1 SWAP2 POP POP PUSH1 0x1 SWAP1 SUB SWAP1 PUSH1 0x0 MSTORE PUSH1 0x20 PUSH1 0x0 KECCAK256 SWAP1 PUSH1 0x10 SWAP2 DUP3 DUP3 DIV ADD SWAP2 SWAP1 MOD PUSH1 0x2 MUL SWAP1 SWAP2 SWAP1 SWAP2 SWAP1 SWAP2 PUSH2 0x100 EXP DUP2 SLOAD DUP2 PUSH2 0xFFFF MUL NOT AND SWAP1 DUP4 PUSH2 0xFFFF AND MUL OR SWAP1 SSTORE POP PUSH20 0x617F2E2FD72FD9D5503197092AC168C91465E7F2 PUSH1 0x5 PUSH1 0x40 MLOAD PUSH3 0x14DC SWAP1 PUSH3 0x1A03 JUMP JUMPDEST SWAP1 DUP2 MSTORE PUSH1 0x20 ADD PUSH1 0x40 MLOAD DUP1 SWAP2 SUB SWAP1 KECCAK256 PUSH1 0x0 PUSH2 0x100 EXP DUP2 SLOAD DUP2 PUSH20 0xFFFFFFFFFFFFFFFFFFFFFFFFFFFFFFFFFFFFFFFF MUL NOT AND SWAP1 DUP4 PUSH20 0xFFFFFFFFFFFFFFFFFFFFFFFFFFFFFFFFFFFFFFFF AND MUL OR SWAP1 SSTORE POP PUSH1 0x5 PUSH1 0x4 PUSH1 0x0 PUSH20 0x617F2E2FD72FD9D5503197092AC168C91465E7F2 PUSH20 0xFFFFFFFFFFFFFFFFFFFFFFFFFFFFFFFFFFFFFFFF AND PUSH20 0xFFFFFFFFFFFFFFFFFFFFFFFFFFFFFFFFFFFFFFFF AND DUP2 MSTORE PUSH1 0x20 ADD SWAP1 DUP2 MSTORE PUSH1 0x20 ADD PUSH1 0x0 KECCAK256 PUSH1 0x0 PUSH2 0x100 EXP DUP2 SLOAD DUP2 PUSH1 0xFF MUL NOT AND SWAP1 DUP4 PUSH1 0x7 DUP2 GT ISZERO PUSH3 0x15A2 JUMPI PUSH3 0x15A1 PUSH3 0x1B6B JUMP JUMPDEST JUMPDEST MUL OR SWAP1 SSTORE POP POP PUSH3 0x1CEE JUMP JUMPDEST DUP3 DUP1 SLOAD DUP3 DUP3 SSTORE SWAP1 PUSH1 0x0 MSTORE PUSH1 0x20 PUSH1 0x0 KECCAK256 SWAP1 DUP2 ADD SWAP3 DUP3 ISZERO PUSH3 0x1602 JUMPI SWAP2 PUSH1 0x20 MUL DUP3 ADD JUMPDEST DUP3 DUP2 GT ISZERO PUSH3 0x1601 JUMPI DUP3 MLOAD DUP3 SWAP1 DUP1 MLOAD SWAP1 PUSH1 0x20 ADD SWAP1 PUSH3 0x15F0 SWAP3 SWAP2 SWAP1 PUSH3 0x16E3 JUMP JUMPDEST POP SWAP2 PUSH1 0x20 ADD SWAP2 SWAP1 PUSH1 0x1 ADD SWAP1 PUSH3 0x15CF JUMP JUMPDEST JUMPDEST POP SWAP1 POP PUSH3 0x1611 SWAP2 SWAP1 PUSH3 0x188C JUMP JUMPDEST POP SWAP1 JUMP JUMPDEST DUP3 DUP1 SLOAD DUP3 DUP3 SSTORE SWAP1 PUSH1 0x0 MSTORE PUSH1 0x20 PUSH1 0x0 KECCAK256 SWAP1 DUP2 ADD SWAP3 DUP3 ISZERO PUSH3 0x1669 JUMPI SWAP2 PUSH1 0x20 MUL DUP3 ADD JUMPDEST DUP3 DUP2 GT ISZERO PUSH3 0x1668 JUMPI DUP3 MLOAD DUP3 SWAP1 DUP1 MLOAD SWAP1 PUSH1 0x20 ADD SWAP1 PUSH3 0x1657 SWAP3 SWAP2 SWAP1 PUSH3 0x16E3 JUMP JUMPDEST POP SWAP2 PUSH1 0x20 ADD SWAP2 SWAP1 PUSH1 0x1 ADD SWAP1 PUSH3 0x1636 JUMP JUMPDEST JUMPDEST POP SWAP1 POP PUSH3 0x1678 SWAP2 SWAP1 PUSH3 0x188C JUMP JUMPDEST POP SWAP1 JUMP JUMPDEST DUP3 DUP1 SLOAD DUP3 DUP3 SSTORE SWAP1 PUSH1 0x0 MSTORE PUSH1 0x20 PUSH1 0x0 KECCAK256 SWAP1 DUP2 ADD SWAP3 DUP3 ISZERO PUSH3 0x16D0 JUMPI SWAP2 PUSH1 0x20 MUL DUP3 ADD JUMPDEST DUP3 DUP2 GT ISZERO PUSH3 0x16CF JUMPI DUP3 MLOAD DUP3 SWAP1 DUP1 MLOAD SWAP1 PUSH1 0x20 ADD SWAP1 PUSH3 0x16BE SWAP3 SWAP2 SWAP1 PUSH3 0x16E3 JUMP JUMPDEST POP SWAP2 PUSH1 0x20 ADD SWAP2 SWAP1 PUSH1 0x1 ADD SWAP1 PUSH3 0x169D JUMP JUMPDEST JUMPDEST POP SWAP1 POP PUSH3 0x16DF SWAP2 SWAP1 PUSH3 0x188C JUMP JUMPDEST POP SWAP1 JUMP JUMPDEST DUP3 DUP1 SLOAD PUSH3 0x16F1 SWAP1 PUSH3 0x1B35 JUMP JUMPDEST SWAP1 PUSH1 0x0 MSTORE PUSH1 0x20 PUSH1 0x0 KECCAK256 SWAP1 PUSH1 0x1F ADD PUSH1 0x20 SWAP1 DIV DUP2 ADD SWAP3 DUP3 PUSH3 0x1715 JUMPI PUSH1 0x0 DUP6 SSTORE PUSH3 0x1761 JUMP JUMPDEST DUP3 PUSH1 0x1F LT PUSH3 0x1730 JUMPI DUP1 MLOAD PUSH1 0xFF NOT AND DUP4 DUP1 ADD OR DUP6 SSTORE PUSH3 0x1761 JUMP JUMPDEST DUP3 DUP1 ADD PUSH1 0x1 ADD DUP6 SSTORE DUP3 ISZERO PUSH3 0x1761 JUMPI SWAP2 DUP3 ADD JUMPDEST DUP3 DUP2 GT ISZERO PUSH3 0x1760 JUMPI DUP3 MLOAD DUP3 SSTORE SWAP2 PUSH1 0x20 ADD SWAP2 SWAP1 PUSH1 0x1 ADD SWAP1 PUSH3 0x1743 JUMP JUMPDEST JUMPDEST POP SWAP1 POP PUSH3 0x1770 SWAP2 SWAP1 PUSH3 0x18B4 JUMP JUMPDEST POP SWAP1 JUMP JUMPDEST DUP3 DUP1 SLOAD DUP3 DUP3 SSTORE SWAP1 PUSH1 0x0 MSTORE PUSH1 0x20 PUSH1 0x0 KECCAK256 SWAP1 DUP2 ADD SWAP3 DUP3 ISZERO PUSH3 0x17C8 JUMPI SWAP2 PUSH1 0x20 MUL DUP3 ADD JUMPDEST DUP3 DUP2 GT ISZERO PUSH3 0x17C7 JUMPI DUP3 MLOAD DUP3 SWAP1 DUP1 MLOAD SWAP1 PUSH1 0x20 ADD SWAP1 PUSH3 0x17B6 SWAP3 SWAP2 SWAP1 PUSH3 0x16E3 JUMP JUMPDEST POP SWAP2 PUSH1 0x20 ADD SWAP2 SWAP1 PUSH1 0x1 ADD SWAP1 PUSH3 0x1795 JUMP JUMPDEST JUMPDEST POP SWAP1 POP PUSH3 0x17D7 SWAP2 SWAP1 PUSH3 0x188C JUMP JUMPDEST POP SWAP1 JUMP JUMPDEST DUP3 DUP1 SLOAD DUP3 DUP3 SSTORE SWAP1 PUSH1 0x0 MSTORE PUSH1 0x20 PUSH1 0x0 KECCAK256 SWAP1 PUSH1 0xF ADD PUSH1 0x10 SWAP1 DIV DUP2 ADD SWAP3 DUP3 ISZERO PUSH3 0x1879 JUMPI SWAP2 PUSH1 0x20 MUL DUP3 ADD PUSH1 0x0 JUMPDEST DUP4 DUP3 GT ISZERO PUSH3 0x1847 JUMPI DUP4 MLOAD DUP4 DUP3 PUSH2 0x100 EXP DUP2 SLOAD DUP2 PUSH2 0xFFFF MUL NOT AND SWAP1 DUP4 PUSH2 0xFFFF AND MUL OR SWAP1 SSTORE POP SWAP3 PUSH1 0x20 ADD SWAP3 PUSH1 0x2 ADD PUSH1 0x20 DUP2 PUSH1 0x1 ADD DIV SWAP3 DUP4 ADD SWAP3 PUSH1 0x1 SUB MUL PUSH3 0x1805 JUMP JUMPDEST DUP1 ISZERO PUSH3 0x1877 JUMPI DUP3 DUP2 PUSH2 0x100 EXP DUP2 SLOAD SWAP1 PUSH2 0xFFFF MUL NOT AND SWAP1 SSTORE PUSH1 0x2 ADD PUSH1 0x20 DUP2 PUSH1 0x1 ADD DIV SWAP3 DUP4 ADD SWAP3 PUSH1 0x1 SUB MUL PUSH3 0x1847 JUMP JUMPDEST POP JUMPDEST POP SWAP1 POP PUSH3 0x1888 SWAP2 SWAP1 PUSH3 0x18B4 JUMP JUMPDEST POP SWAP1 JUMP JUMPDEST JUMPDEST DUP1 DUP3 GT ISZERO PUSH3 0x18B0 JUMPI PUSH1 0x0 DUP2 DUP2 PUSH3 0x18A6 SWAP2 SWAP1 PUSH3 0x18D3 JUMP JUMPDEST POP PUSH1 0x1 ADD PUSH3 0x188D JUMP JUMPDEST POP SWAP1 JUMP JUMPDEST JUMPDEST DUP1 DUP3 GT ISZERO PUSH3 0x18CF JUMPI PUSH1 0x0 DUP2 PUSH1 0x0 SWAP1 SSTORE POP PUSH1 0x1 ADD PUSH3 0x18B5 JUMP JUMPDEST POP SWAP1 JUMP JUMPDEST POP DUP1 SLOAD PUSH3 0x18E1 SWAP1 PUSH3 0x1B35 JUMP JUMPDEST PUSH1 0x0 DUP3 SSTORE DUP1 PUSH1 0x1F LT PUSH3 0x18F5 JUMPI POP PUSH3 0x1916 JUMP JUMPDEST PUSH1 0x1F ADD PUSH1 0x20 SWAP1 DIV SWAP1 PUSH1 0x0 MSTORE PUSH1 0x20 PUSH1 0x0 KECCAK256 SWAP1 DUP2 ADD SWAP1 PUSH3 0x1915 SWAP2 SWAP1 PUSH3 0x18B4 JUMP JUMPDEST JUMPDEST POP JUMP JUMPDEST PUSH1 0x0 PUSH3 0x1928 PUSH1 0x9 DUP4 PUSH3 0x1B2A JUMP JUMPDEST SWAP2 POP PUSH3 0x1935 DUP3 PUSH3 0x1BF8 JUMP JUMPDEST PUSH1 0x9 DUP3 ADD SWAP1 POP SWAP2 SWAP1 POP JUMP JUMPDEST PUSH1 0x0 PUSH3 0x194F PUSH1 0x4 DUP4 PUSH3 0x1B2A JUMP JUMPDEST SWAP2 POP PUSH3 0x195C DUP3 PUSH3 0x1C21 JUMP JUMPDEST PUSH1 0x4 DUP3 ADD SWAP1 POP SWAP2 SWAP1 POP JUMP JUMPDEST PUSH1 0x0 PUSH3 0x1976 PUSH1 0x6 DUP4 PUSH3 0x1B2A JUMP JUMPDEST SWAP2 POP PUSH3 0x1983 DUP3 PUSH3 0x1C4A JUMP JUMPDEST PUSH1 0x6 DUP3 ADD SWAP1 POP SWAP2 SWAP1 POP JUMP JUMPDEST PUSH1 0x0 PUSH3 0x199D PUSH1 0x1 DUP4 PUSH3 0x1B2A JUMP JUMPDEST SWAP2 POP PUSH3 0x19AA DUP3 PUSH3 0x1C73 JUMP JUMPDEST PUSH1 0x1 DUP3 ADD SWAP1 POP SWAP2 SWAP1 POP JUMP JUMPDEST PUSH1 0x0 PUSH3 0x19C4 PUSH1 0x6 DUP4 PUSH3 0x1B2A JUMP JUMPDEST SWAP2 POP PUSH3 0x19D1 DUP3 PUSH3 0x1C9C JUMP JUMPDEST PUSH1 0x6 DUP3 ADD SWAP1 POP SWAP2 SWAP1 POP JUMP JUMPDEST PUSH1 0x0 PUSH3 0x19EB PUSH1 0x9 DUP4 PUSH3 0x1B2A JUMP JUMPDEST SWAP2 POP PUSH3 0x19F8 DUP3 PUSH3 0x1CC5 JUMP JUMPDEST PUSH1 0x9 DUP3 ADD SWAP1 POP SWAP2 SWAP1 POP JUMP JUMPDEST PUSH1 0x0 PUSH3 0x1A10 DUP3 PUSH3 0x1919 JUMP JUMPDEST SWAP2 POP DUP2 SWAP1 POP SWAP2 SWAP1 POP JUMP JUMPDEST PUSH1 0x0 PUSH3 0x1A27 DUP3 PUSH3 0x1919 JUMP JUMPDEST SWAP2 POP PUSH3 0x1A34 DUP3 PUSH3 0x198E JUMP JUMPDEST SWAP2 POP DUP2 SWAP1 POP SWAP2 SWAP1 POP JUMP JUMPDEST PUSH1 0x0 PUSH3 0x1A4B DUP3 PUSH3 0x1940 JUMP JUMPDEST SWAP2 POP DUP2 SWAP1 POP SWAP2 SWAP1 POP JUMP JUMPDEST PUSH1 0x0 PUSH3 0x1A62 DUP3 PUSH3 0x1940 JUMP JUMPDEST SWAP2 POP PUSH3 0x1A6F DUP3 PUSH3 0x198E JUMP JUMPDEST SWAP2 POP DUP2 SWAP1 POP SWAP2 SWAP1 POP JUMP JUMPDEST PUSH1 0x0 PUSH3 0x1A86 DUP3 PUSH3 0x1967 JUMP JUMPDEST SWAP2 POP DUP2 SWAP1 POP SWAP2 SWAP1 POP JUMP JUMPDEST PUSH1 0x0 PUSH3 0x1A9D DUP3 PUSH3 0x1967 JUMP JUMPDEST SWAP2 POP PUSH3 0x1AAA DUP3 PUSH3 0x198E JUMP JUMPDEST SWAP2 POP DUP2 SWAP1 POP SWAP2 SWAP1 POP JUMP JUMPDEST PUSH1 0x0 PUSH3 0x1AC1 DUP3 PUSH3 0x19B5 JUMP JUMPDEST SWAP2 POP DUP2 SWAP1 POP SWAP2 SWAP1 POP JUMP JUMPDEST PUSH1 0x0 PUSH3 0x1AD8 DUP3 PUSH3 0x19B5 JUMP JUMPDEST SWAP2 POP PUSH3 0x1AE5 DUP3 PUSH3 0x198E JUMP JUMPDEST SWAP2 POP DUP2 SWAP1 POP SWAP2 SWAP1 POP JUMP JUMPDEST PUSH1 0x0 PUSH3 0x1AFC DUP3 PUSH3 0x19DC JUMP JUMPDEST SWAP2 POP DUP2 SWAP1 POP SWAP2 SWAP1 POP JUMP JUMPDEST PUSH1 0x0 PUSH3 0x1B13 DUP3 PUSH3 0x19DC JUMP JUMPDEST SWAP2 POP PUSH3 0x1B20 DUP3 PUSH3 0x198E JUMP JUMPDEST SWAP2 POP DUP2 SWAP1 POP SWAP2 SWAP1 POP JUMP JUMPDEST PUSH1 0x0 DUP2 SWAP1 POP SWAP3 SWAP2 POP POP JUMP JUMPDEST PUSH1 0x0 PUSH1 0x2 DUP3 DIV SWAP1 POP PUSH1 0x1 DUP3 AND DUP1 PUSH3 0x1B4E JUMPI PUSH1 0x7F DUP3 AND SWAP2 POP JUMPDEST PUSH1 0x20 DUP3 LT DUP2 EQ ISZERO PUSH3 0x1B65 JUMPI PUSH3 0x1B64 PUSH3 0x1B9A JUMP JUMPDEST JUMPDEST POP SWAP2 SWAP1 POP JUMP JUMPDEST PUSH32 0x4E487B7100000000000000000000000000000000000000000000000000000000 PUSH1 0x0 MSTORE PUSH1 0x21 PUSH1 0x4 MSTORE PUSH1 0x24 PUSH1 0x0 REVERT JUMPDEST PUSH32 0x4E487B7100000000000000000000000000000000000000000000000000000000 PUSH1 0x0 MSTORE PUSH1 0x22 PUSH1 0x4 MSTORE PUSH1 0x24 PUSH1 0x0 REVERT JUMPDEST PUSH32 0x4E487B7100000000000000000000000000000000000000000000000000000000 PUSH1 0x0 MSTORE PUSH1 0x41 PUSH1 0x4 MSTORE PUSH1 0x24 PUSH1 0x0 REVERT JUMPDEST PUSH32 0x536369656E746973740000000000000000000000000000000000000000000000 PUSH1 0x0 DUP3 ADD MSTORE POP JUMP JUMPDEST PUSH32 0x6976616E00000000000000000000000000000000000000000000000000000000 PUSH1 0x0 DUP3 ADD MSTORE POP JUMP JUMPDEST PUSH32 0x61646D696E320000000000000000000000000000000000000000000000000000 PUSH1 0x0 DUP3 ADD MSTORE POP JUMP JUMPDEST PUSH32 0x3100000000000000000000000000000000000000000000000000000000000000 PUSH1 0x0 DUP3 ADD MSTORE POP JUMP JUMPDEST PUSH32 0x61646D696E310000000000000000000000000000000000000000000000000000 PUSH1 0x0 DUP3 ADD MSTORE POP JUMP JUMPDEST PUSH32 0x446576656C6F7065720000000000000000000000000000000000000000000000 PUSH1 0x0 DUP3 ADD MSTORE POP JUMP JUMPDEST PUSH2 0xAE87 DUP1 PUSH3 0x1CFE PUSH1 0x0 CODECOPY PUSH1 0x0 RETURN INVALID PUSH1 0x80 PUSH1 0x40 MSTORE CALLVALUE DUP1 ISZERO PUSH2 0x10 JUMPI PUSH1 0x0 DUP1 REVERT JUMPDEST POP PUSH1 0x4 CALLDATASIZE LT PUSH2 0x1A9 JUMPI PUSH1 0x0 CALLDATALOAD PUSH1 0xE0 SHR DUP1 PUSH4 0x86C65D28 GT PUSH2 0xF9 JUMPI DUP1 PUSH4 0xCECDDA4B GT PUSH2 0x97 JUMPI DUP1 PUSH4 0xEAEB60E3 GT PUSH2 0x71 JUMPI DUP1 PUSH4 0xEAEB60E3 EQ PUSH2 0x4BE JUMPI DUP1 PUSH4 0xF481345A EQ PUSH2 0x4EE JUMPI DUP1 PUSH4 0xF7E4D10F EQ PUSH2 0x525 JUMPI DUP1 PUSH4 0xFA308C93 EQ PUSH2 0x541 JUMPI PUSH2 0x1A9 JUMP JUMPDEST DUP1 PUSH4 0xCECDDA4B EQ PUSH2 0x452 JUMPI DUP1 PUSH4 0xDF514F67 EQ PUSH2 0x46E JUMPI DUP1 PUSH4 0xE9D77F4A EQ PUSH2 0x4A2 JUMPI PUSH2 0x1A9 JUMP JUMPDEST DUP1 PUSH4 0x9A79C8ED GT PUSH2 0xD3 JUMPI DUP1 PUSH4 0x9A79C8ED EQ PUSH2 0x3CC JUMPI DUP1 PUSH4 0x9CAD5D4C EQ PUSH2 0x3EA JUMPI DUP1 PUSH4 0xAA27D9AA EQ PUSH2 0x41A JUMPI DUP1 PUSH4 0xCC921570 EQ PUSH2 0x436 JUMPI PUSH2 0x1A9 JUMP JUMPDEST DUP1 PUSH4 0x86C65D28 EQ PUSH2 0x34E JUMPI DUP1 PUSH4 0x9026DEE8 EQ PUSH2 0x37E JUMPI DUP1 PUSH4 0x9516F6D0 EQ PUSH2 0x3AE JUMPI PUSH2 0x1A9 JUMP JUMPDEST DUP1 PUSH4 0x5D788F26 GT PUSH2 0x166 JUMPI DUP1 PUSH4 0x7258319C GT PUSH2 0x140 JUMPI DUP1 PUSH4 0x7258319C EQ PUSH2 0x2DC JUMPI DUP1 PUSH4 0x74F0BE9F EQ PUSH2 0x2F8 JUMPI DUP1 PUSH4 0x776EB2ED EQ PUSH2 0x316 JUMPI DUP1 PUSH4 0x7D8981F6 EQ PUSH2 0x332 JUMPI PUSH2 0x1A9 JUMP JUMPDEST DUP1 PUSH4 0x5D788F26 EQ PUSH2 0x288 JUMPI DUP1 PUSH4 0x60D3E335 EQ PUSH2 0x2A4 JUMPI DUP1 PUSH4 0x6630503B EQ PUSH2 0x2C0 JUMPI PUSH2 0x1A9 JUMP JUMPDEST DUP1 PUSH4 0x8926658 EQ PUSH2 0x1AE JUMPI DUP1 PUSH4 0x1256FA53 EQ PUSH2 0x1CA JUMPI DUP1 PUSH4 0x3964E561 EQ PUSH2 0x1E8 JUMPI DUP1 PUSH4 0x48EED213 EQ PUSH2 0x218 JUMPI DUP1 PUSH4 0x4A451E7C EQ PUSH2 0x234 JUMPI DUP1 PUSH4 0x50879F61 EQ PUSH2 0x250 JUMPI JUMPDEST PUSH1 0x0 DUP1 REVERT JUMPDEST PUSH2 0x1C8 PUSH1 0x4 DUP1 CALLDATASIZE SUB DUP2 ADD SWAP1 PUSH2 0x1C3 SWAP2 SWAP1 PUSH2 0x80D9 JUMP JUMPDEST PUSH2 0x55D JUMP JUMPDEST STOP JUMPDEST PUSH2 0x1D2 PUSH2 0xB48 JUMP JUMPDEST PUSH1 0x40 MLOAD PUSH2 0x1DF SWAP2 SWAP1 PUSH2 0x9EF2 JUMP JUMPDEST PUSH1 0x40 MLOAD DUP1 SWAP2 SUB SWAP1 RETURN JUMPDEST PUSH2 0x202 PUSH1 0x4 DUP1 CALLDATASIZE SUB DUP2 ADD SWAP1 PUSH2 0x1FD SWAP2 SWAP1 PUSH2 0x7DCD JUMP JUMPDEST PUSH2 0xB9C JUMP JUMPDEST PUSH1 0x40 MLOAD PUSH2 0x20F SWAP2 SWAP1 PUSH2 0x9ED0 JUMP JUMPDEST PUSH1 0x40 MLOAD DUP1 SWAP2 SUB SWAP1 RETURN JUMPDEST PUSH2 0x232 PUSH1 0x4 DUP1 CALLDATASIZE SUB DUP2 ADD SWAP1 PUSH2 0x22D SWAP2 SWAP1 PUSH2 0x7DFA JUMP JUMPDEST PUSH2 0xC33 JUMP JUMPDEST STOP JUMPDEST PUSH2 0x24E PUSH1 0x4 DUP1 CALLDATASIZE SUB DUP2 ADD SWAP1 PUSH2 0x249 SWAP2 SWAP1 PUSH2 0x7EFD JUMP JUMPDEST PUSH2 0xF89 JUMP JUMPDEST STOP JUMPDEST PUSH2 0x26A PUSH1 0x4 DUP1 CALLDATASIZE SUB DUP2 ADD SWAP1 PUSH2 0x265 SWAP2 SWAP1 PUSH2 0x8398 JUMP JUMPDEST PUSH2 0x1557 JUMP JUMPDEST PUSH1 0x40 MLOAD PUSH2 0x27F SWAP10 SWAP9 SWAP8 SWAP7 SWAP6 SWAP5 SWAP4 SWAP3 SWAP2 SWAP1 PUSH2 0x9F0D JUMP JUMPDEST PUSH1 0x40 MLOAD DUP1 SWAP2 SUB SWAP1 RETURN JUMPDEST PUSH2 0x2A2 PUSH1 0x4 DUP1 CALLDATASIZE SUB DUP2 ADD SWAP1 PUSH2 0x29D SWAP2 SWAP1 PUSH2 0x8423 JUMP JUMPDEST PUSH2 0x1F78 JUMP JUMPDEST STOP JUMPDEST PUSH2 0x2BE PUSH1 0x4 DUP1 CALLDATASIZE SUB DUP2 ADD SWAP1 PUSH2 0x2B9 SWAP2 SWAP1 PUSH2 0x81C4 JUMP JUMPDEST PUSH2 0x2599 JUMP JUMPDEST STOP JUMPDEST PUSH2 0x2DA PUSH1 0x4 DUP1 CALLDATASIZE SUB DUP2 ADD SWAP1 PUSH2 0x2D5 SWAP2 SWAP1 PUSH2 0x7EFD JUMP JUMPDEST PUSH2 0x29C7 JUMP JUMPDEST STOP JUMPDEST PUSH2 0x2F6 PUSH1 0x4 DUP1 CALLDATASIZE SUB DUP2 ADD SWAP1 PUSH2 0x2F1 SWAP2 SWAP1 PUSH2 0x8423 JUMP JUMPDEST PUSH2 0x2F52 JUMP JUMPDEST STOP JUMPDEST PUSH2 0x300 PUSH2 0x3500 JUMP JUMPDEST PUSH1 0x40 MLOAD PUSH2 0x30D SWAP2 SWAP1 PUSH2 0x9EAE JUMP JUMPDEST PUSH1 0x40 MLOAD DUP1 SWAP2 SUB SWAP1 RETURN JUMPDEST PUSH2 0x330 PUSH1 0x4 DUP1 CALLDATASIZE SUB DUP2 ADD SWAP1 PUSH2 0x32B SWAP2 SWAP1 PUSH2 0x7EFD JUMP JUMPDEST PUSH2 0x35D9 JUMP JUMPDEST STOP JUMPDEST PUSH2 0x34C PUSH1 0x4 DUP1 CALLDATASIZE SUB DUP2 ADD SWAP1 PUSH2 0x347 SWAP2 SWAP1 PUSH2 0x7EFD JUMP JUMPDEST PUSH2 0x3C1B JUMP JUMPDEST STOP JUMPDEST PUSH2 0x368 PUSH1 0x4 DUP1 CALLDATASIZE SUB DUP2 ADD SWAP1 PUSH2 0x363 SWAP2 SWAP1 PUSH2 0x8599 JUMP JUMPDEST PUSH2 0x43E0 JUMP JUMPDEST PUSH1 0x40 MLOAD PUSH2 0x375 SWAP2 SWAP1 PUSH2 0x9FC4 JUMP JUMPDEST PUSH1 0x40 MLOAD DUP1 SWAP2 SUB SWAP1 RETURN JUMPDEST PUSH2 0x398 PUSH1 0x4 DUP1 CALLDATASIZE SUB DUP2 ADD SWAP1 PUSH2 0x393 SWAP2 SWAP1 PUSH2 0x7DCD JUMP JUMPDEST PUSH2 0x448C JUMP JUMPDEST PUSH1 0x40 MLOAD PUSH2 0x3A5 SWAP2 SWAP1 PUSH2 0x9FC4 JUMP JUMPDEST PUSH1 0x40 MLOAD DUP1 SWAP2 SUB SWAP1 RETURN JUMPDEST PUSH2 0x3B6 PUSH2 0x4560 JUMP JUMPDEST PUSH1 0x40 MLOAD PUSH2 0x3C3 SWAP2 SWAP1 PUSH2 0x9EAE JUMP JUMPDEST PUSH1 0x40 MLOAD DUP1 SWAP2 SUB SWAP1 RETURN JUMPDEST PUSH2 0x3D4 PUSH2 0x4639 JUMP JUMPDEST PUSH1 0x40 MLOAD PUSH2 0x3E1 SWAP2 SWAP1 PUSH2 0x9EAE JUMP JUMPDEST PUSH1 0x40 MLOAD DUP1 SWAP2 SUB SWAP1 RETURN JUMPDEST PUSH2 0x404 PUSH1 0x4 DUP1 CALLDATASIZE SUB DUP2 ADD SWAP1 PUSH2 0x3FF SWAP2 SWAP1 PUSH2 0x8599 JUMP JUMPDEST PUSH2 0x4712 JUMP JUMPDEST PUSH1 0x40 MLOAD PUSH2 0x411 SWAP2 SWAP1 PUSH2 0x9FC4 JUMP JUMPDEST PUSH1 0x40 MLOAD DUP1 SWAP2 SUB SWAP1 RETURN JUMPDEST PUSH2 0x434 PUSH1 0x4 DUP1 CALLDATASIZE SUB DUP2 ADD SWAP1 PUSH2 0x42F SWAP2 SWAP1 PUSH2 0x7EFD JUMP JUMPDEST PUSH2 0x47BE JUMP JUMPDEST STOP JUMPDEST PUSH2 0x450 PUSH1 0x4 DUP1 CALLDATASIZE SUB DUP2 ADD SWAP1 PUSH2 0x44B SWAP2 SWAP1 PUSH2 0x7FA4 JUMP JUMPDEST PUSH2 0x4A36 JUMP JUMPDEST STOP JUMPDEST PUSH2 0x46C PUSH1 0x4 DUP1 CALLDATASIZE SUB DUP2 ADD SWAP1 PUSH2 0x467 SWAP2 SWAP1 PUSH2 0x827F JUMP JUMPDEST PUSH2 0x4EE9 JUMP JUMPDEST STOP JUMPDEST PUSH2 0x488 PUSH1 0x4 DUP1 CALLDATASIZE SUB DUP2 ADD SWAP1 PUSH2 0x483 SWAP2 SWAP1 PUSH2 0x7DCD JUMP JUMPDEST PUSH2 0x52ED JUMP JUMPDEST PUSH1 0x40 MLOAD PUSH2 0x499 SWAP6 SWAP5 SWAP4 SWAP3 SWAP2 SWAP1 PUSH2 0x9FE6 JUMP JUMPDEST PUSH1 0x40 MLOAD DUP1 SWAP2 SUB SWAP1 RETURN JUMPDEST PUSH2 0x4BC PUSH1 0x4 DUP1 CALLDATASIZE SUB DUP2 ADD SWAP1 PUSH2 0x4B7 SWAP2 SWAP1 PUSH2 0x84DE JUMP JUMPDEST PUSH2 0x5667 JUMP JUMPDEST STOP JUMPDEST PUSH2 0x4D8 PUSH1 0x4 DUP1 CALLDATASIZE SUB DUP2 ADD SWAP1 PUSH2 0x4D3 SWAP2 SWAP1 PUSH2 0x8599 JUMP JUMPDEST PUSH2 0x5CA6 JUMP JUMPDEST PUSH1 0x40 MLOAD PUSH2 0x4E5 SWAP2 SWAP1 PUSH2 0x9FC4 JUMP JUMPDEST PUSH1 0x40 MLOAD DUP1 SWAP2 SUB SWAP1 RETURN JUMPDEST PUSH2 0x508 PUSH1 0x4 DUP1 CALLDATASIZE SUB DUP2 ADD SWAP1 PUSH2 0x503 SWAP2 SWAP1 PUSH2 0x7DCD JUMP JUMPDEST PUSH2 0x5D52 JUMP JUMPDEST PUSH1 0x40 MLOAD PUSH2 0x51C SWAP9 SWAP8 SWAP7 SWAP6 SWAP5 SWAP4 SWAP3 SWAP2 SWAP1 PUSH2 0xA05C JUMP JUMPDEST PUSH1 0x40 MLOAD DUP1 SWAP2 SUB SWAP1 RETURN JUMPDEST PUSH2 0x53F PUSH1 0x4 DUP1 CALLDATASIZE SUB DUP2 ADD SWAP1 PUSH2 0x53A SWAP2 SWAP1 PUSH2 0x7EFD JUMP JUMPDEST PUSH2 0x654A JUMP JUMPDEST STOP JUMPDEST PUSH2 0x55B PUSH1 0x4 DUP1 CALLDATASIZE SUB DUP2 ADD SWAP1 PUSH2 0x556 SWAP2 SWAP1 PUSH2 0x7E72 JUMP JUMPDEST PUSH2 0x6B01 JUMP JUMPDEST STOP JUMPDEST DUP5 DUP5 PUSH1 0x6 PUSH1 0x7 DUP2 GT ISZERO PUSH2 0x573 JUMPI PUSH2 0x572 PUSH2 0xA4C8 JUMP JUMPDEST JUMPDEST PUSH1 0x4 PUSH1 0x0 CALLER PUSH20 0xFFFFFFFFFFFFFFFFFFFFFFFFFFFFFFFFFFFFFFFF AND PUSH20 0xFFFFFFFFFFFFFFFFFFFFFFFFFFFFFFFFFFFFFFFF AND DUP2 MSTORE PUSH1 0x20 ADD SWAP1 DUP2 MSTORE PUSH1 0x20 ADD PUSH1 0x0 KECCAK256 PUSH1 0x0 SWAP1 SLOAD SWAP1 PUSH2 0x100 EXP SWAP1 DIV PUSH1 0xFF AND PUSH1 0x7 DUP2 GT ISZERO PUSH2 0x5D2 JUMPI PUSH2 0x5D1 PUSH2 0xA4C8 JUMP JUMPDEST JUMPDEST EQ ISZERO DUP1 ISZERO PUSH2 0x651 JUMPI POP PUSH1 0x5 PUSH1 0x7 DUP2 GT ISZERO PUSH2 0x5EF JUMPI PUSH2 0x5EE PUSH2 0xA4C8 JUMP JUMPDEST JUMPDEST PUSH1 0x4 PUSH1 0x0 CALLER PUSH20 0xFFFFFFFFFFFFFFFFFFFFFFFFFFFFFFFFFFFFFFFF AND PUSH20 0xFFFFFFFFFFFFFFFFFFFFFFFFFFFFFFFFFFFFFFFF AND DUP2 MSTORE PUSH1 0x20 ADD SWAP1 DUP2 MSTORE PUSH1 0x20 ADD PUSH1 0x0 KECCAK256 PUSH1 0x0 SWAP1 SLOAD SWAP1 PUSH2 0x100 EXP SWAP1 DIV PUSH1 0xFF AND PUSH1 0x7 DUP2 GT ISZERO PUSH2 0x64E JUMPI PUSH2 0x64D PUSH2 0xA4C8 JUMP JUMPDEST JUMPDEST EQ ISZERO JUMPDEST DUP1 ISZERO PUSH2 0x6CD JUMPI POP PUSH1 0x7 DUP1 DUP2 GT ISZERO PUSH2 0x66B JUMPI PUSH2 0x66A PUSH2 0xA4C8 JUMP JUMPDEST JUMPDEST PUSH1 0x4 PUSH1 0x0 CALLER PUSH20 0xFFFFFFFFFFFFFFFFFFFFFFFFFFFFFFFFFFFFFFFF AND PUSH20 0xFFFFFFFFFFFFFFFFFFFFFFFFFFFFFFFFFFFFFFFF AND DUP2 MSTORE PUSH1 0x20 ADD SWAP1 DUP2 MSTORE PUSH1 0x20 ADD PUSH1 0x0 KECCAK256 PUSH1 0x0 SWAP1 SLOAD SWAP1 PUSH2 0x100 EXP SWAP1 DIV PUSH1 0xFF AND PUSH1 0x7 DUP2 GT ISZERO PUSH2 0x6CA JUMPI PUSH2 0x6C9 PUSH2 0xA4C8 JUMP JUMPDEST JUMPDEST EQ ISZERO JUMPDEST ISZERO PUSH2 0x713 JUMPI PUSH32 0xB2BFA9090D50AD1A62CB284547F85F0E78E3B3DCCA2D82C2ECE1A3E9ABF25266 CALLER PUSH1 0x0 DUP1 PUSH1 0x40 MLOAD PUSH2 0x706 SWAP4 SWAP3 SWAP2 SWAP1 PUSH2 0x9A58 JUMP JUMPDEST PUSH1 0x40 MLOAD DUP1 SWAP2 SUB SWAP1 LOG1 PUSH2 0xB3F JUMP JUMPDEST DUP2 DUP2 PUSH1 0x40 MLOAD PUSH1 0x20 ADD PUSH2 0x726 SWAP3 SWAP2 SWAP1 PUSH2 0x90AA JUMP JUMPDEST PUSH1 0x40 MLOAD PUSH1 0x20 DUP2 DUP4 SUB SUB DUP2 MSTORE SWAP1 PUSH1 0x40 MSTORE DUP1 MLOAD SWAP1 PUSH1 0x20 ADD KECCAK256 PUSH1 0x0 DUP1 CALLER PUSH20 0xFFFFFFFFFFFFFFFFFFFFFFFFFFFFFFFFFFFFFFFF AND PUSH20 0xFFFFFFFFFFFFFFFFFFFFFFFFFFFFFFFFFFFFFFFF AND DUP2 MSTORE PUSH1 0x20 ADD SWAP1 DUP2 MSTORE PUSH1 0x20 ADD PUSH1 0x0 KECCAK256 PUSH1 0x6 ADD SLOAD EQ DUP1 PUSH2 0x7F3 JUMPI POP DUP2 DUP2 PUSH1 0x40 MLOAD PUSH1 0x20 ADD PUSH2 0x798 SWAP3 SWAP2 SWAP1 PUSH2 0x90AA JUMP JUMPDEST PUSH1 0x40 MLOAD PUSH1 0x20 DUP2 DUP4 SUB SUB DUP2 MSTORE SWAP1 PUSH1 0x40 MSTORE DUP1 MLOAD SWAP1 PUSH1 0x20 ADD KECCAK256 PUSH1 0x1 PUSH1 0x0 CALLER PUSH20 0xFFFFFFFFFFFFFFFFFFFFFFFFFFFFFFFFFFFFFFFF AND PUSH20 0xFFFFFFFFFFFFFFFFFFFFFFFFFFFFFFFFFFFFFFFF AND DUP2 MSTORE PUSH1 0x20 ADD SWAP1 DUP2 MSTORE PUSH1 0x20 ADD PUSH1 0x0 KECCAK256 PUSH1 0x6 ADD SLOAD EQ JUMPDEST DUP1 PUSH2 0x867 JUMPI POP DUP2 DUP2 PUSH1 0x40 MLOAD PUSH1 0x20 ADD PUSH2 0x80C SWAP3 SWAP2 SWAP1 PUSH2 0x90AA JUMP JUMPDEST PUSH1 0x40 MLOAD PUSH1 0x20 DUP2 DUP4 SUB SUB DUP2 MSTORE SWAP1 PUSH1 0x40 MSTORE DUP1 MLOAD SWAP1 PUSH1 0x20 ADD KECCAK256 PUSH1 0x2 PUSH1 0x0 CALLER PUSH20 0xFFFFFFFFFFFFFFFFFFFFFFFFFFFFFFFFFFFFFFFF AND PUSH20 0xFFFFFFFFFFFFFFFFFFFFFFFFFFFFFFFFFFFFFFFF AND DUP2 MSTORE PUSH1 0x20 ADD SWAP1 DUP2 MSTORE PUSH1 0x20 ADD PUSH1 0x0 KECCAK256 PUSH1 0x2 ADD SLOAD EQ JUMPDEST PUSH2 0x8AC JUMPI PUSH32 0xB2BFA9090D50AD1A62CB284547F85F0E78E3B3DCCA2D82C2ECE1A3E9ABF25266 CALLER PUSH1 0x0 DUP1 PUSH1 0x40 MLOAD PUSH2 0x89F SWAP4 SWAP3 SWAP2 SWAP1 PUSH2 0x964C JUMP JUMPDEST PUSH1 0x40 MLOAD DUP1 SWAP2 SUB SWAP1 LOG1 PUSH2 0xB3F JUMP JUMPDEST PUSH1 0x6 PUSH1 0x7 DUP2 GT ISZERO PUSH2 0x8C0 JUMPI PUSH2 0x8BF PUSH2 0xA4C8 JUMP JUMPDEST JUMPDEST PUSH1 0x4 PUSH1 0x0 CALLER PUSH20 0xFFFFFFFFFFFFFFFFFFFFFFFFFFFFFFFFFFFFFFFF AND PUSH20 0xFFFFFFFFFFFFFFFFFFFFFFFFFFFFFFFFFFFFFFFF AND DUP2 MSTORE PUSH1 0x20 ADD SWAP1 DUP2 MSTORE PUSH1 0x20 ADD PUSH1 0x0 KECCAK256 PUSH1 0x0 SWAP1 SLOAD SWAP1 PUSH2 0x100 EXP SWAP1 DIV PUSH1 0xFF AND PUSH1 0x7 DUP2 GT ISZERO PUSH2 0x91F JUMPI PUSH2 0x91E PUSH2 0xA4C8 JUMP JUMPDEST JUMPDEST EQ PUSH2 0x965 JUMPI PUSH32 0xB2BFA9090D50AD1A62CB284547F85F0E78E3B3DCCA2D82C2ECE1A3E9ABF25266 CALLER PUSH1 0x0 DUP1 PUSH1 0x40 MLOAD PUSH2 0x958 SWAP4 SWAP3 SWAP2 SWAP1 PUSH2 0x9696 JUMP JUMPDEST PUSH1 0x40 MLOAD DUP1 SWAP2 SUB SWAP1 LOG1 PUSH2 0xB3E JUMP JUMPDEST PUSH1 0x0 PUSH1 0x5 DUP6 PUSH1 0x40 MLOAD PUSH2 0x977 SWAP2 SWAP1 PUSH2 0x9093 JUMP JUMPDEST SWAP1 DUP2 MSTORE PUSH1 0x20 ADD PUSH1 0x40 MLOAD DUP1 SWAP2 SUB SWAP1 KECCAK256 PUSH1 0x0 SWAP1 SLOAD SWAP1 PUSH2 0x100 EXP SWAP1 DIV PUSH20 0xFFFFFFFFFFFFFFFFFFFFFFFFFFFFFFFFFFFFFFFF AND SWAP1 POP PUSH1 0x0 PUSH2 0x9B3 CALLER PUSH2 0x7071 JUMP JUMPDEST EQ ISZERO PUSH2 0xAFF JUMPI PUSH1 0x5 PUSH1 0x7 DUP2 GT ISZERO PUSH2 0x9CD JUMPI PUSH2 0x9CC PUSH2 0xA4C8 JUMP JUMPDEST JUMPDEST PUSH1 0x4 PUSH1 0x0 DUP4 PUSH20 0xFFFFFFFFFFFFFFFFFFFFFFFFFFFFFFFFFFFFFFFF AND PUSH20 0xFFFFFFFFFFFFFFFFFFFFFFFFFFFFFFFFFFFFFFFF AND DUP2 MSTORE PUSH1 0x20 ADD SWAP1 DUP2 MSTORE PUSH1 0x20 ADD PUSH1 0x0 KECCAK256 PUSH1 0x0 SWAP1 SLOAD SWAP1 PUSH2 0x100 EXP SWAP1 DIV PUSH1 0xFF AND PUSH1 0x7 DUP2 GT ISZERO PUSH2 0xA2C JUMPI PUSH2 0xA2B PUSH2 0xA4C8 JUMP JUMPDEST JUMPDEST EQ ISZERO PUSH2 0xABD JUMPI PUSH2 0xA3C DUP7 DUP6 PUSH2 0x71FF JUMP JUMPDEST ISZERO PUSH2 0xAB8 JUMPI PUSH1 0x0 PUSH2 0xA4E DUP8 DUP7 DUP5 PUSH2 0x72F8 JUMP JUMPDEST SWAP1 POP PUSH1 0x6 PUSH1 0x0 CALLER PUSH20 0xFFFFFFFFFFFFFFFFFFFFFFFFFFFFFFFFFFFFFFFF AND PUSH20 0xFFFFFFFFFFFFFFFFFFFFFFFFFFFFFFFFFFFFFFFF AND DUP2 MSTORE PUSH1 0x20 ADD SWAP1 DUP2 MSTORE PUSH1 0x20 ADD PUSH1 0x0 KECCAK256 DUP2 SWAP1 DUP1 PUSH1 0x1 DUP2 SLOAD ADD DUP1 DUP3 SSTORE DUP1 SWAP2 POP POP PUSH1 0x1 SWAP1 SUB SWAP1 PUSH1 0x0 MSTORE PUSH1 0x20 PUSH1 0x0 KECCAK256 ADD PUSH1 0x0 SWAP1 SWAP2 SWAP1 SWAP2 SWAP1 SWAP2 POP SSTORE POP JUMPDEST PUSH2 0xAFA JUMP JUMPDEST PUSH32 0xB2BFA9090D50AD1A62CB284547F85F0E78E3B3DCCA2D82C2ECE1A3E9ABF25266 CALLER PUSH1 0x0 DUP1 PUSH1 0x40 MLOAD PUSH2 0xAF1 SWAP4 SWAP3 SWAP2 SWAP1 PUSH2 0x9AA2 JUMP JUMPDEST PUSH1 0x40 MLOAD DUP1 SWAP2 SUB SWAP1 LOG1 JUMPDEST PUSH2 0xB3C JUMP JUMPDEST PUSH32 0xB2BFA9090D50AD1A62CB284547F85F0E78E3B3DCCA2D82C2ECE1A3E9ABF25266 CALLER PUSH1 0x0 DUP1 PUSH1 0x40 MLOAD PUSH2 0xB33 SWAP4 SWAP3 SWAP2 SWAP1 PUSH2 0x9602 JUMP JUMPDEST PUSH1 0x40 MLOAD DUP1 SWAP2 SUB SWAP1 LOG1 JUMPDEST POP JUMPDEST JUMPDEST POP POP POP POP POP POP POP JUMP JUMPDEST PUSH1 0x0 PUSH1 0x4 PUSH1 0x0 CALLER PUSH20 0xFFFFFFFFFFFFFFFFFFFFFFFFFFFFFFFFFFFFFFFF AND PUSH20 0xFFFFFFFFFFFFFFFFFFFFFFFFFFFFFFFFFFFFFFFF AND DUP2 MSTORE PUSH1 0x20 ADD SWAP1 DUP2 MSTORE PUSH1 0x20 ADD PUSH1 0x0 KECCAK256 PUSH1 0x0 SWAP1 SLOAD SWAP1 PUSH2 0x100 EXP SWAP1 DIV PUSH1 0xFF AND SWAP1 POP SWAP1 JUMP JUMPDEST PUSH1 0x60 PUSH1 0x6 PUSH1 0x0 DUP4 PUSH20 0xFFFFFFFFFFFFFFFFFFFFFFFFFFFFFFFFFFFFFFFF AND PUSH20 0xFFFFFFFFFFFFFFFFFFFFFFFFFFFFFFFFFFFFFFFF AND DUP2 MSTORE PUSH1 0x20 ADD SWAP1 DUP2 MSTORE PUSH1 0x20 ADD PUSH1 0x0 KECCAK256 DUP1 SLOAD DUP1 PUSH1 0x20 MUL PUSH1 0x20 ADD PUSH1 0x40 MLOAD SWAP1 DUP2 ADD PUSH1 0x40 MSTORE DUP1 SWAP3 SWAP2 SWAP1 DUP2 DUP2 MSTORE PUSH1 0x20 ADD DUP3 DUP1 SLOAD DUP1 ISZERO PUSH2 0xC27 JUMPI PUSH1 0x20 MUL DUP3 ADD SWAP2 SWAP1 PUSH1 0x0 MSTORE PUSH1 0x20 PUSH1 0x0 KECCAK256 SWAP1 JUMPDEST DUP2 SLOAD DUP2 MSTORE PUSH1 0x20 ADD SWAP1 PUSH1 0x1 ADD SWAP1 DUP1 DUP4 GT PUSH2 0xC13 JUMPI JUMPDEST POP POP POP POP POP SWAP1 POP SWAP2 SWAP1 POP JUMP JUMPDEST DUP2 DUP2 PUSH1 0x6 PUSH1 0x7 DUP2 GT ISZERO PUSH2 0xC49 JUMPI PUSH2 0xC48 PUSH2 0xA4C8 JUMP JUMPDEST JUMPDEST PUSH1 0x4 PUSH1 0x0 CALLER PUSH20 0xFFFFFFFFFFFFFFFFFFFFFFFFFFFFFFFFFFFFFFFF AND PUSH20 0xFFFFFFFFFFFFFFFFFFFFFFFFFFFFFFFFFFFFFFFF AND DUP2 MSTORE PUSH1 0x20 ADD SWAP1 DUP2 MSTORE PUSH1 0x20 ADD PUSH1 0x0 KECCAK256 PUSH1 0x0 SWAP1 SLOAD SWAP1 PUSH2 0x100 EXP SWAP1 DIV PUSH1 0xFF AND PUSH1 0x7 DUP2 GT ISZERO PUSH2 0xCA8 JUMPI PUSH2 0xCA7 PUSH2 0xA4C8 JUMP JUMPDEST JUMPDEST EQ ISZERO DUP1 ISZERO PUSH2 0xD27 JUMPI POP PUSH1 0x5 PUSH1 0x7 DUP2 GT ISZERO PUSH2 0xCC5 JUMPI PUSH2 0xCC4 PUSH2 0xA4C8 JUMP JUMPDEST JUMPDEST PUSH1 0x4 PUSH1 0x0 CALLER PUSH20 0xFFFFFFFFFFFFFFFFFFFFFFFFFFFFFFFFFFFFFFFF AND PUSH20 0xFFFFFFFFFFFFFFFFFFFFFFFFFFFFFFFFFFFFFFFF AND DUP2 MSTORE PUSH1 0x20 ADD SWAP1 DUP2 MSTORE PUSH1 0x20 ADD PUSH1 0x0 KECCAK256 PUSH1 0x0 SWAP1 SLOAD SWAP1 PUSH2 0x100 EXP SWAP1 DIV PUSH1 0xFF AND PUSH1 0x7 DUP2 GT ISZERO PUSH2 0xD24 JUMPI PUSH2 0xD23 PUSH2 0xA4C8 JUMP JUMPDEST JUMPDEST EQ ISZERO JUMPDEST DUP1 ISZERO PUSH2 0xDA3 JUMPI POP PUSH1 0x7 DUP1 DUP2 GT ISZERO PUSH2 0xD41 JUMPI PUSH2 0xD40 PUSH2 0xA4C8 JUMP JUMPDEST JUMPDEST PUSH1 0x4 PUSH1 0x0 CALLER PUSH20 0xFFFFFFFFFFFFFFFFFFFFFFFFFFFFFFFFFFFFFFFF AND PUSH20 0xFFFFFFFFFFFFFFFFFFFFFFFFFFFFFFFFFFFFFFFF AND DUP2 MSTORE PUSH1 0x20 ADD SWAP1 DUP2 MSTORE PUSH1 0x20 ADD PUSH1 0x0 KECCAK256 PUSH1 0x0 SWAP1 SLOAD SWAP1 PUSH2 0x100 EXP SWAP1 DIV PUSH1 0xFF AND PUSH1 0x7 DUP2 GT ISZERO PUSH2 0xDA0 JUMPI PUSH2 0xD9F PUSH2 0xA4C8 JUMP JUMPDEST JUMPDEST EQ ISZERO JUMPDEST ISZERO PUSH2 0xDE9 JUMPI PUSH32 0xB2BFA9090D50AD1A62CB284547F85F0E78E3B3DCCA2D82C2ECE1A3E9ABF25266 CALLER PUSH1 0x0 DUP1 PUSH1 0x40 MLOAD PUSH2 0xDDC SWAP4 SWAP3 SWAP2 SWAP1 PUSH2 0x9A58 JUMP JUMPDEST PUSH1 0x40 MLOAD DUP1 SWAP2 SUB SWAP1 LOG1 PUSH2 0xF83 JUMP JUMPDEST DUP2 DUP2 PUSH1 0x40 MLOAD PUSH1 0x20 ADD PUSH2 0xDFC SWAP3 SWAP2 SWAP1 PUSH2 0x90AA JUMP JUMPDEST PUSH1 0x40 MLOAD PUSH1 0x20 DUP2 DUP4 SUB SUB DUP2 MSTORE SWAP1 PUSH1 0x40 MSTORE DUP1 MLOAD SWAP1 PUSH1 0x20 ADD KECCAK256 PUSH1 0x0 DUP1 CALLER PUSH20 0xFFFFFFFFFFFFFFFFFFFFFFFFFFFFFFFFFFFFFFFF AND PUSH20 0xFFFFFFFFFFFFFFFFFFFFFFFFFFFFFFFFFFFFFFFF AND DUP2 MSTORE PUSH1 0x20 ADD SWAP1 DUP2 MSTORE PUSH1 0x20 ADD PUSH1 0x0 KECCAK256 PUSH1 0x6 ADD SLOAD EQ DUP1 PUSH2 0xEC9 JUMPI POP DUP2 DUP2 PUSH1 0x40 MLOAD PUSH1 0x20 ADD PUSH2 0xE6E SWAP3 SWAP2 SWAP1 PUSH2 0x90AA JUMP JUMPDEST PUSH1 0x40 MLOAD PUSH1 0x20 DUP2 DUP4 SUB SUB DUP2 MSTORE SWAP1 PUSH1 0x40 MSTORE DUP1 MLOAD SWAP1 PUSH1 0x20 ADD KECCAK256 PUSH1 0x1 PUSH1 0x0 CALLER PUSH20 0xFFFFFFFFFFFFFFFFFFFFFFFFFFFFFFFFFFFFFFFF AND PUSH20 0xFFFFFFFFFFFFFFFFFFFFFFFFFFFFFFFFFFFFFFFF AND DUP2 MSTORE PUSH1 0x20 ADD SWAP1 DUP2 MSTORE PUSH1 0x20 ADD PUSH1 0x0 KECCAK256 PUSH1 0x6 ADD SLOAD EQ JUMPDEST DUP1 PUSH2 0xF3D JUMPI POP DUP2 DUP2 PUSH1 0x40 MLOAD PUSH1 0x20 ADD PUSH2 0xEE2 SWAP3 SWAP2 SWAP1 PUSH2 0x90AA JUMP JUMPDEST PUSH1 0x40 MLOAD PUSH1 0x20 DUP2 DUP4 SUB SUB DUP2 MSTORE SWAP1 PUSH1 0x40 MSTORE DUP1 MLOAD SWAP1 PUSH1 0x20 ADD KECCAK256 PUSH1 0x2 PUSH1 0x0 CALLER PUSH20 0xFFFFFFFFFFFFFFFFFFFFFFFFFFFFFFFFFFFFFFFF AND PUSH20 0xFFFFFFFFFFFFFFFFFFFFFFFFFFFFFFFFFFFFFFFF AND DUP2 MSTORE PUSH1 0x20 ADD SWAP1 DUP2 MSTORE PUSH1 0x20 ADD PUSH1 0x0 KECCAK256 PUSH1 0x2 ADD SLOAD EQ JUMPDEST PUSH2 0xF82 JUMPI PUSH32 0xB2BFA9090D50AD1A62CB284547F85F0E78E3B3DCCA2D82C2ECE1A3E9ABF25266 CALLER PUSH1 0x0 DUP1 PUSH1 0x40 MLOAD PUSH2 0xF75 SWAP4 SWAP3 SWAP2 SWAP1 PUSH2 0x964C JUMP JUMPDEST PUSH1 0x40 MLOAD DUP1 SWAP2 SUB SWAP1 LOG1 PUSH2 0xF83 JUMP JUMPDEST JUMPDEST POP POP POP POP JUMP JUMPDEST DUP3 DUP3 PUSH1 0x6 PUSH1 0x7 DUP2 GT ISZERO PUSH2 0xF9F JUMPI PUSH2 0xF9E PUSH2 0xA4C8 JUMP JUMPDEST JUMPDEST PUSH1 0x4 PUSH1 0x0 CALLER PUSH20 0xFFFFFFFFFFFFFFFFFFFFFFFFFFFFFFFFFFFFFFFF AND PUSH20 0xFFFFFFFFFFFFFFFFFFFFFFFFFFFFFFFFFFFFFFFF AND DUP2 MSTORE PUSH1 0x20 ADD SWAP1 DUP2 MSTORE PUSH1 0x20 ADD PUSH1 0x0 KECCAK256 PUSH1 0x0 SWAP1 SLOAD SWAP1 PUSH2 0x100 EXP SWAP1 DIV PUSH1 0xFF AND PUSH1 0x7 DUP2 GT ISZERO PUSH2 0xFFE JUMPI PUSH2 0xFFD PUSH2 0xA4C8 JUMP JUMPDEST JUMPDEST EQ ISZERO DUP1 ISZERO PUSH2 0x107D JUMPI POP PUSH1 0x5 PUSH1 0x7 DUP2 GT ISZERO PUSH2 0x101B JUMPI PUSH2 0x101A PUSH2 0xA4C8 JUMP JUMPDEST JUMPDEST PUSH1 0x4 PUSH1 0x0 CALLER PUSH20 0xFFFFFFFFFFFFFFFFFFFFFFFFFFFFFFFFFFFFFFFF AND PUSH20 0xFFFFFFFFFFFFFFFFFFFFFFFFFFFFFFFFFFFFFFFF AND DUP2 MSTORE PUSH1 0x20 ADD SWAP1 DUP2 MSTORE PUSH1 0x20 ADD PUSH1 0x0 KECCAK256 PUSH1 0x0 SWAP1 SLOAD SWAP1 PUSH2 0x100 EXP SWAP1 DIV PUSH1 0xFF AND PUSH1 0x7 DUP2 GT ISZERO PUSH2 0x107A JUMPI PUSH2 0x1079 PUSH2 0xA4C8 JUMP JUMPDEST JUMPDEST EQ ISZERO JUMPDEST DUP1 ISZERO PUSH2 0x10F9 JUMPI POP PUSH1 0x7 DUP1 DUP2 GT ISZERO PUSH2 0x1097 JUMPI PUSH2 0x1096 PUSH2 0xA4C8 JUMP JUMPDEST JUMPDEST PUSH1 0x4 PUSH1 0x0 CALLER PUSH20 0xFFFFFFFFFFFFFFFFFFFFFFFFFFFFFFFFFFFFFFFF AND PUSH20 0xFFFFFFFFFFFFFFFFFFFFFFFFFFFFFFFFFFFFFFFF AND DUP2 MSTORE PUSH1 0x20 ADD SWAP1 DUP2 MSTORE PUSH1 0x20 ADD PUSH1 0x0 KECCAK256 PUSH1 0x0 SWAP1 SLOAD SWAP1 PUSH2 0x100 EXP SWAP1 DIV PUSH1 0xFF AND PUSH1 0x7 DUP2 GT ISZERO PUSH2 0x10F6 JUMPI PUSH2 0x10F5 PUSH2 0xA4C8 JUMP JUMPDEST JUMPDEST EQ ISZERO JUMPDEST ISZERO PUSH2 0x113F JUMPI PUSH32 0xB2BFA9090D50AD1A62CB284547F85F0E78E3B3DCCA2D82C2ECE1A3E9ABF25266 CALLER PUSH1 0x0 DUP1 PUSH1 0x40 MLOAD PUSH2 0x1132 SWAP4 SWAP3 SWAP2 SWAP1 PUSH2 0x9A58 JUMP JUMPDEST PUSH1 0x40 MLOAD DUP1 SWAP2 SUB SWAP1 LOG1 PUSH2 0x1550 JUMP JUMPDEST DUP2 DUP2 PUSH1 0x40 MLOAD PUSH1 0x20 ADD PUSH2 0x1152 SWAP3 SWAP2 SWAP1 PUSH2 0x90AA JUMP JUMPDEST PUSH1 0x40 MLOAD PUSH1 0x20 DUP2 DUP4 SUB SUB DUP2 MSTORE SWAP1 PUSH1 0x40 MSTORE DUP1 MLOAD SWAP1 PUSH1 0x20 ADD KECCAK256 PUSH1 0x0 DUP1 CALLER PUSH20 0xFFFFFFFFFFFFFFFFFFFFFFFFFFFFFFFFFFFFFFFF AND PUSH20 0xFFFFFFFFFFFFFFFFFFFFFFFFFFFFFFFFFFFFFFFF AND DUP2 MSTORE PUSH1 0x20 ADD SWAP1 DUP2 MSTORE PUSH1 0x20 ADD PUSH1 0x0 KECCAK256 PUSH1 0x6 ADD SLOAD EQ DUP1 PUSH2 0x121F JUMPI POP DUP2 DUP2 PUSH1 0x40 MLOAD PUSH1 0x20 ADD PUSH2 0x11C4 SWAP3 SWAP2 SWAP1 PUSH2 0x90AA JUMP JUMPDEST PUSH1 0x40 MLOAD PUSH1 0x20 DUP2 DUP4 SUB SUB DUP2 MSTORE SWAP1 PUSH1 0x40 MSTORE DUP1 MLOAD SWAP1 PUSH1 0x20 ADD KECCAK256 PUSH1 0x1 PUSH1 0x0 CALLER PUSH20 0xFFFFFFFFFFFFFFFFFFFFFFFFFFFFFFFFFFFFFFFF AND PUSH20 0xFFFFFFFFFFFFFFFFFFFFFFFFFFFFFFFFFFFFFFFF AND DUP2 MSTORE PUSH1 0x20 ADD SWAP1 DUP2 MSTORE PUSH1 0x20 ADD PUSH1 0x0 KECCAK256 PUSH1 0x6 ADD SLOAD EQ JUMPDEST DUP1 PUSH2 0x1293 JUMPI POP DUP2 DUP2 PUSH1 0x40 MLOAD PUSH1 0x20 ADD PUSH2 0x1238 SWAP3 SWAP2 SWAP1 PUSH2 0x90AA JUMP JUMPDEST PUSH1 0x40 MLOAD PUSH1 0x20 DUP2 DUP4 SUB SUB DUP2 MSTORE SWAP1 PUSH1 0x40 MSTORE DUP1 MLOAD SWAP1 PUSH1 0x20 ADD KECCAK256 PUSH1 0x2 PUSH1 0x0 CALLER PUSH20 0xFFFFFFFFFFFFFFFFFFFFFFFFFFFFFFFFFFFFFFFF AND PUSH20 0xFFFFFFFFFFFFFFFFFFFFFFFFFFFFFFFFFFFFFFFF AND DUP2 MSTORE PUSH1 0x20 ADD SWAP1 DUP2 MSTORE PUSH1 0x20 ADD PUSH1 0x0 KECCAK256 PUSH1 0x2 ADD SLOAD EQ JUMPDEST PUSH2 0x12D8 JUMPI PUSH32 0xB2BFA9090D50AD1A62CB284547F85F0E78E3B3DCCA2D82C2ECE1A3E9ABF25266 CALLER PUSH1 0x0 DUP1 PUSH1 0x40 MLOAD PUSH2 0x12CB SWAP4 SWAP3 SWAP2 SWAP1 PUSH2 0x964C JUMP JUMPDEST PUSH1 0x40 MLOAD DUP1 SWAP2 SUB SWAP1 LOG1 PUSH2 0x1550 JUMP JUMPDEST PUSH1 0x6 PUSH1 0x7 DUP2 GT ISZERO PUSH2 0x12EC JUMPI PUSH2 0x12EB PUSH2 0xA4C8 JUMP JUMPDEST JUMPDEST PUSH1 0x4 PUSH1 0x0 CALLER PUSH20 0xFFFFFFFFFFFFFFFFFFFFFFFFFFFFFFFFFFFFFFFF AND PUSH20 0xFFFFFFFFFFFFFFFFFFFFFFFFFFFFFFFFFFFFFFFF AND DUP2 MSTORE PUSH1 0x20 ADD SWAP1 DUP2 MSTORE PUSH1 0x20 ADD PUSH1 0x0 KECCAK256 PUSH1 0x0 SWAP1 SLOAD SWAP1 PUSH2 0x100 EXP SWAP1 DIV PUSH1 0xFF AND PUSH1 0x7 DUP2 GT ISZERO PUSH2 0x134B JUMPI PUSH2 0x134A PUSH2 0xA4C8 JUMP JUMPDEST JUMPDEST EQ PUSH2 0x1391 JUMPI PUSH32 0xB2BFA9090D50AD1A62CB284547F85F0E78E3B3DCCA2D82C2ECE1A3E9ABF25266 CALLER PUSH1 0x0 DUP1 PUSH1 0x40 MLOAD PUSH2 0x1384 SWAP4 SWAP3 SWAP2 SWAP1 PUSH2 0x9696 JUMP JUMPDEST PUSH1 0x40 MLOAD DUP1 SWAP2 SUB SWAP1 LOG1 PUSH2 0x154F JUMP JUMPDEST DUP3 PUSH1 0x14 DUP2 MLOAD LT ISZERO PUSH2 0x13DD JUMPI PUSH32 0xB2BFA9090D50AD1A62CB284547F85F0E78E3B3DCCA2D82C2ECE1A3E9ABF25266 CALLER PUSH1 0x0 DUP1 PUSH1 0x40 MLOAD PUSH2 0x13D0 SWAP4 SWAP3 SWAP2 SWAP1 PUSH2 0x99C4 JUMP JUMPDEST PUSH1 0x40 MLOAD DUP1 SWAP2 SUB SWAP1 LOG1 PUSH2 0x154D JUMP JUMPDEST PUSH2 0x154 DUP2 MLOAD GT ISZERO PUSH2 0x1429 JUMPI PUSH32 0xB2BFA9090D50AD1A62CB284547F85F0E78E3B3DCCA2D82C2ECE1A3E9ABF25266 CALLER PUSH1 0x0 DUP1 PUSH1 0x40 MLOAD PUSH2 0x141C SWAP4 SWAP3 SWAP2 SWAP1 PUSH2 0x9852 JUMP JUMPDEST PUSH1 0x40 MLOAD DUP1 SWAP2 SUB SWAP1 LOG1 PUSH2 0x154D JUMP JUMPDEST CALLER PUSH1 0x0 PUSH2 0x1435 DUP3 PUSH2 0x7071 JUMP JUMPDEST SWAP1 POP PUSH1 0x0 DUP2 EQ ISZERO PUSH2 0x1482 JUMPI PUSH32 0xB2BFA9090D50AD1A62CB284547F85F0E78E3B3DCCA2D82C2ECE1A3E9ABF25266 CALLER PUSH1 0x0 DUP1 PUSH1 0x40 MLOAD PUSH2 0x1474 SWAP4 SWAP3 SWAP2 SWAP1 PUSH2 0x997A JUMP JUMPDEST PUSH1 0x40 MLOAD DUP1 SWAP2 SUB SWAP1 LOG1 POP PUSH2 0x154B JUMP JUMPDEST PUSH1 0x0 PUSH2 0x148D CALLER PUSH2 0x7071 JUMP JUMPDEST SWAP1 POP PUSH1 0x0 PUSH1 0x7 DUP3 DUP2 SLOAD DUP2 LT PUSH2 0x14A5 JUMPI PUSH2 0x14A4 PUSH2 0xA526 JUMP JUMPDEST JUMPDEST SWAP1 PUSH1 0x0 MSTORE PUSH1 0x20 PUSH1 0x0 KECCAK256 SWAP1 PUSH1 0x9 MUL ADD SWAP1 POP DUP8 DUP2 PUSH1 0x8 ADD PUSH1 0x0 CALLER PUSH20 0xFFFFFFFFFFFFFFFFFFFFFFFFFFFFFFFFFFFFFFFF AND PUSH20 0xFFFFFFFFFFFFFFFFFFFFFFFFFFFFFFFFFFFFFFFF AND DUP2 MSTORE PUSH1 0x20 ADD SWAP1 DUP2 MSTORE PUSH1 0x20 ADD PUSH1 0x0 KECCAK256 SWAP1 DUP1 MLOAD SWAP1 PUSH1 0x20 ADD SWAP1 PUSH2 0x150A SWAP3 SWAP2 SWAP1 PUSH2 0x7A3B JUMP JUMPDEST POP PUSH32 0xB2BFA9090D50AD1A62CB284547F85F0E78E3B3DCCA2D82C2ECE1A3E9ABF25266 CALLER PUSH1 0x0 DUP5 PUSH1 0x40 MLOAD PUSH2 0x153F SWAP4 SWAP3 SWAP2 SWAP1 PUSH2 0x9C5E JUMP JUMPDEST PUSH1 0x40 MLOAD DUP1 SWAP2 SUB SWAP1 LOG1 POP POP POP JUMPDEST POP JUMPDEST POP JUMPDEST JUMPDEST POP POP POP POP POP JUMP JUMPDEST PUSH1 0x0 PUSH1 0x60 DUP1 PUSH1 0x60 DUP1 PUSH1 0x60 PUSH1 0x0 DUP1 PUSH1 0x60 DUP12 DUP12 PUSH1 0x6 PUSH1 0x7 DUP2 GT ISZERO PUSH2 0x157C JUMPI PUSH2 0x157B PUSH2 0xA4C8 JUMP JUMPDEST JUMPDEST PUSH1 0x4 PUSH1 0x0 CALLER PUSH20 0xFFFFFFFFFFFFFFFFFFFFFFFFFFFFFFFFFFFFFFFF AND PUSH20 0xFFFFFFFFFFFFFFFFFFFFFFFFFFFFFFFFFFFFFFFF AND DUP2 MSTORE PUSH1 0x20 ADD SWAP1 DUP2 MSTORE PUSH1 0x20 ADD PUSH1 0x0 KECCAK256 PUSH1 0x0 SWAP1 SLOAD SWAP1 PUSH2 0x100 EXP SWAP1 DIV PUSH1 0xFF AND PUSH1 0x7 DUP2 GT ISZERO PUSH2 0x15DB JUMPI PUSH2 0x15DA PUSH2 0xA4C8 JUMP JUMPDEST JUMPDEST EQ ISZERO DUP1 ISZERO PUSH2 0x165A JUMPI POP PUSH1 0x5 PUSH1 0x7 DUP2 GT ISZERO PUSH2 0x15F8 JUMPI PUSH2 0x15F7 PUSH2 0xA4C8 JUMP JUMPDEST JUMPDEST PUSH1 0x4 PUSH1 0x0 CALLER PUSH20 0xFFFFFFFFFFFFFFFFFFFFFFFFFFFFFFFFFFFFFFFF AND PUSH20 0xFFFFFFFFFFFFFFFFFFFFFFFFFFFFFFFFFFFFFFFF AND DUP2 MSTORE PUSH1 0x20 ADD SWAP1 DUP2 MSTORE PUSH1 0x20 ADD PUSH1 0x0 KECCAK256 PUSH1 0x0 SWAP1 SLOAD SWAP1 PUSH2 0x100 EXP SWAP1 DIV PUSH1 0xFF AND PUSH1 0x7 DUP2 GT ISZERO PUSH2 0x1657 JUMPI PUSH2 0x1656 PUSH2 0xA4C8 JUMP JUMPDEST JUMPDEST EQ ISZERO JUMPDEST DUP1 ISZERO PUSH2 0x16D6 JUMPI POP PUSH1 0x7 DUP1 DUP2 GT ISZERO PUSH2 0x1674 JUMPI PUSH2 0x1673 PUSH2 0xA4C8 JUMP JUMPDEST JUMPDEST PUSH1 0x4 PUSH1 0x0 CALLER PUSH20 0xFFFFFFFFFFFFFFFFFFFFFFFFFFFFFFFFFFFFFFFF AND PUSH20 0xFFFFFFFFFFFFFFFFFFFFFFFFFFFFFFFFFFFFFFFF AND DUP2 MSTORE PUSH1 0x20 ADD SWAP1 DUP2 MSTORE PUSH1 0x20 ADD PUSH1 0x0 KECCAK256 PUSH1 0x0 SWAP1 SLOAD SWAP1 PUSH2 0x100 EXP SWAP1 DIV PUSH1 0xFF AND PUSH1 0x7 DUP2 GT ISZERO PUSH2 0x16D3 JUMPI PUSH2 0x16D2 PUSH2 0xA4C8 JUMP JUMPDEST JUMPDEST EQ ISZERO JUMPDEST ISZERO PUSH2 0x171C JUMPI PUSH32 0xB2BFA9090D50AD1A62CB284547F85F0E78E3B3DCCA2D82C2ECE1A3E9ABF25266 CALLER PUSH1 0x0 DUP1 PUSH1 0x40 MLOAD PUSH2 0x170F SWAP4 SWAP3 SWAP2 SWAP1 PUSH2 0x9A58 JUMP JUMPDEST PUSH1 0x40 MLOAD DUP1 SWAP2 SUB SWAP1 LOG1 PUSH2 0x1F67 JUMP JUMPDEST DUP2 DUP2 PUSH1 0x40 MLOAD PUSH1 0x20 ADD PUSH2 0x172F SWAP3 SWAP2 SWAP1 PUSH2 0x90AA JUMP JUMPDEST PUSH1 0x40 MLOAD PUSH1 0x20 DUP2 DUP4 SUB SUB DUP2 MSTORE SWAP1 PUSH1 0x40 MSTORE DUP1 MLOAD SWAP1 PUSH1 0x20 ADD KECCAK256 PUSH1 0x0 DUP1 CALLER PUSH20 0xFFFFFFFFFFFFFFFFFFFFFFFFFFFFFFFFFFFFFFFF AND PUSH20 0xFFFFFFFFFFFFFFFFFFFFFFFFFFFFFFFFFFFFFFFF AND DUP2 MSTORE PUSH1 0x20 ADD SWAP1 DUP2 MSTORE PUSH1 0x20 ADD PUSH1 0x0 KECCAK256 PUSH1 0x6 ADD SLOAD EQ DUP1 PUSH2 0x17FC JUMPI POP DUP2 DUP2 PUSH1 0x40 MLOAD PUSH1 0x20 ADD PUSH2 0x17A1 SWAP3 SWAP2 SWAP1 PUSH2 0x90AA JUMP JUMPDEST PUSH1 0x40 MLOAD PUSH1 0x20 DUP2 DUP4 SUB SUB DUP2 MSTORE SWAP1 PUSH1 0x40 MSTORE DUP1 MLOAD SWAP1 PUSH1 0x20 ADD KECCAK256 PUSH1 0x1 PUSH1 0x0 CALLER PUSH20 0xFFFFFFFFFFFFFFFFFFFFFFFFFFFFFFFFFFFFFFFF AND PUSH20 0xFFFFFFFFFFFFFFFFFFFFFFFFFFFFFFFFFFFFFFFF AND DUP2 MSTORE PUSH1 0x20 ADD SWAP1 DUP2 MSTORE PUSH1 0x20 ADD PUSH1 0x0 KECCAK256 PUSH1 0x6 ADD SLOAD EQ JUMPDEST DUP1 PUSH2 0x1870 JUMPI POP DUP2 DUP2 PUSH1 0x40 MLOAD PUSH1 0x20 ADD PUSH2 0x1815 SWAP3 SWAP2 SWAP1 PUSH2 0x90AA JUMP JUMPDEST PUSH1 0x40 MLOAD PUSH1 0x20 DUP2 DUP4 SUB SUB DUP2 MSTORE SWAP1 PUSH1 0x40 MSTORE DUP1 MLOAD SWAP1 PUSH1 0x20 ADD KECCAK256 PUSH1 0x2 PUSH1 0x0 CALLER PUSH20 0xFFFFFFFFFFFFFFFFFFFFFFFFFFFFFFFFFFFFFFFF AND PUSH20 0xFFFFFFFFFFFFFFFFFFFFFFFFFFFFFFFFFFFFFFFF AND DUP2 MSTORE PUSH1 0x20 ADD SWAP1 DUP2 MSTORE PUSH1 0x20 ADD PUSH1 0x0 KECCAK256 PUSH1 0x2 ADD SLOAD EQ JUMPDEST PUSH2 0x18B5 JUMPI PUSH32 0xB2BFA9090D50AD1A62CB284547F85F0E78E3B3DCCA2D82C2ECE1A3E9ABF25266 CALLER PUSH1 0x0 DUP1 PUSH1 0x40 MLOAD PUSH2 0x18A8 SWAP4 SWAP3 SWAP2 SWAP1 PUSH2 0x964C JUMP JUMPDEST PUSH1 0x40 MLOAD DUP1 SWAP2 SUB SWAP1 LOG1 PUSH2 0x1F67 JUMP JUMPDEST PUSH1 0x6 PUSH1 0x7 DUP2 GT ISZERO PUSH2 0x18C9 JUMPI PUSH2 0x18C8 PUSH2 0xA4C8 JUMP JUMPDEST JUMPDEST PUSH1 0x4 PUSH1 0x0 CALLER PUSH20 0xFFFFFFFFFFFFFFFFFFFFFFFFFFFFFFFFFFFFFFFF AND PUSH20 0xFFFFFFFFFFFFFFFFFFFFFFFFFFFFFFFFFFFFFFFF AND DUP2 MSTORE PUSH1 0x20 ADD SWAP1 DUP2 MSTORE PUSH1 0x20 ADD PUSH1 0x0 KECCAK256 PUSH1 0x0 SWAP1 SLOAD SWAP1 PUSH2 0x100 EXP SWAP1 DIV PUSH1 0xFF AND PUSH1 0x7 DUP2 GT ISZERO PUSH2 0x1928 JUMPI PUSH2 0x1927 PUSH2 0xA4C8 JUMP JUMPDEST JUMPDEST EQ PUSH2 0x196E JUMPI PUSH32 0xB2BFA9090D50AD1A62CB284547F85F0E78E3B3DCCA2D82C2ECE1A3E9ABF25266 CALLER PUSH1 0x0 DUP1 PUSH1 0x40 MLOAD PUSH2 0x1961 SWAP4 SWAP3 SWAP2 SWAP1 PUSH2 0x9696 JUMP JUMPDEST PUSH1 0x40 MLOAD DUP1 SWAP2 SUB SWAP1 LOG1 PUSH2 0x1F66 JUMP JUMPDEST PUSH1 0x7 DUP1 SLOAD SWAP1 POP DUP13 LT ISZERO PUSH2 0x1F27 JUMPI PUSH1 0x0 DUP1 JUMPDEST PUSH1 0x6 PUSH1 0x0 CALLER PUSH20 0xFFFFFFFFFFFFFFFFFFFFFFFFFFFFFFFFFFFFFFFF AND PUSH20 0xFFFFFFFFFFFFFFFFFFFFFFFFFFFFFFFFFFFFFFFF AND DUP2 MSTORE PUSH1 0x20 ADD SWAP1 DUP2 MSTORE PUSH1 0x20 ADD PUSH1 0x0 KECCAK256 DUP1 SLOAD SWAP1 POP DUP2 LT ISZERO PUSH2 0x1A4A JUMPI PUSH1 0x0 PUSH1 0x6 PUSH1 0x0 CALLER PUSH20 0xFFFFFFFFFFFFFFFFFFFFFFFFFFFFFFFFFFFFFFFF AND PUSH20 0xFFFFFFFFFFFFFFFFFFFFFFFFFFFFFFFFFFFFFFFF AND DUP2 MSTORE PUSH1 0x20 ADD SWAP1 DUP2 MSTORE PUSH1 0x20 ADD PUSH1 0x0 KECCAK256 DUP3 DUP2 SLOAD DUP2 LT PUSH2 0x1A1C JUMPI PUSH2 0x1A1B PUSH2 0xA526 JUMP JUMPDEST JUMPDEST SWAP1 PUSH1 0x0 MSTORE PUSH1 0x20 PUSH1 0x0 KECCAK256 ADD SLOAD SWAP1 POP DUP15 DUP2 EQ ISZERO PUSH2 0x1A36 JUMPI PUSH1 0x1 SWAP3 POP JUMPDEST POP DUP1 DUP1 PUSH2 0x1A42 SWAP1 PUSH2 0xA450 JUMP JUMPDEST SWAP2 POP POP PUSH2 0x197F JUMP JUMPDEST POP DUP1 ISZERO PUSH2 0x1EE5 JUMPI PUSH1 0x0 PUSH1 0x7 DUP15 DUP2 SLOAD DUP2 LT PUSH2 0x1A67 JUMPI PUSH2 0x1A66 PUSH2 0xA526 JUMP JUMPDEST JUMPDEST SWAP1 PUSH1 0x0 MSTORE PUSH1 0x20 PUSH1 0x0 KECCAK256 SWAP1 PUSH1 0x9 MUL ADD SWAP1 POP DUP1 PUSH1 0x7 ADD PUSH1 0x0 CALLER PUSH20 0xFFFFFFFFFFFFFFFFFFFFFFFFFFFFFFFFFFFFFFFF AND PUSH20 0xFFFFFFFFFFFFFFFFFFFFFFFFFFFFFFFFFFFFFFFF AND DUP2 MSTORE PUSH1 0x20 ADD SWAP1 DUP2 MSTORE PUSH1 0x20 ADD PUSH1 0x0 KECCAK256 DUP1 SLOAD DUP1 PUSH1 0x20 MUL PUSH1 0x20 ADD PUSH1 0x40 MLOAD SWAP1 DUP2 ADD PUSH1 0x40 MSTORE DUP1 SWAP3 SWAP2 SWAP1 DUP2 DUP2 MSTORE PUSH1 0x20 ADD PUSH1 0x0 SWAP1 JUMPDEST DUP3 DUP3 LT ISZERO PUSH2 0x1B84 JUMPI DUP4 DUP3 SWAP1 PUSH1 0x0 MSTORE PUSH1 0x20 PUSH1 0x0 KECCAK256 ADD DUP1 SLOAD PUSH2 0x1AF7 SWAP1 PUSH2 0xA3ED JUMP JUMPDEST DUP1 PUSH1 0x1F ADD PUSH1 0x20 DUP1 SWAP2 DIV MUL PUSH1 0x20 ADD PUSH1 0x40 MLOAD SWAP1 DUP2 ADD PUSH1 0x40 MSTORE DUP1 SWAP3 SWAP2 SWAP1 DUP2 DUP2 MSTORE PUSH1 0x20 ADD DUP3 DUP1 SLOAD PUSH2 0x1B23 SWAP1 PUSH2 0xA3ED JUMP JUMPDEST DUP1 ISZERO PUSH2 0x1B70 JUMPI DUP1 PUSH1 0x1F LT PUSH2 0x1B45 JUMPI PUSH2 0x100 DUP1 DUP4 SLOAD DIV MUL DUP4 MSTORE SWAP2 PUSH1 0x20 ADD SWAP2 PUSH2 0x1B70 JUMP JUMPDEST DUP3 ADD SWAP2 SWAP1 PUSH1 0x0 MSTORE PUSH1 0x20 PUSH1 0x0 KECCAK256 SWAP1 JUMPDEST DUP2 SLOAD DUP2 MSTORE SWAP1 PUSH1 0x1 ADD SWAP1 PUSH1 0x20 ADD DUP1 DUP4 GT PUSH2 0x1B53 JUMPI DUP3 SWAP1 SUB PUSH1 0x1F AND DUP3 ADD SWAP2 JUMPDEST POP POP POP POP POP DUP2 MSTORE PUSH1 0x20 ADD SWAP1 PUSH1 0x1 ADD SWAP1 PUSH2 0x1AD8 JUMP JUMPDEST POP POP POP POP SWAP10 POP DUP1 PUSH1 0x8 ADD PUSH1 0x0 CALLER PUSH20 0xFFFFFFFFFFFFFFFFFFFFFFFFFFFFFFFFFFFFFFFF AND PUSH20 0xFFFFFFFFFFFFFFFFFFFFFFFFFFFFFFFFFFFFFFFF AND DUP2 MSTORE PUSH1 0x20 ADD SWAP1 DUP2 MSTORE PUSH1 0x20 ADD PUSH1 0x0 KECCAK256 DUP1 SLOAD PUSH2 0x1BD6 SWAP1 PUSH2 0xA3ED JUMP JUMPDEST DUP1 PUSH1 0x1F ADD PUSH1 0x20 DUP1 SWAP2 DIV MUL PUSH1 0x20 ADD PUSH1 0x40 MLOAD SWAP1 DUP2 ADD PUSH1 0x40 MSTORE DUP1 SWAP3 SWAP2 SWAP1 DUP2 DUP2 MSTORE PUSH1 0x20 ADD DUP3 DUP1 SLOAD PUSH2 0x1C02 SWAP1 PUSH2 0xA3ED JUMP JUMPDEST DUP1 ISZERO PUSH2 0x1C4F JUMPI DUP1 PUSH1 0x1F LT PUSH2 0x1C24 JUMPI PUSH2 0x100 DUP1 DUP4 SLOAD DIV MUL DUP4 MSTORE SWAP2 PUSH1 0x20 ADD SWAP2 PUSH2 0x1C4F JUMP JUMPDEST DUP3 ADD SWAP2 SWAP1 PUSH1 0x0 MSTORE PUSH1 0x20 PUSH1 0x0 KECCAK256 SWAP1 JUMPDEST DUP2 SLOAD DUP2 MSTORE SWAP1 PUSH1 0x1 ADD SWAP1 PUSH1 0x20 ADD DUP1 DUP4 GT PUSH2 0x1C32 JUMPI DUP3 SWAP1 SUB PUSH1 0x1F AND DUP3 ADD SWAP2 JUMPDEST POP POP POP POP POP SWAP9 POP DUP1 PUSH1 0x6 ADD PUSH1 0x0 SWAP1 SLOAD SWAP1 PUSH2 0x100 EXP SWAP1 DIV PUSH1 0xFF AND DUP2 PUSH1 0x0 ADD DUP3 PUSH1 0x1 ADD DUP13 DUP13 DUP6 PUSH1 0x3 ADD DUP7 PUSH1 0x2 ADD PUSH1 0x0 SWAP1 SLOAD SWAP1 PUSH2 0x100 EXP SWAP1 DIV PUSH20 0xFFFFFFFFFFFFFFFFFFFFFFFFFFFFFFFFFFFFFFFF AND DUP8 PUSH1 0x4 ADD PUSH1 0x0 SWAP1 SLOAD SWAP1 PUSH2 0x100 EXP SWAP1 DIV PUSH2 0xFFFF AND DUP9 PUSH1 0x5 ADD DUP8 DUP1 SLOAD PUSH2 0x1CBE SWAP1 PUSH2 0xA3ED JUMP JUMPDEST DUP1 PUSH1 0x1F ADD PUSH1 0x20 DUP1 SWAP2 DIV MUL PUSH1 0x20 ADD PUSH1 0x40 MLOAD SWAP1 DUP2 ADD PUSH1 0x40 MSTORE DUP1 SWAP3 SWAP2 SWAP1 DUP2 DUP2 MSTORE PUSH1 0x20 ADD DUP3 DUP1 SLOAD PUSH2 0x1CEA SWAP1 PUSH2 0xA3ED JUMP JUMPDEST DUP1 ISZERO PUSH2 0x1D37 JUMPI DUP1 PUSH1 0x1F LT PUSH2 0x1D0C JUMPI PUSH2 0x100 DUP1 DUP4 SLOAD DIV MUL DUP4 MSTORE SWAP2 PUSH1 0x20 ADD SWAP2 PUSH2 0x1D37 JUMP JUMPDEST DUP3 ADD SWAP2 SWAP1 PUSH1 0x0 MSTORE PUSH1 0x20 PUSH1 0x0 KECCAK256 SWAP1 JUMPDEST DUP2 SLOAD DUP2 MSTORE SWAP1 PUSH1 0x1 ADD SWAP1 PUSH1 0x20 ADD DUP1 DUP4 GT PUSH2 0x1D1A JUMPI DUP3 SWAP1 SUB PUSH1 0x1F AND DUP3 ADD SWAP2 JUMPDEST POP POP POP POP POP SWAP8 POP DUP7 DUP1 SLOAD PUSH2 0x1D4A SWAP1 PUSH2 0xA3ED JUMP JUMPDEST DUP1 PUSH1 0x1F ADD PUSH1 0x20 DUP1 SWAP2 DIV MUL PUSH1 0x20 ADD PUSH1 0x40 MLOAD SWAP1 DUP2 ADD PUSH1 0x40 MSTORE DUP1 SWAP3 SWAP2 SWAP1 DUP2 DUP2 MSTORE PUSH1 0x20 ADD DUP3 DUP1 SLOAD PUSH2 0x1D76 SWAP1 PUSH2 0xA3ED JUMP JUMPDEST DUP1 ISZERO PUSH2 0x1DC3 JUMPI DUP1 PUSH1 0x1F LT PUSH2 0x1D98 JUMPI PUSH2 0x100 DUP1 DUP4 SLOAD DIV MUL DUP4 MSTORE SWAP2 PUSH1 0x20 ADD SWAP2 PUSH2 0x1DC3 JUMP JUMPDEST DUP3 ADD SWAP2 SWAP1 PUSH1 0x0 MSTORE PUSH1 0x20 PUSH1 0x0 KECCAK256 SWAP1 JUMPDEST DUP2 SLOAD DUP2 MSTORE SWAP1 PUSH1 0x1 ADD SWAP1 PUSH1 0x20 ADD DUP1 DUP4 GT PUSH2 0x1DA6 JUMPI DUP3 SWAP1 SUB PUSH1 0x1F AND DUP3 ADD SWAP2 JUMPDEST POP POP POP POP POP SWAP7 POP DUP4 DUP1 SLOAD DUP1 PUSH1 0x20 MUL PUSH1 0x20 ADD PUSH1 0x40 MLOAD SWAP1 DUP2 ADD PUSH1 0x40 MSTORE DUP1 SWAP3 SWAP2 SWAP1 DUP2 DUP2 MSTORE PUSH1 0x20 ADD DUP3 DUP1 SLOAD DUP1 ISZERO PUSH2 0x1E4B JUMPI PUSH1 0x20 MUL DUP3 ADD SWAP2 SWAP1 PUSH1 0x0 MSTORE PUSH1 0x20 PUSH1 0x0 KECCAK256 SWAP1 JUMPDEST DUP2 PUSH1 0x0 SWAP1 SLOAD SWAP1 PUSH2 0x100 EXP SWAP1 DIV PUSH20 0xFFFFFFFFFFFFFFFFFFFFFFFFFFFFFFFFFFFFFFFF AND PUSH20 0xFFFFFFFFFFFFFFFFFFFFFFFFFFFFFFFFFFFFFFFF AND DUP2 MSTORE PUSH1 0x20 ADD SWAP1 PUSH1 0x1 ADD SWAP1 DUP1 DUP4 GT PUSH2 0x1E01 JUMPI JUMPDEST POP POP POP POP POP SWAP4 POP DUP1 DUP1 SLOAD DUP1 PUSH1 0x20 MUL PUSH1 0x20 ADD PUSH1 0x40 MLOAD SWAP1 DUP2 ADD PUSH1 0x40 MSTORE DUP1 SWAP3 SWAP2 SWAP1 DUP2 DUP2 MSTORE PUSH1 0x20 ADD DUP3 DUP1 SLOAD DUP1 ISZERO PUSH2 0x1EC5 JUMPI PUSH1 0x20 MUL DUP3 ADD SWAP2 SWAP1 PUSH1 0x0 MSTORE PUSH1 0x20 PUSH1 0x0 KECCAK256 SWAP1 PUSH1 0x0 SWAP1 JUMPDEST DUP3 DUP3 SWAP1 SLOAD SWAP1 PUSH2 0x100 EXP SWAP1 DIV PUSH2 0xFFFF AND PUSH2 0xFFFF AND DUP2 MSTORE PUSH1 0x20 ADD SWAP1 PUSH1 0x2 ADD SWAP1 PUSH1 0x20 DUP3 PUSH1 0x1 ADD DIV SWAP3 DUP4 ADD SWAP3 PUSH1 0x1 SUB DUP3 MUL SWAP2 POP DUP1 DUP5 GT PUSH2 0x1E8C JUMPI SWAP1 POP JUMPDEST POP POP POP POP POP SWAP1 POP SWAP13 POP SWAP13 POP SWAP13 POP SWAP13 POP SWAP13 POP SWAP13 POP SWAP13 POP SWAP13 POP SWAP13 POP POP POP PUSH2 0x1F65 JUMP JUMPDEST PUSH32 0xB2BFA9090D50AD1A62CB284547F85F0E78E3B3DCCA2D82C2ECE1A3E9ABF25266 CALLER PUSH1 0x0 DUP1 PUSH1 0x40 MLOAD PUSH2 0x1F19 SWAP4 SWAP3 SWAP2 SWAP1 PUSH2 0x9B36 JUMP JUMPDEST PUSH1 0x40 MLOAD DUP1 SWAP2 SUB SWAP1 LOG1 POP PUSH2 0x1F64 JUMP JUMPDEST PUSH32 0xB2BFA9090D50AD1A62CB284547F85F0E78E3B3DCCA2D82C2ECE1A3E9ABF25266 CALLER PUSH1 0x0 DUP1 PUSH1 0x40 MLOAD PUSH2 0x1F5B SWAP4 SWAP3 SWAP2 SWAP1 PUSH2 0x989C JUMP JUMPDEST PUSH1 0x40 MLOAD DUP1 SWAP2 SUB SWAP1 LOG1 JUMPDEST JUMPDEST JUMPDEST JUMPDEST POP POP SWAP4 SWAP8 SWAP12 SWAP3 SWAP7 SWAP11 POP SWAP4 SWAP8 POP SWAP4 SWAP8 POP JUMP JUMPDEST DUP4 DUP4 PUSH1 0x6 PUSH1 0x7 DUP2 GT ISZERO PUSH2 0x1F8E JUMPI PUSH2 0x1F8D PUSH2 0xA4C8 JUMP JUMPDEST JUMPDEST PUSH1 0x4 PUSH1 0x0 CALLER PUSH20 0xFFFFFFFFFFFFFFFFFFFFFFFFFFFFFFFFFFFFFFFF AND PUSH20 0xFFFFFFFFFFFFFFFFFFFFFFFFFFFFFFFFFFFFFFFF AND DUP2 MSTORE PUSH1 0x20 ADD SWAP1 DUP2 MSTORE PUSH1 0x20 ADD PUSH1 0x0 KECCAK256 PUSH1 0x0 SWAP1 SLOAD SWAP1 PUSH2 0x100 EXP SWAP1 DIV PUSH1 0xFF AND PUSH1 0x7 DUP2 GT ISZERO PUSH2 0x1FED JUMPI PUSH2 0x1FEC PUSH2 0xA4C8 JUMP JUMPDEST JUMPDEST EQ ISZERO DUP1 ISZERO PUSH2 0x206C JUMPI POP PUSH1 0x5 PUSH1 0x7 DUP2 GT ISZERO PUSH2 0x200A JUMPI PUSH2 0x2009 PUSH2 0xA4C8 JUMP JUMPDEST JUMPDEST PUSH1 0x4 PUSH1 0x0 CALLER PUSH20 0xFFFFFFFFFFFFFFFFFFFFFFFFFFFFFFFFFFFFFFFF AND PUSH20 0xFFFFFFFFFFFFFFFFFFFFFFFFFFFFFFFFFFFFFFFF AND DUP2 MSTORE PUSH1 0x20 ADD SWAP1 DUP2 MSTORE PUSH1 0x20 ADD PUSH1 0x0 KECCAK256 PUSH1 0x0 SWAP1 SLOAD SWAP1 PUSH2 0x100 EXP SWAP1 DIV PUSH1 0xFF AND PUSH1 0x7 DUP2 GT ISZERO PUSH2 0x2069 JUMPI PUSH2 0x2068 PUSH2 0xA4C8 JUMP JUMPDEST JUMPDEST EQ ISZERO JUMPDEST DUP1 ISZERO PUSH2 0x20E8 JUMPI POP PUSH1 0x7 DUP1 DUP2 GT ISZERO PUSH2 0x2086 JUMPI PUSH2 0x2085 PUSH2 0xA4C8 JUMP JUMPDEST JUMPDEST PUSH1 0x4 PUSH1 0x0 CALLER PUSH20 0xFFFFFFFFFFFFFFFFFFFFFFFFFFFFFFFFFFFFFFFF AND PUSH20 0xFFFFFFFFFFFFFFFFFFFFFFFFFFFFFFFFFFFFFFFF AND DUP2 MSTORE PUSH1 0x20 ADD SWAP1 DUP2 MSTORE PUSH1 0x20 ADD PUSH1 0x0 KECCAK256 PUSH1 0x0 SWAP1 SLOAD SWAP1 PUSH2 0x100 EXP SWAP1 DIV PUSH1 0xFF AND PUSH1 0x7 DUP2 GT ISZERO PUSH2 0x20E5 JUMPI PUSH2 0x20E4 PUSH2 0xA4C8 JUMP JUMPDEST JUMPDEST EQ ISZERO JUMPDEST ISZERO PUSH2 0x212E JUMPI PUSH32 0xB2BFA9090D50AD1A62CB284547F85F0E78E3B3DCCA2D82C2ECE1A3E9ABF25266 CALLER PUSH1 0x0 DUP1 PUSH1 0x40 MLOAD PUSH2 0x2121 SWAP4 SWAP3 SWAP2 SWAP1 PUSH2 0x9A58 JUMP JUMPDEST PUSH1 0x40 MLOAD DUP1 SWAP2 SUB SWAP1 LOG1 PUSH2 0x2591 JUMP JUMPDEST DUP2 DUP2 PUSH1 0x40 MLOAD PUSH1 0x20 ADD PUSH2 0x2141 SWAP3 SWAP2 SWAP1 PUSH2 0x90AA JUMP JUMPDEST PUSH1 0x40 MLOAD PUSH1 0x20 DUP2 DUP4 SUB SUB DUP2 MSTORE SWAP1 PUSH1 0x40 MSTORE DUP1 MLOAD SWAP1 PUSH1 0x20 ADD KECCAK256 PUSH1 0x0 DUP1 CALLER PUSH20 0xFFFFFFFFFFFFFFFFFFFFFFFFFFFFFFFFFFFFFFFF AND PUSH20 0xFFFFFFFFFFFFFFFFFFFFFFFFFFFFFFFFFFFFFFFF AND DUP2 MSTORE PUSH1 0x20 ADD SWAP1 DUP2 MSTORE PUSH1 0x20 ADD PUSH1 0x0 KECCAK256 PUSH1 0x6 ADD SLOAD EQ DUP1 PUSH2 0x220E JUMPI POP DUP2 DUP2 PUSH1 0x40 MLOAD PUSH1 0x20 ADD PUSH2 0x21B3 SWAP3 SWAP2 SWAP1 PUSH2 0x90AA JUMP JUMPDEST PUSH1 0x40 MLOAD PUSH1 0x20 DUP2 DUP4 SUB SUB DUP2 MSTORE SWAP1 PUSH1 0x40 MSTORE DUP1 MLOAD SWAP1 PUSH1 0x20 ADD KECCAK256 PUSH1 0x1 PUSH1 0x0 CALLER PUSH20 0xFFFFFFFFFFFFFFFFFFFFFFFFFFFFFFFFFFFFFFFF AND PUSH20 0xFFFFFFFFFFFFFFFFFFFFFFFFFFFFFFFFFFFFFFFF AND DUP2 MSTORE PUSH1 0x20 ADD SWAP1 DUP2 MSTORE PUSH1 0x20 ADD PUSH1 0x0 KECCAK256 PUSH1 0x6 ADD SLOAD EQ JUMPDEST DUP1 PUSH2 0x2282 JUMPI POP DUP2 DUP2 PUSH1 0x40 MLOAD PUSH1 0x20 ADD PUSH2 0x2227 SWAP3 SWAP2 SWAP1 PUSH2 0x90AA JUMP JUMPDEST PUSH1 0x40 MLOAD PUSH1 0x20 DUP2 DUP4 SUB SUB DUP2 MSTORE SWAP1 PUSH1 0x40 MSTORE DUP1 MLOAD SWAP1 PUSH1 0x20 ADD KECCAK256 PUSH1 0x2 PUSH1 0x0 CALLER PUSH20 0xFFFFFFFFFFFFFFFFFFFFFFFFFFFFFFFFFFFFFFFF AND PUSH20 0xFFFFFFFFFFFFFFFFFFFFFFFFFFFFFFFFFFFFFFFF AND DUP2 MSTORE PUSH1 0x20 ADD SWAP1 DUP2 MSTORE PUSH1 0x20 ADD PUSH1 0x0 KECCAK256 PUSH1 0x2 ADD SLOAD EQ JUMPDEST PUSH2 0x22C7 JUMPI PUSH32 0xB2BFA9090D50AD1A62CB284547F85F0E78E3B3DCCA2D82C2ECE1A3E9ABF25266 CALLER PUSH1 0x0 DUP1 PUSH1 0x40 MLOAD PUSH2 0x22BA SWAP4 SWAP3 SWAP2 SWAP1 PUSH2 0x964C JUMP JUMPDEST PUSH1 0x40 MLOAD DUP1 SWAP2 SUB SWAP1 LOG1 PUSH2 0x2591 JUMP JUMPDEST PUSH1 0x5 PUSH1 0x7 DUP2 GT ISZERO PUSH2 0x22DB JUMPI PUSH2 0x22DA PUSH2 0xA4C8 JUMP JUMPDEST JUMPDEST PUSH1 0x4 PUSH1 0x0 CALLER PUSH20 0xFFFFFFFFFFFFFFFFFFFFFFFFFFFFFFFFFFFFFFFF AND PUSH20 0xFFFFFFFFFFFFFFFFFFFFFFFFFFFFFFFFFFFFFFFF AND DUP2 MSTORE PUSH1 0x20 ADD SWAP1 DUP2 MSTORE PUSH1 0x20 ADD PUSH1 0x0 KECCAK256 PUSH1 0x0 SWAP1 SLOAD SWAP1 PUSH2 0x100 EXP SWAP1 DIV PUSH1 0xFF AND PUSH1 0x7 DUP2 GT ISZERO PUSH2 0x233A JUMPI PUSH2 0x2339 PUSH2 0xA4C8 JUMP JUMPDEST JUMPDEST EQ PUSH2 0x2380 JUMPI PUSH32 0xB2BFA9090D50AD1A62CB284547F85F0E78E3B3DCCA2D82C2ECE1A3E9ABF25266 CALLER PUSH1 0x0 DUP1 PUSH1 0x40 MLOAD PUSH2 0x2373 SWAP4 SWAP3 SWAP2 SWAP1 PUSH2 0x9162 JUMP JUMPDEST PUSH1 0x40 MLOAD DUP1 SWAP2 SUB SWAP1 LOG1 PUSH2 0x2590 JUMP JUMPDEST PUSH1 0x0 PUSH1 0x5 DUP5 PUSH1 0x40 MLOAD PUSH2 0x2392 SWAP2 SWAP1 PUSH2 0x9093 JUMP JUMPDEST SWAP1 DUP2 MSTORE PUSH1 0x20 ADD PUSH1 0x40 MLOAD DUP1 SWAP2 SUB SWAP1 KECCAK256 PUSH1 0x0 SWAP1 SLOAD SWAP1 PUSH2 0x100 EXP SWAP1 DIV PUSH20 0xFFFFFFFFFFFFFFFFFFFFFFFFFFFFFFFFFFFFFFFF AND SWAP1 POP PUSH1 0x6 PUSH1 0x7 DUP2 GT ISZERO PUSH2 0x23D7 JUMPI PUSH2 0x23D6 PUSH2 0xA4C8 JUMP JUMPDEST JUMPDEST PUSH1 0x4 PUSH1 0x0 DUP4 PUSH20 0xFFFFFFFFFFFFFFFFFFFFFFFFFFFFFFFFFFFFFFFF AND PUSH20 0xFFFFFFFFFFFFFFFFFFFFFFFFFFFFFFFFFFFFFFFF AND DUP2 MSTORE PUSH1 0x20 ADD SWAP1 DUP2 MSTORE PUSH1 0x20 ADD PUSH1 0x0 KECCAK256 PUSH1 0x0 SWAP1 SLOAD SWAP1 PUSH2 0x100 EXP SWAP1 DIV PUSH1 0xFF AND PUSH1 0x7 DUP2 GT ISZERO PUSH2 0x2436 JUMPI PUSH2 0x2435 PUSH2 0xA4C8 JUMP JUMPDEST JUMPDEST EQ ISZERO PUSH2 0x2551 JUMPI PUSH1 0x7 DUP1 SLOAD SWAP1 POP DUP6 LT ISZERO PUSH2 0x250F JUMPI PUSH1 0x7 DUP6 DUP2 SLOAD DUP2 LT PUSH2 0x245D JUMPI PUSH2 0x245C PUSH2 0xA526 JUMP JUMPDEST JUMPDEST SWAP1 PUSH1 0x0 MSTORE PUSH1 0x20 PUSH1 0x0 KECCAK256 SWAP1 PUSH1 0x9 MUL ADD PUSH1 0x3 ADD DUP2 SWAP1 DUP1 PUSH1 0x1 DUP2 SLOAD ADD DUP1 DUP3 SSTORE DUP1 SWAP2 POP POP PUSH1 0x1 SWAP1 SUB SWAP1 PUSH1 0x0 MSTORE PUSH1 0x20 PUSH1 0x0 KECCAK256 ADD PUSH1 0x0 SWAP1 SWAP2 SWAP1 SWAP2 SWAP1 SWAP2 PUSH2 0x100 EXP DUP2 SLOAD DUP2 PUSH20 0xFFFFFFFFFFFFFFFFFFFFFFFFFFFFFFFFFFFFFFFF MUL NOT AND SWAP1 DUP4 PUSH20 0xFFFFFFFFFFFFFFFFFFFFFFFFFFFFFFFFFFFFFFFF AND MUL OR SWAP1 SSTORE POP PUSH32 0xB2BFA9090D50AD1A62CB284547F85F0E78E3B3DCCA2D82C2ECE1A3E9ABF25266 CALLER DUP3 DUP8 PUSH1 0x40 MLOAD PUSH2 0x2502 SWAP4 SWAP3 SWAP2 SWAP1 PUSH2 0x9CF2 JUMP JUMPDEST PUSH1 0x40 MLOAD DUP1 SWAP2 SUB SWAP1 LOG1 PUSH2 0x254C JUMP JUMPDEST PUSH32 0xB2BFA9090D50AD1A62CB284547F85F0E78E3B3DCCA2D82C2ECE1A3E9ABF25266 CALLER PUSH1 0x0 DUP8 PUSH1 0x40 MLOAD PUSH2 0x2543 SWAP4 SWAP3 SWAP2 SWAP1 PUSH2 0x9D86 JUMP JUMPDEST PUSH1 0x40 MLOAD DUP1 SWAP2 SUB SWAP1 LOG1 JUMPDEST PUSH2 0x258E JUMP JUMPDEST PUSH32 0xB2BFA9090D50AD1A62CB284547F85F0E78E3B3DCCA2D82C2ECE1A3E9ABF25266 CALLER PUSH1 0x0 DUP8 PUSH1 0x40 MLOAD PUSH2 0x2585 SWAP4 SWAP3 SWAP2 SWAP1 PUSH2 0x9D3C JUMP JUMPDEST PUSH1 0x40 MLOAD DUP1 SWAP2 SUB SWAP1 LOG1 JUMPDEST POP JUMPDEST JUMPDEST POP POP POP POP POP POP JUMP JUMPDEST DUP4 DUP4 PUSH1 0x6 PUSH1 0x7 DUP2 GT ISZERO PUSH2 0x25AF JUMPI PUSH2 0x25AE PUSH2 0xA4C8 JUMP JUMPDEST JUMPDEST PUSH1 0x4 PUSH1 0x0 CALLER PUSH20 0xFFFFFFFFFFFFFFFFFFFFFFFFFFFFFFFFFFFFFFFF AND PUSH20 0xFFFFFFFFFFFFFFFFFFFFFFFFFFFFFFFFFFFFFFFF AND DUP2 MSTORE PUSH1 0x20 ADD SWAP1 DUP2 MSTORE PUSH1 0x20 ADD PUSH1 0x0 KECCAK256 PUSH1 0x0 SWAP1 SLOAD SWAP1 PUSH2 0x100 EXP SWAP1 DIV PUSH1 0xFF AND PUSH1 0x7 DUP2 GT ISZERO PUSH2 0x260E JUMPI PUSH2 0x260D PUSH2 0xA4C8 JUMP JUMPDEST JUMPDEST EQ ISZERO DUP1 ISZERO PUSH2 0x268D JUMPI POP PUSH1 0x5 PUSH1 0x7 DUP2 GT ISZERO PUSH2 0x262B JUMPI PUSH2 0x262A PUSH2 0xA4C8 JUMP JUMPDEST JUMPDEST PUSH1 0x4 PUSH1 0x0 CALLER PUSH20 0xFFFFFFFFFFFFFFFFFFFFFFFFFFFFFFFFFFFFFFFF AND PUSH20 0xFFFFFFFFFFFFFFFFFFFFFFFFFFFFFFFFFFFFFFFF AND DUP2 MSTORE PUSH1 0x20 ADD SWAP1 DUP2 MSTORE PUSH1 0x20 ADD PUSH1 0x0 KECCAK256 PUSH1 0x0 SWAP1 SLOAD SWAP1 PUSH2 0x100 EXP SWAP1 DIV PUSH1 0xFF AND PUSH1 0x7 DUP2 GT ISZERO PUSH2 0x268A JUMPI PUSH2 0x2689 PUSH2 0xA4C8 JUMP JUMPDEST JUMPDEST EQ ISZERO JUMPDEST DUP1 ISZERO PUSH2 0x2709 JUMPI POP PUSH1 0x7 DUP1 DUP2 GT ISZERO PUSH2 0x26A7 JUMPI PUSH2 0x26A6 PUSH2 0xA4C8 JUMP JUMPDEST JUMPDEST PUSH1 0x4 PUSH1 0x0 CALLER PUSH20 0xFFFFFFFFFFFFFFFFFFFFFFFFFFFFFFFFFFFFFFFF AND PUSH20 0xFFFFFFFFFFFFFFFFFFFFFFFFFFFFFFFFFFFFFFFF AND DUP2 MSTORE PUSH1 0x20 ADD SWAP1 DUP2 MSTORE PUSH1 0x20 ADD PUSH1 0x0 KECCAK256 PUSH1 0x0 SWAP1 SLOAD SWAP1 PUSH2 0x100 EXP SWAP1 DIV PUSH1 0xFF AND PUSH1 0x7 DUP2 GT ISZERO PUSH2 0x2706 JUMPI PUSH2 0x2705 PUSH2 0xA4C8 JUMP JUMPDEST JUMPDEST EQ ISZERO JUMPDEST ISZERO PUSH2 0x274F JUMPI PUSH32 0xB2BFA9090D50AD1A62CB284547F85F0E78E3B3DCCA2D82C2ECE1A3E9ABF25266 CALLER PUSH1 0x0 DUP1 PUSH1 0x40 MLOAD PUSH2 0x2742 SWAP4 SWAP3 SWAP2 SWAP1 PUSH2 0x9A58 JUMP JUMPDEST PUSH1 0x40 MLOAD DUP1 SWAP2 SUB SWAP1 LOG1 PUSH2 0x29BF JUMP JUMPDEST DUP2 DUP2 PUSH1 0x40 MLOAD PUSH1 0x20 ADD PUSH2 0x2762 SWAP3 SWAP2 SWAP1 PUSH2 0x90AA JUMP JUMPDEST PUSH1 0x40 MLOAD PUSH1 0x20 DUP2 DUP4 SUB SUB DUP2 MSTORE SWAP1 PUSH1 0x40 MSTORE DUP1 MLOAD SWAP1 PUSH1 0x20 ADD KECCAK256 PUSH1 0x0 DUP1 CALLER PUSH20 0xFFFFFFFFFFFFFFFFFFFFFFFFFFFFFFFFFFFFFFFF AND PUSH20 0xFFFFFFFFFFFFFFFFFFFFFFFFFFFFFFFFFFFFFFFF AND DUP2 MSTORE PUSH1 0x20 ADD SWAP1 DUP2 MSTORE PUSH1 0x20 ADD PUSH1 0x0 KECCAK256 PUSH1 0x6 ADD SLOAD EQ DUP1 PUSH2 0x282F JUMPI POP DUP2 DUP2 PUSH1 0x40 MLOAD PUSH1 0x20 ADD PUSH2 0x27D4 SWAP3 SWAP2 SWAP1 PUSH2 0x90AA JUMP JUMPDEST PUSH1 0x40 MLOAD PUSH1 0x20 DUP2 DUP4 SUB SUB DUP2 MSTORE SWAP1 PUSH1 0x40 MSTORE DUP1 MLOAD SWAP1 PUSH1 0x20 ADD KECCAK256 PUSH1 0x1 PUSH1 0x0 CALLER PUSH20 0xFFFFFFFFFFFFFFFFFFFFFFFFFFFFFFFFFFFFFFFF AND PUSH20 0xFFFFFFFFFFFFFFFFFFFFFFFFFFFFFFFFFFFFFFFF AND DUP2 MSTORE PUSH1 0x20 ADD SWAP1 DUP2 MSTORE PUSH1 0x20 ADD PUSH1 0x0 KECCAK256 PUSH1 0x6 ADD SLOAD EQ JUMPDEST DUP1 PUSH2 0x28A3 JUMPI POP DUP2 DUP2 PUSH1 0x40 MLOAD PUSH1 0x20 ADD PUSH2 0x2848 SWAP3 SWAP2 SWAP1 PUSH2 0x90AA JUMP JUMPDEST PUSH1 0x40 MLOAD PUSH1 0x20 DUP2 DUP4 SUB SUB DUP2 MSTORE SWAP1 PUSH1 0x40 MSTORE DUP1 MLOAD SWAP1 PUSH1 0x20 ADD KECCAK256 PUSH1 0x2 PUSH1 0x0 CALLER PUSH20 0xFFFFFFFFFFFFFFFFFFFFFFFFFFFFFFFFFFFFFFFF AND PUSH20 0xFFFFFFFFFFFFFFFFFFFFFFFFFFFFFFFFFFFFFFFF AND DUP2 MSTORE PUSH1 0x20 ADD SWAP1 DUP2 MSTORE PUSH1 0x20 ADD PUSH1 0x0 KECCAK256 PUSH1 0x2 ADD SLOAD EQ JUMPDEST PUSH2 0x28E8 JUMPI PUSH32 0xB2BFA9090D50AD1A62CB284547F85F0E78E3B3DCCA2D82C2ECE1A3E9ABF25266 CALLER PUSH1 0x0 DUP1 PUSH1 0x40 MLOAD PUSH2 0x28DB SWAP4 SWAP3 SWAP2 SWAP1 PUSH2 0x964C JUMP JUMPDEST PUSH1 0x40 MLOAD DUP1 SWAP2 SUB SWAP1 LOG1 PUSH2 0x29BF JUMP JUMPDEST PUSH1 0x5 PUSH1 0x7 DUP2 GT ISZERO PUSH2 0x28FC JUMPI PUSH2 0x28FB PUSH2 0xA4C8 JUMP JUMPDEST JUMPDEST PUSH1 0x4 PUSH1 0x0 CALLER PUSH20 0xFFFFFFFFFFFFFFFFFFFFFFFFFFFFFFFFFFFFFFFF AND PUSH20 0xFFFFFFFFFFFFFFFFFFFFFFFFFFFFFFFFFFFFFFFF AND DUP2 MSTORE PUSH1 0x20 ADD SWAP1 DUP2 MSTORE PUSH1 0x20 ADD PUSH1 0x0 KECCAK256 PUSH1 0x0 SWAP1 SLOAD SWAP1 PUSH2 0x100 EXP SWAP1 DIV PUSH1 0xFF AND PUSH1 0x7 DUP2 GT ISZERO PUSH2 0x295B JUMPI PUSH2 0x295A PUSH2 0xA4C8 JUMP JUMPDEST JUMPDEST EQ PUSH2 0x29A1 JUMPI PUSH32 0xB2BFA9090D50AD1A62CB284547F85F0E78E3B3DCCA2D82C2ECE1A3E9ABF25266 CALLER PUSH1 0x0 DUP1 PUSH1 0x40 MLOAD PUSH2 0x2994 SWAP4 SWAP3 SWAP2 SWAP1 PUSH2 0x9162 JUMP JUMPDEST PUSH1 0x40 MLOAD DUP1 SWAP2 SUB SWAP1 LOG1 PUSH2 0x29BE JUMP JUMPDEST PUSH2 0x29AB DUP5 DUP5 PUSH2 0x71FF JUMP JUMPDEST ISZERO PUSH2 0x29BD JUMPI PUSH2 0x29BB DUP5 DUP5 CALLER PUSH2 0x72F8 JUMP JUMPDEST POP JUMPDEST JUMPDEST JUMPDEST POP POP POP POP POP POP JUMP JUMPDEST DUP3 DUP3 PUSH1 0x6 PUSH1 0x7 DUP2 GT ISZERO PUSH2 0x29DD JUMPI PUSH2 0x29DC PUSH2 0xA4C8 JUMP JUMPDEST JUMPDEST PUSH1 0x4 PUSH1 0x0 CALLER PUSH20 0xFFFFFFFFFFFFFFFFFFFFFFFFFFFFFFFFFFFFFFFF AND PUSH20 0xFFFFFFFFFFFFFFFFFFFFFFFFFFFFFFFFFFFFFFFF AND DUP2 MSTORE PUSH1 0x20 ADD SWAP1 DUP2 MSTORE PUSH1 0x20 ADD PUSH1 0x0 KECCAK256 PUSH1 0x0 SWAP1 SLOAD SWAP1 PUSH2 0x100 EXP SWAP1 DIV PUSH1 0xFF AND PUSH1 0x7 DUP2 GT ISZERO PUSH2 0x2A3C JUMPI PUSH2 0x2A3B PUSH2 0xA4C8 JUMP JUMPDEST JUMPDEST EQ ISZERO DUP1 ISZERO PUSH2 0x2ABB JUMPI POP PUSH1 0x5 PUSH1 0x7 DUP2 GT ISZERO PUSH2 0x2A59 JUMPI PUSH2 0x2A58 PUSH2 0xA4C8 JUMP JUMPDEST JUMPDEST PUSH1 0x4 PUSH1 0x0 CALLER PUSH20 0xFFFFFFFFFFFFFFFFFFFFFFFFFFFFFFFFFFFFFFFF AND PUSH20 0xFFFFFFFFFFFFFFFFFFFFFFFFFFFFFFFFFFFFFFFF AND DUP2 MSTORE PUSH1 0x20 ADD SWAP1 DUP2 MSTORE PUSH1 0x20 ADD PUSH1 0x0 KECCAK256 PUSH1 0x0 SWAP1 SLOAD SWAP1 PUSH2 0x100 EXP SWAP1 DIV PUSH1 0xFF AND PUSH1 0x7 DUP2 GT ISZERO PUSH2 0x2AB8 JUMPI PUSH2 0x2AB7 PUSH2 0xA4C8 JUMP JUMPDEST JUMPDEST EQ ISZERO JUMPDEST DUP1 ISZERO PUSH2 0x2B37 JUMPI POP PUSH1 0x7 DUP1 DUP2 GT ISZERO PUSH2 0x2AD5 JUMPI PUSH2 0x2AD4 PUSH2 0xA4C8 JUMP JUMPDEST JUMPDEST PUSH1 0x4 PUSH1 0x0 CALLER PUSH20 0xFFFFFFFFFFFFFFFFFFFFFFFFFFFFFFFFFFFFFFFF AND PUSH20 0xFFFFFFFFFFFFFFFFFFFFFFFFFFFFFFFFFFFFFFFF AND DUP2 MSTORE PUSH1 0x20 ADD SWAP1 DUP2 MSTORE PUSH1 0x20 ADD PUSH1 0x0 KECCAK256 PUSH1 0x0 SWAP1 SLOAD SWAP1 PUSH2 0x100 EXP SWAP1 DIV PUSH1 0xFF AND PUSH1 0x7 DUP2 GT ISZERO PUSH2 0x2B34 JUMPI PUSH2 0x2B33 PUSH2 0xA4C8 JUMP JUMPDEST JUMPDEST EQ ISZERO JUMPDEST ISZERO PUSH2 0x2B7D JUMPI PUSH32 0xB2BFA9090D50AD1A62CB284547F85F0E78E3B3DCCA2D82C2ECE1A3E9ABF25266 CALLER PUSH1 0x0 DUP1 PUSH1 0x40 MLOAD PUSH2 0x2B70 SWAP4 SWAP3 SWAP2 SWAP1 PUSH2 0x9A58 JUMP JUMPDEST PUSH1 0x40 MLOAD DUP1 SWAP2 SUB SWAP1 LOG1 PUSH2 0x2F4B JUMP JUMPDEST DUP2 DUP2 PUSH1 0x40 MLOAD PUSH1 0x20 ADD PUSH2 0x2B90 SWAP3 SWAP2 SWAP1 PUSH2 0x90AA JUMP JUMPDEST PUSH1 0x40 MLOAD PUSH1 0x20 DUP2 DUP4 SUB SUB DUP2 MSTORE SWAP1 PUSH1 0x40 MSTORE DUP1 MLOAD SWAP1 PUSH1 0x20 ADD KECCAK256 PUSH1 0x0 DUP1 CALLER PUSH20 0xFFFFFFFFFFFFFFFFFFFFFFFFFFFFFFFFFFFFFFFF AND PUSH20 0xFFFFFFFFFFFFFFFFFFFFFFFFFFFFFFFFFFFFFFFF AND DUP2 MSTORE PUSH1 0x20 ADD SWAP1 DUP2 MSTORE PUSH1 0x20 ADD PUSH1 0x0 KECCAK256 PUSH1 0x6 ADD SLOAD EQ DUP1 PUSH2 0x2C5D JUMPI POP DUP2 DUP2 PUSH1 0x40 MLOAD PUSH1 0x20 ADD PUSH2 0x2C02 SWAP3 SWAP2 SWAP1 PUSH2 0x90AA JUMP JUMPDEST PUSH1 0x40 MLOAD PUSH1 0x20 DUP2 DUP4 SUB SUB DUP2 MSTORE SWAP1 PUSH1 0x40 MSTORE DUP1 MLOAD SWAP1 PUSH1 0x20 ADD KECCAK256 PUSH1 0x1 PUSH1 0x0 CALLER PUSH20 0xFFFFFFFFFFFFFFFFFFFFFFFFFFFFFFFFFFFFFFFF AND PUSH20 0xFFFFFFFFFFFFFFFFFFFFFFFFFFFFFFFFFFFFFFFF AND DUP2 MSTORE PUSH1 0x20 ADD SWAP1 DUP2 MSTORE PUSH1 0x20 ADD PUSH1 0x0 KECCAK256 PUSH1 0x6 ADD SLOAD EQ JUMPDEST DUP1 PUSH2 0x2CD1 JUMPI POP DUP2 DUP2 PUSH1 0x40 MLOAD PUSH1 0x20 ADD PUSH2 0x2C76 SWAP3 SWAP2 SWAP1 PUSH2 0x90AA JUMP JUMPDEST PUSH1 0x40 MLOAD PUSH1 0x20 DUP2 DUP4 SUB SUB DUP2 MSTORE SWAP1 PUSH1 0x40 MSTORE DUP1 MLOAD SWAP1 PUSH1 0x20 ADD KECCAK256 PUSH1 0x2 PUSH1 0x0 CALLER PUSH20 0xFFFFFFFFFFFFFFFFFFFFFFFFFFFFFFFFFFFFFFFF AND PUSH20 0xFFFFFFFFFFFFFFFFFFFFFFFFFFFFFFFFFFFFFFFF AND DUP2 MSTORE PUSH1 0x20 ADD SWAP1 DUP2 MSTORE PUSH1 0x20 ADD PUSH1 0x0 KECCAK256 PUSH1 0x2 ADD SLOAD EQ JUMPDEST PUSH2 0x2D16 JUMPI PUSH32 0xB2BFA9090D50AD1A62CB284547F85F0E78E3B3DCCA2D82C2ECE1A3E9ABF25266 CALLER PUSH1 0x0 DUP1 PUSH1 0x40 MLOAD PUSH2 0x2D09 SWAP4 SWAP3 SWAP2 SWAP1 PUSH2 0x964C JUMP JUMPDEST PUSH1 0x40 MLOAD DUP1 SWAP2 SUB SWAP1 LOG1 PUSH2 0x2F4B JUMP JUMPDEST PUSH1 0x6 PUSH1 0x7 DUP2 GT ISZERO PUSH2 0x2D2A JUMPI PUSH2 0x2D29 PUSH2 0xA4C8 JUMP JUMPDEST JUMPDEST PUSH1 0x4 PUSH1 0x0 CALLER PUSH20 0xFFFFFFFFFFFFFFFFFFFFFFFFFFFFFFFFFFFFFFFF AND PUSH20 0xFFFFFFFFFFFFFFFFFFFFFFFFFFFFFFFFFFFFFFFF AND DUP2 MSTORE PUSH1 0x20 ADD SWAP1 DUP2 MSTORE PUSH1 0x20 ADD PUSH1 0x0 KECCAK256 PUSH1 0x0 SWAP1 SLOAD SWAP1 PUSH2 0x100 EXP SWAP1 DIV PUSH1 0xFF AND PUSH1 0x7 DUP2 GT ISZERO PUSH2 0x2D89 JUMPI PUSH2 0x2D88 PUSH2 0xA4C8 JUMP JUMPDEST JUMPDEST EQ PUSH2 0x2DCF JUMPI PUSH32 0xB2BFA9090D50AD1A62CB284547F85F0E78E3B3DCCA2D82C2ECE1A3E9ABF25266 CALLER PUSH1 0x0 DUP1 PUSH1 0x40 MLOAD PUSH2 0x2DC2 SWAP4 SWAP3 SWAP2 SWAP1 PUSH2 0x9696 JUMP JUMPDEST PUSH1 0x40 MLOAD DUP1 SWAP2 SUB SWAP1 LOG1 PUSH2 0x2F4A JUMP JUMPDEST DUP3 PUSH1 0x14 DUP2 MLOAD LT ISZERO PUSH2 0x2E1B JUMPI PUSH32 0xB2BFA9090D50AD1A62CB284547F85F0E78E3B3DCCA2D82C2ECE1A3E9ABF25266 CALLER PUSH1 0x0 DUP1 PUSH1 0x40 MLOAD PUSH2 0x2E0E SWAP4 SWAP3 SWAP2 SWAP1 PUSH2 0x99C4 JUMP JUMPDEST PUSH1 0x40 MLOAD DUP1 SWAP2 SUB SWAP1 LOG1 PUSH2 0x2F48 JUMP JUMPDEST PUSH2 0x154 DUP2 MLOAD GT ISZERO PUSH2 0x2E67 JUMPI PUSH32 0xB2BFA9090D50AD1A62CB284547F85F0E78E3B3DCCA2D82C2ECE1A3E9ABF25266 CALLER PUSH1 0x0 DUP1 PUSH1 0x40 MLOAD PUSH2 0x2E5A SWAP4 SWAP3 SWAP2 SWAP1 PUSH2 0x9852 JUMP JUMPDEST PUSH1 0x40 MLOAD DUP1 SWAP2 SUB SWAP1 LOG1 PUSH2 0x2F48 JUMP JUMPDEST CALLER PUSH1 0x0 PUSH2 0x2E73 DUP3 PUSH2 0x7071 JUMP JUMPDEST SWAP1 POP PUSH1 0x0 DUP2 EQ ISZERO PUSH2 0x2EC0 JUMPI PUSH32 0xB2BFA9090D50AD1A62CB284547F85F0E78E3B3DCCA2D82C2ECE1A3E9ABF25266 CALLER PUSH1 0x0 DUP1 PUSH1 0x40 MLOAD PUSH2 0x2EB2 SWAP4 SWAP3 SWAP2 SWAP1 PUSH2 0x997A JUMP JUMPDEST PUSH1 0x40 MLOAD DUP1 SWAP2 SUB SWAP1 LOG1 POP PUSH2 0x2F46 JUMP JUMPDEST PUSH1 0x0 PUSH2 0x2ECB CALLER PUSH2 0x7071 JUMP JUMPDEST SWAP1 POP DUP7 PUSH1 0x7 DUP3 DUP2 SLOAD DUP2 LT PUSH2 0x2EE2 JUMPI PUSH2 0x2EE1 PUSH2 0xA526 JUMP JUMPDEST JUMPDEST SWAP1 PUSH1 0x0 MSTORE PUSH1 0x20 PUSH1 0x0 KECCAK256 SWAP1 PUSH1 0x9 MUL ADD PUSH1 0x1 ADD SWAP1 DUP1 MLOAD SWAP1 PUSH1 0x20 ADD SWAP1 PUSH2 0x2F06 SWAP3 SWAP2 SWAP1 PUSH2 0x7A3B JUMP JUMPDEST POP PUSH32 0xB2BFA9090D50AD1A62CB284547F85F0E78E3B3DCCA2D82C2ECE1A3E9ABF25266 CALLER PUSH1 0x0 DUP4 PUSH1 0x40 MLOAD PUSH2 0x2F3B SWAP4 SWAP3 SWAP2 SWAP1 PUSH2 0x9CA8 JUMP JUMPDEST PUSH1 0x40 MLOAD DUP1 SWAP2 SUB SWAP1 LOG1 POP POP JUMPDEST POP JUMPDEST POP JUMPDEST JUMPDEST POP POP POP POP POP JUMP JUMPDEST DUP4 DUP4 PUSH1 0x6 PUSH1 0x7 DUP2 GT ISZERO PUSH2 0x2F68 JUMPI PUSH2 0x2F67 PUSH2 0xA4C8 JUMP JUMPDEST JUMPDEST PUSH1 0x4 PUSH1 0x0 CALLER PUSH20 0xFFFFFFFFFFFFFFFFFFFFFFFFFFFFFFFFFFFFFFFF AND PUSH20 0xFFFFFFFFFFFFFFFFFFFFFFFFFFFFFFFFFFFFFFFF AND DUP2 MSTORE PUSH1 0x20 ADD SWAP1 DUP2 MSTORE PUSH1 0x20 ADD PUSH1 0x0 KECCAK256 PUSH1 0x0 SWAP1 SLOAD SWAP1 PUSH2 0x100 EXP SWAP1 DIV PUSH1 0xFF AND PUSH1 0x7 DUP2 GT ISZERO PUSH2 0x2FC7 JUMPI PUSH2 0x2FC6 PUSH2 0xA4C8 JUMP JUMPDEST JUMPDEST EQ ISZERO DUP1 ISZERO PUSH2 0x3046 JUMPI POP PUSH1 0x5 PUSH1 0x7 DUP2 GT ISZERO PUSH2 0x2FE4 JUMPI PUSH2 0x2FE3 PUSH2 0xA4C8 JUMP JUMPDEST JUMPDEST PUSH1 0x4 PUSH1 0x0 CALLER PUSH20 0xFFFFFFFFFFFFFFFFFFFFFFFFFFFFFFFFFFFFFFFF AND PUSH20 0xFFFFFFFFFFFFFFFFFFFFFFFFFFFFFFFFFFFFFFFF AND DUP2 MSTORE PUSH1 0x20 ADD SWAP1 DUP2 MSTORE PUSH1 0x20 ADD PUSH1 0x0 KECCAK256 PUSH1 0x0 SWAP1 SLOAD SWAP1 PUSH2 0x100 EXP SWAP1 DIV PUSH1 0xFF AND PUSH1 0x7 DUP2 GT ISZERO PUSH2 0x3043 JUMPI PUSH2 0x3042 PUSH2 0xA4C8 JUMP JUMPDEST JUMPDEST EQ ISZERO JUMPDEST DUP1 ISZERO PUSH2 0x30C2 JUMPI POP PUSH1 0x7 DUP1 DUP2 GT ISZERO PUSH2 0x3060 JUMPI PUSH2 0x305F PUSH2 0xA4C8 JUMP JUMPDEST JUMPDEST PUSH1 0x4 PUSH1 0x0 CALLER PUSH20 0xFFFFFFFFFFFFFFFFFFFFFFFFFFFFFFFFFFFFFFFF AND PUSH20 0xFFFFFFFFFFFFFFFFFFFFFFFFFFFFFFFFFFFFFFFF AND DUP2 MSTORE PUSH1 0x20 ADD SWAP1 DUP2 MSTORE PUSH1 0x20 ADD PUSH1 0x0 KECCAK256 PUSH1 0x0 SWAP1 SLOAD SWAP1 PUSH2 0x100 EXP SWAP1 DIV PUSH1 0xFF AND PUSH1 0x7 DUP2 GT ISZERO PUSH2 0x30BF JUMPI PUSH2 0x30BE PUSH2 0xA4C8 JUMP JUMPDEST JUMPDEST EQ ISZERO JUMPDEST ISZERO PUSH2 0x3108 JUMPI PUSH32 0xB2BFA9090D50AD1A62CB284547F85F0E78E3B3DCCA2D82C2ECE1A3E9ABF25266 CALLER PUSH1 0x0 DUP1 PUSH1 0x40 MLOAD PUSH2 0x30FB SWAP4 SWAP3 SWAP2 SWAP1 PUSH2 0x9A58 JUMP JUMPDEST PUSH1 0x40 MLOAD DUP1 SWAP2 SUB SWAP1 LOG1 PUSH2 0x34F8 JUMP JUMPDEST DUP2 DUP2 PUSH1 0x40 MLOAD PUSH1 0x20 ADD PUSH2 0x311B SWAP3 SWAP2 SWAP1 PUSH2 0x90AA JUMP JUMPDEST PUSH1 0x40 MLOAD PUSH1 0x20 DUP2 DUP4 SUB SUB DUP2 MSTORE SWAP1 PUSH1 0x40 MSTORE DUP1 MLOAD SWAP1 PUSH1 0x20 ADD KECCAK256 PUSH1 0x0 DUP1 CALLER PUSH20 0xFFFFFFFFFFFFFFFFFFFFFFFFFFFFFFFFFFFFFFFF AND PUSH20 0xFFFFFFFFFFFFFFFFFFFFFFFFFFFFFFFFFFFFFFFF AND DUP2 MSTORE PUSH1 0x20 ADD SWAP1 DUP2 MSTORE PUSH1 0x20 ADD PUSH1 0x0 KECCAK256 PUSH1 0x6 ADD SLOAD EQ DUP1 PUSH2 0x31E8 JUMPI POP DUP2 DUP2 PUSH1 0x40 MLOAD PUSH1 0x20 ADD PUSH2 0x318D SWAP3 SWAP2 SWAP1 PUSH2 0x90AA JUMP JUMPDEST PUSH1 0x40 MLOAD PUSH1 0x20 DUP2 DUP4 SUB SUB DUP2 MSTORE SWAP1 PUSH1 0x40 MSTORE DUP1 MLOAD SWAP1 PUSH1 0x20 ADD KECCAK256 PUSH1 0x1 PUSH1 0x0 CALLER PUSH20 0xFFFFFFFFFFFFFFFFFFFFFFFFFFFFFFFFFFFFFFFF AND PUSH20 0xFFFFFFFFFFFFFFFFFFFFFFFFFFFFFFFFFFFFFFFF AND DUP2 MSTORE PUSH1 0x20 ADD SWAP1 DUP2 MSTORE PUSH1 0x20 ADD PUSH1 0x0 KECCAK256 PUSH1 0x6 ADD SLOAD EQ JUMPDEST DUP1 PUSH2 0x325C JUMPI POP DUP2 DUP2 PUSH1 0x40 MLOAD PUSH1 0x20 ADD PUSH2 0x3201 SWAP3 SWAP2 SWAP1 PUSH2 0x90AA JUMP JUMPDEST PUSH1 0x40 MLOAD PUSH1 0x20 DUP2 DUP4 SUB SUB DUP2 MSTORE SWAP1 PUSH1 0x40 MSTORE DUP1 MLOAD SWAP1 PUSH1 0x20 ADD KECCAK256 PUSH1 0x2 PUSH1 0x0 CALLER PUSH20 0xFFFFFFFFFFFFFFFFFFFFFFFFFFFFFFFFFFFFFFFF AND PUSH20 0xFFFFFFFFFFFFFFFFFFFFFFFFFFFFFFFFFFFFFFFF AND DUP2 MSTORE PUSH1 0x20 ADD SWAP1 DUP2 MSTORE PUSH1 0x20 ADD PUSH1 0x0 KECCAK256 PUSH1 0x2 ADD SLOAD EQ JUMPDEST PUSH2 0x32A1 JUMPI PUSH32 0xB2BFA9090D50AD1A62CB284547F85F0E78E3B3DCCA2D82C2ECE1A3E9ABF25266 CALLER PUSH1 0x0 DUP1 PUSH1 0x40 MLOAD PUSH2 0x3294 SWAP4 SWAP3 SWAP2 SWAP1 PUSH2 0x964C JUMP JUMPDEST PUSH1 0x40 MLOAD DUP1 SWAP2 SUB SWAP1 LOG1 PUSH2 0x34F8 JUMP JUMPDEST PUSH1 0x6 PUSH1 0x7 DUP2 GT ISZERO PUSH2 0x32B5 JUMPI PUSH2 0x32B4 PUSH2 0xA4C8 JUMP JUMPDEST JUMPDEST PUSH1 0x4 PUSH1 0x0 CALLER PUSH20 0xFFFFFFFFFFFFFFFFFFFFFFFFFFFFFFFFFFFFFFFF AND PUSH20 0xFFFFFFFFFFFFFFFFFFFFFFFFFFFFFFFFFFFFFFFF AND DUP2 MSTORE PUSH1 0x20 ADD SWAP1 DUP2 MSTORE PUSH1 0x20 ADD PUSH1 0x0 KECCAK256 PUSH1 0x0 SWAP1 SLOAD SWAP1 PUSH2 0x100 EXP SWAP1 DIV PUSH1 0xFF AND PUSH1 0x7 DUP2 GT ISZERO PUSH2 0x3314 JUMPI PUSH2 0x3313 PUSH2 0xA4C8 JUMP JUMPDEST JUMPDEST EQ PUSH2 0x335A JUMPI PUSH32 0xB2BFA9090D50AD1A62CB284547F85F0E78E3B3DCCA2D82C2ECE1A3E9ABF25266 CALLER PUSH1 0x0 DUP1 PUSH1 0x40 MLOAD PUSH2 0x334D SWAP4 SWAP3 SWAP2 SWAP1 PUSH2 0x9696 JUMP JUMPDEST PUSH1 0x40 MLOAD DUP1 SWAP2 SUB SWAP1 LOG1 PUSH2 0x34F7 JUMP JUMPDEST DUP3 PUSH1 0x14 DUP2 MLOAD LT ISZERO PUSH2 0x33A6 JUMPI PUSH32 0xB2BFA9090D50AD1A62CB284547F85F0E78E3B3DCCA2D82C2ECE1A3E9ABF25266 CALLER PUSH1 0x0 DUP1 PUSH1 0x40 MLOAD PUSH2 0x3399 SWAP4 SWAP3 SWAP2 SWAP1 PUSH2 0x99C4 JUMP JUMPDEST PUSH1 0x40 MLOAD DUP1 SWAP2 SUB SWAP1 LOG1 PUSH2 0x34F5 JUMP JUMPDEST PUSH2 0x154 DUP2 MLOAD GT ISZERO PUSH2 0x33F2 JUMPI PUSH32 0xB2BFA9090D50AD1A62CB284547F85F0E78E3B3DCCA2D82C2ECE1A3E9ABF25266 CALLER PUSH1 0x0 DUP1 PUSH1 0x40 MLOAD PUSH2 0x33E5 SWAP4 SWAP3 SWAP2 SWAP1 PUSH2 0x9852 JUMP JUMPDEST PUSH1 0x40 MLOAD DUP1 SWAP2 SUB SWAP1 LOG1 PUSH2 0x34F5 JUMP JUMPDEST PUSH1 0x0 DUP1 PUSH1 0x0 CALLER PUSH20 0xFFFFFFFFFFFFFFFFFFFFFFFFFFFFFFFFFFFFFFFF AND PUSH20 0xFFFFFFFFFFFFFFFFFFFFFFFFFFFFFFFFFFFFFFFF AND DUP2 MSTORE PUSH1 0x20 ADD SWAP1 DUP2 MSTORE PUSH1 0x20 ADD PUSH1 0x0 KECCAK256 PUSH1 0x4 ADD SWAP1 POP DUP6 DUP2 DUP1 SLOAD SWAP1 POP GT ISZERO PUSH2 0x34B6 JUMPI DUP5 DUP2 DUP8 DUP2 SLOAD DUP2 LT PUSH2 0x3457 JUMPI PUSH2 0x3456 PUSH2 0xA526 JUMP JUMPDEST JUMPDEST SWAP1 PUSH1 0x0 MSTORE PUSH1 0x20 PUSH1 0x0 KECCAK256 ADD SWAP1 DUP1 MLOAD SWAP1 PUSH1 0x20 ADD SWAP1 PUSH2 0x3474 SWAP3 SWAP2 SWAP1 PUSH2 0x7A3B JUMP JUMPDEST POP PUSH32 0xB2BFA9090D50AD1A62CB284547F85F0E78E3B3DCCA2D82C2ECE1A3E9ABF25266 CALLER PUSH1 0x0 DUP1 PUSH1 0x40 MLOAD PUSH2 0x34A9 SWAP4 SWAP3 SWAP2 SWAP1 PUSH2 0x9524 JUMP JUMPDEST PUSH1 0x40 MLOAD DUP1 SWAP2 SUB SWAP1 LOG1 PUSH2 0x34F3 JUMP JUMPDEST PUSH32 0xB2BFA9090D50AD1A62CB284547F85F0E78E3B3DCCA2D82C2ECE1A3E9ABF25266 CALLER PUSH1 0x0 DUP1 PUSH1 0x40 MLOAD PUSH2 0x34EA SWAP4 SWAP3 SWAP2 SWAP1 PUSH2 0x9B80 JUMP JUMPDEST PUSH1 0x40 MLOAD DUP1 SWAP2 SUB SWAP1 LOG1 JUMPDEST POP JUMPDEST POP JUMPDEST JUMPDEST POP POP POP POP POP POP JUMP JUMPDEST PUSH1 0x60 PUSH1 0x8 DUP1 SLOAD DUP1 PUSH1 0x20 MUL PUSH1 0x20 ADD PUSH1 0x40 MLOAD SWAP1 DUP2 ADD PUSH1 0x40 MSTORE DUP1 SWAP3 SWAP2 SWAP1 DUP2 DUP2 MSTORE PUSH1 0x20 ADD PUSH1 0x0 SWAP1 JUMPDEST DUP3 DUP3 LT ISZERO PUSH2 0x35D0 JUMPI DUP4 DUP3 SWAP1 PUSH1 0x0 MSTORE PUSH1 0x20 PUSH1 0x0 KECCAK256 ADD DUP1 SLOAD PUSH2 0x3543 SWAP1 PUSH2 0xA3ED JUMP JUMPDEST DUP1 PUSH1 0x1F ADD PUSH1 0x20 DUP1 SWAP2 DIV MUL PUSH1 0x20 ADD PUSH1 0x40 MLOAD SWAP1 DUP2 ADD PUSH1 0x40 MSTORE DUP1 SWAP3 SWAP2 SWAP1 DUP2 DUP2 MSTORE PUSH1 0x20 ADD DUP3 DUP1 SLOAD PUSH2 0x356F SWAP1 PUSH2 0xA3ED JUMP JUMPDEST DUP1 ISZERO PUSH2 0x35BC JUMPI DUP1 PUSH1 0x1F LT PUSH2 0x3591 JUMPI PUSH2 0x100 DUP1 DUP4 SLOAD DIV MUL DUP4 MSTORE SWAP2 PUSH1 0x20 ADD SWAP2 PUSH2 0x35BC JUMP JUMPDEST DUP3 ADD SWAP2 SWAP1 PUSH1 0x0 MSTORE PUSH1 0x20 PUSH1 0x0 KECCAK256 SWAP1 JUMPDEST DUP2 SLOAD DUP2 MSTORE SWAP1 PUSH1 0x1 ADD SWAP1 PUSH1 0x20 ADD DUP1 DUP4 GT PUSH2 0x359F JUMPI DUP3 SWAP1 SUB PUSH1 0x1F AND DUP3 ADD SWAP2 JUMPDEST POP POP POP POP POP DUP2 MSTORE PUSH1 0x20 ADD SWAP1 PUSH1 0x1 ADD SWAP1 PUSH2 0x3524 JUMP JUMPDEST POP POP POP POP SWAP1 POP SWAP1 JUMP JUMPDEST DUP3 DUP3 PUSH1 0x6 PUSH1 0x7 DUP2 GT ISZERO PUSH2 0x35EF JUMPI PUSH2 0x35EE PUSH2 0xA4C8 JUMP JUMPDEST JUMPDEST PUSH1 0x4 PUSH1 0x0 CALLER PUSH20 0xFFFFFFFFFFFFFFFFFFFFFFFFFFFFFFFFFFFFFFFF AND PUSH20 0xFFFFFFFFFFFFFFFFFFFFFFFFFFFFFFFFFFFFFFFF AND DUP2 MSTORE PUSH1 0x20 ADD SWAP1 DUP2 MSTORE PUSH1 0x20 ADD PUSH1 0x0 KECCAK256 PUSH1 0x0 SWAP1 SLOAD SWAP1 PUSH2 0x100 EXP SWAP1 DIV PUSH1 0xFF AND PUSH1 0x7 DUP2 GT ISZERO PUSH2 0x364E JUMPI PUSH2 0x364D PUSH2 0xA4C8 JUMP JUMPDEST JUMPDEST EQ ISZERO DUP1 ISZERO PUSH2 0x36CD JUMPI POP PUSH1 0x5 PUSH1 0x7 DUP2 GT ISZERO PUSH2 0x366B JUMPI PUSH2 0x366A PUSH2 0xA4C8 JUMP JUMPDEST JUMPDEST PUSH1 0x4 PUSH1 0x0 CALLER PUSH20 0xFFFFFFFFFFFFFFFFFFFFFFFFFFFFFFFFFFFFFFFF AND PUSH20 0xFFFFFFFFFFFFFFFFFFFFFFFFFFFFFFFFFFFFFFFF AND DUP2 MSTORE PUSH1 0x20 ADD SWAP1 DUP2 MSTORE PUSH1 0x20 ADD PUSH1 0x0 KECCAK256 PUSH1 0x0 SWAP1 SLOAD SWAP1 PUSH2 0x100 EXP SWAP1 DIV PUSH1 0xFF AND PUSH1 0x7 DUP2 GT ISZERO PUSH2 0x36CA JUMPI PUSH2 0x36C9 PUSH2 0xA4C8 JUMP JUMPDEST JUMPDEST EQ ISZERO JUMPDEST DUP1 ISZERO PUSH2 0x3749 JUMPI POP PUSH1 0x7 DUP1 DUP2 GT ISZERO PUSH2 0x36E7 JUMPI PUSH2 0x36E6 PUSH2 0xA4C8 JUMP JUMPDEST JUMPDEST PUSH1 0x4 PUSH1 0x0 CALLER PUSH20 0xFFFFFFFFFFFFFFFFFFFFFFFFFFFFFFFFFFFFFFFF AND PUSH20 0xFFFFFFFFFFFFFFFFFFFFFFFFFFFFFFFFFFFFFFFF AND DUP2 MSTORE PUSH1 0x20 ADD SWAP1 DUP2 MSTORE PUSH1 0x20 ADD PUSH1 0x0 KECCAK256 PUSH1 0x0 SWAP1 SLOAD SWAP1 PUSH2 0x100 EXP SWAP1 DIV PUSH1 0xFF AND PUSH1 0x7 DUP2 GT ISZERO PUSH2 0x3746 JUMPI PUSH2 0x3745 PUSH2 0xA4C8 JUMP JUMPDEST JUMPDEST EQ ISZERO JUMPDEST ISZERO PUSH2 0x378F JUMPI PUSH32 0xB2BFA9090D50AD1A62CB284547F85F0E78E3B3DCCA2D82C2ECE1A3E9ABF25266 CALLER PUSH1 0x0 DUP1 PUSH1 0x40 MLOAD PUSH2 0x3782 SWAP4 SWAP3 SWAP2 SWAP1 PUSH2 0x9A58 JUMP JUMPDEST PUSH1 0x40 MLOAD DUP1 SWAP2 SUB SWAP1 LOG1 PUSH2 0x3C14 JUMP JUMPDEST DUP2 DUP2 PUSH1 0x40 MLOAD PUSH1 0x20 ADD PUSH2 0x37A2 SWAP3 SWAP2 SWAP1 PUSH2 0x90AA JUMP JUMPDEST PUSH1 0x40 MLOAD PUSH1 0x20 DUP2 DUP4 SUB SUB DUP2 MSTORE SWAP1 PUSH1 0x40 MSTORE DUP1 MLOAD SWAP1 PUSH1 0x20 ADD KECCAK256 PUSH1 0x0 DUP1 CALLER PUSH20 0xFFFFFFFFFFFFFFFFFFFFFFFFFFFFFFFFFFFFFFFF AND PUSH20 0xFFFFFFFFFFFFFFFFFFFFFFFFFFFFFFFFFFFFFFFF AND DUP2 MSTORE PUSH1 0x20 ADD SWAP1 DUP2 MSTORE PUSH1 0x20 ADD PUSH1 0x0 KECCAK256 PUSH1 0x6 ADD SLOAD EQ DUP1 PUSH2 0x386F JUMPI POP DUP2 DUP2 PUSH1 0x40 MLOAD PUSH1 0x20 ADD PUSH2 0x3814 SWAP3 SWAP2 SWAP1 PUSH2 0x90AA JUMP JUMPDEST PUSH1 0x40 MLOAD PUSH1 0x20 DUP2 DUP4 SUB SUB DUP2 MSTORE SWAP1 PUSH1 0x40 MSTORE DUP1 MLOAD SWAP1 PUSH1 0x20 ADD KECCAK256 PUSH1 0x1 PUSH1 0x0 CALLER PUSH20 0xFFFFFFFFFFFFFFFFFFFFFFFFFFFFFFFFFFFFFFFF AND PUSH20 0xFFFFFFFFFFFFFFFFFFFFFFFFFFFFFFFFFFFFFFFF AND DUP2 MSTORE PUSH1 0x20 ADD SWAP1 DUP2 MSTORE PUSH1 0x20 ADD PUSH1 0x0 KECCAK256 PUSH1 0x6 ADD SLOAD EQ JUMPDEST DUP1 PUSH2 0x38E3 JUMPI POP DUP2 DUP2 PUSH1 0x40 MLOAD PUSH1 0x20 ADD PUSH2 0x3888 SWAP3 SWAP2 SWAP1 PUSH2 0x90AA JUMP JUMPDEST PUSH1 0x40 MLOAD PUSH1 0x20 DUP2 DUP4 SUB SUB DUP2 MSTORE SWAP1 PUSH1 0x40 MSTORE DUP1 MLOAD SWAP1 PUSH1 0x20 ADD KECCAK256 PUSH1 0x2 PUSH1 0x0 CALLER PUSH20 0xFFFFFFFFFFFFFFFFFFFFFFFFFFFFFFFFFFFFFFFF AND PUSH20 0xFFFFFFFFFFFFFFFFFFFFFFFFFFFFFFFFFFFFFFFF AND DUP2 MSTORE PUSH1 0x20 ADD SWAP1 DUP2 MSTORE PUSH1 0x20 ADD PUSH1 0x0 KECCAK256 PUSH1 0x2 ADD SLOAD EQ JUMPDEST PUSH2 0x3928 JUMPI PUSH32 0xB2BFA9090D50AD1A62CB284547F85F0E78E3B3DCCA2D82C2ECE1A3E9ABF25266 CALLER PUSH1 0x0 DUP1 PUSH1 0x40 MLOAD PUSH2 0x391B SWAP4 SWAP3 SWAP2 SWAP1 PUSH2 0x964C JUMP JUMPDEST PUSH1 0x40 MLOAD DUP1 SWAP2 SUB SWAP1 LOG1 PUSH2 0x3C14 JUMP JUMPDEST PUSH1 0x6 PUSH1 0x7 DUP2 GT ISZERO PUSH2 0x393C JUMPI PUSH2 0x393B PUSH2 0xA4C8 JUMP JUMPDEST JUMPDEST PUSH1 0x4 PUSH1 0x0 CALLER PUSH20 0xFFFFFFFFFFFFFFFFFFFFFFFFFFFFFFFFFFFFFFFF AND PUSH20 0xFFFFFFFFFFFFFFFFFFFFFFFFFFFFFFFFFFFFFFFF AND DUP2 MSTORE PUSH1 0x20 ADD SWAP1 DUP2 MSTORE PUSH1 0x20 ADD PUSH1 0x0 KECCAK256 PUSH1 0x0 SWAP1 SLOAD SWAP1 PUSH2 0x100 EXP SWAP1 DIV PUSH1 0xFF AND PUSH1 0x7 DUP2 GT ISZERO PUSH2 0x399B JUMPI PUSH2 0x399A PUSH2 0xA4C8 JUMP JUMPDEST JUMPDEST EQ PUSH2 0x39E1 JUMPI PUSH32 0xB2BFA9090D50AD1A62CB284547F85F0E78E3B3DCCA2D82C2ECE1A3E9ABF25266 CALLER PUSH1 0x0 DUP1 PUSH1 0x40 MLOAD PUSH2 0x39D4 SWAP4 SWAP3 SWAP2 SWAP1 PUSH2 0x9696 JUMP JUMPDEST PUSH1 0x40 MLOAD DUP1 SWAP2 SUB SWAP1 LOG1 PUSH2 0x3C13 JUMP JUMPDEST DUP3 PUSH1 0x14 DUP2 MLOAD LT ISZERO PUSH2 0x3A2D JUMPI PUSH32 0xB2BFA9090D50AD1A62CB284547F85F0E78E3B3DCCA2D82C2ECE1A3E9ABF25266 CALLER PUSH1 0x0 DUP1 PUSH1 0x40 MLOAD PUSH2 0x3A20 SWAP4 SWAP3 SWAP2 SWAP1 PUSH2 0x99C4 JUMP JUMPDEST PUSH1 0x40 MLOAD DUP1 SWAP2 SUB SWAP1 LOG1 PUSH2 0x3C11 JUMP JUMPDEST PUSH2 0x154 DUP2 MLOAD GT ISZERO PUSH2 0x3A79 JUMPI PUSH32 0xB2BFA9090D50AD1A62CB284547F85F0E78E3B3DCCA2D82C2ECE1A3E9ABF25266 CALLER PUSH1 0x0 DUP1 PUSH1 0x40 MLOAD PUSH2 0x3A6C SWAP4 SWAP3 SWAP2 SWAP1 PUSH2 0x9852 JUMP JUMPDEST PUSH1 0x40 MLOAD DUP1 SWAP2 SUB SWAP1 LOG1 PUSH2 0x3C11 JUMP JUMPDEST CALLER PUSH1 0x0 PUSH2 0x3A85 DUP3 PUSH2 0x7071 JUMP JUMPDEST SWAP1 POP PUSH1 0x0 DUP2 EQ ISZERO PUSH2 0x3AD2 JUMPI PUSH32 0xB2BFA9090D50AD1A62CB284547F85F0E78E3B3DCCA2D82C2ECE1A3E9ABF25266 CALLER PUSH1 0x0 DUP1 PUSH1 0x40 MLOAD PUSH2 0x3AC4 SWAP4 SWAP3 SWAP2 SWAP1 PUSH2 0x997A JUMP JUMPDEST PUSH1 0x40 MLOAD DUP1 SWAP2 SUB SWAP1 LOG1 POP PUSH2 0x3C0F JUMP JUMPDEST PUSH1 0x0 PUSH2 0x3ADD CALLER PUSH2 0x7071 JUMP JUMPDEST SWAP1 POP PUSH1 0x0 PUSH1 0x7 DUP3 DUP2 SLOAD DUP2 LT PUSH2 0x3AF5 JUMPI PUSH2 0x3AF4 PUSH2 0xA526 JUMP JUMPDEST JUMPDEST SWAP1 PUSH1 0x0 MSTORE PUSH1 0x20 PUSH1 0x0 KECCAK256 SWAP1 PUSH1 0x9 MUL ADD PUSH1 0x7 ADD PUSH1 0x0 CALLER PUSH20 0xFFFFFFFFFFFFFFFFFFFFFFFFFFFFFFFFFFFFFFFF AND PUSH20 0xFFFFFFFFFFFFFFFFFFFFFFFFFFFFFFFFFFFFFFFF AND DUP2 MSTORE PUSH1 0x20 ADD SWAP1 DUP2 MSTORE PUSH1 0x20 ADD PUSH1 0x0 KECCAK256 SWAP1 POP PUSH1 0xA DUP2 DUP1 SLOAD SWAP1 POP LT ISZERO PUSH2 0x3BCE JUMPI DUP1 DUP9 SWAP1 DUP1 PUSH1 0x1 DUP2 SLOAD ADD DUP1 DUP3 SSTORE DUP1 SWAP2 POP POP PUSH1 0x1 SWAP1 SUB SWAP1 PUSH1 0x0 MSTORE PUSH1 0x20 PUSH1 0x0 KECCAK256 ADD PUSH1 0x0 SWAP1 SWAP2 SWAP1 SWAP2 SWAP1 SWAP2 POP SWAP1 DUP1 MLOAD SWAP1 PUSH1 0x20 ADD SWAP1 PUSH2 0x3B8C SWAP3 SWAP2 SWAP1 PUSH2 0x7A3B JUMP JUMPDEST POP PUSH32 0xB2BFA9090D50AD1A62CB284547F85F0E78E3B3DCCA2D82C2ECE1A3E9ABF25266 CALLER PUSH1 0x0 DUP5 PUSH1 0x40 MLOAD PUSH2 0x3BC1 SWAP4 SWAP3 SWAP2 SWAP1 PUSH2 0x9DD0 JUMP JUMPDEST PUSH1 0x40 MLOAD DUP1 SWAP2 SUB SWAP1 LOG1 PUSH2 0x3C0B JUMP JUMPDEST PUSH32 0xB2BFA9090D50AD1A62CB284547F85F0E78E3B3DCCA2D82C2ECE1A3E9ABF25266 CALLER PUSH1 0x0 DUP5 PUSH1 0x40 MLOAD PUSH2 0x3C02 SWAP4 SWAP3 SWAP2 SWAP1 PUSH2 0x9E1A JUMP JUMPDEST PUSH1 0x40 MLOAD DUP1 SWAP2 SUB SWAP1 LOG1 JUMPDEST POP POP POP JUMPDEST POP JUMPDEST POP JUMPDEST JUMPDEST POP POP POP POP POP JUMP JUMPDEST DUP3 DUP3 PUSH1 0x6 PUSH1 0x7 DUP2 GT ISZERO PUSH2 0x3C31 JUMPI PUSH2 0x3C30 PUSH2 0xA4C8 JUMP JUMPDEST JUMPDEST PUSH1 0x4 PUSH1 0x0 CALLER PUSH20 0xFFFFFFFFFFFFFFFFFFFFFFFFFFFFFFFFFFFFFFFF AND PUSH20 0xFFFFFFFFFFFFFFFFFFFFFFFFFFFFFFFFFFFFFFFF AND DUP2 MSTORE PUSH1 0x20 ADD SWAP1 DUP2 MSTORE PUSH1 0x20 ADD PUSH1 0x0 KECCAK256 PUSH1 0x0 SWAP1 SLOAD SWAP1 PUSH2 0x100 EXP SWAP1 DIV PUSH1 0xFF AND PUSH1 0x7 DUP2 GT ISZERO PUSH2 0x3C90 JUMPI PUSH2 0x3C8F PUSH2 0xA4C8 JUMP JUMPDEST JUMPDEST EQ ISZERO DUP1 ISZERO PUSH2 0x3D0F JUMPI POP PUSH1 0x5 PUSH1 0x7 DUP2 GT ISZERO PUSH2 0x3CAD JUMPI PUSH2 0x3CAC PUSH2 0xA4C8 JUMP JUMPDEST JUMPDEST PUSH1 0x4 PUSH1 0x0 CALLER PUSH20 0xFFFFFFFFFFFFFFFFFFFFFFFFFFFFFFFFFFFFFFFF AND PUSH20 0xFFFFFFFFFFFFFFFFFFFFFFFFFFFFFFFFFFFFFFFF AND DUP2 MSTORE PUSH1 0x20 ADD SWAP1 DUP2 MSTORE PUSH1 0x20 ADD PUSH1 0x0 KECCAK256 PUSH1 0x0 SWAP1 SLOAD SWAP1 PUSH2 0x100 EXP SWAP1 DIV PUSH1 0xFF AND PUSH1 0x7 DUP2 GT ISZERO PUSH2 0x3D0C JUMPI PUSH2 0x3D0B PUSH2 0xA4C8 JUMP JUMPDEST JUMPDEST EQ ISZERO JUMPDEST DUP1 ISZERO PUSH2 0x3D8B JUMPI POP PUSH1 0x7 DUP1 DUP2 GT ISZERO PUSH2 0x3D29 JUMPI PUSH2 0x3D28 PUSH2 0xA4C8 JUMP JUMPDEST JUMPDEST PUSH1 0x4 PUSH1 0x0 CALLER PUSH20 0xFFFFFFFFFFFFFFFFFFFFFFFFFFFFFFFFFFFFFFFF AND PUSH20 0xFFFFFFFFFFFFFFFFFFFFFFFFFFFFFFFFFFFFFFFF AND DUP2 MSTORE PUSH1 0x20 ADD SWAP1 DUP2 MSTORE PUSH1 0x20 ADD PUSH1 0x0 KECCAK256 PUSH1 0x0 SWAP1 SLOAD SWAP1 PUSH2 0x100 EXP SWAP1 DIV PUSH1 0xFF AND PUSH1 0x7 DUP2 GT ISZERO PUSH2 0x3D88 JUMPI PUSH2 0x3D87 PUSH2 0xA4C8 JUMP JUMPDEST JUMPDEST EQ ISZERO JUMPDEST ISZERO PUSH2 0x3DD1 JUMPI PUSH32 0xB2BFA9090D50AD1A62CB284547F85F0E78E3B3DCCA2D82C2ECE1A3E9ABF25266 CALLER PUSH1 0x0 DUP1 PUSH1 0x40 MLOAD PUSH2 0x3DC4 SWAP4 SWAP3 SWAP2 SWAP1 PUSH2 0x9A58 JUMP JUMPDEST PUSH1 0x40 MLOAD DUP1 SWAP2 SUB SWAP1 LOG1 PUSH2 0x43D9 JUMP JUMPDEST DUP2 DUP2 PUSH1 0x40 MLOAD PUSH1 0x20 ADD PUSH2 0x3DE4 SWAP3 SWAP2 SWAP1 PUSH2 0x90AA JUMP JUMPDEST PUSH1 0x40 MLOAD PUSH1 0x20 DUP2 DUP4 SUB SUB DUP2 MSTORE SWAP1 PUSH1 0x40 MSTORE DUP1 MLOAD SWAP1 PUSH1 0x20 ADD KECCAK256 PUSH1 0x0 DUP1 CALLER PUSH20 0xFFFFFFFFFFFFFFFFFFFFFFFFFFFFFFFFFFFFFFFF AND PUSH20 0xFFFFFFFFFFFFFFFFFFFFFFFFFFFFFFFFFFFFFFFF AND DUP2 MSTORE PUSH1 0x20 ADD SWAP1 DUP2 MSTORE PUSH1 0x20 ADD PUSH1 0x0 KECCAK256 PUSH1 0x6 ADD SLOAD EQ DUP1 PUSH2 0x3EB1 JUMPI POP DUP2 DUP2 PUSH1 0x40 MLOAD PUSH1 0x20 ADD PUSH2 0x3E56 SWAP3 SWAP2 SWAP1 PUSH2 0x90AA JUMP JUMPDEST PUSH1 0x40 MLOAD PUSH1 0x20 DUP2 DUP4 SUB SUB DUP2 MSTORE SWAP1 PUSH1 0x40 MSTORE DUP1 MLOAD SWAP1 PUSH1 0x20 ADD KECCAK256 PUSH1 0x1 PUSH1 0x0 CALLER PUSH20 0xFFFFFFFFFFFFFFFFFFFFFFFFFFFFFFFFFFFFFFFF AND PUSH20 0xFFFFFFFFFFFFFFFFFFFFFFFFFFFFFFFFFFFFFFFF AND DUP2 MSTORE PUSH1 0x20 ADD SWAP1 DUP2 MSTORE PUSH1 0x20 ADD PUSH1 0x0 KECCAK256 PUSH1 0x6 ADD SLOAD EQ JUMPDEST DUP1 PUSH2 0x3F25 JUMPI POP DUP2 DUP2 PUSH1 0x40 MLOAD PUSH1 0x20 ADD PUSH2 0x3ECA SWAP3 SWAP2 SWAP1 PUSH2 0x90AA JUMP JUMPDEST PUSH1 0x40 MLOAD PUSH1 0x20 DUP2 DUP4 SUB SUB DUP2 MSTORE SWAP1 PUSH1 0x40 MSTORE DUP1 MLOAD SWAP1 PUSH1 0x20 ADD KECCAK256 PUSH1 0x2 PUSH1 0x0 CALLER PUSH20 0xFFFFFFFFFFFFFFFFFFFFFFFFFFFFFFFFFFFFFFFF AND PUSH20 0xFFFFFFFFFFFFFFFFFFFFFFFFFFFFFFFFFFFFFFFF AND DUP2 MSTORE PUSH1 0x20 ADD SWAP1 DUP2 MSTORE PUSH1 0x20 ADD PUSH1 0x0 KECCAK256 PUSH1 0x2 ADD SLOAD EQ JUMPDEST PUSH2 0x3F6A JUMPI PUSH32 0xB2BFA9090D50AD1A62CB284547F85F0E78E3B3DCCA2D82C2ECE1A3E9ABF25266 CALLER PUSH1 0x0 DUP1 PUSH1 0x40 MLOAD PUSH2 0x3F5D SWAP4 SWAP3 SWAP2 SWAP1 PUSH2 0x964C JUMP JUMPDEST PUSH1 0x40 MLOAD DUP1 SWAP2 SUB SWAP1 LOG1 PUSH2 0x43D9 JUMP JUMPDEST PUSH1 0x7 DUP1 DUP2 GT ISZERO PUSH2 0x3F7D JUMPI PUSH2 0x3F7C PUSH2 0xA4C8 JUMP JUMPDEST JUMPDEST PUSH1 0x4 PUSH1 0x0 CALLER PUSH20 0xFFFFFFFFFFFFFFFFFFFFFFFFFFFFFFFFFFFFFFFF AND PUSH20 0xFFFFFFFFFFFFFFFFFFFFFFFFFFFFFFFFFFFFFFFF AND DUP2 MSTORE PUSH1 0x20 ADD SWAP1 DUP2 MSTORE PUSH1 0x20 ADD PUSH1 0x0 KECCAK256 PUSH1 0x0 SWAP1 SLOAD SWAP1 PUSH2 0x100 EXP SWAP1 DIV PUSH1 0xFF AND PUSH1 0x7 DUP2 GT ISZERO PUSH2 0x3FDC JUMPI PUSH2 0x3FDB PUSH2 0xA4C8 JUMP JUMPDEST JUMPDEST EQ PUSH2 0x4022 JUMPI PUSH32 0xB2BFA9090D50AD1A62CB284547F85F0E78E3B3DCCA2D82C2ECE1A3E9ABF25266 CALLER PUSH1 0x0 DUP1 PUSH1 0x40 MLOAD PUSH2 0x4015 SWAP4 SWAP3 SWAP2 SWAP1 PUSH2 0x9AEC JUMP JUMPDEST PUSH1 0x40 MLOAD DUP1 SWAP2 SUB SWAP1 LOG1 PUSH2 0x43D8 JUMP JUMPDEST PUSH1 0x2 PUSH1 0x0 CALLER PUSH20 0xFFFFFFFFFFFFFFFFFFFFFFFFFFFFFFFFFFFFFFFF AND PUSH20 0xFFFFFFFFFFFFFFFFFFFFFFFFFFFFFFFFFFFFFFFF AND DUP2 MSTORE PUSH1 0x20 ADD SWAP1 DUP2 MSTORE PUSH1 0x20 ADD PUSH1 0x0 KECCAK256 PUSH1 0x3 ADD PUSH1 0x0 SWAP1 SLOAD SWAP1 PUSH2 0x100 EXP SWAP1 DIV PUSH1 0xFF AND PUSH2 0x40B7 JUMPI PUSH32 0xB2BFA9090D50AD1A62CB284547F85F0E78E3B3DCCA2D82C2ECE1A3E9ABF25266 CALLER PUSH1 0x0 DUP1 PUSH1 0x40 MLOAD PUSH2 0x40AA SWAP4 SWAP3 SWAP2 SWAP1 PUSH2 0x9240 JUMP JUMPDEST PUSH1 0x40 MLOAD DUP1 SWAP2 SUB SWAP1 LOG1 PUSH2 0x43D8 JUMP JUMPDEST PUSH1 0x0 PUSH1 0x5 DUP5 PUSH1 0x40 MLOAD PUSH2 0x40C9 SWAP2 SWAP1 PUSH2 0x9093 JUMP JUMPDEST SWAP1 DUP2 MSTORE PUSH1 0x20 ADD PUSH1 0x40 MLOAD DUP1 SWAP2 SUB SWAP1 KECCAK256 PUSH1 0x0 SWAP1 SLOAD SWAP1 PUSH2 0x100 EXP SWAP1 DIV PUSH20 0xFFFFFFFFFFFFFFFFFFFFFFFFFFFFFFFFFFFFFFFF AND SWAP1 POP PUSH1 0x6 PUSH1 0x7 DUP2 GT ISZERO PUSH2 0x410E JUMPI PUSH2 0x410D PUSH2 0xA4C8 JUMP JUMPDEST JUMPDEST PUSH1 0x4 PUSH1 0x0 DUP4 PUSH20 0xFFFFFFFFFFFFFFFFFFFFFFFFFFFFFFFFFFFFFFFF AND PUSH20 0xFFFFFFFFFFFFFFFFFFFFFFFFFFFFFFFFFFFFFFFF AND DUP2 MSTORE PUSH1 0x20 ADD SWAP1 DUP2 MSTORE PUSH1 0x20 ADD PUSH1 0x0 KECCAK256 PUSH1 0x0 SWAP1 SLOAD SWAP1 PUSH2 0x100 EXP SWAP1 DIV PUSH1 0xFF AND PUSH1 0x7 DUP2 GT ISZERO PUSH2 0x416D JUMPI PUSH2 0x416C PUSH2 0xA4C8 JUMP JUMPDEST JUMPDEST EQ DUP1 PUSH2 0x41E9 JUMPI POP PUSH1 0x5 PUSH1 0x7 DUP2 GT ISZERO PUSH2 0x4188 JUMPI PUSH2 0x4187 PUSH2 0xA4C8 JUMP JUMPDEST JUMPDEST PUSH1 0x4 PUSH1 0x0 DUP4 PUSH20 0xFFFFFFFFFFFFFFFFFFFFFFFFFFFFFFFFFFFFFFFF AND PUSH20 0xFFFFFFFFFFFFFFFFFFFFFFFFFFFFFFFFFFFFFFFF AND DUP2 MSTORE PUSH1 0x20 ADD SWAP1 DUP2 MSTORE PUSH1 0x20 ADD PUSH1 0x0 KECCAK256 PUSH1 0x0 SWAP1 SLOAD SWAP1 PUSH2 0x100 EXP SWAP1 DIV PUSH1 0xFF AND PUSH1 0x7 DUP2 GT ISZERO PUSH2 0x41E7 JUMPI PUSH2 0x41E6 PUSH2 0xA4C8 JUMP JUMPDEST JUMPDEST EQ JUMPDEST ISZERO PUSH2 0x425B JUMPI PUSH1 0x1 PUSH1 0x4 PUSH1 0x0 DUP4 PUSH20 0xFFFFFFFFFFFFFFFFFFFFFFFFFFFFFFFFFFFFFFFF AND PUSH20 0xFFFFFFFFFFFFFFFFFFFFFFFFFFFFFFFFFFFFFFFF AND DUP2 MSTORE PUSH1 0x20 ADD SWAP1 DUP2 MSTORE PUSH1 0x20 ADD PUSH1 0x0 KECCAK256 PUSH1 0x0 PUSH2 0x100 EXP DUP2 SLOAD DUP2 PUSH1 0xFF MUL NOT AND SWAP1 DUP4 PUSH1 0x7 DUP2 GT ISZERO PUSH2 0x4251 JUMPI PUSH2 0x4250 PUSH2 0xA4C8 JUMP JUMPDEST JUMPDEST MUL OR SWAP1 SSTORE POP PUSH2 0x4399 JUMP JUMPDEST PUSH1 0x7 DUP1 DUP2 GT ISZERO PUSH2 0x426E JUMPI PUSH2 0x426D PUSH2 0xA4C8 JUMP JUMPDEST JUMPDEST PUSH1 0x4 PUSH1 0x0 DUP4 PUSH20 0xFFFFFFFFFFFFFFFFFFFFFFFFFFFFFFFFFFFFFFFF AND PUSH20 0xFFFFFFFFFFFFFFFFFFFFFFFFFFFFFFFFFFFFFFFF AND DUP2 MSTORE PUSH1 0x20 ADD SWAP1 DUP2 MSTORE PUSH1 0x20 ADD PUSH1 0x0 KECCAK256 PUSH1 0x0 SWAP1 SLOAD SWAP1 PUSH2 0x100 EXP SWAP1 DIV PUSH1 0xFF AND PUSH1 0x7 DUP2 GT ISZERO PUSH2 0x42CD JUMPI PUSH2 0x42CC PUSH2 0xA4C8 JUMP JUMPDEST JUMPDEST EQ ISZERO PUSH2 0x4356 JUMPI PUSH1 0x2 PUSH1 0x0 DUP3 PUSH20 0xFFFFFFFFFFFFFFFFFFFFFFFFFFFFFFFFFFFFFFFF AND PUSH20 0xFFFFFFFFFFFFFFFFFFFFFFFFFFFFFFFFFFFFFFFF AND DUP2 MSTORE PUSH1 0x20 ADD SWAP1 DUP2 MSTORE PUSH1 0x20 ADD PUSH1 0x0 KECCAK256 PUSH1 0x0 DUP1 DUP3 ADD PUSH1 0x0 PUSH2 0x4323 SWAP2 SWAP1 PUSH2 0x7AC1 JUMP JUMPDEST PUSH1 0x1 DUP3 ADD PUSH1 0x0 PUSH2 0x4333 SWAP2 SWAP1 PUSH2 0x7AC1 JUMP JUMPDEST PUSH1 0x2 DUP3 ADD PUSH1 0x0 SWAP1 SSTORE PUSH1 0x3 DUP3 ADD PUSH1 0x0 PUSH2 0x100 EXP DUP2 SLOAD SWAP1 PUSH1 0xFF MUL NOT AND SWAP1 SSTORE POP POP PUSH2 0x4398 JUMP JUMPDEST PUSH32 0xB2BFA9090D50AD1A62CB284547F85F0E78E3B3DCCA2D82C2ECE1A3E9ABF25266 CALLER PUSH1 0x0 DUP1 PUSH1 0x40 MLOAD PUSH2 0x438A SWAP4 SWAP3 SWAP2 SWAP1 PUSH2 0x95B8 JUMP JUMPDEST PUSH1 0x40 MLOAD DUP1 SWAP2 SUB SWAP1 LOG1 POP PUSH2 0x43D7 JUMP JUMPDEST JUMPDEST PUSH32 0xB2BFA9090D50AD1A62CB284547F85F0E78E3B3DCCA2D82C2ECE1A3E9ABF25266 CALLER PUSH1 0x0 DUP1 PUSH1 0x40 MLOAD PUSH2 0x43CD SWAP4 SWAP3 SWAP2 SWAP1 PUSH2 0x96E0 JUMP JUMPDEST PUSH1 0x40 MLOAD DUP1 SWAP2 SUB SWAP1 LOG1 POP JUMPDEST JUMPDEST JUMPDEST POP POP POP POP POP JUMP JUMPDEST PUSH1 0x8 DUP2 DUP2 SLOAD DUP2 LT PUSH2 0x43F0 JUMPI PUSH1 0x0 DUP1 REVERT JUMPDEST SWAP1 PUSH1 0x0 MSTORE PUSH1 0x20 PUSH1 0x0 KECCAK256 ADD PUSH1 0x0 SWAP2 POP SWAP1 POP DUP1 SLOAD PUSH2 0x440B SWAP1 PUSH2 0xA3ED JUMP JUMPDEST DUP1 PUSH1 0x1F ADD PUSH1 0x20 DUP1 SWAP2 DIV MUL PUSH1 0x20 ADD PUSH1 0x40 MLOAD SWAP1 DUP2 ADD PUSH1 0x40 MSTORE DUP1 SWAP3 SWAP2 SWAP1 DUP2 DUP2 MSTORE PUSH1 0x20 ADD DUP3 DUP1 SLOAD PUSH2 0x4437 SWAP1 PUSH2 0xA3ED JUMP JUMPDEST DUP1 ISZERO PUSH2 0x4484 JUMPI DUP1 PUSH1 0x1F LT PUSH2 0x4459 JUMPI PUSH2 0x100 DUP1 DUP4 SLOAD DIV MUL DUP4 MSTORE SWAP2 PUSH1 0x20 ADD SWAP2 PUSH2 0x4484 JUMP JUMPDEST DUP3 ADD SWAP2 SWAP1 PUSH1 0x0 MSTORE PUSH1 0x20 PUSH1 0x0 KECCAK256 SWAP1 JUMPDEST DUP2 SLOAD DUP2 MSTORE SWAP1 PUSH1 0x1 ADD SWAP1 PUSH1 0x20 ADD DUP1 DUP4 GT PUSH2 0x4467 JUMPI DUP3 SWAP1 SUB PUSH1 0x1F AND DUP3 ADD SWAP2 JUMPDEST POP POP POP POP POP DUP2 JUMP JUMPDEST PUSH1 0x60 PUSH1 0x2 PUSH1 0x0 DUP4 PUSH20 0xFFFFFFFFFFFFFFFFFFFFFFFFFFFFFFFFFFFFFFFF AND PUSH20 0xFFFFFFFFFFFFFFFFFFFFFFFFFFFFFFFFFFFFFFFF AND DUP2 MSTORE PUSH1 0x20 ADD SWAP1 DUP2 MSTORE PUSH1 0x20 ADD PUSH1 0x0 KECCAK256 PUSH1 0x1 ADD DUP1 SLOAD PUSH2 0x44DB SWAP1 PUSH2 0xA3ED JUMP JUMPDEST DUP1 PUSH1 0x1F ADD PUSH1 0x20 DUP1 SWAP2 DIV MUL PUSH1 0x20 ADD PUSH1 0x40 MLOAD SWAP1 DUP2 ADD PUSH1 0x40 MSTORE DUP1 SWAP3 SWAP2 SWAP1 DUP2 DUP2 MSTORE PUSH1 0x20 ADD DUP3 DUP1 SLOAD PUSH2 0x4507 SWAP1 PUSH2 0xA3ED JUMP JUMPDEST DUP1 ISZERO PUSH2 0x4554 JUMPI DUP1 PUSH1 0x1F LT PUSH2 0x4529 JUMPI PUSH2 0x100 DUP1 DUP4 SLOAD DIV MUL DUP4 MSTORE SWAP2 PUSH1 0x20 ADD SWAP2 PUSH2 0x4554 JUMP JUMPDEST DUP3 ADD SWAP2 SWAP1 PUSH1 0x0 MSTORE PUSH1 0x20 PUSH1 0x0 KECCAK256 SWAP1 JUMPDEST DUP2 SLOAD DUP2 MSTORE SWAP1 PUSH1 0x1 ADD SWAP1 PUSH1 0x20 ADD DUP1 DUP4 GT PUSH2 0x4537 JUMPI DUP3 SWAP1 SUB PUSH1 0x1F AND DUP3 ADD SWAP2 JUMPDEST POP POP POP POP POP SWAP1 POP SWAP2 SWAP1 POP JUMP JUMPDEST PUSH1 0x60 PUSH1 0x9 DUP1 SLOAD DUP1 PUSH1 0x20 MUL PUSH1 0x20 ADD PUSH1 0x40 MLOAD SWAP1 DUP2 ADD PUSH1 0x40 MSTORE DUP1 SWAP3 SWAP2 SWAP1 DUP2 DUP2 MSTORE PUSH1 0x20 ADD PUSH1 0x0 SWAP1 JUMPDEST DUP3 DUP3 LT ISZERO PUSH2 0x4630 JUMPI DUP4 DUP3 SWAP1 PUSH1 0x0 MSTORE PUSH1 0x20 PUSH1 0x0 KECCAK256 ADD DUP1 SLOAD PUSH2 0x45A3 SWAP1 PUSH2 0xA3ED JUMP JUMPDEST DUP1 PUSH1 0x1F ADD PUSH1 0x20 DUP1 SWAP2 DIV MUL PUSH1 0x20 ADD PUSH1 0x40 MLOAD SWAP1 DUP2 ADD PUSH1 0x40 MSTORE DUP1 SWAP3 SWAP2 SWAP1 DUP2 DUP2 MSTORE PUSH1 0x20 ADD DUP3 DUP1 SLOAD PUSH2 0x45CF SWAP1 PUSH2 0xA3ED JUMP JUMPDEST DUP1 ISZERO PUSH2 0x461C JUMPI DUP1 PUSH1 0x1F LT PUSH2 0x45F1 JUMPI PUSH2 0x100 DUP1 DUP4 SLOAD DIV MUL DUP4 MSTORE SWAP2 PUSH1 0x20 ADD SWAP2 PUSH2 0x461C JUMP JUMPDEST DUP3 ADD SWAP2 SWAP1 PUSH1 0x0 MSTORE PUSH1 0x20 PUSH1 0x0 KECCAK256 SWAP1 JUMPDEST DUP2 SLOAD DUP2 MSTORE SWAP1 PUSH1 0x1 ADD SWAP1 PUSH1 0x20 ADD DUP1 DUP4 GT PUSH2 0x45FF JUMPI DUP3 SWAP1 SUB PUSH1 0x1F AND DUP3 ADD SWAP2 JUMPDEST POP POP POP POP POP DUP2 MSTORE PUSH1 0x20 ADD SWAP1 PUSH1 0x1 ADD SWAP1 PUSH2 0x4584 JUMP JUMPDEST POP POP POP POP SWAP1 POP SWAP1 JUMP JUMPDEST PUSH1 0x60 PUSH1 0xA DUP1 SLOAD DUP1 PUSH1 0x20 MUL PUSH1 0x20 ADD PUSH1 0x40 MLOAD SWAP1 DUP2 ADD PUSH1 0x40 MSTORE DUP1 SWAP3 SWAP2 SWAP1 DUP2 DUP2 MSTORE PUSH1 0x20 ADD PUSH1 0x0 SWAP1 JUMPDEST DUP3 DUP3 LT ISZERO PUSH2 0x4709 JUMPI DUP4 DUP3 SWAP1 PUSH1 0x0 MSTORE PUSH1 0x20 PUSH1 0x0 KECCAK256 ADD DUP1 SLOAD PUSH2 0x467C SWAP1 PUSH2 0xA3ED JUMP JUMPDEST DUP1 PUSH1 0x1F ADD PUSH1 0x20 DUP1 SWAP2 DIV MUL PUSH1 0x20 ADD PUSH1 0x40 MLOAD SWAP1 DUP2 ADD PUSH1 0x40 MSTORE DUP1 SWAP3 SWAP2 SWAP1 DUP2 DUP2 MSTORE PUSH1 0x20 ADD DUP3 DUP1 SLOAD PUSH2 0x46A8 SWAP1 PUSH2 0xA3ED JUMP JUMPDEST DUP1 ISZERO PUSH2 0x46F5 JUMPI DUP1 PUSH1 0x1F LT PUSH2 0x46CA JUMPI PUSH2 0x100 DUP1 DUP4 SLOAD DIV MUL DUP4 MSTORE SWAP2 PUSH1 0x20 ADD SWAP2 PUSH2 0x46F5 JUMP JUMPDEST DUP3 ADD SWAP2 SWAP1 PUSH1 0x0 MSTORE PUSH1 0x20 PUSH1 0x0 KECCAK256 SWAP1 JUMPDEST DUP2 SLOAD DUP2 MSTORE SWAP1 PUSH1 0x1 ADD SWAP1 PUSH1 0x20 ADD DUP1 DUP4 GT PUSH2 0x46D8 JUMPI DUP3 SWAP1 SUB PUSH1 0x1F AND DUP3 ADD SWAP2 JUMPDEST POP POP POP POP POP DUP2 MSTORE PUSH1 0x20 ADD SWAP1 PUSH1 0x1 ADD SWAP1 PUSH2 0x465D JUMP JUMPDEST POP POP POP POP SWAP1 POP SWAP1 JUMP JUMPDEST PUSH1 0x9 DUP2 DUP2 SLOAD DUP2 LT PUSH2 0x4722 JUMPI PUSH1 0x0 DUP1 REVERT JUMPDEST SWAP1 PUSH1 0x0 MSTORE PUSH1 0x20 PUSH1 0x0 KECCAK256 ADD PUSH1 0x0 SWAP2 POP SWAP1 POP DUP1 SLOAD PUSH2 0x473D SWAP1 PUSH2 0xA3ED JUMP JUMPDEST DUP1 PUSH1 0x1F ADD PUSH1 0x20 DUP1 SWAP2 DIV MUL PUSH1 0x20 ADD PUSH1 0x40 MLOAD SWAP1 DUP2 ADD PUSH1 0x40 MSTORE DUP1 SWAP3 SWAP2 SWAP1 DUP2 DUP2 MSTORE PUSH1 0x20 ADD DUP3 DUP1 SLOAD PUSH2 0x4769 SWAP1 PUSH2 0xA3ED JUMP JUMPDEST DUP1 ISZERO PUSH2 0x47B6 JUMPI DUP1 PUSH1 0x1F LT PUSH2 0x478B JUMPI PUSH2 0x100 DUP1 DUP4 SLOAD DIV MUL DUP4 MSTORE SWAP2 PUSH1 0x20 ADD SWAP2 PUSH2 0x47B6 JUMP JUMPDEST DUP3 ADD SWAP2 SWAP1 PUSH1 0x0 MSTORE PUSH1 0x20 PUSH1 0x0 KECCAK256 SWAP1 JUMPDEST DUP2 SLOAD DUP2 MSTORE SWAP1 PUSH1 0x1 ADD SWAP1 PUSH1 0x20 ADD DUP1 DUP4 GT PUSH2 0x4799 JUMPI DUP3 SWAP1 SUB PUSH1 0x1F AND DUP3 ADD SWAP2 JUMPDEST POP POP POP POP POP DUP2 JUMP JUMPDEST PUSH2 0x47C8 DUP4 DUP4 PUSH2 0x74FF JUMP JUMPDEST ISZERO PUSH2 0x4A31 JUMPI PUSH1 0x4 PUSH1 0x7 DUP2 GT ISZERO PUSH2 0x47E1 JUMPI PUSH2 0x47E0 PUSH2 0xA4C8 JUMP JUMPDEST JUMPDEST PUSH1 0x4 PUSH1 0x0 CALLER PUSH20 0xFFFFFFFFFFFFFFFFFFFFFFFFFFFFFFFFFFFFFFFF AND PUSH20 0xFFFFFFFFFFFFFFFFFFFFFFFFFFFFFFFFFFFFFFFF AND DUP2 MSTORE PUSH1 0x20 ADD SWAP1 DUP2 MSTORE PUSH1 0x20 ADD PUSH1 0x0 KECCAK256 PUSH1 0x0 SWAP1 SLOAD SWAP1 PUSH2 0x100 EXP SWAP1 DIV PUSH1 0xFF AND PUSH1 0x7 DUP2 GT ISZERO PUSH2 0x4840 JUMPI PUSH2 0x483F PUSH2 0xA4C8 JUMP JUMPDEST JUMPDEST EQ ISZERO PUSH2 0x49F3 JUMPI PUSH1 0x0 PUSH1 0x2 PUSH1 0x0 CALLER PUSH20 0xFFFFFFFFFFFFFFFFFFFFFFFFFFFFFFFFFFFFFFFF AND PUSH20 0xFFFFFFFFFFFFFFFFFFFFFFFFFFFFFFFFFFFFFFFF AND DUP2 MSTORE PUSH1 0x20 ADD SWAP1 DUP2 MSTORE PUSH1 0x20 ADD PUSH1 0x0 KECCAK256 SWAP1 POP DUP4 DUP2 PUSH1 0x0 ADD SWAP1 DUP1 MLOAD SWAP1 PUSH1 0x20 ADD SWAP1 PUSH2 0x48A1 SWAP3 SWAP2 SWAP1 PUSH2 0x7A3B JUMP JUMPDEST POP DUP4 DUP4 PUSH1 0x40 MLOAD PUSH1 0x20 ADD PUSH2 0x48B5 SWAP3 SWAP2 SWAP1 PUSH2 0x90AA JUMP JUMPDEST PUSH1 0x40 MLOAD PUSH1 0x20 DUP2 DUP4 SUB SUB DUP2 MSTORE SWAP1 PUSH1 0x40 MSTORE DUP1 MLOAD SWAP1 PUSH1 0x20 ADD KECCAK256 DUP2 PUSH1 0x2 ADD DUP2 SWAP1 SSTORE POP DUP2 DUP2 PUSH1 0x1 ADD SWAP1 DUP1 MLOAD SWAP1 PUSH1 0x20 ADD SWAP1 PUSH2 0x48EB SWAP3 SWAP2 SWAP1 PUSH2 0x7A3B JUMP JUMPDEST POP CALLER PUSH1 0x5 DUP6 PUSH1 0x40 MLOAD PUSH2 0x48FD SWAP2 SWAP1 PUSH2 0x9093 JUMP JUMPDEST SWAP1 DUP2 MSTORE PUSH1 0x20 ADD PUSH1 0x40 MLOAD DUP1 SWAP2 SUB SWAP1 KECCAK256 PUSH1 0x0 PUSH2 0x100 EXP DUP2 SLOAD DUP2 PUSH20 0xFFFFFFFFFFFFFFFFFFFFFFFFFFFFFFFFFFFFFFFF MUL NOT AND SWAP1 DUP4 PUSH20 0xFFFFFFFFFFFFFFFFFFFFFFFFFFFFFFFFFFFFFFFF AND MUL OR SWAP1 SSTORE POP PUSH1 0x7 PUSH1 0x4 PUSH1 0x0 CALLER PUSH20 0xFFFFFFFFFFFFFFFFFFFFFFFFFFFFFFFFFFFFFFFF AND PUSH20 0xFFFFFFFFFFFFFFFFFFFFFFFFFFFFFFFFFFFFFFFF AND DUP2 MSTORE PUSH1 0x20 ADD SWAP1 DUP2 MSTORE PUSH1 0x20 ADD PUSH1 0x0 KECCAK256 PUSH1 0x0 PUSH2 0x100 EXP DUP2 SLOAD DUP2 PUSH1 0xFF MUL NOT AND SWAP1 DUP4 PUSH1 0x7 DUP2 GT ISZERO PUSH2 0x49AC JUMPI PUSH2 0x49AB PUSH2 0xA4C8 JUMP JUMPDEST JUMPDEST MUL OR SWAP1 SSTORE POP PUSH32 0xB2BFA9090D50AD1A62CB284547F85F0E78E3B3DCCA2D82C2ECE1A3E9ABF25266 CALLER PUSH1 0x0 DUP1 PUSH1 0x40 MLOAD PUSH2 0x49E5 SWAP4 SWAP3 SWAP2 SWAP1 PUSH2 0x9930 JUMP JUMPDEST PUSH1 0x40 MLOAD DUP1 SWAP2 SUB SWAP1 LOG1 POP PUSH2 0x4A30 JUMP JUMPDEST PUSH32 0xB2BFA9090D50AD1A62CB284547F85F0E78E3B3DCCA2D82C2ECE1A3E9ABF25266 CALLER PUSH1 0x0 DUP1 PUSH1 0x40 MLOAD PUSH2 0x4A27 SWAP4 SWAP3 SWAP2 SWAP1 PUSH2 0x90CE JUMP JUMPDEST PUSH1 0x40 MLOAD DUP1 SWAP2 SUB SWAP1 LOG1 JUMPDEST JUMPDEST POP POP POP JUMP JUMPDEST DUP3 PUSH1 0x0 DUP2 MLOAD EQ PUSH2 0x4AD1 JUMPI PUSH1 0x0 JUMPDEST DUP2 MLOAD DUP2 LT ISZERO PUSH2 0x4ACB JUMPI PUSH1 0x8 DUP1 SLOAD SWAP1 POP DUP3 DUP3 DUP2 MLOAD DUP2 LT PUSH2 0x4A65 JUMPI PUSH2 0x4A64 PUSH2 0xA526 JUMP JUMPDEST JUMPDEST PUSH1 0x20 MUL PUSH1 0x20 ADD ADD MLOAD PUSH2 0xFFFF AND LT PUSH2 0x4AB8 JUMPI PUSH32 0xB2BFA9090D50AD1A62CB284547F85F0E78E3B3DCCA2D82C2ECE1A3E9ABF25266 CALLER PUSH1 0x0 DUP1 PUSH1 0x40 MLOAD PUSH2 0x4AAA SWAP4 SWAP3 SWAP2 SWAP1 PUSH2 0x93FC JUMP JUMPDEST PUSH1 0x40 MLOAD DUP1 SWAP2 SUB SWAP1 LOG1 POP PUSH2 0x4EE0 JUMP JUMPDEST DUP1 DUP1 PUSH2 0x4AC3 SWAP1 PUSH2 0xA450 JUMP JUMPDEST SWAP2 POP POP PUSH2 0x4A43 JUMP JUMPDEST POP PUSH2 0x4B12 JUMP JUMPDEST PUSH32 0xB2BFA9090D50AD1A62CB284547F85F0E78E3B3DCCA2D82C2ECE1A3E9ABF25266 CALLER PUSH1 0x0 DUP1 PUSH1 0x40 MLOAD PUSH2 0x4B05 SWAP4 SWAP3 SWAP2 SWAP1 PUSH2 0x9368 JUMP JUMPDEST PUSH1 0x40 MLOAD DUP1 SWAP2 SUB SWAP1 LOG1 PUSH2 0x4EE0 JUMP JUMPDEST PUSH2 0x4B1C DUP8 DUP8 PUSH2 0x74FF JUMP JUMPDEST ISZERO PUSH2 0x4EDE JUMPI PUSH1 0x2 PUSH1 0x7 DUP2 GT ISZERO PUSH2 0x4B35 JUMPI PUSH2 0x4B34 PUSH2 0xA4C8 JUMP JUMPDEST JUMPDEST PUSH1 0x4 PUSH1 0x0 CALLER PUSH20 0xFFFFFFFFFFFFFFFFFFFFFFFFFFFFFFFFFFFFFFFF AND PUSH20 0xFFFFFFFFFFFFFFFFFFFFFFFFFFFFFFFFFFFFFFFF AND DUP2 MSTORE PUSH1 0x20 ADD SWAP1 DUP2 MSTORE PUSH1 0x20 ADD PUSH1 0x0 KECCAK256 PUSH1 0x0 SWAP1 SLOAD SWAP1 PUSH2 0x100 EXP SWAP1 DIV PUSH1 0xFF AND PUSH1 0x7 DUP2 GT ISZERO PUSH2 0x4B94 JUMPI PUSH2 0x4B93 PUSH2 0xA4C8 JUMP JUMPDEST JUMPDEST EQ ISZERO PUSH2 0x4EA0 JUMPI PUSH1 0x0 DUP4 MLOAD EQ PUSH2 0x4E5E JUMPI PUSH1 0x0 JUMPDEST DUP4 MLOAD DUP2 LT ISZERO PUSH2 0x4C2E JUMPI PUSH1 0x9 DUP1 SLOAD SWAP1 POP DUP5 DUP3 DUP2 MLOAD DUP2 LT PUSH2 0x4BC8 JUMPI PUSH2 0x4BC7 PUSH2 0xA526 JUMP JUMPDEST JUMPDEST PUSH1 0x20 MUL PUSH1 0x20 ADD ADD MLOAD PUSH2 0xFFFF AND LT PUSH2 0x4C1B JUMPI PUSH32 0xB2BFA9090D50AD1A62CB284547F85F0E78E3B3DCCA2D82C2ECE1A3E9ABF25266 CALLER PUSH1 0x0 DUP1 PUSH1 0x40 MLOAD PUSH2 0x4C0D SWAP4 SWAP3 SWAP2 SWAP1 PUSH2 0x94DA JUMP JUMPDEST PUSH1 0x40 MLOAD DUP1 SWAP2 SUB SWAP1 LOG1 POP PUSH2 0x4EDF JUMP JUMPDEST DUP1 DUP1 PUSH2 0x4C26 SWAP1 PUSH2 0xA450 JUMP JUMPDEST SWAP2 POP POP PUSH2 0x4BA6 JUMP JUMPDEST POP PUSH1 0x0 PUSH1 0x1 PUSH1 0x0 CALLER PUSH20 0xFFFFFFFFFFFFFFFFFFFFFFFFFFFFFFFFFFFFFFFF AND PUSH20 0xFFFFFFFFFFFFFFFFFFFFFFFFFFFFFFFFFFFFFFFF AND DUP2 MSTORE PUSH1 0x20 ADD SWAP1 DUP2 MSTORE PUSH1 0x20 ADD PUSH1 0x0 KECCAK256 SWAP1 POP DUP8 DUP2 PUSH1 0x0 ADD SWAP1 DUP1 MLOAD SWAP1 PUSH1 0x20 ADD SWAP1 PUSH2 0x4C8A SWAP3 SWAP2 SWAP1 PUSH2 0x7A3B JUMP JUMPDEST POP DUP8 DUP8 PUSH1 0x40 MLOAD PUSH1 0x20 ADD PUSH2 0x4C9E SWAP3 SWAP2 SWAP1 PUSH2 0x90AA JUMP JUMPDEST PUSH1 0x40 MLOAD PUSH1 0x20 DUP2 DUP4 SUB SUB DUP2 MSTORE SWAP1 PUSH1 0x40 MSTORE DUP1 MLOAD SWAP1 PUSH1 0x20 ADD KECCAK256 DUP2 PUSH1 0x6 ADD DUP2 SWAP1 SSTORE POP DUP6 DUP2 PUSH1 0x1 ADD SWAP1 DUP1 MLOAD SWAP1 PUSH1 0x20 ADD SWAP1 PUSH2 0x4CD4 SWAP3 SWAP2 SWAP1 PUSH2 0x7A3B JUMP JUMPDEST POP DUP5 DUP2 PUSH1 0x4 ADD SWAP1 DUP1 MLOAD SWAP1 PUSH1 0x20 ADD SWAP1 PUSH2 0x4CED SWAP3 SWAP2 SWAP1 PUSH2 0x7B01 JUMP JUMPDEST POP DUP4 DUP2 PUSH1 0x5 ADD SWAP1 DUP1 MLOAD SWAP1 PUSH1 0x20 ADD SWAP1 PUSH2 0x4D06 SWAP3 SWAP2 SWAP1 PUSH2 0x7B01 JUMP JUMPDEST POP DUP3 DUP2 PUSH1 0x2 ADD SWAP1 DUP1 MLOAD SWAP1 PUSH1 0x20 ADD SWAP1 PUSH2 0x4D1F SWAP3 SWAP2 SWAP1 PUSH2 0x7A3B JUMP JUMPDEST POP CALLER PUSH1 0x5 DUP10 PUSH1 0x40 MLOAD PUSH2 0x4D31 SWAP2 SWAP1 PUSH2 0x9093 JUMP JUMPDEST SWAP1 DUP2 MSTORE PUSH1 0x20 ADD PUSH1 0x40 MLOAD DUP1 SWAP2 SUB SWAP1 KECCAK256 PUSH1 0x0 PUSH2 0x100 EXP DUP2 SLOAD DUP2 PUSH20 0xFFFFFFFFFFFFFFFFFFFFFFFFFFFFFFFFFFFFFFFF MUL NOT AND SWAP1 DUP4 PUSH20 0xFFFFFFFFFFFFFFFFFFFFFFFFFFFFFFFFFFFFFFFF AND MUL OR SWAP1 SSTORE POP PUSH1 0x5 PUSH1 0x4 PUSH1 0x0 CALLER PUSH20 0xFFFFFFFFFFFFFFFFFFFFFFFFFFFFFFFFFFFFFFFF AND PUSH20 0xFFFFFFFFFFFFFFFFFFFFFFFFFFFFFFFFFFFFFFFF AND DUP2 MSTORE PUSH1 0x20 ADD SWAP1 DUP2 MSTORE PUSH1 0x20 ADD PUSH1 0x0 KECCAK256 PUSH1 0x0 PUSH2 0x100 EXP DUP2 SLOAD DUP2 PUSH1 0xFF MUL NOT AND SWAP1 DUP4 PUSH1 0x7 DUP2 GT ISZERO PUSH2 0x4DE0 JUMPI PUSH2 0x4DDF PUSH2 0xA4C8 JUMP JUMPDEST JUMPDEST MUL OR SWAP1 SSTORE POP PUSH1 0x1 PUSH1 0x3 DUP5 PUSH1 0x40 MLOAD PUSH2 0x4DF7 SWAP2 SWAP1 PUSH2 0x9093 JUMP JUMPDEST SWAP1 DUP2 MSTORE PUSH1 0x20 ADD PUSH1 0x40 MLOAD DUP1 SWAP2 SUB SWAP1 KECCAK256 PUSH1 0x0 PUSH2 0x100 EXP DUP2 SLOAD DUP2 PUSH1 0xFF MUL NOT AND SWAP1 DUP4 ISZERO ISZERO MUL OR SWAP1 SSTORE POP PUSH32 0xB2BFA9090D50AD1A62CB284547F85F0E78E3B3DCCA2D82C2ECE1A3E9ABF25266 CALLER PUSH1 0x0 DUP1 PUSH1 0x40 MLOAD PUSH2 0x4E50 SWAP4 SWAP3 SWAP2 SWAP1 PUSH2 0x98E6 JUMP JUMPDEST PUSH1 0x40 MLOAD DUP1 SWAP2 SUB SWAP1 LOG1 POP PUSH2 0x4E9B JUMP JUMPDEST PUSH32 0xB2BFA9090D50AD1A62CB284547F85F0E78E3B3DCCA2D82C2ECE1A3E9ABF25266 CALLER PUSH1 0x0 DUP1 PUSH1 0x40 MLOAD PUSH2 0x4E92 SWAP4 SWAP3 SWAP2 SWAP1 PUSH2 0x91AC JUMP JUMPDEST PUSH1 0x40 MLOAD DUP1 SWAP2 SUB SWAP1 LOG1 JUMPDEST PUSH2 0x4EDD JUMP JUMPDEST PUSH32 0xB2BFA9090D50AD1A62CB284547F85F0E78E3B3DCCA2D82C2ECE1A3E9ABF25266 CALLER PUSH1 0x0 DUP1 PUSH1 0x40 MLOAD PUSH2 0x4ED4 SWAP4 SWAP3 SWAP2 SWAP1 PUSH2 0x92D4 JUMP JUMPDEST PUSH1 0x40 MLOAD DUP1 SWAP2 SUB SWAP1 LOG1 JUMPDEST JUMPDEST JUMPDEST JUMPDEST POP POP POP POP POP POP POP JUMP JUMPDEST PUSH2 0x4EF3 DUP7 DUP7 PUSH2 0x74FF JUMP JUMPDEST ISZERO PUSH2 0x52E5 JUMPI PUSH1 0xB DUP4 PUSH1 0xFF AND GT ISZERO DUP1 ISZERO PUSH2 0x4F10 JUMPI POP PUSH1 0x1 DUP4 PUSH1 0xFF AND LT ISZERO JUMPDEST ISZERO PUSH2 0x52A7 JUMPI PUSH1 0x2 DUP3 MLOAD EQ ISZERO PUSH2 0x5265 JUMPI PUSH1 0x3 PUSH1 0x7 DUP2 GT ISZERO PUSH2 0x4F33 JUMPI PUSH2 0x4F32 PUSH2 0xA4C8 JUMP JUMPDEST JUMPDEST PUSH1 0x4 PUSH1 0x0 CALLER PUSH20 0xFFFFFFFFFFFFFFFFFFFFFFFFFFFFFFFFFFFFFFFF AND PUSH20 0xFFFFFFFFFFFFFFFFFFFFFFFFFFFFFFFFFFFFFFFF AND DUP2 MSTORE PUSH1 0x20 ADD SWAP1 DUP2 MSTORE PUSH1 0x20 ADD PUSH1 0x0 KECCAK256 PUSH1 0x0 SWAP1 SLOAD SWAP1 PUSH2 0x100 EXP SWAP1 DIV PUSH1 0xFF AND PUSH1 0x7 DUP2 GT ISZERO PUSH2 0x4F92 JUMPI PUSH2 0x4F91 PUSH2 0xA4C8 JUMP JUMPDEST JUMPDEST EQ ISZERO PUSH2 0x5223 JUMPI PUSH1 0x3 DUP2 PUSH1 0x40 MLOAD PUSH2 0x4FA8 SWAP2 SWAP1 PUSH2 0x9093 JUMP JUMPDEST SWAP1 DUP2 MSTORE PUSH1 0x20 ADD PUSH1 0x40 MLOAD DUP1 SWAP2 SUB SWAP1 KECCAK256 PUSH1 0x0 SWAP1 SLOAD SWAP1 PUSH2 0x100 EXP SWAP1 DIV PUSH1 0xFF AND PUSH2 0x51E1 JUMPI PUSH1 0x0 DUP1 PUSH1 0x0 CALLER PUSH20 0xFFFFFFFFFFFFFFFFFFFFFFFFFFFFFFFFFFFFFFFF AND PUSH20 0xFFFFFFFFFFFFFFFFFFFFFFFFFFFFFFFFFFFFFFFF AND DUP2 MSTORE PUSH1 0x20 ADD SWAP1 DUP2 MSTORE PUSH1 0x20 ADD PUSH1 0x0 KECCAK256 SWAP1 POP DUP7 DUP2 PUSH1 0x0 ADD SWAP1 DUP1 MLOAD SWAP1 PUSH1 0x20 ADD SWAP1 PUSH2 0x5022 SWAP3 SWAP2 SWAP1 PUSH2 0x7A3B JUMP JUMPDEST POP DUP7 DUP7 PUSH1 0x40 MLOAD PUSH1 0x20 ADD PUSH2 0x5036 SWAP3 SWAP2 SWAP1 PUSH2 0x90AA JUMP JUMPDEST PUSH1 0x40 MLOAD PUSH1 0x20 DUP2 DUP4 SUB SUB DUP2 MSTORE SWAP1 PUSH1 0x40 MSTORE DUP1 MLOAD SWAP1 PUSH1 0x20 ADD KECCAK256 DUP2 PUSH1 0x6 ADD DUP2 SWAP1 SSTORE POP DUP5 DUP2 PUSH1 0x1 ADD SWAP1 DUP1 MLOAD SWAP1 PUSH1 0x20 ADD SWAP1 PUSH2 0x506C SWAP3 SWAP2 SWAP1 PUSH2 0x7A3B JUMP JUMPDEST POP DUP4 DUP2 PUSH1 0x5 ADD PUSH1 0x0 PUSH2 0x100 EXP DUP2 SLOAD DUP2 PUSH1 0xFF MUL NOT AND SWAP1 DUP4 PUSH1 0xFF AND MUL OR SWAP1 SSTORE POP DUP3 DUP2 PUSH1 0x2 ADD SWAP1 DUP1 MLOAD SWAP1 PUSH1 0x20 ADD SWAP1 PUSH2 0x50A2 SWAP3 SWAP2 SWAP1 PUSH2 0x7A3B JUMP JUMPDEST POP PUSH1 0x1 PUSH1 0x3 DUP4 PUSH1 0x40 MLOAD PUSH2 0x50B5 SWAP2 SWAP1 PUSH2 0x9093 JUMP JUMPDEST SWAP1 DUP2 MSTORE PUSH1 0x20 ADD PUSH1 0x40 MLOAD DUP1 SWAP2 SUB SWAP1 KECCAK256 PUSH1 0x0 PUSH2 0x100 EXP DUP2 SLOAD DUP2 PUSH1 0xFF MUL NOT AND SWAP1 DUP4 ISZERO ISZERO MUL OR SWAP1 SSTORE POP CALLER PUSH1 0x5 DUP9 PUSH1 0x40 MLOAD PUSH2 0x50EB SWAP2 SWAP1 PUSH2 0x9093 JUMP JUMPDEST SWAP1 DUP2 MSTORE PUSH1 0x20 ADD PUSH1 0x40 MLOAD DUP1 SWAP2 SUB SWAP1 KECCAK256 PUSH1 0x0 PUSH2 0x100 EXP DUP2 SLOAD DUP2 PUSH20 0xFFFFFFFFFFFFFFFFFFFFFFFFFFFFFFFFFFFFFFFF MUL NOT AND SWAP1 DUP4 PUSH20 0xFFFFFFFFFFFFFFFFFFFFFFFFFFFFFFFFFFFFFFFF AND MUL OR SWAP1 SSTORE POP PUSH1 0x6 PUSH1 0x4 PUSH1 0x0 CALLER PUSH20 0xFFFFFFFFFFFFFFFFFFFFFFFFFFFFFFFFFFFFFFFF AND PUSH20 0xFFFFFFFFFFFFFFFFFFFFFFFFFFFFFFFFFFFFFFFF AND DUP2 MSTORE PUSH1 0x20 ADD SWAP1 DUP2 MSTORE PUSH1 0x20 ADD PUSH1 0x0 KECCAK256 PUSH1 0x0 PUSH2 0x100 EXP DUP2 SLOAD DUP2 PUSH1 0xFF MUL NOT AND SWAP1 DUP4 PUSH1 0x7 DUP2 GT ISZERO PUSH2 0x519A JUMPI PUSH2 0x5199 PUSH2 0xA4C8 JUMP JUMPDEST JUMPDEST MUL OR SWAP1 SSTORE POP PUSH32 0xB2BFA9090D50AD1A62CB284547F85F0E78E3B3DCCA2D82C2ECE1A3E9ABF25266 CALLER PUSH1 0x0 DUP1 PUSH1 0x40 MLOAD PUSH2 0x51D3 SWAP4 SWAP3 SWAP2 SWAP1 PUSH2 0x956E JUMP JUMPDEST PUSH1 0x40 MLOAD DUP1 SWAP2 SUB SWAP1 LOG1 POP PUSH2 0x521E JUMP JUMPDEST PUSH32 0xB2BFA9090D50AD1A62CB284547F85F0E78E3B3DCCA2D82C2ECE1A3E9ABF25266 CALLER PUSH1 0x0 DUP1 PUSH1 0x40 MLOAD PUSH2 0x5215 SWAP4 SWAP3 SWAP2 SWAP1 PUSH2 0x972A JUMP JUMPDEST PUSH1 0x40 MLOAD DUP1 SWAP2 SUB SWAP1 LOG1 JUMPDEST PUSH2 0x5260 JUMP JUMPDEST PUSH32 0xB2BFA9090D50AD1A62CB284547F85F0E78E3B3DCCA2D82C2ECE1A3E9ABF25266 CALLER PUSH1 0x0 DUP1 PUSH1 0x40 MLOAD PUSH2 0x5257 SWAP4 SWAP3 SWAP2 SWAP1 PUSH2 0x92D4 JUMP JUMPDEST PUSH1 0x40 MLOAD DUP1 SWAP2 SUB SWAP1 LOG1 JUMPDEST PUSH2 0x52A2 JUMP JUMPDEST PUSH32 0xB2BFA9090D50AD1A62CB284547F85F0E78E3B3DCCA2D82C2ECE1A3E9ABF25266 CALLER PUSH1 0x0 DUP1 PUSH1 0x40 MLOAD PUSH2 0x5299 SWAP4 SWAP3 SWAP2 SWAP1 PUSH2 0x93B2 JUMP JUMPDEST PUSH1 0x40 MLOAD DUP1 SWAP2 SUB SWAP1 LOG1 JUMPDEST PUSH2 0x52E4 JUMP JUMPDEST PUSH32 0xB2BFA9090D50AD1A62CB284547F85F0E78E3B3DCCA2D82C2ECE1A3E9ABF25266 CALLER PUSH1 0x0 DUP1 PUSH1 0x40 MLOAD PUSH2 0x52DB SWAP4 SWAP3 SWAP2 SWAP1 PUSH2 0x97BE JUMP JUMPDEST PUSH1 0x40 MLOAD DUP1 SWAP2 SUB SWAP1 LOG1 JUMPDEST JUMPDEST POP POP POP POP POP POP JUMP JUMPDEST PUSH1 0x60 DUP1 PUSH1 0x60 DUP1 PUSH1 0x60 PUSH2 0x52FE DUP7 PUSH2 0x77C3 JUMP JUMPDEST SWAP1 POP PUSH1 0x0 PUSH1 0x1 PUSH1 0x0 DUP9 PUSH20 0xFFFFFFFFFFFFFFFFFFFFFFFFFFFFFFFFFFFFFFFF AND PUSH20 0xFFFFFFFFFFFFFFFFFFFFFFFFFFFFFFFFFFFFFFFF AND DUP2 MSTORE PUSH1 0x20 ADD SWAP1 DUP2 MSTORE PUSH1 0x20 ADD PUSH1 0x0 KECCAK256 PUSH1 0x40 MLOAD DUP1 PUSH2 0x120 ADD PUSH1 0x40 MSTORE SWAP1 DUP2 PUSH1 0x0 DUP3 ADD DUP1 SLOAD PUSH2 0x535D SWAP1 PUSH2 0xA3ED JUMP JUMPDEST DUP1 PUSH1 0x1F ADD PUSH1 0x20 DUP1 SWAP2 DIV MUL PUSH1 0x20 ADD PUSH1 0x40 MLOAD SWAP1 DUP2 ADD PUSH1 0x40 MSTORE DUP1 SWAP3 SWAP2 SWAP1 DUP2 DUP2 MSTORE PUSH1 0x20 ADD DUP3 DUP1 SLOAD PUSH2 0x5389 SWAP1 PUSH2 0xA3ED JUMP JUMPDEST DUP1 ISZERO PUSH2 0x53D6 JUMPI DUP1 PUSH1 0x1F LT PUSH2 0x53AB JUMPI PUSH2 0x100 DUP1 DUP4 SLOAD DIV MUL DUP4 MSTORE SWAP2 PUSH1 0x20 ADD SWAP2 PUSH2 0x53D6 JUMP JUMPDEST DUP3 ADD SWAP2 SWAP1 PUSH1 0x0 MSTORE PUSH1 0x20 PUSH1 0x0 KECCAK256 SWAP1 JUMPDEST DUP2 SLOAD DUP2 MSTORE SWAP1 PUSH1 0x1 ADD SWAP1 PUSH1 0x20 ADD DUP1 DUP4 GT PUSH2 0x53B9 JUMPI DUP3 SWAP1 SUB PUSH1 0x1F AND DUP3 ADD SWAP2 JUMPDEST POP POP POP POP POP DUP2 MSTORE PUSH1 0x20 ADD PUSH1 0x1 DUP3 ADD DUP1 SLOAD PUSH2 0x53EF SWAP1 PUSH2 0xA3ED JUMP JUMPDEST DUP1 PUSH1 0x1F ADD PUSH1 0x20 DUP1 SWAP2 DIV MUL PUSH1 0x20 ADD PUSH1 0x40 MLOAD SWAP1 DUP2 ADD PUSH1 0x40 MSTORE DUP1 SWAP3 SWAP2 SWAP1 DUP2 DUP2 MSTORE PUSH1 0x20 ADD DUP3 DUP1 SLOAD PUSH2 0x541B SWAP1 PUSH2 0xA3ED JUMP JUMPDEST DUP1 ISZERO PUSH2 0x5468 JUMPI DUP1 PUSH1 0x1F LT PUSH2 0x543D JUMPI PUSH2 0x100 DUP1 DUP4 SLOAD DIV MUL DUP4 MSTORE SWAP2 PUSH1 0x20 ADD SWAP2 PUSH2 0x5468 JUMP JUMPDEST DUP3 ADD SWAP2 SWAP1 PUSH1 0x0 MSTORE PUSH1 0x20 PUSH1 0x0 KECCAK256 SWAP1 JUMPDEST DUP2 SLOAD DUP2 MSTORE SWAP1 PUSH1 0x1 ADD SWAP1 PUSH1 0x20 ADD DUP1 DUP4 GT PUSH2 0x544B JUMPI DUP3 SWAP1 SUB PUSH1 0x1F AND DUP3 ADD SWAP2 JUMPDEST POP POP POP POP POP DUP2 MSTORE PUSH1 0x20 ADD PUSH1 0x2 DUP3 ADD DUP1 SLOAD PUSH2 0x5481 SWAP1 PUSH2 0xA3ED JUMP JUMPDEST DUP1 PUSH1 0x1F ADD PUSH1 0x20 DUP1 SWAP2 DIV MUL PUSH1 0x20 ADD PUSH1 0x40 MLOAD SWAP1 DUP2 ADD PUSH1 0x40 MSTORE DUP1 SWAP3 SWAP2 SWAP1 DUP2 DUP2 MSTORE PUSH1 0x20 ADD DUP3 DUP1 SLOAD PUSH2 0x54AD SWAP1 PUSH2 0xA3ED JUMP JUMPDEST DUP1 ISZERO PUSH2 0x54FA JUMPI DUP1 PUSH1 0x1F LT PUSH2 0x54CF JUMPI PUSH2 0x100 DUP1 DUP4 SLOAD DIV MUL DUP4 MSTORE SWAP2 PUSH1 0x20 ADD SWAP2 PUSH2 0x54FA JUMP JUMPDEST DUP3 ADD SWAP2 SWAP1 PUSH1 0x0 MSTORE PUSH1 0x20 PUSH1 0x0 KECCAK256 SWAP1 JUMPDEST DUP2 SLOAD DUP2 MSTORE SWAP1 PUSH1 0x1 ADD SWAP1 PUSH1 0x20 ADD DUP1 DUP4 GT PUSH2 0x54DD JUMPI DUP3 SWAP1 SUB PUSH1 0x1F AND DUP3 ADD SWAP2 JUMPDEST POP POP POP POP POP DUP2 MSTORE PUSH1 0x20 ADD PUSH1 0x3 DUP3 ADD SLOAD DUP2 MSTORE PUSH1 0x20 ADD PUSH1 0x4 DUP3 ADD DUP1 SLOAD DUP1 PUSH1 0x20 MUL PUSH1 0x20 ADD PUSH1 0x40 MLOAD SWAP1 DUP2 ADD PUSH1 0x40 MSTORE DUP1 SWAP3 SWAP2 SWAP1 DUP2 DUP2 MSTORE PUSH1 0x20 ADD DUP3 DUP1 SLOAD DUP1 ISZERO PUSH2 0x5584 JUMPI PUSH1 0x20 MUL DUP3 ADD SWAP2 SWAP1 PUSH1 0x0 MSTORE PUSH1 0x20 PUSH1 0x0 KECCAK256 SWAP1 PUSH1 0x0 SWAP1 JUMPDEST DUP3 DUP3 SWAP1 SLOAD SWAP1 PUSH2 0x100 EXP SWAP1 DIV PUSH2 0xFFFF AND PUSH2 0xFFFF AND DUP2 MSTORE PUSH1 0x20 ADD SWAP1 PUSH1 0x2 ADD SWAP1 PUSH1 0x20 DUP3 PUSH1 0x1 ADD DIV SWAP3 DUP4 ADD SWAP3 PUSH1 0x1 SUB DUP3 MUL SWAP2 POP DUP1 DUP5 GT PUSH2 0x554B JUMPI SWAP1 POP JUMPDEST POP POP POP POP POP DUP2 MSTORE PUSH1 0x20 ADD PUSH1 0x5 DUP3 ADD DUP1 SLOAD DUP1 PUSH1 0x20 MUL PUSH1 0x20 ADD PUSH1 0x40 MLOAD SWAP1 DUP2 ADD PUSH1 0x40 MSTORE DUP1 SWAP3 SWAP2 SWAP1 DUP2 DUP2 MSTORE PUSH1 0x20 ADD DUP3 DUP1 SLOAD DUP1 ISZERO PUSH2 0x5604 JUMPI PUSH1 0x20 MUL DUP3 ADD SWAP2 SWAP1 PUSH1 0x0 MSTORE PUSH1 0x20 PUSH1 0x0 KECCAK256 SWAP1 PUSH1 0x0 SWAP1 JUMPDEST DUP3 DUP3 SWAP1 SLOAD SWAP1 PUSH2 0x100 EXP SWAP1 DIV PUSH2 0xFFFF AND PUSH2 0xFFFF AND DUP2 MSTORE PUSH1 0x20 ADD SWAP1 PUSH1 0x2 ADD SWAP1 PUSH1 0x20 DUP3 PUSH1 0x1 ADD DIV SWAP3 DUP4 ADD SWAP3 PUSH1 0x1 SUB DUP3 MUL SWAP2 POP DUP1 DUP5 GT PUSH2 0x55CB JUMPI SWAP1 POP JUMPDEST POP POP POP POP POP DUP2 MSTORE PUSH1 0x20 ADD PUSH1 0x6 DUP3 ADD SLOAD DUP2 MSTORE PUSH1 0x20 ADD PUSH1 0x7 DUP3 ADD PUSH1 0x0 SWAP1 SLOAD SWAP1 PUSH2 0x100 EXP SWAP1 DIV PUSH1 0xFF AND ISZERO ISZERO ISZERO ISZERO DUP2 MSTORE PUSH1 0x20 ADD PUSH1 0x7 DUP3 ADD PUSH1 0x1 SWAP1 SLOAD SWAP1 PUSH2 0x100 EXP SWAP1 DIV PUSH1 0xFF AND ISZERO ISZERO ISZERO ISZERO DUP2 MSTORE POP POP SWAP1 POP DUP1 PUSH1 0x0 ADD MLOAD DUP2 PUSH1 0x20 ADD MLOAD SWAP6 POP SWAP6 POP POP SWAP2 SWAP4 SWAP6 SWAP1 SWAP3 SWAP5 POP JUMP JUMPDEST DUP4 DUP4 PUSH1 0x6 PUSH1 0x7 DUP2 GT ISZERO PUSH2 0x567D JUMPI PUSH2 0x567C PUSH2 0xA4C8 JUMP JUMPDEST JUMPDEST PUSH1 0x4 PUSH1 0x0 CALLER PUSH20 0xFFFFFFFFFFFFFFFFFFFFFFFFFFFFFFFFFFFFFFFF AND PUSH20 0xFFFFFFFFFFFFFFFFFFFFFFFFFFFFFFFFFFFFFFFF AND DUP2 MSTORE PUSH1 0x20 ADD SWAP1 DUP2 MSTORE PUSH1 0x20 ADD PUSH1 0x0 KECCAK256 PUSH1 0x0 SWAP1 SLOAD SWAP1 PUSH2 0x100 EXP SWAP1 DIV PUSH1 0xFF AND PUSH1 0x7 DUP2 GT ISZERO PUSH2 0x56DC JUMPI PUSH2 0x56DB PUSH2 0xA4C8 JUMP JUMPDEST JUMPDEST EQ ISZERO DUP1 ISZERO PUSH2 0x575B JUMPI POP PUSH1 0x5 PUSH1 0x7 DUP2 GT ISZERO PUSH2 0x56F9 JUMPI PUSH2 0x56F8 PUSH2 0xA4C8 JUMP JUMPDEST JUMPDEST PUSH1 0x4 PUSH1 0x0 CALLER PUSH20 0xFFFFFFFFFFFFFFFFFFFFFFFFFFFFFFFFFFFFFFFF AND PUSH20 0xFFFFFFFFFFFFFFFFFFFFFFFFFFFFFFFFFFFFFFFF AND DUP2 MSTORE PUSH1 0x20 ADD SWAP1 DUP2 MSTORE PUSH1 0x20 ADD PUSH1 0x0 KECCAK256 PUSH1 0x0 SWAP1 SLOAD SWAP1 PUSH2 0x100 EXP SWAP1 DIV PUSH1 0xFF AND PUSH1 0x7 DUP2 GT ISZERO PUSH2 0x5758 JUMPI PUSH2 0x5757 PUSH2 0xA4C8 JUMP JUMPDEST JUMPDEST EQ ISZERO JUMPDEST DUP1 ISZERO PUSH2 0x57D7 JUMPI POP PUSH1 0x7 DUP1 DUP2 GT ISZERO PUSH2 0x5775 JUMPI PUSH2 0x5774 PUSH2 0xA4C8 JUMP JUMPDEST JUMPDEST PUSH1 0x4 PUSH1 0x0 CALLER PUSH20 0xFFFFFFFFFFFFFFFFFFFFFFFFFFFFFFFFFFFFFFFF AND PUSH20 0xFFFFFFFFFFFFFFFFFFFFFFFFFFFFFFFFFFFFFFFF AND DUP2 MSTORE PUSH1 0x20 ADD SWAP1 DUP2 MSTORE PUSH1 0x20 ADD PUSH1 0x0 KECCAK256 PUSH1 0x0 SWAP1 SLOAD SWAP1 PUSH2 0x100 EXP SWAP1 DIV PUSH1 0xFF AND PUSH1 0x7 DUP2 GT ISZERO PUSH2 0x57D4 JUMPI PUSH2 0x57D3 PUSH2 0xA4C8 JUMP JUMPDEST JUMPDEST EQ ISZERO JUMPDEST ISZERO PUSH2 0x581D JUMPI PUSH32 0xB2BFA9090D50AD1A62CB284547F85F0E78E3B3DCCA2D82C2ECE1A3E9ABF25266 CALLER PUSH1 0x0 DUP1 PUSH1 0x40 MLOAD PUSH2 0x5810 SWAP4 SWAP3 SWAP2 SWAP1 PUSH2 0x9A58 JUMP JUMPDEST PUSH1 0x40 MLOAD DUP1 SWAP2 SUB SWAP1 LOG1 PUSH2 0x5C9E JUMP JUMPDEST DUP2 DUP2 PUSH1 0x40 MLOAD PUSH1 0x20 ADD PUSH2 0x5830 SWAP3 SWAP2 SWAP1 PUSH2 0x90AA JUMP JUMPDEST PUSH1 0x40 MLOAD PUSH1 0x20 DUP2 DUP4 SUB SUB DUP2 MSTORE SWAP1 PUSH1 0x40 MSTORE DUP1 MLOAD SWAP1 PUSH1 0x20 ADD KECCAK256 PUSH1 0x0 DUP1 CALLER PUSH20 0xFFFFFFFFFFFFFFFFFFFFFFFFFFFFFFFFFFFFFFFF AND PUSH20 0xFFFFFFFFFFFFFFFFFFFFFFFFFFFFFFFFFFFFFFFF AND DUP2 MSTORE PUSH1 0x20 ADD SWAP1 DUP2 MSTORE PUSH1 0x20 ADD PUSH1 0x0 KECCAK256 PUSH1 0x6 ADD SLOAD EQ DUP1 PUSH2 0x58FD JUMPI POP DUP2 DUP2 PUSH1 0x40 MLOAD PUSH1 0x20 ADD PUSH2 0x58A2 SWAP3 SWAP2 SWAP1 PUSH2 0x90AA JUMP JUMPDEST PUSH1 0x40 MLOAD PUSH1 0x20 DUP2 DUP4 SUB SUB DUP2 MSTORE SWAP1 PUSH1 0x40 MSTORE DUP1 MLOAD SWAP1 PUSH1 0x20 ADD KECCAK256 PUSH1 0x1 PUSH1 0x0 CALLER PUSH20 0xFFFFFFFFFFFFFFFFFFFFFFFFFFFFFFFFFFFFFFFF AND PUSH20 0xFFFFFFFFFFFFFFFFFFFFFFFFFFFFFFFFFFFFFFFF AND DUP2 MSTORE PUSH1 0x20 ADD SWAP1 DUP2 MSTORE PUSH1 0x20 ADD PUSH1 0x0 KECCAK256 PUSH1 0x6 ADD SLOAD EQ JUMPDEST DUP1 PUSH2 0x5971 JUMPI POP DUP2 DUP2 PUSH1 0x40 MLOAD PUSH1 0x20 ADD PUSH2 0x5916 SWAP3 SWAP2 SWAP1 PUSH2 0x90AA JUMP JUMPDEST PUSH1 0x40 MLOAD PUSH1 0x20 DUP2 DUP4 SUB SUB DUP2 MSTORE SWAP1 PUSH1 0x40 MSTORE DUP1 MLOAD SWAP1 PUSH1 0x20 ADD KECCAK256 PUSH1 0x2 PUSH1 0x0 CALLER PUSH20 0xFFFFFFFFFFFFFFFFFFFFFFFFFFFFFFFFFFFFFFFF AND PUSH20 0xFFFFFFFFFFFFFFFFFFFFFFFFFFFFFFFFFFFFFFFF AND DUP2 MSTORE PUSH1 0x20 ADD SWAP1 DUP2 MSTORE PUSH1 0x20 ADD PUSH1 0x0 KECCAK256 PUSH1 0x2 ADD SLOAD EQ JUMPDEST PUSH2 0x59B6 JUMPI PUSH32 0xB2BFA9090D50AD1A62CB284547F85F0E78E3B3DCCA2D82C2ECE1A3E9ABF25266 CALLER PUSH1 0x0 DUP1 PUSH1 0x40 MLOAD PUSH2 0x59A9 SWAP4 SWAP3 SWAP2 SWAP1 PUSH2 0x964C JUMP JUMPDEST PUSH1 0x40 MLOAD DUP1 SWAP2 SUB SWAP1 LOG1 PUSH2 0x5C9E JUMP JUMPDEST PUSH1 0x6 PUSH1 0x7 DUP2 GT ISZERO PUSH2 0x59CA JUMPI PUSH2 0x59C9 PUSH2 0xA4C8 JUMP JUMPDEST JUMPDEST PUSH1 0x4 PUSH1 0x0 CALLER PUSH20 0xFFFFFFFFFFFFFFFFFFFFFFFFFFFFFFFFFFFFFFFF AND PUSH20 0xFFFFFFFFFFFFFFFFFFFFFFFFFFFFFFFFFFFFFFFF AND DUP2 MSTORE PUSH1 0x20 ADD SWAP1 DUP2 MSTORE PUSH1 0x20 ADD PUSH1 0x0 KECCAK256 PUSH1 0x0 SWAP1 SLOAD SWAP1 PUSH2 0x100 EXP SWAP1 DIV PUSH1 0xFF AND PUSH1 0x7 DUP2 GT ISZERO PUSH2 0x5A29 JUMPI PUSH2 0x5A28 PUSH2 0xA4C8 JUMP JUMPDEST JUMPDEST EQ PUSH2 0x5A6F JUMPI PUSH32 0xB2BFA9090D50AD1A62CB284547F85F0E78E3B3DCCA2D82C2ECE1A3E9ABF25266 CALLER PUSH1 0x0 DUP1 PUSH1 0x40 MLOAD PUSH2 0x5A62 SWAP4 SWAP3 SWAP2 SWAP1 PUSH2 0x9696 JUMP JUMPDEST PUSH1 0x40 MLOAD DUP1 SWAP2 SUB SWAP1 LOG1 PUSH2 0x5C9D JUMP JUMPDEST DUP3 PUSH1 0x14 DUP2 MLOAD LT ISZERO PUSH2 0x5ABB JUMPI PUSH32 0xB2BFA9090D50AD1A62CB284547F85F0E78E3B3DCCA2D82C2ECE1A3E9ABF25266 CALLER PUSH1 0x0 DUP1 PUSH1 0x40 MLOAD PUSH2 0x5AAE SWAP4 SWAP3 SWAP2 SWAP1 PUSH2 0x99C4 JUMP JUMPDEST PUSH1 0x40 MLOAD DUP1 SWAP2 SUB SWAP1 LOG1 PUSH2 0x5C9B JUMP JUMPDEST PUSH2 0x154 DUP2 MLOAD GT ISZERO PUSH2 0x5B07 JUMPI PUSH32 0xB2BFA9090D50AD1A62CB284547F85F0E78E3B3DCCA2D82C2ECE1A3E9ABF25266 CALLER PUSH1 0x0 DUP1 PUSH1 0x40 MLOAD PUSH2 0x5AFA SWAP4 SWAP3 SWAP2 SWAP1 PUSH2 0x9852 JUMP JUMPDEST PUSH1 0x40 MLOAD DUP1 SWAP2 SUB SWAP1 LOG1 PUSH2 0x5C9B JUMP JUMPDEST CALLER PUSH1 0x0 PUSH2 0x5B13 DUP3 PUSH2 0x7071 JUMP JUMPDEST SWAP1 POP PUSH1 0x0 DUP2 EQ ISZERO PUSH2 0x5B60 JUMPI PUSH32 0xB2BFA9090D50AD1A62CB284547F85F0E78E3B3DCCA2D82C2ECE1A3E9ABF25266 CALLER PUSH1 0x0 DUP1 PUSH1 0x40 MLOAD PUSH2 0x5B52 SWAP4 SWAP3 SWAP2 SWAP1 PUSH2 0x997A JUMP JUMPDEST PUSH1 0x40 MLOAD DUP1 SWAP2 SUB SWAP1 LOG1 POP PUSH2 0x5C99 JUMP JUMPDEST PUSH1 0x0 PUSH2 0x5B6B CALLER PUSH2 0x7071 JUMP JUMPDEST SWAP1 POP PUSH1 0x0 PUSH1 0x7 DUP3 DUP2 SLOAD DUP2 LT PUSH2 0x5B83 JUMPI PUSH2 0x5B82 PUSH2 0xA526 JUMP JUMPDEST JUMPDEST SWAP1 PUSH1 0x0 MSTORE PUSH1 0x20 PUSH1 0x0 KECCAK256 SWAP1 PUSH1 0x9 MUL ADD PUSH1 0x7 ADD PUSH1 0x0 CALLER PUSH20 0xFFFFFFFFFFFFFFFFFFFFFFFFFFFFFFFFFFFFFFFF AND PUSH20 0xFFFFFFFFFFFFFFFFFFFFFFFFFFFFFFFFFFFFFFFF AND DUP2 MSTORE PUSH1 0x20 ADD SWAP1 DUP2 MSTORE PUSH1 0x20 ADD PUSH1 0x0 KECCAK256 SWAP1 POP DUP9 PUSH1 0xFF AND DUP2 DUP1 SLOAD SWAP1 POP GT ISZERO PUSH2 0x5C58 JUMPI DUP8 DUP2 DUP11 PUSH1 0xFF AND DUP2 SLOAD DUP2 LT PUSH2 0x5BF9 JUMPI PUSH2 0x5BF8 PUSH2 0xA526 JUMP JUMPDEST JUMPDEST SWAP1 PUSH1 0x0 MSTORE PUSH1 0x20 PUSH1 0x0 KECCAK256 ADD SWAP1 DUP1 MLOAD SWAP1 PUSH1 0x20 ADD SWAP1 PUSH2 0x5C16 SWAP3 SWAP2 SWAP1 PUSH2 0x7A3B JUMP JUMPDEST POP PUSH32 0xB2BFA9090D50AD1A62CB284547F85F0E78E3B3DCCA2D82C2ECE1A3E9ABF25266 CALLER PUSH1 0x0 DUP5 PUSH1 0x40 MLOAD PUSH2 0x5C4B SWAP4 SWAP3 SWAP2 SWAP1 PUSH2 0x9C14 JUMP JUMPDEST PUSH1 0x40 MLOAD DUP1 SWAP2 SUB SWAP1 LOG1 PUSH2 0x5C95 JUMP JUMPDEST PUSH32 0xB2BFA9090D50AD1A62CB284547F85F0E78E3B3DCCA2D82C2ECE1A3E9ABF25266 CALLER PUSH1 0x0 DUP5 PUSH1 0x40 MLOAD PUSH2 0x5C8C SWAP4 SWAP3 SWAP2 SWAP1 PUSH2 0x9BCA JUMP JUMPDEST PUSH1 0x40 MLOAD DUP1 SWAP2 SUB SWAP1 LOG1 JUMPDEST POP POP POP JUMPDEST POP JUMPDEST POP JUMPDEST JUMPDEST POP POP POP POP POP POP JUMP JUMPDEST PUSH1 0xA DUP2 DUP2 SLOAD DUP2 LT PUSH2 0x5CB6 JUMPI PUSH1 0x0 DUP1 REVERT JUMPDEST SWAP1 PUSH1 0x0 MSTORE PUSH1 0x20 PUSH1 0x0 KECCAK256 ADD PUSH1 0x0 SWAP2 POP SWAP1 POP DUP1 SLOAD PUSH2 0x5CD1 SWAP1 PUSH2 0xA3ED JUMP JUMPDEST DUP1 PUSH1 0x1F ADD PUSH1 0x20 DUP1 SWAP2 DIV MUL PUSH1 0x20 ADD PUSH1 0x40 MLOAD SWAP1 DUP2 ADD PUSH1 0x40 MSTORE DUP1 SWAP3 SWAP2 SWAP1 DUP2 DUP2 MSTORE PUSH1 0x20 ADD DUP3 DUP1 SLOAD PUSH2 0x5CFD SWAP1 PUSH2 0xA3ED JUMP JUMPDEST DUP1 ISZERO PUSH2 0x5D4A JUMPI DUP1 PUSH1 0x1F LT PUSH2 0x5D1F JUMPI PUSH2 0x100 DUP1 DUP4 SLOAD DIV MUL DUP4 MSTORE SWAP2 PUSH1 0x20 ADD SWAP2 PUSH2 0x5D4A JUMP JUMPDEST DUP3 ADD SWAP2 SWAP1 PUSH1 0x0 MSTORE PUSH1 0x20 PUSH1 0x0 KECCAK256 SWAP1 JUMPDEST DUP2 SLOAD DUP2 MSTORE SWAP1 PUSH1 0x1 ADD SWAP1 PUSH1 0x20 ADD DUP1 DUP4 GT PUSH2 0x5D2D JUMPI DUP3 SWAP1 SUB PUSH1 0x1F AND DUP3 ADD SWAP2 JUMPDEST POP POP POP POP POP DUP2 JUMP JUMPDEST PUSH2 0x5D5A PUSH2 0x7BAB JUMP JUMPDEST PUSH1 0x60 DUP1 PUSH1 0x60 DUP1 PUSH1 0x60 DUP1 PUSH1 0x0 DUP1 PUSH2 0x5D6F CALLER PUSH2 0x7071 JUMP JUMPDEST SWAP1 POP PUSH2 0x5D7A DUP11 PUSH2 0x77C3 JUMP JUMPDEST SWAP3 POP PUSH1 0x0 DUP1 PUSH1 0x0 DUP13 PUSH20 0xFFFFFFFFFFFFFFFFFFFFFFFFFFFFFFFFFFFFFFFF AND PUSH20 0xFFFFFFFFFFFFFFFFFFFFFFFFFFFFFFFFFFFFFFFF AND DUP2 MSTORE PUSH1 0x20 ADD SWAP1 DUP2 MSTORE PUSH1 0x20 ADD PUSH1 0x0 KECCAK256 PUSH1 0x40 MLOAD DUP1 PUSH1 0xE0 ADD PUSH1 0x40 MSTORE SWAP1 DUP2 PUSH1 0x0 DUP3 ADD DUP1 SLOAD PUSH2 0x5DD7 SWAP1 PUSH2 0xA3ED JUMP JUMPDEST DUP1 PUSH1 0x1F ADD PUSH1 0x20 DUP1 SWAP2 DIV MUL PUSH1 0x20 ADD PUSH1 0x40 MLOAD SWAP1 DUP2 ADD PUSH1 0x40 MSTORE DUP1 SWAP3 SWAP2 SWAP1 DUP2 DUP2 MSTORE PUSH1 0x20 ADD DUP3 DUP1 SLOAD PUSH2 0x5E03 SWAP1 PUSH2 0xA3ED JUMP JUMPDEST DUP1 ISZERO PUSH2 0x5E50 JUMPI DUP1 PUSH1 0x1F LT PUSH2 0x5E25 JUMPI PUSH2 0x100 DUP1 DUP4 SLOAD DIV MUL DUP4 MSTORE SWAP2 PUSH1 0x20 ADD SWAP2 PUSH2 0x5E50 JUMP JUMPDEST DUP3 ADD SWAP2 SWAP1 PUSH1 0x0 MSTORE PUSH1 0x20 PUSH1 0x0 KECCAK256 SWAP1 JUMPDEST DUP2 SLOAD DUP2 MSTORE SWAP1 PUSH1 0x1 ADD SWAP1 PUSH1 0x20 ADD DUP1 DUP4 GT PUSH2 0x5E33 JUMPI DUP3 SWAP1 SUB PUSH1 0x1F AND DUP3 ADD SWAP2 JUMPDEST POP POP POP POP POP DUP2 MSTORE PUSH1 0x20 ADD PUSH1 0x1 DUP3 ADD DUP1 SLOAD PUSH2 0x5E69 SWAP1 PUSH2 0xA3ED JUMP JUMPDEST DUP1 PUSH1 0x1F ADD PUSH1 0x20 DUP1 SWAP2 DIV MUL PUSH1 0x20 ADD PUSH1 0x40 MLOAD SWAP1 DUP2 ADD PUSH1 0x40 MSTORE DUP1 SWAP3 SWAP2 SWAP1 DUP2 DUP2 MSTORE PUSH1 0x20 ADD DUP3 DUP1 SLOAD PUSH2 0x5E95 SWAP1 PUSH2 0xA3ED JUMP JUMPDEST DUP1 ISZERO PUSH2 0x5EE2 JUMPI DUP1 PUSH1 0x1F LT PUSH2 0x5EB7 JUMPI PUSH2 0x100 DUP1 DUP4 SLOAD DIV MUL DUP4 MSTORE SWAP2 PUSH1 0x20 ADD SWAP2 PUSH2 0x5EE2 JUMP JUMPDEST DUP3 ADD SWAP2 SWAP1 PUSH1 0x0 MSTORE PUSH1 0x20 PUSH1 0x0 KECCAK256 SWAP1 JUMPDEST DUP2 SLOAD DUP2 MSTORE SWAP1 PUSH1 0x1 ADD SWAP1 PUSH1 0x20 ADD DUP1 DUP4 GT PUSH2 0x5EC5 JUMPI DUP3 SWAP1 SUB PUSH1 0x1F AND DUP3 ADD SWAP2 JUMPDEST POP POP POP POP POP DUP2 MSTORE PUSH1 0x20 ADD PUSH1 0x2 DUP3 ADD DUP1 SLOAD PUSH2 0x5EFB SWAP1 PUSH2 0xA3ED JUMP JUMPDEST DUP1 PUSH1 0x1F ADD PUSH1 0x20 DUP1 SWAP2 DIV MUL PUSH1 0x20 ADD PUSH1 0x40 MLOAD SWAP1 DUP2 ADD PUSH1 0x40 MSTORE DUP1 SWAP3 SWAP2 SWAP1 DUP2 DUP2 MSTORE PUSH1 0x20 ADD DUP3 DUP1 SLOAD PUSH2 0x5F27 SWAP1 PUSH2 0xA3ED JUMP JUMPDEST DUP1 ISZERO PUSH2 0x5F74 JUMPI DUP1 PUSH1 0x1F LT PUSH2 0x5F49 JUMPI PUSH2 0x100 DUP1 DUP4 SLOAD DIV MUL DUP4 MSTORE SWAP2 PUSH1 0x20 ADD SWAP2 PUSH2 0x5F74 JUMP JUMPDEST DUP3 ADD SWAP2 SWAP1 PUSH1 0x0 MSTORE PUSH1 0x20 PUSH1 0x0 KECCAK256 SWAP1 JUMPDEST DUP2 SLOAD DUP2 MSTORE SWAP1 PUSH1 0x1 ADD SWAP1 PUSH1 0x20 ADD DUP1 DUP4 GT PUSH2 0x5F57 JUMPI DUP3 SWAP1 SUB PUSH1 0x1F AND DUP3 ADD SWAP2 JUMPDEST POP POP POP POP POP DUP2 MSTORE PUSH1 0x20 ADD PUSH1 0x3 DUP3 ADD DUP1 SLOAD PUSH2 0x5F8D SWAP1 PUSH2 0xA3ED JUMP JUMPDEST DUP1 PUSH1 0x1F ADD PUSH1 0x20 DUP1 SWAP2 DIV MUL PUSH1 0x20 ADD PUSH1 0x40 MLOAD SWAP1 DUP2 ADD PUSH1 0x40 MSTORE DUP1 SWAP3 SWAP2 SWAP1 DUP2 DUP2 MSTORE PUSH1 0x20 ADD DUP3 DUP1 SLOAD PUSH2 0x5FB9 SWAP1 PUSH2 0xA3ED JUMP JUMPDEST DUP1 ISZERO PUSH2 0x6006 JUMPI DUP1 PUSH1 0x1F LT PUSH2 0x5FDB JUMPI PUSH2 0x100 DUP1 DUP4 SLOAD DIV MUL DUP4 MSTORE SWAP2 PUSH1 0x20 ADD SWAP2 PUSH2 0x6006 JUMP JUMPDEST DUP3 ADD SWAP2 SWAP1 PUSH1 0x0 MSTORE PUSH1 0x20 PUSH1 0x0 KECCAK256 SWAP1 JUMPDEST DUP2 SLOAD DUP2 MSTORE SWAP1 PUSH1 0x1 ADD SWAP1 PUSH1 0x20 ADD DUP1 DUP4 GT PUSH2 0x5FE9 JUMPI DUP3 SWAP1 SUB PUSH1 0x1F AND DUP3 ADD SWAP2 JUMPDEST POP POP POP POP POP DUP2 MSTORE PUSH1 0x20 ADD PUSH1 0x4 DUP3 ADD DUP1 SLOAD DUP1 PUSH1 0x20 MUL PUSH1 0x20 ADD PUSH1 0x40 MLOAD SWAP1 DUP2 ADD PUSH1 0x40 MSTORE DUP1 SWAP3 SWAP2 SWAP1 DUP2 DUP2 MSTORE PUSH1 0x20 ADD PUSH1 0x0 SWAP1 JUMPDEST DUP3 DUP3 LT ISZERO PUSH2 0x60E0 JUMPI DUP4 DUP3 SWAP1 PUSH1 0x0 MSTORE PUSH1 0x20 PUSH1 0x0 KECCAK256 ADD DUP1 SLOAD PUSH2 0x6053 SWAP1 PUSH2 0xA3ED JUMP JUMPDEST DUP1 PUSH1 0x1F ADD PUSH1 0x20 DUP1 SWAP2 DIV MUL PUSH1 0x20 ADD PUSH1 0x40 MLOAD SWAP1 DUP2 ADD PUSH1 0x40 MSTORE DUP1 SWAP3 SWAP2 SWAP1 DUP2 DUP2 MSTORE PUSH1 0x20 ADD DUP3 DUP1 SLOAD PUSH2 0x607F SWAP1 PUSH2 0xA3ED JUMP JUMPDEST DUP1 ISZERO PUSH2 0x60CC JUMPI DUP1 PUSH1 0x1F LT PUSH2 0x60A1 JUMPI PUSH2 0x100 DUP1 DUP4 SLOAD DIV MUL DUP4 MSTORE SWAP2 PUSH1 0x20 ADD SWAP2 PUSH2 0x60CC JUMP JUMPDEST DUP3 ADD SWAP2 SWAP1 PUSH1 0x0 MSTORE PUSH1 0x20 PUSH1 0x0 KECCAK256 SWAP1 JUMPDEST DUP2 SLOAD DUP2 MSTORE SWAP1 PUSH1 0x1 ADD SWAP1 PUSH1 0x20 ADD DUP1 DUP4 GT PUSH2 0x60AF JUMPI DUP3 SWAP1 SUB PUSH1 0x1F AND DUP3 ADD SWAP2 JUMPDEST POP POP POP POP POP DUP2 MSTORE PUSH1 0x20 ADD SWAP1 PUSH1 0x1 ADD SWAP1 PUSH2 0x6034 JUMP JUMPDEST POP POP POP POP DUP2 MSTORE PUSH1 0x20 ADD PUSH1 0x5 DUP3 ADD PUSH1 0x0 SWAP1 SLOAD SWAP1 PUSH2 0x100 EXP SWAP1 DIV PUSH1 0xFF AND PUSH1 0xFF AND PUSH1 0xFF AND DUP2 MSTORE PUSH1 0x20 ADD PUSH1 0x6 DUP3 ADD SLOAD DUP2 MSTORE POP POP SWAP1 POP PUSH1 0x0 DUP1 SHL DUP2 PUSH1 0xC0 ADD DUP2 DUP2 MSTORE POP POP PUSH1 0x0 PUSH1 0x7 DUP4 DUP2 SLOAD DUP2 LT PUSH2 0x6134 JUMPI PUSH2 0x6133 PUSH2 0xA526 JUMP JUMPDEST JUMPDEST SWAP1 PUSH1 0x0 MSTORE PUSH1 0x20 PUSH1 0x0 KECCAK256 SWAP1 PUSH1 0x9 MUL ADD SWAP1 POP DUP1 PUSH1 0x8 ADD PUSH1 0x0 DUP14 PUSH20 0xFFFFFFFFFFFFFFFFFFFFFFFFFFFFFFFFFFFFFFFF AND PUSH20 0xFFFFFFFFFFFFFFFFFFFFFFFFFFFFFFFFFFFFFFFF AND DUP2 MSTORE PUSH1 0x20 ADD SWAP1 DUP2 MSTORE PUSH1 0x20 ADD PUSH1 0x0 KECCAK256 DUP1 SLOAD PUSH2 0x6190 SWAP1 PUSH2 0xA3ED JUMP JUMPDEST DUP1 PUSH1 0x1F ADD PUSH1 0x20 DUP1 SWAP2 DIV MUL PUSH1 0x20 ADD PUSH1 0x40 MLOAD SWAP1 DUP2 ADD PUSH1 0x40 MSTORE DUP1 SWAP3 SWAP2 SWAP1 DUP2 DUP2 MSTORE PUSH1 0x20 ADD DUP3 DUP1 SLOAD PUSH2 0x61BC SWAP1 PUSH2 0xA3ED JUMP JUMPDEST DUP1 ISZERO PUSH2 0x6209 JUMPI DUP1 PUSH1 0x1F LT PUSH2 0x61DE JUMPI PUSH2 0x100 DUP1 DUP4 SLOAD DIV MUL DUP4 MSTORE SWAP2 PUSH1 0x20 ADD SWAP2 PUSH2 0x6209 JUMP JUMPDEST DUP3 ADD SWAP2 SWAP1 PUSH1 0x0 MSTORE PUSH1 0x20 PUSH1 0x0 KECCAK256 SWAP1 JUMPDEST DUP2 SLOAD DUP2 MSTORE SWAP1 PUSH1 0x1 ADD SWAP1 PUSH1 0x20 ADD DUP1 DUP4 GT PUSH2 0x61EC JUMPI DUP3 SWAP1 SUB PUSH1 0x1F AND DUP3 ADD SWAP2 JUMPDEST POP POP POP POP POP SWAP8 POP DUP1 PUSH1 0x7 ADD PUSH1 0x0 DUP14 PUSH20 0xFFFFFFFFFFFFFFFFFFFFFFFFFFFFFFFFFFFFFFFF AND PUSH20 0xFFFFFFFFFFFFFFFFFFFFFFFFFFFFFFFFFFFFFFFF AND DUP2 MSTORE PUSH1 0x20 ADD SWAP1 DUP2 MSTORE PUSH1 0x20 ADD PUSH1 0x0 KECCAK256 DUP1 SLOAD DUP1 PUSH1 0x20 MUL PUSH1 0x20 ADD PUSH1 0x40 MLOAD SWAP1 DUP2 ADD PUSH1 0x40 MSTORE DUP1 SWAP3 SWAP2 SWAP1 DUP2 DUP2 MSTORE PUSH1 0x20 ADD PUSH1 0x0 SWAP1 JUMPDEST DUP3 DUP3 LT ISZERO PUSH2 0x631D JUMPI DUP4 DUP3 SWAP1 PUSH1 0x0 MSTORE PUSH1 0x20 PUSH1 0x0 KECCAK256 ADD DUP1 SLOAD PUSH2 0x6290 SWAP1 PUSH2 0xA3ED JUMP JUMPDEST DUP1 PUSH1 0x1F ADD PUSH1 0x20 DUP1 SWAP2 DIV MUL PUSH1 0x20 ADD PUSH1 0x40 MLOAD SWAP1 DUP2 ADD PUSH1 0x40 MSTORE DUP1 SWAP3 SWAP2 SWAP1 DUP2 DUP2 MSTORE PUSH1 0x20 ADD DUP3 DUP1 SLOAD PUSH2 0x62BC SWAP1 PUSH2 0xA3ED JUMP JUMPDEST DUP1 ISZERO PUSH2 0x6309 JUMPI DUP1 PUSH1 0x1F LT PUSH2 0x62DE JUMPI PUSH2 0x100 DUP1 DUP4 SLOAD DIV MUL DUP4 MSTORE SWAP2 PUSH1 0x20 ADD SWAP2 PUSH2 0x6309 JUMP JUMPDEST DUP3 ADD SWAP2 SWAP1 PUSH1 0x0 MSTORE PUSH1 0x20 PUSH1 0x0 KECCAK256 SWAP1 JUMPDEST DUP2 SLOAD DUP2 MSTORE SWAP1 PUSH1 0x1 ADD SWAP1 PUSH1 0x20 ADD DUP1 DUP4 GT PUSH2 0x62EC JUMPI DUP3 SWAP1 SUB PUSH1 0x1F AND DUP3 ADD SWAP2 JUMPDEST POP POP POP POP POP DUP2 MSTORE PUSH1 0x20 ADD SWAP1 PUSH1 0x1 ADD SWAP1 PUSH2 0x6271 JUMP JUMPDEST POP POP POP POP SWAP6 POP DUP2 DUP2 PUSH1 0x0 ADD DUP3 PUSH1 0x1 ADD DUP11 PUSH1 0x9 DUP6 PUSH1 0x4 ADD PUSH1 0x0 SWAP1 SLOAD SWAP1 PUSH2 0x100 EXP SWAP1 DIV PUSH2 0xFFFF AND PUSH2 0xFFFF AND DUP2 SLOAD DUP2 LT PUSH2 0x6357 JUMPI PUSH2 0x6356 PUSH2 0xA526 JUMP JUMPDEST JUMPDEST SWAP1 PUSH1 0x0 MSTORE PUSH1 0x20 PUSH1 0x0 KECCAK256 ADD DUP11 DUP11 DUP8 PUSH1 0x2 ADD PUSH1 0x0 SWAP1 SLOAD SWAP1 PUSH2 0x100 EXP SWAP1 DIV PUSH20 0xFFFFFFFFFFFFFFFFFFFFFFFFFFFFFFFFFFFFFFFF AND DUP7 DUP1 SLOAD PUSH2 0x6394 SWAP1 PUSH2 0xA3ED JUMP JUMPDEST DUP1 PUSH1 0x1F ADD PUSH1 0x20 DUP1 SWAP2 DIV MUL PUSH1 0x20 ADD PUSH1 0x40 MLOAD SWAP1 DUP2 ADD PUSH1 0x40 MSTORE DUP1 SWAP3 SWAP2 SWAP1 DUP2 DUP2 MSTORE PUSH1 0x20 ADD DUP3 DUP1 SLOAD PUSH2 0x63C0 SWAP1 PUSH2 0xA3ED JUMP JUMPDEST DUP1 ISZERO PUSH2 0x640D JUMPI DUP1 PUSH1 0x1F LT PUSH2 0x63E2 JUMPI PUSH2 0x100 DUP1 DUP4 SLOAD DIV MUL DUP4 MSTORE SWAP2 PUSH1 0x20 ADD SWAP2 PUSH2 0x640D JUMP JUMPDEST DUP3 ADD SWAP2 SWAP1 PUSH1 0x0 MSTORE PUSH1 0x20 PUSH1 0x0 KECCAK256 SWAP1 JUMPDEST DUP2 SLOAD DUP2 MSTORE SWAP1 PUSH1 0x1 ADD SWAP1 PUSH1 0x20 ADD DUP1 DUP4 GT PUSH2 0x63F0 JUMPI DUP3 SWAP1 SUB PUSH1 0x1F AND DUP3 ADD SWAP2 JUMPDEST POP POP POP POP POP SWAP7 POP DUP6 DUP1 SLOAD PUSH2 0x6420 SWAP1 PUSH2 0xA3ED JUMP JUMPDEST DUP1 PUSH1 0x1F ADD PUSH1 0x20 DUP1 SWAP2 DIV MUL PUSH1 0x20 ADD PUSH1 0x40 MLOAD SWAP1 DUP2 ADD PUSH1 0x40 MSTORE DUP1 SWAP3 SWAP2 SWAP1 DUP2 DUP2 MSTORE PUSH1 0x20 ADD DUP3 DUP1 SLOAD PUSH2 0x644C SWAP1 PUSH2 0xA3ED JUMP JUMPDEST DUP1 ISZERO PUSH2 0x6499 JUMPI DUP1 PUSH1 0x1F LT PUSH2 0x646E JUMPI PUSH2 0x100 DUP1 DUP4 SLOAD DIV MUL DUP4 MSTORE SWAP2 PUSH1 0x20 ADD SWAP2 PUSH2 0x6499 JUMP JUMPDEST DUP3 ADD SWAP2 SWAP1 PUSH1 0x0 MSTORE PUSH1 0x20 PUSH1 0x0 KECCAK256 SWAP1 JUMPDEST DUP2 SLOAD DUP2 MSTORE SWAP1 PUSH1 0x1 ADD SWAP1 PUSH1 0x20 ADD DUP1 DUP4 GT PUSH2 0x647C JUMPI DUP3 SWAP1 SUB PUSH1 0x1F AND DUP3 ADD SWAP2 JUMPDEST POP POP POP POP POP SWAP6 POP DUP4 DUP1 SLOAD PUSH2 0x64AC SWAP1 PUSH2 0xA3ED JUMP JUMPDEST DUP1 PUSH1 0x1F ADD PUSH1 0x20 DUP1 SWAP2 DIV MUL PUSH1 0x20 ADD PUSH1 0x40 MLOAD SWAP1 DUP2 ADD PUSH1 0x40 MSTORE DUP1 SWAP3 SWAP2 SWAP1 DUP2 DUP2 MSTORE PUSH1 0x20 ADD DUP3 DUP1 SLOAD PUSH2 0x64D8 SWAP1 PUSH2 0xA3ED JUMP JUMPDEST DUP1 ISZERO PUSH2 0x6525 JUMPI DUP1 PUSH1 0x1F LT PUSH2 0x64FA JUMPI PUSH2 0x100 DUP1 DUP4 SLOAD DIV MUL DUP4 MSTORE SWAP2 PUSH1 0x20 ADD SWAP2 PUSH2 0x6525 JUMP JUMPDEST DUP3 ADD SWAP2 SWAP1 PUSH1 0x0 MSTORE PUSH1 0x20 PUSH1 0x0 KECCAK256 SWAP1 JUMPDEST DUP2 SLOAD DUP2 MSTORE SWAP1 PUSH1 0x1 ADD SWAP1 PUSH1 0x20 ADD DUP1 DUP4 GT PUSH2 0x6508 JUMPI DUP3 SWAP1 SUB PUSH1 0x1F AND DUP3 ADD SWAP2 JUMPDEST POP POP POP POP POP SWAP4 POP SWAP11 POP SWAP11 POP SWAP11 POP SWAP11 POP SWAP11 POP SWAP11 POP SWAP11 POP SWAP11 POP POP POP POP SWAP2 SWAP4 SWAP6 SWAP8 POP SWAP2 SWAP4 SWAP6 SWAP8 JUMP JUMPDEST DUP3 DUP3 PUSH1 0x6 PUSH1 0x7 DUP2 GT ISZERO PUSH2 0x6560 JUMPI PUSH2 0x655F PUSH2 0xA4C8 JUMP JUMPDEST JUMPDEST PUSH1 0x4 PUSH1 0x0 CALLER PUSH20 0xFFFFFFFFFFFFFFFFFFFFFFFFFFFFFFFFFFFFFFFF AND PUSH20 0xFFFFFFFFFFFFFFFFFFFFFFFFFFFFFFFFFFFFFFFF AND DUP2 MSTORE PUSH1 0x20 ADD SWAP1 DUP2 MSTORE PUSH1 0x20 ADD PUSH1 0x0 KECCAK256 PUSH1 0x0 SWAP1 SLOAD SWAP1 PUSH2 0x100 EXP SWAP1 DIV PUSH1 0xFF AND PUSH1 0x7 DUP2 GT ISZERO PUSH2 0x65BF JUMPI PUSH2 0x65BE PUSH2 0xA4C8 JUMP JUMPDEST JUMPDEST EQ ISZERO DUP1 ISZERO PUSH2 0x663E JUMPI POP PUSH1 0x5 PUSH1 0x7 DUP2 GT ISZERO PUSH2 0x65DC JUMPI PUSH2 0x65DB PUSH2 0xA4C8 JUMP JUMPDEST JUMPDEST PUSH1 0x4 PUSH1 0x0 CALLER PUSH20 0xFFFFFFFFFFFFFFFFFFFFFFFFFFFFFFFFFFFFFFFF AND PUSH20 0xFFFFFFFFFFFFFFFFFFFFFFFFFFFFFFFFFFFFFFFF AND DUP2 MSTORE PUSH1 0x20 ADD SWAP1 DUP2 MSTORE PUSH1 0x20 ADD PUSH1 0x0 KECCAK256 PUSH1 0x0 SWAP1 SLOAD SWAP1 PUSH2 0x100 EXP SWAP1 DIV PUSH1 0xFF AND PUSH1 0x7 DUP2 GT ISZERO PUSH2 0x663B JUMPI PUSH2 0x663A PUSH2 0xA4C8 JUMP JUMPDEST JUMPDEST EQ ISZERO JUMPDEST DUP1 ISZERO PUSH2 0x66BA JUMPI POP PUSH1 0x7 DUP1 DUP2 GT ISZERO PUSH2 0x6658 JUMPI PUSH2 0x6657 PUSH2 0xA4C8 JUMP JUMPDEST JUMPDEST PUSH1 0x4 PUSH1 0x0 CALLER PUSH20 0xFFFFFFFFFFFFFFFFFFFFFFFFFFFFFFFFFFFFFFFF AND PUSH20 0xFFFFFFFFFFFFFFFFFFFFFFFFFFFFFFFFFFFFFFFF AND DUP2 MSTORE PUSH1 0x20 ADD SWAP1 DUP2 MSTORE PUSH1 0x20 ADD PUSH1 0x0 KECCAK256 PUSH1 0x0 SWAP1 SLOAD SWAP1 PUSH2 0x100 EXP SWAP1 DIV PUSH1 0xFF AND PUSH1 0x7 DUP2 GT ISZERO PUSH2 0x66B7 JUMPI PUSH2 0x66B6 PUSH2 0xA4C8 JUMP JUMPDEST JUMPDEST EQ ISZERO JUMPDEST ISZERO PUSH2 0x6700 JUMPI PUSH32 0xB2BFA9090D50AD1A62CB284547F85F0E78E3B3DCCA2D82C2ECE1A3E9ABF25266 CALLER PUSH1 0x0 DUP1 PUSH1 0x40 MLOAD PUSH2 0x66F3 SWAP4 SWAP3 SWAP2 SWAP1 PUSH2 0x9A58 JUMP JUMPDEST PUSH1 0x40 MLOAD DUP1 SWAP2 SUB SWAP1 LOG1 PUSH2 0x6AFA JUMP JUMPDEST DUP2 DUP2 PUSH1 0x40 MLOAD PUSH1 0x20 ADD PUSH2 0x6713 SWAP3 SWAP2 SWAP1 PUSH2 0x90AA JUMP JUMPDEST PUSH1 0x40 MLOAD PUSH1 0x20 DUP2 DUP4 SUB SUB DUP2 MSTORE SWAP1 PUSH1 0x40 MSTORE DUP1 MLOAD SWAP1 PUSH1 0x20 ADD KECCAK256 PUSH1 0x0 DUP1 CALLER PUSH20 0xFFFFFFFFFFFFFFFFFFFFFFFFFFFFFFFFFFFFFFFF AND PUSH20 0xFFFFFFFFFFFFFFFFFFFFFFFFFFFFFFFFFFFFFFFF AND DUP2 MSTORE PUSH1 0x20 ADD SWAP1 DUP2 MSTORE PUSH1 0x20 ADD PUSH1 0x0 KECCAK256 PUSH1 0x6 ADD SLOAD EQ DUP1 PUSH2 0x67E0 JUMPI POP DUP2 DUP2 PUSH1 0x40 MLOAD PUSH1 0x20 ADD PUSH2 0x6785 SWAP3 SWAP2 SWAP1 PUSH2 0x90AA JUMP JUMPDEST PUSH1 0x40 MLOAD PUSH1 0x20 DUP2 DUP4 SUB SUB DUP2 MSTORE SWAP1 PUSH1 0x40 MSTORE DUP1 MLOAD SWAP1 PUSH1 0x20 ADD KECCAK256 PUSH1 0x1 PUSH1 0x0 CALLER PUSH20 0xFFFFFFFFFFFFFFFFFFFFFFFFFFFFFFFFFFFFFFFF AND PUSH20 0xFFFFFFFFFFFFFFFFFFFFFFFFFFFFFFFFFFFFFFFF AND DUP2 MSTORE PUSH1 0x20 ADD SWAP1 DUP2 MSTORE PUSH1 0x20 ADD PUSH1 0x0 KECCAK256 PUSH1 0x6 ADD SLOAD EQ JUMPDEST DUP1 PUSH2 0x6854 JUMPI POP DUP2 DUP2 PUSH1 0x40 MLOAD PUSH1 0x20 ADD PUSH2 0x67F9 SWAP3 SWAP2 SWAP1 PUSH2 0x90AA JUMP JUMPDEST PUSH1 0x40 MLOAD PUSH1 0x20 DUP2 DUP4 SUB SUB DUP2 MSTORE SWAP1 PUSH1 0x40 MSTORE DUP1 MLOAD SWAP1 PUSH1 0x20 ADD KECCAK256 PUSH1 0x2 PUSH1 0x0 CALLER PUSH20 0xFFFFFFFFFFFFFFFFFFFFFFFFFFFFFFFFFFFFFFFF AND PUSH20 0xFFFFFFFFFFFFFFFFFFFFFFFFFFFFFFFFFFFFFFFF AND DUP2 MSTORE PUSH1 0x20 ADD SWAP1 DUP2 MSTORE PUSH1 0x20 ADD PUSH1 0x0 KECCAK256 PUSH1 0x2 ADD SLOAD EQ JUMPDEST PUSH2 0x6899 JUMPI PUSH32 0xB2BFA9090D50AD1A62CB284547F85F0E78E3B3DCCA2D82C2ECE1A3E9ABF25266 CALLER PUSH1 0x0 DUP1 PUSH1 0x40 MLOAD PUSH2 0x688C SWAP4 SWAP3 SWAP2 SWAP1 PUSH2 0x964C JUMP JUMPDEST PUSH1 0x40 MLOAD DUP1 SWAP2 SUB SWAP1 LOG1 PUSH2 0x6AFA JUMP JUMPDEST PUSH1 0x6 PUSH1 0x7 DUP2 GT ISZERO PUSH2 0x68AD JUMPI PUSH2 0x68AC PUSH2 0xA4C8 JUMP JUMPDEST JUMPDEST PUSH1 0x4 PUSH1 0x0 CALLER PUSH20 0xFFFFFFFFFFFFFFFFFFFFFFFFFFFFFFFFFFFFFFFF AND PUSH20 0xFFFFFFFFFFFFFFFFFFFFFFFFFFFFFFFFFFFFFFFF AND DUP2 MSTORE PUSH1 0x20 ADD SWAP1 DUP2 MSTORE PUSH1 0x20 ADD PUSH1 0x0 KECCAK256 PUSH1 0x0 SWAP1 SLOAD SWAP1 PUSH2 0x100 EXP SWAP1 DIV PUSH1 0xFF AND PUSH1 0x7 DUP2 GT ISZERO PUSH2 0x690C JUMPI PUSH2 0x690B PUSH2 0xA4C8 JUMP JUMPDEST JUMPDEST EQ PUSH2 0x6952 JUMPI PUSH32 0xB2BFA9090D50AD1A62CB284547F85F0E78E3B3DCCA2D82C2ECE1A3E9ABF25266 CALLER PUSH1 0x0 DUP1 PUSH1 0x40 MLOAD PUSH2 0x6945 SWAP4 SWAP3 SWAP2 SWAP1 PUSH2 0x9696 JUMP JUMPDEST PUSH1 0x40 MLOAD DUP1 SWAP2 SUB SWAP1 LOG1 PUSH2 0x6AF9 JUMP JUMPDEST DUP3 PUSH1 0x14 DUP2 MLOAD LT ISZERO PUSH2 0x699E JUMPI PUSH32 0xB2BFA9090D50AD1A62CB284547F85F0E78E3B3DCCA2D82C2ECE1A3E9ABF25266 CALLER PUSH1 0x0 DUP1 PUSH1 0x40 MLOAD PUSH2 0x6991 SWAP4 SWAP3 SWAP2 SWAP1 PUSH2 0x99C4 JUMP JUMPDEST PUSH1 0x40 MLOAD DUP1 SWAP2 SUB SWAP1 LOG1 PUSH2 0x6AF7 JUMP JUMPDEST PUSH2 0x154 DUP2 MLOAD GT ISZERO PUSH2 0x69EA JUMPI PUSH32 0xB2BFA9090D50AD1A62CB284547F85F0E78E3B3DCCA2D82C2ECE1A3E9ABF25266 CALLER PUSH1 0x0 DUP1 PUSH1 0x40 MLOAD PUSH2 0x69DD SWAP4 SWAP3 SWAP2 SWAP1 PUSH2 0x9852 JUMP JUMPDEST PUSH1 0x40 MLOAD DUP1 SWAP2 SUB SWAP1 LOG1 PUSH2 0x6AF7 JUMP JUMPDEST PUSH1 0x0 DUP1 PUSH1 0x0 CALLER PUSH20 0xFFFFFFFFFFFFFFFFFFFFFFFFFFFFFFFFFFFFFFFF AND PUSH20 0xFFFFFFFFFFFFFFFFFFFFFFFFFFFFFFFFFFFFFFFF AND DUP2 MSTORE PUSH1 0x20 ADD SWAP1 DUP2 MSTORE PUSH1 0x20 ADD PUSH1 0x0 KECCAK256 PUSH1 0x4 ADD SWAP1 POP PUSH1 0xA DUP2 DUP1 SLOAD SWAP1 POP LT ISZERO PUSH2 0x6AB8 JUMPI DUP1 DUP6 SWAP1 DUP1 PUSH1 0x1 DUP2 SLOAD ADD DUP1 DUP3 SSTORE DUP1 SWAP2 POP POP PUSH1 0x1 SWAP1 SUB SWAP1 PUSH1 0x0 MSTORE PUSH1 0x20 PUSH1 0x0 KECCAK256 ADD PUSH1 0x0 SWAP1 SWAP2 SWAP1 SWAP2 SWAP1 SWAP2 POP SWAP1 DUP1 MLOAD SWAP1 PUSH1 0x20 ADD SWAP1 PUSH2 0x6A76 SWAP3 SWAP2 SWAP1 PUSH2 0x7A3B JUMP JUMPDEST POP PUSH32 0xB2BFA9090D50AD1A62CB284547F85F0E78E3B3DCCA2D82C2ECE1A3E9ABF25266 CALLER PUSH1 0x0 DUP1 PUSH1 0x40 MLOAD PUSH2 0x6AAB SWAP4 SWAP3 SWAP2 SWAP1 PUSH2 0x91F6 JUMP JUMPDEST PUSH1 0x40 MLOAD DUP1 SWAP2 SUB SWAP1 LOG1 PUSH2 0x6AF5 JUMP JUMPDEST PUSH32 0xB2BFA9090D50AD1A62CB284547F85F0E78E3B3DCCA2D82C2ECE1A3E9ABF25266 CALLER PUSH1 0x0 DUP1 PUSH1 0x40 MLOAD PUSH2 0x6AEC SWAP4 SWAP3 SWAP2 SWAP1 PUSH2 0x928A JUMP JUMPDEST PUSH1 0x40 MLOAD DUP1 SWAP2 SUB SWAP1 LOG1 JUMPDEST POP JUMPDEST POP JUMPDEST JUMPDEST POP POP POP POP POP JUMP JUMPDEST DUP3 DUP3 PUSH1 0x6 PUSH1 0x7 DUP2 GT ISZERO PUSH2 0x6B17 JUMPI PUSH2 0x6B16 PUSH2 0xA4C8 JUMP JUMPDEST JUMPDEST PUSH1 0x4 PUSH1 0x0 CALLER PUSH20 0xFFFFFFFFFFFFFFFFFFFFFFFFFFFFFFFFFFFFFFFF AND PUSH20 0xFFFFFFFFFFFFFFFFFFFFFFFFFFFFFFFFFFFFFFFF AND DUP2 MSTORE PUSH1 0x20 ADD SWAP1 DUP2 MSTORE PUSH1 0x20 ADD PUSH1 0x0 KECCAK256 PUSH1 0x0 SWAP1 SLOAD SWAP1 PUSH2 0x100 EXP SWAP1 DIV PUSH1 0xFF AND PUSH1 0x7 DUP2 GT ISZERO PUSH2 0x6B76 JUMPI PUSH2 0x6B75 PUSH2 0xA4C8 JUMP JUMPDEST JUMPDEST EQ ISZERO DUP1 ISZERO PUSH2 0x6BF5 JUMPI POP PUSH1 0x5 PUSH1 0x7 DUP2 GT ISZERO PUSH2 0x6B93 JUMPI PUSH2 0x6B92 PUSH2 0xA4C8 JUMP JUMPDEST JUMPDEST PUSH1 0x4 PUSH1 0x0 CALLER PUSH20 0xFFFFFFFFFFFFFFFFFFFFFFFFFFFFFFFFFFFFFFFF AND PUSH20 0xFFFFFFFFFFFFFFFFFFFFFFFFFFFFFFFFFFFFFFFF AND DUP2 MSTORE PUSH1 0x20 ADD SWAP1 DUP2 MSTORE PUSH1 0x20 ADD PUSH1 0x0 KECCAK256 PUSH1 0x0 SWAP1 SLOAD SWAP1 PUSH2 0x100 EXP SWAP1 DIV PUSH1 0xFF AND PUSH1 0x7 DUP2 GT ISZERO PUSH2 0x6BF2 JUMPI PUSH2 0x6BF1 PUSH2 0xA4C8 JUMP JUMPDEST JUMPDEST EQ ISZERO JUMPDEST DUP1 ISZERO PUSH2 0x6C71 JUMPI POP PUSH1 0x7 DUP1 DUP2 GT ISZERO PUSH2 0x6C0F JUMPI PUSH2 0x6C0E PUSH2 0xA4C8 JUMP JUMPDEST JUMPDEST PUSH1 0x4 PUSH1 0x0 CALLER PUSH20 0xFFFFFFFFFFFFFFFFFFFFFFFFFFFFFFFFFFFFFFFF AND PUSH20 0xFFFFFFFFFFFFFFFFFFFFFFFFFFFFFFFFFFFFFFFF AND DUP2 MSTORE PUSH1 0x20 ADD SWAP1 DUP2 MSTORE PUSH1 0x20 ADD PUSH1 0x0 KECCAK256 PUSH1 0x0 SWAP1 SLOAD SWAP1 PUSH2 0x100 EXP SWAP1 DIV PUSH1 0xFF AND PUSH1 0x7 DUP2 GT ISZERO PUSH2 0x6C6E JUMPI PUSH2 0x6C6D PUSH2 0xA4C8 JUMP JUMPDEST JUMPDEST EQ ISZERO JUMPDEST ISZERO PUSH2 0x6CB7 JUMPI PUSH32 0xB2BFA9090D50AD1A62CB284547F85F0E78E3B3DCCA2D82C2ECE1A3E9ABF25266 CALLER PUSH1 0x0 DUP1 PUSH1 0x40 MLOAD PUSH2 0x6CAA SWAP4 SWAP3 SWAP2 SWAP1 PUSH2 0x9A58 JUMP JUMPDEST PUSH1 0x40 MLOAD DUP1 SWAP2 SUB SWAP1 LOG1 PUSH2 0x706A JUMP JUMPDEST DUP2 DUP2 PUSH1 0x40 MLOAD PUSH1 0x20 ADD PUSH2 0x6CCA SWAP3 SWAP2 SWAP1 PUSH2 0x90AA JUMP JUMPDEST PUSH1 0x40 MLOAD PUSH1 0x20 DUP2 DUP4 SUB SUB DUP2 MSTORE SWAP1 PUSH1 0x40 MSTORE DUP1 MLOAD SWAP1 PUSH1 0x20 ADD KECCAK256 PUSH1 0x0 DUP1 CALLER PUSH20 0xFFFFFFFFFFFFFFFFFFFFFFFFFFFFFFFFFFFFFFFF AND PUSH20 0xFFFFFFFFFFFFFFFFFFFFFFFFFFFFFFFFFFFFFFFF AND DUP2 MSTORE PUSH1 0x20 ADD SWAP1 DUP2 MSTORE PUSH1 0x20 ADD PUSH1 0x0 KECCAK256 PUSH1 0x6 ADD SLOAD EQ DUP1 PUSH2 0x6D97 JUMPI POP DUP2 DUP2 PUSH1 0x40 MLOAD PUSH1 0x20 ADD PUSH2 0x6D3C SWAP3 SWAP2 SWAP1 PUSH2 0x90AA JUMP JUMPDEST PUSH1 0x40 MLOAD PUSH1 0x20 DUP2 DUP4 SUB SUB DUP2 MSTORE SWAP1 PUSH1 0x40 MSTORE DUP1 MLOAD SWAP1 PUSH1 0x20 ADD KECCAK256 PUSH1 0x1 PUSH1 0x0 CALLER PUSH20 0xFFFFFFFFFFFFFFFFFFFFFFFFFFFFFFFFFFFFFFFF AND PUSH20 0xFFFFFFFFFFFFFFFFFFFFFFFFFFFFFFFFFFFFFFFF AND DUP2 MSTORE PUSH1 0x20 ADD SWAP1 DUP2 MSTORE PUSH1 0x20 ADD PUSH1 0x0 KECCAK256 PUSH1 0x6 ADD SLOAD EQ JUMPDEST DUP1 PUSH2 0x6E0B JUMPI POP DUP2 DUP2 PUSH1 0x40 MLOAD PUSH1 0x20 ADD PUSH2 0x6DB0 SWAP3 SWAP2 SWAP1 PUSH2 0x90AA JUMP JUMPDEST PUSH1 0x40 MLOAD PUSH1 0x20 DUP2 DUP4 SUB SUB DUP2 MSTORE SWAP1 PUSH1 0x40 MSTORE DUP1 MLOAD SWAP1 PUSH1 0x20 ADD KECCAK256 PUSH1 0x2 PUSH1 0x0 CALLER PUSH20 0xFFFFFFFFFFFFFFFFFFFFFFFFFFFFFFFFFFFFFFFF AND PUSH20 0xFFFFFFFFFFFFFFFFFFFFFFFFFFFFFFFFFFFFFFFF AND DUP2 MSTORE PUSH1 0x20 ADD SWAP1 DUP2 MSTORE PUSH1 0x20 ADD PUSH1 0x0 KECCAK256 PUSH1 0x2 ADD SLOAD EQ JUMPDEST PUSH2 0x6E50 JUMPI PUSH32 0xB2BFA9090D50AD1A62CB284547F85F0E78E3B3DCCA2D82C2ECE1A3E9ABF25266 CALLER PUSH1 0x0 DUP1 PUSH1 0x40 MLOAD PUSH2 0x6E43 SWAP4 SWAP3 SWAP2 SWAP1 PUSH2 0x964C JUMP JUMPDEST PUSH1 0x40 MLOAD DUP1 SWAP2 SUB SWAP1 LOG1 PUSH2 0x706A JUMP JUMPDEST PUSH1 0x5 PUSH1 0x7 DUP2 GT ISZERO PUSH2 0x6E64 JUMPI PUSH2 0x6E63 PUSH2 0xA4C8 JUMP JUMPDEST JUMPDEST PUSH1 0x4 PUSH1 0x0 CALLER PUSH20 0xFFFFFFFFFFFFFFFFFFFFFFFFFFFFFFFFFFFFFFFF AND PUSH20 0xFFFFFFFFFFFFFFFFFFFFFFFFFFFFFFFFFFFFFFFF AND DUP2 MSTORE PUSH1 0x20 ADD SWAP1 DUP2 MSTORE PUSH1 0x20 ADD PUSH1 0x0 KECCAK256 PUSH1 0x0 SWAP1 SLOAD SWAP1 PUSH2 0x100 EXP SWAP1 DIV PUSH1 0xFF AND PUSH1 0x7 DUP2 GT ISZERO PUSH2 0x6EC3 JUMPI PUSH2 0x6EC2 PUSH2 0xA4C8 JUMP JUMPDEST JUMPDEST EQ PUSH2 0x6F09 JUMPI PUSH32 0xB2BFA9090D50AD1A62CB284547F85F0E78E3B3DCCA2D82C2ECE1A3E9ABF25266 CALLER PUSH1 0x0 DUP1 PUSH1 0x40 MLOAD PUSH2 0x6EFC SWAP4 SWAP3 SWAP2 SWAP1 PUSH2 0x9162 JUMP JUMPDEST PUSH1 0x40 MLOAD DUP1 SWAP2 SUB SWAP1 LOG1 PUSH2 0x7069 JUMP JUMPDEST PUSH1 0x0 PUSH1 0x7 DUP2 GT ISZERO PUSH2 0x6F1D JUMPI PUSH2 0x6F1C PUSH2 0xA4C8 JUMP JUMPDEST JUMPDEST PUSH1 0x4 PUSH1 0x0 DUP6 PUSH20 0xFFFFFFFFFFFFFFFFFFFFFFFFFFFFFFFFFFFFFFFF AND PUSH20 0xFFFFFFFFFFFFFFFFFFFFFFFFFFFFFFFFFFFFFFFF AND DUP2 MSTORE PUSH1 0x20 ADD SWAP1 DUP2 MSTORE PUSH1 0x20 ADD PUSH1 0x0 KECCAK256 PUSH1 0x0 SWAP1 SLOAD SWAP1 PUSH2 0x100 EXP SWAP1 DIV PUSH1 0xFF AND PUSH1 0x7 DUP2 GT ISZERO PUSH2 0x6F7C JUMPI PUSH2 0x6F7B PUSH2 0xA4C8 JUMP JUMPDEST JUMPDEST EQ ISZERO PUSH2 0x702B JUMPI PUSH1 0x3 PUSH1 0x4 PUSH1 0x0 DUP6 PUSH20 0xFFFFFFFFFFFFFFFFFFFFFFFFFFFFFFFFFFFFFFFF AND PUSH20 0xFFFFFFFFFFFFFFFFFFFFFFFFFFFFFFFFFFFFFFFF AND DUP2 MSTORE PUSH1 0x20 ADD SWAP1 DUP2 MSTORE PUSH1 0x20 ADD PUSH1 0x0 KECCAK256 PUSH1 0x0 PUSH2 0x100 EXP DUP2 SLOAD DUP2 PUSH1 0xFF MUL NOT AND SWAP1 DUP4 PUSH1 0x7 DUP2 GT ISZERO PUSH2 0x6FE5 JUMPI PUSH2 0x6FE4 PUSH2 0xA4C8 JUMP JUMPDEST JUMPDEST MUL OR SWAP1 SSTORE POP PUSH32 0xB2BFA9090D50AD1A62CB284547F85F0E78E3B3DCCA2D82C2ECE1A3E9ABF25266 CALLER PUSH1 0x0 DUP1 PUSH1 0x40 MLOAD PUSH2 0x701E SWAP4 SWAP3 SWAP2 SWAP1 PUSH2 0x9118 JUMP JUMPDEST PUSH1 0x40 MLOAD DUP1 SWAP2 SUB SWAP1 LOG1 PUSH2 0x7068 JUMP JUMPDEST PUSH32 0xB2BFA9090D50AD1A62CB284547F85F0E78E3B3DCCA2D82C2ECE1A3E9ABF25266 CALLER PUSH1 0x0 DUP1 PUSH1 0x40 MLOAD PUSH2 0x705F SWAP4 SWAP3 SWAP2 SWAP1 PUSH2 0x90CE JUMP JUMPDEST PUSH1 0x40 MLOAD DUP1 SWAP2 SUB SWAP1 LOG1 JUMPDEST JUMPDEST JUMPDEST POP POP POP POP POP JUMP JUMPDEST PUSH1 0x0 DUP1 PUSH1 0x6 PUSH1 0x0 DUP5 PUSH20 0xFFFFFFFFFFFFFFFFFFFFFFFFFFFFFFFFFFFFFFFF AND PUSH20 0xFFFFFFFFFFFFFFFFFFFFFFFFFFFFFFFFFFFFFFFF AND DUP2 MSTORE PUSH1 0x20 ADD SWAP1 DUP2 MSTORE PUSH1 0x20 ADD PUSH1 0x0 KECCAK256 DUP1 SLOAD SWAP1 POP EQ PUSH2 0x71F9 JUMPI PUSH1 0x0 PUSH1 0x6 PUSH1 0x0 DUP5 PUSH20 0xFFFFFFFFFFFFFFFFFFFFFFFFFFFFFFFFFFFFFFFF AND PUSH20 0xFFFFFFFFFFFFFFFFFFFFFFFFFFFFFFFFFFFFFFFF AND DUP2 MSTORE PUSH1 0x20 ADD SWAP1 DUP2 MSTORE PUSH1 0x20 ADD PUSH1 0x0 KECCAK256 DUP1 SLOAD DUP1 PUSH1 0x20 MUL PUSH1 0x20 ADD PUSH1 0x40 MLOAD SWAP1 DUP2 ADD PUSH1 0x40 MSTORE DUP1 SWAP3 SWAP2 SWAP1 DUP2 DUP2 MSTORE PUSH1 0x20 ADD DUP3 DUP1 SLOAD DUP1 ISZERO PUSH2 0x7147 JUMPI PUSH1 0x20 MUL DUP3 ADD SWAP2 SWAP1 PUSH1 0x0 MSTORE PUSH1 0x20 PUSH1 0x0 KECCAK256 SWAP1 JUMPDEST DUP2 SLOAD DUP2 MSTORE PUSH1 0x20 ADD SWAP1 PUSH1 0x1 ADD SWAP1 DUP1 DUP4 GT PUSH2 0x7133 JUMPI JUMPDEST POP POP POP POP POP SWAP1 POP PUSH1 0x0 JUMPDEST DUP2 MLOAD DUP2 LT ISZERO PUSH2 0x71F6 JUMPI PUSH1 0x0 DUP3 DUP3 DUP2 MLOAD DUP2 LT PUSH2 0x716F JUMPI PUSH2 0x716E PUSH2 0xA526 JUMP JUMPDEST JUMPDEST PUSH1 0x20 MUL PUSH1 0x20 ADD ADD MLOAD SWAP1 POP PUSH1 0x3 DUP1 DUP2 GT ISZERO PUSH2 0x718C JUMPI PUSH2 0x718B PUSH2 0xA4C8 JUMP JUMPDEST JUMPDEST PUSH1 0x7 DUP3 DUP2 SLOAD DUP2 LT PUSH2 0x71A0 JUMPI PUSH2 0x719F PUSH2 0xA526 JUMP JUMPDEST JUMPDEST SWAP1 PUSH1 0x0 MSTORE PUSH1 0x20 PUSH1 0x0 KECCAK256 SWAP1 PUSH1 0x9 MUL ADD PUSH1 0x6 ADD PUSH1 0x0 SWAP1 SLOAD SWAP1 PUSH2 0x100 EXP SWAP1 DIV PUSH1 0xFF AND PUSH1 0x3 DUP2 GT ISZERO PUSH2 0x71D1 JUMPI PUSH2 0x71D0 PUSH2 0xA4C8 JUMP JUMPDEST JUMPDEST EQ ISZERO PUSH2 0x71E2 JUMPI DUP1 SWAP4 POP POP POP POP PUSH2 0x71FA JUMP JUMPDEST POP DUP1 DUP1 PUSH2 0x71EE SWAP1 PUSH2 0xA450 JUMP JUMPDEST SWAP2 POP POP PUSH2 0x7151 JUMP JUMPDEST POP POP JUMPDEST JUMPDEST SWAP2 SWAP1 POP JUMP JUMPDEST PUSH1 0x0 PUSH1 0xE DUP4 MLOAD LT PUSH2 0x72B0 JUMPI PUSH1 0x64 DUP4 MLOAD GT PUSH2 0x726E JUMPI PUSH1 0x9 DUP1 SLOAD SWAP1 POP DUP3 PUSH2 0xFFFF AND LT ISZERO PUSH2 0x722D JUMPI PUSH1 0x1 SWAP1 POP PUSH2 0x72F2 JUMP JUMPDEST PUSH32 0xB2BFA9090D50AD1A62CB284547F85F0E78E3B3DCCA2D82C2ECE1A3E9ABF25266 CALLER PUSH1 0x0 DUP1 PUSH1 0x40 MLOAD PUSH2 0x7261 SWAP4 SWAP3 SWAP2 SWAP1 PUSH2 0x931E JUMP JUMPDEST PUSH1 0x40 MLOAD DUP1 SWAP2 SUB SWAP1 LOG1 PUSH2 0x72AB JUMP JUMPDEST PUSH32 0xB2BFA9090D50AD1A62CB284547F85F0E78E3B3DCCA2D82C2ECE1A3E9ABF25266 CALLER PUSH1 0x0 DUP1 PUSH1 0x40 MLOAD PUSH2 0x72A2 SWAP4 SWAP3 SWAP2 SWAP1 PUSH2 0x9A0E JUMP JUMPDEST PUSH1 0x40 MLOAD DUP1 SWAP2 SUB SWAP1 LOG1 JUMPDEST PUSH2 0x72ED JUMP JUMPDEST PUSH32 0xB2BFA9090D50AD1A62CB284547F85F0E78E3B3DCCA2D82C2ECE1A3E9ABF25266 CALLER PUSH1 0x0 DUP1 PUSH1 0x40 MLOAD PUSH2 0x72E4 SWAP4 SWAP3 SWAP2 SWAP1 PUSH2 0x9490 JUMP JUMPDEST PUSH1 0x40 MLOAD DUP1 SWAP2 SUB SWAP1 LOG1 JUMPDEST PUSH1 0x0 SWAP1 POP JUMPDEST SWAP3 SWAP2 POP POP JUMP JUMPDEST PUSH1 0x0 PUSH1 0x7 PUSH1 0x1 DUP2 PUSH1 0x1 DUP2 SLOAD ADD DUP1 DUP3 SSTORE DUP1 SWAP2 POP POP SUB SWAP1 PUSH1 0x0 MSTORE PUSH1 0x20 PUSH1 0x0 KECCAK256 SWAP1 POP POP PUSH1 0x0 PUSH1 0x1 PUSH1 0x7 DUP1 SLOAD SWAP1 POP PUSH2 0x732C SWAP2 SWAP1 PUSH2 0xA2BA JUMP JUMPDEST SWAP1 POP PUSH1 0x0 PUSH1 0x7 DUP3 DUP2 SLOAD DUP2 LT PUSH2 0x7344 JUMPI PUSH2 0x7343 PUSH2 0xA526 JUMP JUMPDEST JUMPDEST SWAP1 PUSH1 0x0 MSTORE PUSH1 0x20 PUSH1 0x0 KECCAK256 SWAP1 PUSH1 0x9 MUL ADD SWAP1 POP DUP6 DUP2 PUSH1 0x0 ADD SWAP1 DUP1 MLOAD SWAP1 PUSH1 0x20 ADD SWAP1 PUSH2 0x736C SWAP3 SWAP2 SWAP1 PUSH2 0x7A3B JUMP JUMPDEST POP DUP4 DUP2 PUSH1 0x2 ADD PUSH1 0x0 PUSH2 0x100 EXP DUP2 SLOAD DUP2 PUSH20 0xFFFFFFFFFFFFFFFFFFFFFFFFFFFFFFFFFFFFFFFF MUL NOT AND SWAP1 DUP4 PUSH20 0xFFFFFFFFFFFFFFFFFFFFFFFFFFFFFFFFFFFFFFFF AND MUL OR SWAP1 SSTORE POP DUP5 DUP2 PUSH1 0x4 ADD PUSH1 0x0 PUSH2 0x100 EXP DUP2 SLOAD DUP2 PUSH2 0xFFFF MUL NOT AND SWAP1 DUP4 PUSH2 0xFFFF AND MUL OR SWAP1 SSTORE POP PUSH1 0x1 PUSH1 0x0 DUP6 PUSH20 0xFFFFFFFFFFFFFFFFFFFFFFFFFFFFFFFFFFFFFFFF AND PUSH20 0xFFFFFFFFFFFFFFFFFFFFFFFFFFFFFFFFFFFFFFFF AND DUP2 MSTORE PUSH1 0x20 ADD SWAP1 DUP2 MSTORE PUSH1 0x20 ADD PUSH1 0x0 KECCAK256 PUSH1 0x4 ADD DUP2 PUSH1 0x5 ADD SWAP1 DUP1 SLOAD PUSH2 0x7423 SWAP3 SWAP2 SWAP1 PUSH2 0x7BEE JUMP JUMPDEST POP PUSH1 0x3 DUP2 PUSH1 0x6 ADD PUSH1 0x0 PUSH2 0x100 EXP DUP2 SLOAD DUP2 PUSH1 0xFF MUL NOT AND SWAP1 DUP4 PUSH1 0x3 DUP2 GT ISZERO PUSH2 0x744C JUMPI PUSH2 0x744B PUSH2 0xA4C8 JUMP JUMPDEST JUMPDEST MUL OR SWAP1 SSTORE POP PUSH1 0x6 PUSH1 0x0 DUP6 PUSH20 0xFFFFFFFFFFFFFFFFFFFFFFFFFFFFFFFFFFFFFFFF AND PUSH20 0xFFFFFFFFFFFFFFFFFFFFFFFFFFFFFFFFFFFFFFFF AND DUP2 MSTORE PUSH1 0x20 ADD SWAP1 DUP2 MSTORE PUSH1 0x20 ADD PUSH1 0x0 KECCAK256 DUP3 SWAP1 DUP1 PUSH1 0x1 DUP2 SLOAD ADD DUP1 DUP3 SSTORE DUP1 SWAP2 POP POP PUSH1 0x1 SWAP1 SUB SWAP1 PUSH1 0x0 MSTORE PUSH1 0x20 PUSH1 0x0 KECCAK256 ADD PUSH1 0x0 SWAP1 SWAP2 SWAP1 SWAP2 SWAP1 SWAP2 POP SSTORE PUSH32 0xB2BFA9090D50AD1A62CB284547F85F0E78E3B3DCCA2D82C2ECE1A3E9ABF25266 CALLER PUSH1 0x0 DUP5 PUSH1 0x40 MLOAD PUSH2 0x74EB SWAP4 SWAP3 SWAP2 SWAP1 PUSH2 0x9E64 JUMP JUMPDEST PUSH1 0x40 MLOAD DUP1 SWAP2 SUB SWAP1 LOG1 DUP2 SWAP3 POP POP POP SWAP4 SWAP3 POP POP POP JUMP JUMPDEST PUSH1 0x0 DUP1 DUP3 MLOAD EQ PUSH2 0x777B JUMPI PUSH1 0x0 PUSH20 0xFFFFFFFFFFFFFFFFFFFFFFFFFFFFFFFFFFFFFFFF AND PUSH1 0x5 DUP5 PUSH1 0x40 MLOAD PUSH2 0x7531 SWAP2 SWAP1 PUSH2 0x9093 JUMP JUMPDEST SWAP1 DUP2 MSTORE PUSH1 0x20 ADD PUSH1 0x40 MLOAD DUP1 SWAP2 SUB SWAP1 KECCAK256 PUSH1 0x0 SWAP1 SLOAD SWAP1 PUSH2 0x100 EXP SWAP1 DIV PUSH20 0xFFFFFFFFFFFFFFFFFFFFFFFFFFFFFFFFFFFFFFFF AND PUSH20 0xFFFFFFFFFFFFFFFFFFFFFFFFFFFFFFFFFFFFFFFF AND EQ ISZERO PUSH2 0x7739 JUMPI PUSH1 0x5 PUSH1 0x7 DUP2 GT ISZERO PUSH2 0x7590 JUMPI PUSH2 0x758F PUSH2 0xA4C8 JUMP JUMPDEST JUMPDEST PUSH1 0x4 PUSH1 0x0 CALLER PUSH20 0xFFFFFFFFFFFFFFFFFFFFFFFFFFFFFFFFFFFFFFFF AND PUSH20 0xFFFFFFFFFFFFFFFFFFFFFFFFFFFFFFFFFFFFFFFF AND DUP2 MSTORE PUSH1 0x20 ADD SWAP1 DUP2 MSTORE PUSH1 0x20 ADD PUSH1 0x0 KECCAK256 PUSH1 0x0 SWAP1 SLOAD SWAP1 PUSH2 0x100 EXP SWAP1 DIV PUSH1 0xFF AND PUSH1 0x7 DUP2 GT ISZERO PUSH2 0x75EF JUMPI PUSH2 0x75EE PUSH2 0xA4C8 JUMP JUMPDEST JUMPDEST EQ ISZERO DUP1 ISZERO PUSH2 0x766E JUMPI POP PUSH1 0x6 PUSH1 0x7 DUP2 GT ISZERO PUSH2 0x760C JUMPI PUSH2 0x760B PUSH2 0xA4C8 JUMP JUMPDEST JUMPDEST PUSH1 0x4 PUSH1 0x0 CALLER PUSH20 0xFFFFFFFFFFFFFFFFFFFFFFFFFFFFFFFFFFFFFFFF AND PUSH20 0xFFFFFFFFFFFFFFFFFFFFFFFFFFFFFFFFFFFFFFFF AND DUP2 MSTORE PUSH1 0x20 ADD SWAP1 DUP2 MSTORE PUSH1 0x20 ADD PUSH1 0x0 KECCAK256 PUSH1 0x0 SWAP1 SLOAD SWAP1 PUSH2 0x100 EXP SWAP1 DIV PUSH1 0xFF AND PUSH1 0x7 DUP2 GT ISZERO PUSH2 0x766B JUMPI PUSH2 0x766A PUSH2 0xA4C8 JUMP JUMPDEST JUMPDEST EQ ISZERO JUMPDEST DUP1 ISZERO PUSH2 0x76EA JUMPI POP PUSH1 0x7 DUP1 DUP2 GT ISZERO PUSH2 0x7688 JUMPI PUSH2 0x7687 PUSH2 0xA4C8 JUMP JUMPDEST JUMPDEST PUSH1 0x4 PUSH1 0x0 CALLER PUSH20 0xFFFFFFFFFFFFFFFFFFFFFFFFFFFFFFFFFFFFFFFF AND PUSH20 0xFFFFFFFFFFFFFFFFFFFFFFFFFFFFFFFFFFFFFFFF AND DUP2 MSTORE PUSH1 0x20 ADD SWAP1 DUP2 MSTORE PUSH1 0x20 ADD PUSH1 0x0 KECCAK256 PUSH1 0x0 SWAP1 SLOAD SWAP1 PUSH2 0x100 EXP SWAP1 DIV PUSH1 0xFF AND PUSH1 0x7 DUP2 GT ISZERO PUSH2 0x76E7 JUMPI PUSH2 0x76E6 PUSH2 0xA4C8 JUMP JUMPDEST JUMPDEST EQ ISZERO JUMPDEST ISZERO PUSH2 0x76F8 JUMPI PUSH1 0x1 SWAP1 POP PUSH2 0x77BD JUMP JUMPDEST PUSH32 0xB2BFA9090D50AD1A62CB284547F85F0E78E3B3DCCA2D82C2ECE1A3E9ABF25266 CALLER PUSH1 0x0 DUP1 PUSH1 0x40 MLOAD PUSH2 0x772C SWAP4 SWAP3 SWAP2 SWAP1 PUSH2 0x9774 JUMP JUMPDEST PUSH1 0x40 MLOAD DUP1 SWAP2 SUB SWAP1 LOG1 PUSH2 0x7776 JUMP JUMPDEST PUSH32 0xB2BFA9090D50AD1A62CB284547F85F0E78E3B3DCCA2D82C2ECE1A3E9ABF25266 CALLER PUSH1 0x0 DUP1 PUSH1 0x40 MLOAD PUSH2 0x776D SWAP4 SWAP3 SWAP2 SWAP1 PUSH2 0x9808 JUMP JUMPDEST PUSH1 0x40 MLOAD DUP1 SWAP2 SUB SWAP1 LOG1 JUMPDEST PUSH2 0x77B8 JUMP JUMPDEST PUSH32 0xB2BFA9090D50AD1A62CB284547F85F0E78E3B3DCCA2D82C2ECE1A3E9ABF25266 CALLER PUSH1 0x0 DUP1 PUSH1 0x40 MLOAD PUSH2 0x77AF SWAP4 SWAP3 SWAP2 SWAP1 PUSH2 0x9446 JUMP JUMPDEST PUSH1 0x40 MLOAD DUP1 SWAP2 SUB SWAP1 LOG1 JUMPDEST PUSH1 0x0 SWAP1 POP JUMPDEST SWAP3 SWAP2 POP POP JUMP JUMPDEST PUSH1 0x60 PUSH1 0x0 PUSH1 0x6 PUSH1 0x0 DUP5 PUSH20 0xFFFFFFFFFFFFFFFFFFFFFFFFFFFFFFFFFFFFFFFF AND PUSH20 0xFFFFFFFFFFFFFFFFFFFFFFFFFFFFFFFFFFFFFFFF AND DUP2 MSTORE PUSH1 0x20 ADD SWAP1 DUP2 MSTORE PUSH1 0x20 ADD PUSH1 0x0 KECCAK256 DUP1 SLOAD SWAP1 POP EQ PUSH2 0x7A35 JUMPI PUSH1 0x0 PUSH1 0x6 PUSH1 0x0 DUP5 PUSH20 0xFFFFFFFFFFFFFFFFFFFFFFFFFFFFFFFFFFFFFFFF AND PUSH20 0xFFFFFFFFFFFFFFFFFFFFFFFFFFFFFFFFFFFFFFFF AND DUP2 MSTORE PUSH1 0x20 ADD SWAP1 DUP2 MSTORE PUSH1 0x20 ADD PUSH1 0x0 KECCAK256 DUP1 SLOAD DUP1 PUSH1 0x20 MUL PUSH1 0x20 ADD PUSH1 0x40 MLOAD SWAP1 DUP2 ADD PUSH1 0x40 MSTORE DUP1 SWAP3 SWAP2 SWAP1 DUP2 DUP2 MSTORE PUSH1 0x20 ADD DUP3 DUP1 SLOAD DUP1 ISZERO PUSH2 0x789A JUMPI PUSH1 0x20 MUL DUP3 ADD SWAP2 SWAP1 PUSH1 0x0 MSTORE PUSH1 0x20 PUSH1 0x0 KECCAK256 SWAP1 JUMPDEST DUP2 SLOAD DUP2 MSTORE PUSH1 0x20 ADD SWAP1 PUSH1 0x1 ADD SWAP1 DUP1 DUP4 GT PUSH2 0x7886 JUMPI JUMPDEST POP POP POP POP POP SWAP1 POP PUSH1 0x6 PUSH1 0x0 DUP5 PUSH20 0xFFFFFFFFFFFFFFFFFFFFFFFFFFFFFFFFFFFFFFFF AND PUSH20 0xFFFFFFFFFFFFFFFFFFFFFFFFFFFFFFFFFFFFFFFF AND DUP2 MSTORE PUSH1 0x20 ADD SWAP1 DUP2 MSTORE PUSH1 0x20 ADD PUSH1 0x0 KECCAK256 DUP1 SLOAD SWAP1 POP PUSH8 0xFFFFFFFFFFFFFFFF DUP2 GT ISZERO PUSH2 0x78FD JUMPI PUSH2 0x78FC PUSH2 0xA555 JUMP JUMPDEST JUMPDEST PUSH1 0x40 MLOAD SWAP1 DUP1 DUP3 MSTORE DUP1 PUSH1 0x20 MUL PUSH1 0x20 ADD DUP3 ADD PUSH1 0x40 MSTORE DUP1 ISZERO PUSH2 0x7930 JUMPI DUP2 PUSH1 0x20 ADD JUMPDEST PUSH1 0x60 DUP2 MSTORE PUSH1 0x20 ADD SWAP1 PUSH1 0x1 SWAP1 SUB SWAP1 DUP2 PUSH2 0x791B JUMPI SWAP1 POP JUMPDEST POP SWAP2 POP PUSH1 0x0 DUP1 JUMPDEST DUP3 MLOAD DUP2 LT ISZERO PUSH2 0x7A2D JUMPI PUSH1 0x7 DUP2 DUP2 SLOAD DUP2 LT PUSH2 0x7954 JUMPI PUSH2 0x7953 PUSH2 0xA526 JUMP JUMPDEST JUMPDEST SWAP1 PUSH1 0x0 MSTORE PUSH1 0x20 PUSH1 0x0 KECCAK256 SWAP1 PUSH1 0x9 MUL ADD PUSH1 0x0 ADD DUP1 SLOAD PUSH2 0x7970 SWAP1 PUSH2 0xA3ED JUMP JUMPDEST DUP1 PUSH1 0x1F ADD PUSH1 0x20 DUP1 SWAP2 DIV MUL PUSH1 0x20 ADD PUSH1 0x40 MLOAD SWAP1 DUP2 ADD PUSH1 0x40 MSTORE DUP1 SWAP3 SWAP2 SWAP1 DUP2 DUP2 MSTORE PUSH1 0x20 ADD DUP3 DUP1 SLOAD PUSH2 0x799C SWAP1 PUSH2 0xA3ED JUMP JUMPDEST DUP1 ISZERO PUSH2 0x79E9 JUMPI DUP1 PUSH1 0x1F LT PUSH2 0x79BE JUMPI PUSH2 0x100 DUP1 DUP4 SLOAD DIV MUL DUP4 MSTORE SWAP2 PUSH1 0x20 ADD SWAP2 PUSH2 0x79E9 JUMP JUMPDEST DUP3 ADD SWAP2 SWAP1 PUSH1 0x0 MSTORE PUSH1 0x20 PUSH1 0x0 KECCAK256 SWAP1 JUMPDEST DUP2 SLOAD DUP2 MSTORE SWAP1 PUSH1 0x1 ADD SWAP1 PUSH1 0x20 ADD DUP1 DUP4 GT PUSH2 0x79CC JUMPI DUP3 SWAP1 SUB PUSH1 0x1F AND DUP3 ADD SWAP2 JUMPDEST POP POP POP POP POP DUP5 DUP4 DUP2 MLOAD DUP2 LT PUSH2 0x7A01 JUMPI PUSH2 0x7A00 PUSH2 0xA526 JUMP JUMPDEST JUMPDEST PUSH1 0x20 MUL PUSH1 0x20 ADD ADD DUP2 SWAP1 MSTORE POP DUP2 DUP1 PUSH2 0x7A17 SWAP1 PUSH2 0xA450 JUMP JUMPDEST SWAP3 POP POP DUP1 DUP1 PUSH2 0x7A25 SWAP1 PUSH2 0xA450 JUMP JUMPDEST SWAP2 POP POP PUSH2 0x7937 JUMP JUMPDEST POP POP POP PUSH2 0x7A36 JUMP JUMPDEST JUMPDEST SWAP2 SWAP1 POP JUMP JUMPDEST DUP3 DUP1 SLOAD PUSH2 0x7A47 SWAP1 PUSH2 0xA3ED JUMP JUMPDEST SWAP1 PUSH1 0x0 MSTORE PUSH1 0x20 PUSH1 0x0 KECCAK256 SWAP1 PUSH1 0x1F ADD PUSH1 0x20 SWAP1 DIV DUP2 ADD SWAP3 DUP3 PUSH2 0x7A69 JUMPI PUSH1 0x0 DUP6 SSTORE PUSH2 0x7AB0 JUMP JUMPDEST DUP3 PUSH1 0x1F LT PUSH2 0x7A82 JUMPI DUP1 MLOAD PUSH1 0xFF NOT AND DUP4 DUP1 ADD OR DUP6 SSTORE PUSH2 0x7AB0 JUMP JUMPDEST DUP3 DUP1 ADD PUSH1 0x1 ADD DUP6 SSTORE DUP3 ISZERO PUSH2 0x7AB0 JUMPI SWAP2 DUP3 ADD JUMPDEST DUP3 DUP2 GT ISZERO PUSH2 0x7AAF JUMPI DUP3 MLOAD DUP3 SSTORE SWAP2 PUSH1 0x20 ADD SWAP2 SWAP1 PUSH1 0x1 ADD SWAP1 PUSH2 0x7A94 JUMP JUMPDEST JUMPDEST POP SWAP1 POP PUSH2 0x7ABD SWAP2 SWAP1 PUSH2 0x7C4E JUMP JUMPDEST POP SWAP1 JUMP JUMPDEST POP DUP1 SLOAD PUSH2 0x7ACD SWAP1 PUSH2 0xA3ED JUMP JUMPDEST PUSH1 0x0 DUP3 SSTORE DUP1 PUSH1 0x1F LT PUSH2 0x7ADF JUMPI POP PUSH2 0x7AFE JUMP JUMPDEST PUSH1 0x1F ADD PUSH1 0x20 SWAP1 DIV SWAP1 PUSH1 0x0 MSTORE PUSH1 0x20 PUSH1 0x0 KECCAK256 SWAP1 DUP2 ADD SWAP1 PUSH2 0x7AFD SWAP2 SWAP1 PUSH2 0x7C4E JUMP JUMPDEST JUMPDEST POP JUMP JUMPDEST DUP3 DUP1 SLOAD DUP3 DUP3 SSTORE SWAP1 PUSH1 0x0 MSTORE PUSH1 0x20 PUSH1 0x0 KECCAK256 SWAP1 PUSH1 0xF ADD PUSH1 0x10 SWAP1 DIV DUP2 ADD SWAP3 DUP3 ISZERO PUSH2 0x7B9A JUMPI SWAP2 PUSH1 0x20 MUL DUP3 ADD PUSH1 0x0 JUMPDEST DUP4 DUP3 GT ISZERO PUSH2 0x7B6A JUMPI DUP4 MLOAD DUP4 DUP3 PUSH2 0x100 EXP DUP2 SLOAD DUP2 PUSH2 0xFFFF MUL NOT AND SWAP1 DUP4 PUSH2 0xFFFF AND MUL OR SWAP1 SSTORE POP SWAP3 PUSH1 0x20 ADD SWAP3 PUSH1 0x2 ADD PUSH1 0x20 DUP2 PUSH1 0x1 ADD DIV SWAP3 DUP4 ADD SWAP3 PUSH1 0x1 SUB MUL PUSH2 0x7B2A JUMP JUMPDEST DUP1 ISZERO PUSH2 0x7B98 JUMPI DUP3 DUP2 PUSH2 0x100 EXP DUP2 SLOAD SWAP1 PUSH2 0xFFFF MUL NOT AND SWAP1 SSTORE PUSH1 0x2 ADD PUSH1 0x20 DUP2 PUSH1 0x1 ADD DIV SWAP3 DUP4 ADD SWAP3 PUSH1 0x1 SUB MUL PUSH2 0x7B6A JUMP JUMPDEST POP JUMPDEST POP SWAP1 POP PUSH2 0x7BA7 SWAP2 SWAP1 PUSH2 0x7C4E JUMP JUMPDEST POP SWAP1 JUMP JUMPDEST PUSH1 0x40 MLOAD DUP1 PUSH1 0xE0 ADD PUSH1 0x40 MSTORE DUP1 PUSH1 0x60 DUP2 MSTORE PUSH1 0x20 ADD PUSH1 0x60 DUP2 MSTORE PUSH1 0x20 ADD PUSH1 0x60 DUP2 MSTORE PUSH1 0x20 ADD PUSH1 0x60 DUP2 MSTORE PUSH1 0x20 ADD PUSH1 0x60 DUP2 MSTORE PUSH1 0x20 ADD PUSH1 0x0 PUSH1 0xFF AND DUP2 MSTORE PUSH1 0x20 ADD PUSH1 0x0 DUP1 NOT AND DUP2 MSTORE POP SWAP1 JUMP JUMPDEST DUP3 DUP1 SLOAD DUP3 DUP3 SSTORE SWAP1 PUSH1 0x0 MSTORE PUSH1 0x20 PUSH1 0x0 KECCAK256 SWAP1 PUSH1 0xF ADD PUSH1 0x10 SWAP1 DIV DUP2 ADD SWAP3 DUP3 ISZERO PUSH2 0x7C3D JUMPI PUSH1 0x0 MSTORE PUSH1 0x20 PUSH1 0x0 KECCAK256 SWAP2 PUSH1 0xF ADD PUSH1 0x10 SWAP1 DIV DUP3 ADD JUMPDEST DUP3 DUP2 GT ISZERO PUSH2 0x7C3C JUMPI DUP3 SLOAD DUP3 SSTORE SWAP2 PUSH1 0x1 ADD SWAP2 SWAP1 PUSH1 0x1 ADD SWAP1 PUSH2 0x7C21 JUMP JUMPDEST JUMPDEST POP SWAP1 POP PUSH2 0x7C4A SWAP2 SWAP1 PUSH2 0x7C4E JUMP JUMPDEST POP SWAP1 JUMP JUMPDEST JUMPDEST DUP1 DUP3 GT ISZERO PUSH2 0x7C67 JUMPI PUSH1 0x0 DUP2 PUSH1 0x0 SWAP1 SSTORE POP PUSH1 0x1 ADD PUSH2 0x7C4F JUMP JUMPDEST POP SWAP1 JUMP JUMPDEST PUSH1 0x0 PUSH2 0x7C7E PUSH2 0x7C79 DUP5 PUSH2 0xA130 JUMP JUMPDEST PUSH2 0xA10B JUMP JUMPDEST SWAP1 POP DUP1 DUP4 DUP3 MSTORE PUSH1 0x20 DUP3 ADD SWAP1 POP DUP3 DUP6 PUSH1 0x20 DUP7 MUL DUP3 ADD GT ISZERO PUSH2 0x7CA1 JUMPI PUSH2 0x7CA0 PUSH2 0xA589 JUMP JUMPDEST JUMPDEST PUSH1 0x0 JUMPDEST DUP6 DUP2 LT ISZERO PUSH2 0x7CD1 JUMPI DUP2 PUSH2 0x7CB7 DUP9 DUP3 PUSH2 0x7D8E JUMP JUMPDEST DUP5 MSTORE PUSH1 0x20 DUP5 ADD SWAP4 POP PUSH1 0x20 DUP4 ADD SWAP3 POP POP PUSH1 0x1 DUP2 ADD SWAP1 POP PUSH2 0x7CA4 JUMP JUMPDEST POP POP POP SWAP4 SWAP3 POP POP POP JUMP JUMPDEST PUSH1 0x0 PUSH2 0x7CEE PUSH2 0x7CE9 DUP5 PUSH2 0xA15C JUMP JUMPDEST PUSH2 0xA10B JUMP JUMPDEST SWAP1 POP DUP3 DUP2 MSTORE PUSH1 0x20 DUP2 ADD DUP5 DUP5 DUP5 ADD GT ISZERO PUSH2 0x7D0A JUMPI PUSH2 0x7D09 PUSH2 0xA58E JUMP JUMPDEST JUMPDEST PUSH2 0x7D15 DUP5 DUP3 DUP6 PUSH2 0xA3AB JUMP JUMPDEST POP SWAP4 SWAP3 POP POP POP JUMP JUMPDEST PUSH1 0x0 DUP2 CALLDATALOAD SWAP1 POP PUSH2 0x7D2C DUP2 PUSH2 0xADF5 JUMP JUMPDEST SWAP3 SWAP2 POP POP JUMP JUMPDEST PUSH1 0x0 DUP3 PUSH1 0x1F DUP4 ADD SLT PUSH2 0x7D47 JUMPI PUSH2 0x7D46 PUSH2 0xA584 JUMP JUMPDEST JUMPDEST DUP2 CALLDATALOAD PUSH2 0x7D57 DUP5 DUP3 PUSH1 0x20 DUP7 ADD PUSH2 0x7C6B JUMP JUMPDEST SWAP2 POP POP SWAP3 SWAP2 POP POP JUMP JUMPDEST PUSH1 0x0 DUP3 PUSH1 0x1F DUP4 ADD SLT PUSH2 0x7D75 JUMPI PUSH2 0x7D74 PUSH2 0xA584 JUMP JUMPDEST JUMPDEST DUP2 CALLDATALOAD PUSH2 0x7D85 DUP5 DUP3 PUSH1 0x20 DUP7 ADD PUSH2 0x7CDB JUMP JUMPDEST SWAP2 POP POP SWAP3 SWAP2 POP POP JUMP JUMPDEST PUSH1 0x0 DUP2 CALLDATALOAD SWAP1 POP PUSH2 0x7D9D DUP2 PUSH2 0xAE0C JUMP JUMPDEST SWAP3 SWAP2 POP POP JUMP JUMPDEST PUSH1 0x0 DUP2 CALLDATALOAD SWAP1 POP PUSH2 0x7DB2 DUP2 PUSH2 0xAE23 JUMP JUMPDEST SWAP3 SWAP2 POP POP JUMP JUMPDEST PUSH1 0x0 DUP2 CALLDATALOAD SWAP1 POP PUSH2 0x7DC7 DUP2 PUSH2 0xAE3A JUMP JUMPDEST SWAP3 SWAP2 POP POP JUMP JUMPDEST PUSH1 0x0 PUSH1 0x20 DUP3 DUP5 SUB SLT ISZERO PUSH2 0x7DE3 JUMPI PUSH2 0x7DE2 PUSH2 0xA598 JUMP JUMPDEST JUMPDEST PUSH1 0x0 PUSH2 0x7DF1 DUP5 DUP3 DUP6 ADD PUSH2 0x7D1D JUMP JUMPDEST SWAP2 POP POP SWAP3 SWAP2 POP POP JUMP JUMPDEST PUSH1 0x0 DUP1 PUSH1 0x40 DUP4 DUP6 SUB SLT ISZERO PUSH2 0x7E11 JUMPI PUSH2 0x7E10 PUSH2 0xA598 JUMP JUMPDEST JUMPDEST PUSH1 0x0 DUP4 ADD CALLDATALOAD PUSH8 0xFFFFFFFFFFFFFFFF DUP2 GT ISZERO PUSH2 0x7E2F JUMPI PUSH2 0x7E2E PUSH2 0xA593 JUMP JUMPDEST JUMPDEST PUSH2 0x7E3B DUP6 DUP3 DUP7 ADD PUSH2 0x7D60 JUMP JUMPDEST SWAP3 POP POP PUSH1 0x20 DUP4 ADD CALLDATALOAD PUSH8 0xFFFFFFFFFFFFFFFF DUP2 GT ISZERO PUSH2 0x7E5C JUMPI PUSH2 0x7E5B PUSH2 0xA593 JUMP JUMPDEST JUMPDEST PUSH2 0x7E68 DUP6 DUP3 DUP7 ADD PUSH2 0x7D60 JUMP JUMPDEST SWAP2 POP POP SWAP3 POP SWAP3 SWAP1 POP JUMP JUMPDEST PUSH1 0x0 DUP1 PUSH1 0x0 PUSH1 0x60 DUP5 DUP7 SUB SLT ISZERO PUSH2 0x7E8B JUMPI PUSH2 0x7E8A PUSH2 0xA598 JUMP JUMPDEST JUMPDEST PUSH1 0x0 DUP5 ADD CALLDATALOAD PUSH8 0xFFFFFFFFFFFFFFFF DUP2 GT ISZERO PUSH2 0x7EA9 JUMPI PUSH2 0x7EA8 PUSH2 0xA593 JUMP JUMPDEST JUMPDEST PUSH2 0x7EB5 DUP7 DUP3 DUP8 ADD PUSH2 0x7D60 JUMP JUMPDEST SWAP4 POP POP PUSH1 0x20 DUP5 ADD CALLDATALOAD PUSH8 0xFFFFFFFFFFFFFFFF DUP2 GT ISZERO PUSH2 0x7ED6 JUMPI PUSH2 0x7ED5 PUSH2 0xA593 JUMP JUMPDEST JUMPDEST PUSH2 0x7EE2 DUP7 DUP3 DUP8 ADD PUSH2 0x7D60 JUMP JUMPDEST SWAP3 POP POP PUSH1 0x40 PUSH2 0x7EF3 DUP7 DUP3 DUP8 ADD PUSH2 0x7D1D JUMP JUMPDEST SWAP2 POP POP SWAP3 POP SWAP3 POP SWAP3 JUMP JUMPDEST PUSH1 0x0 DUP1 PUSH1 0x0 PUSH1 0x60 DUP5 DUP7 SUB SLT ISZERO PUSH2 0x7F16 JUMPI PUSH2 0x7F15 PUSH2 0xA598 JUMP JUMPDEST JUMPDEST PUSH1 0x0 DUP5 ADD CALLDATALOAD PUSH8 0xFFFFFFFFFFFFFFFF DUP2 GT ISZERO PUSH2 0x7F34 JUMPI PUSH2 0x7F33 PUSH2 0xA593 JUMP JUMPDEST JUMPDEST PUSH2 0x7F40 DUP7 DUP3 DUP8 ADD PUSH2 0x7D60 JUMP JUMPDEST SWAP4 POP POP PUSH1 0x20 DUP5 ADD CALLDATALOAD PUSH8 0xFFFFFFFFFFFFFFFF DUP2 GT ISZERO PUSH2 0x7F61 JUMPI PUSH2 0x7F60 PUSH2 0xA593 JUMP JUMPDEST JUMPDEST PUSH2 0x7F6D DUP7 DUP3 DUP8 ADD PUSH2 0x7D60 JUMP JUMPDEST SWAP3 POP POP PUSH1 0x40 DUP5 ADD CALLDATALOAD PUSH8 0xFFFFFFFFFFFFFFFF DUP2 GT ISZERO PUSH2 0x7F8E JUMPI PUSH2 0x7F8D PUSH2 0xA593 JUMP JUMPDEST JUMPDEST PUSH2 0x7F9A DUP7 DUP3 DUP8 ADD PUSH2 0x7D60 JUMP JUMPDEST SWAP2 POP POP SWAP3 POP SWAP3 POP SWAP3 JUMP JUMPDEST PUSH1 0x0 DUP1 PUSH1 0x0 DUP1 PUSH1 0x0 DUP1 PUSH1 0xC0 DUP8 DUP10 SUB SLT ISZERO PUSH2 0x7FC1 JUMPI PUSH2 0x7FC0 PUSH2 0xA598 JUMP JUMPDEST JUMPDEST PUSH1 0x0 DUP8 ADD CALLDATALOAD PUSH8 0xFFFFFFFFFFFFFFFF DUP2 GT ISZERO PUSH2 0x7FDF JUMPI PUSH2 0x7FDE PUSH2 0xA593 JUMP JUMPDEST JUMPDEST PUSH2 0x7FEB DUP10 DUP3 DUP11 ADD PUSH2 0x7D60 JUMP JUMPDEST SWAP7 POP POP PUSH1 0x20 DUP8 ADD CALLDATALOAD PUSH8 0xFFFFFFFFFFFFFFFF DUP2 GT ISZERO PUSH2 0x800C JUMPI PUSH2 0x800B PUSH2 0xA593 JUMP JUMPDEST JUMPDEST PUSH2 0x8018 DUP10 DUP3 DUP11 ADD PUSH2 0x7D60 JUMP JUMPDEST SWAP6 POP POP PUSH1 0x40 DUP8 ADD CALLDATALOAD PUSH8 0xFFFFFFFFFFFFFFFF DUP2 GT ISZERO PUSH2 0x8039 JUMPI PUSH2 0x8038 PUSH2 0xA593 JUMP JUMPDEST JUMPDEST PUSH2 0x8045 DUP10 DUP3 DUP11 ADD PUSH2 0x7D60 JUMP JUMPDEST SWAP5 POP POP PUSH1 0x60 DUP8 ADD CALLDATALOAD PUSH8 0xFFFFFFFFFFFFFFFF DUP2 GT ISZERO PUSH2 0x8066 JUMPI PUSH2 0x8065 PUSH2 0xA593 JUMP JUMPDEST JUMPDEST PUSH2 0x8072 DUP10 DUP3 DUP11 ADD PUSH2 0x7D32 JUMP JUMPDEST SWAP4 POP POP PUSH1 0x80 DUP8 ADD CALLDATALOAD PUSH8 0xFFFFFFFFFFFFFFFF DUP2 GT ISZERO PUSH2 0x8093 JUMPI PUSH2 0x8092 PUSH2 0xA593 JUMP JUMPDEST JUMPDEST PUSH2 0x809F DUP10 DUP3 DUP11 ADD PUSH2 0x7D32 JUMP JUMPDEST SWAP3 POP POP PUSH1 0xA0 DUP8 ADD CALLDATALOAD PUSH8 0xFFFFFFFFFFFFFFFF DUP2 GT ISZERO PUSH2 0x80C0 JUMPI PUSH2 0x80BF PUSH2 0xA593 JUMP JUMPDEST JUMPDEST PUSH2 0x80CC DUP10 DUP3 DUP11 ADD PUSH2 0x7D60 JUMP JUMPDEST SWAP2 POP POP SWAP3 SWAP6 POP SWAP3 SWAP6 POP SWAP3 SWAP6 JUMP JUMPDEST PUSH1 0x0 DUP1 PUSH1 0x0 DUP1 PUSH1 0x0 PUSH1 0xA0 DUP7 DUP9 SUB SLT ISZERO PUSH2 0x80F5 JUMPI PUSH2 0x80F4 PUSH2 0xA598 JUMP JUMPDEST JUMPDEST PUSH1 0x0 DUP7 ADD CALLDATALOAD PUSH8 0xFFFFFFFFFFFFFFFF DUP2 GT ISZERO PUSH2 0x8113 JUMPI PUSH2 0x8112 PUSH2 0xA593 JUMP JUMPDEST JUMPDEST PUSH2 0x811F DUP9 DUP3 DUP10 ADD PUSH2 0x7D60 JUMP JUMPDEST SWAP6 POP POP PUSH1 0x20 DUP7 ADD CALLDATALOAD PUSH8 0xFFFFFFFFFFFFFFFF DUP2 GT ISZERO PUSH2 0x8140 JUMPI PUSH2 0x813F PUSH2 0xA593 JUMP JUMPDEST JUMPDEST PUSH2 0x814C DUP9 DUP3 DUP10 ADD PUSH2 0x7D60 JUMP JUMPDEST SWAP5 POP POP PUSH1 0x40 DUP7 ADD CALLDATALOAD PUSH8 0xFFFFFFFFFFFFFFFF DUP2 GT ISZERO PUSH2 0x816D JUMPI PUSH2 0x816C PUSH2 0xA593 JUMP JUMPDEST JUMPDEST PUSH2 0x8179 DUP9 DUP3 DUP10 ADD PUSH2 0x7D60 JUMP JUMPDEST SWAP4 POP POP PUSH1 0x60 DUP7 ADD CALLDATALOAD PUSH8 0xFFFFFFFFFFFFFFFF DUP2 GT ISZERO PUSH2 0x819A JUMPI PUSH2 0x8199 PUSH2 0xA593 JUMP JUMPDEST JUMPDEST PUSH2 0x81A6 DUP9 DUP3 DUP10 ADD PUSH2 0x7D60 JUMP JUMPDEST SWAP3 POP POP PUSH1 0x80 PUSH2 0x81B7 DUP9 DUP3 DUP10 ADD PUSH2 0x7D8E JUMP JUMPDEST SWAP2 POP POP SWAP3 SWAP6 POP SWAP3 SWAP6 SWAP1 SWAP4 POP JUMP JUMPDEST PUSH1 0x0 DUP1 PUSH1 0x0 DUP1 PUSH1 0x80 DUP6 DUP8 SUB SLT ISZERO PUSH2 0x81DE JUMPI PUSH2 0x81DD PUSH2 0xA598 JUMP JUMPDEST JUMPDEST PUSH1 0x0 DUP6 ADD CALLDATALOAD PUSH8 0xFFFFFFFFFFFFFFFF DUP2 GT ISZERO PUSH2 0x81FC JUMPI PUSH2 0x81FB PUSH2 0xA593 JUMP JUMPDEST JUMPDEST PUSH2 0x8208 DUP8 DUP3 DUP9 ADD PUSH2 0x7D60 JUMP JUMPDEST SWAP5 POP POP PUSH1 0x20 DUP6 ADD CALLDATALOAD PUSH8 0xFFFFFFFFFFFFFFFF DUP2 GT ISZERO PUSH2 0x8229 JUMPI PUSH2 0x8228 PUSH2 0xA593 JUMP JUMPDEST JUMPDEST PUSH2 0x8235 DUP8 DUP3 DUP9 ADD PUSH2 0x7D60 JUMP JUMPDEST SWAP4 POP POP PUSH1 0x40 DUP6 ADD CALLDATALOAD PUSH8 0xFFFFFFFFFFFFFFFF DUP2 GT ISZERO PUSH2 0x8256 JUMPI PUSH2 0x8255 PUSH2 0xA593 JUMP JUMPDEST JUMPDEST PUSH2 0x8262 DUP8 DUP3 DUP9 ADD PUSH2 0x7D60 JUMP JUMPDEST SWAP3 POP POP PUSH1 0x60 PUSH2 0x8273 DUP8 DUP3 DUP9 ADD PUSH2 0x7D8E JUMP JUMPDEST SWAP2 POP POP SWAP3 SWAP6 SWAP2 SWAP5 POP SWAP3 POP JUMP JUMPDEST PUSH1 0x0 DUP1 PUSH1 0x0 DUP1 PUSH1 0x0 DUP1 PUSH1 0xC0 DUP8 DUP10 SUB SLT ISZERO PUSH2 0x829C JUMPI PUSH2 0x829B PUSH2 0xA598 JUMP JUMPDEST JUMPDEST PUSH1 0x0 DUP8 ADD CALLDATALOAD PUSH8 0xFFFFFFFFFFFFFFFF DUP2 GT ISZERO PUSH2 0x82BA JUMPI PUSH2 0x82B9 PUSH2 0xA593 JUMP JUMPDEST JUMPDEST PUSH2 0x82C6 DUP10 DUP3 DUP11 ADD PUSH2 0x7D60 JUMP JUMPDEST SWAP7 POP POP PUSH1 0x20 DUP8 ADD CALLDATALOAD PUSH8 0xFFFFFFFFFFFFFFFF DUP2 GT ISZERO PUSH2 0x82E7 JUMPI PUSH2 0x82E6 PUSH2 0xA593 JUMP JUMPDEST JUMPDEST PUSH2 0x82F3 DUP10 DUP3 DUP11 ADD PUSH2 0x7D60 JUMP JUMPDEST SWAP6 POP POP PUSH1 0x40 DUP8 ADD CALLDATALOAD PUSH8 0xFFFFFFFFFFFFFFFF DUP2 GT ISZERO PUSH2 0x8314 JUMPI PUSH2 0x8313 PUSH2 0xA593 JUMP JUMPDEST JUMPDEST PUSH2 0x8320 DUP10 DUP3 DUP11 ADD PUSH2 0x7D60 JUMP JUMPDEST SWAP5 POP POP PUSH1 0x60 PUSH2 0x8331 DUP10 DUP3 DUP11 ADD PUSH2 0x7DB8 JUMP JUMPDEST SWAP4 POP POP PUSH1 0x80 DUP8 ADD CALLDATALOAD PUSH8 0xFFFFFFFFFFFFFFFF DUP2 GT ISZERO PUSH2 0x8352 JUMPI PUSH2 0x8351 PUSH2 0xA593 JUMP JUMPDEST JUMPDEST PUSH2 0x835E DUP10 DUP3 DUP11 ADD PUSH2 0x7D60 JUMP JUMPDEST SWAP3 POP POP PUSH1 0xA0 DUP8 ADD CALLDATALOAD PUSH8 0xFFFFFFFFFFFFFFFF DUP2 GT ISZERO PUSH2 0x837F JUMPI PUSH2 0x837E PUSH2 0xA593 JUMP JUMPDEST JUMPDEST PUSH2 0x838B DUP10 DUP3 DUP11 ADD PUSH2 0x7D60 JUMP JUMPDEST SWAP2 POP POP SWAP3 SWAP6 POP SWAP3 SWAP6 POP SWAP3 SWAP6 JUMP JUMPDEST PUSH1 0x0 DUP1 PUSH1 0x0 PUSH1 0x60 DUP5 DUP7 SUB SLT ISZERO PUSH2 0x83B1 JUMPI PUSH2 0x83B0 PUSH2 0xA598 JUMP JUMPDEST JUMPDEST PUSH1 0x0 DUP5 ADD CALLDATALOAD PUSH8 0xFFFFFFFFFFFFFFFF DUP2 GT ISZERO PUSH2 0x83CF JUMPI PUSH2 0x83CE PUSH2 0xA593 JUMP JUMPDEST JUMPDEST PUSH2 0x83DB DUP7 DUP3 DUP8 ADD PUSH2 0x7D60 JUMP JUMPDEST SWAP4 POP POP PUSH1 0x20 DUP5 ADD CALLDATALOAD PUSH8 0xFFFFFFFFFFFFFFFF DUP2 GT ISZERO PUSH2 0x83FC JUMPI PUSH2 0x83FB PUSH2 0xA593 JUMP JUMPDEST JUMPDEST PUSH2 0x8408 DUP7 DUP3 DUP8 ADD PUSH2 0x7D60 JUMP JUMPDEST SWAP3 POP POP PUSH1 0x40 PUSH2 0x8419 DUP7 DUP3 DUP8 ADD PUSH2 0x7DA3 JUMP JUMPDEST SWAP2 POP POP SWAP3 POP SWAP3 POP SWAP3 JUMP JUMPDEST PUSH1 0x0 DUP1 PUSH1 0x0 DUP1 PUSH1 0x80 DUP6 DUP8 SUB SLT ISZERO PUSH2 0x843D JUMPI PUSH2 0x843C PUSH2 0xA598 JUMP JUMPDEST JUMPDEST PUSH1 0x0 DUP6 ADD CALLDATALOAD PUSH8 0xFFFFFFFFFFFFFFFF DUP2 GT ISZERO PUSH2 0x845B JUMPI PUSH2 0x845A PUSH2 0xA593 JUMP JUMPDEST JUMPDEST PUSH2 0x8467 DUP8 DUP3 DUP9 ADD PUSH2 0x7D60 JUMP JUMPDEST SWAP5 POP POP PUSH1 0x20 DUP6 ADD CALLDATALOAD PUSH8 0xFFFFFFFFFFFFFFFF DUP2 GT ISZERO PUSH2 0x8488 JUMPI PUSH2 0x8487 PUSH2 0xA593 JUMP JUMPDEST JUMPDEST PUSH2 0x8494 DUP8 DUP3 DUP9 ADD PUSH2 0x7D60 JUMP JUMPDEST SWAP4 POP POP PUSH1 0x40 PUSH2 0x84A5 DUP8 DUP3 DUP9 ADD PUSH2 0x7DA3 JUMP JUMPDEST SWAP3 POP POP PUSH1 0x60 DUP6 ADD CALLDATALOAD PUSH8 0xFFFFFFFFFFFFFFFF DUP2 GT ISZERO PUSH2 0x84C6 JUMPI PUSH2 0x84C5 PUSH2 0xA593 JUMP JUMPDEST JUMPDEST PUSH2 0x84D2 DUP8 DUP3 DUP9 ADD PUSH2 0x7D60 JUMP JUMPDEST SWAP2 POP POP SWAP3 SWAP6 SWAP2 SWAP5 POP SWAP3 POP JUMP JUMPDEST PUSH1 0x0 DUP1 PUSH1 0x0 DUP1 PUSH1 0x80 DUP6 DUP8 SUB SLT ISZERO PUSH2 0x84F8 JUMPI PUSH2 0x84F7 PUSH2 0xA598 JUMP JUMPDEST JUMPDEST PUSH1 0x0 DUP6 ADD CALLDATALOAD PUSH8 0xFFFFFFFFFFFFFFFF DUP2 GT ISZERO PUSH2 0x8516 JUMPI PUSH2 0x8515 PUSH2 0xA593 JUMP JUMPDEST JUMPDEST PUSH2 0x8522 DUP8 DUP3 DUP9 ADD PUSH2 0x7D60 JUMP JUMPDEST SWAP5 POP POP PUSH1 0x20 DUP6 ADD CALLDATALOAD PUSH8 0xFFFFFFFFFFFFFFFF DUP2 GT ISZERO PUSH2 0x8543 JUMPI PUSH2 0x8542 PUSH2 0xA593 JUMP JUMPDEST JUMPDEST PUSH2 0x854F DUP8 DUP3 DUP9 ADD PUSH2 0x7D60 JUMP JUMPDEST SWAP4 POP POP PUSH1 0x40 PUSH2 0x8560 DUP8 DUP3 DUP9 ADD PUSH2 0x7DB8 JUMP JUMPDEST SWAP3 POP POP PUSH1 0x60 DUP6 ADD CALLDATALOAD PUSH8 0xFFFFFFFFFFFFFFFF DUP2 GT ISZERO PUSH2 0x8581 JUMPI PUSH2 0x8580 PUSH2 0xA593 JUMP JUMPDEST JUMPDEST PUSH2 0x858D DUP8 DUP3 DUP9 ADD PUSH2 0x7D60 JUMP JUMPDEST SWAP2 POP POP SWAP3 SWAP6 SWAP2 SWAP5 POP SWAP3 POP JUMP JUMPDEST PUSH1 0x0 PUSH1 0x20 DUP3 DUP5 SUB SLT ISZERO PUSH2 0x85AF JUMPI PUSH2 0x85AE PUSH2 0xA598 JUMP JUMPDEST JUMPDEST PUSH1 0x0 PUSH2 0x85BD DUP5 DUP3 DUP6 ADD PUSH2 0x7DA3 JUMP JUMPDEST SWAP2 POP POP SWAP3 SWAP2 POP POP JUMP JUMPDEST PUSH1 0x0 PUSH2 0x85D2 DUP4 DUP4 PUSH2 0x8622 JUMP JUMPDEST PUSH1 0x20 DUP4 ADD SWAP1 POP SWAP3 SWAP2 POP POP JUMP JUMPDEST PUSH1 0x0 PUSH2 0x85EA DUP4 DUP4 PUSH2 0x8880 JUMP JUMPDEST SWAP1 POP SWAP3 SWAP2 POP POP JUMP JUMPDEST PUSH1 0x0 PUSH2 0x85FE DUP4 DUP4 PUSH2 0x9048 JUMP JUMPDEST PUSH1 0x20 DUP4 ADD SWAP1 POP SWAP3 SWAP2 POP POP JUMP JUMPDEST PUSH1 0x0 PUSH2 0x8616 DUP4 DUP4 PUSH2 0x9066 JUMP JUMPDEST PUSH1 0x20 DUP4 ADD SWAP1 POP SWAP3 SWAP2 POP POP JUMP JUMPDEST PUSH2 0x862B DUP2 PUSH2 0xA2EE JUMP JUMPDEST DUP3 MSTORE POP POP JUMP JUMPDEST PUSH2 0x863A DUP2 PUSH2 0xA2EE JUMP JUMPDEST DUP3 MSTORE POP POP JUMP JUMPDEST PUSH1 0x0 PUSH2 0x864B DUP3 PUSH2 0xA1CD JUMP JUMPDEST PUSH2 0x8655 DUP2 DUP6 PUSH2 0xA238 JUMP JUMPDEST SWAP4 POP PUSH2 0x8660 DUP4 PUSH2 0xA18D JUMP JUMPDEST DUP1 PUSH1 0x0 JUMPDEST DUP4 DUP2 LT ISZERO PUSH2 0x8691 JUMPI DUP2 MLOAD PUSH2 0x8678 DUP9 DUP3 PUSH2 0x85C6 JUMP JUMPDEST SWAP8 POP PUSH2 0x8683 DUP4 PUSH2 0xA204 JUMP JUMPDEST SWAP3 POP POP PUSH1 0x1 DUP2 ADD SWAP1 POP PUSH2 0x8664 JUMP JUMPDEST POP DUP6 SWAP4 POP POP POP POP SWAP3 SWAP2 POP POP JUMP JUMPDEST PUSH1 0x0 PUSH2 0x86A9 DUP3 PUSH2 0xA1D8 JUMP JUMPDEST PUSH2 0x86B3 DUP2 DUP6 PUSH2 0xA249 JUMP JUMPDEST SWAP4 POP DUP4 PUSH1 0x20 DUP3 MUL DUP6 ADD PUSH2 0x86C5 DUP6 PUSH2 0xA19D JUMP JUMPDEST DUP1 PUSH1 0x0 JUMPDEST DUP6 DUP2 LT ISZERO PUSH2 0x8701 JUMPI DUP5 DUP5 SUB DUP10 MSTORE DUP2 MLOAD PUSH2 0x86E2 DUP6 DUP3 PUSH2 0x85DE JUMP JUMPDEST SWAP5 POP PUSH2 0x86ED DUP4 PUSH2 0xA211 JUMP JUMPDEST SWAP3 POP PUSH1 0x20 DUP11 ADD SWAP10 POP POP PUSH1 0x1 DUP2 ADD SWAP1 POP PUSH2 0x86C9 JUMP JUMPDEST POP DUP3 SWAP8 POP DUP8 SWAP6 POP POP POP POP POP POP SWAP3 SWAP2 POP POP JUMP JUMPDEST PUSH1 0x0 PUSH2 0x871E DUP3 PUSH2 0xA1D8 JUMP JUMPDEST PUSH2 0x8728 DUP2 DUP6 PUSH2 0xA25A JUMP JUMPDEST SWAP4 POP DUP4 PUSH1 0x20 DUP3 MUL DUP6 ADD PUSH2 0x873A DUP6 PUSH2 0xA19D JUMP JUMPDEST DUP1 PUSH1 0x0 JUMPDEST DUP6 DUP2 LT ISZERO PUSH2 0x8776 JUMPI DUP5 DUP5 SUB DUP10 MSTORE DUP2 MLOAD PUSH2 0x8757 DUP6 DUP3 PUSH2 0x85DE JUMP JUMPDEST SWAP5 POP PUSH2 0x8762 DUP4 PUSH2 0xA211 JUMP JUMPDEST SWAP3 POP PUSH1 0x20 DUP11 ADD SWAP10 POP POP PUSH1 0x1 DUP2 ADD SWAP1 POP PUSH2 0x873E JUMP JUMPDEST POP DUP3 SWAP8 POP DUP8 SWAP6 POP POP POP POP POP POP SWAP3 SWAP2 POP POP JUMP JUMPDEST PUSH1 0x0 PUSH2 0x8793 DUP3 PUSH2 0xA1E3 JUMP JUMPDEST PUSH2 0x879D DUP2 DUP6 PUSH2 0xA26B JUMP JUMPDEST SWAP4 POP PUSH2 0x87A8 DUP4 PUSH2 0xA1AD JUMP JUMPDEST DUP1 PUSH1 0x0 JUMPDEST DUP4 DUP2 LT ISZERO PUSH2 0x87D9 JUMPI DUP2 MLOAD PUSH2 0x87C0 DUP9 DUP3 PUSH2 0x85F2 JUMP JUMPDEST SWAP8 POP PUSH2 0x87CB DUP4 PUSH2 0xA21E JUMP JUMPDEST SWAP3 POP POP PUSH1 0x1 DUP2 ADD SWAP1 POP PUSH2 0x87AC JUMP JUMPDEST POP DUP6 SWAP4 POP POP POP POP SWAP3 SWAP2 POP POP JUMP JUMPDEST PUSH1 0x0 PUSH2 0x87F1 DUP3 PUSH2 0xA1EE JUMP JUMPDEST PUSH2 0x87FB DUP2 DUP6 PUSH2 0xA27C JUMP JUMPDEST SWAP4 POP PUSH2 0x8806 DUP4 PUSH2 0xA1BD JUMP JUMPDEST DUP1 PUSH1 0x0 JUMPDEST DUP4 DUP2 LT ISZERO PUSH2 0x8837 JUMPI DUP2 MLOAD PUSH2 0x881E DUP9 DUP3 PUSH2 0x860A JUMP JUMPDEST SWAP8 POP PUSH2 0x8829 DUP4 PUSH2 0xA22B JUMP JUMPDEST SWAP3 POP POP PUSH1 0x1 DUP2 ADD SWAP1 POP PUSH2 0x880A JUMP JUMPDEST POP DUP6 SWAP4 POP POP POP POP SWAP3 SWAP2 POP POP JUMP JUMPDEST PUSH2 0x884D DUP2 PUSH2 0xA300 JUMP JUMPDEST DUP3 MSTORE POP POP JUMP JUMPDEST PUSH2 0x885C DUP2 PUSH2 0xA375 JUMP JUMPDEST DUP3 MSTORE POP POP JUMP JUMPDEST PUSH2 0x886B DUP2 PUSH2 0xA387 JUMP JUMPDEST DUP3 MSTORE POP POP JUMP JUMPDEST PUSH2 0x887A DUP2 PUSH2 0xA399 JUMP JUMPDEST DUP3 MSTORE POP POP JUMP JUMPDEST PUSH1 0x0 PUSH2 0x888B DUP3 PUSH2 0xA1F9 JUMP JUMPDEST PUSH2 0x8895 DUP2 DUP6 PUSH2 0xA28D JUMP JUMPDEST SWAP4 POP PUSH2 0x88A5 DUP2 DUP6 PUSH1 0x20 DUP7 ADD PUSH2 0xA3BA JUMP JUMPDEST PUSH2 0x88AE DUP2 PUSH2 0xA59D JUMP JUMPDEST DUP5 ADD SWAP2 POP POP SWAP3 SWAP2 POP POP JUMP JUMPDEST PUSH1 0x0 PUSH2 0x88C4 DUP3 PUSH2 0xA1F9 JUMP JUMPDEST PUSH2 0x88CE DUP2 DUP6 PUSH2 0xA29E JUMP JUMPDEST SWAP4 POP PUSH2 0x88DE DUP2 DUP6 PUSH1 0x20 DUP7 ADD PUSH2 0xA3BA JUMP JUMPDEST PUSH2 0x88E7 DUP2 PUSH2 0xA59D JUMP JUMPDEST DUP5 ADD SWAP2 POP POP SWAP3 SWAP2 POP POP JUMP JUMPDEST PUSH1 0x0 PUSH2 0x88FD DUP3 PUSH2 0xA1F9 JUMP JUMPDEST PUSH2 0x8907 DUP2 DUP6 PUSH2 0xA2AF JUMP JUMPDEST SWAP4 POP PUSH2 0x8917 DUP2 DUP6 PUSH1 0x20 DUP7 ADD PUSH2 0xA3BA JUMP JUMPDEST DUP1 DUP5 ADD SWAP2 POP POP SWAP3 SWAP2 POP POP JUMP JUMPDEST PUSH1 0x0 PUSH2 0x8930 PUSH1 0x1C DUP4 PUSH2 0xA29E JUMP JUMPDEST SWAP2 POP PUSH2 0x893B DUP3 PUSH2 0xA5AE JUMP JUMPDEST PUSH1 0x20 DUP3 ADD SWAP1 POP SWAP2 SWAP1 POP JUMP JUMPDEST PUSH1 0x0 PUSH2 0x8953 PUSH1 0x11 DUP4 PUSH2 0xA29E JUMP JUMPDEST SWAP2 POP PUSH2 0x895E DUP3 PUSH2 0xA5D7 JUMP JUMPDEST PUSH1 0x20 DUP3 ADD SWAP1 POP SWAP2 SWAP1 POP JUMP JUMPDEST PUSH1 0x0 PUSH2 0x8976 PUSH1 0x13 DUP4 PUSH2 0xA29E JUMP JUMPDEST SWAP2 POP PUSH2 0x8981 DUP3 PUSH2 0xA600 JUMP JUMPDEST PUSH1 0x20 DUP3 ADD SWAP1 POP SWAP2 SWAP1 POP JUMP JUMPDEST PUSH1 0x0 PUSH2 0x8999 PUSH1 0x18 DUP4 PUSH2 0xA29E JUMP JUMPDEST SWAP2 POP PUSH2 0x89A4 DUP3 PUSH2 0xA629 JUMP JUMPDEST PUSH1 0x20 DUP3 ADD SWAP1 POP SWAP2 SWAP1 POP JUMP JUMPDEST PUSH1 0x0 PUSH2 0x89BC PUSH1 0x1D DUP4 PUSH2 0xA29E JUMP JUMPDEST SWAP2 POP PUSH2 0x89C7 DUP3 PUSH2 0xA652 JUMP JUMPDEST PUSH1 0x20 DUP3 ADD SWAP1 POP SWAP2 SWAP1 POP JUMP JUMPDEST PUSH1 0x0 PUSH2 0x89DF PUSH1 0x1C DUP4 PUSH2 0xA29E JUMP JUMPDEST SWAP2 POP PUSH2 0x89EA DUP3 PUSH2 0xA67B JUMP JUMPDEST PUSH1 0x20 DUP3 ADD SWAP1 POP SWAP2 SWAP1 POP JUMP JUMPDEST PUSH1 0x0 PUSH2 0x8A02 PUSH1 0x16 DUP4 PUSH2 0xA29E JUMP JUMPDEST SWAP2 POP PUSH2 0x8A0D DUP3 PUSH2 0xA6A4 JUMP JUMPDEST PUSH1 0x20 DUP3 ADD SWAP1 POP SWAP2 SWAP1 POP JUMP JUMPDEST PUSH1 0x0 PUSH2 0x8A25 PUSH1 0x21 DUP4 PUSH2 0xA29E JUMP JUMPDEST SWAP2 POP PUSH2 0x8A30 DUP3 PUSH2 0xA6CD JUMP JUMPDEST PUSH1 0x40 DUP3 ADD SWAP1 POP SWAP2 SWAP1 POP JUMP JUMPDEST PUSH1 0x0 PUSH2 0x8A48 PUSH1 0x14 DUP4 PUSH2 0xA29E JUMP JUMPDEST SWAP2 POP PUSH2 0x8A53 DUP3 PUSH2 0xA71C JUMP JUMPDEST PUSH1 0x20 DUP3 ADD SWAP1 POP SWAP2 SWAP1 POP JUMP JUMPDEST PUSH1 0x0 PUSH2 0x8A6B PUSH1 0x1E DUP4 PUSH2 0xA29E JUMP JUMPDEST SWAP2 POP PUSH2 0x8A76 DUP3 PUSH2 0xA745 JUMP JUMPDEST PUSH1 0x20 DUP3 ADD SWAP1 POP SWAP2 SWAP1 POP JUMP JUMPDEST PUSH1 0x0 PUSH2 0x8A8E PUSH1 0x20 DUP4 PUSH2 0xA29E JUMP JUMPDEST SWAP2 POP PUSH2 0x8A99 DUP3 PUSH2 0xA76E JUMP JUMPDEST PUSH1 0x20 DUP3 ADD SWAP1 POP SWAP2 SWAP1 POP JUMP JUMPDEST PUSH1 0x0 PUSH2 0x8AB1 PUSH1 0xB DUP4 PUSH2 0xA29E JUMP JUMPDEST SWAP2 POP PUSH2 0x8ABC DUP3 PUSH2 0xA797 JUMP JUMPDEST PUSH1 0x20 DUP3 ADD SWAP1 POP SWAP2 SWAP1 POP JUMP JUMPDEST PUSH1 0x0 PUSH2 0x8AD4 PUSH1 0x19 DUP4 PUSH2 0xA29E JUMP JUMPDEST SWAP2 POP PUSH2 0x8ADF DUP3 PUSH2 0xA7C0 JUMP JUMPDEST PUSH1 0x20 DUP3 ADD SWAP1 POP SWAP2 SWAP1 POP JUMP JUMPDEST PUSH1 0x0 PUSH2 0x8AF7 PUSH1 0x26 DUP4 PUSH2 0xA29E JUMP JUMPDEST SWAP2 POP PUSH2 0x8B02 DUP3 PUSH2 0xA7E9 JUMP JUMPDEST PUSH1 0x40 DUP3 ADD SWAP1 POP SWAP2 SWAP1 POP JUMP JUMPDEST PUSH1 0x0 PUSH2 0x8B1A PUSH1 0x18 DUP4 PUSH2 0xA29E JUMP JUMPDEST SWAP2 POP PUSH2 0x8B25 DUP3 PUSH2 0xA838 JUMP JUMPDEST PUSH1 0x20 DUP3 ADD SWAP1 POP SWAP2 SWAP1 POP JUMP JUMPDEST PUSH1 0x0 PUSH2 0x8B3D PUSH1 0x15 DUP4 PUSH2 0xA29E JUMP JUMPDEST SWAP2 POP PUSH2 0x8B48 DUP3 PUSH2 0xA861 JUMP JUMPDEST PUSH1 0x20 DUP3 ADD SWAP1 POP SWAP2 SWAP1 POP JUMP JUMPDEST PUSH1 0x0 PUSH2 0x8B60 PUSH1 0x19 DUP4 PUSH2 0xA29E JUMP JUMPDEST SWAP2 POP PUSH2 0x8B6B DUP3 PUSH2 0xA88A JUMP JUMPDEST PUSH1 0x20 DUP3 ADD SWAP1 POP SWAP2 SWAP1 POP JUMP JUMPDEST PUSH1 0x0 PUSH2 0x8B83 PUSH1 0x1D DUP4 PUSH2 0xA29E JUMP JUMPDEST SWAP2 POP PUSH2 0x8B8E DUP3 PUSH2 0xA8B3 JUMP JUMPDEST PUSH1 0x20 DUP3 ADD SWAP1 POP SWAP2 SWAP1 POP JUMP JUMPDEST PUSH1 0x0 PUSH2 0x8BA6 PUSH1 0x12 DUP4 PUSH2 0xA29E JUMP JUMPDEST SWAP2 POP PUSH2 0x8BB1 DUP3 PUSH2 0xA8DC JUMP JUMPDEST PUSH1 0x20 DUP3 ADD SWAP1 POP SWAP2 SWAP1 POP JUMP JUMPDEST PUSH1 0x0 PUSH2 0x8BC9 PUSH1 0x1F DUP4 PUSH2 0xA29E JUMP JUMPDEST SWAP2 POP PUSH2 0x8BD4 DUP3 PUSH2 0xA905 JUMP JUMPDEST PUSH1 0x20 DUP3 ADD SWAP1 POP SWAP2 SWAP1 POP JUMP JUMPDEST PUSH1 0x0 PUSH2 0x8BEC PUSH1 0xB DUP4 PUSH2 0xA29E JUMP JUMPDEST SWAP2 POP PUSH2 0x8BF7 DUP3 PUSH2 0xA92E JUMP JUMPDEST PUSH1 0x20 DUP3 ADD SWAP1 POP SWAP2 SWAP1 POP JUMP JUMPDEST PUSH1 0x0 PUSH2 0x8C0F PUSH1 0xE DUP4 PUSH2 0xA29E JUMP JUMPDEST SWAP2 POP PUSH2 0x8C1A DUP3 PUSH2 0xA957 JUMP JUMPDEST PUSH1 0x20 DUP3 ADD SWAP1 POP SWAP2 SWAP1 POP JUMP JUMPDEST PUSH1 0x0 PUSH2 0x8C32 PUSH1 0x26 DUP4 PUSH2 0xA29E JUMP JUMPDEST SWAP2 POP PUSH2 0x8C3D DUP3 PUSH2 0xA980 JUMP JUMPDEST PUSH1 0x40 DUP3 ADD SWAP1 POP SWAP2 SWAP1 POP JUMP JUMPDEST PUSH1 0x0 PUSH2 0x8C55 PUSH1 0x11 DUP4 PUSH2 0xA29E JUMP JUMPDEST SWAP2 POP PUSH2 0x8C60 DUP3 PUSH2 0xA9CF JUMP JUMPDEST PUSH1 0x20 DUP3 ADD SWAP1 POP SWAP2 SWAP1 POP JUMP JUMPDEST PUSH1 0x0 PUSH2 0x8C78 PUSH1 0x13 DUP4 PUSH2 0xA29E JUMP JUMPDEST SWAP2 POP PUSH2 0x8C83 DUP3 PUSH2 0xA9F8 JUMP JUMPDEST PUSH1 0x20 DUP3 ADD SWAP1 POP SWAP2 SWAP1 POP JUMP JUMPDEST PUSH1 0x0 PUSH2 0x8C9B PUSH1 0x14 DUP4 PUSH2 0xA29E JUMP JUMPDEST SWAP2 POP PUSH2 0x8CA6 DUP3 PUSH2 0xAA21 JUMP JUMPDEST PUSH1 0x20 DUP3 ADD SWAP1 POP SWAP2 SWAP1 POP JUMP JUMPDEST PUSH1 0x0 PUSH2 0x8CBE PUSH1 0x15 DUP4 PUSH2 0xA29E JUMP JUMPDEST SWAP2 POP PUSH2 0x8CC9 DUP3 PUSH2 0xAA4A JUMP JUMPDEST PUSH1 0x20 DUP3 ADD SWAP1 POP SWAP2 SWAP1 POP JUMP JUMPDEST PUSH1 0x0 PUSH2 0x8CE1 PUSH1 0x17 DUP4 PUSH2 0xA29E JUMP JUMPDEST SWAP2 POP PUSH2 0x8CEC DUP3 PUSH2 0xAA73 JUMP JUMPDEST PUSH1 0x20 DUP3 ADD SWAP1 POP SWAP2 SWAP1 POP JUMP JUMPDEST PUSH1 0x0 PUSH2 0x8D04 PUSH1 0x12 DUP4 PUSH2 0xA29E JUMP JUMPDEST SWAP2 POP PUSH2 0x8D0F DUP3 PUSH2 0xAA9C JUMP JUMPDEST PUSH1 0x20 DUP3 ADD SWAP1 POP SWAP2 SWAP1 POP JUMP JUMPDEST PUSH1 0x0 PUSH2 0x8D27 PUSH1 0xE DUP4 PUSH2 0xA29E JUMP JUMPDEST SWAP2 POP PUSH2 0x8D32 DUP3 PUSH2 0xAAC5 JUMP JUMPDEST PUSH1 0x20 DUP3 ADD SWAP1 POP SWAP2 SWAP1 POP JUMP JUMPDEST PUSH1 0x0 PUSH2 0x8D4A PUSH1 0x15 DUP4 PUSH2 0xA29E JUMP JUMPDEST SWAP2 POP PUSH2 0x8D55 DUP3 PUSH2 0xAAEE JUMP JUMPDEST PUSH1 0x20 DUP3 ADD SWAP1 POP SWAP2 SWAP1 POP JUMP JUMPDEST PUSH1 0x0 PUSH2 0x8D6D PUSH1 0x26 DUP4 PUSH2 0xA29E JUMP JUMPDEST SWAP2 POP PUSH2 0x8D78 DUP3 PUSH2 0xAB17 JUMP JUMPDEST PUSH1 0x40 DUP3 ADD SWAP1 POP SWAP2 SWAP1 POP JUMP JUMPDEST PUSH1 0x0 PUSH2 0x8D90 PUSH1 0x10 DUP4 PUSH2 0xA29E JUMP JUMPDEST SWAP2 POP PUSH2 0x8D9B DUP3 PUSH2 0xAB66 JUMP JUMPDEST PUSH1 0x20 DUP3 ADD SWAP1 POP SWAP2 SWAP1 POP JUMP JUMPDEST PUSH1 0x0 PUSH2 0x8DB3 PUSH1 0x1B DUP4 PUSH2 0xA29E JUMP JUMPDEST SWAP2 POP PUSH2 0x8DBE DUP3 PUSH2 0xAB8F JUMP JUMPDEST PUSH1 0x20 DUP3 ADD SWAP1 POP SWAP2 SWAP1 POP JUMP JUMPDEST PUSH1 0x0 PUSH2 0x8DD6 PUSH1 0x1F DUP4 PUSH2 0xA29E JUMP JUMPDEST SWAP2 POP PUSH2 0x8DE1 DUP3 PUSH2 0xABB8 JUMP JUMPDEST PUSH1 0x20 DUP3 ADD SWAP1 POP SWAP2 SWAP1 POP JUMP JUMPDEST PUSH1 0x0 PUSH2 0x8DF9 PUSH1 0x1D DUP4 PUSH2 0xA29E JUMP JUMPDEST SWAP2 POP PUSH2 0x8E04 DUP3 PUSH2 0xABE1 JUMP JUMPDEST PUSH1 0x20 DUP3 ADD SWAP1 POP SWAP2 SWAP1 POP JUMP JUMPDEST PUSH1 0x0 PUSH2 0x8E1C PUSH1 0x1E DUP4 PUSH2 0xA29E JUMP JUMPDEST SWAP2 POP PUSH2 0x8E27 DUP3 PUSH2 0xAC0A JUMP JUMPDEST PUSH1 0x20 DUP3 ADD SWAP1 POP SWAP2 SWAP1 POP JUMP JUMPDEST PUSH1 0x0 PUSH2 0x8E3F PUSH1 0x11 DUP4 PUSH2 0xA29E JUMP JUMPDEST SWAP2 POP PUSH2 0x8E4A DUP3 PUSH2 0xAC33 JUMP JUMPDEST PUSH1 0x20 DUP3 ADD SWAP1 POP SWAP2 SWAP1 POP JUMP JUMPDEST PUSH1 0x0 PUSH2 0x8E62 PUSH1 0x1C DUP4 PUSH2 0xA29E JUMP JUMPDEST SWAP2 POP PUSH2 0x8E6D DUP3 PUSH2 0xAC5C JUMP JUMPDEST PUSH1 0x20 DUP3 ADD SWAP1 POP SWAP2 SWAP1 POP JUMP JUMPDEST PUSH1 0x0 PUSH2 0x8E85 PUSH1 0x19 DUP4 PUSH2 0xA29E JUMP JUMPDEST SWAP2 POP PUSH2 0x8E90 DUP3 PUSH2 0xAC85 JUMP JUMPDEST PUSH1 0x20 DUP3 ADD SWAP1 POP SWAP2 SWAP1 POP JUMP JUMPDEST PUSH1 0x0 PUSH2 0x8EA8 PUSH1 0x18 DUP4 PUSH2 0xA29E JUMP JUMPDEST SWAP2 POP PUSH2 0x8EB3 DUP3 PUSH2 0xACAE JUMP JUMPDEST PUSH1 0x20 DUP3 ADD SWAP1 POP SWAP2 SWAP1 POP JUMP JUMPDEST PUSH1 0x0 PUSH2 0x8ECB PUSH1 0x8 DUP4 PUSH2 0xA29E JUMP JUMPDEST SWAP2 POP PUSH2 0x8ED6 DUP3 PUSH2 0xACD7 JUMP JUMPDEST PUSH1 0x20 DUP3 ADD SWAP1 POP SWAP2 SWAP1 POP JUMP JUMPDEST PUSH1 0x0 PUSH2 0x8EEE PUSH1 0x11 DUP4 PUSH2 0xA29E JUMP JUMPDEST SWAP2 POP PUSH2 0x8EF9 DUP3 PUSH2 0xAD00 JUMP JUMPDEST PUSH1 0x20 DUP3 ADD SWAP1 POP SWAP2 SWAP1 POP JUMP JUMPDEST PUSH1 0x0 PUSH2 0x8F11 PUSH1 0x20 DUP4 PUSH2 0xA29E JUMP JUMPDEST SWAP2 POP PUSH2 0x8F1C DUP3 PUSH2 0xAD29 JUMP JUMPDEST PUSH1 0x20 DUP3 ADD SWAP1 POP SWAP2 SWAP1 POP JUMP JUMPDEST PUSH1 0x0 PUSH2 0x8F34 PUSH1 0x1F DUP4 PUSH2 0xA29E JUMP JUMPDEST SWAP2 POP PUSH2 0x8F3F DUP3 PUSH2 0xAD52 JUMP JUMPDEST PUSH1 0x20 DUP3 ADD SWAP1 POP SWAP2 SWAP1 POP JUMP JUMPDEST PUSH1 0x0 PUSH2 0x8F57 PUSH1 0x15 DUP4 PUSH2 0xA29E JUMP JUMPDEST SWAP2 POP PUSH2 0x8F62 DUP3 PUSH2 0xAD7B JUMP JUMPDEST PUSH1 0x20 DUP3 ADD SWAP1 POP SWAP2 SWAP1 POP JUMP JUMPDEST PUSH1 0x0 PUSH2 0x8F7A PUSH1 0x1C DUP4 PUSH2 0xA29E JUMP JUMPDEST SWAP2 POP PUSH2 0x8F85 DUP3 PUSH2 0xADA4 JUMP JUMPDEST PUSH1 0x20 DUP3 ADD SWAP1 POP SWAP2 SWAP1 POP JUMP JUMPDEST PUSH1 0x0 PUSH1 0xE0 DUP4 ADD PUSH1 0x0 DUP4 ADD MLOAD DUP5 DUP3 SUB PUSH1 0x0 DUP7 ADD MSTORE PUSH2 0x8FAD DUP3 DUP3 PUSH2 0x8880 JUMP JUMPDEST SWAP2 POP POP PUSH1 0x20 DUP4 ADD MLOAD DUP5 DUP3 SUB PUSH1 0x20 DUP7 ADD MSTORE PUSH2 0x8FC7 DUP3 DUP3 PUSH2 0x8880 JUMP JUMPDEST SWAP2 POP POP PUSH1 0x40 DUP4 ADD MLOAD DUP5 DUP3 SUB PUSH1 0x40 DUP7 ADD MSTORE PUSH2 0x8FE1 DUP3 DUP3 PUSH2 0x8880 JUMP JUMPDEST SWAP2 POP POP PUSH1 0x60 DUP4 ADD MLOAD DUP5 DUP3 SUB PUSH1 0x60 DUP7 ADD MSTORE PUSH2 0x8FFB DUP3 DUP3 PUSH2 0x8880 JUMP JUMPDEST SWAP2 POP POP PUSH1 0x80 DUP4 ADD MLOAD DUP5 DUP3 SUB PUSH1 0x80 DUP7 ADD MSTORE PUSH2 0x9015 DUP3 DUP3 PUSH2 0x869E JUMP JUMPDEST SWAP2 POP POP PUSH1 0xA0 DUP4 ADD MLOAD PUSH2 0x902A PUSH1 0xA0 DUP7 ADD DUP3 PUSH2 0x9084 JUMP JUMPDEST POP PUSH1 0xC0 DUP4 ADD MLOAD PUSH2 0x903D PUSH1 0xC0 DUP7 ADD DUP3 PUSH2 0x8844 JUMP JUMPDEST POP DUP1 SWAP2 POP POP SWAP3 SWAP2 POP POP JUMP JUMPDEST PUSH2 0x9051 DUP2 PUSH2 0xA330 JUMP JUMPDEST DUP3 MSTORE POP POP JUMP JUMPDEST PUSH2 0x9060 DUP2 PUSH2 0xA330 JUMP JUMPDEST DUP3 MSTORE POP POP JUMP JUMPDEST PUSH2 0x906F DUP2 PUSH2 0xA35E JUMP JUMPDEST DUP3 MSTORE POP POP JUMP JUMPDEST PUSH2 0x907E DUP2 PUSH2 0xA35E JUMP JUMPDEST DUP3 MSTORE POP POP JUMP JUMPDEST PUSH2 0x908D DUP2 PUSH2 0xA368 JUMP JUMPDEST DUP3 MSTORE POP POP JUMP JUMPDEST PUSH1 0x0 PUSH2 0x909F DUP3 DUP5 PUSH2 0x88F2 JUMP JUMPDEST SWAP2 POP DUP2 SWAP1 POP SWAP3 SWAP2 POP POP JUMP JUMPDEST PUSH1 0x0 PUSH2 0x90B6 DUP3 DUP6 PUSH2 0x88F2 JUMP JUMPDEST SWAP2 POP PUSH2 0x90C2 DUP3 DUP5 PUSH2 0x88F2 JUMP JUMPDEST SWAP2 POP DUP2 SWAP1 POP SWAP4 SWAP3 POP POP POP JUMP JUMPDEST PUSH1 0x0 PUSH1 0x80 DUP3 ADD SWAP1 POP PUSH2 0x90E3 PUSH1 0x0 DUP4 ADD DUP7 PUSH2 0x8631 JUMP JUMPDEST PUSH2 0x90F0 PUSH1 0x20 DUP4 ADD DUP6 PUSH2 0x8631 JUMP JUMPDEST PUSH2 0x90FD PUSH1 0x40 DUP4 ADD DUP5 PUSH2 0x8871 JUMP JUMPDEST DUP2 DUP2 SUB PUSH1 0x60 DUP4 ADD MSTORE PUSH2 0x910E DUP2 PUSH2 0x8923 JUMP JUMPDEST SWAP1 POP SWAP5 SWAP4 POP POP POP POP JUMP JUMPDEST PUSH1 0x0 PUSH1 0x80 DUP3 ADD SWAP1 POP PUSH2 0x912D PUSH1 0x0 DUP4 ADD DUP7 PUSH2 0x8631 JUMP JUMPDEST PUSH2 0x913A PUSH1 0x20 DUP4 ADD DUP6 PUSH2 0x8631 JUMP JUMPDEST PUSH2 0x9147 PUSH1 0x40 DUP4 ADD DUP5 PUSH2 0x8871 JUMP JUMPDEST DUP2 DUP2 SUB PUSH1 0x60 DUP4 ADD MSTORE PUSH2 0x9158 DUP2 PUSH2 0x8946 JUMP JUMPDEST SWAP1 POP SWAP5 SWAP4 POP POP POP POP JUMP JUMPDEST PUSH1 0x0 PUSH1 0x80 DUP3 ADD SWAP1 POP PUSH2 0x9177 PUSH1 0x0 DUP4 ADD DUP7 PUSH2 0x8631 JUMP JUMPDEST PUSH2 0x9184 PUSH1 0x20 DUP4 ADD DUP6 PUSH2 0x8631 JUMP JUMPDEST PUSH2 0x9191 PUSH1 0x40 DUP4 ADD DUP5 PUSH2 0x8871 JUMP JUMPDEST DUP2 DUP2 SUB PUSH1 0x60 DUP4 ADD MSTORE PUSH2 0x91A2 DUP2 PUSH2 0x8969 JUMP JUMPDEST SWAP1 POP SWAP5 SWAP4 POP POP POP POP JUMP JUMPDEST PUSH1 0x0 PUSH1 0x80 DUP3 ADD SWAP1 POP PUSH2 0x91C1 PUSH1 0x0 DUP4 ADD DUP7 PUSH2 0x8631 JUMP JUMPDEST PUSH2 0x91CE PUSH1 0x20 DUP4 ADD DUP6 PUSH2 0x8631 JUMP JUMPDEST PUSH2 0x91DB PUSH1 0x40 DUP4 ADD DUP5 PUSH2 0x8871 JUMP JUMPDEST DUP2 DUP2 SUB PUSH1 0x60 DUP4 ADD MSTORE PUSH2 0x91EC DUP2 PUSH2 0x89AF JUMP JUMPDEST SWAP1 POP SWAP5 SWAP4 POP POP POP POP JUMP JUMPDEST PUSH1 0x0 PUSH1 0x80 DUP3 ADD SWAP1 POP PUSH2 0x920B PUSH1 0x0 DUP4 ADD DUP7 PUSH2 0x8631 JUMP JUMPDEST PUSH2 0x9218 PUSH1 0x20 DUP4 ADD DUP6 PUSH2 0x8631 JUMP JUMPDEST PUSH2 0x9225 PUSH1 0x40 DUP4 ADD DUP5 PUSH2 0x8871 JUMP JUMPDEST DUP2 DUP2 SUB PUSH1 0x60 DUP4 ADD MSTORE PUSH2 0x9236 DUP2 PUSH2 0x89D2 JUMP JUMPDEST SWAP1 POP SWAP5 SWAP4 POP POP POP POP JUMP JUMPDEST PUSH1 0x0 PUSH1 0x80 DUP3 ADD SWAP1 POP PUSH2 0x9255 PUSH1 0x0 DUP4 ADD DUP7 PUSH2 0x8631 JUMP JUMPDEST PUSH2 0x9262 PUSH1 0x20 DUP4 ADD DUP6 PUSH2 0x8631 JUMP JUMPDEST PUSH2 0x926F PUSH1 0x40 DUP4 ADD DUP5 PUSH2 0x8871 JUMP JUMPDEST DUP2 DUP2 SUB PUSH1 0x60 DUP4 ADD MSTORE PUSH2 0x9280 DUP2 PUSH2 0x89F5 JUMP JUMPDEST SWAP1 POP SWAP5 SWAP4 POP POP POP POP JUMP JUMPDEST PUSH1 0x0 PUSH1 0x80 DUP3 ADD SWAP1 POP PUSH2 0x929F PUSH1 0x0 DUP4 ADD DUP7 PUSH2 0x8631 JUMP JUMPDEST PUSH2 0x92AC PUSH1 0x20 DUP4 ADD DUP6 PUSH2 0x8631 JUMP JUMPDEST PUSH2 0x92B9 PUSH1 0x40 DUP4 ADD DUP5 PUSH2 0x8871 JUMP JUMPDEST DUP2 DUP2 SUB PUSH1 0x60 DUP4 ADD MSTORE PUSH2 0x92CA DUP2 PUSH2 0x8A18 JUMP JUMPDEST SWAP1 POP SWAP5 SWAP4 POP POP POP POP JUMP JUMPDEST PUSH1 0x0 PUSH1 0x80 DUP3 ADD SWAP1 POP PUSH2 0x92E9 PUSH1 0x0 DUP4 ADD DUP7 PUSH2 0x8631 JUMP JUMPDEST PUSH2 0x92F6 PUSH1 0x20 DUP4 ADD DUP6 PUSH2 0x8631 JUMP JUMPDEST PUSH2 0x9303 PUSH1 0x40 DUP4 ADD DUP5 PUSH2 0x8871 JUMP JUMPDEST DUP2 DUP2 SUB PUSH1 0x60 DUP4 ADD MSTORE PUSH2 0x9314 DUP2 PUSH2 0x8A3B JUMP JUMPDEST SWAP1 POP SWAP5 SWAP4 POP POP POP POP JUMP JUMPDEST PUSH1 0x0 PUSH1 0x80 DUP3 ADD SWAP1 POP PUSH2 0x9333 PUSH1 0x0 DUP4 ADD DUP7 PUSH2 0x8631 JUMP JUMPDEST PUSH2 0x9340 PUSH1 0x20 DUP4 ADD DUP6 PUSH2 0x8631 JUMP JUMPDEST PUSH2 0x934D PUSH1 0x40 DUP4 ADD DUP5 PUSH2 0x8871 JUMP JUMPDEST DUP2 DUP2 SUB PUSH1 0x60 DUP4 ADD MSTORE PUSH2 0x935E DUP2 PUSH2 0x8A5E JUMP JUMPDEST SWAP1 POP SWAP5 SWAP4 POP POP POP POP JUMP JUMPDEST PUSH1 0x0 PUSH1 0x80 DUP3 ADD SWAP1 POP PUSH2 0x937D PUSH1 0x0 DUP4 ADD DUP7 PUSH2 0x8631 JUMP JUMPDEST PUSH2 0x938A PUSH1 0x20 DUP4 ADD DUP6 PUSH2 0x8631 JUMP JUMPDEST PUSH2 0x9397 PUSH1 0x40 DUP4 ADD DUP5 PUSH2 0x8871 JUMP JUMPDEST DUP2 DUP2 SUB PUSH1 0x60 DUP4 ADD MSTORE PUSH2 0x93A8 DUP2 PUSH2 0x8A81 JUMP JUMPDEST SWAP1 POP SWAP5 SWAP4 POP POP POP POP JUMP JUMPDEST PUSH1 0x0 PUSH1 0x80 DUP3 ADD SWAP1 POP PUSH2 0x93C7 PUSH1 0x0 DUP4 ADD DUP7 PUSH2 0x8631 JUMP JUMPDEST PUSH2 0x93D4 PUSH1 0x20 DUP4 ADD DUP6 PUSH2 0x8631 JUMP JUMPDEST PUSH2 0x93E1 PUSH1 0x40 DUP4 ADD DUP5 PUSH2 0x8871 JUMP JUMPDEST DUP2 DUP2 SUB PUSH1 0x60 DUP4 ADD MSTORE PUSH2 0x93F2 DUP2 PUSH2 0x8AC7 JUMP JUMPDEST SWAP1 POP SWAP5 SWAP4 POP POP POP POP JUMP JUMPDEST PUSH1 0x0 PUSH1 0x80 DUP3 ADD SWAP1 POP PUSH2 0x9411 PUSH1 0x0 DUP4 ADD DUP7 PUSH2 0x8631 JUMP JUMPDEST PUSH2 0x941E PUSH1 0x20 DUP4 ADD DUP6 PUSH2 0x8631 JUMP JUMPDEST PUSH2 0x942B PUSH1 0x40 DUP4 ADD DUP5 PUSH2 0x8871 JUMP JUMPDEST DUP2 DUP2 SUB PUSH1 0x60 DUP4 ADD MSTORE PUSH2 0x943C DUP2 PUSH2 0x8AEA JUMP JUMPDEST SWAP1 POP SWAP5 SWAP4 POP POP POP POP JUMP JUMPDEST PUSH1 0x0 PUSH1 0x80 DUP3 ADD SWAP1 POP PUSH2 0x945B PUSH1 0x0 DUP4 ADD DUP7 PUSH2 0x8631 JUMP JUMPDEST PUSH2 0x9468 PUSH1 0x20 DUP4 ADD DUP6 PUSH2 0x8631 JUMP JUMPDEST PUSH2 0x9475 PUSH1 0x40 DUP4 ADD DUP5 PUSH2 0x8871 JUMP JUMPDEST DUP2 DUP2 SUB PUSH1 0x60 DUP4 ADD MSTORE PUSH2 0x9486 DUP2 PUSH2 0x8B30 JUMP JUMPDEST SWAP1 POP SWAP5 SWAP4 POP POP POP POP JUMP JUMPDEST PUSH1 0x0 PUSH1 0x80 DUP3 ADD SWAP1 POP PUSH2 0x94A5 PUSH1 0x0 DUP4 ADD DUP7 PUSH2 0x8631 JUMP JUMPDEST PUSH2 0x94B2 PUSH1 0x20 DUP4 ADD DUP6 PUSH2 0x8631 JUMP JUMPDEST PUSH2 0x94BF PUSH1 0x40 DUP4 ADD DUP5 PUSH2 0x8871 JUMP JUMPDEST DUP2 DUP2 SUB PUSH1 0x60 DUP4 ADD MSTORE PUSH2 0x94D0 DUP2 PUSH2 0x8B53 JUMP JUMPDEST SWAP1 POP SWAP5 SWAP4 POP POP POP POP JUMP JUMPDEST PUSH1 0x0 PUSH1 0x80 DUP3 ADD SWAP1 POP PUSH2 0x94EF PUSH1 0x0 DUP4 ADD DUP7 PUSH2 0x8631 JUMP JUMPDEST PUSH2 0x94FC PUSH1 0x20 DUP4 ADD DUP6 PUSH2 0x8631 JUMP JUMPDEST PUSH2 0x9509 PUSH1 0x40 DUP4 ADD DUP5 PUSH2 0x8871 JUMP JUMPDEST DUP2 DUP2 SUB PUSH1 0x60 DUP4 ADD MSTORE PUSH2 0x951A DUP2 PUSH2 0x8B76 JUMP JUMPDEST SWAP1 POP SWAP5 SWAP4 POP POP POP POP JUMP JUMPDEST PUSH1 0x0 PUSH1 0x80 DUP3 ADD SWAP1 POP PUSH2 0x9539 PUSH1 0x0 DUP4 ADD DUP7 PUSH2 0x8631 JUMP JUMPDEST PUSH2 0x9546 PUSH1 0x20 DUP4 ADD DUP6 PUSH2 0x8631 JUMP JUMPDEST PUSH2 0x9553 PUSH1 0x40 DUP4 ADD DUP5 PUSH2 0x8871 JUMP JUMPDEST DUP2 DUP2 SUB PUSH1 0x60 DUP4 ADD MSTORE PUSH2 0x9564 DUP2 PUSH2 0x8B99 JUMP JUMPDEST SWAP1 POP SWAP5 SWAP4 POP POP POP POP JUMP JUMPDEST PUSH1 0x0 PUSH1 0x80 DUP3 ADD SWAP1 POP PUSH2 0x9583 PUSH1 0x0 DUP4 ADD DUP7 PUSH2 0x8631 JUMP JUMPDEST PUSH2 0x9590 PUSH1 0x20 DUP4 ADD DUP6 PUSH2 0x8631 JUMP JUMPDEST PUSH2 0x959D PUSH1 0x40 DUP4 ADD DUP5 PUSH2 0x8871 JUMP JUMPDEST DUP2 DUP2 SUB PUSH1 0x60 DUP4 ADD MSTORE PUSH2 0x95AE DUP2 PUSH2 0x8BBC JUMP JUMPDEST SWAP1 POP SWAP5 SWAP4 POP POP POP POP JUMP JUMPDEST PUSH1 0x0 PUSH1 0x80 DUP3 ADD SWAP1 POP PUSH2 0x95CD PUSH1 0x0 DUP4 ADD DUP7 PUSH2 0x8631 JUMP JUMPDEST PUSH2 0x95DA PUSH1 0x20 DUP4 ADD DUP6 PUSH2 0x8631 JUMP JUMPDEST PUSH2 0x95E7 PUSH1 0x40 DUP4 ADD DUP5 PUSH2 0x8871 JUMP JUMPDEST DUP2 DUP2 SUB PUSH1 0x60 DUP4 ADD MSTORE PUSH2 0x95F8 DUP2 PUSH2 0x8C02 JUMP JUMPDEST SWAP1 POP SWAP5 SWAP4 POP POP POP POP JUMP JUMPDEST PUSH1 0x0 PUSH1 0x80 DUP3 ADD SWAP1 POP PUSH2 0x9617 PUSH1 0x0 DUP4 ADD DUP7 PUSH2 0x8631 JUMP JUMPDEST PUSH2 0x9624 PUSH1 0x20 DUP4 ADD DUP6 PUSH2 0x8631 JUMP JUMPDEST PUSH2 0x9631 PUSH1 0x40 DUP4 ADD DUP5 PUSH2 0x8871 JUMP JUMPDEST DUP2 DUP2 SUB PUSH1 0x60 DUP4 ADD MSTORE PUSH2 0x9642 DUP2 PUSH2 0x8C25 JUMP JUMPDEST SWAP1 POP SWAP5 SWAP4 POP POP POP POP JUMP JUMPDEST PUSH1 0x0 PUSH1 0x80 DUP3 ADD SWAP1 POP PUSH2 0x9661 PUSH1 0x0 DUP4 ADD DUP7 PUSH2 0x8631 JUMP JUMPDEST PUSH2 0x966E PUSH1 0x20 DUP4 ADD DUP6 PUSH2 0x8631 JUMP JUMPDEST PUSH2 0x967B PUSH1 0x40 DUP4 ADD DUP5 PUSH2 0x8871 JUMP JUMPDEST DUP2 DUP2 SUB PUSH1 0x60 DUP4 ADD MSTORE PUSH2 0x968C DUP2 PUSH2 0x8C48 JUMP JUMPDEST SWAP1 POP SWAP5 SWAP4 POP POP POP POP JUMP JUMPDEST PUSH1 0x0 PUSH1 0x80 DUP3 ADD SWAP1 POP PUSH2 0x96AB PUSH1 0x0 DUP4 ADD DUP7 PUSH2 0x8631 JUMP JUMPDEST PUSH2 0x96B8 PUSH1 0x20 DUP4 ADD DUP6 PUSH2 0x8631 JUMP JUMPDEST PUSH2 0x96C5 PUSH1 0x40 DUP4 ADD DUP5 PUSH2 0x8871 JUMP JUMPDEST DUP2 DUP2 SUB PUSH1 0x60 DUP4 ADD MSTORE PUSH2 0x96D6 DUP2 PUSH2 0x8C6B JUMP JUMPDEST SWAP1 POP SWAP5 SWAP4 POP POP POP POP JUMP JUMPDEST PUSH1 0x0 PUSH1 0x80 DUP3 ADD SWAP1 POP PUSH2 0x96F5 PUSH1 0x0 DUP4 ADD DUP7 PUSH2 0x8631 JUMP JUMPDEST PUSH2 0x9702 PUSH1 0x20 DUP4 ADD DUP6 PUSH2 0x8631 JUMP JUMPDEST PUSH2 0x970F PUSH1 0x40 DUP4 ADD DUP5 PUSH2 0x8871 JUMP JUMPDEST DUP2 DUP2 SUB PUSH1 0x60 DUP4 ADD MSTORE PUSH2 0x9720 DUP2 PUSH2 0x8C8E JUMP JUMPDEST SWAP1 POP SWAP5 SWAP4 POP POP POP POP JUMP JUMPDEST PUSH1 0x0 PUSH1 0x80 DUP3 ADD SWAP1 POP PUSH2 0x973F PUSH1 0x0 DUP4 ADD DUP7 PUSH2 0x8631 JUMP JUMPDEST PUSH2 0x974C PUSH1 0x20 DUP4 ADD DUP6 PUSH2 0x8631 JUMP JUMPDEST PUSH2 0x9759 PUSH1 0x40 DUP4 ADD DUP5 PUSH2 0x8871 JUMP JUMPDEST DUP2 DUP2 SUB PUSH1 0x60 DUP4 ADD MSTORE PUSH2 0x976A DUP2 PUSH2 0x8CB1 JUMP JUMPDEST SWAP1 POP SWAP5 SWAP4 POP POP POP POP JUMP JUMPDEST PUSH1 0x0 PUSH1 0x80 DUP3 ADD SWAP1 POP PUSH2 0x9789 PUSH1 0x0 DUP4 ADD DUP7 PUSH2 0x8631 JUMP JUMPDEST PUSH2 0x9796 PUSH1 0x20 DUP4 ADD DUP6 PUSH2 0x8631 JUMP JUMPDEST PUSH2 0x97A3 PUSH1 0x40 DUP4 ADD DUP5 PUSH2 0x8871 JUMP JUMPDEST DUP2 DUP2 SUB PUSH1 0x60 DUP4 ADD MSTORE PUSH2 0x97B4 DUP2 PUSH2 0x8CD4 JUMP JUMPDEST SWAP1 POP SWAP5 SWAP4 POP POP POP POP JUMP JUMPDEST PUSH1 0x0 PUSH1 0x80 DUP3 ADD SWAP1 POP PUSH2 0x97D3 PUSH1 0x0 DUP4 ADD DUP7 PUSH2 0x8631 JUMP JUMPDEST PUSH2 0x97E0 PUSH1 0x20 DUP4 ADD DUP6 PUSH2 0x8631 JUMP JUMPDEST PUSH2 0x97ED PUSH1 0x40 DUP4 ADD DUP5 PUSH2 0x8871 JUMP JUMPDEST DUP2 DUP2 SUB PUSH1 0x60 DUP4 ADD MSTORE PUSH2 0x97FE DUP2 PUSH2 0x8CF7 JUMP JUMPDEST SWAP1 POP SWAP5 SWAP4 POP POP POP POP JUMP JUMPDEST PUSH1 0x0 PUSH1 0x80 DUP3 ADD SWAP1 POP PUSH2 0x981D PUSH1 0x0 DUP4 ADD DUP7 PUSH2 0x8631 JUMP JUMPDEST PUSH2 0x982A PUSH1 0x20 DUP4 ADD DUP6 PUSH2 0x8631 JUMP JUMPDEST PUSH2 0x9837 PUSH1 0x40 DUP4 ADD DUP5 PUSH2 0x8871 JUMP JUMPDEST DUP2 DUP2 SUB PUSH1 0x60 DUP4 ADD MSTORE PUSH2 0x9848 DUP2 PUSH2 0x8D3D JUMP JUMPDEST SWAP1 POP SWAP5 SWAP4 POP POP POP POP JUMP JUMPDEST PUSH1 0x0 PUSH1 0x80 DUP3 ADD SWAP1 POP PUSH2 0x9867 PUSH1 0x0 DUP4 ADD DUP7 PUSH2 0x8631 JUMP JUMPDEST PUSH2 0x9874 PUSH1 0x20 DUP4 ADD DUP6 PUSH2 0x8631 JUMP JUMPDEST PUSH2 0x9881 PUSH1 0x40 DUP4 ADD DUP5 PUSH2 0x8871 JUMP JUMPDEST DUP2 DUP2 SUB PUSH1 0x60 DUP4 ADD MSTORE PUSH2 0x9892 DUP2 PUSH2 0x8D83 JUMP JUMPDEST SWAP1 POP SWAP5 SWAP4 POP POP POP POP JUMP JUMPDEST PUSH1 0x0 PUSH1 0x80 DUP3 ADD SWAP1 POP PUSH2 0x98B1 PUSH1 0x0 DUP4 ADD DUP7 PUSH2 0x8631 JUMP JUMPDEST PUSH2 0x98BE PUSH1 0x20 DUP4 ADD DUP6 PUSH2 0x8631 JUMP JUMPDEST PUSH2 0x98CB PUSH1 0x40 DUP4 ADD DUP5 PUSH2 0x8871 JUMP JUMPDEST DUP2 DUP2 SUB PUSH1 0x60 DUP4 ADD MSTORE PUSH2 0x98DC DUP2 PUSH2 0x8DA6 JUMP JUMPDEST SWAP1 POP SWAP5 SWAP4 POP POP POP POP JUMP JUMPDEST PUSH1 0x0 PUSH1 0x80 DUP3 ADD SWAP1 POP PUSH2 0x98FB PUSH1 0x0 DUP4 ADD DUP7 PUSH2 0x8631 JUMP JUMPDEST PUSH2 0x9908 PUSH1 0x20 DUP4 ADD DUP6 PUSH2 0x8631 JUMP JUMPDEST PUSH2 0x9915 PUSH1 0x40 DUP4 ADD DUP5 PUSH2 0x8871 JUMP JUMPDEST DUP2 DUP2 SUB PUSH1 0x60 DUP4 ADD MSTORE PUSH2 0x9926 DUP2 PUSH2 0x8DC9 JUMP JUMPDEST SWAP1 POP SWAP5 SWAP4 POP POP POP POP JUMP JUMPDEST PUSH1 0x0 PUSH1 0x80 DUP3 ADD SWAP1 POP PUSH2 0x9945 PUSH1 0x0 DUP4 ADD DUP7 PUSH2 0x8631 JUMP JUMPDEST PUSH2 0x9952 PUSH1 0x20 DUP4 ADD DUP6 PUSH2 0x8631 JUMP JUMPDEST PUSH2 0x995F PUSH1 0x40 DUP4 ADD DUP5 PUSH2 0x8871 JUMP JUMPDEST DUP2 DUP2 SUB PUSH1 0x60 DUP4 ADD MSTORE PUSH2 0x9970 DUP2 PUSH2 0x8DEC JUMP JUMPDEST SWAP1 POP SWAP5 SWAP4 POP POP POP POP JUMP JUMPDEST PUSH1 0x0 PUSH1 0x80 DUP3 ADD SWAP1 POP PUSH2 0x998F PUSH1 0x0 DUP4 ADD DUP7 PUSH2 0x8631 JUMP JUMPDEST PUSH2 0x999C PUSH1 0x20 DUP4 ADD DUP6 PUSH2 0x8631 JUMP JUMPDEST PUSH2 0x99A9 PUSH1 0x40 DUP4 ADD DUP5 PUSH2 0x8871 JUMP JUMPDEST DUP2 DUP2 SUB PUSH1 0x60 DUP4 ADD MSTORE PUSH2 0x99BA DUP2 PUSH2 0x8E0F JUMP JUMPDEST SWAP1 POP SWAP5 SWAP4 POP POP POP POP JUMP JUMPDEST PUSH1 0x0 PUSH1 0x80 DUP3 ADD SWAP1 POP PUSH2 0x99D9 PUSH1 0x0 DUP4 ADD DUP7 PUSH2 0x8631 JUMP JUMPDEST PUSH2 0x99E6 PUSH1 0x20 DUP4 ADD DUP6 PUSH2 0x8631 JUMP JUMPDEST PUSH2 0x99F3 PUSH1 0x40 DUP4 ADD DUP5 PUSH2 0x8871 JUMP JUMPDEST DUP2 DUP2 SUB PUSH1 0x60 DUP4 ADD MSTORE PUSH2 0x9A04 DUP2 PUSH2 0x8E32 JUMP JUMPDEST SWAP1 POP SWAP5 SWAP4 POP POP POP POP JUMP JUMPDEST PUSH1 0x0 PUSH1 0x80 DUP3 ADD SWAP1 POP PUSH2 0x9A23 PUSH1 0x0 DUP4 ADD DUP7 PUSH2 0x8631 JUMP JUMPDEST PUSH2 0x9A30 PUSH1 0x20 DUP4 ADD DUP6 PUSH2 0x8631 JUMP JUMPDEST PUSH2 0x9A3D PUSH1 0x40 DUP4 ADD DUP5 PUSH2 0x8871 JUMP JUMPDEST DUP2 DUP2 SUB PUSH1 0x60 DUP4 ADD MSTORE PUSH2 0x9A4E DUP2 PUSH2 0x8E55 JUMP JUMPDEST SWAP1 POP SWAP5 SWAP4 POP POP POP POP JUMP JUMPDEST PUSH1 0x0 PUSH1 0x80 DUP3 ADD SWAP1 POP PUSH2 0x9A6D PUSH1 0x0 DUP4 ADD DUP7 PUSH2 0x8631 JUMP JUMPDEST PUSH2 0x9A7A PUSH1 0x20 DUP4 ADD DUP6 PUSH2 0x8631 JUMP JUMPDEST PUSH2 0x9A87 PUSH1 0x40 DUP4 ADD DUP5 PUSH2 0x8871 JUMP JUMPDEST DUP2 DUP2 SUB PUSH1 0x60 DUP4 ADD MSTORE PUSH2 0x9A98 DUP2 PUSH2 0x8E78 JUMP JUMPDEST SWAP1 POP SWAP5 SWAP4 POP POP POP POP JUMP JUMPDEST PUSH1 0x0 PUSH1 0x80 DUP3 ADD SWAP1 POP PUSH2 0x9AB7 PUSH1 0x0 DUP4 ADD DUP7 PUSH2 0x8631 JUMP JUMPDEST PUSH2 0x9AC4 PUSH1 0x20 DUP4 ADD DUP6 PUSH2 0x8631 JUMP JUMPDEST PUSH2 0x9AD1 PUSH1 0x40 DUP4 ADD DUP5 PUSH2 0x8871 JUMP JUMPDEST DUP2 DUP2 SUB PUSH1 0x60 DUP4 ADD MSTORE PUSH2 0x9AE2 DUP2 PUSH2 0x8E9B JUMP JUMPDEST SWAP1 POP SWAP5 SWAP4 POP POP POP POP JUMP JUMPDEST PUSH1 0x0 PUSH1 0x80 DUP3 ADD SWAP1 POP PUSH2 0x9B01 PUSH1 0x0 DUP4 ADD DUP7 PUSH2 0x8631 JUMP JUMPDEST PUSH2 0x9B0E PUSH1 0x20 DUP4 ADD DUP6 PUSH2 0x8631 JUMP JUMPDEST PUSH2 0x9B1B PUSH1 0x40 DUP4 ADD DUP5 PUSH2 0x8871 JUMP JUMPDEST DUP2 DUP2 SUB PUSH1 0x60 DUP4 ADD MSTORE PUSH2 0x9B2C DUP2 PUSH2 0x8EE1 JUMP JUMPDEST SWAP1 POP SWAP5 SWAP4 POP POP POP POP JUMP JUMPDEST PUSH1 0x0 PUSH1 0x80 DUP3 ADD SWAP1 POP PUSH2 0x9B4B PUSH1 0x0 DUP4 ADD DUP7 PUSH2 0x8631 JUMP JUMPDEST PUSH2 0x9B58 PUSH1 0x20 DUP4 ADD DUP6 PUSH2 0x8631 JUMP JUMPDEST PUSH2 0x9B65 PUSH1 0x40 DUP4 ADD DUP5 PUSH2 0x8871 JUMP JUMPDEST DUP2 DUP2 SUB PUSH1 0x60 DUP4 ADD MSTORE PUSH2 0x9B76 DUP2 PUSH2 0x8F04 JUMP JUMPDEST SWAP1 POP SWAP5 SWAP4 POP POP POP POP JUMP JUMPDEST PUSH1 0x0 PUSH1 0x80 DUP3 ADD SWAP1 POP PUSH2 0x9B95 PUSH1 0x0 DUP4 ADD DUP7 PUSH2 0x8631 JUMP JUMPDEST PUSH2 0x9BA2 PUSH1 0x20 DUP4 ADD DUP6 PUSH2 0x8631 JUMP JUMPDEST PUSH2 0x9BAF PUSH1 0x40 DUP4 ADD DUP5 PUSH2 0x8871 JUMP JUMPDEST DUP2 DUP2 SUB PUSH1 0x60 DUP4 ADD MSTORE PUSH2 0x9BC0 DUP2 PUSH2 0x8F27 JUMP JUMPDEST SWAP1 POP SWAP5 SWAP4 POP POP POP POP JUMP JUMPDEST PUSH1 0x0 PUSH1 0x80 DUP3 ADD SWAP1 POP PUSH2 0x9BDF PUSH1 0x0 DUP4 ADD DUP7 PUSH2 0x8631 JUMP JUMPDEST PUSH2 0x9BEC PUSH1 0x20 DUP4 ADD DUP6 PUSH2 0x8631 JUMP JUMPDEST PUSH2 0x9BF9 PUSH1 0x40 DUP4 ADD DUP5 PUSH2 0x9075 JUMP JUMPDEST DUP2 DUP2 SUB PUSH1 0x60 DUP4 ADD MSTORE PUSH2 0x9C0A DUP2 PUSH2 0x898C JUMP JUMPDEST SWAP1 POP SWAP5 SWAP4 POP POP POP POP JUMP JUMPDEST PUSH1 0x0 PUSH1 0x80 DUP3 ADD SWAP1 POP PUSH2 0x9C29 PUSH1 0x0 DUP4 ADD DUP7 PUSH2 0x8631 JUMP JUMPDEST PUSH2 0x9C36 PUSH1 0x20 DUP4 ADD DUP6 PUSH2 0x8631 JUMP JUMPDEST PUSH2 0x9C43 PUSH1 0x40 DUP4 ADD DUP5 PUSH2 0x9075 JUMP JUMPDEST DUP2 DUP2 SUB PUSH1 0x60 DUP4 ADD MSTORE PUSH2 0x9C54 DUP2 PUSH2 0x8AA4 JUMP JUMPDEST SWAP1 POP SWAP5 SWAP4 POP POP POP POP JUMP JUMPDEST PUSH1 0x0 PUSH1 0x80 DUP3 ADD SWAP1 POP PUSH2 0x9C73 PUSH1 0x0 DUP4 ADD DUP7 PUSH2 0x8631 JUMP JUMPDEST PUSH2 0x9C80 PUSH1 0x20 DUP4 ADD DUP6 PUSH2 0x8631 JUMP JUMPDEST PUSH2 0x9C8D PUSH1 0x40 DUP4 ADD DUP5 PUSH2 0x9075 JUMP JUMPDEST DUP2 DUP2 SUB PUSH1 0x60 DUP4 ADD MSTORE PUSH2 0x9C9E DUP2 PUSH2 0x8B0D JUMP JUMPDEST SWAP1 POP SWAP5 SWAP4 POP POP POP POP JUMP JUMPDEST PUSH1 0x0 PUSH1 0x80 DUP3 ADD SWAP1 POP PUSH2 0x9CBD PUSH1 0x0 DUP4 ADD DUP7 PUSH2 0x8631 JUMP JUMPDEST PUSH2 0x9CCA PUSH1 0x20 DUP4 ADD DUP6 PUSH2 0x8631 JUMP JUMPDEST PUSH2 0x9CD7 PUSH1 0x40 DUP4 ADD DUP5 PUSH2 0x9075 JUMP JUMPDEST DUP2 DUP2 SUB PUSH1 0x60 DUP4 ADD MSTORE PUSH2 0x9CE8 DUP2 PUSH2 0x8BDF JUMP JUMPDEST SWAP1 POP SWAP5 SWAP4 POP POP POP POP JUMP JUMPDEST PUSH1 0x0 PUSH1 0x80 DUP3 ADD SWAP1 POP PUSH2 0x9D07 PUSH1 0x0 DUP4 ADD DUP7 PUSH2 0x8631 JUMP JUMPDEST PUSH2 0x9D14 PUSH1 0x20 DUP4 ADD DUP6 PUSH2 0x8631 JUMP JUMPDEST PUSH2 0x9D21 PUSH1 0x40 DUP4 ADD DUP5 PUSH2 0x9075 JUMP JUMPDEST DUP2 DUP2 SUB PUSH1 0x60 DUP4 ADD MSTORE PUSH2 0x9D32 DUP2 PUSH2 0x8D1A JUMP JUMPDEST SWAP1 POP SWAP5 SWAP4 POP POP POP POP JUMP JUMPDEST PUSH1 0x0 PUSH1 0x80 DUP3 ADD SWAP1 POP PUSH2 0x9D51 PUSH1 0x0 DUP4 ADD DUP7 PUSH2 0x8631 JUMP JUMPDEST PUSH2 0x9D5E PUSH1 0x20 DUP4 ADD DUP6 PUSH2 0x8631 JUMP JUMPDEST PUSH2 0x9D6B PUSH1 0x40 DUP4 ADD DUP5 PUSH2 0x9075 JUMP JUMPDEST DUP2 DUP2 SUB PUSH1 0x60 DUP4 ADD MSTORE PUSH2 0x9D7C DUP2 PUSH2 0x8D60 JUMP JUMPDEST SWAP1 POP SWAP5 SWAP4 POP POP POP POP JUMP JUMPDEST PUSH1 0x0 PUSH1 0x80 DUP3 ADD SWAP1 POP PUSH2 0x9D9B PUSH1 0x0 DUP4 ADD DUP7 PUSH2 0x8631 JUMP JUMPDEST PUSH2 0x9DA8 PUSH1 0x20 DUP4 ADD DUP6 PUSH2 0x8631 JUMP JUMPDEST PUSH2 0x9DB5 PUSH1 0x40 DUP4 ADD DUP5 PUSH2 0x9075 JUMP JUMPDEST DUP2 DUP2 SUB PUSH1 0x60 DUP4 ADD MSTORE PUSH2 0x9DC6 DUP2 PUSH2 0x8DA6 JUMP JUMPDEST SWAP1 POP SWAP5 SWAP4 POP POP POP POP JUMP JUMPDEST PUSH1 0x0 PUSH1 0x80 DUP3 ADD SWAP1 POP PUSH2 0x9DE5 PUSH1 0x0 DUP4 ADD DUP7 PUSH2 0x8631 JUMP JUMPDEST PUSH2 0x9DF2 PUSH1 0x20 DUP4 ADD DUP6 PUSH2 0x8631 JUMP JUMPDEST PUSH2 0x9DFF PUSH1 0x40 DUP4 ADD DUP5 PUSH2 0x9075 JUMP JUMPDEST DUP2 DUP2 SUB PUSH1 0x60 DUP4 ADD MSTORE PUSH2 0x9E10 DUP2 PUSH2 0x8EBE JUMP JUMPDEST SWAP1 POP SWAP5 SWAP4 POP POP POP POP JUMP JUMPDEST PUSH1 0x0 PUSH1 0x80 DUP3 ADD SWAP1 POP PUSH2 0x9E2F PUSH1 0x0 DUP4 ADD DUP7 PUSH2 0x8631 JUMP JUMPDEST PUSH2 0x9E3C PUSH1 0x20 DUP4 ADD DUP6 PUSH2 0x8631 JUMP JUMPDEST PUSH2 0x9E49 PUSH1 0x40 DUP4 ADD DUP5 PUSH2 0x9075 JUMP JUMPDEST DUP2 DUP2 SUB PUSH1 0x60 DUP4 ADD MSTORE PUSH2 0x9E5A DUP2 PUSH2 0x8F4A JUMP JUMPDEST SWAP1 POP SWAP5 SWAP4 POP POP POP POP JUMP JUMPDEST PUSH1 0x0 PUSH1 0x80 DUP3 ADD SWAP1 POP PUSH2 0x9E79 PUSH1 0x0 DUP4 ADD DUP7 PUSH2 0x8631 JUMP JUMPDEST PUSH2 0x9E86 PUSH1 0x20 DUP4 ADD DUP6 PUSH2 0x8631 JUMP JUMPDEST PUSH2 0x9E93 PUSH1 0x40 DUP4 ADD DUP5 PUSH2 0x9075 JUMP JUMPDEST DUP2 DUP2 SUB PUSH1 0x60 DUP4 ADD MSTORE PUSH2 0x9EA4 DUP2 PUSH2 0x8F6D JUMP JUMPDEST SWAP1 POP SWAP5 SWAP4 POP POP POP POP JUMP JUMPDEST PUSH1 0x0 PUSH1 0x20 DUP3 ADD SWAP1 POP DUP2 DUP2 SUB PUSH1 0x0 DUP4 ADD MSTORE PUSH2 0x9EC8 DUP2 DUP5 PUSH2 0x8713 JUMP JUMPDEST SWAP1 POP SWAP3 SWAP2 POP POP JUMP JUMPDEST PUSH1 0x0 PUSH1 0x20 DUP3 ADD SWAP1 POP DUP2 DUP2 SUB PUSH1 0x0 DUP4 ADD MSTORE PUSH2 0x9EEA DUP2 DUP5 PUSH2 0x87E6 JUMP JUMPDEST SWAP1 POP SWAP3 SWAP2 POP POP JUMP JUMPDEST PUSH1 0x0 PUSH1 0x20 DUP3 ADD SWAP1 POP PUSH2 0x9F07 PUSH1 0x0 DUP4 ADD DUP5 PUSH2 0x8853 JUMP JUMPDEST SWAP3 SWAP2 POP POP JUMP JUMPDEST PUSH1 0x0 PUSH2 0x120 DUP3 ADD SWAP1 POP PUSH2 0x9F23 PUSH1 0x0 DUP4 ADD DUP13 PUSH2 0x8862 JUMP JUMPDEST DUP2 DUP2 SUB PUSH1 0x20 DUP4 ADD MSTORE PUSH2 0x9F35 DUP2 DUP12 PUSH2 0x88B9 JUMP JUMPDEST SWAP1 POP DUP2 DUP2 SUB PUSH1 0x40 DUP4 ADD MSTORE PUSH2 0x9F49 DUP2 DUP11 PUSH2 0x88B9 JUMP JUMPDEST SWAP1 POP DUP2 DUP2 SUB PUSH1 0x60 DUP4 ADD MSTORE PUSH2 0x9F5D DUP2 DUP10 PUSH2 0x8713 JUMP JUMPDEST SWAP1 POP DUP2 DUP2 SUB PUSH1 0x80 DUP4 ADD MSTORE PUSH2 0x9F71 DUP2 DUP9 PUSH2 0x88B9 JUMP JUMPDEST SWAP1 POP DUP2 DUP2 SUB PUSH1 0xA0 DUP4 ADD MSTORE PUSH2 0x9F85 DUP2 DUP8 PUSH2 0x8640 JUMP JUMPDEST SWAP1 POP PUSH2 0x9F94 PUSH1 0xC0 DUP4 ADD DUP7 PUSH2 0x8631 JUMP JUMPDEST PUSH2 0x9FA1 PUSH1 0xE0 DUP4 ADD DUP6 PUSH2 0x9057 JUMP JUMPDEST DUP2 DUP2 SUB PUSH2 0x100 DUP4 ADD MSTORE PUSH2 0x9FB4 DUP2 DUP5 PUSH2 0x8788 JUMP JUMPDEST SWAP1 POP SWAP11 SWAP10 POP POP POP POP POP POP POP POP POP POP JUMP JUMPDEST PUSH1 0x0 PUSH1 0x20 DUP3 ADD SWAP1 POP DUP2 DUP2 SUB PUSH1 0x0 DUP4 ADD MSTORE PUSH2 0x9FDE DUP2 DUP5 PUSH2 0x88B9 JUMP JUMPDEST SWAP1 POP SWAP3 SWAP2 POP POP JUMP JUMPDEST PUSH1 0x0 PUSH1 0xA0 DUP3 ADD SWAP1 POP DUP2 DUP2 SUB PUSH1 0x0 DUP4 ADD MSTORE PUSH2 0xA000 DUP2 DUP9 PUSH2 0x88B9 JUMP JUMPDEST SWAP1 POP DUP2 DUP2 SUB PUSH1 0x20 DUP4 ADD MSTORE PUSH2 0xA014 DUP2 DUP8 PUSH2 0x88B9 JUMP JUMPDEST SWAP1 POP DUP2 DUP2 SUB PUSH1 0x40 DUP4 ADD MSTORE PUSH2 0xA028 DUP2 DUP7 PUSH2 0x8713 JUMP JUMPDEST SWAP1 POP DUP2 DUP2 SUB PUSH1 0x60 DUP4 ADD MSTORE PUSH2 0xA03C DUP2 DUP6 PUSH2 0x8713 JUMP JUMPDEST SWAP1 POP DUP2 DUP2 SUB PUSH1 0x80 DUP4 ADD MSTORE PUSH2 0xA050 DUP2 DUP5 PUSH2 0x8713 JUMP JUMPDEST SWAP1 POP SWAP7 SWAP6 POP POP POP POP POP POP JUMP JUMPDEST PUSH1 0x0 PUSH2 0x100 DUP3 ADD SWAP1 POP DUP2 DUP2 SUB PUSH1 0x0 DUP4 ADD MSTORE PUSH2 0xA077 DUP2 DUP12 PUSH2 0x8F90 JUMP JUMPDEST SWAP1 POP DUP2 DUP2 SUB PUSH1 0x20 DUP4 ADD MSTORE PUSH2 0xA08B DUP2 DUP11 PUSH2 0x88B9 JUMP JUMPDEST SWAP1 POP DUP2 DUP2 SUB PUSH1 0x40 DUP4 ADD MSTORE PUSH2 0xA09F DUP2 DUP10 PUSH2 0x88B9 JUMP JUMPDEST SWAP1 POP DUP2 DUP2 SUB PUSH1 0x60 DUP4 ADD MSTORE PUSH2 0xA0B3 DUP2 DUP9 PUSH2 0x88B9 JUMP JUMPDEST SWAP1 POP DUP2 DUP2 SUB PUSH1 0x80 DUP4 ADD MSTORE PUSH2 0xA0C7 DUP2 DUP8 PUSH2 0x88B9 JUMP JUMPDEST SWAP1 POP DUP2 DUP2 SUB PUSH1 0xA0 DUP4 ADD MSTORE PUSH2 0xA0DB DUP2 DUP7 PUSH2 0x8713 JUMP JUMPDEST SWAP1 POP DUP2 DUP2 SUB PUSH1 0xC0 DUP4 ADD MSTORE PUSH2 0xA0EF DUP2 DUP6 PUSH2 0x8713 JUMP JUMPDEST SWAP1 POP PUSH2 0xA0FE PUSH1 0xE0 DUP4 ADD DUP5 PUSH2 0x8631 JUMP JUMPDEST SWAP10 SWAP9 POP POP POP POP POP POP POP POP POP JUMP JUMPDEST PUSH1 0x0 PUSH2 0xA115 PUSH2 0xA126 JUMP JUMPDEST SWAP1 POP PUSH2 0xA121 DUP3 DUP3 PUSH2 0xA41F JUMP JUMPDEST SWAP2 SWAP1 POP JUMP JUMPDEST PUSH1 0x0 PUSH1 0x40 MLOAD SWAP1 POP SWAP1 JUMP JUMPDEST PUSH1 0x0 PUSH8 0xFFFFFFFFFFFFFFFF DUP3 GT ISZERO PUSH2 0xA14B JUMPI PUSH2 0xA14A PUSH2 0xA555 JUMP JUMPDEST JUMPDEST PUSH1 0x20 DUP3 MUL SWAP1 POP PUSH1 0x20 DUP2 ADD SWAP1 POP SWAP2 SWAP1 POP JUMP JUMPDEST PUSH1 0x0 PUSH8 0xFFFFFFFFFFFFFFFF DUP3 GT ISZERO PUSH2 0xA177 JUMPI PUSH2 0xA176 PUSH2 0xA555 JUMP JUMPDEST JUMPDEST PUSH2 0xA180 DUP3 PUSH2 0xA59D JUMP JUMPDEST SWAP1 POP PUSH1 0x20 DUP2 ADD SWAP1 POP SWAP2 SWAP1 POP JUMP JUMPDEST PUSH1 0x0 DUP2 SWAP1 POP PUSH1 0x20 DUP3 ADD SWAP1 POP SWAP2 SWAP1 POP JUMP JUMPDEST PUSH1 0x0 DUP2 SWAP1 POP PUSH1 0x20 DUP3 ADD SWAP1 POP SWAP2 SWAP1 POP JUMP JUMPDEST PUSH1 0x0 DUP2 SWAP1 POP PUSH1 0x20 DUP3 ADD SWAP1 POP SWAP2 SWAP1 POP JUMP JUMPDEST PUSH1 0x0 DUP2 SWAP1 POP PUSH1 0x20 DUP3 ADD SWAP1 POP SWAP2 SWAP1 POP JUMP JUMPDEST PUSH1 0x0 DUP2 MLOAD SWAP1 POP SWAP2 SWAP1 POP JUMP JUMPDEST PUSH1 0x0 DUP2 MLOAD SWAP1 POP SWAP2 SWAP1 POP JUMP JUMPDEST PUSH1 0x0 DUP2 MLOAD SWAP1 POP SWAP2 SWAP1 POP JUMP JUMPDEST PUSH1 0x0 DUP2 MLOAD SWAP1 POP SWAP2 SWAP1 POP JUMP JUMPDEST PUSH1 0x0 DUP2 MLOAD SWAP1 POP SWAP2 SWAP1 POP JUMP JUMPDEST PUSH1 0x0 PUSH1 0x20 DUP3 ADD SWAP1 POP SWAP2 SWAP1 POP JUMP JUMPDEST PUSH1 0x0 PUSH1 0x20 DUP3 ADD SWAP1 POP SWAP2 SWAP1 POP JUMP JUMPDEST PUSH1 0x0 PUSH1 0x20 DUP3 ADD SWAP1 POP SWAP2 SWAP1 POP JUMP JUMPDEST PUSH1 0x0 PUSH1 0x20 DUP3 ADD SWAP1 POP SWAP2 SWAP1 POP JUMP JUMPDEST PUSH1 0x0 DUP3 DUP3 MSTORE PUSH1 0x20 DUP3 ADD SWAP1 POP SWAP3 SWAP2 POP POP JUMP JUMPDEST PUSH1 0x0 DUP3 DUP3 MSTORE PUSH1 0x20 DUP3 ADD SWAP1 POP SWAP3 SWAP2 POP POP JUMP JUMPDEST PUSH1 0x0 DUP3 DUP3 MSTORE PUSH1 0x20 DUP3 ADD SWAP1 POP SWAP3 SWAP2 POP POP JUMP JUMPDEST PUSH1 0x0 DUP3 DUP3 MSTORE PUSH1 0x20 DUP3 ADD SWAP1 POP SWAP3 SWAP2 POP POP JUMP JUMPDEST PUSH1 0x0 DUP3 DUP3 MSTORE PUSH1 0x20 DUP3 ADD SWAP1 POP SWAP3 SWAP2 POP POP JUMP JUMPDEST PUSH1 0x0 DUP3 DUP3 MSTORE PUSH1 0x20 DUP3 ADD SWAP1 POP SWAP3 SWAP2 POP POP JUMP JUMPDEST PUSH1 0x0 DUP3 DUP3 MSTORE PUSH1 0x20 DUP3 ADD SWAP1 POP SWAP3 SWAP2 POP POP JUMP JUMPDEST PUSH1 0x0 DUP2 SWAP1 POP SWAP3 SWAP2 POP POP JUMP JUMPDEST PUSH1 0x0 PUSH2 0xA2C5 DUP3 PUSH2 0xA35E JUMP JUMPDEST SWAP2 POP PUSH2 0xA2D0 DUP4 PUSH2 0xA35E JUMP JUMPDEST SWAP3 POP DUP3 DUP3 LT ISZERO PUSH2 0xA2E3 JUMPI PUSH2 0xA2E2 PUSH2 0xA499 JUMP JUMPDEST JUMPDEST DUP3 DUP3 SUB SWAP1 POP SWAP3 SWAP2 POP POP JUMP JUMPDEST PUSH1 0x0 PUSH2 0xA2F9 DUP3 PUSH2 0xA33E JUMP JUMPDEST SWAP1 POP SWAP2 SWAP1 POP JUMP JUMPDEST PUSH1 0x0 DUP2 SWAP1 POP SWAP2 SWAP1 POP JUMP JUMPDEST PUSH1 0x0 DUP2 SWAP1 POP PUSH2 0xA318 DUP3 PUSH2 0xADCD JUMP JUMPDEST SWAP2 SWAP1 POP JUMP JUMPDEST PUSH1 0x0 DUP2 SWAP1 POP PUSH2 0xA32B DUP3 PUSH2 0xADE1 JUMP JUMPDEST SWAP2 SWAP1 POP JUMP JUMPDEST PUSH1 0x0 PUSH2 0xFFFF DUP3 AND SWAP1 POP SWAP2 SWAP1 POP JUMP JUMPDEST PUSH1 0x0 PUSH20 0xFFFFFFFFFFFFFFFFFFFFFFFFFFFFFFFFFFFFFFFF DUP3 AND SWAP1 POP SWAP2 SWAP1 POP JUMP JUMPDEST PUSH1 0x0 DUP2 SWAP1 POP SWAP2 SWAP1 POP JUMP JUMPDEST PUSH1 0x0 PUSH1 0xFF DUP3 AND SWAP1 POP SWAP2 SWAP1 POP JUMP JUMPDEST PUSH1 0x0 PUSH2 0xA380 DUP3 PUSH2 0xA30A JUMP JUMPDEST SWAP1 POP SWAP2 SWAP1 POP JUMP JUMPDEST PUSH1 0x0 PUSH2 0xA392 DUP3 PUSH2 0xA31D JUMP JUMPDEST SWAP1 POP SWAP2 SWAP1 POP JUMP JUMPDEST PUSH1 0x0 PUSH2 0xA3A4 DUP3 PUSH2 0xA35E JUMP JUMPDEST SWAP1 POP SWAP2 SWAP1 POP JUMP JUMPDEST DUP3 DUP2 DUP4 CALLDATACOPY PUSH1 0x0 DUP4 DUP4 ADD MSTORE POP POP POP JUMP JUMPDEST PUSH1 0x0 JUMPDEST DUP4 DUP2 LT ISZERO PUSH2 0xA3D8 JUMPI DUP1 DUP3 ADD MLOAD DUP2 DUP5 ADD MSTORE PUSH1 0x20 DUP2 ADD SWAP1 POP PUSH2 0xA3BD JUMP JUMPDEST DUP4 DUP2 GT ISZERO PUSH2 0xA3E7 JUMPI PUSH1 0x0 DUP5 DUP5 ADD MSTORE JUMPDEST POP POP POP POP JUMP JUMPDEST PUSH1 0x0 PUSH1 0x2 DUP3 DIV SWAP1 POP PUSH1 0x1 DUP3 AND DUP1 PUSH2 0xA405 JUMPI PUSH1 0x7F DUP3 AND SWAP2 POP JUMPDEST PUSH1 0x20 DUP3 LT DUP2 EQ ISZERO PUSH2 0xA419 JUMPI PUSH2 0xA418 PUSH2 0xA4F7 JUMP JUMPDEST JUMPDEST POP SWAP2 SWAP1 POP JUMP JUMPDEST PUSH2 0xA428 DUP3 PUSH2 0xA59D JUMP JUMPDEST DUP2 ADD DUP2 DUP2 LT PUSH8 0xFFFFFFFFFFFFFFFF DUP3 GT OR ISZERO PUSH2 0xA447 JUMPI PUSH2 0xA446 PUSH2 0xA555 JUMP JUMPDEST JUMPDEST DUP1 PUSH1 0x40 MSTORE POP POP POP JUMP JUMPDEST PUSH1 0x0 PUSH2 0xA45B DUP3 PUSH2 0xA35E JUMP JUMPDEST SWAP2 POP PUSH32 0xFFFFFFFFFFFFFFFFFFFFFFFFFFFFFFFFFFFFFFFFFFFFFFFFFFFFFFFFFFFFFFFF DUP3 EQ ISZERO PUSH2 0xA48E JUMPI PUSH2 0xA48D PUSH2 0xA499 JUMP JUMPDEST JUMPDEST PUSH1 0x1 DUP3 ADD SWAP1 POP SWAP2 SWAP1 POP JUMP JUMPDEST PUSH32 0x4E487B7100000000000000000000000000000000000000000000000000000000 PUSH1 0x0 MSTORE PUSH1 0x11 PUSH1 0x4 MSTORE PUSH1 0x24 PUSH1 0x0 REVERT JUMPDEST PUSH32 0x4E487B7100000000000000000000000000000000000000000000000000000000 PUSH1 0x0 MSTORE PUSH1 0x21 PUSH1 0x4 MSTORE PUSH1 0x24 PUSH1 0x0 REVERT JUMPDEST PUSH32 0x4E487B7100000000000000000000000000000000000000000000000000000000 PUSH1 0x0 MSTORE PUSH1 0x22 PUSH1 0x4 MSTORE PUSH1 0x24 PUSH1 0x0 REVERT JUMPDEST PUSH32 0x4E487B7100000000000000000000000000000000000000000000000000000000 PUSH1 0x0 MSTORE PUSH1 0x32 PUSH1 0x4 MSTORE PUSH1 0x24 PUSH1 0x0 REVERT JUMPDEST PUSH32 0x4E487B7100000000000000000000000000000000000000000000000000000000 PUSH1 0x0 MSTORE PUSH1 0x41 PUSH1 0x4 MSTORE PUSH1 0x24 PUSH1 0x0 REVERT JUMPDEST PUSH1 0x0 DUP1 REVERT JUMPDEST PUSH1 0x0 DUP1 REVERT JUMPDEST PUSH1 0x0 DUP1 REVERT JUMPDEST PUSH1 0x0 DUP1 REVERT JUMPDEST PUSH1 0x0 DUP1 REVERT JUMPDEST PUSH1 0x0 PUSH1 0x1F NOT PUSH1 0x1F DUP4 ADD AND SWAP1 POP SWAP2 SWAP1 POP JUMP JUMPDEST PUSH32 0x4552524F523A206164647265737320616C7265616479207573696E6700000000 PUSH1 0x0 DUP3 ADD MSTORE POP JUMP JUMPDEST PUSH32 0x416464726573732067656E657261746564000000000000000000000000000000 PUSH1 0x0 DUP3 ADD MSTORE POP JUMP JUMPDEST PUSH32 0x4552524F523A206F6E6C79207465616368657200000000000000000000000000 PUSH1 0x0 DUP3 ADD MSTORE POP JUMP JUMPDEST PUSH32 0x4552524F523A2077726F6E67206E756D626572207461736B0000000000000000 PUSH1 0x0 DUP3 ADD MSTORE POP JUMP JUMPDEST PUSH32 0x4552524F523A206E6F7420696E707574206C61626F7261746F72696573000000 PUSH1 0x0 DUP3 ADD MSTORE POP JUMP JUMPDEST PUSH32 0x5375636365737366756C6C7920616464207374726F6E67207369646500000000 PUSH1 0x0 DUP3 ADD MSTORE POP JUMP JUMPDEST PUSH32 0x4552524F523A206F6E6C7920686561642061646D696E00000000000000000000 PUSH1 0x0 DUP3 ADD MSTORE POP JUMP JUMPDEST PUSH32 0x4552524F523A206861766520746F6F206D756368207374726F6E672073696465 PUSH1 0x0 DUP3 ADD MSTORE PUSH32 0x7300000000000000000000000000000000000000000000000000000000000000 PUSH1 0x20 DUP3 ADD MSTORE POP JUMP JUMPDEST PUSH32 0x4552524F523A2077726F6E672061646472657373000000000000000000000000 PUSH1 0x0 DUP3 ADD MSTORE POP JUMP JUMPDEST PUSH32 0x4552524F523A2077726F6E67206E756D626572206C61626F7261746F72790000 PUSH1 0x0 DUP3 ADD MSTORE POP JUMP JUMPDEST PUSH32 0x4552524F523A206E6F7420696E707574207363686F6F6C207375626A65637473 PUSH1 0x0 DUP3 ADD MSTORE POP JUMP JUMPDEST PUSH32 0x4368616E6765207461736B000000000000000000000000000000000000000000 PUSH1 0x0 DUP3 ADD MSTORE POP JUMP JUMPDEST PUSH32 0x4552524F523A2077726F6E6720636C617373206C657474657200000000000000 PUSH1 0x0 DUP3 ADD MSTORE POP JUMP JUMPDEST PUSH32 0x4552524F523A20696E707574206E6F74206578697374207363686F6F6C207375 PUSH1 0x0 DUP3 ADD MSTORE PUSH32 0x626A656374730000000000000000000000000000000000000000000000000000 PUSH1 0x20 DUP3 ADD MSTORE POP JUMP JUMPDEST PUSH32 0x5375636365737366756C6C79206368616E676520726F6C650000000000000000 PUSH1 0x0 DUP3 ADD MSTORE POP JUMP JUMPDEST PUSH32 0x4552524F523A20656D7074792070617373776F72640000000000000000000000 PUSH1 0x0 DUP3 ADD MSTORE POP JUMP JUMPDEST PUSH32 0x4552524F523A2073686F7274206E616D652070726F6A65637400000000000000 PUSH1 0x0 DUP3 ADD MSTORE POP JUMP JUMPDEST PUSH32 0x4552524F523A206E6F74206578697374206C61626F7261746F72696573000000 PUSH1 0x0 DUP3 ADD MSTORE POP JUMP JUMPDEST PUSH32 0x4368616E6765207374726F6E6720736964650000000000000000000000000000 PUSH1 0x0 DUP3 ADD MSTORE POP JUMP JUMPDEST PUSH32 0x53747564656E74207375636365737366756C6C79207265676973746572656400 PUSH1 0x0 DUP3 ADD MSTORE POP JUMP JUMPDEST PUSH32 0x4368616E676520676F616C000000000000000000000000000000000000000000 PUSH1 0x0 DUP3 ADD MSTORE POP JUMP JUMPDEST PUSH32 0x55736572206E6F74206578697374000000000000000000000000000000000000 PUSH1 0x0 DUP3 ADD MSTORE POP JUMP JUMPDEST PUSH32 0x4552524F523A20796F7520616C72656164792068617665206163746976652070 PUSH1 0x0 DUP3 ADD MSTORE PUSH32 0x726F6A6563740000000000000000000000000000000000000000000000000000 PUSH1 0x20 DUP3 ADD MSTORE POP JUMP JUMPDEST PUSH32 0x4552524F523A2077726F6E672064617461000000000000000000000000000000 PUSH1 0x0 DUP3 ADD MSTORE POP JUMP JUMPDEST PUSH32 0x4552524F523A206F6E6C792073747564656E7400000000000000000000000000 PUSH1 0x0 DUP3 ADD MSTORE POP JUMP JUMPDEST PUSH32 0x5375636365737366756C6C7920626C6F636B6564000000000000000000000000 PUSH1 0x0 DUP3 ADD MSTORE POP JUMP JUMPDEST PUSH32 0x4552524F523A20656D61696C206F636375706965640000000000000000000000 PUSH1 0x0 DUP3 ADD MSTORE POP JUMP JUMPDEST PUSH32 0x4552524F523A2061646472657373206F63637570696564000000000000000000 PUSH1 0x0 DUP3 ADD MSTORE POP JUMP JUMPDEST PUSH32 0x4552524F523A2077726F6E6720636C6173730000000000000000000000000000 PUSH1 0x0 DUP3 ADD MSTORE POP JUMP JUMPDEST PUSH32 0x41646420696E2070726F6A656374000000000000000000000000000000000000 PUSH1 0x0 DUP3 ADD MSTORE POP JUMP JUMPDEST PUSH32 0x4552524F523A206C6F67696E206F636375706965640000000000000000000000 PUSH1 0x0 DUP3 ADD MSTORE POP JUMP JUMPDEST PUSH32 0x4552524F523A20746869732061646472657373206E6F742062656C6F6E672073 PUSH1 0x0 DUP3 ADD MSTORE PUSH32 0x747564656E740000000000000000000000000000000000000000000000000000 PUSH1 0x20 DUP3 ADD MSTORE POP JUMP JUMPDEST PUSH32 0x4552524F523A206C6F6E67207465787400000000000000000000000000000000 PUSH1 0x0 DUP3 ADD MSTORE POP JUMP JUMPDEST PUSH32 0x4552524F523A2077726F6E67206E756D6265722070726F6A6563740000000000 PUSH1 0x0 DUP3 ADD MSTORE POP JUMP JUMPDEST PUSH32 0x54656163686572207375636365737366756C6C79207265676973746572656400 PUSH1 0x0 DUP3 ADD MSTORE POP JUMP JUMPDEST PUSH32 0x41646D696E207375636365737366756C6C792072656769737465726564000000 PUSH1 0x0 DUP3 ADD MSTORE POP JUMP JUMPDEST PUSH32 0x4552524F523A206E6F742068617665206163746976652070726F6A6563740000 PUSH1 0x0 DUP3 ADD MSTORE POP JUMP JUMPDEST PUSH32 0x4552524F523A2073686F72742074657874000000000000000000000000000000 PUSH1 0x0 DUP3 ADD MSTORE POP JUMP JUMPDEST PUSH32 0x4552524F523A20746F6F206C6F6E67206E616D652070726F6A65637400000000 PUSH1 0x0 DUP3 ADD MSTORE POP JUMP JUMPDEST PUSH32 0x4552524F523A20796F75206E6F74207265676973746572656400000000000000 PUSH1 0x0 DUP3 ADD MSTORE POP JUMP JUMPDEST PUSH32 0x4552524F523A2074656163686572206E6F742065786973740000000000000000 PUSH1 0x0 DUP3 ADD MSTORE POP JUMP JUMPDEST PUSH32 0x416464207461736B000000000000000000000000000000000000000000000000 PUSH1 0x0 DUP3 ADD MSTORE POP JUMP JUMPDEST PUSH32 0x4552524F523A206F6E6C792061646D696E000000000000000000000000000000 PUSH1 0x0 DUP3 ADD MSTORE POP JUMP JUMPDEST PUSH32 0x4552524F523A20796F75206E6F74206861766520746869732070726F6A656374 PUSH1 0x0 DUP3 ADD MSTORE POP JUMP JUMPDEST PUSH32 0x4552524F523A2077726F6E67206E756D626572207374726F6E67207369646500 PUSH1 0x0 DUP3 ADD MSTORE POP JUMP JUMPDEST PUSH32 0x4552524F523A20746F6F206D756368207461736B730000000000000000000000 PUSH1 0x0 DUP3 ADD MSTORE POP JUMP JUMPDEST PUSH32 0x50726F6A656374207375636365737366756C6C79206372656174656400000000 PUSH1 0x0 DUP3 ADD MSTORE POP JUMP JUMPDEST PUSH1 0x8 DUP2 LT PUSH2 0xADDE JUMPI PUSH2 0xADDD PUSH2 0xA4C8 JUMP JUMPDEST JUMPDEST POP JUMP JUMPDEST PUSH1 0x4 DUP2 LT PUSH2 0xADF2 JUMPI PUSH2 0xADF1 PUSH2 0xA4C8 JUMP JUMPDEST JUMPDEST POP JUMP JUMPDEST PUSH2 0xADFE DUP2 PUSH2 0xA2EE JUMP JUMPDEST DUP2 EQ PUSH2 0xAE09 JUMPI PUSH1 0x0 DUP1 REVERT JUMPDEST POP JUMP JUMPDEST PUSH2 0xAE15 DUP2 PUSH2 0xA330 JUMP JUMPDEST DUP2 EQ PUSH2 0xAE20 JUMPI PUSH1 0x0 DUP1 REVERT JUMPDEST POP JUMP JUMPDEST PUSH2 0xAE2C DUP2 PUSH2 0xA35E JUMP JUMPDEST DUP2 EQ PUSH2 0xAE37 JUMPI PUSH1 0x0 DUP1 REVERT JUMPDEST POP JUMP JUMPDEST PUSH2 0xAE43 DUP2 PUSH2 0xA368 JUMP JUMPDEST DUP2 EQ PUSH2 0xAE4E JUMPI PUSH1 0x0 DUP1 REVERT JUMPDEST POP JUMP INVALID LOG2 PUSH5 0x6970667358 0x22 SLT KECCAK256 0xAE PUSH5 0xB77FE6D7DC 0xD6 0xFB 0xB8 KECCAK256 0xD1 0x49 RETURNDATASIZE 0x5D DUP13 0xB1 SAR DIV 0xC0 SWAP16 0xBB PUSH30 0x2081E7D9605BD651BF64736F6C634300080700334D617468656D61746963 PUSH2 0x6C20 PUSH14 0x6F64656C696E6720616E6420616E PUSH2 0x6C79 PUSH20 0x6973546865726D616C207068656E6F6D656E6120 PUSH2 0x6E64 KECCAK256 PUSH14 0x6F6C6563756C6172207374727563 PUSH21 0x757265734D6963726F656C656374726F6E69637320 PUSH2 0x6E64 KECCAK256 PUSH4 0x69726375 PUSH10 0x7420656E67696E656572 PUSH10 0x6E670000000000000000 "
		},
		"gasEstimates": {
			"creation": {
				"codeDepositCost": "8935800",
				"executionCost": "infinite",
				"totalCost": "infinite"
			},
			"external": {
				"addStrongSide(string,string,string)": "infinite",
				"addStudentInProject(string,string,uint256,string)": "infinite",
				"addTaskInProject(string,string,string)": "infinite",
				"auth(string,string)": "infinite",
				"blockUser(string,string,string)": "infinite",
				"changeGoalProject(string,string,string)": "infinite",
				"changeRole(string,string,string)": "infinite",
				"changeStrongSide(string,string,uint256,string)": "infinite",
				"changeTaskInProject(string,string,uint8,string)": "infinite",
				"checkAddress()": "2703",
				"checkAdmin(address)": "infinite",
				"checkDepartments()": "infinite",
				"checkLaboratories()": "infinite",
				"checkNumbersProject(address)": "infinite",
				"checkProject(string,string,uint256)": "infinite",
				"checkSchoolSubjects()": "infinite",
				"checkStudent(address)": "infinite",
				"checkTeacher(address)": "infinite",
				"createProjectForStudent(string,string,string,string,uint16)": "infinite",
				"createProjectForTeacher(string,string,string,uint16)": "infinite",
				"departments(uint256)": "infinite",
				"generateAddressForStudent(string,string,address)": "infinite",
				"laboratories(uint256)": "infinite",
				"registrationForAdmin(string,string,string)": "infinite",
				"registrationForStudent(string,string,string,uint8,string,string)": "infinite",
				"registrationForTeacher(string,string,string,uint16[],uint16[],string)": "infinite",
				"schoolSubjects(uint256)": "infinite"
			},
			"internal": {
				"_checksForProject(string memory,uint16)": "infinite",
				"_checksForRegistration(string memory,string memory)": "infinite",
				"_createProject(string memory,uint16,address)": "infinite",
				"_findActiveProject(address)": "infinite",
				"_findProjects(address)": "infinite"
			}
		},
		"methodIdentifiers": {
			"addStrongSide(string,string,string)": "f7e4d10f",
			"addStudentInProject(string,string,uint256,string)": "5d788f26",
			"addTaskInProject(string,string,string)": "776eb2ed",
			"auth(string,string)": "48eed213",
			"blockUser(string,string,string)": "7d8981f6",
			"changeGoalProject(string,string,string)": "6630503b",
			"changeRole(string,string,string)": "4a451e7c",
			"changeStrongSide(string,string,uint256,string)": "7258319c",
			"changeTaskInProject(string,string,uint8,string)": "e9d77f4a",
			"checkAddress()": "1256fa53",
			"checkAdmin(address)": "9026dee8",
			"checkDepartments()": "9a79c8ed",
			"checkLaboratories()": "9516f6d0",
			"checkNumbersProject(address)": "3964e561",
			"checkProject(string,string,uint256)": "50879f61",
			"checkSchoolSubjects()": "74f0be9f",
			"checkStudent(address)": "f481345a",
			"checkTeacher(address)": "df514f67",
			"createProjectForStudent(string,string,string,string,uint16)": "08926658",
			"createProjectForTeacher(string,string,string,uint16)": "60d3e335",
			"departments(uint256)": "eaeb60e3",
			"generateAddressForStudent(string,string,address)": "fa308c93",
			"laboratories(uint256)": "9cad5d4c",
			"registrationForAdmin(string,string,string)": "aa27d9aa",
			"registrationForStudent(string,string,string,uint8,string,string)": "cecdda4b",
			"registrationForTeacher(string,string,string,uint16[],uint16[],string)": "cc921570",
			"schoolSubjects(uint256)": "86c65d28"
		}
	},
	"abi": [
		{
			"inputs": [],
			"stateMutability": "nonpayable",
			"type": "constructor"
		},
		{
			"anonymous": false,
			"inputs": [
				{
					"indexed": false,
					"internalType": "address",
					"name": "hero",
					"type": "address"
				},
				{
					"indexed": false,
					"internalType": "address",
					"name": "target",
					"type": "address"
				},
				{
					"indexed": false,
					"internalType": "uint256",
					"name": "numProject",
					"type": "uint256"
				},
				{
					"indexed": false,
					"internalType": "string",
					"name": "text",
					"type": "string"
				}
			],
			"name": "Action",
			"type": "event"
		},
		{
			"inputs": [
				{
					"internalType": "string",
					"name": "_login",
					"type": "string"
				},
				{
					"internalType": "string",
					"name": "_pass",
					"type": "string"
				},
				{
					"internalType": "string",
					"name": "_strongSide",
					"type": "string"
				}
			],
			"name": "addStrongSide",
			"outputs": [],
			"stateMutability": "nonpayable",
			"type": "function"
		},
		{
			"inputs": [
				{
					"internalType": "string",
					"name": "_login",
					"type": "string"
				},
				{
					"internalType": "string",
					"name": "_pass",
					"type": "string"
				},
				{
					"internalType": "uint256",
					"name": "_numProject",
					"type": "uint256"
				},
				{
					"internalType": "string",
					"name": "_loginStudent",
					"type": "string"
				}
			],
			"name": "addStudentInProject",
			"outputs": [],
			"stateMutability": "nonpayable",
			"type": "function"
		},
		{
			"inputs": [
				{
					"internalType": "string",
					"name": "_login",
					"type": "string"
				},
				{
					"internalType": "string",
					"name": "_pass",
					"type": "string"
				},
				{
					"internalType": "string",
					"name": "_task",
					"type": "string"
				}
			],
			"name": "addTaskInProject",
			"outputs": [],
			"stateMutability": "nonpayable",
			"type": "function"
		},
		{
			"inputs": [
				{
					"internalType": "string",
					"name": "_login",
					"type": "string"
				},
				{
					"internalType": "string",
					"name": "_pass",
					"type": "string"
				}
			],
			"name": "auth",
			"outputs": [],
			"stateMutability": "nonpayable",
			"type": "function"
		},
		{
			"inputs": [
				{
					"internalType": "string",
					"name": "_loginAdmin",
					"type": "string"
				},
				{
					"internalType": "string",
					"name": "_passAdmin",
					"type": "string"
				},
				{
					"internalType": "string",
					"name": "_loginUser",
					"type": "string"
				}
			],
			"name": "blockUser",
			"outputs": [],
			"stateMutability": "nonpayable",
			"type": "function"
		},
		{
			"inputs": [
				{
					"internalType": "string",
					"name": "_login",
					"type": "string"
				},
				{
					"internalType": "string",
					"name": "_pass",
					"type": "string"
				},
				{
					"internalType": "string",
					"name": "_goal",
					"type": "string"
				}
			],
			"name": "changeGoalProject",
			"outputs": [],
			"stateMutability": "nonpayable",
			"type": "function"
		},
		{
			"inputs": [
				{
					"internalType": "string",
					"name": "_login",
					"type": "string"
				},
				{
					"internalType": "string",
					"name": "_pass",
					"type": "string"
				},
				{
					"internalType": "string",
					"name": "_roleInProject",
					"type": "string"
				}
			],
			"name": "changeRole",
			"outputs": [],
			"stateMutability": "nonpayable",
			"type": "function"
		},
		{
			"inputs": [
				{
					"internalType": "string",
					"name": "_login",
					"type": "string"
				},
				{
					"internalType": "string",
					"name": "_pass",
					"type": "string"
				},
				{
					"internalType": "uint256",
					"name": "_numStrongSide",
					"type": "uint256"
				},
				{
					"internalType": "string",
					"name": "_newStrongSide",
					"type": "string"
				}
			],
			"name": "changeStrongSide",
			"outputs": [],
			"stateMutability": "nonpayable",
			"type": "function"
		},
		{
			"inputs": [
				{
					"internalType": "string",
					"name": "_login",
					"type": "string"
				},
				{
					"internalType": "string",
					"name": "_pass",
					"type": "string"
				},
				{
					"internalType": "uint8",
					"name": "_numTask",
					"type": "uint8"
				},
				{
					"internalType": "string",
					"name": "_newTask",
					"type": "string"
				}
			],
			"name": "changeTaskInProject",
			"outputs": [],
			"stateMutability": "nonpayable",
			"type": "function"
		},
		{
			"inputs": [],
			"name": "checkAddress",
			"outputs": [
				{
					"internalType": "enum GlobalStorage.StatusAddress",
					"name": "",
					"type": "uint8"
				}
			],
			"stateMutability": "view",
			"type": "function"
		},
		{
			"inputs": [
				{
					"internalType": "address",
					"name": "_admin",
					"type": "address"
				}
			],
			"name": "checkAdmin",
			"outputs": [
				{
					"internalType": "string",
					"name": "FIO",
					"type": "string"
				}
			],
			"stateMutability": "view",
			"type": "function"
		},
		{
			"inputs": [],
			"name": "checkDepartments",
			"outputs": [
				{
					"internalType": "string[]",
					"name": "",
					"type": "string[]"
				}
			],
			"stateMutability": "view",
			"type": "function"
		},
		{
			"inputs": [],
			"name": "checkLaboratories",
			"outputs": [
				{
					"internalType": "string[]",
					"name": "",
					"type": "string[]"
				}
			],
			"stateMutability": "view",
			"type": "function"
		},
		{
			"inputs": [
				{
					"internalType": "address",
					"name": "_user",
					"type": "address"
				}
			],
			"name": "checkNumbersProject",
			"outputs": [
				{
					"internalType": "uint256[]",
					"name": "numProjects",
					"type": "uint256[]"
				}
			],
			"stateMutability": "view",
			"type": "function"
		},
		{
			"inputs": [
				{
					"internalType": "string",
					"name": "_login",
					"type": "string"
				},
				{
					"internalType": "string",
					"name": "_pass",
					"type": "string"
				},
				{
					"internalType": "uint256",
					"name": "_numProject",
					"type": "uint256"
				}
			],
			"name": "checkProject",
			"outputs": [
				{
					"internalType": "enum GlobalStorage.StatusProject",
					"name": "statusProject",
					"type": "uint8"
				},
				{
					"internalType": "string",
					"name": "name",
					"type": "string"
				},
				{
					"internalType": "string",
					"name": "goal",
					"type": "string"
				},
				{
					"internalType": "string[]",
					"name": "tasks",
					"type": "string[]"
				},
				{
					"internalType": "string",
					"name": "role",
					"type": "string"
				},
				{
					"internalType": "address[]",
					"name": "members",
					"type": "address[]"
				},
				{
					"internalType": "address",
					"name": "teacher",
					"type": "address"
				},
				{
					"internalType": "uint16",
					"name": "numLaboratory",
					"type": "uint16"
				},
				{
					"internalType": "uint16[]",
					"name": "subjects",
					"type": "uint16[]"
				}
			],
			"stateMutability": "nonpayable",
			"type": "function"
		},
		{
			"inputs": [],
			"name": "checkSchoolSubjects",
			"outputs": [
				{
					"internalType": "string[]",
					"name": "",
					"type": "string[]"
				}
			],
			"stateMutability": "view",
			"type": "function"
		},
		{
			"inputs": [
				{
					"internalType": "address",
					"name": "_student",
					"type": "address"
				}
			],
			"name": "checkStudent",
			"outputs": [
				{
					"components": [
						{
							"internalType": "string",
							"name": "login",
							"type": "string"
						},
						{
							"internalType": "string",
							"name": "FIO",
							"type": "string"
						},
						{
							"internalType": "string",
							"name": "classLetter",
							"type": "string"
						},
						{
							"internalType": "string",
							"name": "email",
							"type": "string"
						},
						{
							"internalType": "string[]",
							"name": "strongSides",
							"type": "string[]"
						},
						{
							"internalType": "uint8",
							"name": "class",
							"type": "uint8"
						},
						{
							"internalType": "bytes32",
							"name": "pass",
							"type": "bytes32"
						}
					],
					"internalType": "struct GlobalStorage.Student",
					"name": "",
					"type": "tuple"
				},
				{
					"internalType": "string",
					"name": "nameActiveProject",
					"type": "string"
				},
				{
					"internalType": "string",
					"name": "goal",
					"type": "string"
				},
				{
					"internalType": "string",
					"name": "role",
					"type": "string"
				},
				{
					"internalType": "string",
					"name": "laboratory",
					"type": "string"
				},
				{
					"internalType": "string[]",
					"name": "tasks",
					"type": "string[]"
				},
				{
					"internalType": "string[]",
					"name": "namesOtherProject",
					"type": "string[]"
				},
				{
					"internalType": "address",
					"name": "teacher",
					"type": "address"
				}
			],
			"stateMutability": "view",
			"type": "function"
		},
		{
			"inputs": [
				{
					"internalType": "address",
					"name": "_teacher",
					"type": "address"
				}
			],
			"name": "checkTeacher",
			"outputs": [
				{
					"internalType": "string",
					"name": "login",
					"type": "string"
				},
				{
					"internalType": "string",
					"name": "FIO",
					"type": "string"
				},
				{
					"internalType": "string[]",
					"name": "nameLaboratories",
					"type": "string[]"
				},
				{
					"internalType": "string[]",
					"name": "knowSubjects",
					"type": "string[]"
				},
				{
					"internalType": "string[]",
					"name": "namesActiveProjects",
					"type": "string[]"
				}
			],
			"stateMutability": "view",
			"type": "function"
		},
		{
			"inputs": [
				{
					"internalType": "string",
					"name": "_login",
					"type": "string"
				},
				{
					"internalType": "string",
					"name": "_pass",
					"type": "string"
				},
				{
					"internalType": "string",
					"name": "_nameProject",
					"type": "string"
				},
				{
					"internalType": "string",
					"name": "_loginMentor",
					"type": "string"
				},
				{
					"internalType": "uint16",
					"name": "_numLaboratory",
					"type": "uint16"
				}
			],
			"name": "createProjectForStudent",
			"outputs": [],
			"stateMutability": "nonpayable",
			"type": "function"
		},
		{
			"inputs": [
				{
					"internalType": "string",
					"name": "_login",
					"type": "string"
				},
				{
					"internalType": "string",
					"name": "_pass",
					"type": "string"
				},
				{
					"internalType": "string",
					"name": "_nameProject",
					"type": "string"
				},
				{
					"internalType": "uint16",
					"name": "_numLaboratory",
					"type": "uint16"
				}
			],
			"name": "createProjectForTeacher",
			"outputs": [],
			"stateMutability": "nonpayable",
			"type": "function"
		},
		{
			"inputs": [
				{
					"internalType": "uint256",
					"name": "",
					"type": "uint256"
				}
			],
			"name": "departments",
			"outputs": [
				{
					"internalType": "string",
					"name": "",
					"type": "string"
				}
			],
			"stateMutability": "view",
			"type": "function"
		},
		{
			"inputs": [
				{
					"internalType": "string",
					"name": "_login",
					"type": "string"
				},
				{
					"internalType": "string",
					"name": "_pass",
					"type": "string"
				},
				{
					"internalType": "address",
					"name": "_newStudent",
					"type": "address"
				}
			],
			"name": "generateAddressForStudent",
			"outputs": [],
			"stateMutability": "nonpayable",
			"type": "function"
		},
		{
			"inputs": [
				{
					"internalType": "uint256",
					"name": "",
					"type": "uint256"
				}
			],
			"name": "laboratories",
			"outputs": [
				{
					"internalType": "string",
					"name": "",
					"type": "string"
				}
			],
			"stateMutability": "view",
			"type": "function"
		},
		{
			"inputs": [
				{
					"internalType": "string",
					"name": "_login",
					"type": "string"
				},
				{
					"internalType": "string",
					"name": "_pass",
					"type": "string"
				},
				{
					"internalType": "string",
					"name": "_FIO",
					"type": "string"
				}
			],
			"name": "registrationForAdmin",
			"outputs": [],
			"stateMutability": "nonpayable",
			"type": "function"
		},
		{
			"inputs": [
				{
					"internalType": "string",
					"name": "_login",
					"type": "string"
				},
				{
					"internalType": "string",
					"name": "_pass",
					"type": "string"
				},
				{
					"internalType": "string",
					"name": "_FIO",
					"type": "string"
				},
				{
					"internalType": "uint8",
					"name": "_class",
					"type": "uint8"
				},
				{
					"internalType": "string",
					"name": "_classLetter",
					"type": "string"
				},
				{
					"internalType": "string",
					"name": "_email",
					"type": "string"
				}
			],
			"name": "registrationForStudent",
			"outputs": [],
			"stateMutability": "nonpayable",
			"type": "function"
		},
		{
			"inputs": [
				{
					"internalType": "string",
					"name": "_login",
					"type": "string"
				},
				{
					"internalType": "string",
					"name": "_pass",
					"type": "string"
				},
				{
					"internalType": "string",
					"name": "_FIO",
					"type": "string"
				},
				{
					"internalType": "uint16[]",
					"name": "_leadsSchoolSubjects",
					"type": "uint16[]"
				},
				{
					"internalType": "uint16[]",
					"name": "_laboratories",
					"type": "uint16[]"
				},
				{
					"internalType": "string",
					"name": "_email",
					"type": "string"
				}
			],
			"name": "registrationForTeacher",
			"outputs": [],
			"stateMutability": "nonpayable",
			"type": "function"
		},
		{
			"inputs": [
				{
					"internalType": "uint256",
					"name": "",
					"type": "uint256"
				}
			],
			"name": "schoolSubjects",
			"outputs": [
				{
					"internalType": "string",
					"name": "",
					"type": "string"
				}
			],
			"stateMutability": "view",
			"type": "function"
		}
	]
}