{
	"testing.sol": {
		"Test": {
			"abi": [
				{
					"inputs": [
						{
							"internalType": "string",
							"name": "_newStr",
							"type": "string"
						}
					],
					"name": "changeStr",
					"outputs": [],
					"stateMutability": "nonpayable",
					"type": "function"
				},
				{
					"inputs": [],
					"name": "str",
					"outputs": [
						{
							"internalType": "string",
							"name": "",
							"type": "string"
						}
					],
					"stateMutability": "view",
					"type": "function"
				}
			],
			"devdoc": {
				"kind": "dev",
				"methods": {},
				"version": 1
			},
			"evm": {
				"assembly": "    /* \"testing.sol\":57:183  string public str = \"\\xD0\\x9C\\xD0\\xB0\\xD0\\xBA\\xD0\\xB5\\xD1\\x82\\xD0\\xB8\\xD1\\x80\\xD0\\xBE\\xD0\\xB2\\xD0\\xB0\\xD0\\xBD\\xD0\\xB8\\xD0\\xB5\" */\n  0xc0\n    /* \"testing.sol\":36:276  contract Test {\r... */\n  0x40\n    /* \"testing.sol\":57:183  string public str = \"\\xD0\\x9C\\xD0\\xB0\\xD0\\xBA\\xD0\\xB5\\xD1\\x82\\xD0\\xB8\\xD1\\x80\\xD0\\xBE\\xD0\\xB2\\xD0\\xB0\\xD0\\xBD\\xD0\\xB8\\xD0\\xB5\" */\n  mstore\n  0x1a\n    /* \"testing.sol\":36:276  contract Test {\r... */\n  0x80\n    /* \"testing.sol\":57:183  string public str = \"\\xD0\\x9C\\xD0\\xB0\\xD0\\xBA\\xD0\\xB5\\xD1\\x82\\xD0\\xB8\\xD1\\x80\\xD0\\xBE\\xD0\\xB2\\xD0\\xB0\\xD0\\xBD\\xD0\\xB8\\xD0\\xB5\" */\n  dup2\n  swap1\n  mstore\n  0xd09cd0b0d0bad0b5d182d0b8d180d0bed0b2d0b0d0bdd0b8d0b5000000000000\n  0xa0\n  swap1\n  dup2\n  mstore\n  tag_1\n  swap2\n  0x00\n  swap2\n  swap1\n  tag_2\n  jump\t// in\ntag_1:\n  pop\n    /* \"testing.sol\":36:276  contract Test {\r... */\n  callvalue\n  dup1\n  iszero\n  tag_3\n  jumpi\n  0x00\n  dup1\n  revert\ntag_3:\n  pop\n  jump(tag_16)\ntag_2:\n  dup3\n  dup1\n  sload\n  tag_5\n  swap1\n  tag_6\n  jump\t// in\ntag_5:\n  swap1\n  0x00\n  mstore\n  keccak256(0x00, 0x20)\n  swap1\n  0x1f\n  add\n  0x20\n  swap1\n  div\n  dup2\n  add\n  swap3\n  dup3\n  tag_8\n  jumpi\n  0x00\n  dup6\n  sstore\n  jump(tag_11)\ntag_8:\n  dup3\n  0x1f\n  lt\n  tag_9\n  jumpi\n  dup1\n  mload\n  not(0xff)\n  and\n  dup4\n  dup1\n  add\n  or\n  dup6\n  sstore\n  jump(tag_11)\ntag_9:\n  dup3\n  dup1\n  add\n  0x01\n  add\n  dup6\n  sstore\n  dup3\n  iszero\n  tag_11\n  jumpi\n  swap2\n  dup3\n  add\ntag_10:\n  dup3\n  dup2\n  gt\n  iszero\n  tag_11\n  jumpi\n  dup3\n  mload\n  dup3\n  sstore\n  swap2\n  0x20\n  add\n  swap2\n  swap1\n  0x01\n  add\n  swap1\n  jump(tag_10)\ntag_11:\n  pop\n  tag_12\n  swap3\n  swap2\n  pop\n  tag_13\n  jump\t// in\ntag_12:\n  pop\n  swap1\n  jump\t// out\ntag_13:\ntag_14:\n  dup1\n  dup3\n  gt\n  iszero\n  tag_12\n  jumpi\n  0x00\n  dup2\n  sstore\n  0x01\n  add\n  jump(tag_14)\n    /* \"#utility.yul\":14:451   */\ntag_6:\n    /* \"#utility.yul\":99:100   */\n  0x02\n    /* \"#utility.yul\":89:101   */\n  dup2\n  div\n    /* \"#utility.yul\":146:147   */\n  0x01\n    /* \"#utility.yul\":136:148   */\n  dup3\n  and\n  dup1\n    /* \"#utility.yul\":157:218   */\n  tag_18\n  jumpi\n    /* \"#utility.yul\":211:215   */\n  0x7f\n    /* \"#utility.yul\":203:209   */\n  dup3\n    /* \"#utility.yul\":199:216   */\n  and\n    /* \"#utility.yul\":189:216   */\n  swap2\n  pop\n    /* \"#utility.yul\":157:218   */\ntag_18:\n    /* \"#utility.yul\":264:266   */\n  0x20\n    /* \"#utility.yul\":256:262   */\n  dup3\n    /* \"#utility.yul\":253:267   */\n  lt\n    /* \"#utility.yul\":233:251   */\n  dup2\n    /* \"#utility.yul\":230:268   */\n  eq\n    /* \"#utility.yul\":227:445   */\n  iszero\n  tag_19\n  jumpi\n    /* \"#utility.yul\":301:378   */\n  0x4e487b7100000000000000000000000000000000000000000000000000000000\n    /* \"#utility.yul\":298:299   */\n  0x00\n    /* \"#utility.yul\":291:379   */\n  mstore\n    /* \"#utility.yul\":402:406   */\n  0x22\n    /* \"#utility.yul\":399:400   */\n  0x04\n    /* \"#utility.yul\":392:407   */\n  mstore\n    /* \"#utility.yul\":430:434   */\n  0x24\n    /* \"#utility.yul\":427:428   */\n  0x00\n    /* \"#utility.yul\":420:435   */\n  revert\n    /* \"#utility.yul\":227:445   */\ntag_19:\n  pop\n    /* \"#utility.yul\":14:451   */\n  swap2\n  swap1\n  pop\n  jump\t// out\ntag_16:\n    /* \"testing.sol\":36:276  contract Test {\r... */\n  dataSize(sub_0)\n  dup1\n  dataOffset(sub_0)\n  0x00\n  codecopy\n  0x00\n  return\nstop\n\nsub_0: assembly {\n        /* \"testing.sol\":36:276  contract Test {\r... */\n      mstore(0x40, 0x80)\n      callvalue\n      dup1\n      iszero\n      tag_1\n      jumpi\n      0x00\n      dup1\n      revert\n    tag_1:\n      pop\n      jumpi(tag_2, lt(calldatasize, 0x04))\n      div(calldataload(0x00), 0x0100000000000000000000000000000000000000000000000000000000)\n      0xc15bae84\n      dup2\n      eq\n      tag_3\n      jumpi\n      dup1\n      0xcef95c49\n      eq\n      tag_4\n      jumpi\n    tag_2:\n      0x00\n      dup1\n      revert\n        /* \"testing.sol\":57:183  string public str = \"\\xD0\\x9C\\xD0\\xB0\\xD0\\xBA\\xD0\\xB5\\xD1\\x82\\xD0\\xB8\\xD1\\x80\\xD0\\xBE\\xD0\\xB2\\xD0\\xB0\\xD0\\xBD\\xD0\\xB8\\xD0\\xB5\" */\n    tag_3:\n      tag_5\n      tag_6\n      jump\t// in\n    tag_5:\n      mload(0x40)\n      tag_7\n      swap2\n      swap1\n      tag_8\n      jump\t// in\n    tag_7:\n      mload(0x40)\n      dup1\n      swap2\n      sub\n      swap1\n      return\n        /* \"testing.sol\":192:273  function changeStr(string memory _newStr) public {\r... */\n    tag_4:\n      tag_9\n      tag_10\n      calldatasize\n      0x04\n      tag_11\n      jump\t// in\n    tag_10:\n      tag_12\n      jump\t// in\n    tag_9:\n      stop\n        /* \"testing.sol\":57:183  string public str = \"\\xD0\\x9C\\xD0\\xB0\\xD0\\xBA\\xD0\\xB5\\xD1\\x82\\xD0\\xB8\\xD1\\x80\\xD0\\xBE\\xD0\\xB2\\xD0\\xB0\\xD0\\xBD\\xD0\\xB8\\xD0\\xB5\" */\n    tag_6:\n      0x00\n      dup1\n      sload\n      tag_13\n      swap1\n      tag_14\n      jump\t// in\n    tag_13:\n      dup1\n      0x1f\n      add\n      0x20\n      dup1\n      swap2\n      div\n      mul\n      0x20\n      add\n      mload(0x40)\n      swap1\n      dup2\n      add\n      0x40\n      mstore\n      dup1\n      swap3\n      swap2\n      swap1\n      dup2\n      dup2\n      mstore\n      0x20\n      add\n      dup3\n      dup1\n      sload\n      tag_15\n      swap1\n      tag_14\n      jump\t// in\n    tag_15:\n      dup1\n      iszero\n      tag_16\n      jumpi\n      dup1\n      0x1f\n      lt\n      tag_17\n      jumpi\n      0x0100\n      dup1\n      dup4\n      sload\n      div\n      mul\n      dup4\n      mstore\n      swap2\n      0x20\n      add\n      swap2\n      jump(tag_16)\n    tag_17:\n      dup3\n      add\n      swap2\n      swap1\n      0x00\n      mstore\n      keccak256(0x00, 0x20)\n      swap1\n    tag_18:\n      dup2\n      sload\n      dup2\n      mstore\n      swap1\n      0x01\n      add\n      swap1\n      0x20\n      add\n      dup1\n      dup4\n      gt\n      tag_18\n      jumpi\n      dup3\n      swap1\n      sub\n      0x1f\n      and\n      dup3\n      add\n      swap2\n    tag_16:\n      pop\n      pop\n      pop\n      pop\n      pop\n      dup2\n      jump\t// out\n        /* \"testing.sol\":192:273  function changeStr(string memory _newStr) public {\r... */\n    tag_12:\n        /* \"testing.sol\":252:265  str = _newStr */\n      dup1\n      mload\n      tag_20\n      swap1\n        /* \"testing.sol\":252:255  str */\n      0x00\n      swap1\n        /* \"testing.sol\":252:265  str = _newStr */\n      0x20\n      dup5\n      add\n      swap1\n      tag_21\n      jump\t// in\n    tag_20:\n      pop\n        /* \"testing.sol\":192:273  function changeStr(string memory _newStr) public {\r... */\n      pop\n      jump\t// out\n    tag_21:\n      dup3\n      dup1\n      sload\n      tag_22\n      swap1\n      tag_14\n      jump\t// in\n    tag_22:\n      swap1\n      0x00\n      mstore\n      keccak256(0x00, 0x20)\n      swap1\n      0x1f\n      add\n      0x20\n      swap1\n      div\n      dup2\n      add\n      swap3\n      dup3\n      tag_24\n      jumpi\n      0x00\n      dup6\n      sstore\n      jump(tag_27)\n    tag_24:\n      dup3\n      0x1f\n      lt\n      tag_25\n      jumpi\n      dup1\n      mload\n      not(0xff)\n      and\n      dup4\n      dup1\n      add\n      or\n      dup6\n      sstore\n      jump(tag_27)\n    tag_25:\n      dup3\n      dup1\n      add\n      0x01\n      add\n      dup6\n      sstore\n      dup3\n      iszero\n      tag_27\n      jumpi\n      swap2\n      dup3\n      add\n    tag_26:\n      dup3\n      dup2\n      gt\n      iszero\n      tag_27\n      jumpi\n      dup3\n      mload\n      dup3\n      sstore\n      swap2\n      0x20\n      add\n      swap2\n      swap1\n      0x01\n      add\n      swap1\n      jump(tag_26)\n    tag_27:\n      pop\n      tag_28\n      swap3\n      swap2\n      pop\n      tag_29\n      jump\t// in\n    tag_28:\n      pop\n      swap1\n      jump\t// out\n    tag_29:\n    tag_30:\n      dup1\n      dup3\n      gt\n      iszero\n      tag_28\n      jumpi\n      0x00\n      dup2\n      sstore\n      0x01\n      add\n      jump(tag_30)\n        /* \"#utility.yul\":14:936   */\n    tag_11:\n        /* \"#utility.yul\":83:89   */\n      0x00\n        /* \"#utility.yul\":136:138   */\n      0x20\n        /* \"#utility.yul\":124:133   */\n      dup3\n        /* \"#utility.yul\":115:122   */\n      dup5\n        /* \"#utility.yul\":111:134   */\n      sub\n        /* \"#utility.yul\":107:139   */\n      slt\n        /* \"#utility.yul\":104:156   */\n      iszero\n      tag_34\n      jumpi\n        /* \"#utility.yul\":152:153   */\n      0x00\n        /* \"#utility.yul\":149:150   */\n      dup1\n        /* \"#utility.yul\":142:154   */\n      revert\n        /* \"#utility.yul\":104:156   */\n    tag_34:\n        /* \"#utility.yul\":192:201   */\n      dup2\n        /* \"#utility.yul\":179:202   */\n      calldataload\n        /* \"#utility.yul\":221:239   */\n      0xffffffffffffffff\n        /* \"#utility.yul\":262:264   */\n      dup1\n        /* \"#utility.yul\":254:260   */\n      dup3\n        /* \"#utility.yul\":251:265   */\n      gt\n        /* \"#utility.yul\":248:282   */\n      iszero\n      tag_35\n      jumpi\n        /* \"#utility.yul\":278:279   */\n      0x00\n        /* \"#utility.yul\":275:276   */\n      dup1\n        /* \"#utility.yul\":268:280   */\n      revert\n        /* \"#utility.yul\":248:282   */\n    tag_35:\n        /* \"#utility.yul\":316:322   */\n      dup2\n        /* \"#utility.yul\":305:314   */\n      dup5\n        /* \"#utility.yul\":301:323   */\n      add\n        /* \"#utility.yul\":291:323   */\n      swap2\n      pop\n        /* \"#utility.yul\":361:368   */\n      dup5\n        /* \"#utility.yul\":354:358   */\n      0x1f\n        /* \"#utility.yul\":350:352   */\n      dup4\n        /* \"#utility.yul\":346:359   */\n      add\n        /* \"#utility.yul\":342:369   */\n      slt\n        /* \"#utility.yul\":332:387   */\n      tag_36\n      jumpi\n        /* \"#utility.yul\":383:384   */\n      0x00\n        /* \"#utility.yul\":380:381   */\n      dup1\n        /* \"#utility.yul\":373:385   */\n      revert\n        /* \"#utility.yul\":332:387   */\n    tag_36:\n        /* \"#utility.yul\":419:421   */\n      dup2\n        /* \"#utility.yul\":406:422   */\n      calldataload\n        /* \"#utility.yul\":441:443   */\n      dup2\n        /* \"#utility.yul\":437:439   */\n      dup2\n        /* \"#utility.yul\":434:444   */\n      gt\n        /* \"#utility.yul\":431:467   */\n      iszero\n      tag_38\n      jumpi\n        /* \"#utility.yul\":447:465   */\n      tag_38\n      tag_39\n      jump\t// in\n    tag_38:\n        /* \"#utility.yul\":522:524   */\n      0x40\n        /* \"#utility.yul\":516:525   */\n      mload\n        /* \"#utility.yul\":490:492   */\n      0x1f\n        /* \"#utility.yul\":576:589   */\n      dup3\n      add\n      not(0x1f)\n        /* \"#utility.yul\":572:594   */\n      swap1\n      dup2\n      and\n        /* \"#utility.yul\":596:598   */\n      0x3f\n        /* \"#utility.yul\":568:599   */\n      add\n        /* \"#utility.yul\":564:604   */\n      and\n        /* \"#utility.yul\":552:605   */\n      dup2\n      add\n      swap1\n        /* \"#utility.yul\":620:638   */\n      dup4\n      dup3\n      gt\n        /* \"#utility.yul\":640:662   */\n      dup2\n      dup4\n      lt\n        /* \"#utility.yul\":617:663   */\n      or\n        /* \"#utility.yul\":614:686   */\n      iszero\n      tag_41\n      jumpi\n        /* \"#utility.yul\":666:684   */\n      tag_41\n      tag_39\n      jump\t// in\n    tag_41:\n        /* \"#utility.yul\":706:716   */\n      dup2\n        /* \"#utility.yul\":702:704   */\n      0x40\n        /* \"#utility.yul\":695:717   */\n      mstore\n        /* \"#utility.yul\":741:743   */\n      dup3\n        /* \"#utility.yul\":733:739   */\n      dup2\n        /* \"#utility.yul\":726:744   */\n      mstore\n        /* \"#utility.yul\":781:788   */\n      dup8\n        /* \"#utility.yul\":776:778   */\n      0x20\n        /* \"#utility.yul\":771:773   */\n      dup5\n        /* \"#utility.yul\":767:769   */\n      dup8\n        /* \"#utility.yul\":763:774   */\n      add\n        /* \"#utility.yul\":759:779   */\n      add\n        /* \"#utility.yul\":756:789   */\n      gt\n        /* \"#utility.yul\":753:806   */\n      iszero\n      tag_42\n      jumpi\n        /* \"#utility.yul\":802:803   */\n      0x00\n        /* \"#utility.yul\":799:800   */\n      dup1\n        /* \"#utility.yul\":792:804   */\n      revert\n        /* \"#utility.yul\":753:806   */\n    tag_42:\n        /* \"#utility.yul\":858:860   */\n      dup3\n        /* \"#utility.yul\":853:855   */\n      0x20\n        /* \"#utility.yul\":849:851   */\n      dup7\n        /* \"#utility.yul\":845:856   */\n      add\n        /* \"#utility.yul\":840:842   */\n      0x20\n        /* \"#utility.yul\":832:838   */\n      dup4\n        /* \"#utility.yul\":828:843   */\n      add\n        /* \"#utility.yul\":815:861   */\n      calldatacopy\n        /* \"#utility.yul\":903:904   */\n      0x00\n        /* \"#utility.yul\":881:896   */\n      swap3\n      dup2\n      add\n        /* \"#utility.yul\":898:900   */\n      0x20\n        /* \"#utility.yul\":877:901   */\n      add\n        /* \"#utility.yul\":870:905   */\n      swap3\n      swap1\n      swap3\n      mstore\n      pop\n        /* \"#utility.yul\":885:891   */\n      swap6\n        /* \"#utility.yul\":14:936   */\n      swap5\n      pop\n      pop\n      pop\n      pop\n      pop\n      jump\t// out\n        /* \"#utility.yul\":941:1538   */\n    tag_8:\n        /* \"#utility.yul\":1053:1057   */\n      0x00\n        /* \"#utility.yul\":1082:1084   */\n      0x20\n        /* \"#utility.yul\":1111:1113   */\n      dup1\n        /* \"#utility.yul\":1100:1109   */\n      dup4\n        /* \"#utility.yul\":1093:1114   */\n      mstore\n        /* \"#utility.yul\":1143:1149   */\n      dup4\n        /* \"#utility.yul\":1137:1150   */\n      mload\n        /* \"#utility.yul\":1186:1192   */\n      dup1\n        /* \"#utility.yul\":1181:1183   */\n      dup3\n        /* \"#utility.yul\":1170:1179   */\n      dup6\n        /* \"#utility.yul\":1166:1184   */\n      add\n        /* \"#utility.yul\":1159:1193   */\n      mstore\n        /* \"#utility.yul\":1211:1212   */\n      0x00\n        /* \"#utility.yul\":1221:1361   */\n    tag_44:\n        /* \"#utility.yul\":1235:1241   */\n      dup2\n        /* \"#utility.yul\":1232:1233   */\n      dup2\n        /* \"#utility.yul\":1229:1242   */\n      lt\n        /* \"#utility.yul\":1221:1361   */\n      iszero\n      tag_46\n      jumpi\n        /* \"#utility.yul\":1330:1344   */\n      dup6\n      dup2\n      add\n        /* \"#utility.yul\":1326:1349   */\n      dup4\n      add\n        /* \"#utility.yul\":1320:1350   */\n      mload\n        /* \"#utility.yul\":1296:1313   */\n      dup6\n      dup3\n      add\n        /* \"#utility.yul\":1315:1317   */\n      0x40\n        /* \"#utility.yul\":1292:1318   */\n      add\n        /* \"#utility.yul\":1285:1351   */\n      mstore\n        /* \"#utility.yul\":1250:1260   */\n      dup3\n      add\n        /* \"#utility.yul\":1221:1361   */\n      jump(tag_44)\n    tag_46:\n        /* \"#utility.yul\":1379:1385   */\n      dup2\n        /* \"#utility.yul\":1376:1377   */\n      dup2\n        /* \"#utility.yul\":1373:1386   */\n      gt\n        /* \"#utility.yul\":1370:1461   */\n      iszero\n      tag_47\n      jumpi\n        /* \"#utility.yul\":1449:1450   */\n      0x00\n        /* \"#utility.yul\":1444:1446   */\n      0x40\n        /* \"#utility.yul\":1435:1441   */\n      dup4\n        /* \"#utility.yul\":1424:1433   */\n      dup8\n        /* \"#utility.yul\":1420:1442   */\n      add\n        /* \"#utility.yul\":1416:1447   */\n      add\n        /* \"#utility.yul\":1409:1451   */\n      mstore\n        /* \"#utility.yul\":1370:1461   */\n    tag_47:\n      pop\n        /* \"#utility.yul\":1522:1524   */\n      0x1f\n        /* \"#utility.yul\":1501:1516   */\n      add\n      not(0x1f)\n        /* \"#utility.yul\":1497:1526   */\n      and\n        /* \"#utility.yul\":1482:1527   */\n      swap3\n      swap1\n      swap3\n      add\n        /* \"#utility.yul\":1529:1531   */\n      0x40\n        /* \"#utility.yul\":1478:1532   */\n      add\n      swap4\n        /* \"#utility.yul\":941:1538   */\n      swap3\n      pop\n      pop\n      pop\n      jump\t// out\n        /* \"#utility.yul\":1543:1980   */\n    tag_14:\n        /* \"#utility.yul\":1628:1629   */\n      0x02\n        /* \"#utility.yul\":1618:1630   */\n      dup2\n      div\n        /* \"#utility.yul\":1675:1676   */\n      0x01\n        /* \"#utility.yul\":1665:1677   */\n      dup3\n      and\n      dup1\n        /* \"#utility.yul\":1686:1747   */\n      tag_49\n      jumpi\n        /* \"#utility.yul\":1740:1744   */\n      0x7f\n        /* \"#utility.yul\":1732:1738   */\n      dup3\n        /* \"#utility.yul\":1728:1745   */\n      and\n        /* \"#utility.yul\":1718:1745   */\n      swap2\n      pop\n        /* \"#utility.yul\":1686:1747   */\n    tag_49:\n        /* \"#utility.yul\":1793:1795   */\n      0x20\n        /* \"#utility.yul\":1785:1791   */\n      dup3\n        /* \"#utility.yul\":1782:1796   */\n      lt\n        /* \"#utility.yul\":1762:1780   */\n      dup2\n        /* \"#utility.yul\":1759:1797   */\n      eq\n        /* \"#utility.yul\":1756:1974   */\n      iszero\n      tag_50\n      jumpi\n        /* \"#utility.yul\":1830:1907   */\n      0x4e487b7100000000000000000000000000000000000000000000000000000000\n        /* \"#utility.yul\":1827:1828   */\n      0x00\n        /* \"#utility.yul\":1820:1908   */\n      mstore\n        /* \"#utility.yul\":1931:1935   */\n      0x22\n        /* \"#utility.yul\":1928:1929   */\n      0x04\n        /* \"#utility.yul\":1921:1936   */\n      mstore\n        /* \"#utility.yul\":1959:1963   */\n      0x24\n        /* \"#utility.yul\":1956:1957   */\n      0x00\n        /* \"#utility.yul\":1949:1964   */\n      revert\n        /* \"#utility.yul\":1756:1974   */\n    tag_50:\n      pop\n        /* \"#utility.yul\":1543:1980   */\n      swap2\n      swap1\n      pop\n      jump\t// out\n        /* \"#utility.yul\":1985:2169   */\n    tag_39:\n        /* \"#utility.yul\":2037:2114   */\n      0x4e487b7100000000000000000000000000000000000000000000000000000000\n        /* \"#utility.yul\":2034:2035   */\n      0x00\n        /* \"#utility.yul\":2027:2115   */\n      mstore\n        /* \"#utility.yul\":2134:2138   */\n      0x41\n        /* \"#utility.yul\":2131:2132   */\n      0x04\n        /* \"#utility.yul\":2124:2139   */\n      mstore\n        /* \"#utility.yul\":2158:2162   */\n      0x24\n        /* \"#utility.yul\":2155:2156   */\n      0x00\n        /* \"#utility.yul\":2148:2163   */\n      revert\n\n    auxdata: 0xa26469706673582212200be2d97830b26bc156e405323c7b97eba7c43c5a8b013f2729b2e9568a13bc4c64736f6c63430008070033\n}\n",
				"bytecode": {
					"linkReferences": {},
					"object": "60c0604052601a60808190527fd09cd0b0d0bad0b5d182d0b8d180d0bed0b2d0b0d0bdd0b8d0b500000000000060a090815261003e9160009190610051565b5034801561004b57600080fd5b5061013e565b82805461005d906100ea565b90600052602060002090601f01602090048101928261007f57600085556100c5565b82601f1061009857805160ff19168380011785556100c5565b828001600101855582156100c5579182015b828111156100c55782518255916020019190600101906100aa565b506100d19291506100d5565b5090565b5b808211156100d157600081556001016100d6565b6002810460018216806100fe57607f821691505b60208210811415610138577f4e487b7100000000000000000000000000000000000000000000000000000000600052602260045260246000fd5b50919050565b6103878061014d6000396000f3fe608060405234801561001057600080fd5b5060043610610052577c01000000000000000000000000000000000000000000000000000000006000350463c15bae848114610057578063cef95c4914610075575b600080fd5b61005f61008a565b60405161006c9190610279565b60405180910390f35b6100886100833660046101c8565b610118565b005b60008054610097906102ce565b80601f01602080910402602001604051908101604052809291908181526020018280546100c3906102ce565b80156101105780601f106100e557610100808354040283529160200191610110565b820191906000526020600020905b8154815290600101906020018083116100f357829003601f168201915b505050505081565b805161012b90600090602084019061012f565b5050565b82805461013b906102ce565b90600052602060002090601f01602090048101928261015d57600085556101a3565b82601f1061017657805160ff19168380011785556101a3565b828001600101855582156101a3579182015b828111156101a3578251825591602001919060010190610188565b506101af9291506101b3565b5090565b5b808211156101af57600081556001016101b4565b6000602082840312156101da57600080fd5b813567ffffffffffffffff808211156101f257600080fd5b818401915084601f83011261020657600080fd5b81358181111561021857610218610322565b604051601f8201601f19908116603f0116810190838211818310171561024057610240610322565b8160405282815287602084870101111561025957600080fd5b826020860160208301376000928101602001929092525095945050505050565b600060208083528351808285015260005b818110156102a65785810183015185820160400152820161028a565b818111156102b8576000604083870101525b50601f01601f1916929092016040019392505050565b6002810460018216806102e257607f821691505b6020821081141561031c577f4e487b7100000000000000000000000000000000000000000000000000000000600052602260045260246000fd5b50919050565b7f4e487b7100000000000000000000000000000000000000000000000000000000600052604160045260246000fdfea26469706673582212200be2d97830b26bc156e405323c7b97eba7c43c5a8b013f2729b2e9568a13bc4c64736f6c63430008070033",
					"opcodes": "PUSH1 0xC0 PUSH1 0x40 MSTORE PUSH1 0x1A PUSH1 0x80 DUP2 SWAP1 MSTORE PUSH32 0xD09CD0B0D0BAD0B5D182D0B8D180D0BED0B2D0B0D0BDD0B8D0B5000000000000 PUSH1 0xA0 SWAP1 DUP2 MSTORE PUSH2 0x3E SWAP2 PUSH1 0x0 SWAP2 SWAP1 PUSH2 0x51 JUMP JUMPDEST POP CALLVALUE DUP1 ISZERO PUSH2 0x4B JUMPI PUSH1 0x0 DUP1 REVERT JUMPDEST POP PUSH2 0x13E JUMP JUMPDEST DUP3 DUP1 SLOAD PUSH2 0x5D SWAP1 PUSH2 0xEA JUMP JUMPDEST SWAP1 PUSH1 0x0 MSTORE PUSH1 0x20 PUSH1 0x0 KECCAK256 SWAP1 PUSH1 0x1F ADD PUSH1 0x20 SWAP1 DIV DUP2 ADD SWAP3 DUP3 PUSH2 0x7F JUMPI PUSH1 0x0 DUP6 SSTORE PUSH2 0xC5 JUMP JUMPDEST DUP3 PUSH1 0x1F LT PUSH2 0x98 JUMPI DUP1 MLOAD PUSH1 0xFF NOT AND DUP4 DUP1 ADD OR DUP6 SSTORE PUSH2 0xC5 JUMP JUMPDEST DUP3 DUP1 ADD PUSH1 0x1 ADD DUP6 SSTORE DUP3 ISZERO PUSH2 0xC5 JUMPI SWAP2 DUP3 ADD JUMPDEST DUP3 DUP2 GT ISZERO PUSH2 0xC5 JUMPI DUP3 MLOAD DUP3 SSTORE SWAP2 PUSH1 0x20 ADD SWAP2 SWAP1 PUSH1 0x1 ADD SWAP1 PUSH2 0xAA JUMP JUMPDEST POP PUSH2 0xD1 SWAP3 SWAP2 POP PUSH2 0xD5 JUMP JUMPDEST POP SWAP1 JUMP JUMPDEST JUMPDEST DUP1 DUP3 GT ISZERO PUSH2 0xD1 JUMPI PUSH1 0x0 DUP2 SSTORE PUSH1 0x1 ADD PUSH2 0xD6 JUMP JUMPDEST PUSH1 0x2 DUP2 DIV PUSH1 0x1 DUP3 AND DUP1 PUSH2 0xFE JUMPI PUSH1 0x7F DUP3 AND SWAP2 POP JUMPDEST PUSH1 0x20 DUP3 LT DUP2 EQ ISZERO PUSH2 0x138 JUMPI PUSH32 0x4E487B7100000000000000000000000000000000000000000000000000000000 PUSH1 0x0 MSTORE PUSH1 0x22 PUSH1 0x4 MSTORE PUSH1 0x24 PUSH1 0x0 REVERT JUMPDEST POP SWAP2 SWAP1 POP JUMP JUMPDEST PUSH2 0x387 DUP1 PUSH2 0x14D PUSH1 0x0 CODECOPY PUSH1 0x0 RETURN INVALID PUSH1 0x80 PUSH1 0x40 MSTORE CALLVALUE DUP1 ISZERO PUSH2 0x10 JUMPI PUSH1 0x0 DUP1 REVERT JUMPDEST POP PUSH1 0x4 CALLDATASIZE LT PUSH2 0x52 JUMPI PUSH29 0x100000000000000000000000000000000000000000000000000000000 PUSH1 0x0 CALLDATALOAD DIV PUSH4 0xC15BAE84 DUP2 EQ PUSH2 0x57 JUMPI DUP1 PUSH4 0xCEF95C49 EQ PUSH2 0x75 JUMPI JUMPDEST PUSH1 0x0 DUP1 REVERT JUMPDEST PUSH2 0x5F PUSH2 0x8A JUMP JUMPDEST PUSH1 0x40 MLOAD PUSH2 0x6C SWAP2 SWAP1 PUSH2 0x279 JUMP JUMPDEST PUSH1 0x40 MLOAD DUP1 SWAP2 SUB SWAP1 RETURN JUMPDEST PUSH2 0x88 PUSH2 0x83 CALLDATASIZE PUSH1 0x4 PUSH2 0x1C8 JUMP JUMPDEST PUSH2 0x118 JUMP JUMPDEST STOP JUMPDEST PUSH1 0x0 DUP1 SLOAD PUSH2 0x97 SWAP1 PUSH2 0x2CE JUMP JUMPDEST DUP1 PUSH1 0x1F ADD PUSH1 0x20 DUP1 SWAP2 DIV MUL PUSH1 0x20 ADD PUSH1 0x40 MLOAD SWAP1 DUP2 ADD PUSH1 0x40 MSTORE DUP1 SWAP3 SWAP2 SWAP1 DUP2 DUP2 MSTORE PUSH1 0x20 ADD DUP3 DUP1 SLOAD PUSH2 0xC3 SWAP1 PUSH2 0x2CE JUMP JUMPDEST DUP1 ISZERO PUSH2 0x110 JUMPI DUP1 PUSH1 0x1F LT PUSH2 0xE5 JUMPI PUSH2 0x100 DUP1 DUP4 SLOAD DIV MUL DUP4 MSTORE SWAP2 PUSH1 0x20 ADD SWAP2 PUSH2 0x110 JUMP JUMPDEST DUP3 ADD SWAP2 SWAP1 PUSH1 0x0 MSTORE PUSH1 0x20 PUSH1 0x0 KECCAK256 SWAP1 JUMPDEST DUP2 SLOAD DUP2 MSTORE SWAP1 PUSH1 0x1 ADD SWAP1 PUSH1 0x20 ADD DUP1 DUP4 GT PUSH2 0xF3 JUMPI DUP3 SWAP1 SUB PUSH1 0x1F AND DUP3 ADD SWAP2 JUMPDEST POP POP POP POP POP DUP2 JUMP JUMPDEST DUP1 MLOAD PUSH2 0x12B SWAP1 PUSH1 0x0 SWAP1 PUSH1 0x20 DUP5 ADD SWAP1 PUSH2 0x12F JUMP JUMPDEST POP POP JUMP JUMPDEST DUP3 DUP1 SLOAD PUSH2 0x13B SWAP1 PUSH2 0x2CE JUMP JUMPDEST SWAP1 PUSH1 0x0 MSTORE PUSH1 0x20 PUSH1 0x0 KECCAK256 SWAP1 PUSH1 0x1F ADD PUSH1 0x20 SWAP1 DIV DUP2 ADD SWAP3 DUP3 PUSH2 0x15D JUMPI PUSH1 0x0 DUP6 SSTORE PUSH2 0x1A3 JUMP JUMPDEST DUP3 PUSH1 0x1F LT PUSH2 0x176 JUMPI DUP1 MLOAD PUSH1 0xFF NOT AND DUP4 DUP1 ADD OR DUP6 SSTORE PUSH2 0x1A3 JUMP JUMPDEST DUP3 DUP1 ADD PUSH1 0x1 ADD DUP6 SSTORE DUP3 ISZERO PUSH2 0x1A3 JUMPI SWAP2 DUP3 ADD JUMPDEST DUP3 DUP2 GT ISZERO PUSH2 0x1A3 JUMPI DUP3 MLOAD DUP3 SSTORE SWAP2 PUSH1 0x20 ADD SWAP2 SWAP1 PUSH1 0x1 ADD SWAP1 PUSH2 0x188 JUMP JUMPDEST POP PUSH2 0x1AF SWAP3 SWAP2 POP PUSH2 0x1B3 JUMP JUMPDEST POP SWAP1 JUMP JUMPDEST JUMPDEST DUP1 DUP3 GT ISZERO PUSH2 0x1AF JUMPI PUSH1 0x0 DUP2 SSTORE PUSH1 0x1 ADD PUSH2 0x1B4 JUMP JUMPDEST PUSH1 0x0 PUSH1 0x20 DUP3 DUP5 SUB SLT ISZERO PUSH2 0x1DA JUMPI PUSH1 0x0 DUP1 REVERT JUMPDEST DUP2 CALLDATALOAD PUSH8 0xFFFFFFFFFFFFFFFF DUP1 DUP3 GT ISZERO PUSH2 0x1F2 JUMPI PUSH1 0x0 DUP1 REVERT JUMPDEST DUP2 DUP5 ADD SWAP2 POP DUP5 PUSH1 0x1F DUP4 ADD SLT PUSH2 0x206 JUMPI PUSH1 0x0 DUP1 REVERT JUMPDEST DUP2 CALLDATALOAD DUP2 DUP2 GT ISZERO PUSH2 0x218 JUMPI PUSH2 0x218 PUSH2 0x322 JUMP JUMPDEST PUSH1 0x40 MLOAD PUSH1 0x1F DUP3 ADD PUSH1 0x1F NOT SWAP1 DUP2 AND PUSH1 0x3F ADD AND DUP2 ADD SWAP1 DUP4 DUP3 GT DUP2 DUP4 LT OR ISZERO PUSH2 0x240 JUMPI PUSH2 0x240 PUSH2 0x322 JUMP JUMPDEST DUP2 PUSH1 0x40 MSTORE DUP3 DUP2 MSTORE DUP8 PUSH1 0x20 DUP5 DUP8 ADD ADD GT ISZERO PUSH2 0x259 JUMPI PUSH1 0x0 DUP1 REVERT JUMPDEST DUP3 PUSH1 0x20 DUP7 ADD PUSH1 0x20 DUP4 ADD CALLDATACOPY PUSH1 0x0 SWAP3 DUP2 ADD PUSH1 0x20 ADD SWAP3 SWAP1 SWAP3 MSTORE POP SWAP6 SWAP5 POP POP POP POP POP JUMP JUMPDEST PUSH1 0x0 PUSH1 0x20 DUP1 DUP4 MSTORE DUP4 MLOAD DUP1 DUP3 DUP6 ADD MSTORE PUSH1 0x0 JUMPDEST DUP2 DUP2 LT ISZERO PUSH2 0x2A6 JUMPI DUP6 DUP2 ADD DUP4 ADD MLOAD DUP6 DUP3 ADD PUSH1 0x40 ADD MSTORE DUP3 ADD PUSH2 0x28A JUMP JUMPDEST DUP2 DUP2 GT ISZERO PUSH2 0x2B8 JUMPI PUSH1 0x0 PUSH1 0x40 DUP4 DUP8 ADD ADD MSTORE JUMPDEST POP PUSH1 0x1F ADD PUSH1 0x1F NOT AND SWAP3 SWAP1 SWAP3 ADD PUSH1 0x40 ADD SWAP4 SWAP3 POP POP POP JUMP JUMPDEST PUSH1 0x2 DUP2 DIV PUSH1 0x1 DUP3 AND DUP1 PUSH2 0x2E2 JUMPI PUSH1 0x7F DUP3 AND SWAP2 POP JUMPDEST PUSH1 0x20 DUP3 LT DUP2 EQ ISZERO PUSH2 0x31C JUMPI PUSH32 0x4E487B7100000000000000000000000000000000000000000000000000000000 PUSH1 0x0 MSTORE PUSH1 0x22 PUSH1 0x4 MSTORE PUSH1 0x24 PUSH1 0x0 REVERT JUMPDEST POP SWAP2 SWAP1 POP JUMP JUMPDEST PUSH32 0x4E487B7100000000000000000000000000000000000000000000000000000000 PUSH1 0x0 MSTORE PUSH1 0x41 PUSH1 0x4 MSTORE PUSH1 0x24 PUSH1 0x0 REVERT INVALID LOG2 PUSH5 0x6970667358 0x22 SLT KECCAK256 SIGNEXTEND 0xE2 0xD9 PUSH25 0x30B26BC156E405323C7B97EBA7C43C5A8B013F2729B2E9568A SGT 0xBC 0x4C PUSH5 0x736F6C6343 STOP ADDMOD SMOD STOP CALLER "
				},
				"gasEstimates": {
					"creation": {
						"codeDepositCost": "180600",
						"executionCost": "infinite",
						"totalCost": "infinite"
					},
					"external": {
						"changeStr(string)": "infinite",
						"str()": "infinite"
					}
				},
				"methodIdentifiers": {
					"changeStr(string)": "cef95c49",
					"str()": "c15bae84"
				}
			},
			"storageLayout": {
				"storage": [
					{
						"astId": 4,
						"contract": "testing.sol:Test",
						"label": "str",
						"offset": 0,
						"slot": "0",
						"type": "t_string_storage"
					}
				],
				"types": {
					"t_string_storage": {
						"encoding": "bytes",
						"label": "string",
						"numberOfBytes": "32"
					}
				}
			},
			"userdoc": {
				"kind": "user",
				"methods": {},
				"version": 1
			}
		}
	}
}