{
	"GlobalStorage.sol": {
		"GlobalStorage": {
			"abi": [
				{
					"inputs": [
						{
							"internalType": "bytes32",
							"name": "_key",
							"type": "bytes32"
						},
						{
							"internalType": "address",
							"name": "_newAddress",
							"type": "address"
						}
					],
					"name": "addAddressArrayDataProject",
					"outputs": [],
					"stateMutability": "nonpayable",
					"type": "function"
				},
				{
					"inputs": [
						{
							"internalType": "bytes32",
							"name": "_key",
							"type": "bytes32"
						},
						{
							"internalType": "address",
							"name": "_newAddress",
							"type": "address"
						}
					],
					"name": "addAddressArrayDataUser",
					"outputs": [],
					"stateMutability": "nonpayable",
					"type": "function"
				},
				{
					"inputs": [
						{
							"internalType": "address",
							"name": "_newAddressContract",
							"type": "address"
						}
					],
					"name": "addAddressContract",
					"outputs": [],
					"stateMutability": "nonpayable",
					"type": "function"
				},
				{
					"inputs": [
						{
							"internalType": "bytes32",
							"name": "_key",
							"type": "bytes32"
						},
						{
							"internalType": "bool",
							"name": "_newValue",
							"type": "bool"
						}
					],
					"name": "addBoolArrayDataUser",
					"outputs": [],
					"stateMutability": "nonpayable",
					"type": "function"
				},
				{
					"inputs": [
						{
							"internalType": "bytes32",
							"name": "_key",
							"type": "bytes32"
						},
						{
							"internalType": "bytes32",
							"name": "_newValue",
							"type": "bytes32"
						}
					],
					"name": "addBytes32ArrayDataProject",
					"outputs": [],
					"stateMutability": "nonpayable",
					"type": "function"
				},
				{
					"inputs": [
						{
							"internalType": "bytes32",
							"name": "_key",
							"type": "bytes32"
						},
						{
							"internalType": "bytes32",
							"name": "_newValue",
							"type": "bytes32"
						}
					],
					"name": "addBytes32ArrayDataUser",
					"outputs": [],
					"stateMutability": "nonpayable",
					"type": "function"
				},
				{
					"inputs": [
						{
							"internalType": "bytes32",
							"name": "_key",
							"type": "bytes32"
						},
						{
							"internalType": "string",
							"name": "_newString",
							"type": "string"
						}
					],
					"name": "addStringArrayDataProject",
					"outputs": [],
					"stateMutability": "nonpayable",
					"type": "function"
				},
				{
					"inputs": [
						{
							"internalType": "bytes32",
							"name": "_key",
							"type": "bytes32"
						},
						{
							"internalType": "string",
							"name": "_newString",
							"type": "string"
						}
					],
					"name": "addStringArrayDataUser",
					"outputs": [],
					"stateMutability": "nonpayable",
					"type": "function"
				},
				{
					"inputs": [
						{
							"internalType": "bytes32",
							"name": "_key",
							"type": "bytes32"
						},
						{
							"internalType": "uint16",
							"name": "_newValue",
							"type": "uint16"
						}
					],
					"name": "addUint16ArrayDataProject",
					"outputs": [],
					"stateMutability": "nonpayable",
					"type": "function"
				},
				{
					"inputs": [
						{
							"internalType": "bytes32",
							"name": "_key",
							"type": "bytes32"
						},
						{
							"internalType": "uint16",
							"name": "_newValue",
							"type": "uint16"
						}
					],
					"name": "addUint16ArrayDataUser",
					"outputs": [],
					"stateMutability": "nonpayable",
					"type": "function"
				},
				{
					"inputs": [
						{
							"internalType": "bytes32",
							"name": "_key",
							"type": "bytes32"
						},
						{
							"internalType": "uint8",
							"name": "_newValue",
							"type": "uint8"
						}
					],
					"name": "addUint8ArrayDataProject",
					"outputs": [],
					"stateMutability": "nonpayable",
					"type": "function"
				},
				{
					"inputs": [
						{
							"internalType": "bytes32",
							"name": "_key",
							"type": "bytes32"
						},
						{
							"internalType": "uint8",
							"name": "_newValue",
							"type": "uint8"
						}
					],
					"name": "addUint8ArrayDataUser",
					"outputs": [],
					"stateMutability": "nonpayable",
					"type": "function"
				},
				{
					"inputs": [
						{
							"internalType": "bytes32",
							"name": "_key",
							"type": "bytes32"
						},
						{
							"internalType": "uint256",
							"name": "_newValue",
							"type": "uint256"
						}
					],
					"name": "addUintArrayDataProject",
					"outputs": [],
					"stateMutability": "nonpayable",
					"type": "function"
				},
				{
					"inputs": [
						{
							"internalType": "bytes32",
							"name": "_key",
							"type": "bytes32"
						},
						{
							"internalType": "uint256",
							"name": "_newValue",
							"type": "uint256"
						}
					],
					"name": "addUintArrayDataUser",
					"outputs": [],
					"stateMutability": "nonpayable",
					"type": "function"
				},
				{
					"inputs": [
						{
							"internalType": "address",
							"name": "_newAddressContract",
							"type": "address"
						}
					],
					"name": "changeOwnerContract",
					"outputs": [],
					"stateMutability": "nonpayable",
					"type": "function"
				},
				{
					"inputs": [
						{
							"internalType": "address",
							"name": "_oldAddress",
							"type": "address"
						}
					],
					"name": "delAddressContract",
					"outputs": [],
					"stateMutability": "nonpayable",
					"type": "function"
				},
				{
					"inputs": [
						{
							"internalType": "bytes32",
							"name": "_key",
							"type": "bytes32"
						},
						{
							"internalType": "uint16",
							"name": "_num",
							"type": "uint16"
						},
						{
							"internalType": "address",
							"name": "_newAddress",
							"type": "address"
						}
					],
					"name": "setAddressArrayDataProject",
					"outputs": [],
					"stateMutability": "nonpayable",
					"type": "function"
				},
				{
					"inputs": [
						{
							"internalType": "bytes32",
							"name": "_key",
							"type": "bytes32"
						},
						{
							"internalType": "uint16",
							"name": "_num",
							"type": "uint16"
						},
						{
							"internalType": "address",
							"name": "_newAddress",
							"type": "address"
						}
					],
					"name": "setAddressArrayDataUser",
					"outputs": [],
					"stateMutability": "nonpayable",
					"type": "function"
				},
				{
					"inputs": [
						{
							"internalType": "bytes32",
							"name": "_key",
							"type": "bytes32"
						},
						{
							"internalType": "address",
							"name": "_newAddress",
							"type": "address"
						}
					],
					"name": "setAddressDataProject",
					"outputs": [],
					"stateMutability": "nonpayable",
					"type": "function"
				},
				{
					"inputs": [
						{
							"internalType": "bytes32",
							"name": "_key",
							"type": "bytes32"
						},
						{
							"internalType": "address",
							"name": "_newAddress",
							"type": "address"
						}
					],
					"name": "setAddressDataUser",
					"outputs": [],
					"stateMutability": "nonpayable",
					"type": "function"
				},
				{
					"inputs": [
						{
							"internalType": "bytes32",
							"name": "_key",
							"type": "bytes32"
						},
						{
							"internalType": "uint16",
							"name": "_num",
							"type": "uint16"
						},
						{
							"internalType": "bool",
							"name": "_newValue",
							"type": "bool"
						}
					],
					"name": "setBoolArrayDataUser",
					"outputs": [],
					"stateMutability": "nonpayable",
					"type": "function"
				},
				{
					"inputs": [
						{
							"internalType": "bytes32",
							"name": "_key",
							"type": "bytes32"
						},
						{
							"internalType": "bool",
							"name": "_newValue",
							"type": "bool"
						}
					],
					"name": "setBoolDataUser",
					"outputs": [],
					"stateMutability": "nonpayable",
					"type": "function"
				},
				{
					"inputs": [
						{
							"internalType": "bytes32",
							"name": "_key",
							"type": "bytes32"
						},
						{
							"internalType": "uint16",
							"name": "_num",
							"type": "uint16"
						},
						{
							"internalType": "bytes32",
							"name": "_newValue",
							"type": "bytes32"
						}
					],
					"name": "setBytes32ArrayDataProject",
					"outputs": [],
					"stateMutability": "nonpayable",
					"type": "function"
				},
				{
					"inputs": [
						{
							"internalType": "bytes32",
							"name": "_key",
							"type": "bytes32"
						},
						{
							"internalType": "uint16",
							"name": "_num",
							"type": "uint16"
						},
						{
							"internalType": "bytes32",
							"name": "_newValue",
							"type": "bytes32"
						}
					],
					"name": "setBytes32ArrayDataUser",
					"outputs": [],
					"stateMutability": "nonpayable",
					"type": "function"
				},
				{
					"inputs": [
						{
							"internalType": "bytes32",
							"name": "_key",
							"type": "bytes32"
						},
						{
							"internalType": "bytes32",
							"name": "_newValue",
							"type": "bytes32"
						}
					],
					"name": "setBytes32DataProject",
					"outputs": [],
					"stateMutability": "nonpayable",
					"type": "function"
				},
				{
					"inputs": [
						{
							"internalType": "bytes32",
							"name": "_key",
							"type": "bytes32"
						},
						{
							"internalType": "bytes32",
							"name": "_newValue",
							"type": "bytes32"
						}
					],
					"name": "setBytes32DataUser",
					"outputs": [],
					"stateMutability": "nonpayable",
					"type": "function"
				},
				{
					"inputs": [
						{
							"internalType": "bytes32",
							"name": "_key",
							"type": "bytes32"
						},
						{
							"internalType": "address[]",
							"name": "_newAddress",
							"type": "address[]"
						}
					],
					"name": "setFullAddressArrayDataProject",
					"outputs": [],
					"stateMutability": "nonpayable",
					"type": "function"
				},
				{
					"inputs": [
						{
							"internalType": "bytes32",
							"name": "_key",
							"type": "bytes32"
						},
						{
							"internalType": "address[]",
							"name": "_newAddresses",
							"type": "address[]"
						}
					],
					"name": "setFullAddressArrayDataUser",
					"outputs": [],
					"stateMutability": "nonpayable",
					"type": "function"
				},
				{
					"inputs": [
						{
							"internalType": "bytes32",
							"name": "_key",
							"type": "bytes32"
						},
						{
							"internalType": "bool[]",
							"name": "_newValues",
							"type": "bool[]"
						}
					],
					"name": "setFullBoolArrayDataUser",
					"outputs": [],
					"stateMutability": "nonpayable",
					"type": "function"
				},
				{
					"inputs": [
						{
							"internalType": "bytes32",
							"name": "_key",
							"type": "bytes32"
						},
						{
							"internalType": "bytes32[]",
							"name": "_newValues",
							"type": "bytes32[]"
						}
					],
					"name": "setFullBytes32ArrayDataProject",
					"outputs": [],
					"stateMutability": "nonpayable",
					"type": "function"
				},
				{
					"inputs": [
						{
							"internalType": "bytes32",
							"name": "_key",
							"type": "bytes32"
						},
						{
							"internalType": "bytes32[]",
							"name": "_newValues",
							"type": "bytes32[]"
						}
					],
					"name": "setFullBytes32ArrayDataUser",
					"outputs": [],
					"stateMutability": "nonpayable",
					"type": "function"
				},
				{
					"inputs": [
						{
							"internalType": "bytes32",
							"name": "_key",
							"type": "bytes32"
						},
						{
							"internalType": "string[]",
							"name": "_newString",
							"type": "string[]"
						}
					],
					"name": "setFullStringArrayDataProject",
					"outputs": [],
					"stateMutability": "nonpayable",
					"type": "function"
				},
				{
					"inputs": [
						{
							"internalType": "bytes32",
							"name": "_key",
							"type": "bytes32"
						},
						{
							"internalType": "string[]",
							"name": "_newStrings",
							"type": "string[]"
						}
					],
					"name": "setFullStringArrayDataUser",
					"outputs": [],
					"stateMutability": "nonpayable",
					"type": "function"
				},
				{
					"inputs": [
						{
							"internalType": "bytes32",
							"name": "_key",
							"type": "bytes32"
						},
						{
							"internalType": "uint16[]",
							"name": "_newValues",
							"type": "uint16[]"
						}
					],
					"name": "setFullUint16ArrayDataProject",
					"outputs": [],
					"stateMutability": "nonpayable",
					"type": "function"
				},
				{
					"inputs": [
						{
							"internalType": "bytes32",
							"name": "_key",
							"type": "bytes32"
						},
						{
							"internalType": "uint16[]",
							"name": "_newValues",
							"type": "uint16[]"
						}
					],
					"name": "setFullUint16ArrayDataUser",
					"outputs": [],
					"stateMutability": "nonpayable",
					"type": "function"
				},
				{
					"inputs": [
						{
							"internalType": "bytes32",
							"name": "_key",
							"type": "bytes32"
						},
						{
							"internalType": "uint8[]",
							"name": "_newValues",
							"type": "uint8[]"
						}
					],
					"name": "setFullUint8ArrayDataProject",
					"outputs": [],
					"stateMutability": "nonpayable",
					"type": "function"
				},
				{
					"inputs": [
						{
							"internalType": "bytes32",
							"name": "_key",
							"type": "bytes32"
						},
						{
							"internalType": "uint8[]",
							"name": "_newValues",
							"type": "uint8[]"
						}
					],
					"name": "setFullUint8ArrayDataUser",
					"outputs": [],
					"stateMutability": "nonpayable",
					"type": "function"
				},
				{
					"inputs": [
						{
							"internalType": "bytes32",
							"name": "_key",
							"type": "bytes32"
						},
						{
							"internalType": "uint256[]",
							"name": "_newValues",
							"type": "uint256[]"
						}
					],
					"name": "setFullUintArrayDataProject",
					"outputs": [],
					"stateMutability": "nonpayable",
					"type": "function"
				},
				{
					"inputs": [
						{
							"internalType": "bytes32",
							"name": "_key",
							"type": "bytes32"
						},
						{
							"internalType": "uint256[]",
							"name": "_newValues",
							"type": "uint256[]"
						}
					],
					"name": "setFullUintArrayDataUser",
					"outputs": [],
					"stateMutability": "nonpayable",
					"type": "function"
				},
				{
					"inputs": [
						{
							"internalType": "bytes32",
							"name": "_key",
							"type": "bytes32"
						},
						{
							"internalType": "uint16",
							"name": "_num",
							"type": "uint16"
						},
						{
							"internalType": "string",
							"name": "_newString",
							"type": "string"
						}
					],
					"name": "setStringArrayDataProject",
					"outputs": [],
					"stateMutability": "nonpayable",
					"type": "function"
				},
				{
					"inputs": [
						{
							"internalType": "bytes32",
							"name": "_key",
							"type": "bytes32"
						},
						{
							"internalType": "uint16",
							"name": "_num",
							"type": "uint16"
						},
						{
							"internalType": "string",
							"name": "_newString",
							"type": "string"
						}
					],
					"name": "setStringArrayDataUser",
					"outputs": [],
					"stateMutability": "nonpayable",
					"type": "function"
				},
				{
					"inputs": [
						{
							"internalType": "bytes32",
							"name": "_key",
							"type": "bytes32"
						},
						{
							"internalType": "string",
							"name": "_newString",
							"type": "string"
						}
					],
					"name": "setStringDataProject",
					"outputs": [],
					"stateMutability": "nonpayable",
					"type": "function"
				},
				{
					"inputs": [
						{
							"internalType": "bytes32",
							"name": "_key",
							"type": "bytes32"
						},
						{
							"internalType": "string",
							"name": "_newString",
							"type": "string"
						}
					],
					"name": "setStringDataUser",
					"outputs": [],
					"stateMutability": "nonpayable",
					"type": "function"
				},
				{
					"inputs": [
						{
							"internalType": "bytes32",
							"name": "_key",
							"type": "bytes32"
						},
						{
							"internalType": "uint16",
							"name": "_num",
							"type": "uint16"
						},
						{
							"internalType": "uint16",
							"name": "_newValue",
							"type": "uint16"
						}
					],
					"name": "setUint16ArrayDataProject",
					"outputs": [],
					"stateMutability": "nonpayable",
					"type": "function"
				},
				{
					"inputs": [
						{
							"internalType": "bytes32",
							"name": "_key",
							"type": "bytes32"
						},
						{
							"internalType": "uint16",
							"name": "_num",
							"type": "uint16"
						},
						{
							"internalType": "uint16",
							"name": "_newValue",
							"type": "uint16"
						}
					],
					"name": "setUint16ArrayDataUser",
					"outputs": [],
					"stateMutability": "nonpayable",
					"type": "function"
				},
				{
					"inputs": [
						{
							"internalType": "bytes32",
							"name": "_key",
							"type": "bytes32"
						},
						{
							"internalType": "uint16",
							"name": "_newValue",
							"type": "uint16"
						}
					],
					"name": "setUint16DataProject",
					"outputs": [],
					"stateMutability": "nonpayable",
					"type": "function"
				},
				{
					"inputs": [
						{
							"internalType": "bytes32",
							"name": "_key",
							"type": "bytes32"
						},
						{
							"internalType": "uint16",
							"name": "_newValue",
							"type": "uint16"
						}
					],
					"name": "setUint16DataUser",
					"outputs": [],
					"stateMutability": "nonpayable",
					"type": "function"
				},
				{
					"inputs": [
						{
							"internalType": "bytes32",
							"name": "_key",
							"type": "bytes32"
						},
						{
							"internalType": "uint16",
							"name": "_num",
							"type": "uint16"
						},
						{
							"internalType": "uint8",
							"name": "_newValue",
							"type": "uint8"
						}
					],
					"name": "setUint8ArrayDataProject",
					"outputs": [],
					"stateMutability": "nonpayable",
					"type": "function"
				},
				{
					"inputs": [
						{
							"internalType": "bytes32",
							"name": "_key",
							"type": "bytes32"
						},
						{
							"internalType": "uint16",
							"name": "_num",
							"type": "uint16"
						},
						{
							"internalType": "uint8",
							"name": "_newValue",
							"type": "uint8"
						}
					],
					"name": "setUint8ArrayDataUser",
					"outputs": [],
					"stateMutability": "nonpayable",
					"type": "function"
				},
				{
					"inputs": [
						{
							"internalType": "bytes32",
							"name": "_key",
							"type": "bytes32"
						},
						{
							"internalType": "uint8",
							"name": "_newUint8",
							"type": "uint8"
						}
					],
					"name": "setUint8DataProject",
					"outputs": [],
					"stateMutability": "nonpayable",
					"type": "function"
				},
				{
					"inputs": [
						{
							"internalType": "bytes32",
							"name": "_key",
							"type": "bytes32"
						},
						{
							"internalType": "uint8",
							"name": "_newUint8",
							"type": "uint8"
						}
					],
					"name": "setUint8DataUser",
					"outputs": [],
					"stateMutability": "nonpayable",
					"type": "function"
				},
				{
					"inputs": [
						{
							"internalType": "bytes32",
							"name": "_key",
							"type": "bytes32"
						},
						{
							"internalType": "uint16",
							"name": "_num",
							"type": "uint16"
						},
						{
							"internalType": "uint256",
							"name": "_newValue",
							"type": "uint256"
						}
					],
					"name": "setUintArrayDataProject",
					"outputs": [],
					"stateMutability": "nonpayable",
					"type": "function"
				},
				{
					"inputs": [
						{
							"internalType": "bytes32",
							"name": "_key",
							"type": "bytes32"
						},
						{
							"internalType": "uint16",
							"name": "_num",
							"type": "uint16"
						},
						{
							"internalType": "uint256",
							"name": "_newValue",
							"type": "uint256"
						}
					],
					"name": "setUintArrayDataUser",
					"outputs": [],
					"stateMutability": "nonpayable",
					"type": "function"
				},
				{
					"inputs": [
						{
							"internalType": "bytes32",
							"name": "_key",
							"type": "bytes32"
						},
						{
							"internalType": "uint256",
							"name": "_newValue",
							"type": "uint256"
						}
					],
					"name": "setUintDataProject",
					"outputs": [],
					"stateMutability": "nonpayable",
					"type": "function"
				},
				{
					"inputs": [
						{
							"internalType": "bytes32",
							"name": "_key",
							"type": "bytes32"
						},
						{
							"internalType": "uint256",
							"name": "_newValue",
							"type": "uint256"
						}
					],
					"name": "setUintDataUser",
					"outputs": [],
					"stateMutability": "nonpayable",
					"type": "function"
				},
				{
					"inputs": [],
					"stateMutability": "nonpayable",
					"type": "constructor"
				},
				{
					"inputs": [
						{
							"internalType": "bytes32",
							"name": "_key",
							"type": "bytes32"
						}
					],
					"name": "getAddressArrayDataProject",
					"outputs": [
						{
							"internalType": "address[]",
							"name": "",
							"type": "address[]"
						}
					],
					"stateMutability": "view",
					"type": "function"
				},
				{
					"inputs": [
						{
							"internalType": "bytes32",
							"name": "_key",
							"type": "bytes32"
						}
					],
					"name": "getAddressArrayDataUser",
					"outputs": [
						{
							"internalType": "address[]",
							"name": "",
							"type": "address[]"
						}
					],
					"stateMutability": "view",
					"type": "function"
				},
				{
					"inputs": [
						{
							"internalType": "bytes32",
							"name": "_key",
							"type": "bytes32"
						}
					],
					"name": "getAddressDataProject",
					"outputs": [
						{
							"internalType": "address",
							"name": "",
							"type": "address"
						}
					],
					"stateMutability": "view",
					"type": "function"
				},
				{
					"inputs": [
						{
							"internalType": "bytes32",
							"name": "_key",
							"type": "bytes32"
						}
					],
					"name": "getAddressDataUser",
					"outputs": [
						{
							"internalType": "address",
							"name": "",
							"type": "address"
						}
					],
					"stateMutability": "view",
					"type": "function"
				},
				{
					"inputs": [],
					"name": "getAddressesContracts",
					"outputs": [
						{
							"internalType": "address[]",
							"name": "",
							"type": "address[]"
						}
					],
					"stateMutability": "view",
					"type": "function"
				},
				{
					"inputs": [
						{
							"internalType": "bytes32",
							"name": "_key",
							"type": "bytes32"
						}
					],
					"name": "getBoolArrayDataUser",
					"outputs": [
						{
							"internalType": "bool[]",
							"name": "",
							"type": "bool[]"
						}
					],
					"stateMutability": "view",
					"type": "function"
				},
				{
					"inputs": [
						{
							"internalType": "bytes32",
							"name": "_key",
							"type": "bytes32"
						}
					],
					"name": "getBoolDataUser",
					"outputs": [
						{
							"internalType": "bool",
							"name": "",
							"type": "bool"
						}
					],
					"stateMutability": "view",
					"type": "function"
				},
				{
					"inputs": [
						{
							"internalType": "bytes32",
							"name": "_key",
							"type": "bytes32"
						}
					],
					"name": "getBytes32ArrayDataUser",
					"outputs": [
						{
							"internalType": "bytes32[]",
							"name": "",
							"type": "bytes32[]"
						}
					],
					"stateMutability": "view",
					"type": "function"
				},
				{
					"inputs": [
						{
							"internalType": "bytes32",
							"name": "_key",
							"type": "bytes32"
						}
					],
					"name": "getBytes32DataUser",
					"outputs": [
						{
							"internalType": "bytes32",
							"name": "",
							"type": "bytes32"
						}
					],
					"stateMutability": "view",
					"type": "function"
				},
				{
					"inputs": [],
					"name": "getOwnerContract",
					"outputs": [
						{
							"internalType": "address",
							"name": "",
							"type": "address"
						}
					],
					"stateMutability": "view",
					"type": "function"
				},
				{
					"inputs": [
						{
							"internalType": "bytes32",
							"name": "_key",
							"type": "bytes32"
						}
					],
					"name": "getStringArrayDataProject",
					"outputs": [
						{
							"internalType": "string[]",
							"name": "",
							"type": "string[]"
						}
					],
					"stateMutability": "view",
					"type": "function"
				},
				{
					"inputs": [
						{
							"internalType": "bytes32",
							"name": "_key",
							"type": "bytes32"
						}
					],
					"name": "getStringArrayDataUser",
					"outputs": [
						{
							"internalType": "string[]",
							"name": "",
							"type": "string[]"
						}
					],
					"stateMutability": "view",
					"type": "function"
				},
				{
					"inputs": [
						{
							"internalType": "bytes32",
							"name": "_key",
							"type": "bytes32"
						}
					],
					"name": "getStringDataProject",
					"outputs": [
						{
							"internalType": "string",
							"name": "",
							"type": "string"
						}
					],
					"stateMutability": "view",
					"type": "function"
				},
				{
					"inputs": [
						{
							"internalType": "bytes32",
							"name": "_key",
							"type": "bytes32"
						}
					],
					"name": "getStringDataUser",
					"outputs": [
						{
							"internalType": "string",
							"name": "",
							"type": "string"
						}
					],
					"stateMutability": "view",
					"type": "function"
				},
				{
					"inputs": [
						{
							"internalType": "bytes32",
							"name": "_key",
							"type": "bytes32"
						}
					],
					"name": "getUint16ArrayDataProject",
					"outputs": [
						{
							"internalType": "uint16[]",
							"name": "",
							"type": "uint16[]"
						}
					],
					"stateMutability": "view",
					"type": "function"
				},
				{
					"inputs": [
						{
							"internalType": "bytes32",
							"name": "_key",
							"type": "bytes32"
						}
					],
					"name": "getUint16ArrayDataUser",
					"outputs": [
						{
							"internalType": "uint16[]",
							"name": "",
							"type": "uint16[]"
						}
					],
					"stateMutability": "view",
					"type": "function"
				},
				{
					"inputs": [
						{
							"internalType": "bytes32",
							"name": "_key",
							"type": "bytes32"
						}
					],
					"name": "getUint16DataProject",
					"outputs": [
						{
							"internalType": "uint16",
							"name": "",
							"type": "uint16"
						}
					],
					"stateMutability": "view",
					"type": "function"
				},
				{
					"inputs": [
						{
							"internalType": "bytes32",
							"name": "_key",
							"type": "bytes32"
						}
					],
					"name": "getUint16DataUser",
					"outputs": [
						{
							"internalType": "uint16",
							"name": "",
							"type": "uint16"
						}
					],
					"stateMutability": "view",
					"type": "function"
				},
				{
					"inputs": [
						{
							"internalType": "bytes32",
							"name": "_key",
							"type": "bytes32"
						}
					],
					"name": "getUint8ArrayDataProject",
					"outputs": [
						{
							"internalType": "uint8[]",
							"name": "",
							"type": "uint8[]"
						}
					],
					"stateMutability": "view",
					"type": "function"
				},
				{
					"inputs": [
						{
							"internalType": "bytes32",
							"name": "_key",
							"type": "bytes32"
						}
					],
					"name": "getUint8ArrayDataUser",
					"outputs": [
						{
							"internalType": "uint8[]",
							"name": "",
							"type": "uint8[]"
						}
					],
					"stateMutability": "view",
					"type": "function"
				},
				{
					"inputs": [
						{
							"internalType": "bytes32",
							"name": "_key",
							"type": "bytes32"
						}
					],
					"name": "getUint8DataProject",
					"outputs": [
						{
							"internalType": "uint8",
							"name": "",
							"type": "uint8"
						}
					],
					"stateMutability": "view",
					"type": "function"
				},
				{
					"inputs": [
						{
							"internalType": "bytes32",
							"name": "_key",
							"type": "bytes32"
						}
					],
					"name": "getUint8DataUser",
					"outputs": [
						{
							"internalType": "uint8",
							"name": "",
							"type": "uint8"
						}
					],
					"stateMutability": "view",
					"type": "function"
				},
				{
					"inputs": [
						{
							"internalType": "bytes32",
							"name": "_key",
							"type": "bytes32"
						}
					],
					"name": "getUintArrayDataProject",
					"outputs": [
						{
							"internalType": "uint256[]",
							"name": "",
							"type": "uint256[]"
						}
					],
					"stateMutability": "view",
					"type": "function"
				},
				{
					"inputs": [
						{
							"internalType": "bytes32",
							"name": "_key",
							"type": "bytes32"
						}
					],
					"name": "getUintArrayDataUser",
					"outputs": [
						{
							"internalType": "uint256[]",
							"name": "",
							"type": "uint256[]"
						}
					],
					"stateMutability": "view",
					"type": "function"
				},
				{
					"inputs": [
						{
							"internalType": "bytes32",
							"name": "_key",
							"type": "bytes32"
						}
					],
					"name": "getUintDataProject",
					"outputs": [
						{
							"internalType": "uint256",
							"name": "",
							"type": "uint256"
						}
					],
					"stateMutability": "view",
					"type": "function"
				},
				{
					"inputs": [
						{
							"internalType": "bytes32",
							"name": "_key",
							"type": "bytes32"
						}
					],
					"name": "getUintDataUser",
					"outputs": [
						{
							"internalType": "uint256",
							"name": "",
							"type": "uint256"
						}
					],
					"stateMutability": "view",
					"type": "function"
				}
			],
			"devdoc": {
				"kind": "dev",
				"methods": {},
				"version": 1
			},
			"evm": {
				"assembly": "    /* \"GlobalStorage.sol\":73:15015  contract GlobalStorage {... */\n  mstore(0x40, 0x80)\n    /* \"GlobalStorage.sol\":1794:1895  constructor() {... */\n  callvalue\n  dup1\n  iszero\n  tag_1\n  jumpi\n  0x00\n  dup1\n  revert\ntag_1:\n  pop\n    /* \"GlobalStorage.sol\":1819:1832  ownerContract */\n  0x00\n    /* \"GlobalStorage.sol\":1819:1845  ownerContract = msg.sender */\n  dup1\n  sload\n    /* \"GlobalStorage.sol\":1835:1845  msg.sender */\n  caller\n  not(sub(shl(0xa0, 0x01), 0x01))\n    /* \"GlobalStorage.sol\":1819:1845  ownerContract = msg.sender */\n  swap2\n  dup3\n  and\n  dup2\n  or\n  dup4\n  sstore\n  0x01\n    /* \"GlobalStorage.sol\":1856:1887  logicContracts.push(msg.sender) */\n  dup1\n  sload\n  dup1\n  dup3\n  add\n  dup3\n  sstore\n  swap1\n  dup5\n  mstore\n  0xb10e2d527612073b26eecdfd717e6a320cf44b4afac2b0732d9fcbe2b7fa0cf6\n  add\n  dup1\n  sload\n  swap1\n  swap3\n  and\n  or\n  swap1\n  sstore\n    /* \"GlobalStorage.sol\":73:15015  contract GlobalStorage {... */\n  dataSize(sub_0)\n  swap1\n  dup2\n  swap1\n  dataOffset(sub_0)\n  swap1\n  codecopy\n  0x00\n  return\nstop\n\nsub_0: assembly {\n        /* \"GlobalStorage.sol\":73:15015  contract GlobalStorage {... */\n      mstore(0x40, 0x80)\n      callvalue\n      dup1\n      iszero\n      tag_1\n      jumpi\n      0x00\n      dup1\n      revert\n    tag_1:\n      pop\n      jumpi(tag_2, lt(calldatasize, 0x04))\n      shr(0xe0, calldataload(0x00))\n      dup1\n      0x6933dc7c\n      gt\n      tag_84\n      jumpi\n      dup1\n      0xbd1b50ff\n      gt\n      tag_85\n      jumpi\n      dup1\n      0xe2b3086b\n      gt\n      tag_86\n      jumpi\n      dup1\n      0xf48ac309\n      gt\n      tag_87\n      jumpi\n      dup1\n      0xf48ac309\n      eq\n      tag_78\n      jumpi\n      dup1\n      0xf5dc9a6f\n      eq\n      tag_79\n      jumpi\n      dup1\n      0xfa8807b8\n      eq\n      tag_5\n      jumpi\n      dup1\n      0xfa9dfd0b\n      eq\n      tag_81\n      jumpi\n      dup1\n      0xfb293ca5\n      eq\n      tag_82\n      jumpi\n      dup1\n      0xffb0736e\n      eq\n      tag_83\n      jumpi\n      0x00\n      dup1\n      revert\n    tag_87:\n      dup1\n      0xe2b3086b\n      eq\n      tag_73\n      jumpi\n      dup1\n      0xe6f8bdfc\n      eq\n      tag_74\n      jumpi\n      dup1\n      0xe74b31d7\n      eq\n      tag_7\n      jumpi\n      dup1\n      0xe8ae9d76\n      eq\n      tag_76\n      jumpi\n      dup1\n      0xee55f675\n      eq\n      tag_77\n      jumpi\n      0x00\n      dup1\n      revert\n    tag_86:\n      dup1\n      0xceeb2431\n      gt\n      tag_88\n      jumpi\n      dup1\n      0xceeb2431\n      eq\n      tag_68\n      jumpi\n      dup1\n      0xdf2d2fcf\n      eq\n      tag_69\n      jumpi\n      dup1\n      0xdf486a89\n      eq\n      tag_70\n      jumpi\n      dup1\n      0xe0cf67fe\n      eq\n      tag_71\n      jumpi\n      dup1\n      0xe0ec8012\n      eq\n      tag_72\n      jumpi\n      0x00\n      dup1\n      revert\n    tag_88:\n      dup1\n      0xbd1b50ff\n      eq\n      tag_58\n      jumpi\n      dup1\n      0xbe86819b\n      eq\n      tag_64\n      jumpi\n      dup1\n      0xbf3f01ab\n      eq\n      tag_65\n      jumpi\n      dup1\n      0xbf9134df\n      eq\n      tag_66\n      jumpi\n      dup1\n      0xbff937b0\n      eq\n      tag_67\n      jumpi\n      0x00\n      dup1\n      revert\n    tag_85:\n      dup1\n      0x8d4f2726\n      gt\n      tag_89\n      jumpi\n      dup1\n      0x9bc59d00\n      gt\n      tag_90\n      jumpi\n      dup1\n      0x9bc59d00\n      eq\n      tag_58\n      jumpi\n      dup1\n      0x9c11ccf7\n      eq\n      tag_59\n      jumpi\n      dup1\n      0xab53cb2b\n      eq\n      tag_12\n      jumpi\n      dup1\n      0xaf387b12\n      eq\n      tag_61\n      jumpi\n      dup1\n      0xb6bf7e1d\n      eq\n      tag_62\n      jumpi\n      0x00\n      dup1\n      revert\n    tag_90:\n      dup1\n      0x8d4f2726\n      eq\n      tag_53\n      jumpi\n      dup1\n      0x91d3e449\n      eq\n      tag_54\n      jumpi\n      dup1\n      0x927ee859\n      eq\n      tag_55\n      jumpi\n      dup1\n      0x93ce1a50\n      eq\n      tag_56\n      jumpi\n      dup1\n      0x9a45e7b8\n      eq\n      tag_57\n      jumpi\n      0x00\n      dup1\n      revert\n    tag_89:\n      dup1\n      0x81323911\n      gt\n      tag_91\n      jumpi\n      dup1\n      0x81323911\n      eq\n      tag_48\n      jumpi\n      dup1\n      0x86d423ab\n      eq\n      tag_49\n      jumpi\n      dup1\n      0x88ba5919\n      eq\n      tag_50\n      jumpi\n      dup1\n      0x896296af\n      eq\n      tag_51\n      jumpi\n      dup1\n      0x8d3b2e0f\n      eq\n      tag_52\n      jumpi\n      0x00\n      dup1\n      revert\n    tag_91:\n      dup1\n      0x6933dc7c\n      eq\n      tag_43\n      jumpi\n      dup1\n      0x6cb0fbac\n      eq\n      tag_44\n      jumpi\n      dup1\n      0x70b915e1\n      eq\n      tag_45\n      jumpi\n      dup1\n      0x71564789\n      eq\n      tag_46\n      jumpi\n      dup1\n      0x7eabe6d4\n      eq\n      tag_47\n      jumpi\n      0x00\n      dup1\n      revert\n    tag_84:\n      dup1\n      0x3a9ae28c\n      gt\n      tag_92\n      jumpi\n      dup1\n      0x4d22d57b\n      gt\n      tag_93\n      jumpi\n      dup1\n      0x596b371d\n      gt\n      tag_94\n      jumpi\n      dup1\n      0x596b371d\n      eq\n      tag_38\n      jumpi\n      dup1\n      0x5da54cde\n      eq\n      tag_39\n      jumpi\n      dup1\n      0x5ffaceda\n      eq\n      tag_40\n      jumpi\n      dup1\n      0x633f7a84\n      eq\n      tag_41\n      jumpi\n      dup1\n      0x656a33e4\n      eq\n      tag_42\n      jumpi\n      0x00\n      dup1\n      revert\n    tag_94:\n      dup1\n      0x4d22d57b\n      eq\n      tag_33\n      jumpi\n      dup1\n      0x50b0b9b3\n      eq\n      tag_34\n      jumpi\n      dup1\n      0x522bc530\n      eq\n      tag_35\n      jumpi\n      dup1\n      0x538e59c4\n      eq\n      tag_36\n      jumpi\n      dup1\n      0x54a87336\n      eq\n      tag_37\n      jumpi\n      0x00\n      dup1\n      revert\n    tag_93:\n      dup1\n      0x404503c6\n      gt\n      tag_95\n      jumpi\n      dup1\n      0x404503c6\n      eq\n      tag_28\n      jumpi\n      dup1\n      0x47669121\n      eq\n      tag_29\n      jumpi\n      dup1\n      0x4869dbed\n      eq\n      tag_30\n      jumpi\n      dup1\n      0x4ab7ca6e\n      eq\n      tag_31\n      jumpi\n      dup1\n      0x4ce08900\n      eq\n      tag_32\n      jumpi\n      0x00\n      dup1\n      revert\n    tag_95:\n      dup1\n      0x3a9ae28c\n      eq\n      tag_23\n      jumpi\n      dup1\n      0x3ac3fa1f\n      eq\n      tag_24\n      jumpi\n      dup1\n      0x3daa8767\n      eq\n      tag_25\n      jumpi\n      dup1\n      0x3ee6a0f5\n      eq\n      tag_26\n      jumpi\n      dup1\n      0x3f026ce5\n      eq\n      tag_27\n      jumpi\n      0x00\n      dup1\n      revert\n    tag_92:\n      dup1\n      0x16451163\n      gt\n      tag_96\n      jumpi\n      dup1\n      0x201c87f1\n      gt\n      tag_97\n      jumpi\n      dup1\n      0x201c87f1\n      eq\n      tag_18\n      jumpi\n      dup1\n      0x20cf0ad6\n      eq\n      tag_19\n      jumpi\n      dup1\n      0x35eb2c1d\n      eq\n      tag_20\n      jumpi\n      dup1\n      0x3758ba43\n      eq\n      tag_21\n      jumpi\n      dup1\n      0x39a56365\n      eq\n      tag_22\n      jumpi\n      0x00\n      dup1\n      revert\n    tag_97:\n      dup1\n      0x16451163\n      eq\n      tag_13\n      jumpi\n      dup1\n      0x16a2fc34\n      eq\n      tag_14\n      jumpi\n      dup1\n      0x175a22ef\n      eq\n      tag_15\n      jumpi\n      dup1\n      0x1a840e08\n      eq\n      tag_16\n      jumpi\n      dup1\n      0x1dd5d01f\n      eq\n      tag_17\n      jumpi\n      0x00\n      dup1\n      revert\n    tag_96:\n      dup1\n      0x0a020e5e\n      gt\n      tag_98\n      jumpi\n      dup1\n      0x0a020e5e\n      eq\n      tag_8\n      jumpi\n      dup1\n      0x0a7b1f8a\n      eq\n      tag_9\n      jumpi\n      dup1\n      0x0e9bd4e2\n      eq\n      tag_10\n      jumpi\n      dup1\n      0x138a7465\n      eq\n      tag_11\n      jumpi\n      dup1\n      0x14d869b3\n      eq\n      tag_12\n      jumpi\n      0x00\n      dup1\n      revert\n    tag_98:\n      dup1\n      0x014a00c7\n      eq\n      tag_3\n      jumpi\n      dup1\n      0x032a772f\n      eq\n      tag_4\n      jumpi\n      dup1\n      0x0561cfc3\n      eq\n      tag_5\n      jumpi\n      dup1\n      0x06ba9895\n      eq\n      tag_6\n      jumpi\n      dup1\n      0x06f605f0\n      eq\n      tag_7\n      jumpi\n    tag_2:\n      0x00\n      dup1\n      revert\n        /* \"GlobalStorage.sol\":12734:12885  function setUint8ArrayDataProject(bytes32 _key, uint16 _num, uint8 _newValue) external {... */\n    tag_3:\n      tag_99\n      tag_100\n      calldatasize\n      0x04\n      tag_101\n      jump\t// in\n    tag_100:\n      tag_102\n      jump\t// in\n    tag_99:\n      stop\n        /* \"GlobalStorage.sol\":7945:8058  function setUintDataUser(bytes32 _key, uint _newValue) external {... */\n    tag_4:\n      tag_99\n      tag_104\n      calldatasize\n      0x04\n      tag_105\n      jump\t// in\n    tag_104:\n        /* \"GlobalStorage.sol\":8020:8038  uintDataUser[_key] */\n      0x00\n      swap2\n      dup3\n      mstore\n        /* \"GlobalStorage.sol\":8020:8032  uintDataUser */\n      0x0a\n        /* \"GlobalStorage.sol\":8020:8038  uintDataUser[_key] */\n      0x20\n      mstore\n      0x40\n      swap1\n      swap2\n      keccak256\n        /* \"GlobalStorage.sol\":8020:8050  uintDataUser[_key] = _newValue */\n      sstore\n        /* \"GlobalStorage.sol\":7945:8058  function setUintDataUser(bytes32 _key, uint _newValue) external {... */\n      jump\n        /* \"GlobalStorage.sol\":14553:14707  function setBytes32ArrayDataProject(bytes32 _key, uint16 _num, bytes32 _newValue) external {... */\n    tag_5:\n      tag_99\n      tag_108\n      calldatasize\n      0x04\n      tag_109\n      jump\t// in\n    tag_108:\n      tag_110\n      jump\t// in\n        /* \"GlobalStorage.sol\":11435:11598  function setStringArrayDataProject(bytes32 _key, uint16 _num, string memory _newString) external {... */\n    tag_6:\n      tag_99\n      tag_112\n      calldatasize\n      0x04\n      tag_113\n      jump\t// in\n    tag_112:\n      tag_114\n      jump\t// in\n        /* \"GlobalStorage.sol\":14873:15012  function addBytes32ArrayDataProject(bytes32 _key, bytes32 _newValue) external {... */\n    tag_7:\n      tag_99\n      tag_116\n      calldatasize\n      0x04\n      tag_105\n      jump\t// in\n    tag_116:\n        /* \"GlobalStorage.sol\":14962:14988  bytes32ArrayDataUser[_key] */\n      0x00\n      swap2\n      dup3\n      mstore\n        /* \"GlobalStorage.sol\":14962:14982  bytes32ArrayDataUser */\n      0x0d\n        /* \"GlobalStorage.sol\":14962:14988  bytes32ArrayDataUser[_key] */\n      0x20\n      swap1\n      dup2\n      mstore\n      0x40\n      dup4\n      keccak256\n        /* \"GlobalStorage.sol\":14962:15004  bytes32ArrayDataUser[_key].push(_newValue) */\n      dup1\n      sload\n      0x01\n      dup2\n      add\n      dup3\n      sstore\n      swap1\n      dup5\n      mstore\n      swap3\n      keccak256\n      swap1\n      swap2\n      add\n      sstore\n        /* \"GlobalStorage.sol\":14873:15012  function addBytes32ArrayDataProject(bytes32 _key, bytes32 _newValue) external {... */\n      jump\n        /* \"GlobalStorage.sol\":10657:10781  function getUint16DataProject(bytes32 _key) external view returns (uint16) {... */\n    tag_8:\n      tag_119\n      tag_120\n      calldatasize\n      0x04\n      tag_121\n      jump\t// in\n    tag_120:\n        /* \"GlobalStorage.sol\":10724:10730  uint16 */\n      0x00\n        /* \"GlobalStorage.sol\":10750:10773  uint16DataProject[_key] */\n      swap1\n      dup2\n      mstore\n        /* \"GlobalStorage.sol\":10750:10767  uint16DataProject */\n      0x16\n        /* \"GlobalStorage.sol\":10750:10773  uint16DataProject[_key] */\n      0x20\n      mstore\n      0x40\n      swap1\n      keccak256\n      sload\n      0xffff\n      and\n      swap1\n        /* \"GlobalStorage.sol\":10657:10781  function getUint16DataProject(bytes32 _key) external view returns (uint16) {... */\n      jump\n    tag_119:\n      mload(0x40)\n        /* \"#utility.yul\":3271:3277   */\n      0xffff\n        /* \"#utility.yul\":3259:3278   */\n      swap1\n      swap2\n      and\n        /* \"#utility.yul\":3241:3279   */\n      dup2\n      mstore\n        /* \"#utility.yul\":3229:3231   */\n      0x20\n        /* \"#utility.yul\":3214:3232   */\n      add\n        /* \"GlobalStorage.sol\":10657:10781  function getUint16DataProject(bytes32 _key) external view returns (uint16) {... */\n    tag_123:\n      mload(0x40)\n      dup1\n      swap2\n      sub\n      swap1\n      return\n        /* \"GlobalStorage.sol\":10204:10350  function getAddressArrayDataProject(bytes32 _key) external view returns (address[] memory) {... */\n    tag_9:\n      tag_125\n      tag_126\n      calldatasize\n      0x04\n      tag_121\n      jump\t// in\n    tag_126:\n      tag_127\n      jump\t// in\n    tag_125:\n      mload(0x40)\n      tag_123\n      swap2\n      swap1\n      tag_129\n      jump\t// in\n        /* \"GlobalStorage.sol\":13661:13800  function addUint16ArrayDataProject(bytes32 _key, uint16 _newValue) external {... */\n    tag_10:\n      tag_99\n      tag_131\n      calldatasize\n      0x04\n      tag_132\n      jump\t// in\n    tag_131:\n        /* \"GlobalStorage.sol\":13748:13776  uint16ArrayDataProject[_key] */\n      0x00\n      swap2\n      dup3\n      mstore\n        /* \"GlobalStorage.sol\":13748:13770  uint16ArrayDataProject */\n      0x17\n        /* \"GlobalStorage.sol\":13748:13776  uint16ArrayDataProject[_key] */\n      0x20\n      swap1\n      dup2\n      mstore\n      0x40\n      dup4\n      keccak256\n        /* \"GlobalStorage.sol\":13748:13792  uint16ArrayDataProject[_key].push(_newValue) */\n      dup1\n      sload\n      0x01\n      dup2\n      add\n      dup3\n      sstore\n      swap1\n      dup5\n      mstore\n      swap3\n      keccak256\n      0x10\n      dup4\n      div\n      add\n      dup1\n      sload\n      0x0f\n      swap1\n      swap4\n      and\n      0x02\n      mul\n      0x0100\n      exp\n      0xffff\n      dup2\n      dup2\n      mul\n      not\n      swap1\n      swap5\n      and\n      swap3\n      swap1\n      swap4\n      and\n      swap3\n      swap1\n      swap3\n      mul\n      or\n      swap1\n      sstore\n        /* \"GlobalStorage.sol\":13661:13800  function addUint16ArrayDataProject(bytes32 _key, uint16 _newValue) external {... */\n      jump\n        /* \"GlobalStorage.sol\":11763:11911  function addStringArrayDataProject(bytes32 _key, string memory _newString) external {... */\n    tag_11:\n      tag_99\n      tag_135\n      calldatasize\n      0x04\n      tag_136\n      jump\t// in\n    tag_135:\n      tag_137\n      jump\t// in\n        /* \"GlobalStorage.sol\":8521:8643  function setBytes32DataUser(bytes32 _key, bytes32 _newValue) external {... */\n    tag_12:\n      tag_99\n      tag_139\n      calldatasize\n      0x04\n      tag_105\n      jump\t// in\n    tag_139:\n        /* \"GlobalStorage.sol\":8602:8623  bytes32DataUser[_key] */\n      0x00\n      swap2\n      dup3\n      mstore\n        /* \"GlobalStorage.sol\":8602:8617  bytes32DataUser */\n      0x0c\n        /* \"GlobalStorage.sol\":8602:8623  bytes32DataUser[_key] */\n      0x20\n      mstore\n      0x40\n      swap1\n      swap2\n      keccak256\n        /* \"GlobalStorage.sol\":8602:8635  bytes32DataUser[_key] = _newValue */\n      sstore\n        /* \"GlobalStorage.sol\":8521:8643  function setBytes32DataUser(bytes32 _key, bytes32 _newValue) external {... */\n      jump\n        /* \"GlobalStorage.sol\":3576:3713  function getStringArrayDataUser(bytes32 _key) external view returns (string[] memory) {... */\n    tag_13:\n      tag_141\n      tag_142\n      calldatasize\n      0x04\n      tag_121\n      jump\t// in\n    tag_142:\n      tag_143\n      jump\t// in\n    tag_141:\n      mload(0x40)\n      tag_123\n      swap2\n      swap1\n      tag_145\n      jump\t// in\n        /* \"GlobalStorage.sol\":5806:5952  function setFullStringArrayDataUser(bytes32 _key, string[] memory _newStrings) external {... */\n    tag_14:\n      tag_99\n      tag_147\n      calldatasize\n      0x04\n      tag_148\n      jump\t// in\n    tag_147:\n      tag_149\n      jump\t// in\n        /* \"GlobalStorage.sol\":10791:10934  function getUint16ArrayDataProject(bytes32 _key) external view returns (uint16[] memory) {... */\n    tag_15:\n      tag_150\n      tag_151\n      calldatasize\n      0x04\n      tag_121\n      jump\t// in\n    tag_151:\n      tag_152\n      jump\t// in\n    tag_150:\n      mload(0x40)\n      tag_123\n      swap2\n      swap1\n      tag_154\n      jump\t// in\n        /* \"GlobalStorage.sol\":12893:13040  function setFullUint8ArrayDataProject(bytes32 _key, uint8[] memory _newValues) external {... */\n    tag_16:\n      tag_99\n      tag_156\n      calldatasize\n      0x04\n      tag_157\n      jump\t// in\n    tag_156:\n      tag_158\n      jump\t// in\n        /* \"GlobalStorage.sol\":4996:5136  function getBytes32ArrayDataUser(bytes32 _key) external view returns (bytes32[] memory) {... */\n    tag_17:\n      tag_159\n      tag_160\n      calldatasize\n      0x04\n      tag_121\n      jump\t// in\n    tag_160:\n      tag_161\n      jump\t// in\n    tag_159:\n      mload(0x40)\n      tag_123\n      swap2\n      swap1\n      tag_163\n      jump\t// in\n        /* \"GlobalStorage.sol\":9542:9669  function addBoolArrayDataUser(bytes32 _key, bool _newValue) external {... */\n    tag_18:\n      tag_99\n      tag_165\n      calldatasize\n      0x04\n      tag_166\n      jump\t// in\n    tag_165:\n        /* \"GlobalStorage.sol\":9622:9645  boolArrayDataUser[_key] */\n      0x00\n      swap2\n      dup3\n      mstore\n        /* \"GlobalStorage.sol\":9622:9639  boolArrayDataUser */\n      0x0f\n        /* \"GlobalStorage.sol\":9622:9645  boolArrayDataUser[_key] */\n      0x20\n      swap1\n      dup2\n      mstore\n      0x40\n      dup4\n      keccak256\n        /* \"GlobalStorage.sol\":9622:9661  boolArrayDataUser[_key].push(_newValue) */\n      dup1\n      sload\n      0x01\n      dup2\n      add\n      dup3\n      sstore\n      swap1\n      dup5\n      mstore\n      swap3\n      dup2\n      swap1\n      keccak256\n      swap1\n      dup4\n      div\n      add\n      dup1\n      sload\n      0xff\n      0x1f\n      swap1\n      swap5\n      and\n      0x0100\n      exp\n      swap4\n      dup5\n      mul\n      not\n      and\n      swap2\n      iszero\n      iszero\n      swap3\n      swap1\n      swap3\n      mul\n      or\n      swap1\n      sstore\n        /* \"GlobalStorage.sol\":9542:9669  function addBoolArrayDataUser(bytes32 _key, bool _newValue) external {... */\n      jump\n        /* \"GlobalStorage.sol\":6268:6423  function setAddressArrayDataUser(bytes32 _key, uint16 _num, address _newAddress) external {... */\n    tag_19:\n      tag_99\n      tag_169\n      calldatasize\n      0x04\n      tag_170\n      jump\t// in\n    tag_169:\n      tag_171\n      jump\t// in\n        /* \"GlobalStorage.sol\":5641:5798  function setStringArrayDataUser(bytes32 _key, uint16 _num, string memory _newString) external {... */\n    tag_20:\n      tag_99\n      tag_173\n      calldatasize\n      0x04\n      tag_113\n      jump\t// in\n    tag_173:\n      tag_174\n      jump\t// in\n        /* \"GlobalStorage.sol\":9246:9388  function setBoolArrayDataUser(bytes32 _key, uint16 _num, bool _newValue) external {... */\n    tag_21:\n      tag_99\n      tag_176\n      calldatasize\n      0x04\n      tag_177\n      jump\t// in\n    tag_176:\n      tag_178\n      jump\t// in\n        /* \"GlobalStorage.sol\":7201:7331  function addUint8ArrayDataUser(bytes32 _key, uint8 _newValue) external {... */\n    tag_22:\n      tag_99\n      tag_180\n      calldatasize\n      0x04\n      tag_181\n      jump\t// in\n    tag_180:\n        /* \"GlobalStorage.sol\":7283:7307  uint8ArrayDataUser[_key] */\n      0x00\n      swap2\n      dup3\n      mstore\n        /* \"GlobalStorage.sol\":7283:7301  uint8ArrayDataUser */\n      0x07\n        /* \"GlobalStorage.sol\":7283:7307  uint8ArrayDataUser[_key] */\n      0x20\n      swap1\n      dup2\n      mstore\n      0x40\n      dup4\n      keccak256\n        /* \"GlobalStorage.sol\":7283:7323  uint8ArrayDataUser[_key].push(_newValue) */\n      dup1\n      sload\n      0x01\n      dup2\n      add\n      dup3\n      sstore\n      swap1\n      dup5\n      mstore\n      swap3\n      dup2\n      swap1\n      keccak256\n      swap1\n      dup4\n      div\n      add\n      dup1\n      sload\n      0xff\n      swap3\n      dup4\n      and\n      0x1f\n      swap1\n      swap5\n      and\n      0x0100\n      exp\n      swap4\n      dup5\n      mul\n      swap3\n      swap1\n      swap4\n      mul\n      not\n      swap1\n      swap3\n      and\n      or\n      swap1\n      sstore\n        /* \"GlobalStorage.sol\":7201:7331  function addUint8ArrayDataUser(bytes32 _key, uint8 _newValue) external {... */\n      jump\n        /* \"GlobalStorage.sol\":5278:5409  function getBoolArrayDataUser(bytes32 _key) external view returns (bool[] memory) {... */\n    tag_23:\n      tag_183\n      tag_184\n      calldatasize\n      0x04\n      tag_121\n      jump\t// in\n    tag_184:\n      tag_185\n      jump\t// in\n    tag_183:\n      mload(0x40)\n      tag_123\n      swap2\n      swap1\n      tag_187\n      jump\t// in\n        /* \"GlobalStorage.sol\":3880:4020  function getAddressArrayDataUser(bytes32 _key) external view returns (address[] memory) {... */\n    tag_24:\n      tag_125\n      tag_189\n      calldatasize\n      0x04\n      tag_121\n      jump\t// in\n    tag_189:\n      tag_190\n      jump\t// in\n        /* \"GlobalStorage.sol\":5505:5633  function setStringDataUser(bytes32 _key, string memory _newString) external {... */\n    tag_25:\n      tag_99\n      tag_193\n      calldatasize\n      0x04\n      tag_136\n      jump\t// in\n    tag_193:\n      tag_194\n      jump\t// in\n        /* \"GlobalStorage.sol\":12083:12244  function setAddressArrayDataProject(bytes32 _key, uint16 _num, address _newAddress) external {... */\n    tag_26:\n      tag_99\n      tag_196\n      calldatasize\n      0x04\n      tag_170\n      jump\t// in\n    tag_196:\n      tag_197\n      jump\t// in\n        /* \"GlobalStorage.sol\":3443:3568  function getStringDataUser(bytes32 _key) external view returns (string memory) {... */\n    tag_27:\n      tag_198\n      tag_199\n      calldatasize\n      0x04\n      tag_121\n      jump\t// in\n    tag_199:\n      tag_200\n      jump\t// in\n    tag_198:\n      mload(0x40)\n      tag_123\n      swap2\n      swap1\n      tag_202\n      jump\t// in\n        /* \"GlobalStorage.sol\":13503:13653  function setFullUint16ArrayDataProject(bytes32 _key, uint16[] memory _newValues) external {... */\n    tag_28:\n      tag_99\n      tag_204\n      calldatasize\n      0x04\n      tag_205\n      jump\t// in\n    tag_204:\n      tag_206\n      jump\t// in\n        /* \"GlobalStorage.sol\":9396:9534  function setFullBoolArrayDataUser(bytes32 _key, bool[] memory _newValues) external {... */\n    tag_29:\n      tag_99\n      tag_208\n      calldatasize\n      0x04\n      tag_209\n      jump\t// in\n    tag_208:\n      tag_210\n      jump\t// in\n        /* \"GlobalStorage.sol\":7790:7923  function addUint16ArrayDataUser(bytes32 _key, uint16 _newValue) external {... */\n    tag_30:\n      tag_99\n      tag_212\n      calldatasize\n      0x04\n      tag_132\n      jump\t// in\n    tag_212:\n        /* \"GlobalStorage.sol\":7874:7899  uint16ArrayDataUser[_key] */\n      0x00\n      swap2\n      dup3\n      mstore\n        /* \"GlobalStorage.sol\":7874:7893  uint16ArrayDataUser */\n      0x09\n        /* \"GlobalStorage.sol\":7874:7899  uint16ArrayDataUser[_key] */\n      0x20\n      swap1\n      dup2\n      mstore\n      0x40\n      dup4\n      keccak256\n        /* \"GlobalStorage.sol\":7874:7915  uint16ArrayDataUser[_key].push(_newValue) */\n      dup1\n      sload\n      0x01\n      dup2\n      add\n      dup3\n      sstore\n      swap1\n      dup5\n      mstore\n      swap3\n      keccak256\n      0x10\n      dup4\n      div\n      add\n      dup1\n      sload\n      0x0f\n      swap1\n      swap4\n      and\n      0x02\n      mul\n      0x0100\n      exp\n      0xffff\n      dup2\n      dup2\n      mul\n      not\n      swap1\n      swap5\n      and\n      swap3\n      swap1\n      swap4\n      and\n      swap3\n      swap1\n      swap3\n      mul\n      or\n      swap1\n      sstore\n        /* \"GlobalStorage.sol\":7790:7923  function addUint16ArrayDataUser(bytes32 _key, uint16 _newValue) external {... */\n      jump\n        /* \"GlobalStorage.sol\":11943:12075  function setAddressDataProject(bytes32 _key, address _newAddress) external {... */\n    tag_31:\n      tag_99\n      tag_215\n      calldatasize\n      0x04\n      tag_216\n      jump\t// in\n    tag_215:\n        /* \"GlobalStorage.sol\":12029:12053  addressDataProject[_key] */\n      0x00\n      swap2\n      dup3\n      mstore\n        /* \"GlobalStorage.sol\":12029:12047  addressDataProject */\n      0x12\n        /* \"GlobalStorage.sol\":12029:12053  addressDataProject[_key] */\n      0x20\n      mstore\n      0x40\n      swap1\n      swap2\n      keccak256\n        /* \"GlobalStorage.sol\":12029:12067  addressDataProject[_key] = _newAddress */\n      dup1\n      sload\n      not(sub(shl(0xa0, 0x01), 0x01))\n      and\n      sub(shl(0xa0, 0x01), 0x01)\n      swap1\n      swap3\n      and\n      swap2\n      swap1\n      swap2\n      or\n      swap1\n      sstore\n        /* \"GlobalStorage.sol\":11943:12075  function setAddressDataProject(bytes32 _key, address _newAddress) external {... */\n      jump\n        /* \"GlobalStorage.sol\":11606:11755  function setFullStringArrayDataProject(bytes32 _key, string[] memory _newString) external {... */\n    tag_32:\n      tag_99\n      tag_219\n      calldatasize\n      0x04\n      tag_148\n      jump\t// in\n    tag_219:\n      tag_220\n      jump\t// in\n        /* \"GlobalStorage.sol\":4867:4988  function getBytes32DataUser(bytes32 _key) external view returns (bytes32) {... */\n    tag_33:\n      tag_221\n      tag_222\n      calldatasize\n      0x04\n      tag_121\n      jump\t// in\n    tag_222:\n        /* \"GlobalStorage.sol\":4932:4939  bytes32 */\n      0x00\n        /* \"GlobalStorage.sol\":4959:4980  bytes32DataUser[_key] */\n      swap1\n      dup2\n      mstore\n        /* \"GlobalStorage.sol\":4959:4974  bytes32DataUser */\n      0x0c\n        /* \"GlobalStorage.sol\":4959:4980  bytes32DataUser[_key] */\n      0x20\n      mstore\n      0x40\n      swap1\n      keccak256\n      sload\n      swap1\n        /* \"GlobalStorage.sol\":4867:4988  function getBytes32DataUser(bytes32 _key) external view returns (bytes32) {... */\n      jump\n    tag_221:\n      mload(0x40)\n        /* \"#utility.yul\":14197:14222   */\n      swap1\n      dup2\n      mstore\n        /* \"#utility.yul\":14185:14187   */\n      0x20\n        /* \"#utility.yul\":14170:14188   */\n      add\n        /* \"GlobalStorage.sol\":4867:4988  function getBytes32DataUser(bytes32 _key) external view returns (bytes32) {... */\n      tag_123\n        /* \"#utility.yul\":14051:14228   */\n      jump\n        /* \"GlobalStorage.sol\":13208:13333  function setUint16DataProject(bytes32 _key, uint16 _newValue) external {... */\n    tag_34:\n      tag_99\n      tag_227\n      calldatasize\n      0x04\n      tag_132\n      jump\t// in\n    tag_227:\n        /* \"GlobalStorage.sol\":13290:13313  uint16DataProject[_key] */\n      0x00\n      swap2\n      dup3\n      mstore\n        /* \"GlobalStorage.sol\":13290:13307  uint16DataProject */\n      0x16\n        /* \"GlobalStorage.sol\":13290:13313  uint16DataProject[_key] */\n      0x20\n      mstore\n      0x40\n      swap1\n      swap2\n      keccak256\n        /* \"GlobalStorage.sol\":13290:13325  uint16DataProject[_key] = _newValue */\n      dup1\n      sload\n      not(0xffff)\n      and\n      0xffff\n      swap1\n      swap3\n      and\n      swap2\n      swap1\n      swap2\n      or\n      swap1\n      sstore\n        /* \"GlobalStorage.sol\":13208:13333  function setUint16DataProject(bytes32 _key, uint16 _newValue) external {... */\n      jump\n        /* \"GlobalStorage.sol\":13822:13941  function setUintDataProject(bytes32 _key, uint _newValue) external {... */\n    tag_35:\n      tag_99\n      tag_230\n      calldatasize\n      0x04\n      tag_105\n      jump\t// in\n    tag_230:\n        /* \"GlobalStorage.sol\":13900:13921  uintDataProject[_key] */\n      0x00\n      swap2\n      dup3\n      mstore\n        /* \"GlobalStorage.sol\":13900:13915  uintDataProject */\n      0x18\n        /* \"GlobalStorage.sol\":13900:13921  uintDataProject[_key] */\n      0x20\n      mstore\n      0x40\n      swap1\n      swap2\n      keccak256\n        /* \"GlobalStorage.sol\":13900:13933  uintDataProject[_key] = _newValue */\n      sstore\n        /* \"GlobalStorage.sol\":13822:13941  function setUintDataProject(bytes32 _key, uint _newValue) external {... */\n      jump\n        /* \"GlobalStorage.sol\":3751:3872  function getAddressDataUser(bytes32 _key) external view returns (address) {... */\n    tag_36:\n      tag_232\n      tag_233\n      calldatasize\n      0x04\n      tag_121\n      jump\t// in\n    tag_233:\n        /* \"GlobalStorage.sol\":3816:3823  address */\n      0x00\n        /* \"GlobalStorage.sol\":3843:3864  addressDataUser[_key] */\n      swap1\n      dup2\n      mstore\n        /* \"GlobalStorage.sol\":3843:3858  addressDataUser */\n      0x04\n        /* \"GlobalStorage.sol\":3843:3864  addressDataUser[_key] */\n      0x20\n      mstore\n      0x40\n      swap1\n      keccak256\n      sload\n      sub(shl(0xa0, 0x01), 0x01)\n      and\n      swap1\n        /* \"GlobalStorage.sol\":3751:3872  function getAddressDataUser(bytes32 _key) external view returns (address) {... */\n      jump\n    tag_232:\n      mload(0x40)\n      sub(shl(0xa0, 0x01), 0x01)\n        /* \"#utility.yul\":14397:14429   */\n      swap1\n      swap2\n      and\n        /* \"#utility.yul\":14379:14430   */\n      dup2\n      mstore\n        /* \"#utility.yul\":14367:14369   */\n      0x20\n        /* \"#utility.yul\":14352:14370   */\n      add\n        /* \"GlobalStorage.sol\":3751:3872  function getAddressDataUser(bytes32 _key) external view returns (address) {... */\n      tag_123\n        /* \"#utility.yul\":14233:14436   */\n      jump\n        /* \"GlobalStorage.sol\":8066:8208  function setUintArrayDataUser(bytes32 _key, uint16 _num, uint _newValue) external {... */\n    tag_37:\n      tag_99\n      tag_238\n      calldatasize\n      0x04\n      tag_109\n      jump\t// in\n    tag_238:\n      tag_240\n      jump\t// in\n        /* \"GlobalStorage.sol\":5960:6102  function addStringArrayDataUser(bytes32 _key, string memory _newString) external {... */\n    tag_38:\n      tag_99\n      tag_242\n      calldatasize\n      0x04\n      tag_136\n      jump\t// in\n    tag_242:\n      tag_243\n      jump\t// in\n        /* \"GlobalStorage.sol\":14105:14249  function setFullUintArrayDataProject(bytes32 _key, uint[] memory _newValues) external {... */\n    tag_39:\n      tag_99\n      tag_245\n      calldatasize\n      0x04\n      tag_246\n      jump\t// in\n    tag_245:\n      tag_247\n      jump\t// in\n        /* \"GlobalStorage.sol\":6431:6584  function setFullAddressArrayDataUser(bytes32 _key, address[] memory _newAddresses) external {... */\n    tag_40:\n      tag_99\n      tag_249\n      calldatasize\n      0x04\n      tag_250\n      jump\t// in\n    tag_249:\n      tag_251\n      jump\t// in\n        /* \"GlobalStorage.sol\":13341:13495  function setUint16ArrayDataProject(bytes32 _key, uint16 _num, uint16 _newValue) external {... */\n    tag_41:\n      tag_99\n      tag_253\n      calldatasize\n      0x04\n      tag_254\n      jump\t// in\n    tag_253:\n      tag_255\n      jump\t// in\n        /* \"GlobalStorage.sol\":6134:6260  function setAddressDataUser(bytes32 _key, address _newAddress) external {... */\n    tag_42:\n      tag_99\n      tag_257\n      calldatasize\n      0x04\n      tag_216\n      jump\t// in\n    tag_257:\n        /* \"GlobalStorage.sol\":6217:6238  addressDataUser[_key] */\n      0x00\n      swap2\n      dup3\n      mstore\n        /* \"GlobalStorage.sol\":6217:6232  addressDataUser */\n      0x04\n        /* \"GlobalStorage.sol\":6217:6238  addressDataUser[_key] */\n      0x20\n      mstore\n      0x40\n      swap1\n      swap2\n      keccak256\n        /* \"GlobalStorage.sol\":6217:6252  addressDataUser[_key] = _newAddress */\n      dup1\n      sload\n      not(sub(shl(0xa0, 0x01), 0x01))\n      and\n      sub(shl(0xa0, 0x01), 0x01)\n      swap1\n      swap3\n      and\n      swap2\n      swap1\n      swap2\n      or\n      swap1\n      sstore\n        /* \"GlobalStorage.sol\":6134:6260  function setAddressDataUser(bytes32 _key, address _newAddress) external {... */\n      jump\n        /* \"GlobalStorage.sol\":10069:10196  function getAddressDataProject(bytes32 _key) external view returns (address) {... */\n    tag_43:\n      tag_232\n      tag_260\n      calldatasize\n      0x04\n      tag_121\n      jump\t// in\n    tag_260:\n        /* \"GlobalStorage.sol\":10137:10144  address */\n      0x00\n        /* \"GlobalStorage.sol\":10164:10188  addressDataProject[_key] */\n      swap1\n      dup2\n      mstore\n        /* \"GlobalStorage.sol\":10164:10182  addressDataProject */\n      0x12\n        /* \"GlobalStorage.sol\":10164:10188  addressDataProject[_key] */\n      0x20\n      mstore\n      0x40\n      swap1\n      keccak256\n      sload\n      sub(shl(0xa0, 0x01), 0x01)\n      and\n      swap1\n        /* \"GlobalStorage.sol\":10069:10196  function getAddressDataProject(bytes32 _key) external view returns (address) {... */\n      jump\n        /* \"GlobalStorage.sol\":11068:11205  function getUintArrayDataProject(bytes32 _key) external view returns (uint[] memory) {... */\n    tag_44:\n      tag_159\n      tag_264\n      calldatasize\n      0x04\n      tag_121\n      jump\t// in\n    tag_264:\n      tag_265\n      jump\t// in\n        /* \"GlobalStorage.sol\":8216:8354  function setFullUintArrayDataUser(bytes32 _key, uint[] memory _newValues) external {... */\n    tag_45:\n      tag_99\n      tag_269\n      calldatasize\n      0x04\n      tag_246\n      jump\t// in\n    tag_269:\n      tag_270\n      jump\t// in\n        /* \"GlobalStorage.sol\":7355:7474  function setUint16DataUser(bytes32 _key, uint16 _newValue) external {... */\n    tag_46:\n      tag_99\n      tag_272\n      calldatasize\n      0x04\n      tag_132\n      jump\t// in\n    tag_272:\n        /* \"GlobalStorage.sol\":7434:7454  uint16DataUser[_key] */\n      0x00\n      swap2\n      dup3\n      mstore\n        /* \"GlobalStorage.sol\":7434:7448  uint16DataUser */\n      0x08\n        /* \"GlobalStorage.sol\":7434:7454  uint16DataUser[_key] */\n      0x20\n      mstore\n      0x40\n      swap1\n      swap2\n      keccak256\n        /* \"GlobalStorage.sol\":7434:7466  uint16DataUser[_key] = _newValue */\n      dup1\n      sload\n      not(0xffff)\n      and\n      0xffff\n      swap1\n      swap3\n      and\n      swap2\n      swap1\n      swap2\n      or\n      swap1\n      sstore\n        /* \"GlobalStorage.sol\":7355:7474  function setUint16DataUser(bytes32 _key, uint16 _newValue) external {... */\n      jump\n        /* \"GlobalStorage.sol\":5158:5270  function getBoolDataUser(bytes32 _key) external view returns (bool) {... */\n    tag_47:\n      tag_274\n      tag_275\n      calldatasize\n      0x04\n      tag_121\n      jump\t// in\n    tag_275:\n        /* \"GlobalStorage.sol\":5220:5224  bool */\n      0x00\n        /* \"GlobalStorage.sol\":5244:5262  boolDataUser[_key] */\n      swap1\n      dup2\n      mstore\n        /* \"GlobalStorage.sol\":5244:5256  boolDataUser */\n      0x0e\n        /* \"GlobalStorage.sol\":5244:5262  boolDataUser[_key] */\n      0x20\n      mstore\n      0x40\n      swap1\n      keccak256\n      sload\n      0xff\n      and\n      swap1\n        /* \"GlobalStorage.sol\":5158:5270  function getBoolDataUser(bytes32 _key) external view returns (bool) {... */\n      jump\n    tag_274:\n      mload(0x40)\n        /* \"#utility.yul\":17829:17843   */\n      swap1\n      iszero\n        /* \"#utility.yul\":17822:17844   */\n      iszero\n        /* \"#utility.yul\":17804:17845   */\n      dup2\n      mstore\n        /* \"#utility.yul\":17792:17794   */\n      0x20\n        /* \"#utility.yul\":17777:17795   */\n      add\n        /* \"GlobalStorage.sol\":5158:5270  function getBoolDataUser(bytes32 _key) external view returns (bool) {... */\n      tag_123\n        /* \"#utility.yul\":17664:17851   */\n      jump\n        /* \"GlobalStorage.sol\":2464:2560  function getOwnerContract() public view returns(address) {... */\n    tag_48:\n        /* \"GlobalStorage.sol\":2512:2519  address */\n      0x00\n        /* \"GlobalStorage.sol\":2539:2552  ownerContract */\n      sload\n      sub(shl(0xa0, 0x01), 0x01)\n      and\n        /* \"GlobalStorage.sol\":2464:2560  function getOwnerContract() public view returns(address) {... */\n      jump(tag_232)\n        /* \"GlobalStorage.sol\":6592:6732  function addAddressArrayDataUser(bytes32 _key, address _newAddress) external {... */\n    tag_49:\n      tag_99\n      tag_283\n      calldatasize\n      0x04\n      tag_216\n      jump\t// in\n    tag_283:\n        /* \"GlobalStorage.sol\":6680:6706  addressArrayDataUser[_key] */\n      0x00\n      swap2\n      dup3\n      mstore\n        /* \"GlobalStorage.sol\":6680:6700  addressArrayDataUser */\n      0x05\n        /* \"GlobalStorage.sol\":6680:6706  addressArrayDataUser[_key] */\n      0x20\n      swap1\n      dup2\n      mstore\n      0x40\n      dup4\n      keccak256\n        /* \"GlobalStorage.sol\":6680:6724  addressArrayDataUser[_key].push(_newAddress) */\n      dup1\n      sload\n      0x01\n      dup2\n      add\n      dup3\n      sstore\n      swap1\n      dup5\n      mstore\n      swap3\n      keccak256\n      swap1\n      swap2\n      add\n      dup1\n      sload\n      not(sub(shl(0xa0, 0x01), 0x01))\n      and\n      sub(shl(0xa0, 0x01), 0x01)\n      swap1\n      swap3\n      and\n      swap2\n      swap1\n      swap2\n      or\n      swap1\n      sstore\n        /* \"GlobalStorage.sol\":6592:6732  function addAddressArrayDataUser(bytes32 _key, address _newAddress) external {... */\n      jump\n        /* \"GlobalStorage.sol\":9757:9888  function getStringDataProject(bytes32 _key) external view returns (string memory) {... */\n    tag_50:\n      tag_198\n      tag_286\n      calldatasize\n      0x04\n      tag_121\n      jump\t// in\n    tag_286:\n      tag_287\n      jump\t// in\n        /* \"GlobalStorage.sol\":14257:14390  function addUintArrayDataProject(bytes32 _key, uint _newValue) external {... */\n    tag_51:\n      tag_99\n      tag_290\n      calldatasize\n      0x04\n      tag_105\n      jump\t// in\n    tag_290:\n        /* \"GlobalStorage.sol\":14340:14366  uintArrayDataProject[_key] */\n      0x00\n      swap2\n      dup3\n      mstore\n        /* \"GlobalStorage.sol\":14340:14360  uintArrayDataProject */\n      0x19\n        /* \"GlobalStorage.sol\":14340:14366  uintArrayDataProject[_key] */\n      0x20\n      swap1\n      dup2\n      mstore\n      0x40\n      dup4\n      keccak256\n        /* \"GlobalStorage.sol\":14340:14382  uintArrayDataProject[_key].push(_newValue) */\n      dup1\n      sload\n      0x01\n      dup2\n      add\n      dup3\n      sstore\n      swap1\n      dup5\n      mstore\n      swap3\n      keccak256\n      swap1\n      swap2\n      add\n      sstore\n        /* \"GlobalStorage.sol\":14257:14390  function addUintArrayDataProject(bytes32 _key, uint _newValue) external {... */\n      jump\n        /* \"GlobalStorage.sol\":4171:4305  function getUint8ArrayDataUser(bytes32 _key) external view returns (uint8[] memory) {... */\n    tag_52:\n      tag_292\n      tag_293\n      calldatasize\n      0x04\n      tag_121\n      jump\t// in\n    tag_293:\n      tag_294\n      jump\t// in\n    tag_292:\n      mload(0x40)\n      tag_123\n      swap2\n      swap1\n      tag_296\n      jump\t// in\n        /* \"GlobalStorage.sol\":7638:7782  function setFullUint16ArrayDataUser(bytes32 _key, uint16[] memory _newValues) external {... */\n    tag_53:\n      tag_99\n      tag_298\n      calldatasize\n      0x04\n      tag_205\n      jump\t// in\n    tag_298:\n      tag_299\n      jump\t// in\n        /* \"GlobalStorage.sol\":2818:2999  function changeOwnerContract(address _newAddressContract) public onlyContract() {... */\n    tag_54:\n      tag_99\n      tag_301\n      calldatasize\n      0x04\n      tag_302\n      jump\t// in\n    tag_301:\n      tag_303\n      jump\t// in\n        /* \"GlobalStorage.sol\":4048:4163  function getUint8DataUser(bytes32 _key) external view returns (uint8) {... */\n    tag_55:\n      tag_304\n      tag_305\n      calldatasize\n      0x04\n      tag_121\n      jump\t// in\n    tag_305:\n        /* \"GlobalStorage.sol\":4111:4116  uint8 */\n      0x00\n        /* \"GlobalStorage.sol\":4136:4155  uint8DataUser[_key] */\n      swap1\n      dup2\n      mstore\n        /* \"GlobalStorage.sol\":4136:4149  uint8DataUser */\n      0x06\n        /* \"GlobalStorage.sol\":4136:4155  uint8DataUser[_key] */\n      0x20\n      mstore\n      0x40\n      swap1\n      keccak256\n      sload\n      0xff\n      and\n      swap1\n        /* \"GlobalStorage.sol\":4048:4163  function getUint8DataUser(bytes32 _key) external view returns (uint8) {... */\n      jump\n    tag_304:\n      mload(0x40)\n        /* \"#utility.yul\":18863:18867   */\n      0xff\n        /* \"#utility.yul\":18851:18868   */\n      swap1\n      swap2\n      and\n        /* \"#utility.yul\":18833:18869   */\n      dup2\n      mstore\n        /* \"#utility.yul\":18821:18823   */\n      0x20\n        /* \"#utility.yul\":18806:18824   */\n      add\n        /* \"GlobalStorage.sol\":4048:4163  function getUint8DataUser(bytes32 _key) external view returns (uint8) {... */\n      tag_123\n        /* \"#utility.yul\":18691:18875   */\n      jump\n        /* \"GlobalStorage.sol\":3007:3345  function delAddressContract(address _oldAddress) public onlyContract() {... */\n    tag_56:\n      tag_99\n      tag_310\n      calldatasize\n      0x04\n      tag_302\n      jump\t// in\n    tag_310:\n      tag_311\n      jump\t// in\n        /* \"GlobalStorage.sol\":9125:9238  function setBoolDataUser(bytes32 _key, bool _newValue) external {... */\n    tag_57:\n      tag_99\n      tag_313\n      calldatasize\n      0x04\n      tag_166\n      jump\t// in\n    tag_313:\n        /* \"GlobalStorage.sol\":9200:9218  boolDataUser[_key] */\n      0x00\n      swap2\n      dup3\n      mstore\n        /* \"GlobalStorage.sol\":9200:9212  boolDataUser */\n      0x0e\n        /* \"GlobalStorage.sol\":9200:9218  boolDataUser[_key] */\n      0x20\n      mstore\n      0x40\n      swap1\n      swap2\n      keccak256\n        /* \"GlobalStorage.sol\":9200:9230  boolDataUser[_key] = _newValue */\n      dup1\n      sload\n      not(0xff)\n      and\n      swap2\n      iszero\n      iszero\n      swap2\n      swap1\n      swap2\n      or\n      swap1\n      sstore\n        /* \"GlobalStorage.sol\":9125:9238  function setBoolDataUser(bytes32 _key, bool _newValue) external {... */\n      jump\n        /* \"GlobalStorage.sol\":8810:8957  function setFullBytes32ArrayDataUser(bytes32 _key, bytes32[] memory _newValues) external {... */\n    tag_58:\n      tag_99\n      tag_316\n      calldatasize\n      0x04\n      tag_246\n      jump\t// in\n    tag_316:\n      tag_318\n      jump\t// in\n        /* \"GlobalStorage.sol\":4315:4433  function getUint16DataUser(bytes32 _key) external view returns (uint16) {... */\n    tag_59:\n      tag_119\n      tag_320\n      calldatasize\n      0x04\n      tag_121\n      jump\t// in\n    tag_320:\n        /* \"GlobalStorage.sol\":4379:4385  uint16 */\n      0x00\n        /* \"GlobalStorage.sol\":4405:4425  uint16DataUser[_key] */\n      swap1\n      dup2\n      mstore\n        /* \"GlobalStorage.sol\":4405:4419  uint16DataUser */\n      0x08\n        /* \"GlobalStorage.sol\":4405:4425  uint16DataUser[_key] */\n      0x20\n      mstore\n      0x40\n      swap1\n      keccak256\n      sload\n      0xffff\n      and\n      swap1\n        /* \"GlobalStorage.sol\":4315:4433  function getUint16DataUser(bytes32 _key) external view returns (uint16) {... */\n      jump\n        /* \"GlobalStorage.sol\":13949:14097  function setUintArrayDataProject(bytes32 _key, uint16 _num, uint _newValue) external {... */\n    tag_61:\n      tag_99\n      tag_327\n      calldatasize\n      0x04\n      tag_109\n      jump\t// in\n    tag_327:\n      tag_328\n      jump\t// in\n        /* \"GlobalStorage.sol\":7482:7630  function setUint16ArrayDataUser(bytes32 _key, uint16 _num, uint16 _newValue) external {... */\n    tag_62:\n      tag_99\n      tag_330\n      calldatasize\n      0x04\n      tag_254\n      jump\t// in\n    tag_330:\n      tag_331\n      jump\t// in\n        /* \"GlobalStorage.sol\":11289:11423  function setStringDataProject(bytes32 _key, string memory _newString) external {... */\n    tag_64:\n      tag_99\n      tag_336\n      calldatasize\n      0x04\n      tag_136\n      jump\t// in\n    tag_336:\n      tag_337\n      jump\t// in\n        /* \"GlobalStorage.sol\":6775:6891  function setUint8DataUser(bytes32 _key, uint8 _newUint8) external {... */\n    tag_65:\n      tag_99\n      tag_339\n      calldatasize\n      0x04\n      tag_181\n      jump\t// in\n    tag_339:\n        /* \"GlobalStorage.sol\":6852:6871  uint8DataUser[_key] */\n      0x00\n      swap2\n      dup3\n      mstore\n        /* \"GlobalStorage.sol\":6852:6865  uint8DataUser */\n      0x06\n        /* \"GlobalStorage.sol\":6852:6871  uint8DataUser[_key] */\n      0x20\n      mstore\n      0x40\n      swap1\n      swap2\n      keccak256\n        /* \"GlobalStorage.sol\":6852:6883  uint8DataUser[_key] = _newUint8 */\n      dup1\n      sload\n      not(0xff)\n      and\n      0xff\n      swap1\n      swap3\n      and\n      swap2\n      swap1\n      swap2\n      or\n      swap1\n      sstore\n        /* \"GlobalStorage.sol\":6775:6891  function setUint8DataUser(bytes32 _key, uint8 _newUint8) external {... */\n      jump\n        /* \"GlobalStorage.sol\":4708:4839  function getUintArrayDataUser(bytes32 _key) external view returns (uint[] memory) {... */\n    tag_66:\n      tag_159\n      tag_342\n      calldatasize\n      0x04\n      tag_121\n      jump\t// in\n    tag_342:\n      tag_343\n      jump\t// in\n        /* \"GlobalStorage.sol\":7052:7193  function setFullUint8ArrayDataUser(bytes32 _key, uint8[] memory _newValues) external {... */\n    tag_67:\n      tag_99\n      tag_346\n      calldatasize\n      0x04\n      tag_157\n      jump\t// in\n    tag_346:\n      tag_347\n      jump\t// in\n        /* \"GlobalStorage.sol\":4588:4700  function getUintDataUser(bytes32 _key) external view returns (uint) {... */\n    tag_68:\n      tag_221\n      tag_349\n      calldatasize\n      0x04\n      tag_121\n      jump\t// in\n    tag_349:\n        /* \"GlobalStorage.sol\":4650:4654  uint */\n      0x00\n        /* \"GlobalStorage.sol\":4674:4692  uintDataUser[_key] */\n      swap1\n      dup2\n      mstore\n        /* \"GlobalStorage.sol\":4674:4686  uintDataUser */\n      0x0a\n        /* \"GlobalStorage.sol\":4674:4692  uintDataUser[_key] */\n      0x20\n      mstore\n      0x40\n      swap1\n      keccak256\n      sload\n      swap1\n        /* \"GlobalStorage.sol\":4588:4700  function getUintDataUser(bytes32 _key) external view returns (uint) {... */\n      jump\n        /* \"GlobalStorage.sol\":2344:2456  function getAddressesContracts() public view returns (address[] memory) {... */\n    tag_69:\n      tag_125\n      tag_354\n      jump\t// in\n        /* \"GlobalStorage.sol\":12252:12407  function setFullAddressArrayDataProject(bytes32 _key, address[] memory _newAddress) external {... */\n    tag_70:\n      tag_99\n      tag_357\n      calldatasize\n      0x04\n      tag_250\n      jump\t// in\n    tag_357:\n      tag_358\n      jump\t// in\n        /* \"GlobalStorage.sol\":10942:11060  function getUintDataProject(bytes32 _key) external view returns (uint) {... */\n    tag_71:\n      tag_221\n      tag_360\n      calldatasize\n      0x04\n      tag_121\n      jump\t// in\n    tag_360:\n        /* \"GlobalStorage.sol\":11007:11011  uint */\n      0x00\n        /* \"GlobalStorage.sol\":11031:11052  uintDataProject[_key] */\n      swap1\n      dup2\n      mstore\n        /* \"GlobalStorage.sol\":11031:11046  uintDataProject */\n      0x18\n        /* \"GlobalStorage.sol\":11031:11052  uintDataProject[_key] */\n      0x20\n      mstore\n      0x40\n      swap1\n      keccak256\n      sload\n      swap1\n        /* \"GlobalStorage.sol\":10942:11060  function getUintDataProject(bytes32 _key) external view returns (uint) {... */\n      jump\n        /* \"GlobalStorage.sol\":10378:10499  function getUint8DataProject(bytes32 _key) external view returns (uint8) {... */\n    tag_72:\n      tag_304\n      tag_364\n      calldatasize\n      0x04\n      tag_121\n      jump\t// in\n    tag_364:\n        /* \"GlobalStorage.sol\":10444:10449  uint8 */\n      0x00\n        /* \"GlobalStorage.sol\":10469:10491  uint8DataProject[_key] */\n      swap1\n      dup2\n      mstore\n        /* \"GlobalStorage.sol\":10469:10485  uint8DataProject */\n      0x14\n        /* \"GlobalStorage.sol\":10469:10491  uint8DataProject[_key] */\n      0x20\n      mstore\n      0x40\n      swap1\n      keccak256\n      sload\n      0xff\n      and\n      swap1\n        /* \"GlobalStorage.sol\":10378:10499  function getUint8DataProject(bytes32 _key) external view returns (uint8) {... */\n      jump\n        /* \"GlobalStorage.sol\":10507:10647  function getUint8ArrayDataProject(bytes32 _key) external view returns (uint8[] memory) {... */\n    tag_73:\n      tag_292\n      tag_368\n      calldatasize\n      0x04\n      tag_121\n      jump\t// in\n    tag_368:\n      tag_369\n      jump\t// in\n        /* \"GlobalStorage.sol\":9896:10039  function getStringArrayDataProject(bytes32 _key) external view returns (string[] memory) {... */\n    tag_74:\n      tag_141\n      tag_372\n      calldatasize\n      0x04\n      tag_121\n      jump\t// in\n    tag_372:\n      tag_373\n      jump\t// in\n        /* \"GlobalStorage.sol\":4441:4578  function getUint16ArrayDataUser(bytes32 _key) external view returns (uint16[] memory) {... */\n    tag_76:\n      tag_150\n      tag_379\n      calldatasize\n      0x04\n      tag_121\n      jump\t// in\n    tag_379:\n      tag_380\n      jump\t// in\n        /* \"GlobalStorage.sol\":12604:12726  function setUint8DataProject(bytes32 _key, uint8 _newUint8) external {... */\n    tag_77:\n      tag_99\n      tag_383\n      calldatasize\n      0x04\n      tag_181\n      jump\t// in\n    tag_383:\n        /* \"GlobalStorage.sol\":12684:12706  uint8DataProject[_key] */\n      0x00\n      swap2\n      dup3\n      mstore\n        /* \"GlobalStorage.sol\":12684:12700  uint8DataProject */\n      0x14\n        /* \"GlobalStorage.sol\":12684:12706  uint8DataProject[_key] */\n      0x20\n      mstore\n      0x40\n      swap1\n      swap2\n      keccak256\n        /* \"GlobalStorage.sol\":12684:12718  uint8DataProject[_key] = _newUint8 */\n      dup1\n      sload\n      not(0xff)\n      and\n      0xff\n      swap1\n      swap3\n      and\n      swap2\n      swap1\n      swap2\n      or\n      swap1\n      sstore\n        /* \"GlobalStorage.sol\":12604:12726  function setUint8DataProject(bytes32 _key, uint8 _newUint8) external {... */\n      jump\n        /* \"GlobalStorage.sol\":13048:13184  function addUint8ArrayDataProject(bytes32 _key, uint8 _newValue) external {... */\n    tag_78:\n      tag_99\n      tag_386\n      calldatasize\n      0x04\n      tag_181\n      jump\t// in\n    tag_386:\n        /* \"GlobalStorage.sol\":13133:13160  uint8ArrayDataProject[_key] */\n      0x00\n      swap2\n      dup3\n      mstore\n        /* \"GlobalStorage.sol\":13133:13154  uint8ArrayDataProject */\n      0x15\n        /* \"GlobalStorage.sol\":13133:13160  uint8ArrayDataProject[_key] */\n      0x20\n      swap1\n      dup2\n      mstore\n      0x40\n      dup4\n      keccak256\n        /* \"GlobalStorage.sol\":13133:13176  uint8ArrayDataProject[_key].push(_newValue) */\n      dup1\n      sload\n      0x01\n      dup2\n      add\n      dup3\n      sstore\n      swap1\n      dup5\n      mstore\n      swap3\n      dup2\n      swap1\n      keccak256\n      swap1\n      dup4\n      div\n      add\n      dup1\n      sload\n      0xff\n      swap3\n      dup4\n      and\n      0x1f\n      swap1\n      swap5\n      and\n      0x0100\n      exp\n      swap4\n      dup5\n      mul\n      swap3\n      swap1\n      swap4\n      mul\n      not\n      swap1\n      swap3\n      and\n      or\n      swap1\n      sstore\n        /* \"GlobalStorage.sol\":13048:13184  function addUint8ArrayDataProject(bytes32 _key, uint8 _newValue) external {... */\n      jump\n        /* \"GlobalStorage.sol\":8362:8489  function addUintArrayDataUser(bytes32 _key, uint _newValue) external {... */\n    tag_79:\n      tag_99\n      tag_389\n      calldatasize\n      0x04\n      tag_105\n      jump\t// in\n    tag_389:\n        /* \"GlobalStorage.sol\":8442:8465  uintArrayDataUser[_key] */\n      0x00\n      swap2\n      dup3\n      mstore\n        /* \"GlobalStorage.sol\":8442:8459  uintArrayDataUser */\n      0x0b\n        /* \"GlobalStorage.sol\":8442:8465  uintArrayDataUser[_key] */\n      0x20\n      swap1\n      dup2\n      mstore\n      0x40\n      dup4\n      keccak256\n        /* \"GlobalStorage.sol\":8442:8481  uintArrayDataUser[_key].push(_newValue) */\n      dup1\n      sload\n      0x01\n      dup2\n      add\n      dup3\n      sstore\n      swap1\n      dup5\n      mstore\n      swap3\n      keccak256\n      swap1\n      swap2\n      add\n      sstore\n        /* \"GlobalStorage.sol\":8362:8489  function addUintArrayDataUser(bytes32 _key, uint _newValue) external {... */\n      jump\n        /* \"GlobalStorage.sol\":12415:12561  function addAddressArrayDataProject(bytes32 _key, address _newAddress) external {... */\n    tag_81:\n      tag_99\n      tag_395\n      calldatasize\n      0x04\n      tag_216\n      jump\t// in\n    tag_395:\n        /* \"GlobalStorage.sol\":12506:12535  addressArrayDataProject[_key] */\n      0x00\n      swap2\n      dup3\n      mstore\n        /* \"GlobalStorage.sol\":12506:12529  addressArrayDataProject */\n      0x13\n        /* \"GlobalStorage.sol\":12506:12535  addressArrayDataProject[_key] */\n      0x20\n      swap1\n      dup2\n      mstore\n      0x40\n      dup4\n      keccak256\n        /* \"GlobalStorage.sol\":12506:12553  addressArrayDataProject[_key].push(_newAddress) */\n      dup1\n      sload\n      0x01\n      dup2\n      add\n      dup3\n      sstore\n      swap1\n      dup5\n      mstore\n      swap3\n      keccak256\n      swap1\n      swap2\n      add\n      dup1\n      sload\n      not(sub(shl(0xa0, 0x01), 0x01))\n      and\n      sub(shl(0xa0, 0x01), 0x01)\n      swap1\n      swap3\n      and\n      swap2\n      swap1\n      swap2\n      or\n      swap1\n      sstore\n        /* \"GlobalStorage.sol\":12415:12561  function addAddressArrayDataProject(bytes32 _key, address _newAddress) external {... */\n      jump\n        /* \"GlobalStorage.sol\":6899:7044  function setUint8ArrayDataUser(bytes32 _key, uint16 _num, uint8 _newValue) external {... */\n    tag_82:\n      tag_99\n      tag_398\n      calldatasize\n      0x04\n      tag_101\n      jump\t// in\n    tag_398:\n      tag_399\n      jump\t// in\n        /* \"GlobalStorage.sol\":2625:2810  function addAddressContract(address _newAddressContract) public onlyContract() {... */\n    tag_83:\n      tag_99\n      tag_401\n      calldatasize\n      0x04\n      tag_302\n      jump\t// in\n    tag_401:\n      tag_402\n      jump\t// in\n        /* \"GlobalStorage.sol\":12734:12885  function setUint8ArrayDataProject(bytes32 _key, uint16 _num, uint8 _newValue) external {... */\n    tag_102:\n        /* \"GlobalStorage.sol\":12832:12859  uint8ArrayDataProject[_key] */\n      0x00\n      dup4\n      dup2\n      mstore\n        /* \"GlobalStorage.sol\":12832:12853  uint8ArrayDataProject */\n      0x15\n        /* \"GlobalStorage.sol\":12832:12859  uint8ArrayDataProject[_key] */\n      0x20\n      mstore\n      0x40\n      swap1\n      keccak256\n        /* \"GlobalStorage.sol\":12832:12865  uint8ArrayDataProject[_key][_num] */\n      dup1\n      sload\n        /* \"GlobalStorage.sol\":12868:12877  _newValue */\n      dup3\n      swap2\n        /* \"GlobalStorage.sol\":12832:12859  uint8ArrayDataProject[_key] */\n      swap1\n        /* \"GlobalStorage.sol\":12832:12865  uint8ArrayDataProject[_key][_num] */\n      0xffff\n      dup6\n      and\n      swap1\n      dup2\n      lt\n      tag_405\n      jumpi\n      tag_405\n      tag_406\n      jump\t// in\n    tag_405:\n      swap1\n      0x00\n      mstore\n      keccak256(0x00, 0x20)\n      swap1\n      0x20\n      swap2\n      dup3\n      dup3\n      div\n      add\n      swap2\n      swap1\n      mod\n        /* \"GlobalStorage.sol\":12832:12877  uint8ArrayDataProject[_key][_num] = _newValue */\n      0x0100\n      exp\n      dup2\n      sload\n      dup2\n      0xff\n      mul\n      not\n      and\n      swap1\n      dup4\n      0xff\n      and\n      mul\n      or\n      swap1\n      sstore\n      pop\n        /* \"GlobalStorage.sol\":12734:12885  function setUint8ArrayDataProject(bytes32 _key, uint16 _num, uint8 _newValue) external {... */\n      pop\n      pop\n      pop\n      jump\t// out\n        /* \"GlobalStorage.sol\":14553:14707  function setBytes32ArrayDataProject(bytes32 _key, uint16 _num, bytes32 _newValue) external {... */\n    tag_110:\n        /* \"GlobalStorage.sol\":14655:14681  bytes32ArrayDataUser[_key] */\n      0x00\n      dup4\n      dup2\n      mstore\n        /* \"GlobalStorage.sol\":14655:14675  bytes32ArrayDataUser */\n      0x0d\n        /* \"GlobalStorage.sol\":14655:14681  bytes32ArrayDataUser[_key] */\n      0x20\n      mstore\n      0x40\n      swap1\n      keccak256\n        /* \"GlobalStorage.sol\":14655:14687  bytes32ArrayDataUser[_key][_num] */\n      dup1\n      sload\n        /* \"GlobalStorage.sol\":14690:14699  _newValue */\n      dup3\n      swap2\n        /* \"GlobalStorage.sol\":14655:14681  bytes32ArrayDataUser[_key] */\n      swap1\n        /* \"GlobalStorage.sol\":14655:14687  bytes32ArrayDataUser[_key][_num] */\n      0xffff\n      dup6\n      and\n      swap1\n      dup2\n      lt\n      tag_411\n      jumpi\n      tag_411\n      tag_406\n      jump\t// in\n    tag_411:\n      0x00\n      swap2\n      dup3\n      mstore\n      0x20\n      swap1\n      swap2\n      keccak256\n      add\n        /* \"GlobalStorage.sol\":14655:14699  bytes32ArrayDataUser[_key][_num] = _newValue */\n      sstore\n      pop\n      pop\n      pop\n        /* \"GlobalStorage.sol\":14553:14707  function setBytes32ArrayDataProject(bytes32 _key, uint16 _num, bytes32 _newValue) external {... */\n      jump\t// out\n        /* \"GlobalStorage.sol\":11435:11598  function setStringArrayDataProject(bytes32 _key, uint16 _num, string memory _newString) external {... */\n    tag_114:\n        /* \"GlobalStorage.sol\":11543:11571  stringArrayDataProject[_key] */\n      0x00\n      dup4\n      dup2\n      mstore\n        /* \"GlobalStorage.sol\":11543:11565  stringArrayDataProject */\n      0x11\n        /* \"GlobalStorage.sol\":11543:11571  stringArrayDataProject[_key] */\n      0x20\n      mstore\n      0x40\n      swap1\n      keccak256\n        /* \"GlobalStorage.sol\":11543:11577  stringArrayDataProject[_key][_num] */\n      dup1\n      sload\n        /* \"GlobalStorage.sol\":11580:11590  _newString */\n      dup3\n      swap2\n        /* \"GlobalStorage.sol\":11543:11571  stringArrayDataProject[_key] */\n      swap1\n        /* \"GlobalStorage.sol\":11543:11577  stringArrayDataProject[_key][_num] */\n      0xffff\n      dup6\n      and\n      swap1\n      dup2\n      lt\n      tag_415\n      jumpi\n      tag_415\n      tag_406\n      jump\t// in\n    tag_415:\n      swap1\n      0x00\n      mstore\n      keccak256(0x00, 0x20)\n      add\n        /* \"GlobalStorage.sol\":11543:11590  stringArrayDataProject[_key][_num] = _newString */\n      swap1\n      dup2\n      tag_417\n      swap2\n      swap1\n      tag_418\n      jump\t// in\n    tag_417:\n      pop\n        /* \"GlobalStorage.sol\":11435:11598  function setStringArrayDataProject(bytes32 _key, uint16 _num, string memory _newString) external {... */\n      pop\n      pop\n      pop\n      jump\t// out\n        /* \"GlobalStorage.sol\":10204:10350  function getAddressArrayDataProject(bytes32 _key) external view returns (address[] memory) {... */\n    tag_127:\n        /* \"GlobalStorage.sol\":10313:10342  addressArrayDataProject[_key] */\n      0x00\n      dup2\n      dup2\n      mstore\n        /* \"GlobalStorage.sol\":10313:10336  addressArrayDataProject */\n      0x13\n        /* \"GlobalStorage.sol\":10313:10342  addressArrayDataProject[_key] */\n      0x20\n      swap1\n      dup2\n      mstore\n      0x40\n      swap2\n      dup3\n      swap1\n      keccak256\n        /* \"GlobalStorage.sol\":10306:10342  return addressArrayDataProject[_key] */\n      dup1\n      sload\n      dup4\n      mload\n      dup2\n      dup5\n      mul\n      dup2\n      add\n      dup5\n      add\n      swap1\n      swap5\n      mstore\n      dup1\n      dup5\n      mstore\n        /* \"GlobalStorage.sol\":10277:10293  address[] memory */\n      0x60\n      swap4\n        /* \"GlobalStorage.sol\":10306:10342  return addressArrayDataProject[_key] */\n      swap3\n      dup4\n      add\n        /* \"GlobalStorage.sol\":10313:10342  addressArrayDataProject[_key] */\n      dup3\n        /* \"GlobalStorage.sol\":10306:10342  return addressArrayDataProject[_key] */\n      dup3\n      dup1\n      iszero\n      tag_423\n      jumpi\n      0x20\n      mul\n      dup3\n      add\n      swap2\n      swap1\n      0x00\n      mstore\n      keccak256(0x00, 0x20)\n      swap1\n    tag_424:\n      dup2\n      sload\n      sub(shl(0xa0, 0x01), 0x01)\n      and\n      dup2\n      mstore\n      0x01\n      swap1\n      swap2\n      add\n      swap1\n      0x20\n      add\n      dup1\n      dup4\n      gt\n      tag_424\n      jumpi\n    tag_423:\n      pop\n      pop\n      pop\n      pop\n      pop\n      swap1\n      pop\n        /* \"GlobalStorage.sol\":10204:10350  function getAddressArrayDataProject(bytes32 _key) external view returns (address[] memory) {... */\n      swap2\n      swap1\n      pop\n      jump\t// out\n        /* \"GlobalStorage.sol\":11763:11911  function addStringArrayDataProject(bytes32 _key, string memory _newString) external {... */\n    tag_137:\n        /* \"GlobalStorage.sol\":11858:11886  stringArrayDataProject[_key] */\n      0x00\n      dup3\n      dup2\n      mstore\n        /* \"GlobalStorage.sol\":11858:11880  stringArrayDataProject */\n      0x11\n        /* \"GlobalStorage.sol\":11858:11886  stringArrayDataProject[_key] */\n      0x20\n      swap1\n      dup2\n      mstore\n      0x40\n      dup3\n      keccak256\n        /* \"GlobalStorage.sol\":11858:11903  stringArrayDataProject[_key].push(_newString) */\n      dup1\n      sload\n      0x01\n      dup2\n      add\n      dup3\n      sstore\n      swap1\n      dup4\n      mstore\n      swap2\n      keccak256\n      add\n      tag_429\n        /* \"GlobalStorage.sol\":11892:11902  _newString */\n      dup3\n        /* \"GlobalStorage.sol\":11858:11903  stringArrayDataProject[_key].push(_newString) */\n      dup3\n      tag_418\n      jump\t// in\n    tag_429:\n      pop\n        /* \"GlobalStorage.sol\":11763:11911  function addStringArrayDataProject(bytes32 _key, string memory _newString) external {... */\n      pop\n      pop\n      jump\t// out\n        /* \"GlobalStorage.sol\":3576:3713  function getStringArrayDataUser(bytes32 _key) external view returns (string[] memory) {... */\n    tag_143:\n        /* \"GlobalStorage.sol\":3645:3660  string[] memory */\n      0x60\n        /* \"GlobalStorage.sol\":3680:3699  stringArrayDataUser */\n      0x03\n        /* \"GlobalStorage.sol\":3680:3705  stringArrayDataUser[_key] */\n      0x00\n        /* \"GlobalStorage.sol\":3700:3704  _key */\n      dup4\n        /* \"GlobalStorage.sol\":3680:3705  stringArrayDataUser[_key] */\n      dup2\n      mstore\n      0x20\n      add\n      swap1\n      dup2\n      mstore\n      0x20\n      add\n      0x00\n      keccak256\n        /* \"GlobalStorage.sol\":3673:3705  return stringArrayDataUser[_key] */\n      dup1\n      sload\n      dup1\n      0x20\n      mul\n      0x20\n      add\n      mload(0x40)\n      swap1\n      dup2\n      add\n      0x40\n      mstore\n      dup1\n      swap3\n      swap2\n      swap1\n      dup2\n      dup2\n      mstore\n      0x20\n      add\n      0x00\n      swap1\n    tag_432:\n      dup3\n      dup3\n      lt\n      iszero\n      tag_433\n      jumpi\n      dup4\n      dup3\n      swap1\n      0x00\n      mstore\n      keccak256(0x00, 0x20)\n      add\n      dup1\n      sload\n      tag_435\n      swap1\n      tag_436\n      jump\t// in\n    tag_435:\n      dup1\n      0x1f\n      add\n      0x20\n      dup1\n      swap2\n      div\n      mul\n      0x20\n      add\n      mload(0x40)\n      swap1\n      dup2\n      add\n      0x40\n      mstore\n      dup1\n      swap3\n      swap2\n      swap1\n      dup2\n      dup2\n      mstore\n      0x20\n      add\n      dup3\n      dup1\n      sload\n      tag_437\n      swap1\n      tag_436\n      jump\t// in\n    tag_437:\n      dup1\n      iszero\n      tag_438\n      jumpi\n      dup1\n      0x1f\n      lt\n      tag_439\n      jumpi\n      0x0100\n      dup1\n      dup4\n      sload\n      div\n      mul\n      dup4\n      mstore\n      swap2\n      0x20\n      add\n      swap2\n      jump(tag_438)\n    tag_439:\n      dup3\n      add\n      swap2\n      swap1\n      0x00\n      mstore\n      keccak256(0x00, 0x20)\n      swap1\n    tag_440:\n      dup2\n      sload\n      dup2\n      mstore\n      swap1\n      0x01\n      add\n      swap1\n      0x20\n      add\n      dup1\n      dup4\n      gt\n      tag_440\n      jumpi\n      dup3\n      swap1\n      sub\n      0x1f\n      and\n      dup3\n      add\n      swap2\n    tag_438:\n      pop\n      pop\n      pop\n      pop\n      pop\n      dup2\n      mstore\n      0x20\n      add\n      swap1\n      0x01\n      add\n      swap1\n      jump(tag_432)\n    tag_433:\n      pop\n      pop\n      pop\n      pop\n      swap1\n      pop\n        /* \"GlobalStorage.sol\":3576:3713  function getStringArrayDataUser(bytes32 _key) external view returns (string[] memory) {... */\n      swap2\n      swap1\n      pop\n      jump\t// out\n        /* \"GlobalStorage.sol\":5806:5952  function setFullStringArrayDataUser(bytes32 _key, string[] memory _newStrings) external {... */\n    tag_149:\n        /* \"GlobalStorage.sol\":5905:5930  stringArrayDataUser[_key] */\n      0x00\n      dup3\n      dup2\n      mstore\n        /* \"GlobalStorage.sol\":5905:5924  stringArrayDataUser */\n      0x03\n        /* \"GlobalStorage.sol\":5905:5930  stringArrayDataUser[_key] */\n      0x20\n      swap1\n      dup2\n      mstore\n      0x40\n      swap1\n      swap2\n      keccak256\n        /* \"GlobalStorage.sol\":5905:5944  stringArrayDataUser[_key] = _newStrings */\n      dup3\n      mload\n      tag_429\n      swap3\n      dup5\n      add\n      swap1\n      tag_443\n      jump\t// in\n        /* \"GlobalStorage.sol\":10791:10934  function getUint16ArrayDataProject(bytes32 _key) external view returns (uint16[] memory) {... */\n    tag_152:\n        /* \"GlobalStorage.sol\":10898:10926  uint16ArrayDataProject[_key] */\n      0x00\n      dup2\n      dup2\n      mstore\n        /* \"GlobalStorage.sol\":10898:10920  uint16ArrayDataProject */\n      0x17\n        /* \"GlobalStorage.sol\":10898:10926  uint16ArrayDataProject[_key] */\n      0x20\n      swap1\n      dup2\n      mstore\n      0x40\n      swap2\n      dup3\n      swap1\n      keccak256\n        /* \"GlobalStorage.sol\":10891:10926  return uint16ArrayDataProject[_key] */\n      dup1\n      sload\n      dup4\n      mload\n      dup2\n      dup5\n      mul\n      dup2\n      add\n      dup5\n      add\n      swap1\n      swap5\n      mstore\n      dup1\n      dup5\n      mstore\n        /* \"GlobalStorage.sol\":10863:10878  uint16[] memory */\n      0x60\n      swap4\n        /* \"GlobalStorage.sol\":10891:10926  return uint16ArrayDataProject[_key] */\n      swap3\n      dup4\n      add\n        /* \"GlobalStorage.sol\":10898:10926  uint16ArrayDataProject[_key] */\n      dup3\n        /* \"GlobalStorage.sol\":10891:10926  return uint16ArrayDataProject[_key] */\n      dup3\n      dup1\n      iszero\n      tag_423\n      jumpi\n      0x20\n      mul\n      dup3\n      add\n      swap2\n      swap1\n      0x00\n      mstore\n      keccak256(0x00, 0x20)\n      swap1\n      0x00\n      swap1\n    tag_446:\n      dup3\n      dup3\n      swap1\n      sload\n      swap1\n      0x0100\n      exp\n      swap1\n      div\n      0xffff\n      and\n      0xffff\n      and\n      dup2\n      mstore\n      0x20\n      add\n      swap1\n      0x02\n      add\n      swap1\n      0x20\n      dup3\n      0x01\n      add\n      div\n      swap3\n      dup4\n      add\n      swap3\n      0x01\n      sub\n      dup3\n      mul\n      swap2\n      pop\n      dup1\n      dup5\n      gt\n      tag_446\n      jumpi\n      pop\n      swap5\n      swap8\n        /* \"GlobalStorage.sol\":10791:10934  function getUint16ArrayDataProject(bytes32 _key) external view returns (uint16[] memory) {... */\n      swap7\n      pop\n      pop\n      pop\n      pop\n      pop\n      pop\n      pop\n      jump\t// out\n        /* \"GlobalStorage.sol\":12893:13040  function setFullUint8ArrayDataProject(bytes32 _key, uint8[] memory _newValues) external {... */\n    tag_158:\n        /* \"GlobalStorage.sol\":12992:13019  uint8ArrayDataProject[_key] */\n      0x00\n      dup3\n      dup2\n      mstore\n        /* \"GlobalStorage.sol\":12992:13013  uint8ArrayDataProject */\n      0x15\n        /* \"GlobalStorage.sol\":12992:13019  uint8ArrayDataProject[_key] */\n      0x20\n      swap1\n      dup2\n      mstore\n      0x40\n      swap1\n      swap2\n      keccak256\n        /* \"GlobalStorage.sol\":12992:13032  uint8ArrayDataProject[_key] = _newValues */\n      dup3\n      mload\n      tag_429\n      swap3\n      dup5\n      add\n      swap1\n      tag_449\n      jump\t// in\n        /* \"GlobalStorage.sol\":4996:5136  function getBytes32ArrayDataUser(bytes32 _key) external view returns (bytes32[] memory) {... */\n    tag_161:\n        /* \"GlobalStorage.sol\":5102:5128  bytes32ArrayDataUser[_key] */\n      0x00\n      dup2\n      dup2\n      mstore\n        /* \"GlobalStorage.sol\":5102:5122  bytes32ArrayDataUser */\n      0x0d\n        /* \"GlobalStorage.sol\":5102:5128  bytes32ArrayDataUser[_key] */\n      0x20\n      swap1\n      dup2\n      mstore\n      0x40\n      swap2\n      dup3\n      swap1\n      keccak256\n        /* \"GlobalStorage.sol\":5095:5128  return bytes32ArrayDataUser[_key] */\n      dup1\n      sload\n      dup4\n      mload\n      dup2\n      dup5\n      mul\n      dup2\n      add\n      dup5\n      add\n      swap1\n      swap5\n      mstore\n      dup1\n      dup5\n      mstore\n        /* \"GlobalStorage.sol\":5066:5082  bytes32[] memory */\n      0x60\n      swap4\n        /* \"GlobalStorage.sol\":5095:5128  return bytes32ArrayDataUser[_key] */\n      swap3\n      dup4\n      add\n        /* \"GlobalStorage.sol\":5102:5128  bytes32ArrayDataUser[_key] */\n      dup3\n        /* \"GlobalStorage.sol\":5095:5128  return bytes32ArrayDataUser[_key] */\n      dup3\n      dup1\n      iszero\n      tag_423\n      jumpi\n      0x20\n      mul\n      dup3\n      add\n      swap2\n      swap1\n      0x00\n      mstore\n      keccak256(0x00, 0x20)\n      swap1\n    tag_452:\n      dup2\n      sload\n      dup2\n      mstore\n      0x20\n      add\n      swap1\n      0x01\n      add\n      swap1\n      dup1\n      dup4\n      gt\n      tag_452\n      jumpi\n      pop\n      pop\n      pop\n      pop\n      pop\n      swap1\n      pop\n        /* \"GlobalStorage.sol\":4996:5136  function getBytes32ArrayDataUser(bytes32 _key) external view returns (bytes32[] memory) {... */\n      swap2\n      swap1\n      pop\n      jump\t// out\n        /* \"GlobalStorage.sol\":6268:6423  function setAddressArrayDataUser(bytes32 _key, uint16 _num, address _newAddress) external {... */\n    tag_171:\n        /* \"GlobalStorage.sol\":6369:6395  addressArrayDataUser[_key] */\n      0x00\n      dup4\n      dup2\n      mstore\n        /* \"GlobalStorage.sol\":6369:6389  addressArrayDataUser */\n      0x05\n        /* \"GlobalStorage.sol\":6369:6395  addressArrayDataUser[_key] */\n      0x20\n      mstore\n      0x40\n      swap1\n      keccak256\n        /* \"GlobalStorage.sol\":6369:6401  addressArrayDataUser[_key][_num] */\n      dup1\n      sload\n        /* \"GlobalStorage.sol\":6404:6415  _newAddress */\n      dup3\n      swap2\n        /* \"GlobalStorage.sol\":6369:6395  addressArrayDataUser[_key] */\n      swap1\n        /* \"GlobalStorage.sol\":6369:6401  addressArrayDataUser[_key][_num] */\n      0xffff\n      dup6\n      and\n      swap1\n      dup2\n      lt\n      tag_457\n      jumpi\n      tag_457\n      tag_406\n      jump\t// in\n    tag_457:\n      swap1\n      0x00\n      mstore\n      keccak256(0x00, 0x20)\n      add\n      0x00\n        /* \"GlobalStorage.sol\":6369:6415  addressArrayDataUser[_key][_num] = _newAddress */\n      0x0100\n      exp\n      dup2\n      sload\n      dup2\n      sub(shl(0xa0, 0x01), 0x01)\n      mul\n      not\n      and\n      swap1\n      dup4\n      sub(shl(0xa0, 0x01), 0x01)\n      and\n      mul\n      or\n      swap1\n      sstore\n      pop\n        /* \"GlobalStorage.sol\":6268:6423  function setAddressArrayDataUser(bytes32 _key, uint16 _num, address _newAddress) external {... */\n      pop\n      pop\n      pop\n      jump\t// out\n        /* \"GlobalStorage.sol\":5641:5798  function setStringArrayDataUser(bytes32 _key, uint16 _num, string memory _newString) external {... */\n    tag_174:\n        /* \"GlobalStorage.sol\":5746:5771  stringArrayDataUser[_key] */\n      0x00\n      dup4\n      dup2\n      mstore\n        /* \"GlobalStorage.sol\":5746:5765  stringArrayDataUser */\n      0x03\n        /* \"GlobalStorage.sol\":5746:5771  stringArrayDataUser[_key] */\n      0x20\n      mstore\n      0x40\n      swap1\n      keccak256\n        /* \"GlobalStorage.sol\":5746:5777  stringArrayDataUser[_key][_num] */\n      dup1\n      sload\n        /* \"GlobalStorage.sol\":5780:5790  _newString */\n      dup3\n      swap2\n        /* \"GlobalStorage.sol\":5746:5771  stringArrayDataUser[_key] */\n      swap1\n        /* \"GlobalStorage.sol\":5746:5777  stringArrayDataUser[_key][_num] */\n      0xffff\n      dup6\n      and\n      swap1\n      dup2\n      lt\n      tag_415\n      jumpi\n      tag_415\n      tag_406\n      jump\t// in\n        /* \"GlobalStorage.sol\":9246:9388  function setBoolArrayDataUser(bytes32 _key, uint16 _num, bool _newValue) external {... */\n    tag_178:\n        /* \"GlobalStorage.sol\":9339:9362  boolArrayDataUser[_key] */\n      0x00\n      dup4\n      dup2\n      mstore\n        /* \"GlobalStorage.sol\":9339:9356  boolArrayDataUser */\n      0x0f\n        /* \"GlobalStorage.sol\":9339:9362  boolArrayDataUser[_key] */\n      0x20\n      mstore\n      0x40\n      swap1\n      keccak256\n        /* \"GlobalStorage.sol\":9339:9368  boolArrayDataUser[_key][_num] */\n      dup1\n      sload\n        /* \"GlobalStorage.sol\":9371:9380  _newValue */\n      dup3\n      swap2\n        /* \"GlobalStorage.sol\":9339:9362  boolArrayDataUser[_key] */\n      swap1\n        /* \"GlobalStorage.sol\":9339:9368  boolArrayDataUser[_key][_num] */\n      0xffff\n      dup6\n      and\n      swap1\n      dup2\n      lt\n      tag_466\n      jumpi\n      tag_466\n      tag_406\n      jump\t// in\n    tag_466:\n      swap1\n      0x00\n      mstore\n      keccak256(0x00, 0x20)\n      swap1\n      0x20\n      swap2\n      dup3\n      dup3\n      div\n      add\n      swap2\n      swap1\n      mod\n        /* \"GlobalStorage.sol\":9339:9380  boolArrayDataUser[_key][_num] = _newValue */\n      0x0100\n      exp\n      dup2\n      sload\n      dup2\n      0xff\n      mul\n      not\n      and\n      swap1\n      dup4\n      iszero\n      iszero\n      mul\n      or\n      swap1\n      sstore\n      pop\n        /* \"GlobalStorage.sol\":9246:9388  function setBoolArrayDataUser(bytes32 _key, uint16 _num, bool _newValue) external {... */\n      pop\n      pop\n      pop\n      jump\t// out\n        /* \"GlobalStorage.sol\":5278:5409  function getBoolArrayDataUser(bytes32 _key) external view returns (bool[] memory) {... */\n    tag_185:\n        /* \"GlobalStorage.sol\":5378:5401  boolArrayDataUser[_key] */\n      0x00\n      dup2\n      dup2\n      mstore\n        /* \"GlobalStorage.sol\":5378:5395  boolArrayDataUser */\n      0x0f\n        /* \"GlobalStorage.sol\":5378:5401  boolArrayDataUser[_key] */\n      0x20\n      swap1\n      dup2\n      mstore\n      0x40\n      swap2\n      dup3\n      swap1\n      keccak256\n        /* \"GlobalStorage.sol\":5371:5401  return boolArrayDataUser[_key] */\n      dup1\n      sload\n      dup4\n      mload\n      dup2\n      dup5\n      mul\n      dup2\n      add\n      dup5\n      add\n      swap1\n      swap5\n      mstore\n      dup1\n      dup5\n      mstore\n        /* \"GlobalStorage.sol\":5345:5358  bool[] memory */\n      0x60\n      swap4\n        /* \"GlobalStorage.sol\":5371:5401  return boolArrayDataUser[_key] */\n      swap3\n      dup4\n      add\n        /* \"GlobalStorage.sol\":5378:5401  boolArrayDataUser[_key] */\n      dup3\n        /* \"GlobalStorage.sol\":5371:5401  return boolArrayDataUser[_key] */\n      dup3\n      dup1\n      iszero\n      tag_423\n      jumpi\n      0x20\n      mul\n      dup3\n      add\n      swap2\n      swap1\n      0x00\n      mstore\n      keccak256(0x00, 0x20)\n      swap1\n      0x00\n      swap1\n    tag_472:\n      dup3\n      sload\n      0x0100\n      dup4\n      swap1\n      exp\n      swap1\n      div\n      0xff\n      and\n      iszero\n      iszero\n      dup2\n      mstore\n      0x20\n      0x01\n      swap3\n      dup4\n      add\n      dup2\n      dup2\n      div\n      swap5\n      dup6\n      add\n      swap5\n      swap1\n      swap4\n      sub\n      swap1\n      swap3\n      mul\n      swap2\n      add\n      dup1\n      dup5\n      gt\n      tag_472\n      jumpi\n      pop\n      swap5\n      swap8\n        /* \"GlobalStorage.sol\":5278:5409  function getBoolArrayDataUser(bytes32 _key) external view returns (bool[] memory) {... */\n      swap7\n      pop\n      pop\n      pop\n      pop\n      pop\n      pop\n      pop\n      jump\t// out\n        /* \"GlobalStorage.sol\":3880:4020  function getAddressArrayDataUser(bytes32 _key) external view returns (address[] memory) {... */\n    tag_190:\n        /* \"GlobalStorage.sol\":3986:4012  addressArrayDataUser[_key] */\n      0x00\n      dup2\n      dup2\n      mstore\n        /* \"GlobalStorage.sol\":3986:4006  addressArrayDataUser */\n      0x05\n        /* \"GlobalStorage.sol\":3986:4012  addressArrayDataUser[_key] */\n      0x20\n      swap1\n      dup2\n      mstore\n      0x40\n      swap2\n      dup3\n      swap1\n      keccak256\n        /* \"GlobalStorage.sol\":3979:4012  return addressArrayDataUser[_key] */\n      dup1\n      sload\n      dup4\n      mload\n      dup2\n      dup5\n      mul\n      dup2\n      add\n      dup5\n      add\n      swap1\n      swap5\n      mstore\n      dup1\n      dup5\n      mstore\n        /* \"GlobalStorage.sol\":3950:3966  address[] memory */\n      0x60\n      swap4\n        /* \"GlobalStorage.sol\":3979:4012  return addressArrayDataUser[_key] */\n      swap3\n      dup4\n      add\n        /* \"GlobalStorage.sol\":3986:4012  addressArrayDataUser[_key] */\n      dup3\n        /* \"GlobalStorage.sol\":3979:4012  return addressArrayDataUser[_key] */\n      dup3\n      dup1\n      iszero\n      tag_423\n      jumpi\n      0x20\n      mul\n      dup3\n      add\n      swap2\n      swap1\n      0x00\n      mstore\n      keccak256(0x00, 0x20)\n      swap1\n      dup2\n      sload\n      sub(shl(0xa0, 0x01), 0x01)\n      and\n      dup2\n      mstore\n      0x01\n      swap1\n      swap2\n      add\n      swap1\n      0x20\n      add\n      dup1\n      dup4\n      gt\n      tag_424\n      jumpi\n      pop\n      pop\n      pop\n      pop\n      pop\n      swap1\n      pop\n        /* \"GlobalStorage.sol\":3880:4020  function getAddressArrayDataUser(bytes32 _key) external view returns (address[] memory) {... */\n      swap2\n      swap1\n      pop\n      jump\t// out\n        /* \"GlobalStorage.sol\":5505:5633  function setStringDataUser(bytes32 _key, string memory _newString) external {... */\n    tag_194:\n        /* \"GlobalStorage.sol\":5592:5612  stringDataUser[_key] */\n      0x00\n      dup3\n      dup2\n      mstore\n        /* \"GlobalStorage.sol\":5592:5606  stringDataUser */\n      0x02\n        /* \"GlobalStorage.sol\":5592:5612  stringDataUser[_key] */\n      0x20\n      mstore\n      0x40\n      swap1\n      keccak256\n        /* \"GlobalStorage.sol\":5592:5625  stringDataUser[_key] = _newString */\n      tag_429\n        /* \"GlobalStorage.sol\":5615:5625  _newString */\n      dup3\n        /* \"GlobalStorage.sol\":5592:5612  stringDataUser[_key] */\n      dup3\n        /* \"GlobalStorage.sol\":5592:5625  stringDataUser[_key] = _newString */\n      tag_418\n      jump\t// in\n        /* \"GlobalStorage.sol\":12083:12244  function setAddressArrayDataProject(bytes32 _key, uint16 _num, address _newAddress) external {... */\n    tag_197:\n        /* \"GlobalStorage.sol\":12187:12216  addressArrayDataProject[_key] */\n      0x00\n      dup4\n      dup2\n      mstore\n        /* \"GlobalStorage.sol\":12187:12210  addressArrayDataProject */\n      0x13\n        /* \"GlobalStorage.sol\":12187:12216  addressArrayDataProject[_key] */\n      0x20\n      mstore\n      0x40\n      swap1\n      keccak256\n        /* \"GlobalStorage.sol\":12187:12222  addressArrayDataProject[_key][_num] */\n      dup1\n      sload\n        /* \"GlobalStorage.sol\":12225:12236  _newAddress */\n      dup3\n      swap2\n        /* \"GlobalStorage.sol\":12187:12216  addressArrayDataProject[_key] */\n      swap1\n        /* \"GlobalStorage.sol\":12187:12222  addressArrayDataProject[_key][_num] */\n      0xffff\n      dup6\n      and\n      swap1\n      dup2\n      lt\n      tag_457\n      jumpi\n      tag_457\n      tag_406\n      jump\t// in\n        /* \"GlobalStorage.sol\":3443:3568  function getStringDataUser(bytes32 _key) external view returns (string memory) {... */\n    tag_200:\n        /* \"GlobalStorage.sol\":3540:3560  stringDataUser[_key] */\n      0x00\n      dup2\n      dup2\n      mstore\n        /* \"GlobalStorage.sol\":3540:3554  stringDataUser */\n      0x02\n        /* \"GlobalStorage.sol\":3540:3560  stringDataUser[_key] */\n      0x20\n      mstore\n      0x40\n      swap1\n      keccak256\n        /* \"GlobalStorage.sol\":3533:3560  return stringDataUser[_key] */\n      dup1\n      sload\n        /* \"GlobalStorage.sol\":3507:3520  string memory */\n      0x60\n      swap2\n        /* \"GlobalStorage.sol\":3540:3560  stringDataUser[_key] */\n      swap1\n        /* \"GlobalStorage.sol\":3533:3560  return stringDataUser[_key] */\n      tag_483\n      swap1\n      tag_436\n      jump\t// in\n    tag_483:\n      dup1\n      0x1f\n      add\n      0x20\n      dup1\n      swap2\n      div\n      mul\n      0x20\n      add\n      mload(0x40)\n      swap1\n      dup2\n      add\n      0x40\n      mstore\n      dup1\n      swap3\n      swap2\n      swap1\n      dup2\n      dup2\n      mstore\n      0x20\n      add\n      dup3\n      dup1\n      sload\n      tag_484\n      swap1\n      tag_436\n      jump\t// in\n    tag_484:\n      dup1\n      iszero\n      tag_423\n      jumpi\n      dup1\n      0x1f\n      lt\n      tag_486\n      jumpi\n      0x0100\n      dup1\n      dup4\n      sload\n      div\n      mul\n      dup4\n      mstore\n      swap2\n      0x20\n      add\n      swap2\n      jump(tag_423)\n    tag_486:\n      dup3\n      add\n      swap2\n      swap1\n      0x00\n      mstore\n      keccak256(0x00, 0x20)\n      swap1\n    tag_487:\n      dup2\n      sload\n      dup2\n      mstore\n      swap1\n      0x01\n      add\n      swap1\n      0x20\n      add\n      dup1\n      dup4\n      gt\n      tag_487\n      jumpi\n      pop\n      swap4\n      swap7\n        /* \"GlobalStorage.sol\":3443:3568  function getStringDataUser(bytes32 _key) external view returns (string memory) {... */\n      swap6\n      pop\n      pop\n      pop\n      pop\n      pop\n      pop\n      jump\t// out\n        /* \"GlobalStorage.sol\":13503:13653  function setFullUint16ArrayDataProject(bytes32 _key, uint16[] memory _newValues) external {... */\n    tag_206:\n        /* \"GlobalStorage.sol\":13604:13632  uint16ArrayDataProject[_key] */\n      0x00\n      dup3\n      dup2\n      mstore\n        /* \"GlobalStorage.sol\":13604:13626  uint16ArrayDataProject */\n      0x17\n        /* \"GlobalStorage.sol\":13604:13632  uint16ArrayDataProject[_key] */\n      0x20\n      swap1\n      dup2\n      mstore\n      0x40\n      swap1\n      swap2\n      keccak256\n        /* \"GlobalStorage.sol\":13604:13645  uint16ArrayDataProject[_key] = _newValues */\n      dup3\n      mload\n      tag_429\n      swap3\n      dup5\n      add\n      swap1\n      tag_490\n      jump\t// in\n        /* \"GlobalStorage.sol\":9396:9534  function setFullBoolArrayDataUser(bytes32 _key, bool[] memory _newValues) external {... */\n    tag_210:\n        /* \"GlobalStorage.sol\":9490:9513  boolArrayDataUser[_key] */\n      0x00\n      dup3\n      dup2\n      mstore\n        /* \"GlobalStorage.sol\":9490:9507  boolArrayDataUser */\n      0x0f\n        /* \"GlobalStorage.sol\":9490:9513  boolArrayDataUser[_key] */\n      0x20\n      swap1\n      dup2\n      mstore\n      0x40\n      swap1\n      swap2\n      keccak256\n        /* \"GlobalStorage.sol\":9490:9526  boolArrayDataUser[_key] = _newValues */\n      dup3\n      mload\n      tag_429\n      swap3\n      dup5\n      add\n      swap1\n      tag_493\n      jump\t// in\n        /* \"GlobalStorage.sol\":11606:11755  function setFullStringArrayDataProject(bytes32 _key, string[] memory _newString) external {... */\n    tag_220:\n        /* \"GlobalStorage.sol\":11707:11735  stringArrayDataProject[_key] */\n      0x00\n      dup3\n      dup2\n      mstore\n        /* \"GlobalStorage.sol\":11707:11729  stringArrayDataProject */\n      0x11\n        /* \"GlobalStorage.sol\":11707:11735  stringArrayDataProject[_key] */\n      0x20\n      swap1\n      dup2\n      mstore\n      0x40\n      swap1\n      swap2\n      keccak256\n        /* \"GlobalStorage.sol\":11707:11747  stringArrayDataProject[_key]= _newString */\n      dup3\n      mload\n      tag_429\n      swap3\n      dup5\n      add\n      swap1\n      tag_443\n      jump\t// in\n        /* \"GlobalStorage.sol\":8066:8208  function setUintArrayDataUser(bytes32 _key, uint16 _num, uint _newValue) external {... */\n    tag_240:\n        /* \"GlobalStorage.sol\":8159:8182  uintArrayDataUser[_key] */\n      0x00\n      dup4\n      dup2\n      mstore\n        /* \"GlobalStorage.sol\":8159:8176  uintArrayDataUser */\n      0x0b\n        /* \"GlobalStorage.sol\":8159:8182  uintArrayDataUser[_key] */\n      0x20\n      mstore\n      0x40\n      swap1\n      keccak256\n        /* \"GlobalStorage.sol\":8159:8188  uintArrayDataUser[_key][_num] */\n      dup1\n      sload\n        /* \"GlobalStorage.sol\":8191:8200  _newValue */\n      dup3\n      swap2\n        /* \"GlobalStorage.sol\":8159:8182  uintArrayDataUser[_key] */\n      swap1\n        /* \"GlobalStorage.sol\":8159:8188  uintArrayDataUser[_key][_num] */\n      0xffff\n      dup6\n      and\n      swap1\n      dup2\n      lt\n      tag_411\n      jumpi\n      tag_411\n      tag_406\n      jump\t// in\n        /* \"GlobalStorage.sol\":5960:6102  function addStringArrayDataUser(bytes32 _key, string memory _newString) external {... */\n    tag_243:\n        /* \"GlobalStorage.sol\":6052:6077  stringArrayDataUser[_key] */\n      0x00\n      dup3\n      dup2\n      mstore\n        /* \"GlobalStorage.sol\":6052:6071  stringArrayDataUser */\n      0x03\n        /* \"GlobalStorage.sol\":6052:6077  stringArrayDataUser[_key] */\n      0x20\n      swap1\n      dup2\n      mstore\n      0x40\n      dup3\n      keccak256\n        /* \"GlobalStorage.sol\":6052:6094  stringArrayDataUser[_key].push(_newString) */\n      dup1\n      sload\n      0x01\n      dup2\n      add\n      dup3\n      sstore\n      swap1\n      dup4\n      mstore\n      swap2\n      keccak256\n      add\n      tag_429\n        /* \"GlobalStorage.sol\":6083:6093  _newString */\n      dup3\n        /* \"GlobalStorage.sol\":6052:6094  stringArrayDataUser[_key].push(_newString) */\n      dup3\n      tag_418\n      jump\t// in\n        /* \"GlobalStorage.sol\":14105:14249  function setFullUintArrayDataProject(bytes32 _key, uint[] memory _newValues) external {... */\n    tag_247:\n        /* \"GlobalStorage.sol\":14202:14228  uintArrayDataProject[_key] */\n      0x00\n      dup3\n      dup2\n      mstore\n        /* \"GlobalStorage.sol\":14202:14222  uintArrayDataProject */\n      0x19\n        /* \"GlobalStorage.sol\":14202:14228  uintArrayDataProject[_key] */\n      0x20\n      swap1\n      dup2\n      mstore\n      0x40\n      swap1\n      swap2\n      keccak256\n        /* \"GlobalStorage.sol\":14202:14241  uintArrayDataProject[_key] = _newValues */\n      dup3\n      mload\n      tag_429\n      swap3\n      dup5\n      add\n      swap1\n      tag_512\n      jump\t// in\n        /* \"GlobalStorage.sol\":6431:6584  function setFullAddressArrayDataUser(bytes32 _key, address[] memory _newAddresses) external {... */\n    tag_251:\n        /* \"GlobalStorage.sol\":6534:6560  addressArrayDataUser[_key] */\n      0x00\n      dup3\n      dup2\n      mstore\n        /* \"GlobalStorage.sol\":6534:6554  addressArrayDataUser */\n      0x05\n        /* \"GlobalStorage.sol\":6534:6560  addressArrayDataUser[_key] */\n      0x20\n      swap1\n      dup2\n      mstore\n      0x40\n      swap1\n      swap2\n      keccak256\n        /* \"GlobalStorage.sol\":6534:6576  addressArrayDataUser[_key] = _newAddresses */\n      dup3\n      mload\n      tag_429\n      swap3\n      dup5\n      add\n      swap1\n      tag_515\n      jump\t// in\n        /* \"GlobalStorage.sol\":13341:13495  function setUint16ArrayDataProject(bytes32 _key, uint16 _num, uint16 _newValue) external {... */\n    tag_255:\n        /* \"GlobalStorage.sol\":13441:13469  uint16ArrayDataProject[_key] */\n      0x00\n      dup4\n      dup2\n      mstore\n        /* \"GlobalStorage.sol\":13441:13463  uint16ArrayDataProject */\n      0x17\n        /* \"GlobalStorage.sol\":13441:13469  uint16ArrayDataProject[_key] */\n      0x20\n      mstore\n      0x40\n      swap1\n      keccak256\n        /* \"GlobalStorage.sol\":13441:13475  uint16ArrayDataProject[_key][_num] */\n      dup1\n      sload\n        /* \"GlobalStorage.sol\":13478:13487  _newValue */\n      dup3\n      swap2\n        /* \"GlobalStorage.sol\":13441:13469  uint16ArrayDataProject[_key] */\n      swap1\n        /* \"GlobalStorage.sol\":13441:13475  uint16ArrayDataProject[_key][_num] */\n      0xffff\n      dup6\n      and\n      swap1\n      dup2\n      lt\n      tag_518\n      jumpi\n      tag_518\n      tag_406\n      jump\t// in\n    tag_518:\n      swap1\n      0x00\n      mstore\n      keccak256(0x00, 0x20)\n      swap1\n      0x10\n      swap2\n      dup3\n      dup3\n      div\n      add\n      swap2\n      swap1\n      mod\n      0x02\n      mul\n        /* \"GlobalStorage.sol\":13441:13487  uint16ArrayDataProject[_key][_num] = _newValue */\n      0x0100\n      exp\n      dup2\n      sload\n      dup2\n      0xffff\n      mul\n      not\n      and\n      swap1\n      dup4\n      0xffff\n      and\n      mul\n      or\n      swap1\n      sstore\n      pop\n        /* \"GlobalStorage.sol\":13341:13495  function setUint16ArrayDataProject(bytes32 _key, uint16 _num, uint16 _newValue) external {... */\n      pop\n      pop\n      pop\n      jump\t// out\n        /* \"GlobalStorage.sol\":11068:11205  function getUintArrayDataProject(bytes32 _key) external view returns (uint[] memory) {... */\n    tag_265:\n        /* \"GlobalStorage.sol\":11171:11197  uintArrayDataProject[_key] */\n      0x00\n      dup2\n      dup2\n      mstore\n        /* \"GlobalStorage.sol\":11171:11191  uintArrayDataProject */\n      0x19\n        /* \"GlobalStorage.sol\":11171:11197  uintArrayDataProject[_key] */\n      0x20\n      swap1\n      dup2\n      mstore\n      0x40\n      swap2\n      dup3\n      swap1\n      keccak256\n        /* \"GlobalStorage.sol\":11164:11197  return uintArrayDataProject[_key] */\n      dup1\n      sload\n      dup4\n      mload\n      dup2\n      dup5\n      mul\n      dup2\n      add\n      dup5\n      add\n      swap1\n      swap5\n      mstore\n      dup1\n      dup5\n      mstore\n        /* \"GlobalStorage.sol\":11138:11151  uint[] memory */\n      0x60\n      swap4\n        /* \"GlobalStorage.sol\":11164:11197  return uintArrayDataProject[_key] */\n      swap3\n      dup4\n      add\n        /* \"GlobalStorage.sol\":11171:11197  uintArrayDataProject[_key] */\n      dup3\n        /* \"GlobalStorage.sol\":11164:11197  return uintArrayDataProject[_key] */\n      dup3\n      dup1\n      iszero\n      tag_423\n      jumpi\n      0x20\n      mul\n      dup3\n      add\n      swap2\n      swap1\n      0x00\n      mstore\n      keccak256(0x00, 0x20)\n      swap1\n      dup2\n      sload\n      dup2\n      mstore\n      0x20\n      add\n      swap1\n      0x01\n      add\n      swap1\n      dup1\n      dup4\n      gt\n      tag_452\n      jumpi\n      pop\n      pop\n      pop\n      pop\n      pop\n      swap1\n      pop\n        /* \"GlobalStorage.sol\":11068:11205  function getUintArrayDataProject(bytes32 _key) external view returns (uint[] memory) {... */\n      swap2\n      swap1\n      pop\n      jump\t// out\n        /* \"GlobalStorage.sol\":8216:8354  function setFullUintArrayDataUser(bytes32 _key, uint[] memory _newValues) external {... */\n    tag_270:\n        /* \"GlobalStorage.sol\":8310:8333  uintArrayDataUser[_key] */\n      0x00\n      dup3\n      dup2\n      mstore\n        /* \"GlobalStorage.sol\":8310:8327  uintArrayDataUser */\n      0x0b\n        /* \"GlobalStorage.sol\":8310:8333  uintArrayDataUser[_key] */\n      0x20\n      swap1\n      dup2\n      mstore\n      0x40\n      swap1\n      swap2\n      keccak256\n        /* \"GlobalStorage.sol\":8310:8346  uintArrayDataUser[_key] = _newValues */\n      dup3\n      mload\n      tag_429\n      swap3\n      dup5\n      add\n      swap1\n      tag_512\n      jump\t// in\n        /* \"GlobalStorage.sol\":9757:9888  function getStringDataProject(bytes32 _key) external view returns (string memory) {... */\n    tag_287:\n        /* \"GlobalStorage.sol\":9857:9880  stringDataProject[_key] */\n      0x00\n      dup2\n      dup2\n      mstore\n        /* \"GlobalStorage.sol\":9857:9874  stringDataProject */\n      0x10\n        /* \"GlobalStorage.sol\":9857:9880  stringDataProject[_key] */\n      0x20\n      mstore\n      0x40\n      swap1\n      keccak256\n        /* \"GlobalStorage.sol\":9850:9880  return stringDataProject[_key] */\n      dup1\n      sload\n        /* \"GlobalStorage.sol\":9824:9837  string memory */\n      0x60\n      swap2\n        /* \"GlobalStorage.sol\":9857:9880  stringDataProject[_key] */\n      swap1\n        /* \"GlobalStorage.sol\":9850:9880  return stringDataProject[_key] */\n      tag_483\n      swap1\n      tag_436\n      jump\t// in\n        /* \"GlobalStorage.sol\":4171:4305  function getUint8ArrayDataUser(bytes32 _key) external view returns (uint8[] memory) {... */\n    tag_294:\n        /* \"GlobalStorage.sol\":4273:4297  uint8ArrayDataUser[_key] */\n      0x00\n      dup2\n      dup2\n      mstore\n        /* \"GlobalStorage.sol\":4273:4291  uint8ArrayDataUser */\n      0x07\n        /* \"GlobalStorage.sol\":4273:4297  uint8ArrayDataUser[_key] */\n      0x20\n      swap1\n      dup2\n      mstore\n      0x40\n      swap2\n      dup3\n      swap1\n      keccak256\n        /* \"GlobalStorage.sol\":4266:4297  return uint8ArrayDataUser[_key] */\n      dup1\n      sload\n      dup4\n      mload\n      dup2\n      dup5\n      mul\n      dup2\n      add\n      dup5\n      add\n      swap1\n      swap5\n      mstore\n      dup1\n      dup5\n      mstore\n        /* \"GlobalStorage.sol\":4239:4253  uint8[] memory */\n      0x60\n      swap4\n        /* \"GlobalStorage.sol\":4266:4297  return uint8ArrayDataUser[_key] */\n      swap3\n      dup4\n      add\n        /* \"GlobalStorage.sol\":4273:4297  uint8ArrayDataUser[_key] */\n      dup3\n        /* \"GlobalStorage.sol\":4266:4297  return uint8ArrayDataUser[_key] */\n      dup3\n      dup1\n      iszero\n      tag_423\n      jumpi\n      0x20\n      mul\n      dup3\n      add\n      swap2\n      swap1\n      0x00\n      mstore\n      keccak256(0x00, 0x20)\n      swap1\n      0x00\n      swap1\n    tag_542:\n      dup3\n      sload\n      0x0100\n      dup4\n      swap1\n      exp\n      swap1\n      div\n      0xff\n      and\n      dup2\n      mstore\n      0x20\n      0x01\n      swap3\n      dup4\n      add\n      dup2\n      dup2\n      div\n      swap5\n      dup6\n      add\n      swap5\n      swap1\n      swap4\n      sub\n      swap1\n      swap3\n      mul\n      swap2\n      add\n      dup1\n      dup5\n      gt\n      tag_542\n      jumpi\n      pop\n      swap5\n      swap8\n        /* \"GlobalStorage.sol\":4171:4305  function getUint8ArrayDataUser(bytes32 _key) external view returns (uint8[] memory) {... */\n      swap7\n      pop\n      pop\n      pop\n      pop\n      pop\n      pop\n      pop\n      jump\t// out\n        /* \"GlobalStorage.sol\":7638:7782  function setFullUint16ArrayDataUser(bytes32 _key, uint16[] memory _newValues) external {... */\n    tag_299:\n        /* \"GlobalStorage.sol\":7736:7761  uint16ArrayDataUser[_key] */\n      0x00\n      dup3\n      dup2\n      mstore\n        /* \"GlobalStorage.sol\":7736:7755  uint16ArrayDataUser */\n      0x09\n        /* \"GlobalStorage.sol\":7736:7761  uint16ArrayDataUser[_key] */\n      0x20\n      swap1\n      dup2\n      mstore\n      0x40\n      swap1\n      swap2\n      keccak256\n        /* \"GlobalStorage.sol\":7736:7774  uint16ArrayDataUser[_key] = _newValues */\n      dup3\n      mload\n      tag_429\n      swap3\n      dup5\n      add\n      swap1\n      tag_490\n      jump\t// in\n        /* \"GlobalStorage.sol\":2818:2999  function changeOwnerContract(address _newAddressContract) public onlyContract() {... */\n    tag_303:\n        /* \"GlobalStorage.sol\":1991:2000  bool flag */\n      0x00\n        /* \"GlobalStorage.sol\":2024:2032  uint16 i */\n      dup1\n        /* \"GlobalStorage.sol\":2019:2202  for (uint16 i = 0; i < logicContracts.length; i++){... */\n    tag_546:\n        /* \"GlobalStorage.sol\":2042:2056  logicContracts */\n      0x01\n        /* \"GlobalStorage.sol\":2042:2063  logicContracts.length */\n      sload\n        /* \"GlobalStorage.sol\":2038:2063  i < logicContracts.length */\n      0xffff\n      dup3\n      and\n      lt\n        /* \"GlobalStorage.sol\":2019:2202  for (uint16 i = 0; i < logicContracts.length; i++){... */\n      iszero\n      tag_547\n      jumpi\n        /* \"GlobalStorage.sol\":2102:2116  logicContracts */\n      0x01\n        /* \"GlobalStorage.sol\":2117:2118  i */\n      dup2\n        /* \"GlobalStorage.sol\":2102:2119  logicContracts[i] */\n      0xffff\n      and\n      dup2\n      sload\n      dup2\n      lt\n      tag_550\n      jumpi\n      tag_550\n      tag_406\n      jump\t// in\n    tag_550:\n      0x00\n      swap2\n      dup3\n      mstore\n      0x20\n      swap1\n      swap2\n      keccak256\n      add\n      sload\n      sub(shl(0xa0, 0x01), 0x01)\n      and\n        /* \"GlobalStorage.sol\":2088:2098  msg.sender */\n      caller\n        /* \"GlobalStorage.sol\":2088:2119  msg.sender == logicContracts[i] */\n      sub\n        /* \"GlobalStorage.sol\":2084:2191  if (msg.sender == logicContracts[i]) {... */\n      tag_552\n      jumpi\n        /* \"GlobalStorage.sol\":2147:2151  true */\n      0x01\n        /* \"GlobalStorage.sol\":2140:2151  flag = true */\n      swap2\n      pop\n        /* \"GlobalStorage.sol\":2170:2175  break */\n      jump(tag_547)\n        /* \"GlobalStorage.sol\":2084:2191  if (msg.sender == logicContracts[i]) {... */\n    tag_552:\n        /* \"GlobalStorage.sol\":2065:2068  i++ */\n      dup1\n      tag_553\n      dup2\n      tag_554\n      jump\t// in\n    tag_553:\n      swap2\n      pop\n      pop\n        /* \"GlobalStorage.sol\":2019:2202  for (uint16 i = 0; i < logicContracts.length; i++){... */\n      jump(tag_546)\n    tag_547:\n      pop\n        /* \"GlobalStorage.sol\":2220:2224  flag */\n      dup1\n        /* \"GlobalStorage.sol\":2212:2225  require(flag) */\n      tag_555\n      jumpi\n      0x00\n      dup1\n      revert\n    tag_555:\n        /* \"GlobalStorage.sol\":2931:2944  ownerContract */\n      and(sub(shl(0xa0, 0x01), 0x01), sload(0x00))\n        /* \"GlobalStorage.sol\":2917:2927  msg.sender */\n      caller\n        /* \"GlobalStorage.sol\":2917:2944  msg.sender == ownerContract */\n      eq\n        /* \"GlobalStorage.sol\":2909:2945  require(msg.sender == ownerContract) */\n      tag_557\n      jumpi\n      0x00\n      dup1\n      revert\n    tag_557:\n      pop\n        /* \"GlobalStorage.sol\":2956:2969  ownerContract */\n      0x00\n        /* \"GlobalStorage.sol\":2956:2991  ownerContract = _newAddressContract */\n      dup1\n      sload\n      not(sub(shl(0xa0, 0x01), 0x01))\n      and\n      sub(shl(0xa0, 0x01), 0x01)\n      swap3\n      swap1\n      swap3\n      and\n      swap2\n      swap1\n      swap2\n      or\n      swap1\n      sstore\n        /* \"GlobalStorage.sol\":2818:2999  function changeOwnerContract(address _newAddressContract) public onlyContract() {... */\n      jump\t// out\n        /* \"GlobalStorage.sol\":3007:3345  function delAddressContract(address _oldAddress) public onlyContract() {... */\n    tag_311:\n        /* \"GlobalStorage.sol\":1991:2000  bool flag */\n      0x00\n        /* \"GlobalStorage.sol\":2024:2032  uint16 i */\n      dup1\n        /* \"GlobalStorage.sol\":2019:2202  for (uint16 i = 0; i < logicContracts.length; i++){... */\n    tag_560:\n        /* \"GlobalStorage.sol\":2042:2056  logicContracts */\n      0x01\n        /* \"GlobalStorage.sol\":2042:2063  logicContracts.length */\n      sload\n        /* \"GlobalStorage.sol\":2038:2063  i < logicContracts.length */\n      0xffff\n      dup3\n      and\n      lt\n        /* \"GlobalStorage.sol\":2019:2202  for (uint16 i = 0; i < logicContracts.length; i++){... */\n      iszero\n      tag_561\n      jumpi\n        /* \"GlobalStorage.sol\":2102:2116  logicContracts */\n      0x01\n        /* \"GlobalStorage.sol\":2117:2118  i */\n      dup2\n        /* \"GlobalStorage.sol\":2102:2119  logicContracts[i] */\n      0xffff\n      and\n      dup2\n      sload\n      dup2\n      lt\n      tag_564\n      jumpi\n      tag_564\n      tag_406\n      jump\t// in\n    tag_564:\n      0x00\n      swap2\n      dup3\n      mstore\n      0x20\n      swap1\n      swap2\n      keccak256\n      add\n      sload\n      sub(shl(0xa0, 0x01), 0x01)\n      and\n        /* \"GlobalStorage.sol\":2088:2098  msg.sender */\n      caller\n        /* \"GlobalStorage.sol\":2088:2119  msg.sender == logicContracts[i] */\n      sub\n        /* \"GlobalStorage.sol\":2084:2191  if (msg.sender == logicContracts[i]) {... */\n      tag_566\n      jumpi\n        /* \"GlobalStorage.sol\":2147:2151  true */\n      0x01\n        /* \"GlobalStorage.sol\":2140:2151  flag = true */\n      swap2\n      pop\n        /* \"GlobalStorage.sol\":2170:2175  break */\n      jump(tag_561)\n        /* \"GlobalStorage.sol\":2084:2191  if (msg.sender == logicContracts[i]) {... */\n    tag_566:\n        /* \"GlobalStorage.sol\":2065:2068  i++ */\n      dup1\n      tag_567\n      dup2\n      tag_554\n      jump\t// in\n    tag_567:\n      swap2\n      pop\n      pop\n        /* \"GlobalStorage.sol\":2019:2202  for (uint16 i = 0; i < logicContracts.length; i++){... */\n      jump(tag_560)\n    tag_561:\n      pop\n        /* \"GlobalStorage.sol\":2220:2224  flag */\n      dup1\n        /* \"GlobalStorage.sol\":2212:2225  require(flag) */\n      tag_568\n      jumpi\n      0x00\n      dup1\n      revert\n    tag_568:\n        /* \"GlobalStorage.sol\":3111:3124  ownerContract */\n      and(sub(shl(0xa0, 0x01), 0x01), sload(0x00))\n        /* \"GlobalStorage.sol\":3097:3107  msg.sender */\n      caller\n        /* \"GlobalStorage.sol\":3097:3124  msg.sender == ownerContract */\n      eq\n        /* \"GlobalStorage.sol\":3089:3125  require(msg.sender == ownerContract) */\n      tag_570\n      jumpi\n      0x00\n      dup1\n      revert\n    tag_570:\n        /* \"GlobalStorage.sol\":3141:3149  uint16 i */\n      0x00\n        /* \"GlobalStorage.sol\":3136:3338  for (uint16 i = 0; i < logicContracts.length; i++){... */\n    tag_571:\n        /* \"GlobalStorage.sol\":3159:3173  logicContracts */\n      0x01\n        /* \"GlobalStorage.sol\":3159:3180  logicContracts.length */\n      sload\n        /* \"GlobalStorage.sol\":3155:3180  i < logicContracts.length */\n      0xffff\n      dup3\n      and\n      lt\n        /* \"GlobalStorage.sol\":3136:3338  for (uint16 i = 0; i < logicContracts.length; i++){... */\n      iszero\n      tag_429\n      jumpi\n        /* \"GlobalStorage.sol\":3226:3237  _oldAddress */\n      dup3\n      sub(shl(0xa0, 0x01), 0x01)\n        /* \"GlobalStorage.sol\":3205:3237  logicContracts[i] == _oldAddress */\n      and\n        /* \"GlobalStorage.sol\":3205:3219  logicContracts */\n      0x01\n        /* \"GlobalStorage.sol\":3220:3221  i */\n      dup3\n        /* \"GlobalStorage.sol\":3205:3222  logicContracts[i] */\n      0xffff\n      and\n      dup2\n      sload\n      dup2\n      lt\n      tag_575\n      jumpi\n      tag_575\n      tag_406\n      jump\t// in\n    tag_575:\n      0x00\n      swap2\n      dup3\n      mstore\n      0x20\n      swap1\n      swap2\n      keccak256\n      add\n      sload\n      sub(shl(0xa0, 0x01), 0x01)\n      and\n        /* \"GlobalStorage.sol\":3205:3237  logicContracts[i] == _oldAddress */\n      sub\n        /* \"GlobalStorage.sol\":3201:3327  if (logicContracts[i] == _oldAddress){... */\n      tag_577\n      jumpi\n        /* \"GlobalStorage.sol\":3285:3286  0 */\n      0x00\n        /* \"GlobalStorage.sol\":3257:3271  logicContracts */\n      0x01\n        /* \"GlobalStorage.sol\":3272:3273  i */\n      dup3\n        /* \"GlobalStorage.sol\":3257:3274  logicContracts[i] */\n      0xffff\n      and\n      dup2\n      sload\n      dup2\n      lt\n      tag_457\n      jumpi\n      tag_457\n      tag_406\n      jump\t// in\n        /* \"GlobalStorage.sol\":3201:3327  if (logicContracts[i] == _oldAddress){... */\n    tag_577:\n        /* \"GlobalStorage.sol\":3182:3185  i++ */\n      dup1\n      tag_581\n      dup2\n      tag_554\n      jump\t// in\n    tag_581:\n      swap2\n      pop\n      pop\n        /* \"GlobalStorage.sol\":3136:3338  for (uint16 i = 0; i < logicContracts.length; i++){... */\n      jump(tag_571)\n        /* \"GlobalStorage.sol\":8810:8957  function setFullBytes32ArrayDataUser(bytes32 _key, bytes32[] memory _newValues) external {... */\n    tag_318:\n        /* \"GlobalStorage.sol\":8910:8936  bytes32ArrayDataUser[_key] */\n      0x00\n      dup3\n      dup2\n      mstore\n        /* \"GlobalStorage.sol\":8910:8930  bytes32ArrayDataUser */\n      0x0d\n        /* \"GlobalStorage.sol\":8910:8936  bytes32ArrayDataUser[_key] */\n      0x20\n      swap1\n      dup2\n      mstore\n      0x40\n      swap1\n      swap2\n      keccak256\n        /* \"GlobalStorage.sol\":8910:8949  bytes32ArrayDataUser[_key] = _newValues */\n      dup3\n      mload\n      tag_429\n      swap3\n      dup5\n      add\n      swap1\n      tag_512\n      jump\t// in\n        /* \"GlobalStorage.sol\":13949:14097  function setUintArrayDataProject(bytes32 _key, uint16 _num, uint _newValue) external {... */\n    tag_328:\n        /* \"GlobalStorage.sol\":14045:14071  uintArrayDataProject[_key] */\n      0x00\n      dup4\n      dup2\n      mstore\n        /* \"GlobalStorage.sol\":14045:14065  uintArrayDataProject */\n      0x19\n        /* \"GlobalStorage.sol\":14045:14071  uintArrayDataProject[_key] */\n      0x20\n      mstore\n      0x40\n      swap1\n      keccak256\n        /* \"GlobalStorage.sol\":14045:14077  uintArrayDataProject[_key][_num] */\n      dup1\n      sload\n        /* \"GlobalStorage.sol\":14080:14089  _newValue */\n      dup3\n      swap2\n        /* \"GlobalStorage.sol\":14045:14071  uintArrayDataProject[_key] */\n      swap1\n        /* \"GlobalStorage.sol\":14045:14077  uintArrayDataProject[_key][_num] */\n      0xffff\n      dup6\n      and\n      swap1\n      dup2\n      lt\n      tag_411\n      jumpi\n      tag_411\n      tag_406\n      jump\t// in\n        /* \"GlobalStorage.sol\":7482:7630  function setUint16ArrayDataUser(bytes32 _key, uint16 _num, uint16 _newValue) external {... */\n    tag_331:\n        /* \"GlobalStorage.sol\":7579:7604  uint16ArrayDataUser[_key] */\n      0x00\n      dup4\n      dup2\n      mstore\n        /* \"GlobalStorage.sol\":7579:7598  uint16ArrayDataUser */\n      0x09\n        /* \"GlobalStorage.sol\":7579:7604  uint16ArrayDataUser[_key] */\n      0x20\n      mstore\n      0x40\n      swap1\n      keccak256\n        /* \"GlobalStorage.sol\":7579:7610  uint16ArrayDataUser[_key][_num] */\n      dup1\n      sload\n        /* \"GlobalStorage.sol\":7613:7622  _newValue */\n      dup3\n      swap2\n        /* \"GlobalStorage.sol\":7579:7604  uint16ArrayDataUser[_key] */\n      swap1\n        /* \"GlobalStorage.sol\":7579:7610  uint16ArrayDataUser[_key][_num] */\n      0xffff\n      dup6\n      and\n      swap1\n      dup2\n      lt\n      tag_518\n      jumpi\n      tag_518\n      tag_406\n      jump\t// in\n        /* \"GlobalStorage.sol\":11289:11423  function setStringDataProject(bytes32 _key, string memory _newString) external {... */\n    tag_337:\n        /* \"GlobalStorage.sol\":11379:11402  stringDataProject[_key] */\n      0x00\n      dup3\n      dup2\n      mstore\n        /* \"GlobalStorage.sol\":11379:11396  stringDataProject */\n      0x10\n        /* \"GlobalStorage.sol\":11379:11402  stringDataProject[_key] */\n      0x20\n      mstore\n      0x40\n      swap1\n      keccak256\n        /* \"GlobalStorage.sol\":11379:11415  stringDataProject[_key] = _newString */\n      tag_429\n        /* \"GlobalStorage.sol\":11405:11415  _newString */\n      dup3\n        /* \"GlobalStorage.sol\":11379:11402  stringDataProject[_key] */\n      dup3\n        /* \"GlobalStorage.sol\":11379:11415  stringDataProject[_key] = _newString */\n      tag_418\n      jump\t// in\n        /* \"GlobalStorage.sol\":4708:4839  function getUintArrayDataUser(bytes32 _key) external view returns (uint[] memory) {... */\n    tag_343:\n        /* \"GlobalStorage.sol\":4808:4831  uintArrayDataUser[_key] */\n      0x00\n      dup2\n      dup2\n      mstore\n        /* \"GlobalStorage.sol\":4808:4825  uintArrayDataUser */\n      0x0b\n        /* \"GlobalStorage.sol\":4808:4831  uintArrayDataUser[_key] */\n      0x20\n      swap1\n      dup2\n      mstore\n      0x40\n      swap2\n      dup3\n      swap1\n      keccak256\n        /* \"GlobalStorage.sol\":4801:4831  return uintArrayDataUser[_key] */\n      dup1\n      sload\n      dup4\n      mload\n      dup2\n      dup5\n      mul\n      dup2\n      add\n      dup5\n      add\n      swap1\n      swap5\n      mstore\n      dup1\n      dup5\n      mstore\n        /* \"GlobalStorage.sol\":4775:4788  uint[] memory */\n      0x60\n      swap4\n        /* \"GlobalStorage.sol\":4801:4831  return uintArrayDataUser[_key] */\n      swap3\n      dup4\n      add\n        /* \"GlobalStorage.sol\":4808:4831  uintArrayDataUser[_key] */\n      dup3\n        /* \"GlobalStorage.sol\":4801:4831  return uintArrayDataUser[_key] */\n      dup3\n      dup1\n      iszero\n      tag_423\n      jumpi\n      0x20\n      mul\n      dup3\n      add\n      swap2\n      swap1\n      0x00\n      mstore\n      keccak256(0x00, 0x20)\n      swap1\n      dup2\n      sload\n      dup2\n      mstore\n      0x20\n      add\n      swap1\n      0x01\n      add\n      swap1\n      dup1\n      dup4\n      gt\n      tag_452\n      jumpi\n      pop\n      pop\n      pop\n      pop\n      pop\n      swap1\n      pop\n        /* \"GlobalStorage.sol\":4708:4839  function getUintArrayDataUser(bytes32 _key) external view returns (uint[] memory) {... */\n      swap2\n      swap1\n      pop\n      jump\t// out\n        /* \"GlobalStorage.sol\":7052:7193  function setFullUint8ArrayDataUser(bytes32 _key, uint8[] memory _newValues) external {... */\n    tag_347:\n        /* \"GlobalStorage.sol\":7148:7172  uint8ArrayDataUser[_key] */\n      0x00\n      dup3\n      dup2\n      mstore\n        /* \"GlobalStorage.sol\":7148:7166  uint8ArrayDataUser */\n      0x07\n        /* \"GlobalStorage.sol\":7148:7172  uint8ArrayDataUser[_key] */\n      0x20\n      swap1\n      dup2\n      mstore\n      0x40\n      swap1\n      swap2\n      keccak256\n        /* \"GlobalStorage.sol\":7148:7185  uint8ArrayDataUser[_key] = _newValues */\n      dup3\n      mload\n      tag_429\n      swap3\n      dup5\n      add\n      swap1\n      tag_449\n      jump\t// in\n        /* \"GlobalStorage.sol\":2344:2456  function getAddressesContracts() public view returns (address[] memory) {... */\n    tag_354:\n        /* \"GlobalStorage.sol\":2398:2414  address[] memory */\n      0x60\n        /* \"GlobalStorage.sol\":2434:2448  logicContracts */\n      0x01\n        /* \"GlobalStorage.sol\":2427:2448  return logicContracts */\n      dup1\n      sload\n      dup1\n      0x20\n      mul\n      0x20\n      add\n      mload(0x40)\n      swap1\n      dup2\n      add\n      0x40\n      mstore\n      dup1\n      swap3\n      swap2\n      swap1\n      dup2\n      dup2\n      mstore\n      0x20\n      add\n      dup3\n      dup1\n      sload\n      dup1\n      iszero\n      tag_608\n      jumpi\n      0x20\n      mul\n      dup3\n      add\n      swap2\n      swap1\n      0x00\n      mstore\n      keccak256(0x00, 0x20)\n      swap1\n    tag_609:\n      dup2\n      sload\n      sub(shl(0xa0, 0x01), 0x01)\n      and\n      dup2\n      mstore\n      0x01\n      swap1\n      swap2\n      add\n      swap1\n      0x20\n      add\n      dup1\n      dup4\n      gt\n      tag_609\n      jumpi\n    tag_608:\n      pop\n      pop\n      pop\n      pop\n      pop\n      swap1\n      pop\n        /* \"GlobalStorage.sol\":2344:2456  function getAddressesContracts() public view returns (address[] memory) {... */\n      swap1\n      jump\t// out\n        /* \"GlobalStorage.sol\":12252:12407  function setFullAddressArrayDataProject(bytes32 _key, address[] memory _newAddress) external {... */\n    tag_358:\n        /* \"GlobalStorage.sol\":12356:12385  addressArrayDataProject[_key] */\n      0x00\n      dup3\n      dup2\n      mstore\n        /* \"GlobalStorage.sol\":12356:12379  addressArrayDataProject */\n      0x13\n        /* \"GlobalStorage.sol\":12356:12385  addressArrayDataProject[_key] */\n      0x20\n      swap1\n      dup2\n      mstore\n      0x40\n      swap1\n      swap2\n      keccak256\n        /* \"GlobalStorage.sol\":12356:12399  addressArrayDataProject[_key] = _newAddress */\n      dup3\n      mload\n      tag_429\n      swap3\n      dup5\n      add\n      swap1\n      tag_515\n      jump\t// in\n        /* \"GlobalStorage.sol\":10507:10647  function getUint8ArrayDataProject(bytes32 _key) external view returns (uint8[] memory) {... */\n    tag_369:\n        /* \"GlobalStorage.sol\":10612:10639  uint8ArrayDataProject[_key] */\n      0x00\n      dup2\n      dup2\n      mstore\n        /* \"GlobalStorage.sol\":10612:10633  uint8ArrayDataProject */\n      0x15\n        /* \"GlobalStorage.sol\":10612:10639  uint8ArrayDataProject[_key] */\n      0x20\n      swap1\n      dup2\n      mstore\n      0x40\n      swap2\n      dup3\n      swap1\n      keccak256\n        /* \"GlobalStorage.sol\":10605:10639  return uint8ArrayDataProject[_key] */\n      dup1\n      sload\n      dup4\n      mload\n      dup2\n      dup5\n      mul\n      dup2\n      add\n      dup5\n      add\n      swap1\n      swap5\n      mstore\n      dup1\n      dup5\n      mstore\n        /* \"GlobalStorage.sol\":10578:10592  uint8[] memory */\n      0x60\n      swap4\n        /* \"GlobalStorage.sol\":10605:10639  return uint8ArrayDataProject[_key] */\n      swap3\n      dup4\n      add\n        /* \"GlobalStorage.sol\":10612:10639  uint8ArrayDataProject[_key] */\n      dup3\n        /* \"GlobalStorage.sol\":10605:10639  return uint8ArrayDataProject[_key] */\n      dup3\n      dup1\n      iszero\n      tag_423\n      jumpi\n      0x00\n      swap2\n      dup3\n      mstore\n      0x20\n      swap2\n      dup3\n      swap1\n      keccak256\n      dup1\n      sload\n      0xff\n      and\n      dup5\n      mstore\n      swap1\n      dup3\n      mul\n      dup4\n      add\n      swap3\n      swap1\n      swap2\n      0x01\n      swap2\n      add\n      dup1\n      dup5\n      gt\n      tag_542\n      jumpi\n      pop\n      swap5\n      swap8\n        /* \"GlobalStorage.sol\":10507:10647  function getUint8ArrayDataProject(bytes32 _key) external view returns (uint8[] memory) {... */\n      swap7\n      pop\n      pop\n      pop\n      pop\n      pop\n      pop\n      pop\n      jump\t// out\n        /* \"GlobalStorage.sol\":9896:10039  function getStringArrayDataProject(bytes32 _key) external view returns (string[] memory) {... */\n    tag_373:\n        /* \"GlobalStorage.sol\":9968:9983  string[] memory */\n      0x60\n        /* \"GlobalStorage.sol\":10003:10025  stringArrayDataProject */\n      0x11\n        /* \"GlobalStorage.sol\":10003:10031  stringArrayDataProject[_key] */\n      0x00\n        /* \"GlobalStorage.sol\":10026:10030  _key */\n      dup4\n        /* \"GlobalStorage.sol\":10003:10031  stringArrayDataProject[_key] */\n      dup2\n      mstore\n      0x20\n      add\n      swap1\n      dup2\n      mstore\n      0x20\n      add\n      0x00\n      keccak256\n        /* \"GlobalStorage.sol\":9996:10031  return stringArrayDataProject[_key] */\n      dup1\n      sload\n      dup1\n      0x20\n      mul\n      0x20\n      add\n      mload(0x40)\n      swap1\n      dup2\n      add\n      0x40\n      mstore\n      dup1\n      swap3\n      swap2\n      swap1\n      dup2\n      dup2\n      mstore\n      0x20\n      add\n      0x00\n      swap1\n    tag_618:\n      dup3\n      dup3\n      lt\n      iszero\n      tag_433\n      jumpi\n      dup4\n      dup3\n      swap1\n      0x00\n      mstore\n      keccak256(0x00, 0x20)\n      add\n      dup1\n      sload\n      tag_621\n      swap1\n      tag_436\n      jump\t// in\n    tag_621:\n      dup1\n      0x1f\n      add\n      0x20\n      dup1\n      swap2\n      div\n      mul\n      0x20\n      add\n      mload(0x40)\n      swap1\n      dup2\n      add\n      0x40\n      mstore\n      dup1\n      swap3\n      swap2\n      swap1\n      dup2\n      dup2\n      mstore\n      0x20\n      add\n      dup3\n      dup1\n      sload\n      tag_622\n      swap1\n      tag_436\n      jump\t// in\n    tag_622:\n      dup1\n      iszero\n      tag_623\n      jumpi\n      dup1\n      0x1f\n      lt\n      tag_624\n      jumpi\n      0x0100\n      dup1\n      dup4\n      sload\n      div\n      mul\n      dup4\n      mstore\n      swap2\n      0x20\n      add\n      swap2\n      jump(tag_623)\n    tag_624:\n      dup3\n      add\n      swap2\n      swap1\n      0x00\n      mstore\n      keccak256(0x00, 0x20)\n      swap1\n    tag_625:\n      dup2\n      sload\n      dup2\n      mstore\n      swap1\n      0x01\n      add\n      swap1\n      0x20\n      add\n      dup1\n      dup4\n      gt\n      tag_625\n      jumpi\n      dup3\n      swap1\n      sub\n      0x1f\n      and\n      dup3\n      add\n      swap2\n    tag_623:\n      pop\n      pop\n      pop\n      pop\n      pop\n      dup2\n      mstore\n      0x20\n      add\n      swap1\n      0x01\n      add\n      swap1\n      jump(tag_618)\n        /* \"GlobalStorage.sol\":4441:4578  function getUint16ArrayDataUser(bytes32 _key) external view returns (uint16[] memory) {... */\n    tag_380:\n        /* \"GlobalStorage.sol\":4545:4570  uint16ArrayDataUser[_key] */\n      0x00\n      dup2\n      dup2\n      mstore\n        /* \"GlobalStorage.sol\":4545:4564  uint16ArrayDataUser */\n      0x09\n        /* \"GlobalStorage.sol\":4545:4570  uint16ArrayDataUser[_key] */\n      0x20\n      swap1\n      dup2\n      mstore\n      0x40\n      swap2\n      dup3\n      swap1\n      keccak256\n        /* \"GlobalStorage.sol\":4538:4570  return uint16ArrayDataUser[_key] */\n      dup1\n      sload\n      dup4\n      mload\n      dup2\n      dup5\n      mul\n      dup2\n      add\n      dup5\n      add\n      swap1\n      swap5\n      mstore\n      dup1\n      dup5\n      mstore\n        /* \"GlobalStorage.sol\":4510:4525  uint16[] memory */\n      0x60\n      swap4\n        /* \"GlobalStorage.sol\":4538:4570  return uint16ArrayDataUser[_key] */\n      swap3\n      dup4\n      add\n        /* \"GlobalStorage.sol\":4545:4570  uint16ArrayDataUser[_key] */\n      dup3\n        /* \"GlobalStorage.sol\":4538:4570  return uint16ArrayDataUser[_key] */\n      dup3\n      dup1\n      iszero\n      tag_423\n      jumpi\n      0x00\n      swap2\n      dup3\n      mstore\n      0x20\n      swap2\n      dup3\n      swap1\n      keccak256\n      dup1\n      sload\n      0xffff\n      and\n      dup5\n      mstore\n      swap1\n      dup3\n      mul\n      dup4\n      add\n      swap3\n      swap1\n      swap2\n      0x02\n      swap2\n      add\n      dup1\n      dup5\n      gt\n      tag_446\n      jumpi\n      pop\n      swap5\n      swap8\n        /* \"GlobalStorage.sol\":4441:4578  function getUint16ArrayDataUser(bytes32 _key) external view returns (uint16[] memory) {... */\n      swap7\n      pop\n      pop\n      pop\n      pop\n      pop\n      pop\n      pop\n      jump\t// out\n        /* \"GlobalStorage.sol\":6899:7044  function setUint8ArrayDataUser(bytes32 _key, uint16 _num, uint8 _newValue) external {... */\n    tag_399:\n        /* \"GlobalStorage.sol\":6994:7018  uint8ArrayDataUser[_key] */\n      0x00\n      dup4\n      dup2\n      mstore\n        /* \"GlobalStorage.sol\":6994:7012  uint8ArrayDataUser */\n      0x07\n        /* \"GlobalStorage.sol\":6994:7018  uint8ArrayDataUser[_key] */\n      0x20\n      mstore\n      0x40\n      swap1\n      keccak256\n        /* \"GlobalStorage.sol\":6994:7024  uint8ArrayDataUser[_key][_num] */\n      dup1\n      sload\n        /* \"GlobalStorage.sol\":7027:7036  _newValue */\n      dup3\n      swap2\n        /* \"GlobalStorage.sol\":6994:7018  uint8ArrayDataUser[_key] */\n      swap1\n        /* \"GlobalStorage.sol\":6994:7024  uint8ArrayDataUser[_key][_num] */\n      0xffff\n      dup6\n      and\n      swap1\n      dup2\n      lt\n      tag_405\n      jumpi\n      tag_405\n      tag_406\n      jump\t// in\n        /* \"GlobalStorage.sol\":2625:2810  function addAddressContract(address _newAddressContract) public onlyContract() {... */\n    tag_402:\n        /* \"GlobalStorage.sol\":1991:2000  bool flag */\n      0x00\n        /* \"GlobalStorage.sol\":2024:2032  uint16 i */\n      dup1\n        /* \"GlobalStorage.sol\":2019:2202  for (uint16 i = 0; i < logicContracts.length; i++){... */\n    tag_647:\n        /* \"GlobalStorage.sol\":2042:2056  logicContracts */\n      0x01\n        /* \"GlobalStorage.sol\":2042:2063  logicContracts.length */\n      sload\n        /* \"GlobalStorage.sol\":2038:2063  i < logicContracts.length */\n      0xffff\n      dup3\n      and\n      lt\n        /* \"GlobalStorage.sol\":2019:2202  for (uint16 i = 0; i < logicContracts.length; i++){... */\n      iszero\n      tag_648\n      jumpi\n        /* \"GlobalStorage.sol\":2102:2116  logicContracts */\n      0x01\n        /* \"GlobalStorage.sol\":2117:2118  i */\n      dup2\n        /* \"GlobalStorage.sol\":2102:2119  logicContracts[i] */\n      0xffff\n      and\n      dup2\n      sload\n      dup2\n      lt\n      tag_651\n      jumpi\n      tag_651\n      tag_406\n      jump\t// in\n    tag_651:\n      0x00\n      swap2\n      dup3\n      mstore\n      0x20\n      swap1\n      swap2\n      keccak256\n      add\n      sload\n      sub(shl(0xa0, 0x01), 0x01)\n      and\n        /* \"GlobalStorage.sol\":2088:2098  msg.sender */\n      caller\n        /* \"GlobalStorage.sol\":2088:2119  msg.sender == logicContracts[i] */\n      sub\n        /* \"GlobalStorage.sol\":2084:2191  if (msg.sender == logicContracts[i]) {... */\n      tag_653\n      jumpi\n        /* \"GlobalStorage.sol\":2147:2151  true */\n      0x01\n        /* \"GlobalStorage.sol\":2140:2151  flag = true */\n      swap2\n      pop\n        /* \"GlobalStorage.sol\":2170:2175  break */\n      jump(tag_648)\n        /* \"GlobalStorage.sol\":2084:2191  if (msg.sender == logicContracts[i]) {... */\n    tag_653:\n        /* \"GlobalStorage.sol\":2065:2068  i++ */\n      dup1\n      tag_654\n      dup2\n      tag_554\n      jump\t// in\n    tag_654:\n      swap2\n      pop\n      pop\n        /* \"GlobalStorage.sol\":2019:2202  for (uint16 i = 0; i < logicContracts.length; i++){... */\n      jump(tag_647)\n    tag_648:\n      pop\n        /* \"GlobalStorage.sol\":2220:2224  flag */\n      dup1\n        /* \"GlobalStorage.sol\":2212:2225  require(flag) */\n      tag_655\n      jumpi\n      0x00\n      dup1\n      revert\n    tag_655:\n        /* \"GlobalStorage.sol\":2737:2750  ownerContract */\n      and(sub(shl(0xa0, 0x01), 0x01), sload(0x00))\n        /* \"GlobalStorage.sol\":2723:2733  msg.sender */\n      caller\n        /* \"GlobalStorage.sol\":2723:2750  msg.sender == ownerContract */\n      eq\n        /* \"GlobalStorage.sol\":2715:2751  require(msg.sender == ownerContract) */\n      tag_657\n      jumpi\n      0x00\n      dup1\n      revert\n    tag_657:\n      pop\n        /* \"GlobalStorage.sol\":2762:2776  logicContracts */\n      0x01\n        /* \"GlobalStorage.sol\":2762:2802  logicContracts.push(_newAddressContract) */\n      dup1\n      sload\n      dup1\n      dup3\n      add\n      dup3\n      sstore\n      0x00\n      swap2\n      swap1\n      swap2\n      mstore\n      0xb10e2d527612073b26eecdfd717e6a320cf44b4afac2b0732d9fcbe2b7fa0cf6\n      add\n      dup1\n      sload\n      not(sub(shl(0xa0, 0x01), 0x01))\n      and\n      sub(shl(0xa0, 0x01), 0x01)\n      swap3\n      swap1\n      swap3\n      and\n      swap2\n      swap1\n      swap2\n      or\n      swap1\n      sstore\n        /* \"GlobalStorage.sol\":2625:2810  function addAddressContract(address _newAddressContract) public onlyContract() {... */\n      jump\t// out\n    tag_443:\n      dup3\n      dup1\n      sload\n      dup3\n      dup3\n      sstore\n      swap1\n      0x00\n      mstore\n      keccak256(0x00, 0x20)\n      swap1\n      dup2\n      add\n      swap3\n      dup3\n      iszero\n      tag_661\n      jumpi\n      swap2\n      0x20\n      mul\n      dup3\n      add\n    tag_660:\n      dup3\n      dup2\n      gt\n      iszero\n      tag_661\n      jumpi\n      dup3\n      mload\n      dup3\n      swap1\n      tag_662\n      swap1\n      dup3\n      tag_418\n      jump\t// in\n    tag_662:\n      pop\n      swap2\n      0x20\n      add\n      swap2\n      swap1\n      0x01\n      add\n      swap1\n      jump(tag_660)\n    tag_661:\n      pop\n      tag_663\n      swap3\n      swap2\n      pop\n      tag_664\n      jump\t// in\n    tag_663:\n      pop\n      swap1\n      jump\t// out\n    tag_449:\n      dup3\n      dup1\n      sload\n      dup3\n      dup3\n      sstore\n      swap1\n      0x00\n      mstore\n      keccak256(0x00, 0x20)\n      swap1\n      0x1f\n      add\n      0x20\n      swap1\n      div\n      dup2\n      add\n      swap3\n      dup3\n      iszero\n      tag_665\n      jumpi\n      swap2\n      0x20\n      mul\n      dup3\n      add\n      0x00\n    tag_666:\n      dup4\n      dup3\n      gt\n      iszero\n      tag_667\n      jumpi\n      dup4\n      mload\n      dup4\n      dup3\n      0x0100\n      exp\n      dup2\n      sload\n      dup2\n      0xff\n      mul\n      not\n      and\n      swap1\n      dup4\n      0xff\n      and\n      mul\n      or\n      swap1\n      sstore\n      pop\n      swap3\n      0x20\n      add\n      swap3\n      0x01\n      add\n      0x20\n      dup2\n      0x00\n      add\n      div\n      swap3\n      dup4\n      add\n      swap3\n      0x01\n      sub\n      mul\n      jump(tag_666)\n    tag_667:\n      dup1\n      iszero\n      tag_668\n      jumpi\n      dup3\n      dup2\n      0x0100\n      exp\n      dup2\n      sload\n      swap1\n      0xff\n      mul\n      not\n      and\n      swap1\n      sstore\n      0x01\n      add\n      0x20\n      dup2\n      0x00\n      add\n      div\n      swap3\n      dup4\n      add\n      swap3\n      0x01\n      sub\n      mul\n      jump(tag_667)\n    tag_668:\n      pop\n    tag_665:\n      pop\n      tag_663\n      swap3\n      swap2\n      pop\n      tag_670\n      jump\t// in\n    tag_490:\n      dup3\n      dup1\n      sload\n      dup3\n      dup3\n      sstore\n      swap1\n      0x00\n      mstore\n      keccak256(0x00, 0x20)\n      swap1\n      0x0f\n      add\n      0x10\n      swap1\n      div\n      dup2\n      add\n      swap3\n      dup3\n      iszero\n      tag_665\n      jumpi\n      swap2\n      0x20\n      mul\n      dup3\n      add\n      0x00\n    tag_672:\n      dup4\n      dup3\n      gt\n      iszero\n      tag_673\n      jumpi\n      dup4\n      mload\n      dup4\n      dup3\n      0x0100\n      exp\n      dup2\n      sload\n      dup2\n      0xffff\n      mul\n      not\n      and\n      swap1\n      dup4\n      0xffff\n      and\n      mul\n      or\n      swap1\n      sstore\n      pop\n      swap3\n      0x20\n      add\n      swap3\n      0x02\n      add\n      0x20\n      dup2\n      0x01\n      add\n      div\n      swap3\n      dup4\n      add\n      swap3\n      0x01\n      sub\n      mul\n      jump(tag_672)\n    tag_673:\n      dup1\n      iszero\n      tag_668\n      jumpi\n      dup3\n      dup2\n      0x0100\n      exp\n      dup2\n      sload\n      swap1\n      0xffff\n      mul\n      not\n      and\n      swap1\n      sstore\n      0x02\n      add\n      0x20\n      dup2\n      0x01\n      add\n      div\n      swap3\n      dup4\n      add\n      swap3\n      0x01\n      sub\n      mul\n      jump(tag_673)\n    tag_493:\n      dup3\n      dup1\n      sload\n      dup3\n      dup3\n      sstore\n      swap1\n      0x00\n      mstore\n      keccak256(0x00, 0x20)\n      swap1\n      0x1f\n      add\n      0x20\n      swap1\n      div\n      dup2\n      add\n      swap3\n      dup3\n      iszero\n      tag_665\n      jumpi\n      swap2\n      0x20\n      mul\n      dup3\n      add\n      0x00\n    tag_677:\n      dup4\n      dup3\n      gt\n      iszero\n      tag_667\n      jumpi\n      dup4\n      mload\n      dup4\n      dup3\n      0x0100\n      exp\n      dup2\n      sload\n      dup2\n      0xff\n      mul\n      not\n      and\n      swap1\n      dup4\n      iszero\n      iszero\n      mul\n      or\n      swap1\n      sstore\n      pop\n      swap3\n      0x20\n      add\n      swap3\n      0x01\n      add\n      0x20\n      dup2\n      0x00\n      add\n      div\n      swap3\n      dup4\n      add\n      swap3\n      0x01\n      sub\n      mul\n      jump(tag_677)\n    tag_512:\n      dup3\n      dup1\n      sload\n      dup3\n      dup3\n      sstore\n      swap1\n      0x00\n      mstore\n      keccak256(0x00, 0x20)\n      swap1\n      dup2\n      add\n      swap3\n      dup3\n      iszero\n      tag_665\n      jumpi\n      swap2\n      0x20\n      mul\n      dup3\n      add\n    tag_682:\n      dup3\n      dup2\n      gt\n      iszero\n      tag_665\n      jumpi\n      dup3\n      mload\n      dup3\n      sstore\n      swap2\n      0x20\n      add\n      swap2\n      swap1\n      0x01\n      add\n      swap1\n      jump(tag_682)\n    tag_515:\n      dup3\n      dup1\n      sload\n      dup3\n      dup3\n      sstore\n      swap1\n      0x00\n      mstore\n      keccak256(0x00, 0x20)\n      swap1\n      dup2\n      add\n      swap3\n      dup3\n      iszero\n      tag_665\n      jumpi\n      swap2\n      0x20\n      mul\n      dup3\n      add\n    tag_686:\n      dup3\n      dup2\n      gt\n      iszero\n      tag_665\n      jumpi\n      dup3\n      mload\n      dup3\n      sload\n      not(sub(shl(0xa0, 0x01), 0x01))\n      and\n      sub(shl(0xa0, 0x01), 0x01)\n      swap1\n      swap2\n      and\n      or\n      dup3\n      sstore\n      0x20\n      swap1\n      swap3\n      add\n      swap2\n      0x01\n      swap1\n      swap2\n      add\n      swap1\n      jump(tag_686)\n    tag_664:\n      dup1\n      dup3\n      gt\n      iszero\n      tag_663\n      jumpi\n      0x00\n      tag_696\n      dup3\n      dup3\n      tag_697\n      jump\t// in\n    tag_696:\n      pop\n      0x01\n      add\n      jump(tag_664)\n    tag_670:\n    tag_698:\n      dup1\n      dup3\n      gt\n      iszero\n      tag_663\n      jumpi\n      0x00\n      dup2\n      sstore\n      0x01\n      add\n      jump(tag_698)\n    tag_697:\n      pop\n      dup1\n      sload\n      tag_702\n      swap1\n      tag_436\n      jump\t// in\n    tag_702:\n      0x00\n      dup3\n      sstore\n      dup1\n      0x1f\n      lt\n      tag_704\n      jumpi\n      pop\n      pop\n      jump\t// out\n    tag_704:\n      0x1f\n      add\n      0x20\n      swap1\n      div\n      swap1\n      0x00\n      mstore\n      keccak256(0x00, 0x20)\n      swap1\n      dup2\n      add\n      swap1\n      tag_705\n      swap2\n      swap1\n      tag_670\n      jump\t// in\n    tag_705:\n      pop\n      jump\t// out\n        /* \"#utility.yul\":14:173   */\n    tag_706:\n        /* \"#utility.yul\":81:101   */\n      dup1\n      calldataload\n        /* \"#utility.yul\":141:147   */\n      0xffff\n        /* \"#utility.yul\":130:148   */\n      dup2\n      and\n        /* \"#utility.yul\":120:149   */\n      dup2\n      eq\n        /* \"#utility.yul\":110:167   */\n      tag_720\n      jumpi\n        /* \"#utility.yul\":163:164   */\n      0x00\n        /* \"#utility.yul\":160:161   */\n      dup1\n        /* \"#utility.yul\":153:165   */\n      revert\n        /* \"#utility.yul\":110:167   */\n    tag_720:\n        /* \"#utility.yul\":14:173   */\n      swap2\n      swap1\n      pop\n      jump\t// out\n        /* \"#utility.yul\":178:334   */\n    tag_707:\n        /* \"#utility.yul\":244:264   */\n      dup1\n      calldataload\n        /* \"#utility.yul\":304:308   */\n      0xff\n        /* \"#utility.yul\":293:309   */\n      dup2\n      and\n        /* \"#utility.yul\":283:310   */\n      dup2\n      eq\n        /* \"#utility.yul\":273:328   */\n      tag_720\n      jumpi\n        /* \"#utility.yul\":324:325   */\n      0x00\n        /* \"#utility.yul\":321:322   */\n      dup1\n        /* \"#utility.yul\":314:326   */\n      revert\n        /* \"#utility.yul\":339:661   */\n    tag_101:\n        /* \"#utility.yul\":413:419   */\n      0x00\n        /* \"#utility.yul\":421:427   */\n      dup1\n        /* \"#utility.yul\":429:435   */\n      0x00\n        /* \"#utility.yul\":482:484   */\n      0x60\n        /* \"#utility.yul\":470:479   */\n      dup5\n        /* \"#utility.yul\":461:468   */\n      dup7\n        /* \"#utility.yul\":457:480   */\n      sub\n        /* \"#utility.yul\":453:485   */\n      slt\n        /* \"#utility.yul\":450:502   */\n      iszero\n      tag_724\n      jumpi\n        /* \"#utility.yul\":498:499   */\n      0x00\n        /* \"#utility.yul\":495:496   */\n      dup1\n        /* \"#utility.yul\":488:500   */\n      revert\n        /* \"#utility.yul\":450:502   */\n    tag_724:\n        /* \"#utility.yul\":534:543   */\n      dup4\n        /* \"#utility.yul\":521:544   */\n      calldataload\n        /* \"#utility.yul\":511:544   */\n      swap3\n      pop\n        /* \"#utility.yul\":563:600   */\n      tag_725\n        /* \"#utility.yul\":596:598   */\n      0x20\n        /* \"#utility.yul\":585:594   */\n      dup6\n        /* \"#utility.yul\":581:599   */\n      add\n        /* \"#utility.yul\":563:600   */\n      tag_706\n      jump\t// in\n    tag_725:\n        /* \"#utility.yul\":553:600   */\n      swap2\n      pop\n        /* \"#utility.yul\":619:655   */\n      tag_726\n        /* \"#utility.yul\":651:653   */\n      0x40\n        /* \"#utility.yul\":640:649   */\n      dup6\n        /* \"#utility.yul\":636:654   */\n      add\n        /* \"#utility.yul\":619:655   */\n      tag_707\n      jump\t// in\n    tag_726:\n        /* \"#utility.yul\":609:655   */\n      swap1\n      pop\n        /* \"#utility.yul\":339:661   */\n      swap3\n      pop\n      swap3\n      pop\n      swap3\n      jump\t// out\n        /* \"#utility.yul\":666:914   */\n    tag_105:\n        /* \"#utility.yul\":734:740   */\n      0x00\n        /* \"#utility.yul\":742:748   */\n      dup1\n        /* \"#utility.yul\":795:797   */\n      0x40\n        /* \"#utility.yul\":783:792   */\n      dup4\n        /* \"#utility.yul\":774:781   */\n      dup6\n        /* \"#utility.yul\":770:793   */\n      sub\n        /* \"#utility.yul\":766:798   */\n      slt\n        /* \"#utility.yul\":763:815   */\n      iszero\n      tag_728\n      jumpi\n        /* \"#utility.yul\":811:812   */\n      0x00\n        /* \"#utility.yul\":808:809   */\n      dup1\n        /* \"#utility.yul\":801:813   */\n      revert\n        /* \"#utility.yul\":763:815   */\n    tag_728:\n      pop\n      pop\n        /* \"#utility.yul\":834:857   */\n      dup1\n      calldataload\n      swap3\n        /* \"#utility.yul\":904:906   */\n      0x20\n        /* \"#utility.yul\":889:907   */\n      swap1\n      swap2\n      add\n        /* \"#utility.yul\":876:908   */\n      calldataload\n      swap2\n      pop\n        /* \"#utility.yul\":666:914   */\n      jump\t// out\n        /* \"#utility.yul\":919:1239   */\n    tag_109:\n        /* \"#utility.yul\":995:1001   */\n      0x00\n        /* \"#utility.yul\":1003:1009   */\n      dup1\n        /* \"#utility.yul\":1011:1017   */\n      0x00\n        /* \"#utility.yul\":1064:1066   */\n      0x60\n        /* \"#utility.yul\":1052:1061   */\n      dup5\n        /* \"#utility.yul\":1043:1050   */\n      dup7\n        /* \"#utility.yul\":1039:1062   */\n      sub\n        /* \"#utility.yul\":1035:1067   */\n      slt\n        /* \"#utility.yul\":1032:1084   */\n      iszero\n      tag_730\n      jumpi\n        /* \"#utility.yul\":1080:1081   */\n      0x00\n        /* \"#utility.yul\":1077:1078   */\n      dup1\n        /* \"#utility.yul\":1070:1082   */\n      revert\n        /* \"#utility.yul\":1032:1084   */\n    tag_730:\n        /* \"#utility.yul\":1116:1125   */\n      dup4\n        /* \"#utility.yul\":1103:1126   */\n      calldataload\n        /* \"#utility.yul\":1093:1126   */\n      swap3\n      pop\n        /* \"#utility.yul\":1145:1182   */\n      tag_731\n        /* \"#utility.yul\":1178:1180   */\n      0x20\n        /* \"#utility.yul\":1167:1176   */\n      dup6\n        /* \"#utility.yul\":1163:1181   */\n      add\n        /* \"#utility.yul\":1145:1182   */\n      tag_706\n      jump\t// in\n    tag_731:\n        /* \"#utility.yul\":1135:1182   */\n      swap2\n      pop\n        /* \"#utility.yul\":1229:1231   */\n      0x40\n        /* \"#utility.yul\":1218:1227   */\n      dup5\n        /* \"#utility.yul\":1214:1232   */\n      add\n        /* \"#utility.yul\":1201:1233   */\n      calldataload\n        /* \"#utility.yul\":1191:1233   */\n      swap1\n      pop\n        /* \"#utility.yul\":919:1239   */\n      swap3\n      pop\n      swap3\n      pop\n      swap3\n      jump\t// out\n        /* \"#utility.yul\":1244:1371   */\n    tag_708:\n        /* \"#utility.yul\":1305:1315   */\n      0x4e487b71\n        /* \"#utility.yul\":1300:1303   */\n      0xe0\n        /* \"#utility.yul\":1296:1316   */\n      shl\n        /* \"#utility.yul\":1293:1294   */\n      0x00\n        /* \"#utility.yul\":1286:1317   */\n      mstore\n        /* \"#utility.yul\":1336:1340   */\n      0x41\n        /* \"#utility.yul\":1333:1334   */\n      0x04\n        /* \"#utility.yul\":1326:1341   */\n      mstore\n        /* \"#utility.yul\":1360:1364   */\n      0x24\n        /* \"#utility.yul\":1357:1358   */\n      0x00\n        /* \"#utility.yul\":1350:1365   */\n      revert\n        /* \"#utility.yul\":1376:1651   */\n    tag_709:\n        /* \"#utility.yul\":1447:1449   */\n      0x40\n        /* \"#utility.yul\":1441:1450   */\n      mload\n        /* \"#utility.yul\":1512:1514   */\n      0x1f\n        /* \"#utility.yul\":1493:1506   */\n      dup3\n      add\n      not(0x1f)\n        /* \"#utility.yul\":1489:1516   */\n      and\n        /* \"#utility.yul\":1477:1517   */\n      dup2\n      add\n        /* \"#utility.yul\":1547:1565   */\n      0xffffffffffffffff\n        /* \"#utility.yul\":1532:1566   */\n      dup2\n      gt\n        /* \"#utility.yul\":1568:1590   */\n      dup3\n      dup3\n      lt\n        /* \"#utility.yul\":1529:1591   */\n      or\n        /* \"#utility.yul\":1526:1614   */\n      iszero\n      tag_735\n      jumpi\n        /* \"#utility.yul\":1594:1612   */\n      tag_735\n      tag_708\n      jump\t// in\n    tag_735:\n        /* \"#utility.yul\":1630:1632   */\n      0x40\n        /* \"#utility.yul\":1623:1645   */\n      mstore\n        /* \"#utility.yul\":1376:1651   */\n      swap2\n      swap1\n      pop\n      jump\t// out\n        /* \"#utility.yul\":1656:2187   */\n    tag_710:\n        /* \"#utility.yul\":1699:1704   */\n      0x00\n        /* \"#utility.yul\":1752:1755   */\n      dup3\n        /* \"#utility.yul\":1745:1749   */\n      0x1f\n        /* \"#utility.yul\":1737:1743   */\n      dup4\n        /* \"#utility.yul\":1733:1750   */\n      add\n        /* \"#utility.yul\":1729:1756   */\n      slt\n        /* \"#utility.yul\":1719:1774   */\n      tag_737\n      jumpi\n        /* \"#utility.yul\":1770:1771   */\n      0x00\n        /* \"#utility.yul\":1767:1768   */\n      dup1\n        /* \"#utility.yul\":1760:1772   */\n      revert\n        /* \"#utility.yul\":1719:1774   */\n    tag_737:\n        /* \"#utility.yul\":1806:1812   */\n      dup2\n        /* \"#utility.yul\":1793:1813   */\n      calldataload\n        /* \"#utility.yul\":1832:1850   */\n      0xffffffffffffffff\n        /* \"#utility.yul\":1828:1830   */\n      dup2\n        /* \"#utility.yul\":1825:1851   */\n      gt\n        /* \"#utility.yul\":1822:1874   */\n      iszero\n      tag_739\n      jumpi\n        /* \"#utility.yul\":1854:1872   */\n      tag_739\n      tag_708\n      jump\t// in\n    tag_739:\n        /* \"#utility.yul\":1898:1953   */\n      tag_740\n        /* \"#utility.yul\":1941:1943   */\n      0x1f\n        /* \"#utility.yul\":1922:1935   */\n      dup3\n      add\n      not(0x1f)\n        /* \"#utility.yul\":1918:1945   */\n      and\n        /* \"#utility.yul\":1947:1951   */\n      0x20\n        /* \"#utility.yul\":1914:1952   */\n      add\n        /* \"#utility.yul\":1898:1953   */\n      tag_709\n      jump\t// in\n    tag_740:\n        /* \"#utility.yul\":1978:1980   */\n      dup2\n        /* \"#utility.yul\":1969:1976   */\n      dup2\n        /* \"#utility.yul\":1962:1981   */\n      mstore\n        /* \"#utility.yul\":2024:2027   */\n      dup5\n        /* \"#utility.yul\":2017:2021   */\n      0x20\n        /* \"#utility.yul\":2012:2014   */\n      dup4\n        /* \"#utility.yul\":2004:2010   */\n      dup7\n        /* \"#utility.yul\":2000:2015   */\n      add\n        /* \"#utility.yul\":1996:2022   */\n      add\n        /* \"#utility.yul\":1993:2028   */\n      gt\n        /* \"#utility.yul\":1990:2045   */\n      iszero\n      tag_741\n      jumpi\n        /* \"#utility.yul\":2041:2042   */\n      0x00\n        /* \"#utility.yul\":2038:2039   */\n      dup1\n        /* \"#utility.yul\":2031:2043   */\n      revert\n        /* \"#utility.yul\":1990:2045   */\n    tag_741:\n        /* \"#utility.yul\":2106:2108   */\n      dup2\n        /* \"#utility.yul\":2099:2103   */\n      0x20\n        /* \"#utility.yul\":2091:2097   */\n      dup6\n        /* \"#utility.yul\":2087:2104   */\n      add\n        /* \"#utility.yul\":2080:2084   */\n      0x20\n        /* \"#utility.yul\":2071:2078   */\n      dup4\n        /* \"#utility.yul\":2067:2085   */\n      add\n        /* \"#utility.yul\":2054:2109   */\n      calldatacopy\n        /* \"#utility.yul\":2154:2155   */\n      0x00\n        /* \"#utility.yul\":2129:2145   */\n      swap2\n      dup2\n      add\n        /* \"#utility.yul\":2147:2151   */\n      0x20\n        /* \"#utility.yul\":2125:2152   */\n      add\n        /* \"#utility.yul\":2118:2156   */\n      swap2\n      swap1\n      swap2\n      mstore\n        /* \"#utility.yul\":2133:2140   */\n      swap4\n        /* \"#utility.yul\":1656:2187   */\n      swap3\n      pop\n      pop\n      pop\n      jump\t// out\n        /* \"#utility.yul\":2192:2654   */\n    tag_113:\n        /* \"#utility.yul\":2278:2284   */\n      0x00\n        /* \"#utility.yul\":2286:2292   */\n      dup1\n        /* \"#utility.yul\":2294:2300   */\n      0x00\n        /* \"#utility.yul\":2347:2349   */\n      0x60\n        /* \"#utility.yul\":2335:2344   */\n      dup5\n        /* \"#utility.yul\":2326:2333   */\n      dup7\n        /* \"#utility.yul\":2322:2345   */\n      sub\n        /* \"#utility.yul\":2318:2350   */\n      slt\n        /* \"#utility.yul\":2315:2367   */\n      iszero\n      tag_743\n      jumpi\n        /* \"#utility.yul\":2363:2364   */\n      0x00\n        /* \"#utility.yul\":2360:2361   */\n      dup1\n        /* \"#utility.yul\":2353:2365   */\n      revert\n        /* \"#utility.yul\":2315:2367   */\n    tag_743:\n        /* \"#utility.yul\":2399:2408   */\n      dup4\n        /* \"#utility.yul\":2386:2409   */\n      calldataload\n        /* \"#utility.yul\":2376:2409   */\n      swap3\n      pop\n        /* \"#utility.yul\":2428:2465   */\n      tag_744\n        /* \"#utility.yul\":2461:2463   */\n      0x20\n        /* \"#utility.yul\":2450:2459   */\n      dup6\n        /* \"#utility.yul\":2446:2464   */\n      add\n        /* \"#utility.yul\":2428:2465   */\n      tag_706\n      jump\t// in\n    tag_744:\n        /* \"#utility.yul\":2418:2465   */\n      swap2\n      pop\n        /* \"#utility.yul\":2516:2518   */\n      0x40\n        /* \"#utility.yul\":2505:2514   */\n      dup5\n        /* \"#utility.yul\":2501:2519   */\n      add\n        /* \"#utility.yul\":2488:2520   */\n      calldataload\n        /* \"#utility.yul\":2543:2561   */\n      0xffffffffffffffff\n        /* \"#utility.yul\":2535:2541   */\n      dup2\n        /* \"#utility.yul\":2532:2562   */\n      gt\n        /* \"#utility.yul\":2529:2579   */\n      iszero\n      tag_745\n      jumpi\n        /* \"#utility.yul\":2575:2576   */\n      0x00\n        /* \"#utility.yul\":2572:2573   */\n      dup1\n        /* \"#utility.yul\":2565:2577   */\n      revert\n        /* \"#utility.yul\":2529:2579   */\n    tag_745:\n        /* \"#utility.yul\":2598:2648   */\n      tag_746\n        /* \"#utility.yul\":2640:2647   */\n      dup7\n        /* \"#utility.yul\":2631:2637   */\n      dup3\n        /* \"#utility.yul\":2620:2629   */\n      dup8\n        /* \"#utility.yul\":2616:2638   */\n      add\n        /* \"#utility.yul\":2598:2648   */\n      tag_710\n      jump\t// in\n    tag_746:\n        /* \"#utility.yul\":2588:2648   */\n      swap2\n      pop\n      pop\n        /* \"#utility.yul\":2192:2654   */\n      swap3\n      pop\n      swap3\n      pop\n      swap3\n      jump\t// out\n        /* \"#utility.yul\":2912:3092   */\n    tag_121:\n        /* \"#utility.yul\":2971:2977   */\n      0x00\n        /* \"#utility.yul\":3024:3026   */\n      0x20\n        /* \"#utility.yul\":3012:3021   */\n      dup3\n        /* \"#utility.yul\":3003:3010   */\n      dup5\n        /* \"#utility.yul\":2999:3022   */\n      sub\n        /* \"#utility.yul\":2995:3027   */\n      slt\n        /* \"#utility.yul\":2992:3044   */\n      iszero\n      tag_750\n      jumpi\n        /* \"#utility.yul\":3040:3041   */\n      0x00\n        /* \"#utility.yul\":3037:3038   */\n      dup1\n        /* \"#utility.yul\":3030:3042   */\n      revert\n        /* \"#utility.yul\":2992:3044   */\n    tag_750:\n      pop\n        /* \"#utility.yul\":3063:3086   */\n      calldataload\n      swap2\n        /* \"#utility.yul\":2912:3092   */\n      swap1\n      pop\n      jump\t// out\n        /* \"#utility.yul\":3290:3948   */\n    tag_129:\n        /* \"#utility.yul\":3461:3463   */\n      0x20\n        /* \"#utility.yul\":3513:3534   */\n      dup1\n      dup3\n      mstore\n        /* \"#utility.yul\":3583:3596   */\n      dup3\n      mload\n        /* \"#utility.yul\":3486:3504   */\n      dup3\n      dup3\n      add\n        /* \"#utility.yul\":3605:3627   */\n      dup2\n      swap1\n      mstore\n        /* \"#utility.yul\":3432:3436   */\n      0x00\n      swap2\n        /* \"#utility.yul\":3461:3463   */\n      swap1\n        /* \"#utility.yul\":3684:3699   */\n      dup5\n      dup3\n      add\n      swap1\n        /* \"#utility.yul\":3658:3660   */\n      0x40\n        /* \"#utility.yul\":3643:3661   */\n      dup6\n      add\n      swap1\n        /* \"#utility.yul\":3432:3436   */\n      dup5\n        /* \"#utility.yul\":3727:3922   */\n    tag_753:\n        /* \"#utility.yul\":3741:3747   */\n      dup2\n        /* \"#utility.yul\":3738:3739   */\n      dup2\n        /* \"#utility.yul\":3735:3748   */\n      lt\n        /* \"#utility.yul\":3727:3922   */\n      iszero\n      tag_755\n      jumpi\n        /* \"#utility.yul\":3806:3819   */\n      dup4\n      mload\n      sub(shl(0xa0, 0x01), 0x01)\n        /* \"#utility.yul\":3802:3841   */\n      and\n        /* \"#utility.yul\":3790:3842   */\n      dup4\n      mstore\n        /* \"#utility.yul\":3897:3912   */\n      swap3\n      dup5\n      add\n      swap3\n        /* \"#utility.yul\":3862:3874   */\n      swap2\n      dup5\n      add\n      swap2\n        /* \"#utility.yul\":3838:3839   */\n      0x01\n        /* \"#utility.yul\":3756:3765   */\n      add\n        /* \"#utility.yul\":3727:3922   */\n      jump(tag_753)\n    tag_755:\n      pop\n        /* \"#utility.yul\":3939:3942   */\n      swap1\n      swap7\n        /* \"#utility.yul\":3290:3948   */\n      swap6\n      pop\n      pop\n      pop\n      pop\n      pop\n      pop\n      jump\t// out\n        /* \"#utility.yul\":3953:4205   */\n    tag_132:\n        /* \"#utility.yul\":4020:4026   */\n      0x00\n        /* \"#utility.yul\":4028:4034   */\n      dup1\n        /* \"#utility.yul\":4081:4083   */\n      0x40\n        /* \"#utility.yul\":4069:4078   */\n      dup4\n        /* \"#utility.yul\":4060:4067   */\n      dup6\n        /* \"#utility.yul\":4056:4079   */\n      sub\n        /* \"#utility.yul\":4052:4084   */\n      slt\n        /* \"#utility.yul\":4049:4101   */\n      iszero\n      tag_757\n      jumpi\n        /* \"#utility.yul\":4097:4098   */\n      0x00\n        /* \"#utility.yul\":4094:4095   */\n      dup1\n        /* \"#utility.yul\":4087:4099   */\n      revert\n        /* \"#utility.yul\":4049:4101   */\n    tag_757:\n        /* \"#utility.yul\":4133:4142   */\n      dup3\n        /* \"#utility.yul\":4120:4143   */\n      calldataload\n        /* \"#utility.yul\":4110:4143   */\n      swap2\n      pop\n        /* \"#utility.yul\":4162:4199   */\n      tag_758\n        /* \"#utility.yul\":4195:4197   */\n      0x20\n        /* \"#utility.yul\":4184:4193   */\n      dup5\n        /* \"#utility.yul\":4180:4198   */\n      add\n        /* \"#utility.yul\":4162:4199   */\n      tag_706\n      jump\t// in\n    tag_758:\n        /* \"#utility.yul\":4152:4199   */\n      swap1\n      pop\n        /* \"#utility.yul\":3953:4205   */\n      swap3\n      pop\n      swap3\n      swap1\n      pop\n      jump\t// out\n        /* \"#utility.yul\":4210:4600   */\n    tag_136:\n        /* \"#utility.yul\":4288:4294   */\n      0x00\n        /* \"#utility.yul\":4296:4302   */\n      dup1\n        /* \"#utility.yul\":4349:4351   */\n      0x40\n        /* \"#utility.yul\":4337:4346   */\n      dup4\n        /* \"#utility.yul\":4328:4335   */\n      dup6\n        /* \"#utility.yul\":4324:4347   */\n      sub\n        /* \"#utility.yul\":4320:4352   */\n      slt\n        /* \"#utility.yul\":4317:4369   */\n      iszero\n      tag_760\n      jumpi\n        /* \"#utility.yul\":4365:4366   */\n      0x00\n        /* \"#utility.yul\":4362:4363   */\n      dup1\n        /* \"#utility.yul\":4355:4367   */\n      revert\n        /* \"#utility.yul\":4317:4369   */\n    tag_760:\n        /* \"#utility.yul\":4401:4410   */\n      dup3\n        /* \"#utility.yul\":4388:4411   */\n      calldataload\n        /* \"#utility.yul\":4378:4411   */\n      swap2\n      pop\n        /* \"#utility.yul\":4462:4464   */\n      0x20\n        /* \"#utility.yul\":4451:4460   */\n      dup4\n        /* \"#utility.yul\":4447:4465   */\n      add\n        /* \"#utility.yul\":4434:4466   */\n      calldataload\n        /* \"#utility.yul\":4489:4507   */\n      0xffffffffffffffff\n        /* \"#utility.yul\":4481:4487   */\n      dup2\n        /* \"#utility.yul\":4478:4508   */\n      gt\n        /* \"#utility.yul\":4475:4525   */\n      iszero\n      tag_761\n      jumpi\n        /* \"#utility.yul\":4521:4522   */\n      0x00\n        /* \"#utility.yul\":4518:4519   */\n      dup1\n        /* \"#utility.yul\":4511:4523   */\n      revert\n        /* \"#utility.yul\":4475:4525   */\n    tag_761:\n        /* \"#utility.yul\":4544:4594   */\n      tag_762\n        /* \"#utility.yul\":4586:4593   */\n      dup6\n        /* \"#utility.yul\":4577:4583   */\n      dup3\n        /* \"#utility.yul\":4566:4575   */\n      dup7\n        /* \"#utility.yul\":4562:4584   */\n      add\n        /* \"#utility.yul\":4544:4594   */\n      tag_710\n      jump\t// in\n    tag_762:\n        /* \"#utility.yul\":4534:4594   */\n      swap2\n      pop\n      pop\n        /* \"#utility.yul\":4210:4600   */\n      swap3\n      pop\n      swap3\n      swap1\n      pop\n      jump\t// out\n        /* \"#utility.yul\":4605:5028   */\n    tag_711:\n        /* \"#utility.yul\":4647:4650   */\n      0x00\n        /* \"#utility.yul\":4685:4690   */\n      dup2\n        /* \"#utility.yul\":4679:4691   */\n      mload\n        /* \"#utility.yul\":4712:4718   */\n      dup1\n        /* \"#utility.yul\":4707:4710   */\n      dup5\n        /* \"#utility.yul\":4700:4719   */\n      mstore\n        /* \"#utility.yul\":4737:4738   */\n      0x00\n        /* \"#utility.yul\":4747:4909   */\n    tag_764:\n        /* \"#utility.yul\":4761:4767   */\n      dup2\n        /* \"#utility.yul\":4758:4759   */\n      dup2\n        /* \"#utility.yul\":4755:4768   */\n      lt\n        /* \"#utility.yul\":4747:4909   */\n      iszero\n      tag_766\n      jumpi\n        /* \"#utility.yul\":4823:4827   */\n      0x20\n        /* \"#utility.yul\":4879:4892   */\n      dup2\n      dup6\n      add\n        /* \"#utility.yul\":4875:4897   */\n      dup2\n      add\n        /* \"#utility.yul\":4869:4898   */\n      mload\n        /* \"#utility.yul\":4851:4862   */\n      dup7\n      dup4\n      add\n        /* \"#utility.yul\":4847:4867   */\n      dup3\n      add\n        /* \"#utility.yul\":4840:4899   */\n      mstore\n        /* \"#utility.yul\":4776:4788   */\n      add\n        /* \"#utility.yul\":4747:4909   */\n      jump(tag_764)\n    tag_766:\n        /* \"#utility.yul\":4751:4754   */\n      pop\n        /* \"#utility.yul\":4954:4955   */\n      0x00\n        /* \"#utility.yul\":4947:4951   */\n      0x20\n        /* \"#utility.yul\":4938:4944   */\n      dup3\n        /* \"#utility.yul\":4933:4936   */\n      dup7\n        /* \"#utility.yul\":4929:4945   */\n      add\n        /* \"#utility.yul\":4925:4952   */\n      add\n        /* \"#utility.yul\":4918:4956   */\n      mstore\n        /* \"#utility.yul\":5017:5021   */\n      0x20\n        /* \"#utility.yul\":5010:5012   */\n      0x1f\n        /* \"#utility.yul\":5006:5013   */\n      not\n        /* \"#utility.yul\":5001:5003   */\n      0x1f\n        /* \"#utility.yul\":4993:4999   */\n      dup4\n        /* \"#utility.yul\":4989:5004   */\n      add\n        /* \"#utility.yul\":4985:5014   */\n      and\n        /* \"#utility.yul\":4980:4983   */\n      dup6\n        /* \"#utility.yul\":4976:5015   */\n      add\n        /* \"#utility.yul\":4972:5022   */\n      add\n        /* \"#utility.yul\":4965:5022   */\n      swap2\n      pop\n      pop\n        /* \"#utility.yul\":4605:5028   */\n      swap3\n      swap2\n      pop\n      pop\n      jump\t// out\n        /* \"#utility.yul\":5033:5836   */\n    tag_145:\n        /* \"#utility.yul\":5195:5199   */\n      0x00\n        /* \"#utility.yul\":5224:5226   */\n      0x20\n        /* \"#utility.yul\":5264:5266   */\n      dup1\n        /* \"#utility.yul\":5253:5262   */\n      dup4\n        /* \"#utility.yul\":5249:5267   */\n      add\n        /* \"#utility.yul\":5294:5296   */\n      dup2\n        /* \"#utility.yul\":5283:5292   */\n      dup5\n        /* \"#utility.yul\":5276:5297   */\n      mstore\n        /* \"#utility.yul\":5317:5323   */\n      dup1\n        /* \"#utility.yul\":5352:5358   */\n      dup6\n        /* \"#utility.yul\":5346:5359   */\n      mload\n        /* \"#utility.yul\":5383:5389   */\n      dup1\n        /* \"#utility.yul\":5375:5381   */\n      dup4\n        /* \"#utility.yul\":5368:5390   */\n      mstore\n        /* \"#utility.yul\":5421:5423   */\n      0x40\n        /* \"#utility.yul\":5410:5419   */\n      dup7\n        /* \"#utility.yul\":5406:5424   */\n      add\n        /* \"#utility.yul\":5399:5424   */\n      swap2\n      pop\n        /* \"#utility.yul\":5483:5485   */\n      0x40\n        /* \"#utility.yul\":5473:5479   */\n      dup2\n        /* \"#utility.yul\":5470:5471   */\n      0x05\n        /* \"#utility.yul\":5466:5480   */\n      shl\n        /* \"#utility.yul\":5455:5464   */\n      dup8\n        /* \"#utility.yul\":5451:5481   */\n      add\n        /* \"#utility.yul\":5447:5486   */\n      add\n        /* \"#utility.yul\":5433:5486   */\n      swap3\n      pop\n        /* \"#utility.yul\":5521:5523   */\n      dup4\n        /* \"#utility.yul\":5513:5519   */\n      dup8\n        /* \"#utility.yul\":5509:5524   */\n      add\n        /* \"#utility.yul\":5542:5543   */\n      0x00\n        /* \"#utility.yul\":5552:5807   */\n    tag_768:\n        /* \"#utility.yul\":5566:5572   */\n      dup3\n        /* \"#utility.yul\":5563:5564   */\n      dup2\n        /* \"#utility.yul\":5560:5573   */\n      lt\n        /* \"#utility.yul\":5552:5807   */\n      iszero\n      tag_770\n      jumpi\n        /* \"#utility.yul\":5659:5661   */\n      0x3f\n        /* \"#utility.yul\":5655:5662   */\n      not\n        /* \"#utility.yul\":5643:5652   */\n      dup9\n        /* \"#utility.yul\":5635:5641   */\n      dup7\n        /* \"#utility.yul\":5631:5653   */\n      sub\n        /* \"#utility.yul\":5627:5663   */\n      add\n        /* \"#utility.yul\":5622:5625   */\n      dup5\n        /* \"#utility.yul\":5615:5664   */\n      mstore\n        /* \"#utility.yul\":5687:5727   */\n      tag_771\n        /* \"#utility.yul\":5720:5726   */\n      dup6\n        /* \"#utility.yul\":5711:5717   */\n      dup4\n        /* \"#utility.yul\":5705:5718   */\n      mload\n        /* \"#utility.yul\":5687:5727   */\n      tag_711\n      jump\t// in\n    tag_771:\n        /* \"#utility.yul\":5677:5727   */\n      swap5\n      pop\n        /* \"#utility.yul\":5785:5797   */\n      swap3\n      dup6\n      add\n      swap3\n        /* \"#utility.yul\":5750:5765   */\n      swap1\n      dup6\n      add\n      swap1\n        /* \"#utility.yul\":5588:5589   */\n      0x01\n        /* \"#utility.yul\":5581:5590   */\n      add\n        /* \"#utility.yul\":5552:5807   */\n      jump(tag_768)\n    tag_770:\n      pop\n        /* \"#utility.yul\":5824:5830   */\n      swap3\n      swap8\n        /* \"#utility.yul\":5033:5836   */\n      swap7\n      pop\n      pop\n      pop\n      pop\n      pop\n      pop\n      pop\n      jump\t// out\n        /* \"#utility.yul\":5841:6023   */\n    tag_712:\n        /* \"#utility.yul\":5900:5904   */\n      0x00\n        /* \"#utility.yul\":5933:5951   */\n      0xffffffffffffffff\n        /* \"#utility.yul\":5925:5931   */\n      dup3\n        /* \"#utility.yul\":5922:5952   */\n      gt\n        /* \"#utility.yul\":5919:5975   */\n      iszero\n      tag_774\n      jumpi\n        /* \"#utility.yul\":5955:5973   */\n      tag_774\n      tag_708\n      jump\t// in\n    tag_774:\n      pop\n        /* \"#utility.yul\":6000:6001   */\n      0x05\n        /* \"#utility.yul\":5996:6010   */\n      shl\n        /* \"#utility.yul\":6012:6016   */\n      0x20\n        /* \"#utility.yul\":5992:6017   */\n      add\n      swap1\n        /* \"#utility.yul\":5841:6023   */\n      jump\t// out\n        /* \"#utility.yul\":6028:7228   */\n    tag_148:\n        /* \"#utility.yul\":6131:6137   */\n      0x00\n        /* \"#utility.yul\":6139:6145   */\n      dup1\n        /* \"#utility.yul\":6192:6194   */\n      0x40\n        /* \"#utility.yul\":6180:6189   */\n      dup4\n        /* \"#utility.yul\":6171:6178   */\n      dup6\n        /* \"#utility.yul\":6167:6190   */\n      sub\n        /* \"#utility.yul\":6163:6195   */\n      slt\n        /* \"#utility.yul\":6160:6212   */\n      iszero\n      tag_776\n      jumpi\n        /* \"#utility.yul\":6208:6209   */\n      0x00\n        /* \"#utility.yul\":6205:6206   */\n      dup1\n        /* \"#utility.yul\":6198:6210   */\n      revert\n        /* \"#utility.yul\":6160:6212   */\n    tag_776:\n        /* \"#utility.yul\":6244:6253   */\n      dup3\n        /* \"#utility.yul\":6231:6254   */\n      calldataload\n        /* \"#utility.yul\":6221:6254   */\n      swap2\n      pop\n        /* \"#utility.yul\":6273:6275   */\n      0x20\n        /* \"#utility.yul\":6326:6328   */\n      dup1\n        /* \"#utility.yul\":6315:6324   */\n      dup5\n        /* \"#utility.yul\":6311:6329   */\n      add\n        /* \"#utility.yul\":6298:6330   */\n      calldataload\n        /* \"#utility.yul\":6349:6367   */\n      0xffffffffffffffff\n        /* \"#utility.yul\":6390:6392   */\n      dup1\n        /* \"#utility.yul\":6382:6388   */\n      dup3\n        /* \"#utility.yul\":6379:6393   */\n      gt\n        /* \"#utility.yul\":6376:6410   */\n      iszero\n      tag_777\n      jumpi\n        /* \"#utility.yul\":6406:6407   */\n      0x00\n        /* \"#utility.yul\":6403:6404   */\n      dup1\n        /* \"#utility.yul\":6396:6408   */\n      revert\n        /* \"#utility.yul\":6376:6410   */\n    tag_777:\n        /* \"#utility.yul\":6444:6450   */\n      dup2\n        /* \"#utility.yul\":6433:6442   */\n      dup7\n        /* \"#utility.yul\":6429:6451   */\n      add\n        /* \"#utility.yul\":6419:6451   */\n      swap2\n      pop\n        /* \"#utility.yul\":6489:6496   */\n      dup7\n        /* \"#utility.yul\":6482:6486   */\n      0x1f\n        /* \"#utility.yul\":6478:6480   */\n      dup4\n        /* \"#utility.yul\":6474:6487   */\n      add\n        /* \"#utility.yul\":6470:6497   */\n      slt\n        /* \"#utility.yul\":6460:6515   */\n      tag_778\n      jumpi\n        /* \"#utility.yul\":6511:6512   */\n      0x00\n        /* \"#utility.yul\":6508:6509   */\n      dup1\n        /* \"#utility.yul\":6501:6513   */\n      revert\n        /* \"#utility.yul\":6460:6515   */\n    tag_778:\n        /* \"#utility.yul\":6547:6549   */\n      dup2\n        /* \"#utility.yul\":6534:6550   */\n      calldataload\n        /* \"#utility.yul\":6570:6629   */\n      tag_779\n        /* \"#utility.yul\":6586:6628   */\n      tag_780\n        /* \"#utility.yul\":6625:6627   */\n      dup3\n        /* \"#utility.yul\":6586:6628   */\n      tag_712\n      jump\t// in\n    tag_780:\n        /* \"#utility.yul\":6570:6629   */\n      tag_709\n      jump\t// in\n    tag_779:\n        /* \"#utility.yul\":6663:6678   */\n      dup2\n      dup2\n      mstore\n        /* \"#utility.yul\":6745:6746   */\n      0x05\n        /* \"#utility.yul\":6741:6751   */\n      swap2\n      swap1\n      swap2\n      shl\n        /* \"#utility.yul\":6733:6752   */\n      dup4\n      add\n        /* \"#utility.yul\":6729:6757   */\n      dup5\n      add\n      swap1\n        /* \"#utility.yul\":6694:6706   */\n      dup5\n      dup2\n      add\n      swap1\n        /* \"#utility.yul\":6769:6788   */\n      dup10\n      dup4\n      gt\n        /* \"#utility.yul\":6766:6805   */\n      iszero\n      tag_781\n      jumpi\n        /* \"#utility.yul\":6801:6802   */\n      0x00\n        /* \"#utility.yul\":6798:6799   */\n      dup1\n        /* \"#utility.yul\":6791:6803   */\n      revert\n        /* \"#utility.yul\":6766:6805   */\n    tag_781:\n        /* \"#utility.yul\":6833:6835   */\n      dup6\n        /* \"#utility.yul\":6829:6831   */\n      dup6\n        /* \"#utility.yul\":6825:6836   */\n      add\n        /* \"#utility.yul\":6845:7198   */\n    tag_782:\n        /* \"#utility.yul\":6861:6867   */\n      dup4\n        /* \"#utility.yul\":6856:6859   */\n      dup2\n        /* \"#utility.yul\":6853:6868   */\n      lt\n        /* \"#utility.yul\":6845:7198   */\n      iszero\n      tag_784\n      jumpi\n        /* \"#utility.yul\":6947:6950   */\n      dup1\n        /* \"#utility.yul\":6934:6951   */\n      calldataload\n        /* \"#utility.yul\":6983:6985   */\n      dup6\n        /* \"#utility.yul\":6970:6981   */\n      dup2\n        /* \"#utility.yul\":6967:6986   */\n      gt\n        /* \"#utility.yul\":6964:7073   */\n      iszero\n      tag_785\n      jumpi\n        /* \"#utility.yul\":7027:7028   */\n      0x00\n        /* \"#utility.yul\":7056:7058   */\n      dup1\n        /* \"#utility.yul\":7052:7054   */\n      dup2\n        /* \"#utility.yul\":7045:7059   */\n      revert\n        /* \"#utility.yul\":6964:7073   */\n    tag_785:\n        /* \"#utility.yul\":7098:7155   */\n      tag_786\n        /* \"#utility.yul\":7147:7154   */\n      dup13\n        /* \"#utility.yul\":7142:7144   */\n      dup10\n        /* \"#utility.yul\":7128:7139   */\n      dup4\n        /* \"#utility.yul\":7124:7126   */\n      dup11\n        /* \"#utility.yul\":7120:7140   */\n      add\n        /* \"#utility.yul\":7116:7145   */\n      add\n        /* \"#utility.yul\":7098:7155   */\n      tag_710\n      jump\t// in\n    tag_786:\n        /* \"#utility.yul\":7086:7156   */\n      dup5\n      mstore\n      pop\n        /* \"#utility.yul\":7176:7188   */\n      swap2\n      dup7\n      add\n      swap2\n        /* \"#utility.yul\":6878:6890   */\n      dup7\n      add\n        /* \"#utility.yul\":6845:7198   */\n      jump(tag_782)\n    tag_784:\n        /* \"#utility.yul\":6849:6852   */\n      pop\n        /* \"#utility.yul\":7217:7222   */\n      dup1\n        /* \"#utility.yul\":7207:7222   */\n      swap7\n      pop\n      pop\n      pop\n      pop\n      pop\n      pop\n      pop\n        /* \"#utility.yul\":6028:7228   */\n      swap3\n      pop\n      swap3\n      swap1\n      pop\n      jump\t// out\n        /* \"#utility.yul\":7233:7876   */\n    tag_154:\n        /* \"#utility.yul\":7402:7404   */\n      0x20\n        /* \"#utility.yul\":7454:7475   */\n      dup1\n      dup3\n      mstore\n        /* \"#utility.yul\":7524:7537   */\n      dup3\n      mload\n        /* \"#utility.yul\":7427:7445   */\n      dup3\n      dup3\n      add\n        /* \"#utility.yul\":7546:7568   */\n      dup2\n      swap1\n      mstore\n        /* \"#utility.yul\":7373:7377   */\n      0x00\n      swap2\n        /* \"#utility.yul\":7402:7404   */\n      swap1\n        /* \"#utility.yul\":7625:7640   */\n      dup5\n      dup3\n      add\n      swap1\n        /* \"#utility.yul\":7599:7601   */\n      0x40\n        /* \"#utility.yul\":7584:7602   */\n      dup6\n      add\n      swap1\n        /* \"#utility.yul\":7373:7377   */\n      dup5\n        /* \"#utility.yul\":7668:7850   */\n    tag_788:\n        /* \"#utility.yul\":7682:7688   */\n      dup2\n        /* \"#utility.yul\":7679:7680   */\n      dup2\n        /* \"#utility.yul\":7676:7689   */\n      lt\n        /* \"#utility.yul\":7668:7850   */\n      iszero\n      tag_755\n      jumpi\n        /* \"#utility.yul\":7747:7760   */\n      dup4\n      mload\n        /* \"#utility.yul\":7762:7768   */\n      0xffff\n        /* \"#utility.yul\":7743:7769   */\n      and\n        /* \"#utility.yul\":7731:7770   */\n      dup4\n      mstore\n        /* \"#utility.yul\":7825:7840   */\n      swap3\n      dup5\n      add\n      swap3\n        /* \"#utility.yul\":7790:7802   */\n      swap2\n      dup5\n      add\n      swap2\n        /* \"#utility.yul\":7704:7705   */\n      0x01\n        /* \"#utility.yul\":7697:7706   */\n      add\n        /* \"#utility.yul\":7668:7850   */\n      jump(tag_788)\n        /* \"#utility.yul\":7881:8841   */\n    tag_157:\n        /* \"#utility.yul\":7972:7978   */\n      0x00\n        /* \"#utility.yul\":7980:7986   */\n      dup1\n        /* \"#utility.yul\":8033:8035   */\n      0x40\n        /* \"#utility.yul\":8021:8030   */\n      dup4\n        /* \"#utility.yul\":8012:8019   */\n      dup6\n        /* \"#utility.yul\":8008:8031   */\n      sub\n        /* \"#utility.yul\":8004:8036   */\n      slt\n        /* \"#utility.yul\":8001:8053   */\n      iszero\n      tag_792\n      jumpi\n        /* \"#utility.yul\":8049:8050   */\n      0x00\n        /* \"#utility.yul\":8046:8047   */\n      dup1\n        /* \"#utility.yul\":8039:8051   */\n      revert\n        /* \"#utility.yul\":8001:8053   */\n    tag_792:\n        /* \"#utility.yul\":8085:8094   */\n      dup3\n        /* \"#utility.yul\":8072:8095   */\n      calldataload\n        /* \"#utility.yul\":8062:8095   */\n      swap2\n      pop\n        /* \"#utility.yul\":8114:8116   */\n      0x20\n        /* \"#utility.yul\":8167:8169   */\n      dup1\n        /* \"#utility.yul\":8156:8165   */\n      dup5\n        /* \"#utility.yul\":8152:8170   */\n      add\n        /* \"#utility.yul\":8139:8171   */\n      calldataload\n        /* \"#utility.yul\":8194:8212   */\n      0xffffffffffffffff\n        /* \"#utility.yul\":8186:8192   */\n      dup2\n        /* \"#utility.yul\":8183:8213   */\n      gt\n        /* \"#utility.yul\":8180:8230   */\n      iszero\n      tag_793\n      jumpi\n        /* \"#utility.yul\":8226:8227   */\n      0x00\n        /* \"#utility.yul\":8223:8224   */\n      dup1\n        /* \"#utility.yul\":8216:8228   */\n      revert\n        /* \"#utility.yul\":8180:8230   */\n    tag_793:\n        /* \"#utility.yul\":8249:8271   */\n      dup5\n      add\n        /* \"#utility.yul\":8302:8306   */\n      0x1f\n        /* \"#utility.yul\":8294:8307   */\n      dup2\n      add\n        /* \"#utility.yul\":8290:8317   */\n      dup7\n      sgt\n        /* \"#utility.yul\":8280:8335   */\n      tag_794\n      jumpi\n        /* \"#utility.yul\":8331:8332   */\n      0x00\n        /* \"#utility.yul\":8328:8329   */\n      dup1\n        /* \"#utility.yul\":8321:8333   */\n      revert\n        /* \"#utility.yul\":8280:8335   */\n    tag_794:\n        /* \"#utility.yul\":8367:8369   */\n      dup1\n        /* \"#utility.yul\":8354:8370   */\n      calldataload\n        /* \"#utility.yul\":8390:8449   */\n      tag_795\n        /* \"#utility.yul\":8406:8448   */\n      tag_780\n        /* \"#utility.yul\":8445:8447   */\n      dup3\n        /* \"#utility.yul\":8406:8448   */\n      tag_712\n      jump\t// in\n        /* \"#utility.yul\":8390:8449   */\n    tag_795:\n        /* \"#utility.yul\":8483:8498   */\n      dup2\n      dup2\n      mstore\n        /* \"#utility.yul\":8565:8566   */\n      0x05\n        /* \"#utility.yul\":8561:8571   */\n      swap2\n      swap1\n      swap2\n      shl\n        /* \"#utility.yul\":8553:8572   */\n      dup3\n      add\n        /* \"#utility.yul\":8549:8577   */\n      dup4\n      add\n      swap1\n        /* \"#utility.yul\":8514:8526   */\n      dup4\n      dup2\n      add\n      swap1\n        /* \"#utility.yul\":8589:8608   */\n      dup9\n      dup4\n      gt\n        /* \"#utility.yul\":8586:8625   */\n      iszero\n      tag_797\n      jumpi\n        /* \"#utility.yul\":8621:8622   */\n      0x00\n        /* \"#utility.yul\":8618:8619   */\n      dup1\n        /* \"#utility.yul\":8611:8623   */\n      revert\n        /* \"#utility.yul\":8586:8625   */\n    tag_797:\n        /* \"#utility.yul\":8645:8656   */\n      swap3\n      dup5\n      add\n      swap3\n        /* \"#utility.yul\":8665:8811   */\n    tag_798:\n        /* \"#utility.yul\":8681:8687   */\n      dup3\n        /* \"#utility.yul\":8676:8679   */\n      dup5\n        /* \"#utility.yul\":8673:8688   */\n      lt\n        /* \"#utility.yul\":8665:8811   */\n      iszero\n      tag_800\n      jumpi\n        /* \"#utility.yul\":8747:8768   */\n      tag_801\n        /* \"#utility.yul\":8764:8767   */\n      dup5\n        /* \"#utility.yul\":8747:8768   */\n      tag_707\n      jump\t// in\n    tag_801:\n        /* \"#utility.yul\":8735:8769   */\n      dup3\n      mstore\n        /* \"#utility.yul\":8698:8710   */\n      swap3\n      dup5\n      add\n      swap3\n        /* \"#utility.yul\":8789:8801   */\n      swap1\n      dup5\n      add\n      swap1\n        /* \"#utility.yul\":8665:8811   */\n      jump(tag_798)\n    tag_800:\n        /* \"#utility.yul\":8830:8835   */\n      dup1\n        /* \"#utility.yul\":8820:8835   */\n      swap6\n      pop\n      pop\n      pop\n      pop\n      pop\n      pop\n        /* \"#utility.yul\":7881:8841   */\n      swap3\n      pop\n      swap3\n      swap1\n      pop\n      jump\t// out\n        /* \"#utility.yul\":8846:9478   */\n    tag_163:\n        /* \"#utility.yul\":9017:9019   */\n      0x20\n        /* \"#utility.yul\":9069:9090   */\n      dup1\n      dup3\n      mstore\n        /* \"#utility.yul\":9139:9152   */\n      dup3\n      mload\n        /* \"#utility.yul\":9042:9060   */\n      dup3\n      dup3\n      add\n        /* \"#utility.yul\":9161:9183   */\n      dup2\n      swap1\n      mstore\n        /* \"#utility.yul\":8988:8992   */\n      0x00\n      swap2\n        /* \"#utility.yul\":9017:9019   */\n      swap1\n        /* \"#utility.yul\":9240:9255   */\n      dup5\n      dup3\n      add\n      swap1\n        /* \"#utility.yul\":9214:9216   */\n      0x40\n        /* \"#utility.yul\":9199:9217   */\n      dup6\n      add\n      swap1\n        /* \"#utility.yul\":8988:8992   */\n      dup5\n        /* \"#utility.yul\":9283:9452   */\n    tag_803:\n        /* \"#utility.yul\":9297:9303   */\n      dup2\n        /* \"#utility.yul\":9294:9295   */\n      dup2\n        /* \"#utility.yul\":9291:9304   */\n      lt\n        /* \"#utility.yul\":9283:9452   */\n      iszero\n      tag_755\n      jumpi\n        /* \"#utility.yul\":9358:9371   */\n      dup4\n      mload\n        /* \"#utility.yul\":9346:9372   */\n      dup4\n      mstore\n        /* \"#utility.yul\":9427:9442   */\n      swap3\n      dup5\n      add\n      swap3\n        /* \"#utility.yul\":9392:9404   */\n      swap2\n      dup5\n      add\n      swap2\n        /* \"#utility.yul\":9319:9320   */\n      0x01\n        /* \"#utility.yul\":9312:9321   */\n      add\n        /* \"#utility.yul\":9283:9452   */\n      jump(tag_803)\n        /* \"#utility.yul\":9483:9643   */\n    tag_713:\n        /* \"#utility.yul\":9548:9568   */\n      dup1\n      calldataload\n        /* \"#utility.yul\":9604:9617   */\n      dup1\n      iszero\n        /* \"#utility.yul\":9597:9618   */\n      iszero\n        /* \"#utility.yul\":9587:9619   */\n      dup2\n      eq\n        /* \"#utility.yul\":9577:9637   */\n      tag_720\n      jumpi\n        /* \"#utility.yul\":9633:9634   */\n      0x00\n        /* \"#utility.yul\":9630:9631   */\n      dup1\n        /* \"#utility.yul\":9623:9635   */\n      revert\n        /* \"#utility.yul\":9648:9896   */\n    tag_166:\n        /* \"#utility.yul\":9713:9719   */\n      0x00\n        /* \"#utility.yul\":9721:9727   */\n      dup1\n        /* \"#utility.yul\":9774:9776   */\n      0x40\n        /* \"#utility.yul\":9762:9771   */\n      dup4\n        /* \"#utility.yul\":9753:9760   */\n      dup6\n        /* \"#utility.yul\":9749:9772   */\n      sub\n        /* \"#utility.yul\":9745:9777   */\n      slt\n        /* \"#utility.yul\":9742:9794   */\n      iszero\n      tag_809\n      jumpi\n        /* \"#utility.yul\":9790:9791   */\n      0x00\n        /* \"#utility.yul\":9787:9788   */\n      dup1\n        /* \"#utility.yul\":9780:9792   */\n      revert\n        /* \"#utility.yul\":9742:9794   */\n    tag_809:\n        /* \"#utility.yul\":9826:9835   */\n      dup3\n        /* \"#utility.yul\":9813:9836   */\n      calldataload\n        /* \"#utility.yul\":9803:9836   */\n      swap2\n      pop\n        /* \"#utility.yul\":9855:9890   */\n      tag_758\n        /* \"#utility.yul\":9886:9888   */\n      0x20\n        /* \"#utility.yul\":9875:9884   */\n      dup5\n        /* \"#utility.yul\":9871:9889   */\n      add\n        /* \"#utility.yul\":9855:9890   */\n      tag_713\n      jump\t// in\n        /* \"#utility.yul\":9901:10074   */\n    tag_714:\n        /* \"#utility.yul\":9969:9989   */\n      dup1\n      calldataload\n      sub(shl(0xa0, 0x01), 0x01)\n        /* \"#utility.yul\":10018:10049   */\n      dup2\n      and\n        /* \"#utility.yul\":10008:10050   */\n      dup2\n      eq\n        /* \"#utility.yul\":9998:10068   */\n      tag_720\n      jumpi\n        /* \"#utility.yul\":10064:10065   */\n      0x00\n        /* \"#utility.yul\":10061:10062   */\n      dup1\n        /* \"#utility.yul\":10054:10066   */\n      revert\n        /* \"#utility.yul\":10079:10405   */\n    tag_170:\n        /* \"#utility.yul\":10155:10161   */\n      0x00\n        /* \"#utility.yul\":10163:10169   */\n      dup1\n        /* \"#utility.yul\":10171:10177   */\n      0x00\n        /* \"#utility.yul\":10224:10226   */\n      0x60\n        /* \"#utility.yul\":10212:10221   */\n      dup5\n        /* \"#utility.yul\":10203:10210   */\n      dup7\n        /* \"#utility.yul\":10199:10222   */\n      sub\n        /* \"#utility.yul\":10195:10227   */\n      slt\n        /* \"#utility.yul\":10192:10244   */\n      iszero\n      tag_814\n      jumpi\n        /* \"#utility.yul\":10240:10241   */\n      0x00\n        /* \"#utility.yul\":10237:10238   */\n      dup1\n        /* \"#utility.yul\":10230:10242   */\n      revert\n        /* \"#utility.yul\":10192:10244   */\n    tag_814:\n        /* \"#utility.yul\":10276:10285   */\n      dup4\n        /* \"#utility.yul\":10263:10286   */\n      calldataload\n        /* \"#utility.yul\":10253:10286   */\n      swap3\n      pop\n        /* \"#utility.yul\":10305:10342   */\n      tag_815\n        /* \"#utility.yul\":10338:10340   */\n      0x20\n        /* \"#utility.yul\":10327:10336   */\n      dup6\n        /* \"#utility.yul\":10323:10341   */\n      add\n        /* \"#utility.yul\":10305:10342   */\n      tag_706\n      jump\t// in\n    tag_815:\n        /* \"#utility.yul\":10295:10342   */\n      swap2\n      pop\n        /* \"#utility.yul\":10361:10399   */\n      tag_726\n        /* \"#utility.yul\":10395:10397   */\n      0x40\n        /* \"#utility.yul\":10384:10393   */\n      dup6\n        /* \"#utility.yul\":10380:10398   */\n      add\n        /* \"#utility.yul\":10361:10399   */\n      tag_714\n      jump\t// in\n        /* \"#utility.yul\":10410:10730   */\n    tag_177:\n        /* \"#utility.yul\":10483:10489   */\n      0x00\n        /* \"#utility.yul\":10491:10497   */\n      dup1\n        /* \"#utility.yul\":10499:10505   */\n      0x00\n        /* \"#utility.yul\":10552:10554   */\n      0x60\n        /* \"#utility.yul\":10540:10549   */\n      dup5\n        /* \"#utility.yul\":10531:10538   */\n      dup7\n        /* \"#utility.yul\":10527:10550   */\n      sub\n        /* \"#utility.yul\":10523:10555   */\n      slt\n        /* \"#utility.yul\":10520:10572   */\n      iszero\n      tag_818\n      jumpi\n        /* \"#utility.yul\":10568:10569   */\n      0x00\n        /* \"#utility.yul\":10565:10566   */\n      dup1\n        /* \"#utility.yul\":10558:10570   */\n      revert\n        /* \"#utility.yul\":10520:10572   */\n    tag_818:\n        /* \"#utility.yul\":10604:10613   */\n      dup4\n        /* \"#utility.yul\":10591:10614   */\n      calldataload\n        /* \"#utility.yul\":10581:10614   */\n      swap3\n      pop\n        /* \"#utility.yul\":10633:10670   */\n      tag_819\n        /* \"#utility.yul\":10666:10668   */\n      0x20\n        /* \"#utility.yul\":10655:10664   */\n      dup6\n        /* \"#utility.yul\":10651:10669   */\n      add\n        /* \"#utility.yul\":10633:10670   */\n      tag_706\n      jump\t// in\n    tag_819:\n        /* \"#utility.yul\":10623:10670   */\n      swap2\n      pop\n        /* \"#utility.yul\":10689:10724   */\n      tag_726\n        /* \"#utility.yul\":10720:10722   */\n      0x40\n        /* \"#utility.yul\":10709:10718   */\n      dup6\n        /* \"#utility.yul\":10705:10723   */\n      add\n        /* \"#utility.yul\":10689:10724   */\n      tag_713\n      jump\t// in\n        /* \"#utility.yul\":10735:10985   */\n    tag_181:\n        /* \"#utility.yul\":10801:10807   */\n      0x00\n        /* \"#utility.yul\":10809:10815   */\n      dup1\n        /* \"#utility.yul\":10862:10864   */\n      0x40\n        /* \"#utility.yul\":10850:10859   */\n      dup4\n        /* \"#utility.yul\":10841:10848   */\n      dup6\n        /* \"#utility.yul\":10837:10860   */\n      sub\n        /* \"#utility.yul\":10833:10865   */\n      slt\n        /* \"#utility.yul\":10830:10882   */\n      iszero\n      tag_822\n      jumpi\n        /* \"#utility.yul\":10878:10879   */\n      0x00\n        /* \"#utility.yul\":10875:10876   */\n      dup1\n        /* \"#utility.yul\":10868:10880   */\n      revert\n        /* \"#utility.yul\":10830:10882   */\n    tag_822:\n        /* \"#utility.yul\":10914:10923   */\n      dup3\n        /* \"#utility.yul\":10901:10924   */\n      calldataload\n        /* \"#utility.yul\":10891:10924   */\n      swap2\n      pop\n        /* \"#utility.yul\":10943:10979   */\n      tag_758\n        /* \"#utility.yul\":10975:10977   */\n      0x20\n        /* \"#utility.yul\":10964:10973   */\n      dup5\n        /* \"#utility.yul\":10960:10978   */\n      add\n        /* \"#utility.yul\":10943:10979   */\n      tag_707\n      jump\t// in\n        /* \"#utility.yul\":10990:11632   */\n    tag_187:\n        /* \"#utility.yul\":11155:11157   */\n      0x20\n        /* \"#utility.yul\":11207:11228   */\n      dup1\n      dup3\n      mstore\n        /* \"#utility.yul\":11277:11290   */\n      dup3\n      mload\n        /* \"#utility.yul\":11180:11198   */\n      dup3\n      dup3\n      add\n        /* \"#utility.yul\":11299:11321   */\n      dup2\n      swap1\n      mstore\n        /* \"#utility.yul\":11126:11130   */\n      0x00\n      swap2\n        /* \"#utility.yul\":11155:11157   */\n      swap1\n        /* \"#utility.yul\":11378:11393   */\n      dup5\n      dup3\n      add\n      swap1\n        /* \"#utility.yul\":11352:11354   */\n      0x40\n        /* \"#utility.yul\":11337:11355   */\n      dup6\n      add\n      swap1\n        /* \"#utility.yul\":11126:11130   */\n      dup5\n        /* \"#utility.yul\":11421:11606   */\n    tag_825:\n        /* \"#utility.yul\":11435:11441   */\n      dup2\n        /* \"#utility.yul\":11432:11433   */\n      dup2\n        /* \"#utility.yul\":11429:11442   */\n      lt\n        /* \"#utility.yul\":11421:11606   */\n      iszero\n      tag_755\n      jumpi\n        /* \"#utility.yul\":11510:11523   */\n      dup4\n      mload\n        /* \"#utility.yul\":11503:11524   */\n      iszero\n        /* \"#utility.yul\":11496:11525   */\n      iszero\n        /* \"#utility.yul\":11484:11526   */\n      dup4\n      mstore\n        /* \"#utility.yul\":11581:11596   */\n      swap3\n      dup5\n      add\n      swap3\n        /* \"#utility.yul\":11546:11558   */\n      swap2\n      dup5\n      add\n      swap2\n        /* \"#utility.yul\":11457:11458   */\n      0x01\n        /* \"#utility.yul\":11450:11459   */\n      add\n        /* \"#utility.yul\":11421:11606   */\n      jump(tag_825)\n        /* \"#utility.yul\":11637:11857   */\n    tag_202:\n        /* \"#utility.yul\":11786:11788   */\n      0x20\n        /* \"#utility.yul\":11775:11784   */\n      dup2\n        /* \"#utility.yul\":11768:11789   */\n      mstore\n        /* \"#utility.yul\":11749:11753   */\n      0x00\n        /* \"#utility.yul\":11806:11851   */\n      tag_829\n        /* \"#utility.yul\":11847:11849   */\n      0x20\n        /* \"#utility.yul\":11836:11845   */\n      dup4\n        /* \"#utility.yul\":11832:11850   */\n      add\n        /* \"#utility.yul\":11824:11830   */\n      dup5\n        /* \"#utility.yul\":11806:11851   */\n      tag_711\n      jump\t// in\n    tag_829:\n        /* \"#utility.yul\":11798:11851   */\n      swap4\n        /* \"#utility.yul\":11637:11857   */\n      swap3\n      pop\n      pop\n      pop\n      jump\t// out\n        /* \"#utility.yul\":11862:12824   */\n    tag_205:\n        /* \"#utility.yul\":11954:11960   */\n      0x00\n        /* \"#utility.yul\":11962:11968   */\n      dup1\n        /* \"#utility.yul\":12015:12017   */\n      0x40\n        /* \"#utility.yul\":12003:12012   */\n      dup4\n        /* \"#utility.yul\":11994:12001   */\n      dup6\n        /* \"#utility.yul\":11990:12013   */\n      sub\n        /* \"#utility.yul\":11986:12018   */\n      slt\n        /* \"#utility.yul\":11983:12035   */\n      iszero\n      tag_831\n      jumpi\n        /* \"#utility.yul\":12031:12032   */\n      0x00\n        /* \"#utility.yul\":12028:12029   */\n      dup1\n        /* \"#utility.yul\":12021:12033   */\n      revert\n        /* \"#utility.yul\":11983:12035   */\n    tag_831:\n        /* \"#utility.yul\":12067:12076   */\n      dup3\n        /* \"#utility.yul\":12054:12077   */\n      calldataload\n        /* \"#utility.yul\":12044:12077   */\n      swap2\n      pop\n        /* \"#utility.yul\":12096:12098   */\n      0x20\n        /* \"#utility.yul\":12149:12151   */\n      dup1\n        /* \"#utility.yul\":12138:12147   */\n      dup5\n        /* \"#utility.yul\":12134:12152   */\n      add\n        /* \"#utility.yul\":12121:12153   */\n      calldataload\n        /* \"#utility.yul\":12176:12194   */\n      0xffffffffffffffff\n        /* \"#utility.yul\":12168:12174   */\n      dup2\n        /* \"#utility.yul\":12165:12195   */\n      gt\n        /* \"#utility.yul\":12162:12212   */\n      iszero\n      tag_832\n      jumpi\n        /* \"#utility.yul\":12208:12209   */\n      0x00\n        /* \"#utility.yul\":12205:12206   */\n      dup1\n        /* \"#utility.yul\":12198:12210   */\n      revert\n        /* \"#utility.yul\":12162:12212   */\n    tag_832:\n        /* \"#utility.yul\":12231:12253   */\n      dup5\n      add\n        /* \"#utility.yul\":12284:12288   */\n      0x1f\n        /* \"#utility.yul\":12276:12289   */\n      dup2\n      add\n        /* \"#utility.yul\":12272:12299   */\n      dup7\n      sgt\n        /* \"#utility.yul\":12262:12317   */\n      tag_833\n      jumpi\n        /* \"#utility.yul\":12313:12314   */\n      0x00\n        /* \"#utility.yul\":12310:12311   */\n      dup1\n        /* \"#utility.yul\":12303:12315   */\n      revert\n        /* \"#utility.yul\":12262:12317   */\n    tag_833:\n        /* \"#utility.yul\":12349:12351   */\n      dup1\n        /* \"#utility.yul\":12336:12352   */\n      calldataload\n        /* \"#utility.yul\":12372:12431   */\n      tag_834\n        /* \"#utility.yul\":12388:12430   */\n      tag_780\n        /* \"#utility.yul\":12427:12429   */\n      dup3\n        /* \"#utility.yul\":12388:12430   */\n      tag_712\n      jump\t// in\n        /* \"#utility.yul\":12372:12431   */\n    tag_834:\n        /* \"#utility.yul\":12465:12480   */\n      dup2\n      dup2\n      mstore\n        /* \"#utility.yul\":12547:12548   */\n      0x05\n        /* \"#utility.yul\":12543:12553   */\n      swap2\n      swap1\n      swap2\n      shl\n        /* \"#utility.yul\":12535:12554   */\n      dup3\n      add\n        /* \"#utility.yul\":12531:12559   */\n      dup4\n      add\n      swap1\n        /* \"#utility.yul\":12496:12508   */\n      dup4\n      dup2\n      add\n      swap1\n        /* \"#utility.yul\":12571:12590   */\n      dup9\n      dup4\n      gt\n        /* \"#utility.yul\":12568:12607   */\n      iszero\n      tag_836\n      jumpi\n        /* \"#utility.yul\":12603:12604   */\n      0x00\n        /* \"#utility.yul\":12600:12601   */\n      dup1\n        /* \"#utility.yul\":12593:12605   */\n      revert\n        /* \"#utility.yul\":12568:12607   */\n    tag_836:\n        /* \"#utility.yul\":12627:12638   */\n      swap3\n      dup5\n      add\n      swap3\n        /* \"#utility.yul\":12647:12794   */\n    tag_837:\n        /* \"#utility.yul\":12663:12669   */\n      dup3\n        /* \"#utility.yul\":12658:12661   */\n      dup5\n        /* \"#utility.yul\":12655:12670   */\n      lt\n        /* \"#utility.yul\":12647:12794   */\n      iszero\n      tag_800\n      jumpi\n        /* \"#utility.yul\":12729:12751   */\n      tag_840\n        /* \"#utility.yul\":12747:12750   */\n      dup5\n        /* \"#utility.yul\":12729:12751   */\n      tag_706\n      jump\t// in\n    tag_840:\n        /* \"#utility.yul\":12717:12752   */\n      dup3\n      mstore\n        /* \"#utility.yul\":12680:12692   */\n      swap3\n      dup5\n      add\n      swap3\n        /* \"#utility.yul\":12772:12784   */\n      swap1\n      dup5\n      add\n      swap1\n        /* \"#utility.yul\":12647:12794   */\n      jump(tag_837)\n        /* \"#utility.yul\":12829:13787   */\n    tag_209:\n        /* \"#utility.yul\":12919:12925   */\n      0x00\n        /* \"#utility.yul\":12927:12933   */\n      dup1\n        /* \"#utility.yul\":12980:12982   */\n      0x40\n        /* \"#utility.yul\":12968:12977   */\n      dup4\n        /* \"#utility.yul\":12959:12966   */\n      dup6\n        /* \"#utility.yul\":12955:12978   */\n      sub\n        /* \"#utility.yul\":12951:12983   */\n      slt\n        /* \"#utility.yul\":12948:13000   */\n      iszero\n      tag_842\n      jumpi\n        /* \"#utility.yul\":12996:12997   */\n      0x00\n        /* \"#utility.yul\":12993:12994   */\n      dup1\n        /* \"#utility.yul\":12986:12998   */\n      revert\n        /* \"#utility.yul\":12948:13000   */\n    tag_842:\n        /* \"#utility.yul\":13032:13041   */\n      dup3\n        /* \"#utility.yul\":13019:13042   */\n      calldataload\n        /* \"#utility.yul\":13009:13042   */\n      swap2\n      pop\n        /* \"#utility.yul\":13061:13063   */\n      0x20\n        /* \"#utility.yul\":13114:13116   */\n      dup1\n        /* \"#utility.yul\":13103:13112   */\n      dup5\n        /* \"#utility.yul\":13099:13117   */\n      add\n        /* \"#utility.yul\":13086:13118   */\n      calldataload\n        /* \"#utility.yul\":13141:13159   */\n      0xffffffffffffffff\n        /* \"#utility.yul\":13133:13139   */\n      dup2\n        /* \"#utility.yul\":13130:13160   */\n      gt\n        /* \"#utility.yul\":13127:13177   */\n      iszero\n      tag_843\n      jumpi\n        /* \"#utility.yul\":13173:13174   */\n      0x00\n        /* \"#utility.yul\":13170:13171   */\n      dup1\n        /* \"#utility.yul\":13163:13175   */\n      revert\n        /* \"#utility.yul\":13127:13177   */\n    tag_843:\n        /* \"#utility.yul\":13196:13218   */\n      dup5\n      add\n        /* \"#utility.yul\":13249:13253   */\n      0x1f\n        /* \"#utility.yul\":13241:13254   */\n      dup2\n      add\n        /* \"#utility.yul\":13237:13264   */\n      dup7\n      sgt\n        /* \"#utility.yul\":13227:13282   */\n      tag_844\n      jumpi\n        /* \"#utility.yul\":13278:13279   */\n      0x00\n        /* \"#utility.yul\":13275:13276   */\n      dup1\n        /* \"#utility.yul\":13268:13280   */\n      revert\n        /* \"#utility.yul\":13227:13282   */\n    tag_844:\n        /* \"#utility.yul\":13314:13316   */\n      dup1\n        /* \"#utility.yul\":13301:13317   */\n      calldataload\n        /* \"#utility.yul\":13337:13396   */\n      tag_845\n        /* \"#utility.yul\":13353:13395   */\n      tag_780\n        /* \"#utility.yul\":13392:13394   */\n      dup3\n        /* \"#utility.yul\":13353:13395   */\n      tag_712\n      jump\t// in\n        /* \"#utility.yul\":13337:13396   */\n    tag_845:\n        /* \"#utility.yul\":13430:13445   */\n      dup2\n      dup2\n      mstore\n        /* \"#utility.yul\":13512:13513   */\n      0x05\n        /* \"#utility.yul\":13508:13518   */\n      swap2\n      swap1\n      swap2\n      shl\n        /* \"#utility.yul\":13500:13519   */\n      dup3\n      add\n        /* \"#utility.yul\":13496:13524   */\n      dup4\n      add\n      swap1\n        /* \"#utility.yul\":13461:13473   */\n      dup4\n      dup2\n      add\n      swap1\n        /* \"#utility.yul\":13536:13555   */\n      dup9\n      dup4\n      gt\n        /* \"#utility.yul\":13533:13572   */\n      iszero\n      tag_847\n      jumpi\n        /* \"#utility.yul\":13568:13569   */\n      0x00\n        /* \"#utility.yul\":13565:13566   */\n      dup1\n        /* \"#utility.yul\":13558:13570   */\n      revert\n        /* \"#utility.yul\":13533:13572   */\n    tag_847:\n        /* \"#utility.yul\":13592:13603   */\n      swap3\n      dup5\n      add\n      swap3\n        /* \"#utility.yul\":13612:13757   */\n    tag_848:\n        /* \"#utility.yul\":13628:13634   */\n      dup3\n        /* \"#utility.yul\":13623:13626   */\n      dup5\n        /* \"#utility.yul\":13620:13635   */\n      lt\n        /* \"#utility.yul\":13612:13757   */\n      iszero\n      tag_800\n      jumpi\n        /* \"#utility.yul\":13694:13714   */\n      tag_851\n        /* \"#utility.yul\":13710:13713   */\n      dup5\n        /* \"#utility.yul\":13694:13714   */\n      tag_713\n      jump\t// in\n    tag_851:\n        /* \"#utility.yul\":13682:13715   */\n      dup3\n      mstore\n        /* \"#utility.yul\":13645:13657   */\n      swap3\n      dup5\n      add\n      swap3\n        /* \"#utility.yul\":13735:13747   */\n      swap1\n      dup5\n      add\n      swap1\n        /* \"#utility.yul\":13612:13757   */\n      jump(tag_848)\n        /* \"#utility.yul\":13792:14046   */\n    tag_216:\n        /* \"#utility.yul\":13860:13866   */\n      0x00\n        /* \"#utility.yul\":13868:13874   */\n      dup1\n        /* \"#utility.yul\":13921:13923   */\n      0x40\n        /* \"#utility.yul\":13909:13918   */\n      dup4\n        /* \"#utility.yul\":13900:13907   */\n      dup6\n        /* \"#utility.yul\":13896:13919   */\n      sub\n        /* \"#utility.yul\":13892:13924   */\n      slt\n        /* \"#utility.yul\":13889:13941   */\n      iszero\n      tag_853\n      jumpi\n        /* \"#utility.yul\":13937:13938   */\n      0x00\n        /* \"#utility.yul\":13934:13935   */\n      dup1\n        /* \"#utility.yul\":13927:13939   */\n      revert\n        /* \"#utility.yul\":13889:13941   */\n    tag_853:\n        /* \"#utility.yul\":13973:13982   */\n      dup3\n        /* \"#utility.yul\":13960:13983   */\n      calldataload\n        /* \"#utility.yul\":13950:13983   */\n      swap2\n      pop\n        /* \"#utility.yul\":14002:14040   */\n      tag_758\n        /* \"#utility.yul\":14036:14038   */\n      0x20\n        /* \"#utility.yul\":14025:14034   */\n      dup5\n        /* \"#utility.yul\":14021:14039   */\n      add\n        /* \"#utility.yul\":14002:14040   */\n      tag_714\n      jump\t// in\n        /* \"#utility.yul\":14766:15724   */\n    tag_246:\n        /* \"#utility.yul\":14859:14865   */\n      0x00\n        /* \"#utility.yul\":14867:14873   */\n      dup1\n        /* \"#utility.yul\":14920:14922   */\n      0x40\n        /* \"#utility.yul\":14908:14917   */\n      dup4\n        /* \"#utility.yul\":14899:14906   */\n      dup6\n        /* \"#utility.yul\":14895:14918   */\n      sub\n        /* \"#utility.yul\":14891:14923   */\n      slt\n        /* \"#utility.yul\":14888:14940   */\n      iszero\n      tag_861\n      jumpi\n        /* \"#utility.yul\":14936:14937   */\n      0x00\n        /* \"#utility.yul\":14933:14934   */\n      dup1\n        /* \"#utility.yul\":14926:14938   */\n      revert\n        /* \"#utility.yul\":14888:14940   */\n    tag_861:\n        /* \"#utility.yul\":14972:14981   */\n      dup3\n        /* \"#utility.yul\":14959:14982   */\n      calldataload\n        /* \"#utility.yul\":14949:14982   */\n      swap2\n      pop\n        /* \"#utility.yul\":15001:15003   */\n      0x20\n        /* \"#utility.yul\":15054:15056   */\n      dup1\n        /* \"#utility.yul\":15043:15052   */\n      dup5\n        /* \"#utility.yul\":15039:15057   */\n      add\n        /* \"#utility.yul\":15026:15058   */\n      calldataload\n        /* \"#utility.yul\":15081:15099   */\n      0xffffffffffffffff\n        /* \"#utility.yul\":15073:15079   */\n      dup2\n        /* \"#utility.yul\":15070:15100   */\n      gt\n        /* \"#utility.yul\":15067:15117   */\n      iszero\n      tag_862\n      jumpi\n        /* \"#utility.yul\":15113:15114   */\n      0x00\n        /* \"#utility.yul\":15110:15111   */\n      dup1\n        /* \"#utility.yul\":15103:15115   */\n      revert\n        /* \"#utility.yul\":15067:15117   */\n    tag_862:\n        /* \"#utility.yul\":15136:15158   */\n      dup5\n      add\n        /* \"#utility.yul\":15189:15193   */\n      0x1f\n        /* \"#utility.yul\":15181:15194   */\n      dup2\n      add\n        /* \"#utility.yul\":15177:15204   */\n      dup7\n      sgt\n        /* \"#utility.yul\":15167:15222   */\n      tag_863\n      jumpi\n        /* \"#utility.yul\":15218:15219   */\n      0x00\n        /* \"#utility.yul\":15215:15216   */\n      dup1\n        /* \"#utility.yul\":15208:15220   */\n      revert\n        /* \"#utility.yul\":15167:15222   */\n    tag_863:\n        /* \"#utility.yul\":15254:15256   */\n      dup1\n        /* \"#utility.yul\":15241:15257   */\n      calldataload\n        /* \"#utility.yul\":15277:15336   */\n      tag_864\n        /* \"#utility.yul\":15293:15335   */\n      tag_780\n        /* \"#utility.yul\":15332:15334   */\n      dup3\n        /* \"#utility.yul\":15293:15335   */\n      tag_712\n      jump\t// in\n        /* \"#utility.yul\":15277:15336   */\n    tag_864:\n        /* \"#utility.yul\":15370:15385   */\n      dup2\n      dup2\n      mstore\n        /* \"#utility.yul\":15452:15453   */\n      0x05\n        /* \"#utility.yul\":15448:15458   */\n      swap2\n      swap1\n      swap2\n      shl\n        /* \"#utility.yul\":15440:15459   */\n      dup3\n      add\n        /* \"#utility.yul\":15436:15464   */\n      dup4\n      add\n      swap1\n        /* \"#utility.yul\":15401:15413   */\n      dup4\n      dup2\n      add\n      swap1\n        /* \"#utility.yul\":15476:15495   */\n      dup9\n      dup4\n      gt\n        /* \"#utility.yul\":15473:15512   */\n      iszero\n      tag_866\n      jumpi\n        /* \"#utility.yul\":15508:15509   */\n      0x00\n        /* \"#utility.yul\":15505:15506   */\n      dup1\n        /* \"#utility.yul\":15498:15510   */\n      revert\n        /* \"#utility.yul\":15473:15512   */\n    tag_866:\n        /* \"#utility.yul\":15532:15543   */\n      swap3\n      dup5\n      add\n      swap3\n        /* \"#utility.yul\":15552:15694   */\n    tag_867:\n        /* \"#utility.yul\":15568:15574   */\n      dup3\n        /* \"#utility.yul\":15563:15566   */\n      dup5\n        /* \"#utility.yul\":15560:15575   */\n      lt\n        /* \"#utility.yul\":15552:15694   */\n      iszero\n      tag_800\n      jumpi\n        /* \"#utility.yul\":15634:15651   */\n      dup4\n      calldataload\n        /* \"#utility.yul\":15622:15652   */\n      dup3\n      mstore\n        /* \"#utility.yul\":15585:15597   */\n      swap3\n      dup5\n      add\n      swap3\n        /* \"#utility.yul\":15672:15684   */\n      swap1\n      dup5\n      add\n      swap1\n        /* \"#utility.yul\":15552:15694   */\n      jump(tag_867)\n        /* \"#utility.yul\":15729:16693   */\n    tag_250:\n        /* \"#utility.yul\":15822:15828   */\n      0x00\n        /* \"#utility.yul\":15830:15836   */\n      dup1\n        /* \"#utility.yul\":15883:15885   */\n      0x40\n        /* \"#utility.yul\":15871:15880   */\n      dup4\n        /* \"#utility.yul\":15862:15869   */\n      dup6\n        /* \"#utility.yul\":15858:15881   */\n      sub\n        /* \"#utility.yul\":15854:15886   */\n      slt\n        /* \"#utility.yul\":15851:15903   */\n      iszero\n      tag_871\n      jumpi\n        /* \"#utility.yul\":15899:15900   */\n      0x00\n        /* \"#utility.yul\":15896:15897   */\n      dup1\n        /* \"#utility.yul\":15889:15901   */\n      revert\n        /* \"#utility.yul\":15851:15903   */\n    tag_871:\n        /* \"#utility.yul\":15935:15944   */\n      dup3\n        /* \"#utility.yul\":15922:15945   */\n      calldataload\n        /* \"#utility.yul\":15912:15945   */\n      swap2\n      pop\n        /* \"#utility.yul\":15964:15966   */\n      0x20\n        /* \"#utility.yul\":16017:16019   */\n      dup1\n        /* \"#utility.yul\":16006:16015   */\n      dup5\n        /* \"#utility.yul\":16002:16020   */\n      add\n        /* \"#utility.yul\":15989:16021   */\n      calldataload\n        /* \"#utility.yul\":16044:16062   */\n      0xffffffffffffffff\n        /* \"#utility.yul\":16036:16042   */\n      dup2\n        /* \"#utility.yul\":16033:16063   */\n      gt\n        /* \"#utility.yul\":16030:16080   */\n      iszero\n      tag_872\n      jumpi\n        /* \"#utility.yul\":16076:16077   */\n      0x00\n        /* \"#utility.yul\":16073:16074   */\n      dup1\n        /* \"#utility.yul\":16066:16078   */\n      revert\n        /* \"#utility.yul\":16030:16080   */\n    tag_872:\n        /* \"#utility.yul\":16099:16121   */\n      dup5\n      add\n        /* \"#utility.yul\":16152:16156   */\n      0x1f\n        /* \"#utility.yul\":16144:16157   */\n      dup2\n      add\n        /* \"#utility.yul\":16140:16167   */\n      dup7\n      sgt\n        /* \"#utility.yul\":16130:16185   */\n      tag_873\n      jumpi\n        /* \"#utility.yul\":16181:16182   */\n      0x00\n        /* \"#utility.yul\":16178:16179   */\n      dup1\n        /* \"#utility.yul\":16171:16183   */\n      revert\n        /* \"#utility.yul\":16130:16185   */\n    tag_873:\n        /* \"#utility.yul\":16217:16219   */\n      dup1\n        /* \"#utility.yul\":16204:16220   */\n      calldataload\n        /* \"#utility.yul\":16240:16299   */\n      tag_874\n        /* \"#utility.yul\":16256:16298   */\n      tag_780\n        /* \"#utility.yul\":16295:16297   */\n      dup3\n        /* \"#utility.yul\":16256:16298   */\n      tag_712\n      jump\t// in\n        /* \"#utility.yul\":16240:16299   */\n    tag_874:\n        /* \"#utility.yul\":16333:16348   */\n      dup2\n      dup2\n      mstore\n        /* \"#utility.yul\":16415:16416   */\n      0x05\n        /* \"#utility.yul\":16411:16421   */\n      swap2\n      swap1\n      swap2\n      shl\n        /* \"#utility.yul\":16403:16422   */\n      dup3\n      add\n        /* \"#utility.yul\":16399:16427   */\n      dup4\n      add\n      swap1\n        /* \"#utility.yul\":16364:16376   */\n      dup4\n      dup2\n      add\n      swap1\n        /* \"#utility.yul\":16439:16458   */\n      dup9\n      dup4\n      gt\n        /* \"#utility.yul\":16436:16475   */\n      iszero\n      tag_876\n      jumpi\n        /* \"#utility.yul\":16471:16472   */\n      0x00\n        /* \"#utility.yul\":16468:16469   */\n      dup1\n        /* \"#utility.yul\":16461:16473   */\n      revert\n        /* \"#utility.yul\":16436:16475   */\n    tag_876:\n        /* \"#utility.yul\":16495:16506   */\n      swap3\n      dup5\n      add\n      swap3\n        /* \"#utility.yul\":16515:16663   */\n    tag_877:\n        /* \"#utility.yul\":16531:16537   */\n      dup3\n        /* \"#utility.yul\":16526:16529   */\n      dup5\n        /* \"#utility.yul\":16523:16538   */\n      lt\n        /* \"#utility.yul\":16515:16663   */\n      iszero\n      tag_800\n      jumpi\n        /* \"#utility.yul\":16597:16620   */\n      tag_880\n        /* \"#utility.yul\":16616:16619   */\n      dup5\n        /* \"#utility.yul\":16597:16620   */\n      tag_714\n      jump\t// in\n    tag_880:\n        /* \"#utility.yul\":16585:16621   */\n      dup3\n      mstore\n        /* \"#utility.yul\":16548:16560   */\n      swap3\n      dup5\n      add\n      swap3\n        /* \"#utility.yul\":16641:16653   */\n      swap1\n      dup5\n      add\n      swap1\n        /* \"#utility.yul\":16515:16663   */\n      jump(tag_877)\n        /* \"#utility.yul\":16698:17022   */\n    tag_254:\n        /* \"#utility.yul\":16773:16779   */\n      0x00\n        /* \"#utility.yul\":16781:16787   */\n      dup1\n        /* \"#utility.yul\":16789:16795   */\n      0x00\n        /* \"#utility.yul\":16842:16844   */\n      0x60\n        /* \"#utility.yul\":16830:16839   */\n      dup5\n        /* \"#utility.yul\":16821:16828   */\n      dup7\n        /* \"#utility.yul\":16817:16840   */\n      sub\n        /* \"#utility.yul\":16813:16845   */\n      slt\n        /* \"#utility.yul\":16810:16862   */\n      iszero\n      tag_882\n      jumpi\n        /* \"#utility.yul\":16858:16859   */\n      0x00\n        /* \"#utility.yul\":16855:16856   */\n      dup1\n        /* \"#utility.yul\":16848:16860   */\n      revert\n        /* \"#utility.yul\":16810:16862   */\n    tag_882:\n        /* \"#utility.yul\":16894:16903   */\n      dup4\n        /* \"#utility.yul\":16881:16904   */\n      calldataload\n        /* \"#utility.yul\":16871:16904   */\n      swap3\n      pop\n        /* \"#utility.yul\":16923:16960   */\n      tag_883\n        /* \"#utility.yul\":16956:16958   */\n      0x20\n        /* \"#utility.yul\":16945:16954   */\n      dup6\n        /* \"#utility.yul\":16941:16959   */\n      add\n        /* \"#utility.yul\":16923:16960   */\n      tag_706\n      jump\t// in\n    tag_883:\n        /* \"#utility.yul\":16913:16960   */\n      swap2\n      pop\n        /* \"#utility.yul\":16979:17016   */\n      tag_726\n        /* \"#utility.yul\":17012:17014   */\n      0x40\n        /* \"#utility.yul\":17001:17010   */\n      dup6\n        /* \"#utility.yul\":16997:17015   */\n      add\n        /* \"#utility.yul\":16979:17016   */\n      tag_706\n      jump\t// in\n        /* \"#utility.yul\":17856:18495   */\n    tag_296:\n        /* \"#utility.yul\":18023:18025   */\n      0x20\n        /* \"#utility.yul\":18075:18096   */\n      dup1\n      dup3\n      mstore\n        /* \"#utility.yul\":18145:18158   */\n      dup3\n      mload\n        /* \"#utility.yul\":18048:18066   */\n      dup3\n      dup3\n      add\n        /* \"#utility.yul\":18167:18189   */\n      dup2\n      swap1\n      mstore\n        /* \"#utility.yul\":17994:17998   */\n      0x00\n      swap2\n        /* \"#utility.yul\":18023:18025   */\n      swap1\n        /* \"#utility.yul\":18246:18261   */\n      dup5\n      dup3\n      add\n      swap1\n        /* \"#utility.yul\":18220:18222   */\n      0x40\n        /* \"#utility.yul\":18205:18223   */\n      dup6\n      add\n      swap1\n        /* \"#utility.yul\":17994:17998   */\n      dup5\n        /* \"#utility.yul\":18289:18469   */\n    tag_891:\n        /* \"#utility.yul\":18303:18309   */\n      dup2\n        /* \"#utility.yul\":18300:18301   */\n      dup2\n        /* \"#utility.yul\":18297:18310   */\n      lt\n        /* \"#utility.yul\":18289:18469   */\n      iszero\n      tag_755\n      jumpi\n        /* \"#utility.yul\":18368:18381   */\n      dup4\n      mload\n        /* \"#utility.yul\":18383:18387   */\n      0xff\n        /* \"#utility.yul\":18364:18388   */\n      and\n        /* \"#utility.yul\":18352:18389   */\n      dup4\n      mstore\n        /* \"#utility.yul\":18444:18459   */\n      swap3\n      dup5\n      add\n      swap3\n        /* \"#utility.yul\":18409:18421   */\n      swap2\n      dup5\n      add\n      swap2\n        /* \"#utility.yul\":18325:18326   */\n      0x01\n        /* \"#utility.yul\":18318:18327   */\n      add\n        /* \"#utility.yul\":18289:18469   */\n      jump(tag_891)\n        /* \"#utility.yul\":18500:18686   */\n    tag_302:\n        /* \"#utility.yul\":18559:18565   */\n      0x00\n        /* \"#utility.yul\":18612:18614   */\n      0x20\n        /* \"#utility.yul\":18600:18609   */\n      dup3\n        /* \"#utility.yul\":18591:18598   */\n      dup5\n        /* \"#utility.yul\":18587:18610   */\n      sub\n        /* \"#utility.yul\":18583:18615   */\n      slt\n        /* \"#utility.yul\":18580:18632   */\n      iszero\n      tag_895\n      jumpi\n        /* \"#utility.yul\":18628:18629   */\n      0x00\n        /* \"#utility.yul\":18625:18626   */\n      dup1\n        /* \"#utility.yul\":18618:18630   */\n      revert\n        /* \"#utility.yul\":18580:18632   */\n    tag_895:\n        /* \"#utility.yul\":18651:18680   */\n      tag_829\n        /* \"#utility.yul\":18670:18679   */\n      dup3\n        /* \"#utility.yul\":18651:18680   */\n      tag_714\n      jump\t// in\n        /* \"#utility.yul\":20025:20152   */\n    tag_406:\n        /* \"#utility.yul\":20086:20096   */\n      0x4e487b71\n        /* \"#utility.yul\":20081:20084   */\n      0xe0\n        /* \"#utility.yul\":20077:20097   */\n      shl\n        /* \"#utility.yul\":20074:20075   */\n      0x00\n        /* \"#utility.yul\":20067:20098   */\n      mstore\n        /* \"#utility.yul\":20117:20121   */\n      0x32\n        /* \"#utility.yul\":20114:20115   */\n      0x04\n        /* \"#utility.yul\":20107:20122   */\n      mstore\n        /* \"#utility.yul\":20141:20145   */\n      0x24\n        /* \"#utility.yul\":20138:20139   */\n      0x00\n        /* \"#utility.yul\":20131:20146   */\n      revert\n        /* \"#utility.yul\":20157:20537   */\n    tag_436:\n        /* \"#utility.yul\":20236:20237   */\n      0x01\n        /* \"#utility.yul\":20232:20244   */\n      dup2\n      dup2\n      shr\n      swap1\n        /* \"#utility.yul\":20279:20291   */\n      dup3\n      and\n      dup1\n        /* \"#utility.yul\":20300:20361   */\n      tag_911\n      jumpi\n        /* \"#utility.yul\":20354:20358   */\n      0x7f\n        /* \"#utility.yul\":20346:20352   */\n      dup3\n        /* \"#utility.yul\":20342:20359   */\n      and\n        /* \"#utility.yul\":20332:20359   */\n      swap2\n      pop\n        /* \"#utility.yul\":20300:20361   */\n    tag_911:\n        /* \"#utility.yul\":20407:20409   */\n      0x20\n        /* \"#utility.yul\":20399:20405   */\n      dup3\n        /* \"#utility.yul\":20396:20410   */\n      lt\n        /* \"#utility.yul\":20376:20394   */\n      dup2\n        /* \"#utility.yul\":20373:20411   */\n      sub\n        /* \"#utility.yul\":20370:20531   */\n      tag_912\n      jumpi\n        /* \"#utility.yul\":20453:20463   */\n      0x4e487b71\n        /* \"#utility.yul\":20448:20451   */\n      0xe0\n        /* \"#utility.yul\":20444:20464   */\n      shl\n        /* \"#utility.yul\":20441:20442   */\n      0x00\n        /* \"#utility.yul\":20434:20465   */\n      mstore\n        /* \"#utility.yul\":20488:20492   */\n      0x22\n        /* \"#utility.yul\":20485:20486   */\n      0x04\n        /* \"#utility.yul\":20478:20493   */\n      mstore\n        /* \"#utility.yul\":20516:20520   */\n      0x24\n        /* \"#utility.yul\":20513:20514   */\n      0x00\n        /* \"#utility.yul\":20506:20521   */\n      revert\n        /* \"#utility.yul\":20370:20531   */\n    tag_912:\n      pop\n        /* \"#utility.yul\":20157:20537   */\n      swap2\n      swap1\n      pop\n      jump\t// out\n        /* \"#utility.yul\":20668:21213   */\n    tag_716:\n        /* \"#utility.yul\":20770:20772   */\n      0x1f\n        /* \"#utility.yul\":20765:20768   */\n      dup3\n        /* \"#utility.yul\":20762:20773   */\n      gt\n        /* \"#utility.yul\":20759:21207   */\n      iszero\n      tag_429\n      jumpi\n        /* \"#utility.yul\":20806:20807   */\n      0x00\n        /* \"#utility.yul\":20831:20836   */\n      dup2\n        /* \"#utility.yul\":20827:20829   */\n      dup2\n        /* \"#utility.yul\":20820:20837   */\n      mstore\n        /* \"#utility.yul\":20876:20880   */\n      0x20\n        /* \"#utility.yul\":20872:20874   */\n      dup2\n        /* \"#utility.yul\":20862:20881   */\n      keccak256\n        /* \"#utility.yul\":20946:20948   */\n      0x1f\n        /* \"#utility.yul\":20934:20944   */\n      dup6\n        /* \"#utility.yul\":20930:20949   */\n      add\n        /* \"#utility.yul\":20927:20928   */\n      0x05\n        /* \"#utility.yul\":20923:20950   */\n      shr\n        /* \"#utility.yul\":20917:20921   */\n      dup2\n        /* \"#utility.yul\":20913:20951   */\n      add\n        /* \"#utility.yul\":20982:20986   */\n      0x20\n        /* \"#utility.yul\":20970:20980   */\n      dup7\n        /* \"#utility.yul\":20967:20987   */\n      lt\n        /* \"#utility.yul\":20964:21011   */\n      iszero\n      tag_916\n      jumpi\n      pop\n        /* \"#utility.yul\":21005:21009   */\n      dup1\n        /* \"#utility.yul\":20964:21011   */\n    tag_916:\n        /* \"#utility.yul\":21060:21062   */\n      0x1f\n        /* \"#utility.yul\":21055:21058   */\n      dup6\n        /* \"#utility.yul\":21051:21063   */\n      add\n        /* \"#utility.yul\":21048:21049   */\n      0x05\n        /* \"#utility.yul\":21044:21064   */\n      shr\n        /* \"#utility.yul\":21038:21042   */\n      dup3\n        /* \"#utility.yul\":21034:21065   */\n      add\n        /* \"#utility.yul\":21024:21065   */\n      swap2\n      pop\n        /* \"#utility.yul\":21115:21197   */\n    tag_917:\n        /* \"#utility.yul\":21133:21135   */\n      dup2\n        /* \"#utility.yul\":21126:21131   */\n      dup2\n        /* \"#utility.yul\":21123:21136   */\n      lt\n        /* \"#utility.yul\":21115:21197   */\n      iszero\n      tag_919\n      jumpi\n        /* \"#utility.yul\":21178:21195   */\n      dup3\n      dup2\n      sstore\n        /* \"#utility.yul\":21159:21160   */\n      0x01\n        /* \"#utility.yul\":21148:21161   */\n      add\n        /* \"#utility.yul\":21115:21197   */\n      jump(tag_917)\n    tag_919:\n        /* \"#utility.yul\":21119:21122   */\n      pop\n      pop\n      pop\n        /* \"#utility.yul\":20668:21213   */\n      pop\n      pop\n      pop\n      jump\t// out\n        /* \"#utility.yul\":21389:22741   */\n    tag_418:\n        /* \"#utility.yul\":21515:21518   */\n      dup2\n        /* \"#utility.yul\":21509:21519   */\n      mload\n        /* \"#utility.yul\":21542:21560   */\n      0xffffffffffffffff\n        /* \"#utility.yul\":21534:21540   */\n      dup2\n        /* \"#utility.yul\":21531:21561   */\n      gt\n        /* \"#utility.yul\":21528:21584   */\n      iszero\n      tag_923\n      jumpi\n        /* \"#utility.yul\":21564:21582   */\n      tag_923\n      tag_708\n      jump\t// in\n    tag_923:\n        /* \"#utility.yul\":21593:21690   */\n      tag_924\n        /* \"#utility.yul\":21683:21689   */\n      dup2\n        /* \"#utility.yul\":21643:21681   */\n      tag_925\n        /* \"#utility.yul\":21675:21679   */\n      dup5\n        /* \"#utility.yul\":21669:21680   */\n      sload\n        /* \"#utility.yul\":21643:21681   */\n      tag_436\n      jump\t// in\n    tag_925:\n        /* \"#utility.yul\":21637:21641   */\n      dup5\n        /* \"#utility.yul\":21593:21690   */\n      tag_716\n      jump\t// in\n    tag_924:\n        /* \"#utility.yul\":21745:21749   */\n      0x20\n      dup1\n        /* \"#utility.yul\":21809:21811   */\n      0x1f\n        /* \"#utility.yul\":21798:21812   */\n      dup4\n      gt\n        /* \"#utility.yul\":21826:21827   */\n      0x01\n        /* \"#utility.yul\":21821:22484   */\n      dup2\n      eq\n      tag_927\n      jumpi\n        /* \"#utility.yul\":22528:22529   */\n      0x00\n        /* \"#utility.yul\":22545:22551   */\n      dup5\n        /* \"#utility.yul\":22542:22631   */\n      iszero\n      tag_928\n      jumpi\n      pop\n        /* \"#utility.yul\":22597:22616   */\n      dup6\n      dup4\n      add\n        /* \"#utility.yul\":22591:22617   */\n      mload\n        /* \"#utility.yul\":22542:22631   */\n    tag_928:\n      not(0x00)\n        /* \"#utility.yul\":21346:21347   */\n      0x03\n        /* \"#utility.yul\":21342:21353   */\n      dup7\n      swap1\n      shl\n        /* \"#utility.yul\":21338:21362   */\n      shr\n        /* \"#utility.yul\":21334:21363   */\n      not\n        /* \"#utility.yul\":21324:21364   */\n      and\n        /* \"#utility.yul\":21370:21371   */\n      0x01\n        /* \"#utility.yul\":21366:21377   */\n      dup6\n      swap1\n      shl\n        /* \"#utility.yul\":21321:21378   */\n      or\n        /* \"#utility.yul\":22644:22725   */\n      dup6\n      sstore\n        /* \"#utility.yul\":21791:22735   */\n      jump(tag_919)\n        /* \"#utility.yul\":21821:22484   */\n    tag_927:\n        /* \"#utility.yul\":20615:20616   */\n      0x00\n        /* \"#utility.yul\":20608:20622   */\n      dup6\n      dup2\n      mstore\n        /* \"#utility.yul\":20652:20656   */\n      0x20\n        /* \"#utility.yul\":20639:20657   */\n      dup2\n      keccak256\n      not(0x1f)\n        /* \"#utility.yul\":21857:21877   */\n      dup7\n      and\n      swap2\n        /* \"#utility.yul\":21975:22211   */\n    tag_931:\n        /* \"#utility.yul\":21989:21996   */\n      dup3\n        /* \"#utility.yul\":21986:21987   */\n      dup2\n        /* \"#utility.yul\":21983:21997   */\n      lt\n        /* \"#utility.yul\":21975:22211   */\n      iszero\n      tag_933\n      jumpi\n        /* \"#utility.yul\":22078:22097   */\n      dup9\n      dup7\n      add\n        /* \"#utility.yul\":22072:22098   */\n      mload\n        /* \"#utility.yul\":22057:22099   */\n      dup3\n      sstore\n        /* \"#utility.yul\":22170:22197   */\n      swap5\n      dup5\n      add\n      swap5\n        /* \"#utility.yul\":22138:22139   */\n      0x01\n        /* \"#utility.yul\":22126:22140   */\n      swap1\n      swap2\n      add\n      swap1\n        /* \"#utility.yul\":22005:22024   */\n      dup5\n      add\n        /* \"#utility.yul\":21975:22211   */\n      jump(tag_931)\n    tag_933:\n        /* \"#utility.yul\":21979:21982   */\n      pop\n        /* \"#utility.yul\":22239:22245   */\n      dup6\n        /* \"#utility.yul\":22230:22237   */\n      dup3\n        /* \"#utility.yul\":22227:22246   */\n      lt\n        /* \"#utility.yul\":22224:22425   */\n      iszero\n      tag_934\n      jumpi\n        /* \"#utility.yul\":22300:22319   */\n      dup8\n      dup6\n      add\n        /* \"#utility.yul\":22294:22320   */\n      mload\n      not(0x00)\n        /* \"#utility.yul\":22383:22384   */\n      0x03\n        /* \"#utility.yul\":22379:22393   */\n      dup9\n      swap1\n      shl\n        /* \"#utility.yul\":22395:22398   */\n      0xf8\n        /* \"#utility.yul\":22375:22399   */\n      and\n        /* \"#utility.yul\":22371:22408   */\n      shr\n        /* \"#utility.yul\":22367:22409   */\n      not\n        /* \"#utility.yul\":22352:22410   */\n      and\n        /* \"#utility.yul\":22337:22411   */\n      dup2\n      sstore\n        /* \"#utility.yul\":22224:22425   */\n    tag_934:\n      pop\n      pop\n      pop\n      pop\n      pop\n        /* \"#utility.yul\":22471:22472   */\n      0x01\n        /* \"#utility.yul\":22455:22469   */\n      swap1\n      dup2\n      shl\n        /* \"#utility.yul\":22451:22473   */\n      add\n        /* \"#utility.yul\":22438:22474   */\n      swap1\n      sstore\n      pop\n        /* \"#utility.yul\":21389:22741   */\n      jump\t// out\n        /* \"#utility.yul\":22746:23040   */\n    tag_554:\n        /* \"#utility.yul\":22784:22787   */\n      0x00\n        /* \"#utility.yul\":22812:22818   */\n      0xffff\n        /* \"#utility.yul\":22853:22855   */\n      dup1\n        /* \"#utility.yul\":22846:22851   */\n      dup4\n        /* \"#utility.yul\":22842:22856   */\n      and\n        /* \"#utility.yul\":22880:22882   */\n      dup2\n        /* \"#utility.yul\":22871:22878   */\n      dup2\n        /* \"#utility.yul\":22868:22883   */\n      sub\n        /* \"#utility.yul\":22865:23003   */\n      tag_936\n      jumpi\n        /* \"#utility.yul\":22925:22935   */\n      0x4e487b71\n        /* \"#utility.yul\":22920:22923   */\n      0xe0\n        /* \"#utility.yul\":22916:22936   */\n      shl\n        /* \"#utility.yul\":22913:22914   */\n      0x00\n        /* \"#utility.yul\":22906:22937   */\n      mstore\n        /* \"#utility.yul\":22960:22964   */\n      0x11\n        /* \"#utility.yul\":22957:22958   */\n      0x04\n        /* \"#utility.yul\":22950:22965   */\n      mstore\n        /* \"#utility.yul\":22988:22992   */\n      0x24\n        /* \"#utility.yul\":22985:22986   */\n      0x00\n        /* \"#utility.yul\":22978:22993   */\n      revert\n        /* \"#utility.yul\":22865:23003   */\n    tag_936:\n        /* \"#utility.yul\":23032:23033   */\n      0x01\n        /* \"#utility.yul\":23019:23034   */\n      add\n      swap4\n        /* \"#utility.yul\":22746:23040   */\n      swap3\n      pop\n      pop\n      pop\n      jump\t// out\n\n    auxdata: 0xa2646970667358221220ef37be4561f8ddb8ee46eef3d9e98c7bb3c06cc80a0562775223bcef9f69964064736f6c63430008110033\n}\n",
				"bytecode": {
					"linkReferences": {},
					"object": "608060405234801561001057600080fd5b5060008054336001600160a01b0319918216811783556001805480820182559084527fb10e2d527612073b26eecdfd717e6a320cf44b4afac2b0732d9fcbe2b7fa0cf6018054909216179055612b2690819061006c90396000f3fe608060405234801561001057600080fd5b506004361061048b5760003560e01c80636933dc7c11610262578063bd1b50ff11610151578063e2b3086b116100ce578063f48ac30911610092578063f48ac30914610dbd578063f5dc9a6f14610e0e578063fa8807b8146104c5578063fa9dfd0b14610e3f578063fb293ca514610e8c578063ffb0736e14610e9f57600080fd5b8063e2b3086b14610d54578063e6f8bdfc14610d67578063e74b31d7146104eb578063e8ae9d7614610d7a578063ee55f67514610d8d57600080fd5b8063ceeb243111610115578063ceeb243114610cd6578063df2d2fcf14610cf6578063df486a8914610cfe578063e0cf67fe14610d11578063e0ec801214610d3157600080fd5b8063bd1b50ff14610c10578063be86819b14610c6d578063bf3f01ab14610c80578063bf9134df14610cb0578063bff937b014610cc357600080fd5b80638d4f2726116101df5780639bc59d00116101a35780639bc59d0014610c105780639c11ccf714610c23578063ab53cb2b146105e0578063af387b1214610c47578063b6bf7e1d14610c5a57600080fd5b80638d4f272614610b7457806391d3e44914610b87578063927ee85914610b9a57806393ce1a5014610bcf5780639a45e7b814610be257600080fd5b806381323911116102265780638132391114610ab257806386d423ab14610ac357806388ba591914610b10578063896296af14610b235780638d3b2e0f14610b5457600080fd5b80636933dc7c146109fe5780636cb0fbac14610a2757806370b915e114610a3a5780637156478914610a4d5780637eabe6d414610a7f57600080fd5b80633a9ae28c1161037e5780634d22d57b116102fb578063596b371d116102bf578063596b371d146109765780635da54cde146109895780635ffaceda1461099c578063633f7a84146109af578063656a33e4146109c257600080fd5b80634d22d57b146108a257806350b0b9b3146108d0578063522bc53014610902578063538e59c41461092257806354a873361461096357600080fd5b8063404503c611610342578063404503c6146107d857806347669121146107eb5780634869dbed146107fe5780634ab7ca6e146108535780634ce089001461088f57600080fd5b80633a9ae28c1461075f5780633ac3fa1f1461077f5780633daa8767146107925780633ee6a0f5146107a55780633f026ce5146107b857600080fd5b8063164511631161040c578063201c87f1116103d0578063201c87f11461068657806320cf0ad6146106d557806335eb2c1d146106e85780633758ba43146106fb57806339a563651461070e57600080fd5b8063164511631461060057806316a2fc3414610620578063175a22ef146106335780631a840e08146106535780631dd5d01f1461066657600080fd5b80630a020e5e116104535780630a020e5e1461051c5780630a7b1f8a146105585780630e9bd4e214610578578063138a7465146105cd57806314d869b3146105e057600080fd5b8063014a00c714610490578063032a772f146104a55780630561cfc3146104c557806306ba9895146104d857806306f605f0146104eb575b600080fd5b6104a361049e366004612023565b610eb2565b005b6104a36104b336600461205f565b6000918252600a602052604090912055565b6104a36104d3366004612081565b610f08565b6104a36104e636600461216d565b610f40565b6104a36104f936600461205f565b6000918252600d6020908152604083208054600181018255908452922090910155565b61054061052a3660046121c4565b60009081526016602052604090205461ffff1690565b60405161ffff90911681526020015b60405180910390f35b61056b6105663660046121c4565b610f83565b60405161054f91906121dd565b6104a361058636600461222a565b600091825260176020908152604083208054600181018255908452922060108304018054600f9093166002026101000a61ffff818102199094169290931692909202179055565b6104a36105db366004612256565b610fef565b6104a36105ee36600461205f565b6000918252600c602052604090912055565b61061361060e3660046121c4565b61101c565b60405161054f91906122e3565b6104a361062e366004612369565b611108565b6106466106413660046121c4565b611127565b60405161054f919061242b565b6104a3610661366004612467565b6111af565b6106796106743660046121c4565b6111ce565b60405161054f919061250b565b6104a3610694366004612553565b6000918252600f60209081526040832080546001810182559084529281902090830401805460ff601f9094166101000a938402191691151592909202179055565b6104a36106e336600461258d565b61122f565b6104a36106f636600461216d565b611289565b6104a36107093660046125c0565b6112b0565b6104a361071c3660046125f3565b6000918252600760209081526040832080546001810182559084529281902090830401805460ff928316601f9094166101000a9384029290930219909216179055565b61077261076d3660046121c4565b611305565b60405161054f9190612616565b61056b61078d3660046121c4565b611385565b6104a36107a0366004612256565b6113ef565b6104a36107b336600461258d565b611407565b6107cb6107c63660046121c4565b61142e565b60405161054f9190612650565b6104a36107e636600461266a565b6114c6565b6104a36107f93660046126ff565b6114e5565b6104a361080c36600461222a565b600091825260096020908152604083208054600181018255908452922060108304018054600f9093166002026101000a61ffff818102199094169290931692909202179055565b6104a3610861366004612794565b60009182526012602052604090912080546001600160a01b0319166001600160a01b03909216919091179055565b6104a361089d366004612369565b611504565b6108c26108b03660046121c4565b6000908152600c602052604090205490565b60405190815260200161054f565b6104a36108de36600461222a565b600091825260166020526040909120805461ffff191661ffff909216919091179055565b6104a361091036600461205f565b60009182526018602052604090912055565b61094b6109303660046121c4565b6000908152600460205260409020546001600160a01b031690565b6040516001600160a01b03909116815260200161054f565b6104a3610971366004612081565b611523565b6104a3610984366004612256565b61154a565b6104a36109973660046127b7565b611572565b6104a36109aa366004612845565b611591565b6104a36109bd3660046128da565b6115b0565b6104a36109d0366004612794565b60009182526004602052604090912080546001600160a01b0319166001600160a01b03909216919091179055565b61094b610a0c3660046121c4565b6000908152601260205260409020546001600160a01b031690565b610679610a353660046121c4565b61160b565b6104a3610a483660046127b7565b61166b565b6104a3610a5b36600461222a565b600091825260086020526040909120805461ffff191661ffff909216919091179055565b610aa2610a8d3660046121c4565b6000908152600e602052604090205460ff1690565b604051901515815260200161054f565b6000546001600160a01b031661094b565b6104a3610ad1366004612794565b600091825260056020908152604083208054600181018255908452922090910180546001600160a01b0319166001600160a01b03909216919091179055565b6107cb610b1e3660046121c4565b61168a565b6104a3610b3136600461205f565b600091825260196020908152604083208054600181018255908452922090910155565b610b67610b623660046121c4565b6116a7565b60405161054f919061290d565b6104a3610b8236600461266a565b611725565b6104a3610b95366004612948565b611744565b610bbd610ba83660046121c4565b60009081526006602052604090205460ff1690565b60405160ff909116815260200161054f565b6104a3610bdd366004612948565b6117e8565b6104a3610bf0366004612553565b6000918252600e6020526040909120805460ff1916911515919091179055565b6104a3610c1e3660046127b7565b6118e0565b610540610c313660046121c4565b60009081526008602052604090205461ffff1690565b6104a3610c55366004612081565b6118ff565b6104a3610c683660046128da565b611926565b6104a3610c7b366004612256565b61194d565b6104a3610c8e3660046125f3565b600091825260066020526040909120805460ff191660ff909216919091179055565b610679610cbe3660046121c4565b611965565b6104a3610cd1366004612467565b6119c5565b6108c2610ce43660046121c4565b6000908152600a602052604090205490565b61056b6119e4565b6104a3610d0c366004612845565b611a46565b6108c2610d1f3660046121c4565b60009081526018602052604090205490565b610bbd610d3f3660046121c4565b60009081526014602052604090205460ff1690565b610b67610d623660046121c4565b611a65565b610613610d753660046121c4565b611ac8565b610646610d883660046121c4565b611ba9565b6104a3610d9b3660046125f3565b600091825260146020526040909120805460ff191660ff909216919091179055565b6104a3610dcb3660046125f3565b6000918252601560209081526040832080546001810182559084529281902090830401805460ff928316601f9094166101000a9384029290930219909216179055565b6104a3610e1c36600461205f565b6000918252600b6020908152604083208054600181018255908452922090910155565b6104a3610e4d366004612794565b600091825260136020908152604083208054600181018255908452922090910180546001600160a01b0319166001600160a01b03909216919091179055565b6104a3610e9a366004612023565b611c0d565b6104a3610ead366004612948565b611c34565b6000838152601560205260409020805482919061ffff8516908110610ed957610ed9612963565b90600052602060002090602091828204019190066101000a81548160ff021916908360ff160217905550505050565b6000838152600d60205260409020805482919061ffff8516908110610f2f57610f2f612963565b600091825260209091200155505050565b6000838152601160205260409020805482919061ffff8516908110610f6757610f67612963565b906000526020600020019081610f7d9190612a01565b50505050565b600081815260136020908152604091829020805483518184028101840190945280845260609392830182828015610fe357602002820191906000526020600020905b81546001600160a01b03168152600190910190602001808311610fc5575b50505050509050919050565b6000828152601160209081526040822080546001810182559083529120016110178282612a01565b505050565b606060036000838152602001908152602001600020805480602002602001604051908101604052809291908181526020016000905b828210156110fd57838290600052602060002001805461107090612979565b80601f016020809104026020016040519081016040528092919081815260200182805461109c90612979565b80156110e95780601f106110be576101008083540402835291602001916110e9565b820191906000526020600020905b8154815290600101906020018083116110cc57829003601f168201915b505050505081526020019060010190611051565b505050509050919050565b6000828152600360209081526040909120825161101792840190611d07565b600081815260176020908152604091829020805483518184028101840190945280845260609392830182828015610fe357602002820191906000526020600020906000905b82829054906101000a900461ffff1661ffff168152602001906002019060208260010104928301926001038202915080841161116c575094979650505050505050565b6000828152601560209081526040909120825161101792840190611d5d565b6000818152600d6020908152604091829020805483518184028101840190945280845260609392830182828015610fe357602002820191906000526020600020905b8154815260200190600101908083116112105750505050509050919050565b6000838152600560205260409020805482919061ffff851690811061125657611256612963565b9060005260206000200160006101000a8154816001600160a01b0302191690836001600160a01b03160217905550505050565b6000838152600360205260409020805482919061ffff8516908110610f6757610f67612963565b6000838152600f60205260409020805482919061ffff85169081106112d7576112d7612963565b90600052602060002090602091828204019190066101000a81548160ff021916908315150217905550505050565b6000818152600f6020908152604091829020805483518184028101840190945280845260609392830182828015610fe357602002820191906000526020600020906000905b825461010083900a900460ff16151581526020600192830181810494850194909303909202910180841161134a575094979650505050505050565b600081815260056020908152604091829020805483518184028101840190945280845260609392830182828015610fe3576020028201919060005260206000209081546001600160a01b03168152600190910190602001808311610fc55750505050509050919050565b60008281526002602052604090206110178282612a01565b6000838152601360205260409020805482919061ffff851690811061125657611256612963565b600081815260026020526040902080546060919061144b90612979565b80601f016020809104026020016040519081016040528092919081815260200182805461147790612979565b8015610fe35780601f1061149957610100808354040283529160200191610fe3565b820191906000526020600020905b8154815290600101906020018083116114a75750939695505050505050565b6000828152601760209081526040909120825161101792840190611dff565b6000828152600f60209081526040909120825161101792840190611e96565b6000828152601160209081526040909120825161101792840190611d07565b6000838152600b60205260409020805482919061ffff8516908110610f2f57610f2f612963565b6000828152600360209081526040822080546001810182559083529120016110178282612a01565b6000828152601960209081526040909120825161101792840190611efc565b6000828152600560209081526040909120825161101792840190611f37565b6000838152601760205260409020805482919061ffff85169081106115d7576115d7612963565b90600052602060002090601091828204019190066002026101000a81548161ffff021916908361ffff160217905550505050565b600081815260196020908152604091829020805483518184028101840190945280845260609392830182828015610fe357602002820191906000526020600020908154815260200190600101908083116112105750505050509050919050565b6000828152600b60209081526040909120825161101792840190611efc565b600081815260106020526040902080546060919061144b90612979565b600081815260076020908152604091829020805483518184028101840190945280845260609392830182828015610fe357602002820191906000526020600020906000905b825461010083900a900460ff168152602060019283018181049485019490930390920291018084116116ec575094979650505050505050565b6000828152600960209081526040909120825161101792840190611dff565b6000805b60015461ffff821610156117a35760018161ffff168154811061176d5761176d612963565b6000918252602090912001546001600160a01b0316330361179157600191506117a3565b8061179b81612ac1565b915050611748565b50806117ae57600080fd5b6000546001600160a01b031633146117c557600080fd5b50600080546001600160a01b0319166001600160a01b0392909216919091179055565b6000805b60015461ffff821610156118475760018161ffff168154811061181157611811612963565b6000918252602090912001546001600160a01b031633036118355760019150611847565b8061183f81612ac1565b9150506117ec565b508061185257600080fd5b6000546001600160a01b0316331461186957600080fd5b60005b60015461ffff8216101561101757826001600160a01b031660018261ffff168154811061189b5761189b612963565b6000918252602090912001546001600160a01b0316036118ce57600060018261ffff168154811061125657611256612963565b806118d881612ac1565b91505061186c565b6000828152600d60209081526040909120825161101792840190611efc565b6000838152601960205260409020805482919061ffff8516908110610f2f57610f2f612963565b6000838152600960205260409020805482919061ffff85169081106115d7576115d7612963565b60008281526010602052604090206110178282612a01565b6000818152600b6020908152604091829020805483518184028101840190945280845260609392830182828015610fe357602002820191906000526020600020908154815260200190600101908083116112105750505050509050919050565b6000828152600760209081526040909120825161101792840190611d5d565b60606001805480602002602001604051908101604052809291908181526020018280548015611a3c57602002820191906000526020600020905b81546001600160a01b03168152600190910190602001808311611a1e575b5050505050905090565b6000828152601360209081526040909120825161101792840190611f37565b600081815260156020908152604091829020805483518184028101840190945280845260609392830182828015610fe3576000918252602091829020805460ff1684529082028301929091600191018084116116ec575094979650505050505050565b606060116000838152602001908152602001600020805480602002602001604051908101604052809291908181526020016000905b828210156110fd578382906000526020600020018054611b1c90612979565b80601f0160208091040260200160405190810160405280929190818152602001828054611b4890612979565b8015611b955780601f10611b6a57610100808354040283529160200191611b95565b820191906000526020600020905b815481529060010190602001808311611b7857829003601f168201915b505050505081526020019060010190611afd565b600081815260096020908152604091829020805483518184028101840190945280845260609392830182828015610fe3576000918252602091829020805461ffff16845290820283019290916002910180841161116c575094979650505050505050565b6000838152600760205260409020805482919061ffff8516908110610ed957610ed9612963565b6000805b60015461ffff82161015611c935760018161ffff1681548110611c5d57611c5d612963565b6000918252602090912001546001600160a01b03163303611c815760019150611c93565b80611c8b81612ac1565b915050611c38565b5080611c9e57600080fd5b6000546001600160a01b03163314611cb557600080fd5b506001805480820182556000919091527fb10e2d527612073b26eecdfd717e6a320cf44b4afac2b0732d9fcbe2b7fa0cf60180546001600160a01b0319166001600160a01b0392909216919091179055565b828054828255906000526020600020908101928215611d4d579160200282015b82811115611d4d5782518290611d3d9082612a01565b5091602001919060010190611d27565b50611d59929150611f8c565b5090565b82805482825590600052602060002090601f01602090048101928215611df35791602002820160005b83821115611dc457835183826101000a81548160ff021916908360ff1602179055509260200192600101602081600001049283019260010302611d86565b8015611df15782816101000a81549060ff0219169055600101602081600001049283019260010302611dc4565b505b50611d59929150611fa9565b82805482825590600052602060002090600f01601090048101928215611df35791602002820160005b83821115611e6857835183826101000a81548161ffff021916908361ffff1602179055509260200192600201602081600101049283019260010302611e28565b8015611df15782816101000a81549061ffff0219169055600201602081600101049283019260010302611e68565b82805482825590600052602060002090601f01602090048101928215611df35791602002820160005b83821115611dc457835183826101000a81548160ff0219169083151502179055509260200192600101602081600001049283019260010302611ebf565b828054828255906000526020600020908101928215611df3579160200282015b82811115611df3578251825591602001919060010190611f1c565b828054828255906000526020600020908101928215611df3579160200282015b82811115611df357825182546001600160a01b0319166001600160a01b03909116178255602090920191600190910190611f57565b80821115611d59576000611fa08282611fbe565b50600101611f8c565b5b80821115611d595760008155600101611faa565b508054611fca90612979565b6000825580601f10611fda575050565b601f016020900490600052602060002090810190611ff89190611fa9565b50565b803561ffff8116811461200d57600080fd5b919050565b803560ff8116811461200d57600080fd5b60008060006060848603121561203857600080fd5b8335925061204860208501611ffb565b915061205660408501612012565b90509250925092565b6000806040838503121561207257600080fd5b50508035926020909101359150565b60008060006060848603121561209657600080fd5b833592506120a660208501611ffb565b9150604084013590509250925092565b634e487b7160e01b600052604160045260246000fd5b604051601f8201601f1916810167ffffffffffffffff811182821017156120f5576120f56120b6565b604052919050565b600082601f83011261210e57600080fd5b813567ffffffffffffffff811115612128576121286120b6565b61213b601f8201601f19166020016120cc565b81815284602083860101111561215057600080fd5b816020850160208301376000918101602001919091529392505050565b60008060006060848603121561218257600080fd5b8335925061219260208501611ffb565b9150604084013567ffffffffffffffff8111156121ae57600080fd5b6121ba868287016120fd565b9150509250925092565b6000602082840312156121d657600080fd5b5035919050565b6020808252825182820181905260009190848201906040850190845b8181101561221e5783516001600160a01b0316835292840192918401916001016121f9565b50909695505050505050565b6000806040838503121561223d57600080fd5b8235915061224d60208401611ffb565b90509250929050565b6000806040838503121561226957600080fd5b82359150602083013567ffffffffffffffff81111561228757600080fd5b612293858286016120fd565b9150509250929050565b6000815180845260005b818110156122c3576020818501810151868301820152016122a7565b506000602082860101526020601f19601f83011685010191505092915050565b6000602080830181845280855180835260408601915060408160051b870101925083870160005b8281101561233857603f1988860301845261232685835161229d565b9450928501929085019060010161230a565b5092979650505050505050565b600067ffffffffffffffff82111561235f5761235f6120b6565b5060051b60200190565b6000806040838503121561237c57600080fd5b8235915060208084013567ffffffffffffffff8082111561239c57600080fd5b818601915086601f8301126123b057600080fd5b81356123c36123be82612345565b6120cc565b81815260059190911b830184019084810190898311156123e257600080fd5b8585015b8381101561241a578035858111156123fe5760008081fd5b61240c8c89838a01016120fd565b8452509186019186016123e6565b508096505050505050509250929050565b6020808252825182820181905260009190848201906040850190845b8181101561221e57835161ffff1683529284019291840191600101612447565b6000806040838503121561247a57600080fd5b8235915060208084013567ffffffffffffffff81111561249957600080fd5b8401601f810186136124aa57600080fd5b80356124b86123be82612345565b81815260059190911b820183019083810190888311156124d757600080fd5b928401925b828410156124fc576124ed84612012565b825292840192908401906124dc565b80955050505050509250929050565b6020808252825182820181905260009190848201906040850190845b8181101561221e57835183529284019291840191600101612527565b8035801515811461200d57600080fd5b6000806040838503121561256657600080fd5b8235915061224d60208401612543565b80356001600160a01b038116811461200d57600080fd5b6000806000606084860312156125a257600080fd5b833592506125b260208501611ffb565b915061205660408501612576565b6000806000606084860312156125d557600080fd5b833592506125e560208501611ffb565b915061205660408501612543565b6000806040838503121561260657600080fd5b8235915061224d60208401612012565b6020808252825182820181905260009190848201906040850190845b8181101561221e578351151583529284019291840191600101612632565b602081526000612663602083018461229d565b9392505050565b6000806040838503121561267d57600080fd5b8235915060208084013567ffffffffffffffff81111561269c57600080fd5b8401601f810186136126ad57600080fd5b80356126bb6123be82612345565b81815260059190911b820183019083810190888311156126da57600080fd5b928401925b828410156124fc576126f084611ffb565b825292840192908401906126df565b6000806040838503121561271257600080fd5b8235915060208084013567ffffffffffffffff81111561273157600080fd5b8401601f8101861361274257600080fd5b80356127506123be82612345565b81815260059190911b8201830190838101908883111561276f57600080fd5b928401925b828410156124fc5761278584612543565b82529284019290840190612774565b600080604083850312156127a757600080fd5b8235915061224d60208401612576565b600080604083850312156127ca57600080fd5b8235915060208084013567ffffffffffffffff8111156127e957600080fd5b8401601f810186136127fa57600080fd5b80356128086123be82612345565b81815260059190911b8201830190838101908883111561282757600080fd5b928401925b828410156124fc5783358252928401929084019061282c565b6000806040838503121561285857600080fd5b8235915060208084013567ffffffffffffffff81111561287757600080fd5b8401601f8101861361288857600080fd5b80356128966123be82612345565b81815260059190911b820183019083810190888311156128b557600080fd5b928401925b828410156124fc576128cb84612576565b825292840192908401906128ba565b6000806000606084860312156128ef57600080fd5b833592506128ff60208501611ffb565b915061205660408501611ffb565b6020808252825182820181905260009190848201906040850190845b8181101561221e57835160ff1683529284019291840191600101612929565b60006020828403121561295a57600080fd5b61266382612576565b634e487b7160e01b600052603260045260246000fd5b600181811c9082168061298d57607f821691505b6020821081036129ad57634e487b7160e01b600052602260045260246000fd5b50919050565b601f82111561101757600081815260208120601f850160051c810160208610156129da5750805b601f850160051c820191505b818110156129f9578281556001016129e6565b505050505050565b815167ffffffffffffffff811115612a1b57612a1b6120b6565b612a2f81612a298454612979565b846129b3565b602080601f831160018114612a645760008415612a4c5750858301515b600019600386901b1c1916600185901b1785556129f9565b600085815260208120601f198616915b82811015612a9357888601518255948401946001909101908401612a74565b5085821015612ab15787850151600019600388901b60f8161c191681555b5050505050600190811b01905550565b600061ffff808316818103612ae657634e487b7160e01b600052601160045260246000fd5b600101939250505056fea2646970667358221220ef37be4561f8ddb8ee46eef3d9e98c7bb3c06cc80a0562775223bcef9f69964064736f6c63430008110033",
					"opcodes": "PUSH1 0x80 PUSH1 0x40 MSTORE CALLVALUE DUP1 ISZERO PUSH2 0x10 JUMPI PUSH1 0x0 DUP1 REVERT JUMPDEST POP PUSH1 0x0 DUP1 SLOAD CALLER PUSH1 0x1 PUSH1 0x1 PUSH1 0xA0 SHL SUB NOT SWAP2 DUP3 AND DUP2 OR DUP4 SSTORE PUSH1 0x1 DUP1 SLOAD DUP1 DUP3 ADD DUP3 SSTORE SWAP1 DUP5 MSTORE PUSH32 0xB10E2D527612073B26EECDFD717E6A320CF44B4AFAC2B0732D9FCBE2B7FA0CF6 ADD DUP1 SLOAD SWAP1 SWAP3 AND OR SWAP1 SSTORE PUSH2 0x2B26 SWAP1 DUP2 SWAP1 PUSH2 0x6C SWAP1 CODECOPY PUSH1 0x0 RETURN INVALID PUSH1 0x80 PUSH1 0x40 MSTORE CALLVALUE DUP1 ISZERO PUSH2 0x10 JUMPI PUSH1 0x0 DUP1 REVERT JUMPDEST POP PUSH1 0x4 CALLDATASIZE LT PUSH2 0x48B JUMPI PUSH1 0x0 CALLDATALOAD PUSH1 0xE0 SHR DUP1 PUSH4 0x6933DC7C GT PUSH2 0x262 JUMPI DUP1 PUSH4 0xBD1B50FF GT PUSH2 0x151 JUMPI DUP1 PUSH4 0xE2B3086B GT PUSH2 0xCE JUMPI DUP1 PUSH4 0xF48AC309 GT PUSH2 0x92 JUMPI DUP1 PUSH4 0xF48AC309 EQ PUSH2 0xDBD JUMPI DUP1 PUSH4 0xF5DC9A6F EQ PUSH2 0xE0E JUMPI DUP1 PUSH4 0xFA8807B8 EQ PUSH2 0x4C5 JUMPI DUP1 PUSH4 0xFA9DFD0B EQ PUSH2 0xE3F JUMPI DUP1 PUSH4 0xFB293CA5 EQ PUSH2 0xE8C JUMPI DUP1 PUSH4 0xFFB0736E EQ PUSH2 0xE9F JUMPI PUSH1 0x0 DUP1 REVERT JUMPDEST DUP1 PUSH4 0xE2B3086B EQ PUSH2 0xD54 JUMPI DUP1 PUSH4 0xE6F8BDFC EQ PUSH2 0xD67 JUMPI DUP1 PUSH4 0xE74B31D7 EQ PUSH2 0x4EB JUMPI DUP1 PUSH4 0xE8AE9D76 EQ PUSH2 0xD7A JUMPI DUP1 PUSH4 0xEE55F675 EQ PUSH2 0xD8D JUMPI PUSH1 0x0 DUP1 REVERT JUMPDEST DUP1 PUSH4 0xCEEB2431 GT PUSH2 0x115 JUMPI DUP1 PUSH4 0xCEEB2431 EQ PUSH2 0xCD6 JUMPI DUP1 PUSH4 0xDF2D2FCF EQ PUSH2 0xCF6 JUMPI DUP1 PUSH4 0xDF486A89 EQ PUSH2 0xCFE JUMPI DUP1 PUSH4 0xE0CF67FE EQ PUSH2 0xD11 JUMPI DUP1 PUSH4 0xE0EC8012 EQ PUSH2 0xD31 JUMPI PUSH1 0x0 DUP1 REVERT JUMPDEST DUP1 PUSH4 0xBD1B50FF EQ PUSH2 0xC10 JUMPI DUP1 PUSH4 0xBE86819B EQ PUSH2 0xC6D JUMPI DUP1 PUSH4 0xBF3F01AB EQ PUSH2 0xC80 JUMPI DUP1 PUSH4 0xBF9134DF EQ PUSH2 0xCB0 JUMPI DUP1 PUSH4 0xBFF937B0 EQ PUSH2 0xCC3 JUMPI PUSH1 0x0 DUP1 REVERT JUMPDEST DUP1 PUSH4 0x8D4F2726 GT PUSH2 0x1DF JUMPI DUP1 PUSH4 0x9BC59D00 GT PUSH2 0x1A3 JUMPI DUP1 PUSH4 0x9BC59D00 EQ PUSH2 0xC10 JUMPI DUP1 PUSH4 0x9C11CCF7 EQ PUSH2 0xC23 JUMPI DUP1 PUSH4 0xAB53CB2B EQ PUSH2 0x5E0 JUMPI DUP1 PUSH4 0xAF387B12 EQ PUSH2 0xC47 JUMPI DUP1 PUSH4 0xB6BF7E1D EQ PUSH2 0xC5A JUMPI PUSH1 0x0 DUP1 REVERT JUMPDEST DUP1 PUSH4 0x8D4F2726 EQ PUSH2 0xB74 JUMPI DUP1 PUSH4 0x91D3E449 EQ PUSH2 0xB87 JUMPI DUP1 PUSH4 0x927EE859 EQ PUSH2 0xB9A JUMPI DUP1 PUSH4 0x93CE1A50 EQ PUSH2 0xBCF JUMPI DUP1 PUSH4 0x9A45E7B8 EQ PUSH2 0xBE2 JUMPI PUSH1 0x0 DUP1 REVERT JUMPDEST DUP1 PUSH4 0x81323911 GT PUSH2 0x226 JUMPI DUP1 PUSH4 0x81323911 EQ PUSH2 0xAB2 JUMPI DUP1 PUSH4 0x86D423AB EQ PUSH2 0xAC3 JUMPI DUP1 PUSH4 0x88BA5919 EQ PUSH2 0xB10 JUMPI DUP1 PUSH4 0x896296AF EQ PUSH2 0xB23 JUMPI DUP1 PUSH4 0x8D3B2E0F EQ PUSH2 0xB54 JUMPI PUSH1 0x0 DUP1 REVERT JUMPDEST DUP1 PUSH4 0x6933DC7C EQ PUSH2 0x9FE JUMPI DUP1 PUSH4 0x6CB0FBAC EQ PUSH2 0xA27 JUMPI DUP1 PUSH4 0x70B915E1 EQ PUSH2 0xA3A JUMPI DUP1 PUSH4 0x71564789 EQ PUSH2 0xA4D JUMPI DUP1 PUSH4 0x7EABE6D4 EQ PUSH2 0xA7F JUMPI PUSH1 0x0 DUP1 REVERT JUMPDEST DUP1 PUSH4 0x3A9AE28C GT PUSH2 0x37E JUMPI DUP1 PUSH4 0x4D22D57B GT PUSH2 0x2FB JUMPI DUP1 PUSH4 0x596B371D GT PUSH2 0x2BF JUMPI DUP1 PUSH4 0x596B371D EQ PUSH2 0x976 JUMPI DUP1 PUSH4 0x5DA54CDE EQ PUSH2 0x989 JUMPI DUP1 PUSH4 0x5FFACEDA EQ PUSH2 0x99C JUMPI DUP1 PUSH4 0x633F7A84 EQ PUSH2 0x9AF JUMPI DUP1 PUSH4 0x656A33E4 EQ PUSH2 0x9C2 JUMPI PUSH1 0x0 DUP1 REVERT JUMPDEST DUP1 PUSH4 0x4D22D57B EQ PUSH2 0x8A2 JUMPI DUP1 PUSH4 0x50B0B9B3 EQ PUSH2 0x8D0 JUMPI DUP1 PUSH4 0x522BC530 EQ PUSH2 0x902 JUMPI DUP1 PUSH4 0x538E59C4 EQ PUSH2 0x922 JUMPI DUP1 PUSH4 0x54A87336 EQ PUSH2 0x963 JUMPI PUSH1 0x0 DUP1 REVERT JUMPDEST DUP1 PUSH4 0x404503C6 GT PUSH2 0x342 JUMPI DUP1 PUSH4 0x404503C6 EQ PUSH2 0x7D8 JUMPI DUP1 PUSH4 0x47669121 EQ PUSH2 0x7EB JUMPI DUP1 PUSH4 0x4869DBED EQ PUSH2 0x7FE JUMPI DUP1 PUSH4 0x4AB7CA6E EQ PUSH2 0x853 JUMPI DUP1 PUSH4 0x4CE08900 EQ PUSH2 0x88F JUMPI PUSH1 0x0 DUP1 REVERT JUMPDEST DUP1 PUSH4 0x3A9AE28C EQ PUSH2 0x75F JUMPI DUP1 PUSH4 0x3AC3FA1F EQ PUSH2 0x77F JUMPI DUP1 PUSH4 0x3DAA8767 EQ PUSH2 0x792 JUMPI DUP1 PUSH4 0x3EE6A0F5 EQ PUSH2 0x7A5 JUMPI DUP1 PUSH4 0x3F026CE5 EQ PUSH2 0x7B8 JUMPI PUSH1 0x0 DUP1 REVERT JUMPDEST DUP1 PUSH4 0x16451163 GT PUSH2 0x40C JUMPI DUP1 PUSH4 0x201C87F1 GT PUSH2 0x3D0 JUMPI DUP1 PUSH4 0x201C87F1 EQ PUSH2 0x686 JUMPI DUP1 PUSH4 0x20CF0AD6 EQ PUSH2 0x6D5 JUMPI DUP1 PUSH4 0x35EB2C1D EQ PUSH2 0x6E8 JUMPI DUP1 PUSH4 0x3758BA43 EQ PUSH2 0x6FB JUMPI DUP1 PUSH4 0x39A56365 EQ PUSH2 0x70E JUMPI PUSH1 0x0 DUP1 REVERT JUMPDEST DUP1 PUSH4 0x16451163 EQ PUSH2 0x600 JUMPI DUP1 PUSH4 0x16A2FC34 EQ PUSH2 0x620 JUMPI DUP1 PUSH4 0x175A22EF EQ PUSH2 0x633 JUMPI DUP1 PUSH4 0x1A840E08 EQ PUSH2 0x653 JUMPI DUP1 PUSH4 0x1DD5D01F EQ PUSH2 0x666 JUMPI PUSH1 0x0 DUP1 REVERT JUMPDEST DUP1 PUSH4 0xA020E5E GT PUSH2 0x453 JUMPI DUP1 PUSH4 0xA020E5E EQ PUSH2 0x51C JUMPI DUP1 PUSH4 0xA7B1F8A EQ PUSH2 0x558 JUMPI DUP1 PUSH4 0xE9BD4E2 EQ PUSH2 0x578 JUMPI DUP1 PUSH4 0x138A7465 EQ PUSH2 0x5CD JUMPI DUP1 PUSH4 0x14D869B3 EQ PUSH2 0x5E0 JUMPI PUSH1 0x0 DUP1 REVERT JUMPDEST DUP1 PUSH4 0x14A00C7 EQ PUSH2 0x490 JUMPI DUP1 PUSH4 0x32A772F EQ PUSH2 0x4A5 JUMPI DUP1 PUSH4 0x561CFC3 EQ PUSH2 0x4C5 JUMPI DUP1 PUSH4 0x6BA9895 EQ PUSH2 0x4D8 JUMPI DUP1 PUSH4 0x6F605F0 EQ PUSH2 0x4EB JUMPI JUMPDEST PUSH1 0x0 DUP1 REVERT JUMPDEST PUSH2 0x4A3 PUSH2 0x49E CALLDATASIZE PUSH1 0x4 PUSH2 0x2023 JUMP JUMPDEST PUSH2 0xEB2 JUMP JUMPDEST STOP JUMPDEST PUSH2 0x4A3 PUSH2 0x4B3 CALLDATASIZE PUSH1 0x4 PUSH2 0x205F JUMP JUMPDEST PUSH1 0x0 SWAP2 DUP3 MSTORE PUSH1 0xA PUSH1 0x20 MSTORE PUSH1 0x40 SWAP1 SWAP2 KECCAK256 SSTORE JUMP JUMPDEST PUSH2 0x4A3 PUSH2 0x4D3 CALLDATASIZE PUSH1 0x4 PUSH2 0x2081 JUMP JUMPDEST PUSH2 0xF08 JUMP JUMPDEST PUSH2 0x4A3 PUSH2 0x4E6 CALLDATASIZE PUSH1 0x4 PUSH2 0x216D JUMP JUMPDEST PUSH2 0xF40 JUMP JUMPDEST PUSH2 0x4A3 PUSH2 0x4F9 CALLDATASIZE PUSH1 0x4 PUSH2 0x205F JUMP JUMPDEST PUSH1 0x0 SWAP2 DUP3 MSTORE PUSH1 0xD PUSH1 0x20 SWAP1 DUP2 MSTORE PUSH1 0x40 DUP4 KECCAK256 DUP1 SLOAD PUSH1 0x1 DUP2 ADD DUP3 SSTORE SWAP1 DUP5 MSTORE SWAP3 KECCAK256 SWAP1 SWAP2 ADD SSTORE JUMP JUMPDEST PUSH2 0x540 PUSH2 0x52A CALLDATASIZE PUSH1 0x4 PUSH2 0x21C4 JUMP JUMPDEST PUSH1 0x0 SWAP1 DUP2 MSTORE PUSH1 0x16 PUSH1 0x20 MSTORE PUSH1 0x40 SWAP1 KECCAK256 SLOAD PUSH2 0xFFFF AND SWAP1 JUMP JUMPDEST PUSH1 0x40 MLOAD PUSH2 0xFFFF SWAP1 SWAP2 AND DUP2 MSTORE PUSH1 0x20 ADD JUMPDEST PUSH1 0x40 MLOAD DUP1 SWAP2 SUB SWAP1 RETURN JUMPDEST PUSH2 0x56B PUSH2 0x566 CALLDATASIZE PUSH1 0x4 PUSH2 0x21C4 JUMP JUMPDEST PUSH2 0xF83 JUMP JUMPDEST PUSH1 0x40 MLOAD PUSH2 0x54F SWAP2 SWAP1 PUSH2 0x21DD JUMP JUMPDEST PUSH2 0x4A3 PUSH2 0x586 CALLDATASIZE PUSH1 0x4 PUSH2 0x222A JUMP JUMPDEST PUSH1 0x0 SWAP2 DUP3 MSTORE PUSH1 0x17 PUSH1 0x20 SWAP1 DUP2 MSTORE PUSH1 0x40 DUP4 KECCAK256 DUP1 SLOAD PUSH1 0x1 DUP2 ADD DUP3 SSTORE SWAP1 DUP5 MSTORE SWAP3 KECCAK256 PUSH1 0x10 DUP4 DIV ADD DUP1 SLOAD PUSH1 0xF SWAP1 SWAP4 AND PUSH1 0x2 MUL PUSH2 0x100 EXP PUSH2 0xFFFF DUP2 DUP2 MUL NOT SWAP1 SWAP5 AND SWAP3 SWAP1 SWAP4 AND SWAP3 SWAP1 SWAP3 MUL OR SWAP1 SSTORE JUMP JUMPDEST PUSH2 0x4A3 PUSH2 0x5DB CALLDATASIZE PUSH1 0x4 PUSH2 0x2256 JUMP JUMPDEST PUSH2 0xFEF JUMP JUMPDEST PUSH2 0x4A3 PUSH2 0x5EE CALLDATASIZE PUSH1 0x4 PUSH2 0x205F JUMP JUMPDEST PUSH1 0x0 SWAP2 DUP3 MSTORE PUSH1 0xC PUSH1 0x20 MSTORE PUSH1 0x40 SWAP1 SWAP2 KECCAK256 SSTORE JUMP JUMPDEST PUSH2 0x613 PUSH2 0x60E CALLDATASIZE PUSH1 0x4 PUSH2 0x21C4 JUMP JUMPDEST PUSH2 0x101C JUMP JUMPDEST PUSH1 0x40 MLOAD PUSH2 0x54F SWAP2 SWAP1 PUSH2 0x22E3 JUMP JUMPDEST PUSH2 0x4A3 PUSH2 0x62E CALLDATASIZE PUSH1 0x4 PUSH2 0x2369 JUMP JUMPDEST PUSH2 0x1108 JUMP JUMPDEST PUSH2 0x646 PUSH2 0x641 CALLDATASIZE PUSH1 0x4 PUSH2 0x21C4 JUMP JUMPDEST PUSH2 0x1127 JUMP JUMPDEST PUSH1 0x40 MLOAD PUSH2 0x54F SWAP2 SWAP1 PUSH2 0x242B JUMP JUMPDEST PUSH2 0x4A3 PUSH2 0x661 CALLDATASIZE PUSH1 0x4 PUSH2 0x2467 JUMP JUMPDEST PUSH2 0x11AF JUMP JUMPDEST PUSH2 0x679 PUSH2 0x674 CALLDATASIZE PUSH1 0x4 PUSH2 0x21C4 JUMP JUMPDEST PUSH2 0x11CE JUMP JUMPDEST PUSH1 0x40 MLOAD PUSH2 0x54F SWAP2 SWAP1 PUSH2 0x250B JUMP JUMPDEST PUSH2 0x4A3 PUSH2 0x694 CALLDATASIZE PUSH1 0x4 PUSH2 0x2553 JUMP JUMPDEST PUSH1 0x0 SWAP2 DUP3 MSTORE PUSH1 0xF PUSH1 0x20 SWAP1 DUP2 MSTORE PUSH1 0x40 DUP4 KECCAK256 DUP1 SLOAD PUSH1 0x1 DUP2 ADD DUP3 SSTORE SWAP1 DUP5 MSTORE SWAP3 DUP2 SWAP1 KECCAK256 SWAP1 DUP4 DIV ADD DUP1 SLOAD PUSH1 0xFF PUSH1 0x1F SWAP1 SWAP5 AND PUSH2 0x100 EXP SWAP4 DUP5 MUL NOT AND SWAP2 ISZERO ISZERO SWAP3 SWAP1 SWAP3 MUL OR SWAP1 SSTORE JUMP JUMPDEST PUSH2 0x4A3 PUSH2 0x6E3 CALLDATASIZE PUSH1 0x4 PUSH2 0x258D JUMP JUMPDEST PUSH2 0x122F JUMP JUMPDEST PUSH2 0x4A3 PUSH2 0x6F6 CALLDATASIZE PUSH1 0x4 PUSH2 0x216D JUMP JUMPDEST PUSH2 0x1289 JUMP JUMPDEST PUSH2 0x4A3 PUSH2 0x709 CALLDATASIZE PUSH1 0x4 PUSH2 0x25C0 JUMP JUMPDEST PUSH2 0x12B0 JUMP JUMPDEST PUSH2 0x4A3 PUSH2 0x71C CALLDATASIZE PUSH1 0x4 PUSH2 0x25F3 JUMP JUMPDEST PUSH1 0x0 SWAP2 DUP3 MSTORE PUSH1 0x7 PUSH1 0x20 SWAP1 DUP2 MSTORE PUSH1 0x40 DUP4 KECCAK256 DUP1 SLOAD PUSH1 0x1 DUP2 ADD DUP3 SSTORE SWAP1 DUP5 MSTORE SWAP3 DUP2 SWAP1 KECCAK256 SWAP1 DUP4 DIV ADD DUP1 SLOAD PUSH1 0xFF SWAP3 DUP4 AND PUSH1 0x1F SWAP1 SWAP5 AND PUSH2 0x100 EXP SWAP4 DUP5 MUL SWAP3 SWAP1 SWAP4 MUL NOT SWAP1 SWAP3 AND OR SWAP1 SSTORE JUMP JUMPDEST PUSH2 0x772 PUSH2 0x76D CALLDATASIZE PUSH1 0x4 PUSH2 0x21C4 JUMP JUMPDEST PUSH2 0x1305 JUMP JUMPDEST PUSH1 0x40 MLOAD PUSH2 0x54F SWAP2 SWAP1 PUSH2 0x2616 JUMP JUMPDEST PUSH2 0x56B PUSH2 0x78D CALLDATASIZE PUSH1 0x4 PUSH2 0x21C4 JUMP JUMPDEST PUSH2 0x1385 JUMP JUMPDEST PUSH2 0x4A3 PUSH2 0x7A0 CALLDATASIZE PUSH1 0x4 PUSH2 0x2256 JUMP JUMPDEST PUSH2 0x13EF JUMP JUMPDEST PUSH2 0x4A3 PUSH2 0x7B3 CALLDATASIZE PUSH1 0x4 PUSH2 0x258D JUMP JUMPDEST PUSH2 0x1407 JUMP JUMPDEST PUSH2 0x7CB PUSH2 0x7C6 CALLDATASIZE PUSH1 0x4 PUSH2 0x21C4 JUMP JUMPDEST PUSH2 0x142E JUMP JUMPDEST PUSH1 0x40 MLOAD PUSH2 0x54F SWAP2 SWAP1 PUSH2 0x2650 JUMP JUMPDEST PUSH2 0x4A3 PUSH2 0x7E6 CALLDATASIZE PUSH1 0x4 PUSH2 0x266A JUMP JUMPDEST PUSH2 0x14C6 JUMP JUMPDEST PUSH2 0x4A3 PUSH2 0x7F9 CALLDATASIZE PUSH1 0x4 PUSH2 0x26FF JUMP JUMPDEST PUSH2 0x14E5 JUMP JUMPDEST PUSH2 0x4A3 PUSH2 0x80C CALLDATASIZE PUSH1 0x4 PUSH2 0x222A JUMP JUMPDEST PUSH1 0x0 SWAP2 DUP3 MSTORE PUSH1 0x9 PUSH1 0x20 SWAP1 DUP2 MSTORE PUSH1 0x40 DUP4 KECCAK256 DUP1 SLOAD PUSH1 0x1 DUP2 ADD DUP3 SSTORE SWAP1 DUP5 MSTORE SWAP3 KECCAK256 PUSH1 0x10 DUP4 DIV ADD DUP1 SLOAD PUSH1 0xF SWAP1 SWAP4 AND PUSH1 0x2 MUL PUSH2 0x100 EXP PUSH2 0xFFFF DUP2 DUP2 MUL NOT SWAP1 SWAP5 AND SWAP3 SWAP1 SWAP4 AND SWAP3 SWAP1 SWAP3 MUL OR SWAP1 SSTORE JUMP JUMPDEST PUSH2 0x4A3 PUSH2 0x861 CALLDATASIZE PUSH1 0x4 PUSH2 0x2794 JUMP JUMPDEST PUSH1 0x0 SWAP2 DUP3 MSTORE PUSH1 0x12 PUSH1 0x20 MSTORE PUSH1 0x40 SWAP1 SWAP2 KECCAK256 DUP1 SLOAD PUSH1 0x1 PUSH1 0x1 PUSH1 0xA0 SHL SUB NOT AND PUSH1 0x1 PUSH1 0x1 PUSH1 0xA0 SHL SUB SWAP1 SWAP3 AND SWAP2 SWAP1 SWAP2 OR SWAP1 SSTORE JUMP JUMPDEST PUSH2 0x4A3 PUSH2 0x89D CALLDATASIZE PUSH1 0x4 PUSH2 0x2369 JUMP JUMPDEST PUSH2 0x1504 JUMP JUMPDEST PUSH2 0x8C2 PUSH2 0x8B0 CALLDATASIZE PUSH1 0x4 PUSH2 0x21C4 JUMP JUMPDEST PUSH1 0x0 SWAP1 DUP2 MSTORE PUSH1 0xC PUSH1 0x20 MSTORE PUSH1 0x40 SWAP1 KECCAK256 SLOAD SWAP1 JUMP JUMPDEST PUSH1 0x40 MLOAD SWAP1 DUP2 MSTORE PUSH1 0x20 ADD PUSH2 0x54F JUMP JUMPDEST PUSH2 0x4A3 PUSH2 0x8DE CALLDATASIZE PUSH1 0x4 PUSH2 0x222A JUMP JUMPDEST PUSH1 0x0 SWAP2 DUP3 MSTORE PUSH1 0x16 PUSH1 0x20 MSTORE PUSH1 0x40 SWAP1 SWAP2 KECCAK256 DUP1 SLOAD PUSH2 0xFFFF NOT AND PUSH2 0xFFFF SWAP1 SWAP3 AND SWAP2 SWAP1 SWAP2 OR SWAP1 SSTORE JUMP JUMPDEST PUSH2 0x4A3 PUSH2 0x910 CALLDATASIZE PUSH1 0x4 PUSH2 0x205F JUMP JUMPDEST PUSH1 0x0 SWAP2 DUP3 MSTORE PUSH1 0x18 PUSH1 0x20 MSTORE PUSH1 0x40 SWAP1 SWAP2 KECCAK256 SSTORE JUMP JUMPDEST PUSH2 0x94B PUSH2 0x930 CALLDATASIZE PUSH1 0x4 PUSH2 0x21C4 JUMP JUMPDEST PUSH1 0x0 SWAP1 DUP2 MSTORE PUSH1 0x4 PUSH1 0x20 MSTORE PUSH1 0x40 SWAP1 KECCAK256 SLOAD PUSH1 0x1 PUSH1 0x1 PUSH1 0xA0 SHL SUB AND SWAP1 JUMP JUMPDEST PUSH1 0x40 MLOAD PUSH1 0x1 PUSH1 0x1 PUSH1 0xA0 SHL SUB SWAP1 SWAP2 AND DUP2 MSTORE PUSH1 0x20 ADD PUSH2 0x54F JUMP JUMPDEST PUSH2 0x4A3 PUSH2 0x971 CALLDATASIZE PUSH1 0x4 PUSH2 0x2081 JUMP JUMPDEST PUSH2 0x1523 JUMP JUMPDEST PUSH2 0x4A3 PUSH2 0x984 CALLDATASIZE PUSH1 0x4 PUSH2 0x2256 JUMP JUMPDEST PUSH2 0x154A JUMP JUMPDEST PUSH2 0x4A3 PUSH2 0x997 CALLDATASIZE PUSH1 0x4 PUSH2 0x27B7 JUMP JUMPDEST PUSH2 0x1572 JUMP JUMPDEST PUSH2 0x4A3 PUSH2 0x9AA CALLDATASIZE PUSH1 0x4 PUSH2 0x2845 JUMP JUMPDEST PUSH2 0x1591 JUMP JUMPDEST PUSH2 0x4A3 PUSH2 0x9BD CALLDATASIZE PUSH1 0x4 PUSH2 0x28DA JUMP JUMPDEST PUSH2 0x15B0 JUMP JUMPDEST PUSH2 0x4A3 PUSH2 0x9D0 CALLDATASIZE PUSH1 0x4 PUSH2 0x2794 JUMP JUMPDEST PUSH1 0x0 SWAP2 DUP3 MSTORE PUSH1 0x4 PUSH1 0x20 MSTORE PUSH1 0x40 SWAP1 SWAP2 KECCAK256 DUP1 SLOAD PUSH1 0x1 PUSH1 0x1 PUSH1 0xA0 SHL SUB NOT AND PUSH1 0x1 PUSH1 0x1 PUSH1 0xA0 SHL SUB SWAP1 SWAP3 AND SWAP2 SWAP1 SWAP2 OR SWAP1 SSTORE JUMP JUMPDEST PUSH2 0x94B PUSH2 0xA0C CALLDATASIZE PUSH1 0x4 PUSH2 0x21C4 JUMP JUMPDEST PUSH1 0x0 SWAP1 DUP2 MSTORE PUSH1 0x12 PUSH1 0x20 MSTORE PUSH1 0x40 SWAP1 KECCAK256 SLOAD PUSH1 0x1 PUSH1 0x1 PUSH1 0xA0 SHL SUB AND SWAP1 JUMP JUMPDEST PUSH2 0x679 PUSH2 0xA35 CALLDATASIZE PUSH1 0x4 PUSH2 0x21C4 JUMP JUMPDEST PUSH2 0x160B JUMP JUMPDEST PUSH2 0x4A3 PUSH2 0xA48 CALLDATASIZE PUSH1 0x4 PUSH2 0x27B7 JUMP JUMPDEST PUSH2 0x166B JUMP JUMPDEST PUSH2 0x4A3 PUSH2 0xA5B CALLDATASIZE PUSH1 0x4 PUSH2 0x222A JUMP JUMPDEST PUSH1 0x0 SWAP2 DUP3 MSTORE PUSH1 0x8 PUSH1 0x20 MSTORE PUSH1 0x40 SWAP1 SWAP2 KECCAK256 DUP1 SLOAD PUSH2 0xFFFF NOT AND PUSH2 0xFFFF SWAP1 SWAP3 AND SWAP2 SWAP1 SWAP2 OR SWAP1 SSTORE JUMP JUMPDEST PUSH2 0xAA2 PUSH2 0xA8D CALLDATASIZE PUSH1 0x4 PUSH2 0x21C4 JUMP JUMPDEST PUSH1 0x0 SWAP1 DUP2 MSTORE PUSH1 0xE PUSH1 0x20 MSTORE PUSH1 0x40 SWAP1 KECCAK256 SLOAD PUSH1 0xFF AND SWAP1 JUMP JUMPDEST PUSH1 0x40 MLOAD SWAP1 ISZERO ISZERO DUP2 MSTORE PUSH1 0x20 ADD PUSH2 0x54F JUMP JUMPDEST PUSH1 0x0 SLOAD PUSH1 0x1 PUSH1 0x1 PUSH1 0xA0 SHL SUB AND PUSH2 0x94B JUMP JUMPDEST PUSH2 0x4A3 PUSH2 0xAD1 CALLDATASIZE PUSH1 0x4 PUSH2 0x2794 JUMP JUMPDEST PUSH1 0x0 SWAP2 DUP3 MSTORE PUSH1 0x5 PUSH1 0x20 SWAP1 DUP2 MSTORE PUSH1 0x40 DUP4 KECCAK256 DUP1 SLOAD PUSH1 0x1 DUP2 ADD DUP3 SSTORE SWAP1 DUP5 MSTORE SWAP3 KECCAK256 SWAP1 SWAP2 ADD DUP1 SLOAD PUSH1 0x1 PUSH1 0x1 PUSH1 0xA0 SHL SUB NOT AND PUSH1 0x1 PUSH1 0x1 PUSH1 0xA0 SHL SUB SWAP1 SWAP3 AND SWAP2 SWAP1 SWAP2 OR SWAP1 SSTORE JUMP JUMPDEST PUSH2 0x7CB PUSH2 0xB1E CALLDATASIZE PUSH1 0x4 PUSH2 0x21C4 JUMP JUMPDEST PUSH2 0x168A JUMP JUMPDEST PUSH2 0x4A3 PUSH2 0xB31 CALLDATASIZE PUSH1 0x4 PUSH2 0x205F JUMP JUMPDEST PUSH1 0x0 SWAP2 DUP3 MSTORE PUSH1 0x19 PUSH1 0x20 SWAP1 DUP2 MSTORE PUSH1 0x40 DUP4 KECCAK256 DUP1 SLOAD PUSH1 0x1 DUP2 ADD DUP3 SSTORE SWAP1 DUP5 MSTORE SWAP3 KECCAK256 SWAP1 SWAP2 ADD SSTORE JUMP JUMPDEST PUSH2 0xB67 PUSH2 0xB62 CALLDATASIZE PUSH1 0x4 PUSH2 0x21C4 JUMP JUMPDEST PUSH2 0x16A7 JUMP JUMPDEST PUSH1 0x40 MLOAD PUSH2 0x54F SWAP2 SWAP1 PUSH2 0x290D JUMP JUMPDEST PUSH2 0x4A3 PUSH2 0xB82 CALLDATASIZE PUSH1 0x4 PUSH2 0x266A JUMP JUMPDEST PUSH2 0x1725 JUMP JUMPDEST PUSH2 0x4A3 PUSH2 0xB95 CALLDATASIZE PUSH1 0x4 PUSH2 0x2948 JUMP JUMPDEST PUSH2 0x1744 JUMP JUMPDEST PUSH2 0xBBD PUSH2 0xBA8 CALLDATASIZE PUSH1 0x4 PUSH2 0x21C4 JUMP JUMPDEST PUSH1 0x0 SWAP1 DUP2 MSTORE PUSH1 0x6 PUSH1 0x20 MSTORE PUSH1 0x40 SWAP1 KECCAK256 SLOAD PUSH1 0xFF AND SWAP1 JUMP JUMPDEST PUSH1 0x40 MLOAD PUSH1 0xFF SWAP1 SWAP2 AND DUP2 MSTORE PUSH1 0x20 ADD PUSH2 0x54F JUMP JUMPDEST PUSH2 0x4A3 PUSH2 0xBDD CALLDATASIZE PUSH1 0x4 PUSH2 0x2948 JUMP JUMPDEST PUSH2 0x17E8 JUMP JUMPDEST PUSH2 0x4A3 PUSH2 0xBF0 CALLDATASIZE PUSH1 0x4 PUSH2 0x2553 JUMP JUMPDEST PUSH1 0x0 SWAP2 DUP3 MSTORE PUSH1 0xE PUSH1 0x20 MSTORE PUSH1 0x40 SWAP1 SWAP2 KECCAK256 DUP1 SLOAD PUSH1 0xFF NOT AND SWAP2 ISZERO ISZERO SWAP2 SWAP1 SWAP2 OR SWAP1 SSTORE JUMP JUMPDEST PUSH2 0x4A3 PUSH2 0xC1E CALLDATASIZE PUSH1 0x4 PUSH2 0x27B7 JUMP JUMPDEST PUSH2 0x18E0 JUMP JUMPDEST PUSH2 0x540 PUSH2 0xC31 CALLDATASIZE PUSH1 0x4 PUSH2 0x21C4 JUMP JUMPDEST PUSH1 0x0 SWAP1 DUP2 MSTORE PUSH1 0x8 PUSH1 0x20 MSTORE PUSH1 0x40 SWAP1 KECCAK256 SLOAD PUSH2 0xFFFF AND SWAP1 JUMP JUMPDEST PUSH2 0x4A3 PUSH2 0xC55 CALLDATASIZE PUSH1 0x4 PUSH2 0x2081 JUMP JUMPDEST PUSH2 0x18FF JUMP JUMPDEST PUSH2 0x4A3 PUSH2 0xC68 CALLDATASIZE PUSH1 0x4 PUSH2 0x28DA JUMP JUMPDEST PUSH2 0x1926 JUMP JUMPDEST PUSH2 0x4A3 PUSH2 0xC7B CALLDATASIZE PUSH1 0x4 PUSH2 0x2256 JUMP JUMPDEST PUSH2 0x194D JUMP JUMPDEST PUSH2 0x4A3 PUSH2 0xC8E CALLDATASIZE PUSH1 0x4 PUSH2 0x25F3 JUMP JUMPDEST PUSH1 0x0 SWAP2 DUP3 MSTORE PUSH1 0x6 PUSH1 0x20 MSTORE PUSH1 0x40 SWAP1 SWAP2 KECCAK256 DUP1 SLOAD PUSH1 0xFF NOT AND PUSH1 0xFF SWAP1 SWAP3 AND SWAP2 SWAP1 SWAP2 OR SWAP1 SSTORE JUMP JUMPDEST PUSH2 0x679 PUSH2 0xCBE CALLDATASIZE PUSH1 0x4 PUSH2 0x21C4 JUMP JUMPDEST PUSH2 0x1965 JUMP JUMPDEST PUSH2 0x4A3 PUSH2 0xCD1 CALLDATASIZE PUSH1 0x4 PUSH2 0x2467 JUMP JUMPDEST PUSH2 0x19C5 JUMP JUMPDEST PUSH2 0x8C2 PUSH2 0xCE4 CALLDATASIZE PUSH1 0x4 PUSH2 0x21C4 JUMP JUMPDEST PUSH1 0x0 SWAP1 DUP2 MSTORE PUSH1 0xA PUSH1 0x20 MSTORE PUSH1 0x40 SWAP1 KECCAK256 SLOAD SWAP1 JUMP JUMPDEST PUSH2 0x56B PUSH2 0x19E4 JUMP JUMPDEST PUSH2 0x4A3 PUSH2 0xD0C CALLDATASIZE PUSH1 0x4 PUSH2 0x2845 JUMP JUMPDEST PUSH2 0x1A46 JUMP JUMPDEST PUSH2 0x8C2 PUSH2 0xD1F CALLDATASIZE PUSH1 0x4 PUSH2 0x21C4 JUMP JUMPDEST PUSH1 0x0 SWAP1 DUP2 MSTORE PUSH1 0x18 PUSH1 0x20 MSTORE PUSH1 0x40 SWAP1 KECCAK256 SLOAD SWAP1 JUMP JUMPDEST PUSH2 0xBBD PUSH2 0xD3F CALLDATASIZE PUSH1 0x4 PUSH2 0x21C4 JUMP JUMPDEST PUSH1 0x0 SWAP1 DUP2 MSTORE PUSH1 0x14 PUSH1 0x20 MSTORE PUSH1 0x40 SWAP1 KECCAK256 SLOAD PUSH1 0xFF AND SWAP1 JUMP JUMPDEST PUSH2 0xB67 PUSH2 0xD62 CALLDATASIZE PUSH1 0x4 PUSH2 0x21C4 JUMP JUMPDEST PUSH2 0x1A65 JUMP JUMPDEST PUSH2 0x613 PUSH2 0xD75 CALLDATASIZE PUSH1 0x4 PUSH2 0x21C4 JUMP JUMPDEST PUSH2 0x1AC8 JUMP JUMPDEST PUSH2 0x646 PUSH2 0xD88 CALLDATASIZE PUSH1 0x4 PUSH2 0x21C4 JUMP JUMPDEST PUSH2 0x1BA9 JUMP JUMPDEST PUSH2 0x4A3 PUSH2 0xD9B CALLDATASIZE PUSH1 0x4 PUSH2 0x25F3 JUMP JUMPDEST PUSH1 0x0 SWAP2 DUP3 MSTORE PUSH1 0x14 PUSH1 0x20 MSTORE PUSH1 0x40 SWAP1 SWAP2 KECCAK256 DUP1 SLOAD PUSH1 0xFF NOT AND PUSH1 0xFF SWAP1 SWAP3 AND SWAP2 SWAP1 SWAP2 OR SWAP1 SSTORE JUMP JUMPDEST PUSH2 0x4A3 PUSH2 0xDCB CALLDATASIZE PUSH1 0x4 PUSH2 0x25F3 JUMP JUMPDEST PUSH1 0x0 SWAP2 DUP3 MSTORE PUSH1 0x15 PUSH1 0x20 SWAP1 DUP2 MSTORE PUSH1 0x40 DUP4 KECCAK256 DUP1 SLOAD PUSH1 0x1 DUP2 ADD DUP3 SSTORE SWAP1 DUP5 MSTORE SWAP3 DUP2 SWAP1 KECCAK256 SWAP1 DUP4 DIV ADD DUP1 SLOAD PUSH1 0xFF SWAP3 DUP4 AND PUSH1 0x1F SWAP1 SWAP5 AND PUSH2 0x100 EXP SWAP4 DUP5 MUL SWAP3 SWAP1 SWAP4 MUL NOT SWAP1 SWAP3 AND OR SWAP1 SSTORE JUMP JUMPDEST PUSH2 0x4A3 PUSH2 0xE1C CALLDATASIZE PUSH1 0x4 PUSH2 0x205F JUMP JUMPDEST PUSH1 0x0 SWAP2 DUP3 MSTORE PUSH1 0xB PUSH1 0x20 SWAP1 DUP2 MSTORE PUSH1 0x40 DUP4 KECCAK256 DUP1 SLOAD PUSH1 0x1 DUP2 ADD DUP3 SSTORE SWAP1 DUP5 MSTORE SWAP3 KECCAK256 SWAP1 SWAP2 ADD SSTORE JUMP JUMPDEST PUSH2 0x4A3 PUSH2 0xE4D CALLDATASIZE PUSH1 0x4 PUSH2 0x2794 JUMP JUMPDEST PUSH1 0x0 SWAP2 DUP3 MSTORE PUSH1 0x13 PUSH1 0x20 SWAP1 DUP2 MSTORE PUSH1 0x40 DUP4 KECCAK256 DUP1 SLOAD PUSH1 0x1 DUP2 ADD DUP3 SSTORE SWAP1 DUP5 MSTORE SWAP3 KECCAK256 SWAP1 SWAP2 ADD DUP1 SLOAD PUSH1 0x1 PUSH1 0x1 PUSH1 0xA0 SHL SUB NOT AND PUSH1 0x1 PUSH1 0x1 PUSH1 0xA0 SHL SUB SWAP1 SWAP3 AND SWAP2 SWAP1 SWAP2 OR SWAP1 SSTORE JUMP JUMPDEST PUSH2 0x4A3 PUSH2 0xE9A CALLDATASIZE PUSH1 0x4 PUSH2 0x2023 JUMP JUMPDEST PUSH2 0x1C0D JUMP JUMPDEST PUSH2 0x4A3 PUSH2 0xEAD CALLDATASIZE PUSH1 0x4 PUSH2 0x2948 JUMP JUMPDEST PUSH2 0x1C34 JUMP JUMPDEST PUSH1 0x0 DUP4 DUP2 MSTORE PUSH1 0x15 PUSH1 0x20 MSTORE PUSH1 0x40 SWAP1 KECCAK256 DUP1 SLOAD DUP3 SWAP2 SWAP1 PUSH2 0xFFFF DUP6 AND SWAP1 DUP2 LT PUSH2 0xED9 JUMPI PUSH2 0xED9 PUSH2 0x2963 JUMP JUMPDEST SWAP1 PUSH1 0x0 MSTORE PUSH1 0x20 PUSH1 0x0 KECCAK256 SWAP1 PUSH1 0x20 SWAP2 DUP3 DUP3 DIV ADD SWAP2 SWAP1 MOD PUSH2 0x100 EXP DUP2 SLOAD DUP2 PUSH1 0xFF MUL NOT AND SWAP1 DUP4 PUSH1 0xFF AND MUL OR SWAP1 SSTORE POP POP POP POP JUMP JUMPDEST PUSH1 0x0 DUP4 DUP2 MSTORE PUSH1 0xD PUSH1 0x20 MSTORE PUSH1 0x40 SWAP1 KECCAK256 DUP1 SLOAD DUP3 SWAP2 SWAP1 PUSH2 0xFFFF DUP6 AND SWAP1 DUP2 LT PUSH2 0xF2F JUMPI PUSH2 0xF2F PUSH2 0x2963 JUMP JUMPDEST PUSH1 0x0 SWAP2 DUP3 MSTORE PUSH1 0x20 SWAP1 SWAP2 KECCAK256 ADD SSTORE POP POP POP JUMP JUMPDEST PUSH1 0x0 DUP4 DUP2 MSTORE PUSH1 0x11 PUSH1 0x20 MSTORE PUSH1 0x40 SWAP1 KECCAK256 DUP1 SLOAD DUP3 SWAP2 SWAP1 PUSH2 0xFFFF DUP6 AND SWAP1 DUP2 LT PUSH2 0xF67 JUMPI PUSH2 0xF67 PUSH2 0x2963 JUMP JUMPDEST SWAP1 PUSH1 0x0 MSTORE PUSH1 0x20 PUSH1 0x0 KECCAK256 ADD SWAP1 DUP2 PUSH2 0xF7D SWAP2 SWAP1 PUSH2 0x2A01 JUMP JUMPDEST POP POP POP POP JUMP JUMPDEST PUSH1 0x0 DUP2 DUP2 MSTORE PUSH1 0x13 PUSH1 0x20 SWAP1 DUP2 MSTORE PUSH1 0x40 SWAP2 DUP3 SWAP1 KECCAK256 DUP1 SLOAD DUP4 MLOAD DUP2 DUP5 MUL DUP2 ADD DUP5 ADD SWAP1 SWAP5 MSTORE DUP1 DUP5 MSTORE PUSH1 0x60 SWAP4 SWAP3 DUP4 ADD DUP3 DUP3 DUP1 ISZERO PUSH2 0xFE3 JUMPI PUSH1 0x20 MUL DUP3 ADD SWAP2 SWAP1 PUSH1 0x0 MSTORE PUSH1 0x20 PUSH1 0x0 KECCAK256 SWAP1 JUMPDEST DUP2 SLOAD PUSH1 0x1 PUSH1 0x1 PUSH1 0xA0 SHL SUB AND DUP2 MSTORE PUSH1 0x1 SWAP1 SWAP2 ADD SWAP1 PUSH1 0x20 ADD DUP1 DUP4 GT PUSH2 0xFC5 JUMPI JUMPDEST POP POP POP POP POP SWAP1 POP SWAP2 SWAP1 POP JUMP JUMPDEST PUSH1 0x0 DUP3 DUP2 MSTORE PUSH1 0x11 PUSH1 0x20 SWAP1 DUP2 MSTORE PUSH1 0x40 DUP3 KECCAK256 DUP1 SLOAD PUSH1 0x1 DUP2 ADD DUP3 SSTORE SWAP1 DUP4 MSTORE SWAP2 KECCAK256 ADD PUSH2 0x1017 DUP3 DUP3 PUSH2 0x2A01 JUMP JUMPDEST POP POP POP JUMP JUMPDEST PUSH1 0x60 PUSH1 0x3 PUSH1 0x0 DUP4 DUP2 MSTORE PUSH1 0x20 ADD SWAP1 DUP2 MSTORE PUSH1 0x20 ADD PUSH1 0x0 KECCAK256 DUP1 SLOAD DUP1 PUSH1 0x20 MUL PUSH1 0x20 ADD PUSH1 0x40 MLOAD SWAP1 DUP2 ADD PUSH1 0x40 MSTORE DUP1 SWAP3 SWAP2 SWAP1 DUP2 DUP2 MSTORE PUSH1 0x20 ADD PUSH1 0x0 SWAP1 JUMPDEST DUP3 DUP3 LT ISZERO PUSH2 0x10FD JUMPI DUP4 DUP3 SWAP1 PUSH1 0x0 MSTORE PUSH1 0x20 PUSH1 0x0 KECCAK256 ADD DUP1 SLOAD PUSH2 0x1070 SWAP1 PUSH2 0x2979 JUMP JUMPDEST DUP1 PUSH1 0x1F ADD PUSH1 0x20 DUP1 SWAP2 DIV MUL PUSH1 0x20 ADD PUSH1 0x40 MLOAD SWAP1 DUP2 ADD PUSH1 0x40 MSTORE DUP1 SWAP3 SWAP2 SWAP1 DUP2 DUP2 MSTORE PUSH1 0x20 ADD DUP3 DUP1 SLOAD PUSH2 0x109C SWAP1 PUSH2 0x2979 JUMP JUMPDEST DUP1 ISZERO PUSH2 0x10E9 JUMPI DUP1 PUSH1 0x1F LT PUSH2 0x10BE JUMPI PUSH2 0x100 DUP1 DUP4 SLOAD DIV MUL DUP4 MSTORE SWAP2 PUSH1 0x20 ADD SWAP2 PUSH2 0x10E9 JUMP JUMPDEST DUP3 ADD SWAP2 SWAP1 PUSH1 0x0 MSTORE PUSH1 0x20 PUSH1 0x0 KECCAK256 SWAP1 JUMPDEST DUP2 SLOAD DUP2 MSTORE SWAP1 PUSH1 0x1 ADD SWAP1 PUSH1 0x20 ADD DUP1 DUP4 GT PUSH2 0x10CC JUMPI DUP3 SWAP1 SUB PUSH1 0x1F AND DUP3 ADD SWAP2 JUMPDEST POP POP POP POP POP DUP2 MSTORE PUSH1 0x20 ADD SWAP1 PUSH1 0x1 ADD SWAP1 PUSH2 0x1051 JUMP JUMPDEST POP POP POP POP SWAP1 POP SWAP2 SWAP1 POP JUMP JUMPDEST PUSH1 0x0 DUP3 DUP2 MSTORE PUSH1 0x3 PUSH1 0x20 SWAP1 DUP2 MSTORE PUSH1 0x40 SWAP1 SWAP2 KECCAK256 DUP3 MLOAD PUSH2 0x1017 SWAP3 DUP5 ADD SWAP1 PUSH2 0x1D07 JUMP JUMPDEST PUSH1 0x0 DUP2 DUP2 MSTORE PUSH1 0x17 PUSH1 0x20 SWAP1 DUP2 MSTORE PUSH1 0x40 SWAP2 DUP3 SWAP1 KECCAK256 DUP1 SLOAD DUP4 MLOAD DUP2 DUP5 MUL DUP2 ADD DUP5 ADD SWAP1 SWAP5 MSTORE DUP1 DUP5 MSTORE PUSH1 0x60 SWAP4 SWAP3 DUP4 ADD DUP3 DUP3 DUP1 ISZERO PUSH2 0xFE3 JUMPI PUSH1 0x20 MUL DUP3 ADD SWAP2 SWAP1 PUSH1 0x0 MSTORE PUSH1 0x20 PUSH1 0x0 KECCAK256 SWAP1 PUSH1 0x0 SWAP1 JUMPDEST DUP3 DUP3 SWAP1 SLOAD SWAP1 PUSH2 0x100 EXP SWAP1 DIV PUSH2 0xFFFF AND PUSH2 0xFFFF AND DUP2 MSTORE PUSH1 0x20 ADD SWAP1 PUSH1 0x2 ADD SWAP1 PUSH1 0x20 DUP3 PUSH1 0x1 ADD DIV SWAP3 DUP4 ADD SWAP3 PUSH1 0x1 SUB DUP3 MUL SWAP2 POP DUP1 DUP5 GT PUSH2 0x116C JUMPI POP SWAP5 SWAP8 SWAP7 POP POP POP POP POP POP POP JUMP JUMPDEST PUSH1 0x0 DUP3 DUP2 MSTORE PUSH1 0x15 PUSH1 0x20 SWAP1 DUP2 MSTORE PUSH1 0x40 SWAP1 SWAP2 KECCAK256 DUP3 MLOAD PUSH2 0x1017 SWAP3 DUP5 ADD SWAP1 PUSH2 0x1D5D JUMP JUMPDEST PUSH1 0x0 DUP2 DUP2 MSTORE PUSH1 0xD PUSH1 0x20 SWAP1 DUP2 MSTORE PUSH1 0x40 SWAP2 DUP3 SWAP1 KECCAK256 DUP1 SLOAD DUP4 MLOAD DUP2 DUP5 MUL DUP2 ADD DUP5 ADD SWAP1 SWAP5 MSTORE DUP1 DUP5 MSTORE PUSH1 0x60 SWAP4 SWAP3 DUP4 ADD DUP3 DUP3 DUP1 ISZERO PUSH2 0xFE3 JUMPI PUSH1 0x20 MUL DUP3 ADD SWAP2 SWAP1 PUSH1 0x0 MSTORE PUSH1 0x20 PUSH1 0x0 KECCAK256 SWAP1 JUMPDEST DUP2 SLOAD DUP2 MSTORE PUSH1 0x20 ADD SWAP1 PUSH1 0x1 ADD SWAP1 DUP1 DUP4 GT PUSH2 0x1210 JUMPI POP POP POP POP POP SWAP1 POP SWAP2 SWAP1 POP JUMP JUMPDEST PUSH1 0x0 DUP4 DUP2 MSTORE PUSH1 0x5 PUSH1 0x20 MSTORE PUSH1 0x40 SWAP1 KECCAK256 DUP1 SLOAD DUP3 SWAP2 SWAP1 PUSH2 0xFFFF DUP6 AND SWAP1 DUP2 LT PUSH2 0x1256 JUMPI PUSH2 0x1256 PUSH2 0x2963 JUMP JUMPDEST SWAP1 PUSH1 0x0 MSTORE PUSH1 0x20 PUSH1 0x0 KECCAK256 ADD PUSH1 0x0 PUSH2 0x100 EXP DUP2 SLOAD DUP2 PUSH1 0x1 PUSH1 0x1 PUSH1 0xA0 SHL SUB MUL NOT AND SWAP1 DUP4 PUSH1 0x1 PUSH1 0x1 PUSH1 0xA0 SHL SUB AND MUL OR SWAP1 SSTORE POP POP POP POP JUMP JUMPDEST PUSH1 0x0 DUP4 DUP2 MSTORE PUSH1 0x3 PUSH1 0x20 MSTORE PUSH1 0x40 SWAP1 KECCAK256 DUP1 SLOAD DUP3 SWAP2 SWAP1 PUSH2 0xFFFF DUP6 AND SWAP1 DUP2 LT PUSH2 0xF67 JUMPI PUSH2 0xF67 PUSH2 0x2963 JUMP JUMPDEST PUSH1 0x0 DUP4 DUP2 MSTORE PUSH1 0xF PUSH1 0x20 MSTORE PUSH1 0x40 SWAP1 KECCAK256 DUP1 SLOAD DUP3 SWAP2 SWAP1 PUSH2 0xFFFF DUP6 AND SWAP1 DUP2 LT PUSH2 0x12D7 JUMPI PUSH2 0x12D7 PUSH2 0x2963 JUMP JUMPDEST SWAP1 PUSH1 0x0 MSTORE PUSH1 0x20 PUSH1 0x0 KECCAK256 SWAP1 PUSH1 0x20 SWAP2 DUP3 DUP3 DIV ADD SWAP2 SWAP1 MOD PUSH2 0x100 EXP DUP2 SLOAD DUP2 PUSH1 0xFF MUL NOT AND SWAP1 DUP4 ISZERO ISZERO MUL OR SWAP1 SSTORE POP POP POP POP JUMP JUMPDEST PUSH1 0x0 DUP2 DUP2 MSTORE PUSH1 0xF PUSH1 0x20 SWAP1 DUP2 MSTORE PUSH1 0x40 SWAP2 DUP3 SWAP1 KECCAK256 DUP1 SLOAD DUP4 MLOAD DUP2 DUP5 MUL DUP2 ADD DUP5 ADD SWAP1 SWAP5 MSTORE DUP1 DUP5 MSTORE PUSH1 0x60 SWAP4 SWAP3 DUP4 ADD DUP3 DUP3 DUP1 ISZERO PUSH2 0xFE3 JUMPI PUSH1 0x20 MUL DUP3 ADD SWAP2 SWAP1 PUSH1 0x0 MSTORE PUSH1 0x20 PUSH1 0x0 KECCAK256 SWAP1 PUSH1 0x0 SWAP1 JUMPDEST DUP3 SLOAD PUSH2 0x100 DUP4 SWAP1 EXP SWAP1 DIV PUSH1 0xFF AND ISZERO ISZERO DUP2 MSTORE PUSH1 0x20 PUSH1 0x1 SWAP3 DUP4 ADD DUP2 DUP2 DIV SWAP5 DUP6 ADD SWAP5 SWAP1 SWAP4 SUB SWAP1 SWAP3 MUL SWAP2 ADD DUP1 DUP5 GT PUSH2 0x134A JUMPI POP SWAP5 SWAP8 SWAP7 POP POP POP POP POP POP POP JUMP JUMPDEST PUSH1 0x0 DUP2 DUP2 MSTORE PUSH1 0x5 PUSH1 0x20 SWAP1 DUP2 MSTORE PUSH1 0x40 SWAP2 DUP3 SWAP1 KECCAK256 DUP1 SLOAD DUP4 MLOAD DUP2 DUP5 MUL DUP2 ADD DUP5 ADD SWAP1 SWAP5 MSTORE DUP1 DUP5 MSTORE PUSH1 0x60 SWAP4 SWAP3 DUP4 ADD DUP3 DUP3 DUP1 ISZERO PUSH2 0xFE3 JUMPI PUSH1 0x20 MUL DUP3 ADD SWAP2 SWAP1 PUSH1 0x0 MSTORE PUSH1 0x20 PUSH1 0x0 KECCAK256 SWAP1 DUP2 SLOAD PUSH1 0x1 PUSH1 0x1 PUSH1 0xA0 SHL SUB AND DUP2 MSTORE PUSH1 0x1 SWAP1 SWAP2 ADD SWAP1 PUSH1 0x20 ADD DUP1 DUP4 GT PUSH2 0xFC5 JUMPI POP POP POP POP POP SWAP1 POP SWAP2 SWAP1 POP JUMP JUMPDEST PUSH1 0x0 DUP3 DUP2 MSTORE PUSH1 0x2 PUSH1 0x20 MSTORE PUSH1 0x40 SWAP1 KECCAK256 PUSH2 0x1017 DUP3 DUP3 PUSH2 0x2A01 JUMP JUMPDEST PUSH1 0x0 DUP4 DUP2 MSTORE PUSH1 0x13 PUSH1 0x20 MSTORE PUSH1 0x40 SWAP1 KECCAK256 DUP1 SLOAD DUP3 SWAP2 SWAP1 PUSH2 0xFFFF DUP6 AND SWAP1 DUP2 LT PUSH2 0x1256 JUMPI PUSH2 0x1256 PUSH2 0x2963 JUMP JUMPDEST PUSH1 0x0 DUP2 DUP2 MSTORE PUSH1 0x2 PUSH1 0x20 MSTORE PUSH1 0x40 SWAP1 KECCAK256 DUP1 SLOAD PUSH1 0x60 SWAP2 SWAP1 PUSH2 0x144B SWAP1 PUSH2 0x2979 JUMP JUMPDEST DUP1 PUSH1 0x1F ADD PUSH1 0x20 DUP1 SWAP2 DIV MUL PUSH1 0x20 ADD PUSH1 0x40 MLOAD SWAP1 DUP2 ADD PUSH1 0x40 MSTORE DUP1 SWAP3 SWAP2 SWAP1 DUP2 DUP2 MSTORE PUSH1 0x20 ADD DUP3 DUP1 SLOAD PUSH2 0x1477 SWAP1 PUSH2 0x2979 JUMP JUMPDEST DUP1 ISZERO PUSH2 0xFE3 JUMPI DUP1 PUSH1 0x1F LT PUSH2 0x1499 JUMPI PUSH2 0x100 DUP1 DUP4 SLOAD DIV MUL DUP4 MSTORE SWAP2 PUSH1 0x20 ADD SWAP2 PUSH2 0xFE3 JUMP JUMPDEST DUP3 ADD SWAP2 SWAP1 PUSH1 0x0 MSTORE PUSH1 0x20 PUSH1 0x0 KECCAK256 SWAP1 JUMPDEST DUP2 SLOAD DUP2 MSTORE SWAP1 PUSH1 0x1 ADD SWAP1 PUSH1 0x20 ADD DUP1 DUP4 GT PUSH2 0x14A7 JUMPI POP SWAP4 SWAP7 SWAP6 POP POP POP POP POP POP JUMP JUMPDEST PUSH1 0x0 DUP3 DUP2 MSTORE PUSH1 0x17 PUSH1 0x20 SWAP1 DUP2 MSTORE PUSH1 0x40 SWAP1 SWAP2 KECCAK256 DUP3 MLOAD PUSH2 0x1017 SWAP3 DUP5 ADD SWAP1 PUSH2 0x1DFF JUMP JUMPDEST PUSH1 0x0 DUP3 DUP2 MSTORE PUSH1 0xF PUSH1 0x20 SWAP1 DUP2 MSTORE PUSH1 0x40 SWAP1 SWAP2 KECCAK256 DUP3 MLOAD PUSH2 0x1017 SWAP3 DUP5 ADD SWAP1 PUSH2 0x1E96 JUMP JUMPDEST PUSH1 0x0 DUP3 DUP2 MSTORE PUSH1 0x11 PUSH1 0x20 SWAP1 DUP2 MSTORE PUSH1 0x40 SWAP1 SWAP2 KECCAK256 DUP3 MLOAD PUSH2 0x1017 SWAP3 DUP5 ADD SWAP1 PUSH2 0x1D07 JUMP JUMPDEST PUSH1 0x0 DUP4 DUP2 MSTORE PUSH1 0xB PUSH1 0x20 MSTORE PUSH1 0x40 SWAP1 KECCAK256 DUP1 SLOAD DUP3 SWAP2 SWAP1 PUSH2 0xFFFF DUP6 AND SWAP1 DUP2 LT PUSH2 0xF2F JUMPI PUSH2 0xF2F PUSH2 0x2963 JUMP JUMPDEST PUSH1 0x0 DUP3 DUP2 MSTORE PUSH1 0x3 PUSH1 0x20 SWAP1 DUP2 MSTORE PUSH1 0x40 DUP3 KECCAK256 DUP1 SLOAD PUSH1 0x1 DUP2 ADD DUP3 SSTORE SWAP1 DUP4 MSTORE SWAP2 KECCAK256 ADD PUSH2 0x1017 DUP3 DUP3 PUSH2 0x2A01 JUMP JUMPDEST PUSH1 0x0 DUP3 DUP2 MSTORE PUSH1 0x19 PUSH1 0x20 SWAP1 DUP2 MSTORE PUSH1 0x40 SWAP1 SWAP2 KECCAK256 DUP3 MLOAD PUSH2 0x1017 SWAP3 DUP5 ADD SWAP1 PUSH2 0x1EFC JUMP JUMPDEST PUSH1 0x0 DUP3 DUP2 MSTORE PUSH1 0x5 PUSH1 0x20 SWAP1 DUP2 MSTORE PUSH1 0x40 SWAP1 SWAP2 KECCAK256 DUP3 MLOAD PUSH2 0x1017 SWAP3 DUP5 ADD SWAP1 PUSH2 0x1F37 JUMP JUMPDEST PUSH1 0x0 DUP4 DUP2 MSTORE PUSH1 0x17 PUSH1 0x20 MSTORE PUSH1 0x40 SWAP1 KECCAK256 DUP1 SLOAD DUP3 SWAP2 SWAP1 PUSH2 0xFFFF DUP6 AND SWAP1 DUP2 LT PUSH2 0x15D7 JUMPI PUSH2 0x15D7 PUSH2 0x2963 JUMP JUMPDEST SWAP1 PUSH1 0x0 MSTORE PUSH1 0x20 PUSH1 0x0 KECCAK256 SWAP1 PUSH1 0x10 SWAP2 DUP3 DUP3 DIV ADD SWAP2 SWAP1 MOD PUSH1 0x2 MUL PUSH2 0x100 EXP DUP2 SLOAD DUP2 PUSH2 0xFFFF MUL NOT AND SWAP1 DUP4 PUSH2 0xFFFF AND MUL OR SWAP1 SSTORE POP POP POP POP JUMP JUMPDEST PUSH1 0x0 DUP2 DUP2 MSTORE PUSH1 0x19 PUSH1 0x20 SWAP1 DUP2 MSTORE PUSH1 0x40 SWAP2 DUP3 SWAP1 KECCAK256 DUP1 SLOAD DUP4 MLOAD DUP2 DUP5 MUL DUP2 ADD DUP5 ADD SWAP1 SWAP5 MSTORE DUP1 DUP5 MSTORE PUSH1 0x60 SWAP4 SWAP3 DUP4 ADD DUP3 DUP3 DUP1 ISZERO PUSH2 0xFE3 JUMPI PUSH1 0x20 MUL DUP3 ADD SWAP2 SWAP1 PUSH1 0x0 MSTORE PUSH1 0x20 PUSH1 0x0 KECCAK256 SWAP1 DUP2 SLOAD DUP2 MSTORE PUSH1 0x20 ADD SWAP1 PUSH1 0x1 ADD SWAP1 DUP1 DUP4 GT PUSH2 0x1210 JUMPI POP POP POP POP POP SWAP1 POP SWAP2 SWAP1 POP JUMP JUMPDEST PUSH1 0x0 DUP3 DUP2 MSTORE PUSH1 0xB PUSH1 0x20 SWAP1 DUP2 MSTORE PUSH1 0x40 SWAP1 SWAP2 KECCAK256 DUP3 MLOAD PUSH2 0x1017 SWAP3 DUP5 ADD SWAP1 PUSH2 0x1EFC JUMP JUMPDEST PUSH1 0x0 DUP2 DUP2 MSTORE PUSH1 0x10 PUSH1 0x20 MSTORE PUSH1 0x40 SWAP1 KECCAK256 DUP1 SLOAD PUSH1 0x60 SWAP2 SWAP1 PUSH2 0x144B SWAP1 PUSH2 0x2979 JUMP JUMPDEST PUSH1 0x0 DUP2 DUP2 MSTORE PUSH1 0x7 PUSH1 0x20 SWAP1 DUP2 MSTORE PUSH1 0x40 SWAP2 DUP3 SWAP1 KECCAK256 DUP1 SLOAD DUP4 MLOAD DUP2 DUP5 MUL DUP2 ADD DUP5 ADD SWAP1 SWAP5 MSTORE DUP1 DUP5 MSTORE PUSH1 0x60 SWAP4 SWAP3 DUP4 ADD DUP3 DUP3 DUP1 ISZERO PUSH2 0xFE3 JUMPI PUSH1 0x20 MUL DUP3 ADD SWAP2 SWAP1 PUSH1 0x0 MSTORE PUSH1 0x20 PUSH1 0x0 KECCAK256 SWAP1 PUSH1 0x0 SWAP1 JUMPDEST DUP3 SLOAD PUSH2 0x100 DUP4 SWAP1 EXP SWAP1 DIV PUSH1 0xFF AND DUP2 MSTORE PUSH1 0x20 PUSH1 0x1 SWAP3 DUP4 ADD DUP2 DUP2 DIV SWAP5 DUP6 ADD SWAP5 SWAP1 SWAP4 SUB SWAP1 SWAP3 MUL SWAP2 ADD DUP1 DUP5 GT PUSH2 0x16EC JUMPI POP SWAP5 SWAP8 SWAP7 POP POP POP POP POP POP POP JUMP JUMPDEST PUSH1 0x0 DUP3 DUP2 MSTORE PUSH1 0x9 PUSH1 0x20 SWAP1 DUP2 MSTORE PUSH1 0x40 SWAP1 SWAP2 KECCAK256 DUP3 MLOAD PUSH2 0x1017 SWAP3 DUP5 ADD SWAP1 PUSH2 0x1DFF JUMP JUMPDEST PUSH1 0x0 DUP1 JUMPDEST PUSH1 0x1 SLOAD PUSH2 0xFFFF DUP3 AND LT ISZERO PUSH2 0x17A3 JUMPI PUSH1 0x1 DUP2 PUSH2 0xFFFF AND DUP2 SLOAD DUP2 LT PUSH2 0x176D JUMPI PUSH2 0x176D PUSH2 0x2963 JUMP JUMPDEST PUSH1 0x0 SWAP2 DUP3 MSTORE PUSH1 0x20 SWAP1 SWAP2 KECCAK256 ADD SLOAD PUSH1 0x1 PUSH1 0x1 PUSH1 0xA0 SHL SUB AND CALLER SUB PUSH2 0x1791 JUMPI PUSH1 0x1 SWAP2 POP PUSH2 0x17A3 JUMP JUMPDEST DUP1 PUSH2 0x179B DUP2 PUSH2 0x2AC1 JUMP JUMPDEST SWAP2 POP POP PUSH2 0x1748 JUMP JUMPDEST POP DUP1 PUSH2 0x17AE JUMPI PUSH1 0x0 DUP1 REVERT JUMPDEST PUSH1 0x0 SLOAD PUSH1 0x1 PUSH1 0x1 PUSH1 0xA0 SHL SUB AND CALLER EQ PUSH2 0x17C5 JUMPI PUSH1 0x0 DUP1 REVERT JUMPDEST POP PUSH1 0x0 DUP1 SLOAD PUSH1 0x1 PUSH1 0x1 PUSH1 0xA0 SHL SUB NOT AND PUSH1 0x1 PUSH1 0x1 PUSH1 0xA0 SHL SUB SWAP3 SWAP1 SWAP3 AND SWAP2 SWAP1 SWAP2 OR SWAP1 SSTORE JUMP JUMPDEST PUSH1 0x0 DUP1 JUMPDEST PUSH1 0x1 SLOAD PUSH2 0xFFFF DUP3 AND LT ISZERO PUSH2 0x1847 JUMPI PUSH1 0x1 DUP2 PUSH2 0xFFFF AND DUP2 SLOAD DUP2 LT PUSH2 0x1811 JUMPI PUSH2 0x1811 PUSH2 0x2963 JUMP JUMPDEST PUSH1 0x0 SWAP2 DUP3 MSTORE PUSH1 0x20 SWAP1 SWAP2 KECCAK256 ADD SLOAD PUSH1 0x1 PUSH1 0x1 PUSH1 0xA0 SHL SUB AND CALLER SUB PUSH2 0x1835 JUMPI PUSH1 0x1 SWAP2 POP PUSH2 0x1847 JUMP JUMPDEST DUP1 PUSH2 0x183F DUP2 PUSH2 0x2AC1 JUMP JUMPDEST SWAP2 POP POP PUSH2 0x17EC JUMP JUMPDEST POP DUP1 PUSH2 0x1852 JUMPI PUSH1 0x0 DUP1 REVERT JUMPDEST PUSH1 0x0 SLOAD PUSH1 0x1 PUSH1 0x1 PUSH1 0xA0 SHL SUB AND CALLER EQ PUSH2 0x1869 JUMPI PUSH1 0x0 DUP1 REVERT JUMPDEST PUSH1 0x0 JUMPDEST PUSH1 0x1 SLOAD PUSH2 0xFFFF DUP3 AND LT ISZERO PUSH2 0x1017 JUMPI DUP3 PUSH1 0x1 PUSH1 0x1 PUSH1 0xA0 SHL SUB AND PUSH1 0x1 DUP3 PUSH2 0xFFFF AND DUP2 SLOAD DUP2 LT PUSH2 0x189B JUMPI PUSH2 0x189B PUSH2 0x2963 JUMP JUMPDEST PUSH1 0x0 SWAP2 DUP3 MSTORE PUSH1 0x20 SWAP1 SWAP2 KECCAK256 ADD SLOAD PUSH1 0x1 PUSH1 0x1 PUSH1 0xA0 SHL SUB AND SUB PUSH2 0x18CE JUMPI PUSH1 0x0 PUSH1 0x1 DUP3 PUSH2 0xFFFF AND DUP2 SLOAD DUP2 LT PUSH2 0x1256 JUMPI PUSH2 0x1256 PUSH2 0x2963 JUMP JUMPDEST DUP1 PUSH2 0x18D8 DUP2 PUSH2 0x2AC1 JUMP JUMPDEST SWAP2 POP POP PUSH2 0x186C JUMP JUMPDEST PUSH1 0x0 DUP3 DUP2 MSTORE PUSH1 0xD PUSH1 0x20 SWAP1 DUP2 MSTORE PUSH1 0x40 SWAP1 SWAP2 KECCAK256 DUP3 MLOAD PUSH2 0x1017 SWAP3 DUP5 ADD SWAP1 PUSH2 0x1EFC JUMP JUMPDEST PUSH1 0x0 DUP4 DUP2 MSTORE PUSH1 0x19 PUSH1 0x20 MSTORE PUSH1 0x40 SWAP1 KECCAK256 DUP1 SLOAD DUP3 SWAP2 SWAP1 PUSH2 0xFFFF DUP6 AND SWAP1 DUP2 LT PUSH2 0xF2F JUMPI PUSH2 0xF2F PUSH2 0x2963 JUMP JUMPDEST PUSH1 0x0 DUP4 DUP2 MSTORE PUSH1 0x9 PUSH1 0x20 MSTORE PUSH1 0x40 SWAP1 KECCAK256 DUP1 SLOAD DUP3 SWAP2 SWAP1 PUSH2 0xFFFF DUP6 AND SWAP1 DUP2 LT PUSH2 0x15D7 JUMPI PUSH2 0x15D7 PUSH2 0x2963 JUMP JUMPDEST PUSH1 0x0 DUP3 DUP2 MSTORE PUSH1 0x10 PUSH1 0x20 MSTORE PUSH1 0x40 SWAP1 KECCAK256 PUSH2 0x1017 DUP3 DUP3 PUSH2 0x2A01 JUMP JUMPDEST PUSH1 0x0 DUP2 DUP2 MSTORE PUSH1 0xB PUSH1 0x20 SWAP1 DUP2 MSTORE PUSH1 0x40 SWAP2 DUP3 SWAP1 KECCAK256 DUP1 SLOAD DUP4 MLOAD DUP2 DUP5 MUL DUP2 ADD DUP5 ADD SWAP1 SWAP5 MSTORE DUP1 DUP5 MSTORE PUSH1 0x60 SWAP4 SWAP3 DUP4 ADD DUP3 DUP3 DUP1 ISZERO PUSH2 0xFE3 JUMPI PUSH1 0x20 MUL DUP3 ADD SWAP2 SWAP1 PUSH1 0x0 MSTORE PUSH1 0x20 PUSH1 0x0 KECCAK256 SWAP1 DUP2 SLOAD DUP2 MSTORE PUSH1 0x20 ADD SWAP1 PUSH1 0x1 ADD SWAP1 DUP1 DUP4 GT PUSH2 0x1210 JUMPI POP POP POP POP POP SWAP1 POP SWAP2 SWAP1 POP JUMP JUMPDEST PUSH1 0x0 DUP3 DUP2 MSTORE PUSH1 0x7 PUSH1 0x20 SWAP1 DUP2 MSTORE PUSH1 0x40 SWAP1 SWAP2 KECCAK256 DUP3 MLOAD PUSH2 0x1017 SWAP3 DUP5 ADD SWAP1 PUSH2 0x1D5D JUMP JUMPDEST PUSH1 0x60 PUSH1 0x1 DUP1 SLOAD DUP1 PUSH1 0x20 MUL PUSH1 0x20 ADD PUSH1 0x40 MLOAD SWAP1 DUP2 ADD PUSH1 0x40 MSTORE DUP1 SWAP3 SWAP2 SWAP1 DUP2 DUP2 MSTORE PUSH1 0x20 ADD DUP3 DUP1 SLOAD DUP1 ISZERO PUSH2 0x1A3C JUMPI PUSH1 0x20 MUL DUP3 ADD SWAP2 SWAP1 PUSH1 0x0 MSTORE PUSH1 0x20 PUSH1 0x0 KECCAK256 SWAP1 JUMPDEST DUP2 SLOAD PUSH1 0x1 PUSH1 0x1 PUSH1 0xA0 SHL SUB AND DUP2 MSTORE PUSH1 0x1 SWAP1 SWAP2 ADD SWAP1 PUSH1 0x20 ADD DUP1 DUP4 GT PUSH2 0x1A1E JUMPI JUMPDEST POP POP POP POP POP SWAP1 POP SWAP1 JUMP JUMPDEST PUSH1 0x0 DUP3 DUP2 MSTORE PUSH1 0x13 PUSH1 0x20 SWAP1 DUP2 MSTORE PUSH1 0x40 SWAP1 SWAP2 KECCAK256 DUP3 MLOAD PUSH2 0x1017 SWAP3 DUP5 ADD SWAP1 PUSH2 0x1F37 JUMP JUMPDEST PUSH1 0x0 DUP2 DUP2 MSTORE PUSH1 0x15 PUSH1 0x20 SWAP1 DUP2 MSTORE PUSH1 0x40 SWAP2 DUP3 SWAP1 KECCAK256 DUP1 SLOAD DUP4 MLOAD DUP2 DUP5 MUL DUP2 ADD DUP5 ADD SWAP1 SWAP5 MSTORE DUP1 DUP5 MSTORE PUSH1 0x60 SWAP4 SWAP3 DUP4 ADD DUP3 DUP3 DUP1 ISZERO PUSH2 0xFE3 JUMPI PUSH1 0x0 SWAP2 DUP3 MSTORE PUSH1 0x20 SWAP2 DUP3 SWAP1 KECCAK256 DUP1 SLOAD PUSH1 0xFF AND DUP5 MSTORE SWAP1 DUP3 MUL DUP4 ADD SWAP3 SWAP1 SWAP2 PUSH1 0x1 SWAP2 ADD DUP1 DUP5 GT PUSH2 0x16EC JUMPI POP SWAP5 SWAP8 SWAP7 POP POP POP POP POP POP POP JUMP JUMPDEST PUSH1 0x60 PUSH1 0x11 PUSH1 0x0 DUP4 DUP2 MSTORE PUSH1 0x20 ADD SWAP1 DUP2 MSTORE PUSH1 0x20 ADD PUSH1 0x0 KECCAK256 DUP1 SLOAD DUP1 PUSH1 0x20 MUL PUSH1 0x20 ADD PUSH1 0x40 MLOAD SWAP1 DUP2 ADD PUSH1 0x40 MSTORE DUP1 SWAP3 SWAP2 SWAP1 DUP2 DUP2 MSTORE PUSH1 0x20 ADD PUSH1 0x0 SWAP1 JUMPDEST DUP3 DUP3 LT ISZERO PUSH2 0x10FD JUMPI DUP4 DUP3 SWAP1 PUSH1 0x0 MSTORE PUSH1 0x20 PUSH1 0x0 KECCAK256 ADD DUP1 SLOAD PUSH2 0x1B1C SWAP1 PUSH2 0x2979 JUMP JUMPDEST DUP1 PUSH1 0x1F ADD PUSH1 0x20 DUP1 SWAP2 DIV MUL PUSH1 0x20 ADD PUSH1 0x40 MLOAD SWAP1 DUP2 ADD PUSH1 0x40 MSTORE DUP1 SWAP3 SWAP2 SWAP1 DUP2 DUP2 MSTORE PUSH1 0x20 ADD DUP3 DUP1 SLOAD PUSH2 0x1B48 SWAP1 PUSH2 0x2979 JUMP JUMPDEST DUP1 ISZERO PUSH2 0x1B95 JUMPI DUP1 PUSH1 0x1F LT PUSH2 0x1B6A JUMPI PUSH2 0x100 DUP1 DUP4 SLOAD DIV MUL DUP4 MSTORE SWAP2 PUSH1 0x20 ADD SWAP2 PUSH2 0x1B95 JUMP JUMPDEST DUP3 ADD SWAP2 SWAP1 PUSH1 0x0 MSTORE PUSH1 0x20 PUSH1 0x0 KECCAK256 SWAP1 JUMPDEST DUP2 SLOAD DUP2 MSTORE SWAP1 PUSH1 0x1 ADD SWAP1 PUSH1 0x20 ADD DUP1 DUP4 GT PUSH2 0x1B78 JUMPI DUP3 SWAP1 SUB PUSH1 0x1F AND DUP3 ADD SWAP2 JUMPDEST POP POP POP POP POP DUP2 MSTORE PUSH1 0x20 ADD SWAP1 PUSH1 0x1 ADD SWAP1 PUSH2 0x1AFD JUMP JUMPDEST PUSH1 0x0 DUP2 DUP2 MSTORE PUSH1 0x9 PUSH1 0x20 SWAP1 DUP2 MSTORE PUSH1 0x40 SWAP2 DUP3 SWAP1 KECCAK256 DUP1 SLOAD DUP4 MLOAD DUP2 DUP5 MUL DUP2 ADD DUP5 ADD SWAP1 SWAP5 MSTORE DUP1 DUP5 MSTORE PUSH1 0x60 SWAP4 SWAP3 DUP4 ADD DUP3 DUP3 DUP1 ISZERO PUSH2 0xFE3 JUMPI PUSH1 0x0 SWAP2 DUP3 MSTORE PUSH1 0x20 SWAP2 DUP3 SWAP1 KECCAK256 DUP1 SLOAD PUSH2 0xFFFF AND DUP5 MSTORE SWAP1 DUP3 MUL DUP4 ADD SWAP3 SWAP1 SWAP2 PUSH1 0x2 SWAP2 ADD DUP1 DUP5 GT PUSH2 0x116C JUMPI POP SWAP5 SWAP8 SWAP7 POP POP POP POP POP POP POP JUMP JUMPDEST PUSH1 0x0 DUP4 DUP2 MSTORE PUSH1 0x7 PUSH1 0x20 MSTORE PUSH1 0x40 SWAP1 KECCAK256 DUP1 SLOAD DUP3 SWAP2 SWAP1 PUSH2 0xFFFF DUP6 AND SWAP1 DUP2 LT PUSH2 0xED9 JUMPI PUSH2 0xED9 PUSH2 0x2963 JUMP JUMPDEST PUSH1 0x0 DUP1 JUMPDEST PUSH1 0x1 SLOAD PUSH2 0xFFFF DUP3 AND LT ISZERO PUSH2 0x1C93 JUMPI PUSH1 0x1 DUP2 PUSH2 0xFFFF AND DUP2 SLOAD DUP2 LT PUSH2 0x1C5D JUMPI PUSH2 0x1C5D PUSH2 0x2963 JUMP JUMPDEST PUSH1 0x0 SWAP2 DUP3 MSTORE PUSH1 0x20 SWAP1 SWAP2 KECCAK256 ADD SLOAD PUSH1 0x1 PUSH1 0x1 PUSH1 0xA0 SHL SUB AND CALLER SUB PUSH2 0x1C81 JUMPI PUSH1 0x1 SWAP2 POP PUSH2 0x1C93 JUMP JUMPDEST DUP1 PUSH2 0x1C8B DUP2 PUSH2 0x2AC1 JUMP JUMPDEST SWAP2 POP POP PUSH2 0x1C38 JUMP JUMPDEST POP DUP1 PUSH2 0x1C9E JUMPI PUSH1 0x0 DUP1 REVERT JUMPDEST PUSH1 0x0 SLOAD PUSH1 0x1 PUSH1 0x1 PUSH1 0xA0 SHL SUB AND CALLER EQ PUSH2 0x1CB5 JUMPI PUSH1 0x0 DUP1 REVERT JUMPDEST POP PUSH1 0x1 DUP1 SLOAD DUP1 DUP3 ADD DUP3 SSTORE PUSH1 0x0 SWAP2 SWAP1 SWAP2 MSTORE PUSH32 0xB10E2D527612073B26EECDFD717E6A320CF44B4AFAC2B0732D9FCBE2B7FA0CF6 ADD DUP1 SLOAD PUSH1 0x1 PUSH1 0x1 PUSH1 0xA0 SHL SUB NOT AND PUSH1 0x1 PUSH1 0x1 PUSH1 0xA0 SHL SUB SWAP3 SWAP1 SWAP3 AND SWAP2 SWAP1 SWAP2 OR SWAP1 SSTORE JUMP JUMPDEST DUP3 DUP1 SLOAD DUP3 DUP3 SSTORE SWAP1 PUSH1 0x0 MSTORE PUSH1 0x20 PUSH1 0x0 KECCAK256 SWAP1 DUP2 ADD SWAP3 DUP3 ISZERO PUSH2 0x1D4D JUMPI SWAP2 PUSH1 0x20 MUL DUP3 ADD JUMPDEST DUP3 DUP2 GT ISZERO PUSH2 0x1D4D JUMPI DUP3 MLOAD DUP3 SWAP1 PUSH2 0x1D3D SWAP1 DUP3 PUSH2 0x2A01 JUMP JUMPDEST POP SWAP2 PUSH1 0x20 ADD SWAP2 SWAP1 PUSH1 0x1 ADD SWAP1 PUSH2 0x1D27 JUMP JUMPDEST POP PUSH2 0x1D59 SWAP3 SWAP2 POP PUSH2 0x1F8C JUMP JUMPDEST POP SWAP1 JUMP JUMPDEST DUP3 DUP1 SLOAD DUP3 DUP3 SSTORE SWAP1 PUSH1 0x0 MSTORE PUSH1 0x20 PUSH1 0x0 KECCAK256 SWAP1 PUSH1 0x1F ADD PUSH1 0x20 SWAP1 DIV DUP2 ADD SWAP3 DUP3 ISZERO PUSH2 0x1DF3 JUMPI SWAP2 PUSH1 0x20 MUL DUP3 ADD PUSH1 0x0 JUMPDEST DUP4 DUP3 GT ISZERO PUSH2 0x1DC4 JUMPI DUP4 MLOAD DUP4 DUP3 PUSH2 0x100 EXP DUP2 SLOAD DUP2 PUSH1 0xFF MUL NOT AND SWAP1 DUP4 PUSH1 0xFF AND MUL OR SWAP1 SSTORE POP SWAP3 PUSH1 0x20 ADD SWAP3 PUSH1 0x1 ADD PUSH1 0x20 DUP2 PUSH1 0x0 ADD DIV SWAP3 DUP4 ADD SWAP3 PUSH1 0x1 SUB MUL PUSH2 0x1D86 JUMP JUMPDEST DUP1 ISZERO PUSH2 0x1DF1 JUMPI DUP3 DUP2 PUSH2 0x100 EXP DUP2 SLOAD SWAP1 PUSH1 0xFF MUL NOT AND SWAP1 SSTORE PUSH1 0x1 ADD PUSH1 0x20 DUP2 PUSH1 0x0 ADD DIV SWAP3 DUP4 ADD SWAP3 PUSH1 0x1 SUB MUL PUSH2 0x1DC4 JUMP JUMPDEST POP JUMPDEST POP PUSH2 0x1D59 SWAP3 SWAP2 POP PUSH2 0x1FA9 JUMP JUMPDEST DUP3 DUP1 SLOAD DUP3 DUP3 SSTORE SWAP1 PUSH1 0x0 MSTORE PUSH1 0x20 PUSH1 0x0 KECCAK256 SWAP1 PUSH1 0xF ADD PUSH1 0x10 SWAP1 DIV DUP2 ADD SWAP3 DUP3 ISZERO PUSH2 0x1DF3 JUMPI SWAP2 PUSH1 0x20 MUL DUP3 ADD PUSH1 0x0 JUMPDEST DUP4 DUP3 GT ISZERO PUSH2 0x1E68 JUMPI DUP4 MLOAD DUP4 DUP3 PUSH2 0x100 EXP DUP2 SLOAD DUP2 PUSH2 0xFFFF MUL NOT AND SWAP1 DUP4 PUSH2 0xFFFF AND MUL OR SWAP1 SSTORE POP SWAP3 PUSH1 0x20 ADD SWAP3 PUSH1 0x2 ADD PUSH1 0x20 DUP2 PUSH1 0x1 ADD DIV SWAP3 DUP4 ADD SWAP3 PUSH1 0x1 SUB MUL PUSH2 0x1E28 JUMP JUMPDEST DUP1 ISZERO PUSH2 0x1DF1 JUMPI DUP3 DUP2 PUSH2 0x100 EXP DUP2 SLOAD SWAP1 PUSH2 0xFFFF MUL NOT AND SWAP1 SSTORE PUSH1 0x2 ADD PUSH1 0x20 DUP2 PUSH1 0x1 ADD DIV SWAP3 DUP4 ADD SWAP3 PUSH1 0x1 SUB MUL PUSH2 0x1E68 JUMP JUMPDEST DUP3 DUP1 SLOAD DUP3 DUP3 SSTORE SWAP1 PUSH1 0x0 MSTORE PUSH1 0x20 PUSH1 0x0 KECCAK256 SWAP1 PUSH1 0x1F ADD PUSH1 0x20 SWAP1 DIV DUP2 ADD SWAP3 DUP3 ISZERO PUSH2 0x1DF3 JUMPI SWAP2 PUSH1 0x20 MUL DUP3 ADD PUSH1 0x0 JUMPDEST DUP4 DUP3 GT ISZERO PUSH2 0x1DC4 JUMPI DUP4 MLOAD DUP4 DUP3 PUSH2 0x100 EXP DUP2 SLOAD DUP2 PUSH1 0xFF MUL NOT AND SWAP1 DUP4 ISZERO ISZERO MUL OR SWAP1 SSTORE POP SWAP3 PUSH1 0x20 ADD SWAP3 PUSH1 0x1 ADD PUSH1 0x20 DUP2 PUSH1 0x0 ADD DIV SWAP3 DUP4 ADD SWAP3 PUSH1 0x1 SUB MUL PUSH2 0x1EBF JUMP JUMPDEST DUP3 DUP1 SLOAD DUP3 DUP3 SSTORE SWAP1 PUSH1 0x0 MSTORE PUSH1 0x20 PUSH1 0x0 KECCAK256 SWAP1 DUP2 ADD SWAP3 DUP3 ISZERO PUSH2 0x1DF3 JUMPI SWAP2 PUSH1 0x20 MUL DUP3 ADD JUMPDEST DUP3 DUP2 GT ISZERO PUSH2 0x1DF3 JUMPI DUP3 MLOAD DUP3 SSTORE SWAP2 PUSH1 0x20 ADD SWAP2 SWAP1 PUSH1 0x1 ADD SWAP1 PUSH2 0x1F1C JUMP JUMPDEST DUP3 DUP1 SLOAD DUP3 DUP3 SSTORE SWAP1 PUSH1 0x0 MSTORE PUSH1 0x20 PUSH1 0x0 KECCAK256 SWAP1 DUP2 ADD SWAP3 DUP3 ISZERO PUSH2 0x1DF3 JUMPI SWAP2 PUSH1 0x20 MUL DUP3 ADD JUMPDEST DUP3 DUP2 GT ISZERO PUSH2 0x1DF3 JUMPI DUP3 MLOAD DUP3 SLOAD PUSH1 0x1 PUSH1 0x1 PUSH1 0xA0 SHL SUB NOT AND PUSH1 0x1 PUSH1 0x1 PUSH1 0xA0 SHL SUB SWAP1 SWAP2 AND OR DUP3 SSTORE PUSH1 0x20 SWAP1 SWAP3 ADD SWAP2 PUSH1 0x1 SWAP1 SWAP2 ADD SWAP1 PUSH2 0x1F57 JUMP JUMPDEST DUP1 DUP3 GT ISZERO PUSH2 0x1D59 JUMPI PUSH1 0x0 PUSH2 0x1FA0 DUP3 DUP3 PUSH2 0x1FBE JUMP JUMPDEST POP PUSH1 0x1 ADD PUSH2 0x1F8C JUMP JUMPDEST JUMPDEST DUP1 DUP3 GT ISZERO PUSH2 0x1D59 JUMPI PUSH1 0x0 DUP2 SSTORE PUSH1 0x1 ADD PUSH2 0x1FAA JUMP JUMPDEST POP DUP1 SLOAD PUSH2 0x1FCA SWAP1 PUSH2 0x2979 JUMP JUMPDEST PUSH1 0x0 DUP3 SSTORE DUP1 PUSH1 0x1F LT PUSH2 0x1FDA JUMPI POP POP JUMP JUMPDEST PUSH1 0x1F ADD PUSH1 0x20 SWAP1 DIV SWAP1 PUSH1 0x0 MSTORE PUSH1 0x20 PUSH1 0x0 KECCAK256 SWAP1 DUP2 ADD SWAP1 PUSH2 0x1FF8 SWAP2 SWAP1 PUSH2 0x1FA9 JUMP JUMPDEST POP JUMP JUMPDEST DUP1 CALLDATALOAD PUSH2 0xFFFF DUP2 AND DUP2 EQ PUSH2 0x200D JUMPI PUSH1 0x0 DUP1 REVERT JUMPDEST SWAP2 SWAP1 POP JUMP JUMPDEST DUP1 CALLDATALOAD PUSH1 0xFF DUP2 AND DUP2 EQ PUSH2 0x200D JUMPI PUSH1 0x0 DUP1 REVERT JUMPDEST PUSH1 0x0 DUP1 PUSH1 0x0 PUSH1 0x60 DUP5 DUP7 SUB SLT ISZERO PUSH2 0x2038 JUMPI PUSH1 0x0 DUP1 REVERT JUMPDEST DUP4 CALLDATALOAD SWAP3 POP PUSH2 0x2048 PUSH1 0x20 DUP6 ADD PUSH2 0x1FFB JUMP JUMPDEST SWAP2 POP PUSH2 0x2056 PUSH1 0x40 DUP6 ADD PUSH2 0x2012 JUMP JUMPDEST SWAP1 POP SWAP3 POP SWAP3 POP SWAP3 JUMP JUMPDEST PUSH1 0x0 DUP1 PUSH1 0x40 DUP4 DUP6 SUB SLT ISZERO PUSH2 0x2072 JUMPI PUSH1 0x0 DUP1 REVERT JUMPDEST POP POP DUP1 CALLDATALOAD SWAP3 PUSH1 0x20 SWAP1 SWAP2 ADD CALLDATALOAD SWAP2 POP JUMP JUMPDEST PUSH1 0x0 DUP1 PUSH1 0x0 PUSH1 0x60 DUP5 DUP7 SUB SLT ISZERO PUSH2 0x2096 JUMPI PUSH1 0x0 DUP1 REVERT JUMPDEST DUP4 CALLDATALOAD SWAP3 POP PUSH2 0x20A6 PUSH1 0x20 DUP6 ADD PUSH2 0x1FFB JUMP JUMPDEST SWAP2 POP PUSH1 0x40 DUP5 ADD CALLDATALOAD SWAP1 POP SWAP3 POP SWAP3 POP SWAP3 JUMP JUMPDEST PUSH4 0x4E487B71 PUSH1 0xE0 SHL PUSH1 0x0 MSTORE PUSH1 0x41 PUSH1 0x4 MSTORE PUSH1 0x24 PUSH1 0x0 REVERT JUMPDEST PUSH1 0x40 MLOAD PUSH1 0x1F DUP3 ADD PUSH1 0x1F NOT AND DUP2 ADD PUSH8 0xFFFFFFFFFFFFFFFF DUP2 GT DUP3 DUP3 LT OR ISZERO PUSH2 0x20F5 JUMPI PUSH2 0x20F5 PUSH2 0x20B6 JUMP JUMPDEST PUSH1 0x40 MSTORE SWAP2 SWAP1 POP JUMP JUMPDEST PUSH1 0x0 DUP3 PUSH1 0x1F DUP4 ADD SLT PUSH2 0x210E JUMPI PUSH1 0x0 DUP1 REVERT JUMPDEST DUP2 CALLDATALOAD PUSH8 0xFFFFFFFFFFFFFFFF DUP2 GT ISZERO PUSH2 0x2128 JUMPI PUSH2 0x2128 PUSH2 0x20B6 JUMP JUMPDEST PUSH2 0x213B PUSH1 0x1F DUP3 ADD PUSH1 0x1F NOT AND PUSH1 0x20 ADD PUSH2 0x20CC JUMP JUMPDEST DUP2 DUP2 MSTORE DUP5 PUSH1 0x20 DUP4 DUP7 ADD ADD GT ISZERO PUSH2 0x2150 JUMPI PUSH1 0x0 DUP1 REVERT JUMPDEST DUP2 PUSH1 0x20 DUP6 ADD PUSH1 0x20 DUP4 ADD CALLDATACOPY PUSH1 0x0 SWAP2 DUP2 ADD PUSH1 0x20 ADD SWAP2 SWAP1 SWAP2 MSTORE SWAP4 SWAP3 POP POP POP JUMP JUMPDEST PUSH1 0x0 DUP1 PUSH1 0x0 PUSH1 0x60 DUP5 DUP7 SUB SLT ISZERO PUSH2 0x2182 JUMPI PUSH1 0x0 DUP1 REVERT JUMPDEST DUP4 CALLDATALOAD SWAP3 POP PUSH2 0x2192 PUSH1 0x20 DUP6 ADD PUSH2 0x1FFB JUMP JUMPDEST SWAP2 POP PUSH1 0x40 DUP5 ADD CALLDATALOAD PUSH8 0xFFFFFFFFFFFFFFFF DUP2 GT ISZERO PUSH2 0x21AE JUMPI PUSH1 0x0 DUP1 REVERT JUMPDEST PUSH2 0x21BA DUP7 DUP3 DUP8 ADD PUSH2 0x20FD JUMP JUMPDEST SWAP2 POP POP SWAP3 POP SWAP3 POP SWAP3 JUMP JUMPDEST PUSH1 0x0 PUSH1 0x20 DUP3 DUP5 SUB SLT ISZERO PUSH2 0x21D6 JUMPI PUSH1 0x0 DUP1 REVERT JUMPDEST POP CALLDATALOAD SWAP2 SWAP1 POP JUMP JUMPDEST PUSH1 0x20 DUP1 DUP3 MSTORE DUP3 MLOAD DUP3 DUP3 ADD DUP2 SWAP1 MSTORE PUSH1 0x0 SWAP2 SWAP1 DUP5 DUP3 ADD SWAP1 PUSH1 0x40 DUP6 ADD SWAP1 DUP5 JUMPDEST DUP2 DUP2 LT ISZERO PUSH2 0x221E JUMPI DUP4 MLOAD PUSH1 0x1 PUSH1 0x1 PUSH1 0xA0 SHL SUB AND DUP4 MSTORE SWAP3 DUP5 ADD SWAP3 SWAP2 DUP5 ADD SWAP2 PUSH1 0x1 ADD PUSH2 0x21F9 JUMP JUMPDEST POP SWAP1 SWAP7 SWAP6 POP POP POP POP POP POP JUMP JUMPDEST PUSH1 0x0 DUP1 PUSH1 0x40 DUP4 DUP6 SUB SLT ISZERO PUSH2 0x223D JUMPI PUSH1 0x0 DUP1 REVERT JUMPDEST DUP3 CALLDATALOAD SWAP2 POP PUSH2 0x224D PUSH1 0x20 DUP5 ADD PUSH2 0x1FFB JUMP JUMPDEST SWAP1 POP SWAP3 POP SWAP3 SWAP1 POP JUMP JUMPDEST PUSH1 0x0 DUP1 PUSH1 0x40 DUP4 DUP6 SUB SLT ISZERO PUSH2 0x2269 JUMPI PUSH1 0x0 DUP1 REVERT JUMPDEST DUP3 CALLDATALOAD SWAP2 POP PUSH1 0x20 DUP4 ADD CALLDATALOAD PUSH8 0xFFFFFFFFFFFFFFFF DUP2 GT ISZERO PUSH2 0x2287 JUMPI PUSH1 0x0 DUP1 REVERT JUMPDEST PUSH2 0x2293 DUP6 DUP3 DUP7 ADD PUSH2 0x20FD JUMP JUMPDEST SWAP2 POP POP SWAP3 POP SWAP3 SWAP1 POP JUMP JUMPDEST PUSH1 0x0 DUP2 MLOAD DUP1 DUP5 MSTORE PUSH1 0x0 JUMPDEST DUP2 DUP2 LT ISZERO PUSH2 0x22C3 JUMPI PUSH1 0x20 DUP2 DUP6 ADD DUP2 ADD MLOAD DUP7 DUP4 ADD DUP3 ADD MSTORE ADD PUSH2 0x22A7 JUMP JUMPDEST POP PUSH1 0x0 PUSH1 0x20 DUP3 DUP7 ADD ADD MSTORE PUSH1 0x20 PUSH1 0x1F NOT PUSH1 0x1F DUP4 ADD AND DUP6 ADD ADD SWAP2 POP POP SWAP3 SWAP2 POP POP JUMP JUMPDEST PUSH1 0x0 PUSH1 0x20 DUP1 DUP4 ADD DUP2 DUP5 MSTORE DUP1 DUP6 MLOAD DUP1 DUP4 MSTORE PUSH1 0x40 DUP7 ADD SWAP2 POP PUSH1 0x40 DUP2 PUSH1 0x5 SHL DUP8 ADD ADD SWAP3 POP DUP4 DUP8 ADD PUSH1 0x0 JUMPDEST DUP3 DUP2 LT ISZERO PUSH2 0x2338 JUMPI PUSH1 0x3F NOT DUP9 DUP7 SUB ADD DUP5 MSTORE PUSH2 0x2326 DUP6 DUP4 MLOAD PUSH2 0x229D JUMP JUMPDEST SWAP5 POP SWAP3 DUP6 ADD SWAP3 SWAP1 DUP6 ADD SWAP1 PUSH1 0x1 ADD PUSH2 0x230A JUMP JUMPDEST POP SWAP3 SWAP8 SWAP7 POP POP POP POP POP POP POP JUMP JUMPDEST PUSH1 0x0 PUSH8 0xFFFFFFFFFFFFFFFF DUP3 GT ISZERO PUSH2 0x235F JUMPI PUSH2 0x235F PUSH2 0x20B6 JUMP JUMPDEST POP PUSH1 0x5 SHL PUSH1 0x20 ADD SWAP1 JUMP JUMPDEST PUSH1 0x0 DUP1 PUSH1 0x40 DUP4 DUP6 SUB SLT ISZERO PUSH2 0x237C JUMPI PUSH1 0x0 DUP1 REVERT JUMPDEST DUP3 CALLDATALOAD SWAP2 POP PUSH1 0x20 DUP1 DUP5 ADD CALLDATALOAD PUSH8 0xFFFFFFFFFFFFFFFF DUP1 DUP3 GT ISZERO PUSH2 0x239C JUMPI PUSH1 0x0 DUP1 REVERT JUMPDEST DUP2 DUP7 ADD SWAP2 POP DUP7 PUSH1 0x1F DUP4 ADD SLT PUSH2 0x23B0 JUMPI PUSH1 0x0 DUP1 REVERT JUMPDEST DUP2 CALLDATALOAD PUSH2 0x23C3 PUSH2 0x23BE DUP3 PUSH2 0x2345 JUMP JUMPDEST PUSH2 0x20CC JUMP JUMPDEST DUP2 DUP2 MSTORE PUSH1 0x5 SWAP2 SWAP1 SWAP2 SHL DUP4 ADD DUP5 ADD SWAP1 DUP5 DUP2 ADD SWAP1 DUP10 DUP4 GT ISZERO PUSH2 0x23E2 JUMPI PUSH1 0x0 DUP1 REVERT JUMPDEST DUP6 DUP6 ADD JUMPDEST DUP4 DUP2 LT ISZERO PUSH2 0x241A JUMPI DUP1 CALLDATALOAD DUP6 DUP2 GT ISZERO PUSH2 0x23FE JUMPI PUSH1 0x0 DUP1 DUP2 REVERT JUMPDEST PUSH2 0x240C DUP13 DUP10 DUP4 DUP11 ADD ADD PUSH2 0x20FD JUMP JUMPDEST DUP5 MSTORE POP SWAP2 DUP7 ADD SWAP2 DUP7 ADD PUSH2 0x23E6 JUMP JUMPDEST POP DUP1 SWAP7 POP POP POP POP POP POP POP SWAP3 POP SWAP3 SWAP1 POP JUMP JUMPDEST PUSH1 0x20 DUP1 DUP3 MSTORE DUP3 MLOAD DUP3 DUP3 ADD DUP2 SWAP1 MSTORE PUSH1 0x0 SWAP2 SWAP1 DUP5 DUP3 ADD SWAP1 PUSH1 0x40 DUP6 ADD SWAP1 DUP5 JUMPDEST DUP2 DUP2 LT ISZERO PUSH2 0x221E JUMPI DUP4 MLOAD PUSH2 0xFFFF AND DUP4 MSTORE SWAP3 DUP5 ADD SWAP3 SWAP2 DUP5 ADD SWAP2 PUSH1 0x1 ADD PUSH2 0x2447 JUMP JUMPDEST PUSH1 0x0 DUP1 PUSH1 0x40 DUP4 DUP6 SUB SLT ISZERO PUSH2 0x247A JUMPI PUSH1 0x0 DUP1 REVERT JUMPDEST DUP3 CALLDATALOAD SWAP2 POP PUSH1 0x20 DUP1 DUP5 ADD CALLDATALOAD PUSH8 0xFFFFFFFFFFFFFFFF DUP2 GT ISZERO PUSH2 0x2499 JUMPI PUSH1 0x0 DUP1 REVERT JUMPDEST DUP5 ADD PUSH1 0x1F DUP2 ADD DUP7 SGT PUSH2 0x24AA JUMPI PUSH1 0x0 DUP1 REVERT JUMPDEST DUP1 CALLDATALOAD PUSH2 0x24B8 PUSH2 0x23BE DUP3 PUSH2 0x2345 JUMP JUMPDEST DUP2 DUP2 MSTORE PUSH1 0x5 SWAP2 SWAP1 SWAP2 SHL DUP3 ADD DUP4 ADD SWAP1 DUP4 DUP2 ADD SWAP1 DUP9 DUP4 GT ISZERO PUSH2 0x24D7 JUMPI PUSH1 0x0 DUP1 REVERT JUMPDEST SWAP3 DUP5 ADD SWAP3 JUMPDEST DUP3 DUP5 LT ISZERO PUSH2 0x24FC JUMPI PUSH2 0x24ED DUP5 PUSH2 0x2012 JUMP JUMPDEST DUP3 MSTORE SWAP3 DUP5 ADD SWAP3 SWAP1 DUP5 ADD SWAP1 PUSH2 0x24DC JUMP JUMPDEST DUP1 SWAP6 POP POP POP POP POP POP SWAP3 POP SWAP3 SWAP1 POP JUMP JUMPDEST PUSH1 0x20 DUP1 DUP3 MSTORE DUP3 MLOAD DUP3 DUP3 ADD DUP2 SWAP1 MSTORE PUSH1 0x0 SWAP2 SWAP1 DUP5 DUP3 ADD SWAP1 PUSH1 0x40 DUP6 ADD SWAP1 DUP5 JUMPDEST DUP2 DUP2 LT ISZERO PUSH2 0x221E JUMPI DUP4 MLOAD DUP4 MSTORE SWAP3 DUP5 ADD SWAP3 SWAP2 DUP5 ADD SWAP2 PUSH1 0x1 ADD PUSH2 0x2527 JUMP JUMPDEST DUP1 CALLDATALOAD DUP1 ISZERO ISZERO DUP2 EQ PUSH2 0x200D JUMPI PUSH1 0x0 DUP1 REVERT JUMPDEST PUSH1 0x0 DUP1 PUSH1 0x40 DUP4 DUP6 SUB SLT ISZERO PUSH2 0x2566 JUMPI PUSH1 0x0 DUP1 REVERT JUMPDEST DUP3 CALLDATALOAD SWAP2 POP PUSH2 0x224D PUSH1 0x20 DUP5 ADD PUSH2 0x2543 JUMP JUMPDEST DUP1 CALLDATALOAD PUSH1 0x1 PUSH1 0x1 PUSH1 0xA0 SHL SUB DUP2 AND DUP2 EQ PUSH2 0x200D JUMPI PUSH1 0x0 DUP1 REVERT JUMPDEST PUSH1 0x0 DUP1 PUSH1 0x0 PUSH1 0x60 DUP5 DUP7 SUB SLT ISZERO PUSH2 0x25A2 JUMPI PUSH1 0x0 DUP1 REVERT JUMPDEST DUP4 CALLDATALOAD SWAP3 POP PUSH2 0x25B2 PUSH1 0x20 DUP6 ADD PUSH2 0x1FFB JUMP JUMPDEST SWAP2 POP PUSH2 0x2056 PUSH1 0x40 DUP6 ADD PUSH2 0x2576 JUMP JUMPDEST PUSH1 0x0 DUP1 PUSH1 0x0 PUSH1 0x60 DUP5 DUP7 SUB SLT ISZERO PUSH2 0x25D5 JUMPI PUSH1 0x0 DUP1 REVERT JUMPDEST DUP4 CALLDATALOAD SWAP3 POP PUSH2 0x25E5 PUSH1 0x20 DUP6 ADD PUSH2 0x1FFB JUMP JUMPDEST SWAP2 POP PUSH2 0x2056 PUSH1 0x40 DUP6 ADD PUSH2 0x2543 JUMP JUMPDEST PUSH1 0x0 DUP1 PUSH1 0x40 DUP4 DUP6 SUB SLT ISZERO PUSH2 0x2606 JUMPI PUSH1 0x0 DUP1 REVERT JUMPDEST DUP3 CALLDATALOAD SWAP2 POP PUSH2 0x224D PUSH1 0x20 DUP5 ADD PUSH2 0x2012 JUMP JUMPDEST PUSH1 0x20 DUP1 DUP3 MSTORE DUP3 MLOAD DUP3 DUP3 ADD DUP2 SWAP1 MSTORE PUSH1 0x0 SWAP2 SWAP1 DUP5 DUP3 ADD SWAP1 PUSH1 0x40 DUP6 ADD SWAP1 DUP5 JUMPDEST DUP2 DUP2 LT ISZERO PUSH2 0x221E JUMPI DUP4 MLOAD ISZERO ISZERO DUP4 MSTORE SWAP3 DUP5 ADD SWAP3 SWAP2 DUP5 ADD SWAP2 PUSH1 0x1 ADD PUSH2 0x2632 JUMP JUMPDEST PUSH1 0x20 DUP2 MSTORE PUSH1 0x0 PUSH2 0x2663 PUSH1 0x20 DUP4 ADD DUP5 PUSH2 0x229D JUMP JUMPDEST SWAP4 SWAP3 POP POP POP JUMP JUMPDEST PUSH1 0x0 DUP1 PUSH1 0x40 DUP4 DUP6 SUB SLT ISZERO PUSH2 0x267D JUMPI PUSH1 0x0 DUP1 REVERT JUMPDEST DUP3 CALLDATALOAD SWAP2 POP PUSH1 0x20 DUP1 DUP5 ADD CALLDATALOAD PUSH8 0xFFFFFFFFFFFFFFFF DUP2 GT ISZERO PUSH2 0x269C JUMPI PUSH1 0x0 DUP1 REVERT JUMPDEST DUP5 ADD PUSH1 0x1F DUP2 ADD DUP7 SGT PUSH2 0x26AD JUMPI PUSH1 0x0 DUP1 REVERT JUMPDEST DUP1 CALLDATALOAD PUSH2 0x26BB PUSH2 0x23BE DUP3 PUSH2 0x2345 JUMP JUMPDEST DUP2 DUP2 MSTORE PUSH1 0x5 SWAP2 SWAP1 SWAP2 SHL DUP3 ADD DUP4 ADD SWAP1 DUP4 DUP2 ADD SWAP1 DUP9 DUP4 GT ISZERO PUSH2 0x26DA JUMPI PUSH1 0x0 DUP1 REVERT JUMPDEST SWAP3 DUP5 ADD SWAP3 JUMPDEST DUP3 DUP5 LT ISZERO PUSH2 0x24FC JUMPI PUSH2 0x26F0 DUP5 PUSH2 0x1FFB JUMP JUMPDEST DUP3 MSTORE SWAP3 DUP5 ADD SWAP3 SWAP1 DUP5 ADD SWAP1 PUSH2 0x26DF JUMP JUMPDEST PUSH1 0x0 DUP1 PUSH1 0x40 DUP4 DUP6 SUB SLT ISZERO PUSH2 0x2712 JUMPI PUSH1 0x0 DUP1 REVERT JUMPDEST DUP3 CALLDATALOAD SWAP2 POP PUSH1 0x20 DUP1 DUP5 ADD CALLDATALOAD PUSH8 0xFFFFFFFFFFFFFFFF DUP2 GT ISZERO PUSH2 0x2731 JUMPI PUSH1 0x0 DUP1 REVERT JUMPDEST DUP5 ADD PUSH1 0x1F DUP2 ADD DUP7 SGT PUSH2 0x2742 JUMPI PUSH1 0x0 DUP1 REVERT JUMPDEST DUP1 CALLDATALOAD PUSH2 0x2750 PUSH2 0x23BE DUP3 PUSH2 0x2345 JUMP JUMPDEST DUP2 DUP2 MSTORE PUSH1 0x5 SWAP2 SWAP1 SWAP2 SHL DUP3 ADD DUP4 ADD SWAP1 DUP4 DUP2 ADD SWAP1 DUP9 DUP4 GT ISZERO PUSH2 0x276F JUMPI PUSH1 0x0 DUP1 REVERT JUMPDEST SWAP3 DUP5 ADD SWAP3 JUMPDEST DUP3 DUP5 LT ISZERO PUSH2 0x24FC JUMPI PUSH2 0x2785 DUP5 PUSH2 0x2543 JUMP JUMPDEST DUP3 MSTORE SWAP3 DUP5 ADD SWAP3 SWAP1 DUP5 ADD SWAP1 PUSH2 0x2774 JUMP JUMPDEST PUSH1 0x0 DUP1 PUSH1 0x40 DUP4 DUP6 SUB SLT ISZERO PUSH2 0x27A7 JUMPI PUSH1 0x0 DUP1 REVERT JUMPDEST DUP3 CALLDATALOAD SWAP2 POP PUSH2 0x224D PUSH1 0x20 DUP5 ADD PUSH2 0x2576 JUMP JUMPDEST PUSH1 0x0 DUP1 PUSH1 0x40 DUP4 DUP6 SUB SLT ISZERO PUSH2 0x27CA JUMPI PUSH1 0x0 DUP1 REVERT JUMPDEST DUP3 CALLDATALOAD SWAP2 POP PUSH1 0x20 DUP1 DUP5 ADD CALLDATALOAD PUSH8 0xFFFFFFFFFFFFFFFF DUP2 GT ISZERO PUSH2 0x27E9 JUMPI PUSH1 0x0 DUP1 REVERT JUMPDEST DUP5 ADD PUSH1 0x1F DUP2 ADD DUP7 SGT PUSH2 0x27FA JUMPI PUSH1 0x0 DUP1 REVERT JUMPDEST DUP1 CALLDATALOAD PUSH2 0x2808 PUSH2 0x23BE DUP3 PUSH2 0x2345 JUMP JUMPDEST DUP2 DUP2 MSTORE PUSH1 0x5 SWAP2 SWAP1 SWAP2 SHL DUP3 ADD DUP4 ADD SWAP1 DUP4 DUP2 ADD SWAP1 DUP9 DUP4 GT ISZERO PUSH2 0x2827 JUMPI PUSH1 0x0 DUP1 REVERT JUMPDEST SWAP3 DUP5 ADD SWAP3 JUMPDEST DUP3 DUP5 LT ISZERO PUSH2 0x24FC JUMPI DUP4 CALLDATALOAD DUP3 MSTORE SWAP3 DUP5 ADD SWAP3 SWAP1 DUP5 ADD SWAP1 PUSH2 0x282C JUMP JUMPDEST PUSH1 0x0 DUP1 PUSH1 0x40 DUP4 DUP6 SUB SLT ISZERO PUSH2 0x2858 JUMPI PUSH1 0x0 DUP1 REVERT JUMPDEST DUP3 CALLDATALOAD SWAP2 POP PUSH1 0x20 DUP1 DUP5 ADD CALLDATALOAD PUSH8 0xFFFFFFFFFFFFFFFF DUP2 GT ISZERO PUSH2 0x2877 JUMPI PUSH1 0x0 DUP1 REVERT JUMPDEST DUP5 ADD PUSH1 0x1F DUP2 ADD DUP7 SGT PUSH2 0x2888 JUMPI PUSH1 0x0 DUP1 REVERT JUMPDEST DUP1 CALLDATALOAD PUSH2 0x2896 PUSH2 0x23BE DUP3 PUSH2 0x2345 JUMP JUMPDEST DUP2 DUP2 MSTORE PUSH1 0x5 SWAP2 SWAP1 SWAP2 SHL DUP3 ADD DUP4 ADD SWAP1 DUP4 DUP2 ADD SWAP1 DUP9 DUP4 GT ISZERO PUSH2 0x28B5 JUMPI PUSH1 0x0 DUP1 REVERT JUMPDEST SWAP3 DUP5 ADD SWAP3 JUMPDEST DUP3 DUP5 LT ISZERO PUSH2 0x24FC JUMPI PUSH2 0x28CB DUP5 PUSH2 0x2576 JUMP JUMPDEST DUP3 MSTORE SWAP3 DUP5 ADD SWAP3 SWAP1 DUP5 ADD SWAP1 PUSH2 0x28BA JUMP JUMPDEST PUSH1 0x0 DUP1 PUSH1 0x0 PUSH1 0x60 DUP5 DUP7 SUB SLT ISZERO PUSH2 0x28EF JUMPI PUSH1 0x0 DUP1 REVERT JUMPDEST DUP4 CALLDATALOAD SWAP3 POP PUSH2 0x28FF PUSH1 0x20 DUP6 ADD PUSH2 0x1FFB JUMP JUMPDEST SWAP2 POP PUSH2 0x2056 PUSH1 0x40 DUP6 ADD PUSH2 0x1FFB JUMP JUMPDEST PUSH1 0x20 DUP1 DUP3 MSTORE DUP3 MLOAD DUP3 DUP3 ADD DUP2 SWAP1 MSTORE PUSH1 0x0 SWAP2 SWAP1 DUP5 DUP3 ADD SWAP1 PUSH1 0x40 DUP6 ADD SWAP1 DUP5 JUMPDEST DUP2 DUP2 LT ISZERO PUSH2 0x221E JUMPI DUP4 MLOAD PUSH1 0xFF AND DUP4 MSTORE SWAP3 DUP5 ADD SWAP3 SWAP2 DUP5 ADD SWAP2 PUSH1 0x1 ADD PUSH2 0x2929 JUMP JUMPDEST PUSH1 0x0 PUSH1 0x20 DUP3 DUP5 SUB SLT ISZERO PUSH2 0x295A JUMPI PUSH1 0x0 DUP1 REVERT JUMPDEST PUSH2 0x2663 DUP3 PUSH2 0x2576 JUMP JUMPDEST PUSH4 0x4E487B71 PUSH1 0xE0 SHL PUSH1 0x0 MSTORE PUSH1 0x32 PUSH1 0x4 MSTORE PUSH1 0x24 PUSH1 0x0 REVERT JUMPDEST PUSH1 0x1 DUP2 DUP2 SHR SWAP1 DUP3 AND DUP1 PUSH2 0x298D JUMPI PUSH1 0x7F DUP3 AND SWAP2 POP JUMPDEST PUSH1 0x20 DUP3 LT DUP2 SUB PUSH2 0x29AD JUMPI PUSH4 0x4E487B71 PUSH1 0xE0 SHL PUSH1 0x0 MSTORE PUSH1 0x22 PUSH1 0x4 MSTORE PUSH1 0x24 PUSH1 0x0 REVERT JUMPDEST POP SWAP2 SWAP1 POP JUMP JUMPDEST PUSH1 0x1F DUP3 GT ISZERO PUSH2 0x1017 JUMPI PUSH1 0x0 DUP2 DUP2 MSTORE PUSH1 0x20 DUP2 KECCAK256 PUSH1 0x1F DUP6 ADD PUSH1 0x5 SHR DUP2 ADD PUSH1 0x20 DUP7 LT ISZERO PUSH2 0x29DA JUMPI POP DUP1 JUMPDEST PUSH1 0x1F DUP6 ADD PUSH1 0x5 SHR DUP3 ADD SWAP2 POP JUMPDEST DUP2 DUP2 LT ISZERO PUSH2 0x29F9 JUMPI DUP3 DUP2 SSTORE PUSH1 0x1 ADD PUSH2 0x29E6 JUMP JUMPDEST POP POP POP POP POP POP JUMP JUMPDEST DUP2 MLOAD PUSH8 0xFFFFFFFFFFFFFFFF DUP2 GT ISZERO PUSH2 0x2A1B JUMPI PUSH2 0x2A1B PUSH2 0x20B6 JUMP JUMPDEST PUSH2 0x2A2F DUP2 PUSH2 0x2A29 DUP5 SLOAD PUSH2 0x2979 JUMP JUMPDEST DUP5 PUSH2 0x29B3 JUMP JUMPDEST PUSH1 0x20 DUP1 PUSH1 0x1F DUP4 GT PUSH1 0x1 DUP2 EQ PUSH2 0x2A64 JUMPI PUSH1 0x0 DUP5 ISZERO PUSH2 0x2A4C JUMPI POP DUP6 DUP4 ADD MLOAD JUMPDEST PUSH1 0x0 NOT PUSH1 0x3 DUP7 SWAP1 SHL SHR NOT AND PUSH1 0x1 DUP6 SWAP1 SHL OR DUP6 SSTORE PUSH2 0x29F9 JUMP JUMPDEST PUSH1 0x0 DUP6 DUP2 MSTORE PUSH1 0x20 DUP2 KECCAK256 PUSH1 0x1F NOT DUP7 AND SWAP2 JUMPDEST DUP3 DUP2 LT ISZERO PUSH2 0x2A93 JUMPI DUP9 DUP7 ADD MLOAD DUP3 SSTORE SWAP5 DUP5 ADD SWAP5 PUSH1 0x1 SWAP1 SWAP2 ADD SWAP1 DUP5 ADD PUSH2 0x2A74 JUMP JUMPDEST POP DUP6 DUP3 LT ISZERO PUSH2 0x2AB1 JUMPI DUP8 DUP6 ADD MLOAD PUSH1 0x0 NOT PUSH1 0x3 DUP9 SWAP1 SHL PUSH1 0xF8 AND SHR NOT AND DUP2 SSTORE JUMPDEST POP POP POP POP POP PUSH1 0x1 SWAP1 DUP2 SHL ADD SWAP1 SSTORE POP JUMP JUMPDEST PUSH1 0x0 PUSH2 0xFFFF DUP1 DUP4 AND DUP2 DUP2 SUB PUSH2 0x2AE6 JUMPI PUSH4 0x4E487B71 PUSH1 0xE0 SHL PUSH1 0x0 MSTORE PUSH1 0x11 PUSH1 0x4 MSTORE PUSH1 0x24 PUSH1 0x0 REVERT JUMPDEST PUSH1 0x1 ADD SWAP4 SWAP3 POP POP POP JUMP INVALID LOG2 PUSH5 0x6970667358 0x22 SLT KECCAK256 0xEF CALLDATACOPY 0xBE GASLIMIT PUSH2 0xF8DD 0xB8 0xEE CHAINID 0xEE RETURN 0xD9 0xE9 DUP13 PUSH28 0xB3C06CC80A0562775223BCEF9F69964064736F6C6343000811003300 "
				},
				"gasEstimates": {
					"creation": {
						"codeDepositCost": "2209200",
						"executionCost": "75061",
						"totalCost": "2284261"
					},
					"external": {
						"addAddressArrayDataProject(bytes32,address)": "49058",
						"addAddressArrayDataUser(bytes32,address)": "49016",
						"addAddressContract(address)": "infinite",
						"addBoolArrayDataUser(bytes32,bool)": "50607",
						"addBytes32ArrayDataProject(bytes32,bytes32)": "46837",
						"addBytes32ArrayDataUser(bytes32,bytes32)": "46790",
						"addStringArrayDataProject(bytes32,string)": "infinite",
						"addStringArrayDataUser(bytes32,string)": "infinite",
						"addUint16ArrayDataProject(bytes32,uint16)": "50663",
						"addUint16ArrayDataUser(bytes32,uint16)": "50662",
						"addUint8ArrayDataProject(bytes32,uint8)": "50611",
						"addUint8ArrayDataUser(bytes32,uint8)": "50701",
						"addUintArrayDataProject(bytes32,uint256)": "46813",
						"addUintArrayDataUser(bytes32,uint256)": "46767",
						"changeOwnerContract(address)": "infinite",
						"delAddressContract(address)": "infinite",
						"getAddressArrayDataProject(bytes32)": "infinite",
						"getAddressArrayDataUser(bytes32)": "infinite",
						"getAddressDataProject(bytes32)": "2546",
						"getAddressDataUser(bytes32)": "2611",
						"getAddressesContracts()": "infinite",
						"getBoolArrayDataUser(bytes32)": "infinite",
						"getBoolDataUser(bytes32)": "2607",
						"getBytes32ArrayDataUser(bytes32)": "infinite",
						"getBytes32DataUser(bytes32)": "2506",
						"getOwnerContract()": "2399",
						"getStringArrayDataProject(bytes32)": "infinite",
						"getStringArrayDataUser(bytes32)": "infinite",
						"getStringDataProject(bytes32)": "infinite",
						"getStringDataUser(bytes32)": "infinite",
						"getUint16ArrayDataProject(bytes32)": "infinite",
						"getUint16ArrayDataUser(bytes32)": "infinite",
						"getUint16DataProject(bytes32)": "2511",
						"getUint16DataUser(bytes32)": "2531",
						"getUint8ArrayDataProject(bytes32)": "infinite",
						"getUint8ArrayDataUser(bytes32)": "infinite",
						"getUint8DataProject(bytes32)": "2608",
						"getUint8DataUser(bytes32)": "2565",
						"getUintArrayDataProject(bytes32)": "infinite",
						"getUintArrayDataUser(bytes32)": "infinite",
						"getUintDataProject(bytes32)": "2571",
						"getUintDataUser(bytes32)": "2505",
						"setAddressArrayDataProject(bytes32,uint16,address)": "infinite",
						"setAddressArrayDataUser(bytes32,uint16,address)": "infinite",
						"setAddressDataProject(bytes32,address)": "24785",
						"setAddressDataUser(bytes32,address)": "24806",
						"setBoolArrayDataUser(bytes32,uint16,bool)": "infinite",
						"setBoolDataUser(bytes32,bool)": "24768",
						"setBytes32ArrayDataProject(bytes32,uint16,bytes32)": "24829",
						"setBytes32ArrayDataUser(bytes32,uint16,bytes32)": "24825",
						"setBytes32DataProject(bytes32,bytes32)": "22515",
						"setBytes32DataUser(bytes32,bytes32)": "22561",
						"setFullAddressArrayDataProject(bytes32,address[])": "infinite",
						"setFullAddressArrayDataUser(bytes32,address[])": "infinite",
						"setFullBoolArrayDataUser(bytes32,bool[])": "infinite",
						"setFullBytes32ArrayDataProject(bytes32,bytes32[])": "infinite",
						"setFullBytes32ArrayDataUser(bytes32,bytes32[])": "infinite",
						"setFullStringArrayDataProject(bytes32,string[])": "infinite",
						"setFullStringArrayDataUser(bytes32,string[])": "infinite",
						"setFullUint16ArrayDataProject(bytes32,uint16[])": "infinite",
						"setFullUint16ArrayDataUser(bytes32,uint16[])": "infinite",
						"setFullUint8ArrayDataProject(bytes32,uint8[])": "infinite",
						"setFullUint8ArrayDataUser(bytes32,uint8[])": "infinite",
						"setFullUintArrayDataProject(bytes32,uint256[])": "infinite",
						"setFullUintArrayDataUser(bytes32,uint256[])": "infinite",
						"setStringArrayDataProject(bytes32,uint16,string)": "infinite",
						"setStringArrayDataUser(bytes32,uint16,string)": "infinite",
						"setStringDataProject(bytes32,string)": "infinite",
						"setStringDataUser(bytes32,string)": "infinite",
						"setUint16ArrayDataProject(bytes32,uint16,uint16)": "infinite",
						"setUint16ArrayDataUser(bytes32,uint16,uint16)": "infinite",
						"setUint16DataProject(bytes32,uint16)": "24705",
						"setUint16DataUser(bytes32,uint16)": "24750",
						"setUint8ArrayDataProject(bytes32,uint16,uint8)": "infinite",
						"setUint8ArrayDataUser(bytes32,uint16,uint8)": "infinite",
						"setUint8DataProject(bytes32,uint8)": "24770",
						"setUint8DataUser(bytes32,uint8)": "24727",
						"setUintArrayDataProject(bytes32,uint16,uint256)": "24848",
						"setUintArrayDataUser(bytes32,uint16,uint256)": "24871",
						"setUintDataProject(bytes32,uint256)": "22516",
						"setUintDataUser(bytes32,uint256)": "22496"
					}
				},
				"methodIdentifiers": {
					"addAddressArrayDataProject(bytes32,address)": "fa9dfd0b",
					"addAddressArrayDataUser(bytes32,address)": "86d423ab",
					"addAddressContract(address)": "ffb0736e",
					"addBoolArrayDataUser(bytes32,bool)": "201c87f1",
					"addBytes32ArrayDataProject(bytes32,bytes32)": "06f605f0",
					"addBytes32ArrayDataUser(bytes32,bytes32)": "e74b31d7",
					"addStringArrayDataProject(bytes32,string)": "138a7465",
					"addStringArrayDataUser(bytes32,string)": "596b371d",
					"addUint16ArrayDataProject(bytes32,uint16)": "0e9bd4e2",
					"addUint16ArrayDataUser(bytes32,uint16)": "4869dbed",
					"addUint8ArrayDataProject(bytes32,uint8)": "f48ac309",
					"addUint8ArrayDataUser(bytes32,uint8)": "39a56365",
					"addUintArrayDataProject(bytes32,uint256)": "896296af",
					"addUintArrayDataUser(bytes32,uint256)": "f5dc9a6f",
					"changeOwnerContract(address)": "91d3e449",
					"delAddressContract(address)": "93ce1a50",
					"getAddressArrayDataProject(bytes32)": "0a7b1f8a",
					"getAddressArrayDataUser(bytes32)": "3ac3fa1f",
					"getAddressDataProject(bytes32)": "6933dc7c",
					"getAddressDataUser(bytes32)": "538e59c4",
					"getAddressesContracts()": "df2d2fcf",
					"getBoolArrayDataUser(bytes32)": "3a9ae28c",
					"getBoolDataUser(bytes32)": "7eabe6d4",
					"getBytes32ArrayDataUser(bytes32)": "1dd5d01f",
					"getBytes32DataUser(bytes32)": "4d22d57b",
					"getOwnerContract()": "81323911",
					"getStringArrayDataProject(bytes32)": "e6f8bdfc",
					"getStringArrayDataUser(bytes32)": "16451163",
					"getStringDataProject(bytes32)": "88ba5919",
					"getStringDataUser(bytes32)": "3f026ce5",
					"getUint16ArrayDataProject(bytes32)": "175a22ef",
					"getUint16ArrayDataUser(bytes32)": "e8ae9d76",
					"getUint16DataProject(bytes32)": "0a020e5e",
					"getUint16DataUser(bytes32)": "9c11ccf7",
					"getUint8ArrayDataProject(bytes32)": "e2b3086b",
					"getUint8ArrayDataUser(bytes32)": "8d3b2e0f",
					"getUint8DataProject(bytes32)": "e0ec8012",
					"getUint8DataUser(bytes32)": "927ee859",
					"getUintArrayDataProject(bytes32)": "6cb0fbac",
					"getUintArrayDataUser(bytes32)": "bf9134df",
					"getUintDataProject(bytes32)": "e0cf67fe",
					"getUintDataUser(bytes32)": "ceeb2431",
					"setAddressArrayDataProject(bytes32,uint16,address)": "3ee6a0f5",
					"setAddressArrayDataUser(bytes32,uint16,address)": "20cf0ad6",
					"setAddressDataProject(bytes32,address)": "4ab7ca6e",
					"setAddressDataUser(bytes32,address)": "656a33e4",
					"setBoolArrayDataUser(bytes32,uint16,bool)": "3758ba43",
					"setBoolDataUser(bytes32,bool)": "9a45e7b8",
					"setBytes32ArrayDataProject(bytes32,uint16,bytes32)": "0561cfc3",
					"setBytes32ArrayDataUser(bytes32,uint16,bytes32)": "fa8807b8",
					"setBytes32DataProject(bytes32,bytes32)": "ab53cb2b",
					"setBytes32DataUser(bytes32,bytes32)": "14d869b3",
					"setFullAddressArrayDataProject(bytes32,address[])": "df486a89",
					"setFullAddressArrayDataUser(bytes32,address[])": "5ffaceda",
					"setFullBoolArrayDataUser(bytes32,bool[])": "47669121",
					"setFullBytes32ArrayDataProject(bytes32,bytes32[])": "bd1b50ff",
					"setFullBytes32ArrayDataUser(bytes32,bytes32[])": "9bc59d00",
					"setFullStringArrayDataProject(bytes32,string[])": "4ce08900",
					"setFullStringArrayDataUser(bytes32,string[])": "16a2fc34",
					"setFullUint16ArrayDataProject(bytes32,uint16[])": "404503c6",
					"setFullUint16ArrayDataUser(bytes32,uint16[])": "8d4f2726",
					"setFullUint8ArrayDataProject(bytes32,uint8[])": "1a840e08",
					"setFullUint8ArrayDataUser(bytes32,uint8[])": "bff937b0",
					"setFullUintArrayDataProject(bytes32,uint256[])": "5da54cde",
					"setFullUintArrayDataUser(bytes32,uint256[])": "70b915e1",
					"setStringArrayDataProject(bytes32,uint16,string)": "06ba9895",
					"setStringArrayDataUser(bytes32,uint16,string)": "35eb2c1d",
					"setStringDataProject(bytes32,string)": "be86819b",
					"setStringDataUser(bytes32,string)": "3daa8767",
					"setUint16ArrayDataProject(bytes32,uint16,uint16)": "633f7a84",
					"setUint16ArrayDataUser(bytes32,uint16,uint16)": "b6bf7e1d",
					"setUint16DataProject(bytes32,uint16)": "50b0b9b3",
					"setUint16DataUser(bytes32,uint16)": "71564789",
					"setUint8ArrayDataProject(bytes32,uint16,uint8)": "014a00c7",
					"setUint8ArrayDataUser(bytes32,uint16,uint8)": "fb293ca5",
					"setUint8DataProject(bytes32,uint8)": "ee55f675",
					"setUint8DataUser(bytes32,uint8)": "bf3f01ab",
					"setUintArrayDataProject(bytes32,uint16,uint256)": "af387b12",
					"setUintArrayDataUser(bytes32,uint16,uint256)": "54a87336",
					"setUintDataProject(bytes32,uint256)": "522bc530",
					"setUintDataUser(bytes32,uint256)": "032a772f"
				}
			},
			"storageLayout": {
				"storage": [
					{
						"astId": 3,
						"contract": "GlobalStorage.sol:GlobalStorage",
						"label": "ownerContract",
						"offset": 0,
						"slot": "0",
						"type": "t_address"
					},
					{
						"astId": 6,
						"contract": "GlobalStorage.sol:GlobalStorage",
						"label": "logicContracts",
						"offset": 0,
						"slot": "1",
						"type": "t_array(t_address)dyn_storage"
					},
					{
						"astId": 10,
						"contract": "GlobalStorage.sol:GlobalStorage",
						"label": "stringDataUser",
						"offset": 0,
						"slot": "2",
						"type": "t_mapping(t_bytes32,t_string_storage)"
					},
					{
						"astId": 15,
						"contract": "GlobalStorage.sol:GlobalStorage",
						"label": "stringArrayDataUser",
						"offset": 0,
						"slot": "3",
						"type": "t_mapping(t_bytes32,t_array(t_string_storage)dyn_storage)"
					},
					{
						"astId": 19,
						"contract": "GlobalStorage.sol:GlobalStorage",
						"label": "addressDataUser",
						"offset": 0,
						"slot": "4",
						"type": "t_mapping(t_bytes32,t_address)"
					},
					{
						"astId": 24,
						"contract": "GlobalStorage.sol:GlobalStorage",
						"label": "addressArrayDataUser",
						"offset": 0,
						"slot": "5",
						"type": "t_mapping(t_bytes32,t_array(t_address)dyn_storage)"
					},
					{
						"astId": 28,
						"contract": "GlobalStorage.sol:GlobalStorage",
						"label": "uint8DataUser",
						"offset": 0,
						"slot": "6",
						"type": "t_mapping(t_bytes32,t_uint8)"
					},
					{
						"astId": 33,
						"contract": "GlobalStorage.sol:GlobalStorage",
						"label": "uint8ArrayDataUser",
						"offset": 0,
						"slot": "7",
						"type": "t_mapping(t_bytes32,t_array(t_uint8)dyn_storage)"
					},
					{
						"astId": 37,
						"contract": "GlobalStorage.sol:GlobalStorage",
						"label": "uint16DataUser",
						"offset": 0,
						"slot": "8",
						"type": "t_mapping(t_bytes32,t_uint16)"
					},
					{
						"astId": 42,
						"contract": "GlobalStorage.sol:GlobalStorage",
						"label": "uint16ArrayDataUser",
						"offset": 0,
						"slot": "9",
						"type": "t_mapping(t_bytes32,t_array(t_uint16)dyn_storage)"
					},
					{
						"astId": 46,
						"contract": "GlobalStorage.sol:GlobalStorage",
						"label": "uintDataUser",
						"offset": 0,
						"slot": "10",
						"type": "t_mapping(t_bytes32,t_uint256)"
					},
					{
						"astId": 51,
						"contract": "GlobalStorage.sol:GlobalStorage",
						"label": "uintArrayDataUser",
						"offset": 0,
						"slot": "11",
						"type": "t_mapping(t_bytes32,t_array(t_uint256)dyn_storage)"
					},
					{
						"astId": 55,
						"contract": "GlobalStorage.sol:GlobalStorage",
						"label": "bytes32DataUser",
						"offset": 0,
						"slot": "12",
						"type": "t_mapping(t_bytes32,t_bytes32)"
					},
					{
						"astId": 60,
						"contract": "GlobalStorage.sol:GlobalStorage",
						"label": "bytes32ArrayDataUser",
						"offset": 0,
						"slot": "13",
						"type": "t_mapping(t_bytes32,t_array(t_bytes32)dyn_storage)"
					},
					{
						"astId": 64,
						"contract": "GlobalStorage.sol:GlobalStorage",
						"label": "boolDataUser",
						"offset": 0,
						"slot": "14",
						"type": "t_mapping(t_bytes32,t_bool)"
					},
					{
						"astId": 69,
						"contract": "GlobalStorage.sol:GlobalStorage",
						"label": "boolArrayDataUser",
						"offset": 0,
						"slot": "15",
						"type": "t_mapping(t_bytes32,t_array(t_bool)dyn_storage)"
					},
					{
						"astId": 73,
						"contract": "GlobalStorage.sol:GlobalStorage",
						"label": "stringDataProject",
						"offset": 0,
						"slot": "16",
						"type": "t_mapping(t_bytes32,t_string_storage)"
					},
					{
						"astId": 78,
						"contract": "GlobalStorage.sol:GlobalStorage",
						"label": "stringArrayDataProject",
						"offset": 0,
						"slot": "17",
						"type": "t_mapping(t_bytes32,t_array(t_string_storage)dyn_storage)"
					},
					{
						"astId": 82,
						"contract": "GlobalStorage.sol:GlobalStorage",
						"label": "addressDataProject",
						"offset": 0,
						"slot": "18",
						"type": "t_mapping(t_bytes32,t_address)"
					},
					{
						"astId": 87,
						"contract": "GlobalStorage.sol:GlobalStorage",
						"label": "addressArrayDataProject",
						"offset": 0,
						"slot": "19",
						"type": "t_mapping(t_bytes32,t_array(t_address)dyn_storage)"
					},
					{
						"astId": 91,
						"contract": "GlobalStorage.sol:GlobalStorage",
						"label": "uint8DataProject",
						"offset": 0,
						"slot": "20",
						"type": "t_mapping(t_bytes32,t_uint8)"
					},
					{
						"astId": 96,
						"contract": "GlobalStorage.sol:GlobalStorage",
						"label": "uint8ArrayDataProject",
						"offset": 0,
						"slot": "21",
						"type": "t_mapping(t_bytes32,t_array(t_uint8)dyn_storage)"
					},
					{
						"astId": 100,
						"contract": "GlobalStorage.sol:GlobalStorage",
						"label": "uint16DataProject",
						"offset": 0,
						"slot": "22",
						"type": "t_mapping(t_bytes32,t_uint16)"
					},
					{
						"astId": 105,
						"contract": "GlobalStorage.sol:GlobalStorage",
						"label": "uint16ArrayDataProject",
						"offset": 0,
						"slot": "23",
						"type": "t_mapping(t_bytes32,t_array(t_uint16)dyn_storage)"
					},
					{
						"astId": 109,
						"contract": "GlobalStorage.sol:GlobalStorage",
						"label": "uintDataProject",
						"offset": 0,
						"slot": "24",
						"type": "t_mapping(t_bytes32,t_uint256)"
					},
					{
						"astId": 114,
						"contract": "GlobalStorage.sol:GlobalStorage",
						"label": "uintArrayDataProject",
						"offset": 0,
						"slot": "25",
						"type": "t_mapping(t_bytes32,t_array(t_uint256)dyn_storage)"
					}
				],
				"types": {
					"t_address": {
						"encoding": "inplace",
						"label": "address",
						"numberOfBytes": "20"
					},
					"t_array(t_address)dyn_storage": {
						"base": "t_address",
						"encoding": "dynamic_array",
						"label": "address[]",
						"numberOfBytes": "32"
					},
					"t_array(t_bool)dyn_storage": {
						"base": "t_bool",
						"encoding": "dynamic_array",
						"label": "bool[]",
						"numberOfBytes": "32"
					},
					"t_array(t_bytes32)dyn_storage": {
						"base": "t_bytes32",
						"encoding": "dynamic_array",
						"label": "bytes32[]",
						"numberOfBytes": "32"
					},
					"t_array(t_string_storage)dyn_storage": {
						"base": "t_string_storage",
						"encoding": "dynamic_array",
						"label": "string[]",
						"numberOfBytes": "32"
					},
					"t_array(t_uint16)dyn_storage": {
						"base": "t_uint16",
						"encoding": "dynamic_array",
						"label": "uint16[]",
						"numberOfBytes": "32"
					},
					"t_array(t_uint256)dyn_storage": {
						"base": "t_uint256",
						"encoding": "dynamic_array",
						"label": "uint256[]",
						"numberOfBytes": "32"
					},
					"t_array(t_uint8)dyn_storage": {
						"base": "t_uint8",
						"encoding": "dynamic_array",
						"label": "uint8[]",
						"numberOfBytes": "32"
					},
					"t_bool": {
						"encoding": "inplace",
						"label": "bool",
						"numberOfBytes": "1"
					},
					"t_bytes32": {
						"encoding": "inplace",
						"label": "bytes32",
						"numberOfBytes": "32"
					},
					"t_mapping(t_bytes32,t_address)": {
						"encoding": "mapping",
						"key": "t_bytes32",
						"label": "mapping(bytes32 => address)",
						"numberOfBytes": "32",
						"value": "t_address"
					},
					"t_mapping(t_bytes32,t_array(t_address)dyn_storage)": {
						"encoding": "mapping",
						"key": "t_bytes32",
						"label": "mapping(bytes32 => address[])",
						"numberOfBytes": "32",
						"value": "t_array(t_address)dyn_storage"
					},
					"t_mapping(t_bytes32,t_array(t_bool)dyn_storage)": {
						"encoding": "mapping",
						"key": "t_bytes32",
						"label": "mapping(bytes32 => bool[])",
						"numberOfBytes": "32",
						"value": "t_array(t_bool)dyn_storage"
					},
					"t_mapping(t_bytes32,t_array(t_bytes32)dyn_storage)": {
						"encoding": "mapping",
						"key": "t_bytes32",
						"label": "mapping(bytes32 => bytes32[])",
						"numberOfBytes": "32",
						"value": "t_array(t_bytes32)dyn_storage"
					},
					"t_mapping(t_bytes32,t_array(t_string_storage)dyn_storage)": {
						"encoding": "mapping",
						"key": "t_bytes32",
						"label": "mapping(bytes32 => string[])",
						"numberOfBytes": "32",
						"value": "t_array(t_string_storage)dyn_storage"
					},
					"t_mapping(t_bytes32,t_array(t_uint16)dyn_storage)": {
						"encoding": "mapping",
						"key": "t_bytes32",
						"label": "mapping(bytes32 => uint16[])",
						"numberOfBytes": "32",
						"value": "t_array(t_uint16)dyn_storage"
					},
					"t_mapping(t_bytes32,t_array(t_uint256)dyn_storage)": {
						"encoding": "mapping",
						"key": "t_bytes32",
						"label": "mapping(bytes32 => uint256[])",
						"numberOfBytes": "32",
						"value": "t_array(t_uint256)dyn_storage"
					},
					"t_mapping(t_bytes32,t_array(t_uint8)dyn_storage)": {
						"encoding": "mapping",
						"key": "t_bytes32",
						"label": "mapping(bytes32 => uint8[])",
						"numberOfBytes": "32",
						"value": "t_array(t_uint8)dyn_storage"
					},
					"t_mapping(t_bytes32,t_bool)": {
						"encoding": "mapping",
						"key": "t_bytes32",
						"label": "mapping(bytes32 => bool)",
						"numberOfBytes": "32",
						"value": "t_bool"
					},
					"t_mapping(t_bytes32,t_bytes32)": {
						"encoding": "mapping",
						"key": "t_bytes32",
						"label": "mapping(bytes32 => bytes32)",
						"numberOfBytes": "32",
						"value": "t_bytes32"
					},
					"t_mapping(t_bytes32,t_string_storage)": {
						"encoding": "mapping",
						"key": "t_bytes32",
						"label": "mapping(bytes32 => string)",
						"numberOfBytes": "32",
						"value": "t_string_storage"
					},
					"t_mapping(t_bytes32,t_uint16)": {
						"encoding": "mapping",
						"key": "t_bytes32",
						"label": "mapping(bytes32 => uint16)",
						"numberOfBytes": "32",
						"value": "t_uint16"
					},
					"t_mapping(t_bytes32,t_uint256)": {
						"encoding": "mapping",
						"key": "t_bytes32",
						"label": "mapping(bytes32 => uint256)",
						"numberOfBytes": "32",
						"value": "t_uint256"
					},
					"t_mapping(t_bytes32,t_uint8)": {
						"encoding": "mapping",
						"key": "t_bytes32",
						"label": "mapping(bytes32 => uint8)",
						"numberOfBytes": "32",
						"value": "t_uint8"
					},
					"t_string_storage": {
						"encoding": "bytes",
						"label": "string",
						"numberOfBytes": "32"
					},
					"t_uint16": {
						"encoding": "inplace",
						"label": "uint16",
						"numberOfBytes": "2"
					},
					"t_uint256": {
						"encoding": "inplace",
						"label": "uint256",
						"numberOfBytes": "32"
					},
					"t_uint8": {
						"encoding": "inplace",
						"label": "uint8",
						"numberOfBytes": "1"
					}
				}
			},
			"userdoc": {
				"kind": "user",
				"methods": {},
				"version": 1
			}
		}
	}
}