{
	"logic_contr.sol": {
		"LogicSmartContract": {
			"abi": [
				{
					"inputs": [
						{
							"internalType": "address",
							"name": "_data",
							"type": "address"
						}
					],
					"stateMutability": "nonpayable",
					"type": "constructor"
				},
				{
					"inputs": [
						{
							"internalType": "string",
							"name": "_key",
							"type": "string"
						}
					],
					"name": "getSomeUint",
					"outputs": [
						{
							"internalType": "uint256",
							"name": "",
							"type": "uint256"
						}
					],
					"stateMutability": "view",
					"type": "function"
				},
				{
					"inputs": [
						{
							"internalType": "string",
							"name": "_key",
							"type": "string"
						},
						{
							"internalType": "uint256",
							"name": "_num",
							"type": "uint256"
						}
					],
					"name": "setSomeUint",
					"outputs": [],
					"stateMutability": "nonpayable",
					"type": "function"
				}
			],
			"devdoc": {
				"kind": "dev",
				"methods": {},
				"version": 1
			},
			"evm": {
				"assembly": "    /* \"logic_contr.sol\":102:562  contract LogicSmartContract {\r... */\n  mstore(0x40, 0x80)\n    /* \"logic_contr.sol\":165:239  constructor(address _data) {\r... */\n  callvalue\n  dup1\n  iszero\n  tag_1\n  jumpi\n  0x00\n  dup1\n  revert\ntag_1:\n  pop\n  mload(0x40)\n  sub(codesize, bytecodeSize)\n  dup1\n  bytecodeSize\n  dup4\n  codecopy\n  dup2\n  dup2\n  add\n  0x40\n  mstore\n  dup2\n  add\n  swap1\n  tag_2\n  swap2\n  swap1\n  tag_3\n  jump\t// in\ntag_2:\n    /* \"logic_contr.sol\":225:230  _data */\n  dup1\n    /* \"logic_contr.sol\":203:207  data */\n  0x00\n  dup1\n    /* \"logic_contr.sol\":203:231  data = EternalStorage(_data) */\n  0x0100\n  exp\n  dup2\n  sload\n  dup2\n  0xffffffffffffffffffffffffffffffffffffffff\n  mul\n  not\n  and\n  swap1\n  dup4\n  0xffffffffffffffffffffffffffffffffffffffff\n  and\n  mul\n  or\n  swap1\n  sstore\n  pop\n    /* \"logic_contr.sol\":165:239  constructor(address _data) {\r... */\n  pop\n    /* \"logic_contr.sol\":102:562  contract LogicSmartContract {\r... */\n  jump(tag_6)\n    /* \"#utility.yul\":7:150   */\ntag_8:\n    /* \"#utility.yul\":64:69   */\n  0x00\n    /* \"#utility.yul\":95:101   */\n  dup2\n    /* \"#utility.yul\":89:102   */\n  mload\n    /* \"#utility.yul\":80:102   */\n  swap1\n  pop\n    /* \"#utility.yul\":111:144   */\n  tag_10\n    /* \"#utility.yul\":138:143   */\n  dup2\n    /* \"#utility.yul\":111:144   */\n  tag_11\n  jump\t// in\ntag_10:\n    /* \"#utility.yul\":7:150   */\n  swap3\n  swap2\n  pop\n  pop\n  jump\t// out\n    /* \"#utility.yul\":156:507   */\ntag_3:\n    /* \"#utility.yul\":226:232   */\n  0x00\n    /* \"#utility.yul\":275:277   */\n  0x20\n    /* \"#utility.yul\":263:272   */\n  dup3\n    /* \"#utility.yul\":254:261   */\n  dup5\n    /* \"#utility.yul\":250:273   */\n  sub\n    /* \"#utility.yul\":246:278   */\n  slt\n    /* \"#utility.yul\":243:362   */\n  iszero\n  tag_13\n  jumpi\n    /* \"#utility.yul\":281:360   */\n  tag_14\n  tag_15\n  jump\t// in\ntag_14:\n    /* \"#utility.yul\":243:362   */\ntag_13:\n    /* \"#utility.yul\":401:402   */\n  0x00\n    /* \"#utility.yul\":426:490   */\n  tag_16\n    /* \"#utility.yul\":482:489   */\n  dup5\n    /* \"#utility.yul\":473:479   */\n  dup3\n    /* \"#utility.yul\":462:471   */\n  dup6\n    /* \"#utility.yul\":458:480   */\n  add\n    /* \"#utility.yul\":426:490   */\n  tag_8\n  jump\t// in\ntag_16:\n    /* \"#utility.yul\":416:490   */\n  swap2\n  pop\n    /* \"#utility.yul\":372:500   */\n  pop\n    /* \"#utility.yul\":156:507   */\n  swap3\n  swap2\n  pop\n  pop\n  jump\t// out\n    /* \"#utility.yul\":594:690   */\ntag_19:\n    /* \"#utility.yul\":631:638   */\n  0x00\n    /* \"#utility.yul\":660:684   */\n  tag_21\n    /* \"#utility.yul\":678:683   */\n  dup3\n    /* \"#utility.yul\":660:684   */\n  tag_22\n  jump\t// in\ntag_21:\n    /* \"#utility.yul\":649:684   */\n  swap1\n  pop\n    /* \"#utility.yul\":594:690   */\n  swap2\n  swap1\n  pop\n  jump\t// out\n    /* \"#utility.yul\":696:822   */\ntag_22:\n    /* \"#utility.yul\":733:740   */\n  0x00\n    /* \"#utility.yul\":773:815   */\n  0xffffffffffffffffffffffffffffffffffffffff\n    /* \"#utility.yul\":766:771   */\n  dup3\n    /* \"#utility.yul\":762:816   */\n  and\n    /* \"#utility.yul\":751:816   */\n  swap1\n  pop\n    /* \"#utility.yul\":696:822   */\n  swap2\n  swap1\n  pop\n  jump\t// out\n    /* \"#utility.yul\":951:1068   */\ntag_15:\n    /* \"#utility.yul\":1060:1061   */\n  0x00\n    /* \"#utility.yul\":1057:1058   */\n  dup1\n    /* \"#utility.yul\":1050:1062   */\n  revert\n    /* \"#utility.yul\":1074:1196   */\ntag_11:\n    /* \"#utility.yul\":1147:1171   */\n  tag_28\n    /* \"#utility.yul\":1165:1170   */\n  dup2\n    /* \"#utility.yul\":1147:1171   */\n  tag_19\n  jump\t// in\ntag_28:\n    /* \"#utility.yul\":1140:1145   */\n  dup2\n    /* \"#utility.yul\":1137:1172   */\n  eq\n    /* \"#utility.yul\":1127:1190   */\n  tag_29\n  jumpi\n    /* \"#utility.yul\":1186:1187   */\n  0x00\n    /* \"#utility.yul\":1183:1184   */\n  dup1\n    /* \"#utility.yul\":1176:1188   */\n  revert\n    /* \"#utility.yul\":1127:1190   */\ntag_29:\n    /* \"#utility.yul\":1074:1196   */\n  pop\n  jump\t// out\n    /* \"logic_contr.sol\":102:562  contract LogicSmartContract {\r... */\ntag_6:\n  dataSize(sub_0)\n  dup1\n  dataOffset(sub_0)\n  0x00\n  codecopy\n  0x00\n  return\nstop\n\nsub_0: assembly {\n        /* \"logic_contr.sol\":102:562  contract LogicSmartContract {\r... */\n      mstore(0x40, 0x80)\n      callvalue\n      dup1\n      iszero\n      tag_1\n      jumpi\n      0x00\n      dup1\n      revert\n    tag_1:\n      pop\n      jumpi(tag_2, lt(calldatasize, 0x04))\n      shr(0xe0, calldataload(0x00))\n      dup1\n      0x84478a1c\n      eq\n      tag_3\n      jumpi\n      dup1\n      0xf2958101\n      eq\n      tag_4\n      jumpi\n    tag_2:\n      0x00\n      dup1\n      revert\n        /* \"logic_contr.sol\":408:559  function setSomeUint(string memory _key, uint _num) public {\r... */\n    tag_3:\n      tag_5\n      0x04\n      dup1\n      calldatasize\n      sub\n      dup2\n      add\n      swap1\n      tag_6\n      swap2\n      swap1\n      tag_7\n      jump\t// in\n    tag_6:\n      tag_8\n      jump\t// in\n    tag_5:\n      stop\n        /* \"logic_contr.sol\":247:400  function getSomeUint(string memory _key) public view returns (uint){\r... */\n    tag_4:\n      tag_9\n      0x04\n      dup1\n      calldatasize\n      sub\n      dup2\n      add\n      swap1\n      tag_10\n      swap2\n      swap1\n      tag_11\n      jump\t// in\n    tag_10:\n      tag_12\n      jump\t// in\n    tag_9:\n      mload(0x40)\n      tag_13\n      swap2\n      swap1\n      tag_14\n      jump\t// in\n    tag_13:\n      mload(0x40)\n      dup1\n      swap2\n      sub\n      swap1\n      return\n        /* \"logic_contr.sol\":408:559  function setSomeUint(string memory _key, uint _num) public {\r... */\n    tag_8:\n        /* \"logic_contr.sol\":485:489  data */\n      0x00\n      dup1\n      sload\n      swap1\n      0x0100\n      exp\n      swap1\n      div\n      0xffffffffffffffffffffffffffffffffffffffff\n      and\n        /* \"logic_contr.sol\":485:497  data.setUint */\n      0xffffffffffffffffffffffffffffffffffffffff\n      and\n      0xe2a4853a\n        /* \"logic_contr.sol\":538:542  _key */\n      dup4\n        /* \"logic_contr.sol\":508:543  abi.encodePacked(\"some_data\", _key) */\n      add(0x20, mload(0x40))\n      tag_16\n      swap2\n      swap1\n      tag_17\n      jump\t// in\n    tag_16:\n      mload(0x40)\n      0x20\n      dup2\n      dup4\n      sub\n      sub\n      dup2\n      mstore\n      swap1\n      0x40\n      mstore\n        /* \"logic_contr.sol\":498:544  keccak256(abi.encodePacked(\"some_data\", _key)) */\n      dup1\n      mload\n      swap1\n      0x20\n      add\n      keccak256\n        /* \"logic_contr.sol\":546:550  _num */\n      dup4\n        /* \"logic_contr.sol\":485:551  data.setUint(keccak256(abi.encodePacked(\"some_data\", _key)), _num) */\n      mload(0x40)\n      dup4\n      0xffffffff\n      and\n      0xe0\n      shl\n      dup2\n      mstore\n      0x04\n      add\n      tag_18\n      swap3\n      swap2\n      swap1\n      tag_19\n      jump\t// in\n    tag_18:\n      0x00\n      mload(0x40)\n      dup1\n      dup4\n      sub\n      dup2\n      0x00\n      dup8\n      dup1\n      extcodesize\n      iszero\n      dup1\n      iszero\n      tag_20\n      jumpi\n      0x00\n      dup1\n      revert\n    tag_20:\n      pop\n      gas\n      call\n      iszero\n      dup1\n      iszero\n      tag_22\n      jumpi\n      returndatasize\n      0x00\n      dup1\n      returndatacopy\n      revert(0x00, returndatasize)\n    tag_22:\n      pop\n      pop\n      pop\n      pop\n        /* \"logic_contr.sol\":408:559  function setSomeUint(string memory _key, uint _num) public {\r... */\n      pop\n      pop\n      jump\t// out\n        /* \"logic_contr.sol\":247:400  function getSomeUint(string memory _key) public view returns (uint){\r... */\n    tag_12:\n        /* \"logic_contr.sol\":309:313  uint */\n      0x00\n        /* \"logic_contr.sol\":332:336  data */\n      dup1\n      0x00\n      swap1\n      sload\n      swap1\n      0x0100\n      exp\n      swap1\n      div\n      0xffffffffffffffffffffffffffffffffffffffff\n      and\n        /* \"logic_contr.sol\":332:344  data.getUint */\n      0xffffffffffffffffffffffffffffffffffffffff\n      and\n      0xbd02d0f5\n        /* \"logic_contr.sol\":385:389  _key */\n      dup4\n        /* \"logic_contr.sol\":355:390  abi.encodePacked(\"some_data\", _key) */\n      add(0x20, mload(0x40))\n      tag_24\n      swap2\n      swap1\n      tag_17\n      jump\t// in\n    tag_24:\n      mload(0x40)\n      0x20\n      dup2\n      dup4\n      sub\n      sub\n      dup2\n      mstore\n      swap1\n      0x40\n      mstore\n        /* \"logic_contr.sol\":345:391  keccak256(abi.encodePacked(\"some_data\", _key)) */\n      dup1\n      mload\n      swap1\n      0x20\n      add\n      keccak256\n        /* \"logic_contr.sol\":332:392  data.getUint(keccak256(abi.encodePacked(\"some_data\", _key))) */\n      mload(0x40)\n      dup3\n      0xffffffff\n      and\n      0xe0\n      shl\n      dup2\n      mstore\n      0x04\n      add\n      tag_25\n      swap2\n      swap1\n      tag_26\n      jump\t// in\n    tag_25:\n      0x20\n      mload(0x40)\n      dup1\n      dup4\n      sub\n      dup2\n      dup7\n      dup1\n      extcodesize\n      iszero\n      dup1\n      iszero\n      tag_27\n      jumpi\n      0x00\n      dup1\n      revert\n    tag_27:\n      pop\n      gas\n      staticcall\n      iszero\n      dup1\n      iszero\n      tag_29\n      jumpi\n      returndatasize\n      0x00\n      dup1\n      returndatacopy\n      revert(0x00, returndatasize)\n    tag_29:\n      pop\n      pop\n      pop\n      pop\n      mload(0x40)\n      returndatasize\n      not(0x1f)\n      0x1f\n      dup3\n      add\n      and\n      dup3\n      add\n      dup1\n      0x40\n      mstore\n      pop\n      dup2\n      add\n      swap1\n      tag_30\n      swap2\n      swap1\n      tag_31\n      jump\t// in\n    tag_30:\n        /* \"logic_contr.sol\":325:392  return data.getUint(keccak256(abi.encodePacked(\"some_data\", _key))) */\n      swap1\n      pop\n        /* \"logic_contr.sol\":247:400  function getSomeUint(string memory _key) public view returns (uint){\r... */\n      swap2\n      swap1\n      pop\n      jump\t// out\n        /* \"#utility.yul\":7:419   */\n    tag_33:\n        /* \"#utility.yul\":85:90   */\n      0x00\n        /* \"#utility.yul\":110:176   */\n      tag_35\n        /* \"#utility.yul\":126:175   */\n      tag_36\n        /* \"#utility.yul\":168:174   */\n      dup5\n        /* \"#utility.yul\":126:175   */\n      tag_37\n      jump\t// in\n    tag_36:\n        /* \"#utility.yul\":110:176   */\n      tag_38\n      jump\t// in\n    tag_35:\n        /* \"#utility.yul\":101:176   */\n      swap1\n      pop\n        /* \"#utility.yul\":199:205   */\n      dup3\n        /* \"#utility.yul\":192:197   */\n      dup2\n        /* \"#utility.yul\":185:206   */\n      mstore\n        /* \"#utility.yul\":237:241   */\n      0x20\n        /* \"#utility.yul\":230:235   */\n      dup2\n        /* \"#utility.yul\":226:242   */\n      add\n        /* \"#utility.yul\":275:278   */\n      dup5\n        /* \"#utility.yul\":266:272   */\n      dup5\n        /* \"#utility.yul\":261:264   */\n      dup5\n        /* \"#utility.yul\":257:273   */\n      add\n        /* \"#utility.yul\":254:279   */\n      gt\n        /* \"#utility.yul\":251:363   */\n      iszero\n      tag_39\n      jumpi\n        /* \"#utility.yul\":282:361   */\n      tag_40\n      tag_41\n      jump\t// in\n    tag_40:\n        /* \"#utility.yul\":251:363   */\n    tag_39:\n        /* \"#utility.yul\":372:413   */\n      tag_42\n        /* \"#utility.yul\":406:412   */\n      dup5\n        /* \"#utility.yul\":401:404   */\n      dup3\n        /* \"#utility.yul\":396:399   */\n      dup6\n        /* \"#utility.yul\":372:413   */\n      tag_43\n      jump\t// in\n    tag_42:\n        /* \"#utility.yul\":91:419   */\n      pop\n        /* \"#utility.yul\":7:419   */\n      swap4\n      swap3\n      pop\n      pop\n      pop\n      jump\t// out\n        /* \"#utility.yul\":439:779   */\n    tag_44:\n        /* \"#utility.yul\":495:500   */\n      0x00\n        /* \"#utility.yul\":544:547   */\n      dup3\n        /* \"#utility.yul\":537:541   */\n      0x1f\n        /* \"#utility.yul\":529:535   */\n      dup4\n        /* \"#utility.yul\":525:542   */\n      add\n        /* \"#utility.yul\":521:548   */\n      slt\n        /* \"#utility.yul\":511:633   */\n      tag_46\n      jumpi\n        /* \"#utility.yul\":552:631   */\n      tag_47\n      tag_48\n      jump\t// in\n    tag_47:\n        /* \"#utility.yul\":511:633   */\n    tag_46:\n        /* \"#utility.yul\":669:675   */\n      dup2\n        /* \"#utility.yul\":656:676   */\n      calldataload\n        /* \"#utility.yul\":694:773   */\n      tag_49\n        /* \"#utility.yul\":769:772   */\n      dup5\n        /* \"#utility.yul\":761:767   */\n      dup3\n        /* \"#utility.yul\":754:758   */\n      0x20\n        /* \"#utility.yul\":746:752   */\n      dup7\n        /* \"#utility.yul\":742:759   */\n      add\n        /* \"#utility.yul\":694:773   */\n      tag_33\n      jump\t// in\n    tag_49:\n        /* \"#utility.yul\":685:773   */\n      swap2\n      pop\n        /* \"#utility.yul\":501:779   */\n      pop\n        /* \"#utility.yul\":439:779   */\n      swap3\n      swap2\n      pop\n      pop\n      jump\t// out\n        /* \"#utility.yul\":785:924   */\n    tag_50:\n        /* \"#utility.yul\":831:836   */\n      0x00\n        /* \"#utility.yul\":869:875   */\n      dup2\n        /* \"#utility.yul\":856:876   */\n      calldataload\n        /* \"#utility.yul\":847:876   */\n      swap1\n      pop\n        /* \"#utility.yul\":885:918   */\n      tag_52\n        /* \"#utility.yul\":912:917   */\n      dup2\n        /* \"#utility.yul\":885:918   */\n      tag_53\n      jump\t// in\n    tag_52:\n        /* \"#utility.yul\":785:924   */\n      swap3\n      swap2\n      pop\n      pop\n      jump\t// out\n        /* \"#utility.yul\":930:1073   */\n    tag_54:\n        /* \"#utility.yul\":987:992   */\n      0x00\n        /* \"#utility.yul\":1018:1024   */\n      dup2\n        /* \"#utility.yul\":1012:1025   */\n      mload\n        /* \"#utility.yul\":1003:1025   */\n      swap1\n      pop\n        /* \"#utility.yul\":1034:1067   */\n      tag_56\n        /* \"#utility.yul\":1061:1066   */\n      dup2\n        /* \"#utility.yul\":1034:1067   */\n      tag_53\n      jump\t// in\n    tag_56:\n        /* \"#utility.yul\":930:1073   */\n      swap3\n      swap2\n      pop\n      pop\n      jump\t// out\n        /* \"#utility.yul\":1079:1588   */\n    tag_11:\n        /* \"#utility.yul\":1148:1154   */\n      0x00\n        /* \"#utility.yul\":1197:1199   */\n      0x20\n        /* \"#utility.yul\":1185:1194   */\n      dup3\n        /* \"#utility.yul\":1176:1183   */\n      dup5\n        /* \"#utility.yul\":1172:1195   */\n      sub\n        /* \"#utility.yul\":1168:1200   */\n      slt\n        /* \"#utility.yul\":1165:1284   */\n      iszero\n      tag_58\n      jumpi\n        /* \"#utility.yul\":1203:1282   */\n      tag_59\n      tag_60\n      jump\t// in\n    tag_59:\n        /* \"#utility.yul\":1165:1284   */\n    tag_58:\n        /* \"#utility.yul\":1351:1352   */\n      0x00\n        /* \"#utility.yul\":1340:1349   */\n      dup3\n        /* \"#utility.yul\":1336:1353   */\n      add\n        /* \"#utility.yul\":1323:1354   */\n      calldataload\n        /* \"#utility.yul\":1381:1399   */\n      0xffffffffffffffff\n        /* \"#utility.yul\":1373:1379   */\n      dup2\n        /* \"#utility.yul\":1370:1400   */\n      gt\n        /* \"#utility.yul\":1367:1484   */\n      iszero\n      tag_61\n      jumpi\n        /* \"#utility.yul\":1403:1482   */\n      tag_62\n      tag_63\n      jump\t// in\n    tag_62:\n        /* \"#utility.yul\":1367:1484   */\n    tag_61:\n        /* \"#utility.yul\":1508:1571   */\n      tag_64\n        /* \"#utility.yul\":1563:1570   */\n      dup5\n        /* \"#utility.yul\":1554:1560   */\n      dup3\n        /* \"#utility.yul\":1543:1552   */\n      dup6\n        /* \"#utility.yul\":1539:1561   */\n      add\n        /* \"#utility.yul\":1508:1571   */\n      tag_44\n      jump\t// in\n    tag_64:\n        /* \"#utility.yul\":1498:1571   */\n      swap2\n      pop\n        /* \"#utility.yul\":1294:1581   */\n      pop\n        /* \"#utility.yul\":1079:1588   */\n      swap3\n      swap2\n      pop\n      pop\n      jump\t// out\n        /* \"#utility.yul\":1594:2248   */\n    tag_7:\n        /* \"#utility.yul\":1672:1678   */\n      0x00\n        /* \"#utility.yul\":1680:1686   */\n      dup1\n        /* \"#utility.yul\":1729:1731   */\n      0x40\n        /* \"#utility.yul\":1717:1726   */\n      dup4\n        /* \"#utility.yul\":1708:1715   */\n      dup6\n        /* \"#utility.yul\":1704:1727   */\n      sub\n        /* \"#utility.yul\":1700:1732   */\n      slt\n        /* \"#utility.yul\":1697:1816   */\n      iszero\n      tag_66\n      jumpi\n        /* \"#utility.yul\":1735:1814   */\n      tag_67\n      tag_60\n      jump\t// in\n    tag_67:\n        /* \"#utility.yul\":1697:1816   */\n    tag_66:\n        /* \"#utility.yul\":1883:1884   */\n      0x00\n        /* \"#utility.yul\":1872:1881   */\n      dup4\n        /* \"#utility.yul\":1868:1885   */\n      add\n        /* \"#utility.yul\":1855:1886   */\n      calldataload\n        /* \"#utility.yul\":1913:1931   */\n      0xffffffffffffffff\n        /* \"#utility.yul\":1905:1911   */\n      dup2\n        /* \"#utility.yul\":1902:1932   */\n      gt\n        /* \"#utility.yul\":1899:2016   */\n      iszero\n      tag_68\n      jumpi\n        /* \"#utility.yul\":1935:2014   */\n      tag_69\n      tag_63\n      jump\t// in\n    tag_69:\n        /* \"#utility.yul\":1899:2016   */\n    tag_68:\n        /* \"#utility.yul\":2040:2103   */\n      tag_70\n        /* \"#utility.yul\":2095:2102   */\n      dup6\n        /* \"#utility.yul\":2086:2092   */\n      dup3\n        /* \"#utility.yul\":2075:2084   */\n      dup7\n        /* \"#utility.yul\":2071:2093   */\n      add\n        /* \"#utility.yul\":2040:2103   */\n      tag_44\n      jump\t// in\n    tag_70:\n        /* \"#utility.yul\":2030:2103   */\n      swap3\n      pop\n        /* \"#utility.yul\":1826:2113   */\n      pop\n        /* \"#utility.yul\":2152:2154   */\n      0x20\n        /* \"#utility.yul\":2178:2231   */\n      tag_71\n        /* \"#utility.yul\":2223:2230   */\n      dup6\n        /* \"#utility.yul\":2214:2220   */\n      dup3\n        /* \"#utility.yul\":2203:2212   */\n      dup7\n        /* \"#utility.yul\":2199:2221   */\n      add\n        /* \"#utility.yul\":2178:2231   */\n      tag_50\n      jump\t// in\n    tag_71:\n        /* \"#utility.yul\":2168:2231   */\n      swap2\n      pop\n        /* \"#utility.yul\":2123:2241   */\n      pop\n        /* \"#utility.yul\":1594:2248   */\n      swap3\n      pop\n      swap3\n      swap1\n      pop\n      jump\t// out\n        /* \"#utility.yul\":2254:2605   */\n    tag_31:\n        /* \"#utility.yul\":2324:2330   */\n      0x00\n        /* \"#utility.yul\":2373:2375   */\n      0x20\n        /* \"#utility.yul\":2361:2370   */\n      dup3\n        /* \"#utility.yul\":2352:2359   */\n      dup5\n        /* \"#utility.yul\":2348:2371   */\n      sub\n        /* \"#utility.yul\":2344:2376   */\n      slt\n        /* \"#utility.yul\":2341:2460   */\n      iszero\n      tag_73\n      jumpi\n        /* \"#utility.yul\":2379:2458   */\n      tag_74\n      tag_60\n      jump\t// in\n    tag_74:\n        /* \"#utility.yul\":2341:2460   */\n    tag_73:\n        /* \"#utility.yul\":2499:2500   */\n      0x00\n        /* \"#utility.yul\":2524:2588   */\n      tag_75\n        /* \"#utility.yul\":2580:2587   */\n      dup5\n        /* \"#utility.yul\":2571:2577   */\n      dup3\n        /* \"#utility.yul\":2560:2569   */\n      dup6\n        /* \"#utility.yul\":2556:2578   */\n      add\n        /* \"#utility.yul\":2524:2588   */\n      tag_54\n      jump\t// in\n    tag_75:\n        /* \"#utility.yul\":2514:2588   */\n      swap2\n      pop\n        /* \"#utility.yul\":2470:2598   */\n      pop\n        /* \"#utility.yul\":2254:2605   */\n      swap3\n      swap2\n      pop\n      pop\n      jump\t// out\n        /* \"#utility.yul\":2611:2729   */\n    tag_76:\n        /* \"#utility.yul\":2698:2722   */\n      tag_78\n        /* \"#utility.yul\":2716:2721   */\n      dup2\n        /* \"#utility.yul\":2698:2722   */\n      tag_79\n      jump\t// in\n    tag_78:\n        /* \"#utility.yul\":2693:2696   */\n      dup3\n        /* \"#utility.yul\":2686:2723   */\n      mstore\n        /* \"#utility.yul\":2611:2729   */\n      pop\n      pop\n      jump\t// out\n        /* \"#utility.yul\":2735:3112   */\n    tag_80:\n        /* \"#utility.yul\":2841:2844   */\n      0x00\n        /* \"#utility.yul\":2869:2908   */\n      tag_82\n        /* \"#utility.yul\":2902:2907   */\n      dup3\n        /* \"#utility.yul\":2869:2908   */\n      tag_83\n      jump\t// in\n    tag_82:\n        /* \"#utility.yul\":2924:3013   */\n      tag_84\n        /* \"#utility.yul\":3006:3012   */\n      dup2\n        /* \"#utility.yul\":3001:3004   */\n      dup6\n        /* \"#utility.yul\":2924:3013   */\n      tag_85\n      jump\t// in\n    tag_84:\n        /* \"#utility.yul\":2917:3013   */\n      swap4\n      pop\n        /* \"#utility.yul\":3022:3074   */\n      tag_86\n        /* \"#utility.yul\":3067:3073   */\n      dup2\n        /* \"#utility.yul\":3062:3065   */\n      dup6\n        /* \"#utility.yul\":3055:3059   */\n      0x20\n        /* \"#utility.yul\":3048:3053   */\n      dup7\n        /* \"#utility.yul\":3044:3060   */\n      add\n        /* \"#utility.yul\":3022:3074   */\n      tag_87\n      jump\t// in\n    tag_86:\n        /* \"#utility.yul\":3099:3105   */\n      dup1\n        /* \"#utility.yul\":3094:3097   */\n      dup5\n        /* \"#utility.yul\":3090:3106   */\n      add\n        /* \"#utility.yul\":3083:3106   */\n      swap2\n      pop\n        /* \"#utility.yul\":2845:3112   */\n      pop\n        /* \"#utility.yul\":2735:3112   */\n      swap3\n      swap2\n      pop\n      pop\n      jump\t// out\n        /* \"#utility.yul\":3118:3518   */\n    tag_88:\n        /* \"#utility.yul\":3278:3281   */\n      0x00\n        /* \"#utility.yul\":3299:3383   */\n      tag_90\n        /* \"#utility.yul\":3381:3382   */\n      0x09\n        /* \"#utility.yul\":3376:3379   */\n      dup4\n        /* \"#utility.yul\":3299:3383   */\n      tag_85\n      jump\t// in\n    tag_90:\n        /* \"#utility.yul\":3292:3383   */\n      swap2\n      pop\n        /* \"#utility.yul\":3392:3485   */\n      tag_91\n        /* \"#utility.yul\":3481:3484   */\n      dup3\n        /* \"#utility.yul\":3392:3485   */\n      tag_92\n      jump\t// in\n    tag_91:\n        /* \"#utility.yul\":3510:3511   */\n      0x09\n        /* \"#utility.yul\":3505:3508   */\n      dup3\n        /* \"#utility.yul\":3501:3512   */\n      add\n        /* \"#utility.yul\":3494:3512   */\n      swap1\n      pop\n        /* \"#utility.yul\":3118:3518   */\n      swap2\n      swap1\n      pop\n      jump\t// out\n        /* \"#utility.yul\":3524:3642   */\n    tag_93:\n        /* \"#utility.yul\":3611:3635   */\n      tag_95\n        /* \"#utility.yul\":3629:3634   */\n      dup2\n        /* \"#utility.yul\":3611:3635   */\n      tag_96\n      jump\t// in\n    tag_95:\n        /* \"#utility.yul\":3606:3609   */\n      dup3\n        /* \"#utility.yul\":3599:3636   */\n      mstore\n        /* \"#utility.yul\":3524:3642   */\n      pop\n      pop\n      jump\t// out\n        /* \"#utility.yul\":3648:4189   */\n    tag_17:\n        /* \"#utility.yul\":3881:3884   */\n      0x00\n        /* \"#utility.yul\":3903:4051   */\n      tag_98\n        /* \"#utility.yul\":4047:4050   */\n      dup3\n        /* \"#utility.yul\":3903:4051   */\n      tag_88\n      jump\t// in\n    tag_98:\n        /* \"#utility.yul\":3896:4051   */\n      swap2\n      pop\n        /* \"#utility.yul\":4068:4163   */\n      tag_99\n        /* \"#utility.yul\":4159:4162   */\n      dup3\n        /* \"#utility.yul\":4150:4156   */\n      dup5\n        /* \"#utility.yul\":4068:4163   */\n      tag_80\n      jump\t// in\n    tag_99:\n        /* \"#utility.yul\":4061:4163   */\n      swap2\n      pop\n        /* \"#utility.yul\":4180:4183   */\n      dup2\n        /* \"#utility.yul\":4173:4183   */\n      swap1\n      pop\n        /* \"#utility.yul\":3648:4189   */\n      swap3\n      swap2\n      pop\n      pop\n      jump\t// out\n        /* \"#utility.yul\":4195:4417   */\n    tag_26:\n        /* \"#utility.yul\":4288:4292   */\n      0x00\n        /* \"#utility.yul\":4326:4328   */\n      0x20\n        /* \"#utility.yul\":4315:4324   */\n      dup3\n        /* \"#utility.yul\":4311:4329   */\n      add\n        /* \"#utility.yul\":4303:4329   */\n      swap1\n      pop\n        /* \"#utility.yul\":4339:4410   */\n      tag_101\n        /* \"#utility.yul\":4407:4408   */\n      0x00\n        /* \"#utility.yul\":4396:4405   */\n      dup4\n        /* \"#utility.yul\":4392:4409   */\n      add\n        /* \"#utility.yul\":4383:4389   */\n      dup5\n        /* \"#utility.yul\":4339:4410   */\n      tag_76\n      jump\t// in\n    tag_101:\n        /* \"#utility.yul\":4195:4417   */\n      swap3\n      swap2\n      pop\n      pop\n      jump\t// out\n        /* \"#utility.yul\":4423:4755   */\n    tag_19:\n        /* \"#utility.yul\":4544:4548   */\n      0x00\n        /* \"#utility.yul\":4582:4584   */\n      0x40\n        /* \"#utility.yul\":4571:4580   */\n      dup3\n        /* \"#utility.yul\":4567:4585   */\n      add\n        /* \"#utility.yul\":4559:4585   */\n      swap1\n      pop\n        /* \"#utility.yul\":4595:4666   */\n      tag_103\n        /* \"#utility.yul\":4663:4664   */\n      0x00\n        /* \"#utility.yul\":4652:4661   */\n      dup4\n        /* \"#utility.yul\":4648:4665   */\n      add\n        /* \"#utility.yul\":4639:4645   */\n      dup6\n        /* \"#utility.yul\":4595:4666   */\n      tag_76\n      jump\t// in\n    tag_103:\n        /* \"#utility.yul\":4676:4748   */\n      tag_104\n        /* \"#utility.yul\":4744:4746   */\n      0x20\n        /* \"#utility.yul\":4733:4742   */\n      dup4\n        /* \"#utility.yul\":4729:4747   */\n      add\n        /* \"#utility.yul\":4720:4726   */\n      dup5\n        /* \"#utility.yul\":4676:4748   */\n      tag_93\n      jump\t// in\n    tag_104:\n        /* \"#utility.yul\":4423:4755   */\n      swap4\n      swap3\n      pop\n      pop\n      pop\n      jump\t// out\n        /* \"#utility.yul\":4761:4983   */\n    tag_14:\n        /* \"#utility.yul\":4854:4858   */\n      0x00\n        /* \"#utility.yul\":4892:4894   */\n      0x20\n        /* \"#utility.yul\":4881:4890   */\n      dup3\n        /* \"#utility.yul\":4877:4895   */\n      add\n        /* \"#utility.yul\":4869:4895   */\n      swap1\n      pop\n        /* \"#utility.yul\":4905:4976   */\n      tag_106\n        /* \"#utility.yul\":4973:4974   */\n      0x00\n        /* \"#utility.yul\":4962:4971   */\n      dup4\n        /* \"#utility.yul\":4958:4975   */\n      add\n        /* \"#utility.yul\":4949:4955   */\n      dup5\n        /* \"#utility.yul\":4905:4976   */\n      tag_93\n      jump\t// in\n    tag_106:\n        /* \"#utility.yul\":4761:4983   */\n      swap3\n      swap2\n      pop\n      pop\n      jump\t// out\n        /* \"#utility.yul\":4989:5118   */\n    tag_38:\n        /* \"#utility.yul\":5023:5029   */\n      0x00\n        /* \"#utility.yul\":5050:5070   */\n      tag_108\n      tag_109\n      jump\t// in\n    tag_108:\n        /* \"#utility.yul\":5040:5070   */\n      swap1\n      pop\n        /* \"#utility.yul\":5079:5112   */\n      tag_110\n        /* \"#utility.yul\":5107:5111   */\n      dup3\n        /* \"#utility.yul\":5099:5105   */\n      dup3\n        /* \"#utility.yul\":5079:5112   */\n      tag_111\n      jump\t// in\n    tag_110:\n        /* \"#utility.yul\":4989:5118   */\n      swap2\n      swap1\n      pop\n      jump\t// out\n        /* \"#utility.yul\":5124:5199   */\n    tag_109:\n        /* \"#utility.yul\":5157:5163   */\n      0x00\n        /* \"#utility.yul\":5190:5192   */\n      0x40\n        /* \"#utility.yul\":5184:5193   */\n      mload\n        /* \"#utility.yul\":5174:5193   */\n      swap1\n      pop\n        /* \"#utility.yul\":5124:5199   */\n      swap1\n      jump\t// out\n        /* \"#utility.yul\":5205:5513   */\n    tag_37:\n        /* \"#utility.yul\":5267:5271   */\n      0x00\n        /* \"#utility.yul\":5357:5375   */\n      0xffffffffffffffff\n        /* \"#utility.yul\":5349:5355   */\n      dup3\n        /* \"#utility.yul\":5346:5376   */\n      gt\n        /* \"#utility.yul\":5343:5399   */\n      iszero\n      tag_114\n      jumpi\n        /* \"#utility.yul\":5379:5397   */\n      tag_115\n      tag_116\n      jump\t// in\n    tag_115:\n        /* \"#utility.yul\":5343:5399   */\n    tag_114:\n        /* \"#utility.yul\":5417:5446   */\n      tag_117\n        /* \"#utility.yul\":5439:5445   */\n      dup3\n        /* \"#utility.yul\":5417:5446   */\n      tag_118\n      jump\t// in\n    tag_117:\n        /* \"#utility.yul\":5409:5446   */\n      swap1\n      pop\n        /* \"#utility.yul\":5501:5505   */\n      0x20\n        /* \"#utility.yul\":5495:5499   */\n      dup2\n        /* \"#utility.yul\":5491:5506   */\n      add\n        /* \"#utility.yul\":5483:5506   */\n      swap1\n      pop\n        /* \"#utility.yul\":5205:5513   */\n      swap2\n      swap1\n      pop\n      jump\t// out\n        /* \"#utility.yul\":5519:5618   */\n    tag_83:\n        /* \"#utility.yul\":5571:5577   */\n      0x00\n        /* \"#utility.yul\":5605:5610   */\n      dup2\n        /* \"#utility.yul\":5599:5611   */\n      mload\n        /* \"#utility.yul\":5589:5611   */\n      swap1\n      pop\n        /* \"#utility.yul\":5519:5618   */\n      swap2\n      swap1\n      pop\n      jump\t// out\n        /* \"#utility.yul\":5624:5772   */\n    tag_85:\n        /* \"#utility.yul\":5726:5737   */\n      0x00\n        /* \"#utility.yul\":5763:5766   */\n      dup2\n        /* \"#utility.yul\":5748:5766   */\n      swap1\n      pop\n        /* \"#utility.yul\":5624:5772   */\n      swap3\n      swap2\n      pop\n      pop\n      jump\t// out\n        /* \"#utility.yul\":5778:5855   */\n    tag_79:\n        /* \"#utility.yul\":5815:5822   */\n      0x00\n        /* \"#utility.yul\":5844:5849   */\n      dup2\n        /* \"#utility.yul\":5833:5849   */\n      swap1\n      pop\n        /* \"#utility.yul\":5778:5855   */\n      swap2\n      swap1\n      pop\n      jump\t// out\n        /* \"#utility.yul\":5861:5938   */\n    tag_96:\n        /* \"#utility.yul\":5898:5905   */\n      0x00\n        /* \"#utility.yul\":5927:5932   */\n      dup2\n        /* \"#utility.yul\":5916:5932   */\n      swap1\n      pop\n        /* \"#utility.yul\":5861:5938   */\n      swap2\n      swap1\n      pop\n      jump\t// out\n        /* \"#utility.yul\":5944:6098   */\n    tag_43:\n        /* \"#utility.yul\":6028:6034   */\n      dup3\n        /* \"#utility.yul\":6023:6026   */\n      dup2\n        /* \"#utility.yul\":6018:6021   */\n      dup4\n        /* \"#utility.yul\":6005:6035   */\n      calldatacopy\n        /* \"#utility.yul\":6090:6091   */\n      0x00\n        /* \"#utility.yul\":6081:6087   */\n      dup4\n        /* \"#utility.yul\":6076:6079   */\n      dup4\n        /* \"#utility.yul\":6072:6088   */\n      add\n        /* \"#utility.yul\":6065:6092   */\n      mstore\n        /* \"#utility.yul\":5944:6098   */\n      pop\n      pop\n      pop\n      jump\t// out\n        /* \"#utility.yul\":6104:6411   */\n    tag_87:\n        /* \"#utility.yul\":6172:6173   */\n      0x00\n        /* \"#utility.yul\":6182:6295   */\n    tag_125:\n        /* \"#utility.yul\":6196:6202   */\n      dup4\n        /* \"#utility.yul\":6193:6194   */\n      dup2\n        /* \"#utility.yul\":6190:6203   */\n      lt\n        /* \"#utility.yul\":6182:6295   */\n      iszero\n      tag_127\n      jumpi\n        /* \"#utility.yul\":6281:6282   */\n      dup1\n        /* \"#utility.yul\":6276:6279   */\n      dup3\n        /* \"#utility.yul\":6272:6283   */\n      add\n        /* \"#utility.yul\":6266:6284   */\n      mload\n        /* \"#utility.yul\":6262:6263   */\n      dup2\n        /* \"#utility.yul\":6257:6260   */\n      dup5\n        /* \"#utility.yul\":6253:6264   */\n      add\n        /* \"#utility.yul\":6246:6285   */\n      mstore\n        /* \"#utility.yul\":6218:6220   */\n      0x20\n        /* \"#utility.yul\":6215:6216   */\n      dup2\n        /* \"#utility.yul\":6211:6221   */\n      add\n        /* \"#utility.yul\":6206:6221   */\n      swap1\n      pop\n        /* \"#utility.yul\":6182:6295   */\n      jump(tag_125)\n    tag_127:\n        /* \"#utility.yul\":6313:6319   */\n      dup4\n        /* \"#utility.yul\":6310:6311   */\n      dup2\n        /* \"#utility.yul\":6307:6320   */\n      gt\n        /* \"#utility.yul\":6304:6405   */\n      iszero\n      tag_128\n      jumpi\n        /* \"#utility.yul\":6393:6394   */\n      0x00\n        /* \"#utility.yul\":6384:6390   */\n      dup5\n        /* \"#utility.yul\":6379:6382   */\n      dup5\n        /* \"#utility.yul\":6375:6391   */\n      add\n        /* \"#utility.yul\":6368:6395   */\n      mstore\n        /* \"#utility.yul\":6304:6405   */\n    tag_128:\n        /* \"#utility.yul\":6153:6411   */\n      pop\n        /* \"#utility.yul\":6104:6411   */\n      pop\n      pop\n      pop\n      jump\t// out\n        /* \"#utility.yul\":6417:6698   */\n    tag_111:\n        /* \"#utility.yul\":6500:6527   */\n      tag_130\n        /* \"#utility.yul\":6522:6526   */\n      dup3\n        /* \"#utility.yul\":6500:6527   */\n      tag_118\n      jump\t// in\n    tag_130:\n        /* \"#utility.yul\":6492:6498   */\n      dup2\n        /* \"#utility.yul\":6488:6528   */\n      add\n        /* \"#utility.yul\":6630:6636   */\n      dup2\n        /* \"#utility.yul\":6618:6628   */\n      dup2\n        /* \"#utility.yul\":6615:6637   */\n      lt\n        /* \"#utility.yul\":6594:6612   */\n      0xffffffffffffffff\n        /* \"#utility.yul\":6582:6592   */\n      dup3\n        /* \"#utility.yul\":6579:6613   */\n      gt\n        /* \"#utility.yul\":6576:6638   */\n      or\n        /* \"#utility.yul\":6573:6661   */\n      iszero\n      tag_131\n      jumpi\n        /* \"#utility.yul\":6641:6659   */\n      tag_132\n      tag_116\n      jump\t// in\n    tag_132:\n        /* \"#utility.yul\":6573:6661   */\n    tag_131:\n        /* \"#utility.yul\":6681:6691   */\n      dup1\n        /* \"#utility.yul\":6677:6679   */\n      0x40\n        /* \"#utility.yul\":6670:6692   */\n      mstore\n        /* \"#utility.yul\":6460:6698   */\n      pop\n        /* \"#utility.yul\":6417:6698   */\n      pop\n      pop\n      jump\t// out\n        /* \"#utility.yul\":6704:6884   */\n    tag_116:\n        /* \"#utility.yul\":6752:6829   */\n      0x4e487b7100000000000000000000000000000000000000000000000000000000\n        /* \"#utility.yul\":6749:6750   */\n      0x00\n        /* \"#utility.yul\":6742:6830   */\n      mstore\n        /* \"#utility.yul\":6849:6853   */\n      0x41\n        /* \"#utility.yul\":6846:6847   */\n      0x04\n        /* \"#utility.yul\":6839:6854   */\n      mstore\n        /* \"#utility.yul\":6873:6877   */\n      0x24\n        /* \"#utility.yul\":6870:6871   */\n      0x00\n        /* \"#utility.yul\":6863:6878   */\n      revert\n        /* \"#utility.yul\":6890:7007   */\n    tag_48:\n        /* \"#utility.yul\":6999:7000   */\n      0x00\n        /* \"#utility.yul\":6996:6997   */\n      dup1\n        /* \"#utility.yul\":6989:7001   */\n      revert\n        /* \"#utility.yul\":7013:7130   */\n    tag_41:\n        /* \"#utility.yul\":7122:7123   */\n      0x00\n        /* \"#utility.yul\":7119:7120   */\n      dup1\n        /* \"#utility.yul\":7112:7124   */\n      revert\n        /* \"#utility.yul\":7136:7253   */\n    tag_63:\n        /* \"#utility.yul\":7245:7246   */\n      0x00\n        /* \"#utility.yul\":7242:7243   */\n      dup1\n        /* \"#utility.yul\":7235:7247   */\n      revert\n        /* \"#utility.yul\":7259:7376   */\n    tag_60:\n        /* \"#utility.yul\":7368:7369   */\n      0x00\n        /* \"#utility.yul\":7365:7366   */\n      dup1\n        /* \"#utility.yul\":7358:7370   */\n      revert\n        /* \"#utility.yul\":7382:7484   */\n    tag_118:\n        /* \"#utility.yul\":7423:7429   */\n      0x00\n        /* \"#utility.yul\":7474:7476   */\n      0x1f\n        /* \"#utility.yul\":7470:7477   */\n      not\n        /* \"#utility.yul\":7465:7467   */\n      0x1f\n        /* \"#utility.yul\":7458:7463   */\n      dup4\n        /* \"#utility.yul\":7454:7468   */\n      add\n        /* \"#utility.yul\":7450:7478   */\n      and\n        /* \"#utility.yul\":7440:7478   */\n      swap1\n      pop\n        /* \"#utility.yul\":7382:7484   */\n      swap2\n      swap1\n      pop\n      jump\t// out\n        /* \"#utility.yul\":7490:7649   */\n    tag_92:\n        /* \"#utility.yul\":7630:7641   */\n      0x736f6d655f646174610000000000000000000000000000000000000000000000\n        /* \"#utility.yul\":7626:7627   */\n      0x00\n        /* \"#utility.yul\":7618:7624   */\n      dup3\n        /* \"#utility.yul\":7614:7628   */\n      add\n        /* \"#utility.yul\":7607:7642   */\n      mstore\n        /* \"#utility.yul\":7490:7649   */\n      pop\n      jump\t// out\n        /* \"#utility.yul\":7655:7777   */\n    tag_53:\n        /* \"#utility.yul\":7728:7752   */\n      tag_141\n        /* \"#utility.yul\":7746:7751   */\n      dup2\n        /* \"#utility.yul\":7728:7752   */\n      tag_96\n      jump\t// in\n    tag_141:\n        /* \"#utility.yul\":7721:7726   */\n      dup2\n        /* \"#utility.yul\":7718:7753   */\n      eq\n        /* \"#utility.yul\":7708:7771   */\n      tag_142\n      jumpi\n        /* \"#utility.yul\":7767:7768   */\n      0x00\n        /* \"#utility.yul\":7764:7765   */\n      dup1\n        /* \"#utility.yul\":7757:7769   */\n      revert\n        /* \"#utility.yul\":7708:7771   */\n    tag_142:\n        /* \"#utility.yul\":7655:7777   */\n      pop\n      jump\t// out\n\n    auxdata: 0xa2646970667358221220b7fc72fe969f7299429df24672429659f2c4d0588f7e62d2863056a67cb8ab8664736f6c63430008070033\n}\n",
				"bytecode": {
					"linkReferences": {},
					"object": "608060405234801561001057600080fd5b5060405161074a38038061074a8339818101604052810190610032919061008d565b806000806101000a81548173ffffffffffffffffffffffffffffffffffffffff021916908373ffffffffffffffffffffffffffffffffffffffff16021790555050610108565b600081519050610087816100f1565b92915050565b6000602082840312156100a3576100a26100ec565b5b60006100b184828501610078565b91505092915050565b60006100c5826100cc565b9050919050565b600073ffffffffffffffffffffffffffffffffffffffff82169050919050565b600080fd5b6100fa816100ba565b811461010557600080fd5b50565b610633806101176000396000f3fe608060405234801561001057600080fd5b50600436106100365760003560e01c806384478a1c1461003b578063f295810114610057575b600080fd5b610055600480360381019061005091906102fa565b610087565b005b610071600480360381019061006c91906102b1565b61013e565b60405161007e919061045b565b60405180910390f35b60008054906101000a900473ffffffffffffffffffffffffffffffffffffffff1673ffffffffffffffffffffffffffffffffffffffff1663e2a4853a836040516020016100d491906103f5565b60405160208183030381529060405280519060200120836040518363ffffffff1660e01b8152600401610108929190610432565b600060405180830381600087803b15801561012257600080fd5b505af1158015610136573d6000803e3d6000fd5b505050505050565b60008060009054906101000a900473ffffffffffffffffffffffffffffffffffffffff1673ffffffffffffffffffffffffffffffffffffffff1663bd02d0f58360405160200161018e91906103f5565b604051602081830303815290604052805190602001206040518263ffffffff1660e01b81526004016101c09190610417565b60206040518083038186803b1580156101d857600080fd5b505afa1580156101ec573d6000803e3d6000fd5b505050506040513d601f19601f820116820180604052508101906102109190610356565b9050919050565b600061022a6102258461049b565b610476565b9050828152602081018484840111156102465761024561059d565b5b6102518482856104f6565b509392505050565b600082601f83011261026e5761026d610598565b5b813561027e848260208601610217565b91505092915050565b600081359050610296816105e6565b92915050565b6000815190506102ab816105e6565b92915050565b6000602082840312156102c7576102c66105a7565b5b600082013567ffffffffffffffff8111156102e5576102e46105a2565b5b6102f184828501610259565b91505092915050565b60008060408385031215610311576103106105a7565b5b600083013567ffffffffffffffff81111561032f5761032e6105a2565b5b61033b85828601610259565b925050602061034c85828601610287565b9150509250929050565b60006020828403121561036c5761036b6105a7565b5b600061037a8482850161029c565b91505092915050565b61038c816104e2565b82525050565b600061039d826104cc565b6103a781856104d7565b93506103b7818560208601610505565b80840191505092915050565b60006103d06009836104d7565b91506103db826105bd565b600982019050919050565b6103ef816104ec565b82525050565b6000610400826103c3565b915061040c8284610392565b915081905092915050565b600060208201905061042c6000830184610383565b92915050565b60006040820190506104476000830185610383565b61045460208301846103e6565b9392505050565b600060208201905061047060008301846103e6565b92915050565b6000610480610491565b905061048c8282610538565b919050565b6000604051905090565b600067ffffffffffffffff8211156104b6576104b5610569565b5b6104bf826105ac565b9050602081019050919050565b600081519050919050565b600081905092915050565b6000819050919050565b6000819050919050565b82818337600083830152505050565b60005b83811015610523578082015181840152602081019050610508565b83811115610532576000848401525b50505050565b610541826105ac565b810181811067ffffffffffffffff821117156105605761055f610569565b5b80604052505050565b7f4e487b7100000000000000000000000000000000000000000000000000000000600052604160045260246000fd5b600080fd5b600080fd5b600080fd5b600080fd5b6000601f19601f8301169050919050565b7f736f6d655f646174610000000000000000000000000000000000000000000000600082015250565b6105ef816104ec565b81146105fa57600080fd5b5056fea2646970667358221220b7fc72fe969f7299429df24672429659f2c4d0588f7e62d2863056a67cb8ab8664736f6c63430008070033",
					"opcodes": "PUSH1 0x80 PUSH1 0x40 MSTORE CALLVALUE DUP1 ISZERO PUSH2 0x10 JUMPI PUSH1 0x0 DUP1 REVERT JUMPDEST POP PUSH1 0x40 MLOAD PUSH2 0x74A CODESIZE SUB DUP1 PUSH2 0x74A DUP4 CODECOPY DUP2 DUP2 ADD PUSH1 0x40 MSTORE DUP2 ADD SWAP1 PUSH2 0x32 SWAP2 SWAP1 PUSH2 0x8D JUMP JUMPDEST DUP1 PUSH1 0x0 DUP1 PUSH2 0x100 EXP DUP2 SLOAD DUP2 PUSH20 0xFFFFFFFFFFFFFFFFFFFFFFFFFFFFFFFFFFFFFFFF MUL NOT AND SWAP1 DUP4 PUSH20 0xFFFFFFFFFFFFFFFFFFFFFFFFFFFFFFFFFFFFFFFF AND MUL OR SWAP1 SSTORE POP POP PUSH2 0x108 JUMP JUMPDEST PUSH1 0x0 DUP2 MLOAD SWAP1 POP PUSH2 0x87 DUP2 PUSH2 0xF1 JUMP JUMPDEST SWAP3 SWAP2 POP POP JUMP JUMPDEST PUSH1 0x0 PUSH1 0x20 DUP3 DUP5 SUB SLT ISZERO PUSH2 0xA3 JUMPI PUSH2 0xA2 PUSH2 0xEC JUMP JUMPDEST JUMPDEST PUSH1 0x0 PUSH2 0xB1 DUP5 DUP3 DUP6 ADD PUSH2 0x78 JUMP JUMPDEST SWAP2 POP POP SWAP3 SWAP2 POP POP JUMP JUMPDEST PUSH1 0x0 PUSH2 0xC5 DUP3 PUSH2 0xCC JUMP JUMPDEST SWAP1 POP SWAP2 SWAP1 POP JUMP JUMPDEST PUSH1 0x0 PUSH20 0xFFFFFFFFFFFFFFFFFFFFFFFFFFFFFFFFFFFFFFFF DUP3 AND SWAP1 POP SWAP2 SWAP1 POP JUMP JUMPDEST PUSH1 0x0 DUP1 REVERT JUMPDEST PUSH2 0xFA DUP2 PUSH2 0xBA JUMP JUMPDEST DUP2 EQ PUSH2 0x105 JUMPI PUSH1 0x0 DUP1 REVERT JUMPDEST POP JUMP JUMPDEST PUSH2 0x633 DUP1 PUSH2 0x117 PUSH1 0x0 CODECOPY PUSH1 0x0 RETURN INVALID PUSH1 0x80 PUSH1 0x40 MSTORE CALLVALUE DUP1 ISZERO PUSH2 0x10 JUMPI PUSH1 0x0 DUP1 REVERT JUMPDEST POP PUSH1 0x4 CALLDATASIZE LT PUSH2 0x36 JUMPI PUSH1 0x0 CALLDATALOAD PUSH1 0xE0 SHR DUP1 PUSH4 0x84478A1C EQ PUSH2 0x3B JUMPI DUP1 PUSH4 0xF2958101 EQ PUSH2 0x57 JUMPI JUMPDEST PUSH1 0x0 DUP1 REVERT JUMPDEST PUSH2 0x55 PUSH1 0x4 DUP1 CALLDATASIZE SUB DUP2 ADD SWAP1 PUSH2 0x50 SWAP2 SWAP1 PUSH2 0x2FA JUMP JUMPDEST PUSH2 0x87 JUMP JUMPDEST STOP JUMPDEST PUSH2 0x71 PUSH1 0x4 DUP1 CALLDATASIZE SUB DUP2 ADD SWAP1 PUSH2 0x6C SWAP2 SWAP1 PUSH2 0x2B1 JUMP JUMPDEST PUSH2 0x13E JUMP JUMPDEST PUSH1 0x40 MLOAD PUSH2 0x7E SWAP2 SWAP1 PUSH2 0x45B JUMP JUMPDEST PUSH1 0x40 MLOAD DUP1 SWAP2 SUB SWAP1 RETURN JUMPDEST PUSH1 0x0 DUP1 SLOAD SWAP1 PUSH2 0x100 EXP SWAP1 DIV PUSH20 0xFFFFFFFFFFFFFFFFFFFFFFFFFFFFFFFFFFFFFFFF AND PUSH20 0xFFFFFFFFFFFFFFFFFFFFFFFFFFFFFFFFFFFFFFFF AND PUSH4 0xE2A4853A DUP4 PUSH1 0x40 MLOAD PUSH1 0x20 ADD PUSH2 0xD4 SWAP2 SWAP1 PUSH2 0x3F5 JUMP JUMPDEST PUSH1 0x40 MLOAD PUSH1 0x20 DUP2 DUP4 SUB SUB DUP2 MSTORE SWAP1 PUSH1 0x40 MSTORE DUP1 MLOAD SWAP1 PUSH1 0x20 ADD KECCAK256 DUP4 PUSH1 0x40 MLOAD DUP4 PUSH4 0xFFFFFFFF AND PUSH1 0xE0 SHL DUP2 MSTORE PUSH1 0x4 ADD PUSH2 0x108 SWAP3 SWAP2 SWAP1 PUSH2 0x432 JUMP JUMPDEST PUSH1 0x0 PUSH1 0x40 MLOAD DUP1 DUP4 SUB DUP2 PUSH1 0x0 DUP8 DUP1 EXTCODESIZE ISZERO DUP1 ISZERO PUSH2 0x122 JUMPI PUSH1 0x0 DUP1 REVERT JUMPDEST POP GAS CALL ISZERO DUP1 ISZERO PUSH2 0x136 JUMPI RETURNDATASIZE PUSH1 0x0 DUP1 RETURNDATACOPY RETURNDATASIZE PUSH1 0x0 REVERT JUMPDEST POP POP POP POP POP POP JUMP JUMPDEST PUSH1 0x0 DUP1 PUSH1 0x0 SWAP1 SLOAD SWAP1 PUSH2 0x100 EXP SWAP1 DIV PUSH20 0xFFFFFFFFFFFFFFFFFFFFFFFFFFFFFFFFFFFFFFFF AND PUSH20 0xFFFFFFFFFFFFFFFFFFFFFFFFFFFFFFFFFFFFFFFF AND PUSH4 0xBD02D0F5 DUP4 PUSH1 0x40 MLOAD PUSH1 0x20 ADD PUSH2 0x18E SWAP2 SWAP1 PUSH2 0x3F5 JUMP JUMPDEST PUSH1 0x40 MLOAD PUSH1 0x20 DUP2 DUP4 SUB SUB DUP2 MSTORE SWAP1 PUSH1 0x40 MSTORE DUP1 MLOAD SWAP1 PUSH1 0x20 ADD KECCAK256 PUSH1 0x40 MLOAD DUP3 PUSH4 0xFFFFFFFF AND PUSH1 0xE0 SHL DUP2 MSTORE PUSH1 0x4 ADD PUSH2 0x1C0 SWAP2 SWAP1 PUSH2 0x417 JUMP JUMPDEST PUSH1 0x20 PUSH1 0x40 MLOAD DUP1 DUP4 SUB DUP2 DUP7 DUP1 EXTCODESIZE ISZERO DUP1 ISZERO PUSH2 0x1D8 JUMPI PUSH1 0x0 DUP1 REVERT JUMPDEST POP GAS STATICCALL ISZERO DUP1 ISZERO PUSH2 0x1EC JUMPI RETURNDATASIZE PUSH1 0x0 DUP1 RETURNDATACOPY RETURNDATASIZE PUSH1 0x0 REVERT JUMPDEST POP POP POP POP PUSH1 0x40 MLOAD RETURNDATASIZE PUSH1 0x1F NOT PUSH1 0x1F DUP3 ADD AND DUP3 ADD DUP1 PUSH1 0x40 MSTORE POP DUP2 ADD SWAP1 PUSH2 0x210 SWAP2 SWAP1 PUSH2 0x356 JUMP JUMPDEST SWAP1 POP SWAP2 SWAP1 POP JUMP JUMPDEST PUSH1 0x0 PUSH2 0x22A PUSH2 0x225 DUP5 PUSH2 0x49B JUMP JUMPDEST PUSH2 0x476 JUMP JUMPDEST SWAP1 POP DUP3 DUP2 MSTORE PUSH1 0x20 DUP2 ADD DUP5 DUP5 DUP5 ADD GT ISZERO PUSH2 0x246 JUMPI PUSH2 0x245 PUSH2 0x59D JUMP JUMPDEST JUMPDEST PUSH2 0x251 DUP5 DUP3 DUP6 PUSH2 0x4F6 JUMP JUMPDEST POP SWAP4 SWAP3 POP POP POP JUMP JUMPDEST PUSH1 0x0 DUP3 PUSH1 0x1F DUP4 ADD SLT PUSH2 0x26E JUMPI PUSH2 0x26D PUSH2 0x598 JUMP JUMPDEST JUMPDEST DUP2 CALLDATALOAD PUSH2 0x27E DUP5 DUP3 PUSH1 0x20 DUP7 ADD PUSH2 0x217 JUMP JUMPDEST SWAP2 POP POP SWAP3 SWAP2 POP POP JUMP JUMPDEST PUSH1 0x0 DUP2 CALLDATALOAD SWAP1 POP PUSH2 0x296 DUP2 PUSH2 0x5E6 JUMP JUMPDEST SWAP3 SWAP2 POP POP JUMP JUMPDEST PUSH1 0x0 DUP2 MLOAD SWAP1 POP PUSH2 0x2AB DUP2 PUSH2 0x5E6 JUMP JUMPDEST SWAP3 SWAP2 POP POP JUMP JUMPDEST PUSH1 0x0 PUSH1 0x20 DUP3 DUP5 SUB SLT ISZERO PUSH2 0x2C7 JUMPI PUSH2 0x2C6 PUSH2 0x5A7 JUMP JUMPDEST JUMPDEST PUSH1 0x0 DUP3 ADD CALLDATALOAD PUSH8 0xFFFFFFFFFFFFFFFF DUP2 GT ISZERO PUSH2 0x2E5 JUMPI PUSH2 0x2E4 PUSH2 0x5A2 JUMP JUMPDEST JUMPDEST PUSH2 0x2F1 DUP5 DUP3 DUP6 ADD PUSH2 0x259 JUMP JUMPDEST SWAP2 POP POP SWAP3 SWAP2 POP POP JUMP JUMPDEST PUSH1 0x0 DUP1 PUSH1 0x40 DUP4 DUP6 SUB SLT ISZERO PUSH2 0x311 JUMPI PUSH2 0x310 PUSH2 0x5A7 JUMP JUMPDEST JUMPDEST PUSH1 0x0 DUP4 ADD CALLDATALOAD PUSH8 0xFFFFFFFFFFFFFFFF DUP2 GT ISZERO PUSH2 0x32F JUMPI PUSH2 0x32E PUSH2 0x5A2 JUMP JUMPDEST JUMPDEST PUSH2 0x33B DUP6 DUP3 DUP7 ADD PUSH2 0x259 JUMP JUMPDEST SWAP3 POP POP PUSH1 0x20 PUSH2 0x34C DUP6 DUP3 DUP7 ADD PUSH2 0x287 JUMP JUMPDEST SWAP2 POP POP SWAP3 POP SWAP3 SWAP1 POP JUMP JUMPDEST PUSH1 0x0 PUSH1 0x20 DUP3 DUP5 SUB SLT ISZERO PUSH2 0x36C JUMPI PUSH2 0x36B PUSH2 0x5A7 JUMP JUMPDEST JUMPDEST PUSH1 0x0 PUSH2 0x37A DUP5 DUP3 DUP6 ADD PUSH2 0x29C JUMP JUMPDEST SWAP2 POP POP SWAP3 SWAP2 POP POP JUMP JUMPDEST PUSH2 0x38C DUP2 PUSH2 0x4E2 JUMP JUMPDEST DUP3 MSTORE POP POP JUMP JUMPDEST PUSH1 0x0 PUSH2 0x39D DUP3 PUSH2 0x4CC JUMP JUMPDEST PUSH2 0x3A7 DUP2 DUP6 PUSH2 0x4D7 JUMP JUMPDEST SWAP4 POP PUSH2 0x3B7 DUP2 DUP6 PUSH1 0x20 DUP7 ADD PUSH2 0x505 JUMP JUMPDEST DUP1 DUP5 ADD SWAP2 POP POP SWAP3 SWAP2 POP POP JUMP JUMPDEST PUSH1 0x0 PUSH2 0x3D0 PUSH1 0x9 DUP4 PUSH2 0x4D7 JUMP JUMPDEST SWAP2 POP PUSH2 0x3DB DUP3 PUSH2 0x5BD JUMP JUMPDEST PUSH1 0x9 DUP3 ADD SWAP1 POP SWAP2 SWAP1 POP JUMP JUMPDEST PUSH2 0x3EF DUP2 PUSH2 0x4EC JUMP JUMPDEST DUP3 MSTORE POP POP JUMP JUMPDEST PUSH1 0x0 PUSH2 0x400 DUP3 PUSH2 0x3C3 JUMP JUMPDEST SWAP2 POP PUSH2 0x40C DUP3 DUP5 PUSH2 0x392 JUMP JUMPDEST SWAP2 POP DUP2 SWAP1 POP SWAP3 SWAP2 POP POP JUMP JUMPDEST PUSH1 0x0 PUSH1 0x20 DUP3 ADD SWAP1 POP PUSH2 0x42C PUSH1 0x0 DUP4 ADD DUP5 PUSH2 0x383 JUMP JUMPDEST SWAP3 SWAP2 POP POP JUMP JUMPDEST PUSH1 0x0 PUSH1 0x40 DUP3 ADD SWAP1 POP PUSH2 0x447 PUSH1 0x0 DUP4 ADD DUP6 PUSH2 0x383 JUMP JUMPDEST PUSH2 0x454 PUSH1 0x20 DUP4 ADD DUP5 PUSH2 0x3E6 JUMP JUMPDEST SWAP4 SWAP3 POP POP POP JUMP JUMPDEST PUSH1 0x0 PUSH1 0x20 DUP3 ADD SWAP1 POP PUSH2 0x470 PUSH1 0x0 DUP4 ADD DUP5 PUSH2 0x3E6 JUMP JUMPDEST SWAP3 SWAP2 POP POP JUMP JUMPDEST PUSH1 0x0 PUSH2 0x480 PUSH2 0x491 JUMP JUMPDEST SWAP1 POP PUSH2 0x48C DUP3 DUP3 PUSH2 0x538 JUMP JUMPDEST SWAP2 SWAP1 POP JUMP JUMPDEST PUSH1 0x0 PUSH1 0x40 MLOAD SWAP1 POP SWAP1 JUMP JUMPDEST PUSH1 0x0 PUSH8 0xFFFFFFFFFFFFFFFF DUP3 GT ISZERO PUSH2 0x4B6 JUMPI PUSH2 0x4B5 PUSH2 0x569 JUMP JUMPDEST JUMPDEST PUSH2 0x4BF DUP3 PUSH2 0x5AC JUMP JUMPDEST SWAP1 POP PUSH1 0x20 DUP2 ADD SWAP1 POP SWAP2 SWAP1 POP JUMP JUMPDEST PUSH1 0x0 DUP2 MLOAD SWAP1 POP SWAP2 SWAP1 POP JUMP JUMPDEST PUSH1 0x0 DUP2 SWAP1 POP SWAP3 SWAP2 POP POP JUMP JUMPDEST PUSH1 0x0 DUP2 SWAP1 POP SWAP2 SWAP1 POP JUMP JUMPDEST PUSH1 0x0 DUP2 SWAP1 POP SWAP2 SWAP1 POP JUMP JUMPDEST DUP3 DUP2 DUP4 CALLDATACOPY PUSH1 0x0 DUP4 DUP4 ADD MSTORE POP POP POP JUMP JUMPDEST PUSH1 0x0 JUMPDEST DUP4 DUP2 LT ISZERO PUSH2 0x523 JUMPI DUP1 DUP3 ADD MLOAD DUP2 DUP5 ADD MSTORE PUSH1 0x20 DUP2 ADD SWAP1 POP PUSH2 0x508 JUMP JUMPDEST DUP4 DUP2 GT ISZERO PUSH2 0x532 JUMPI PUSH1 0x0 DUP5 DUP5 ADD MSTORE JUMPDEST POP POP POP POP JUMP JUMPDEST PUSH2 0x541 DUP3 PUSH2 0x5AC JUMP JUMPDEST DUP2 ADD DUP2 DUP2 LT PUSH8 0xFFFFFFFFFFFFFFFF DUP3 GT OR ISZERO PUSH2 0x560 JUMPI PUSH2 0x55F PUSH2 0x569 JUMP JUMPDEST JUMPDEST DUP1 PUSH1 0x40 MSTORE POP POP POP JUMP JUMPDEST PUSH32 0x4E487B7100000000000000000000000000000000000000000000000000000000 PUSH1 0x0 MSTORE PUSH1 0x41 PUSH1 0x4 MSTORE PUSH1 0x24 PUSH1 0x0 REVERT JUMPDEST PUSH1 0x0 DUP1 REVERT JUMPDEST PUSH1 0x0 DUP1 REVERT JUMPDEST PUSH1 0x0 DUP1 REVERT JUMPDEST PUSH1 0x0 DUP1 REVERT JUMPDEST PUSH1 0x0 PUSH1 0x1F NOT PUSH1 0x1F DUP4 ADD AND SWAP1 POP SWAP2 SWAP1 POP JUMP JUMPDEST PUSH32 0x736F6D655F646174610000000000000000000000000000000000000000000000 PUSH1 0x0 DUP3 ADD MSTORE POP JUMP JUMPDEST PUSH2 0x5EF DUP2 PUSH2 0x4EC JUMP JUMPDEST DUP2 EQ PUSH2 0x5FA JUMPI PUSH1 0x0 DUP1 REVERT JUMPDEST POP JUMP INVALID LOG2 PUSH5 0x6970667358 0x22 SLT KECCAK256 0xB7 0xFC PUSH19 0xFE969F7299429DF24672429659F2C4D0588F7E PUSH3 0xD28630 JUMP 0xA6 PUSH29 0xB8AB8664736F6C63430008070033000000000000000000000000000000 "
				},
				"gasEstimates": {
					"creation": {
						"codeDepositCost": "317400",
						"executionCost": "infinite",
						"totalCost": "infinite"
					},
					"external": {
						"getSomeUint(string)": "infinite",
						"setSomeUint(string,uint256)": "infinite"
					}
				},
				"methodIdentifiers": {
					"getSomeUint(string)": "f2958101",
					"setSomeUint(string,uint256)": "84478a1c"
				}
			},
			"storageLayout": {
				"storage": [
					{
						"astId": 49,
						"contract": "logic_contr.sol:LogicSmartContract",
						"label": "data",
						"offset": 0,
						"slot": "0",
						"type": "t_contract(EternalStorage)43"
					}
				],
				"types": {
					"t_contract(EternalStorage)43": {
						"encoding": "inplace",
						"label": "contract EternalStorage",
						"numberOfBytes": "20"
					}
				}
			},
			"userdoc": {
				"kind": "user",
				"methods": {},
				"version": 1
			}
		}
	}
}