{
	"Storage.sol": {
		"GlobaLStorage": {
			"abi": [
				{
					"inputs": [
						{
							"internalType": "address",
							"name": "_logicContract",
							"type": "address"
						}
					],
					"stateMutability": "nonpayable",
					"type": "constructor"
				},
				{
					"inputs": [
						{
							"internalType": "uint256",
							"name": "",
							"type": "uint256"
						}
					],
					"name": "departments",
					"outputs": [
						{
							"internalType": "string",
							"name": "",
							"type": "string"
						}
					],
					"stateMutability": "view",
					"type": "function"
				},
				{
					"inputs": [
						{
							"internalType": "uint256",
							"name": "",
							"type": "uint256"
						}
					],
					"name": "laboratories",
					"outputs": [
						{
							"internalType": "string",
							"name": "",
							"type": "string"
						}
					],
					"stateMutability": "view",
					"type": "function"
				},
				{
					"inputs": [
						{
							"internalType": "uint256",
							"name": "",
							"type": "uint256"
						}
					],
					"name": "schoolSubjects",
					"outputs": [
						{
							"internalType": "string",
							"name": "",
							"type": "string"
						}
					],
					"stateMutability": "view",
					"type": "function"
				}
			],
			"devdoc": {
				"kind": "dev",
				"methods": {},
				"version": 1
			},
			"evm": {
				"assembly": "    /* \"Storage.sol\":36:6130  contract GlobaLStorage {\r... */\n  mstore(0x40, 0x80)\n    /* \"Storage.sol\":2470:6125  constructor(address _logicContract) {\r... */\n  callvalue\n  dup1\n  iszero\n  tag_1\n  jumpi\n  0x00\n  dup1\n  revert\ntag_1:\n  pop\n  mload(0x40)\n  sub(codesize, bytecodeSize)\n  dup1\n  bytecodeSize\n  dup4\n  codecopy\n  dup2\n  dup2\n  add\n  0x40\n  mstore\n  dup2\n  add\n  swap1\n  tag_2\n  swap2\n  swap1\n  tag_3\n  jump\t// in\ntag_2:\n    /* \"Storage.sol\":2547:2589  departments = [\"Not\", \"MathAndInformatic\"] */\n  mload(0x40)\n  dup1\n  0x40\n  add\n  0x40\n  mstore\n  dup1\n  mload(0x40)\n  dup1\n  0x40\n  add\n  0x40\n  mstore\n  dup1\n  0x03\n  dup2\n  mstore\n  0x20\n  add\n  0x4e6f740000000000000000000000000000000000000000000000000000000000\n  dup2\n  mstore\n  pop\n  dup2\n  mstore\n  0x20\n  add\n  mload(0x40)\n  dup1\n  0x40\n  add\n  0x40\n  mstore\n  dup1\n  0x11\n  dup2\n  mstore\n  0x20\n  add\n  0x4d617468416e64496e666f726d61746963000000000000000000000000000000\n  dup2\n  mstore\n  pop\n  dup2\n  mstore\n  pop\n    /* \"Storage.sol\":2547:2558  departments */\n  0x0a\n    /* \"Storage.sol\":2547:2589  departments = [\"Not\", \"MathAndInformatic\"] */\n  swap1\n  0x02\n  tag_6\n  swap3\n  swap2\n  swap1\n  tag_7\n  jump\t// in\ntag_6:\n  pop\n    /* \"Storage.sol\":2656:2727  schoolSubjects = [\"\", \"Math\", \"Physics\", \"Computer Science\", \"Russian\"] */\n  mload(0x40)\n  dup1\n  0xa0\n  add\n  0x40\n  mstore\n  dup1\n  mload(0x40)\n  dup1\n  0x20\n  add\n  0x40\n  mstore\n  dup1\n  0x00\n  dup2\n  mstore\n  pop\n  dup2\n  mstore\n  0x20\n  add\n  mload(0x40)\n  dup1\n  0x40\n  add\n  0x40\n  mstore\n  dup1\n  0x04\n  dup2\n  mstore\n  0x20\n  add\n  0x4d61746800000000000000000000000000000000000000000000000000000000\n  dup2\n  mstore\n  pop\n  dup2\n  mstore\n  0x20\n  add\n  mload(0x40)\n  dup1\n  0x40\n  add\n  0x40\n  mstore\n  dup1\n  0x07\n  dup2\n  mstore\n  0x20\n  add\n  0x5068797369637300000000000000000000000000000000000000000000000000\n  dup2\n  mstore\n  pop\n  dup2\n  mstore\n  0x20\n  add\n  mload(0x40)\n  dup1\n  0x40\n  add\n  0x40\n  mstore\n  dup1\n  0x10\n  dup2\n  mstore\n  0x20\n  add\n  0x436f6d707574657220536369656e636500000000000000000000000000000000\n  dup2\n  mstore\n  pop\n  dup2\n  mstore\n  0x20\n  add\n  mload(0x40)\n  dup1\n  0x40\n  add\n  0x40\n  mstore\n  dup1\n  0x07\n  dup2\n  mstore\n  0x20\n  add\n  0x5275737369616e00000000000000000000000000000000000000000000000000\n  dup2\n  mstore\n  pop\n  dup2\n  mstore\n  pop\n    /* \"Storage.sol\":2656:2670  schoolSubjects */\n  0x08\n    /* \"Storage.sol\":2656:2727  schoolSubjects = [\"\", \"Math\", \"Physics\", \"Computer Science\", \"Russian\"] */\n  swap1\n  0x05\n  tag_8\n  swap3\n  swap2\n  swap1\n  tag_9\n  jump\t// in\ntag_8:\n  pop\n    /* \"Storage.sol\":2807:3121  laboratories = [\"Not\", \"Electricity and magnetism\", \"Prototyping\", \"Mechanics and strength\", \"Thermal phenomena and molecular structures\",\r... */\n  mload(0x40)\n  dup1\n  0x0160\n  add\n  0x40\n  mstore\n  dup1\n  mload(0x40)\n  dup1\n  0x40\n  add\n  0x40\n  mstore\n  dup1\n  0x03\n  dup2\n  mstore\n  0x20\n  add\n  0x4e6f740000000000000000000000000000000000000000000000000000000000\n  dup2\n  mstore\n  pop\n  dup2\n  mstore\n  0x20\n  add\n  mload(0x40)\n  dup1\n  0x40\n  add\n  0x40\n  mstore\n  dup1\n  0x19\n  dup2\n  mstore\n  0x20\n  add\n  0x456c65637472696369747920616e64206d61676e657469736d00000000000000\n  dup2\n  mstore\n  pop\n  dup2\n  mstore\n  0x20\n  add\n  mload(0x40)\n  dup1\n  0x40\n  add\n  0x40\n  mstore\n  dup1\n  0x0b\n  dup2\n  mstore\n  0x20\n  add\n  0x50726f746f747970696e67000000000000000000000000000000000000000000\n  dup2\n  mstore\n  pop\n  dup2\n  mstore\n  0x20\n  add\n  mload(0x40)\n  dup1\n  0x40\n  add\n  0x40\n  mstore\n  dup1\n  0x16\n  dup2\n  mstore\n  0x20\n  add\n  0x4d656368616e69637320616e6420737472656e67746800000000000000000000\n  dup2\n  mstore\n  pop\n  dup2\n  mstore\n  0x20\n  add\n  mload(0x40)\n  dup1\n  0x60\n  add\n  0x40\n  mstore\n  dup1\n  0x2a\n  dup2\n  mstore\n  0x20\n  add\n  data_26e8b079e834208cb7af6041f0347821dcba48a324036711b6873e27a4d1cb28\n  0x2a\n  swap2\n  codecopy\n  dup2\n  mstore\n  0x20\n  add\n  mload(0x40)\n  dup1\n  0x60\n  add\n  0x40\n  mstore\n  dup1\n  0x28\n  dup2\n  mstore\n  0x20\n  add\n  data_37c9252157ddc7aa1132b4758a15667ebf4428065a0ebec78fdcbc163cb8db6c\n  0x28\n  swap2\n  codecopy\n  dup2\n  mstore\n  0x20\n  add\n  mload(0x40)\n  dup1\n  0x40\n  add\n  0x40\n  mstore\n  dup1\n  0x13\n  dup2\n  mstore\n  0x20\n  add\n  0x4175746f6e6f6d6f7573206176696f6e69637300000000000000000000000000\n  dup2\n  mstore\n  pop\n  dup2\n  mstore\n  0x20\n  add\n  mload(0x40)\n  dup1\n  0x40\n  add\n  0x40\n  mstore\n  dup1\n  0x08\n  dup2\n  mstore\n  0x20\n  add\n  0x526f626f74696373000000000000000000000000000000000000000000000000\n  dup2\n  mstore\n  pop\n  dup2\n  mstore\n  0x20\n  add\n  mload(0x40)\n  dup1\n  0x40\n  add\n  0x40\n  mstore\n  dup1\n  0x0b\n  dup2\n  mstore\n  0x20\n  add\n  0x50726f6772616d6d696e67000000000000000000000000000000000000000000\n  dup2\n  mstore\n  pop\n  dup2\n  mstore\n  0x20\n  add\n  mload(0x40)\n  dup1\n  0x60\n  add\n  0x40\n  mstore\n  dup1\n  0x22\n  dup2\n  mstore\n  0x20\n  add\n  data_23077a296aa89ae8b0ae9cebbabd0c0e5f6a1cdcfe538546d369bce89d49e5de\n  0x22\n  swap2\n  codecopy\n  dup2\n  mstore\n  0x20\n  add\n  mload(0x40)\n  dup1\n  0x40\n  add\n  0x40\n  mstore\n  dup1\n  0x1f\n  dup2\n  mstore\n  0x20\n  add\n  0x417374726f6e6f6d7920616e64204165726f73706163652053797374656d7300\n  dup2\n  mstore\n  pop\n  dup2\n  mstore\n  pop\n    /* \"Storage.sol\":2807:2819  laboratories */\n  0x09\n    /* \"Storage.sol\":2807:3121  laboratories = [\"Not\", \"Electricity and magnetism\", \"Prototyping\", \"Mechanics and strength\", \"Thermal phenomena and molecular structures\",\r... */\n  swap1\n  0x0b\n  tag_10\n  swap3\n  swap2\n  swap1\n  tag_11\n  jump\t// in\ntag_10:\n  pop\n    /* \"Storage.sol\":3134:3142  projects */\n  0x07\n    /* \"Storage.sol\":3134:3149  projects.push() */\n  0x01\n  dup2\n  0x01\n  dup2\n  sload\n  add\n  dup1\n  dup3\n  sstore\n  dup1\n  swap2\n  pop\n  pop\n  sub\n  swap1\n  0x00\n  mstore\n  keccak256(0x00, 0x20)\n  swap1\n  pop\n  pop\n    /* \"Storage.sol\":3465:3574  Student(\"Developer\", \"GP\", \"\\xD0\\x98\", \"\", new string[](0), 0, keccak256(abi.encodePacked(\"Developer\", \"1\"))) */\n  mload(0x40)\n  dup1\n  0xe0\n  add\n  0x40\n  mstore\n  dup1\n  mload(0x40)\n  dup1\n  0x40\n  add\n  0x40\n  mstore\n  dup1\n  0x09\n  dup2\n  mstore\n  0x20\n  add\n  0x446576656c6f7065720000000000000000000000000000000000000000000000\n  dup2\n  mstore\n  pop\n  dup2\n  mstore\n  0x20\n  add\n  mload(0x40)\n  dup1\n  0x40\n  add\n  0x40\n  mstore\n  dup1\n  0x02\n  dup2\n  mstore\n  0x20\n  add\n  0x4750000000000000000000000000000000000000000000000000000000000000\n  dup2\n  mstore\n  pop\n  dup2\n  mstore\n  0x20\n  add\n  mload(0x40)\n  dup1\n  0x40\n  add\n  0x40\n  mstore\n  dup1\n  0x02\n  dup2\n  mstore\n  0x20\n  add\n  0xd098000000000000000000000000000000000000000000000000000000000000\n  dup2\n  mstore\n  pop\n  dup2\n  mstore\n  0x20\n  add\n  mload(0x40)\n  dup1\n  0x20\n  add\n  0x40\n  mstore\n  dup1\n  0x00\n  dup2\n  mstore\n  pop\n  dup2\n  mstore\n  0x20\n  add\n    /* \"Storage.sol\":3521:3522  0 */\n  0x00\n    /* \"Storage.sol\":3508:3523  new string[](0) */\n  0xffffffffffffffff\n  dup2\n  gt\n  iszero\n  tag_13\n  jumpi\n  tag_14\n  tag_15\n  jump\t// in\ntag_14:\ntag_13:\n  mload(0x40)\n  swap1\n  dup1\n  dup3\n  mstore\n  dup1\n  0x20\n  mul\n  0x20\n  add\n  dup3\n  add\n  0x40\n  mstore\n  dup1\n  iszero\n  tag_16\n  jumpi\n  dup2\n  0x20\n  add\ntag_17:\n  0x60\n  dup2\n  mstore\n  0x20\n  add\n  swap1\n  0x01\n  swap1\n  sub\n  swap1\n  dup2\n  tag_17\n  jumpi\n  swap1\n  pop\ntag_16:\n  pop\n    /* \"Storage.sol\":3465:3574  Student(\"Developer\", \"GP\", \"\\xD0\\x98\", \"\", new string[](0), 0, keccak256(abi.encodePacked(\"Developer\", \"1\"))) */\n  dup2\n  mstore\n  0x20\n  add\n    /* \"Storage.sol\":3525:3526  0 */\n  0x00\n    /* \"Storage.sol\":3465:3574  Student(\"Developer\", \"GP\", \"\\xD0\\x98\", \"\", new string[](0), 0, keccak256(abi.encodePacked(\"Developer\", \"1\"))) */\n  0xff\n  and\n  dup2\n  mstore\n  0x20\n  add\n    /* \"Storage.sol\":3538:3572  abi.encodePacked(\"Developer\", \"1\") */\n  add(0x20, mload(0x40))\n  tag_18\n  swap1\n  tag_19\n  jump\t// in\ntag_18:\n  mload(0x40)\n  0x20\n  dup2\n  dup4\n  sub\n  sub\n  dup2\n  mstore\n  swap1\n  0x40\n  mstore\n    /* \"Storage.sol\":3528:3573  keccak256(abi.encodePacked(\"Developer\", \"1\")) */\n  dup1\n  mload\n  swap1\n  0x20\n  add\n  keccak256\n    /* \"Storage.sol\":3465:3574  Student(\"Developer\", \"GP\", \"\\xD0\\x98\", \"\", new string[](0), 0, keccak256(abi.encodePacked(\"Developer\", \"1\"))) */\n  dup2\n  mstore\n  pop\n    /* \"Storage.sol\":3410:3418  students */\n  0x00\n    /* \"Storage.sol\":3410:3462  students[0x5B38Da6a701c568545dCfcB03FcB875f56beddC4] */\n  dup1\n    /* \"Storage.sol\":3419:3461  0x5B38Da6a701c568545dCfcB03FcB875f56beddC4 */\n  0x5b38da6a701c568545dcfcb03fcb875f56beddc4\n    /* \"Storage.sol\":3410:3462  students[0x5B38Da6a701c568545dCfcB03FcB875f56beddC4] */\n  0xffffffffffffffffffffffffffffffffffffffff\n  and\n  0xffffffffffffffffffffffffffffffffffffffff\n  and\n  dup2\n  mstore\n  0x20\n  add\n  swap1\n  dup2\n  mstore\n  0x20\n  add\n  0x00\n  keccak256\n    /* \"Storage.sol\":3410:3574  students[0x5B38Da6a701c568545dCfcB03FcB875f56beddC4] = Student(\"Developer\", \"GP\", \"\\xD0\\x98\", \"\", new string[](0), 0, keccak256(abi.encodePacked(\"Developer\", \"1\"))) */\n  0x00\n  dup3\n  add\n  mload\n  dup2\n  0x00\n  add\n  swap1\n  dup1\n  mload\n  swap1\n  0x20\n  add\n  swap1\n  tag_20\n  swap3\n  swap2\n  swap1\n  tag_21\n  jump\t// in\ntag_20:\n  pop\n  0x20\n  dup3\n  add\n  mload\n  dup2\n  0x01\n  add\n  swap1\n  dup1\n  mload\n  swap1\n  0x20\n  add\n  swap1\n  tag_22\n  swap3\n  swap2\n  swap1\n  tag_21\n  jump\t// in\ntag_22:\n  pop\n  0x40\n  dup3\n  add\n  mload\n  dup2\n  0x02\n  add\n  swap1\n  dup1\n  mload\n  swap1\n  0x20\n  add\n  swap1\n  tag_23\n  swap3\n  swap2\n  swap1\n  tag_21\n  jump\t// in\ntag_23:\n  pop\n  0x60\n  dup3\n  add\n  mload\n  dup2\n  0x03\n  add\n  swap1\n  dup1\n  mload\n  swap1\n  0x20\n  add\n  swap1\n  tag_24\n  swap3\n  swap2\n  swap1\n  tag_21\n  jump\t// in\ntag_24:\n  pop\n  0x80\n  dup3\n  add\n  mload\n  dup2\n  0x04\n  add\n  swap1\n  dup1\n  mload\n  swap1\n  0x20\n  add\n  swap1\n  tag_25\n  swap3\n  swap2\n  swap1\n  tag_26\n  jump\t// in\ntag_25:\n  pop\n  0xa0\n  dup3\n  add\n  mload\n  dup2\n  0x05\n  add\n  exp(0x0100, 0x00)\n  dup2\n  sload\n  dup2\n  0xff\n  mul\n  not\n  and\n  swap1\n  dup4\n  0xff\n  and\n  mul\n  or\n  swap1\n  sstore\n  pop\n  0xc0\n  dup3\n  add\n  mload\n  dup2\n  0x06\n  add\n  sstore\n  swap1\n  pop\n  pop\n    /* \"Storage.sol\":3693:3764  Admin(\"admin1\", \"GP\", keccak256(abi.encodePacked(\"admin1\", \"1\")), true) */\n  mload(0x40)\n  dup1\n  0x80\n  add\n  0x40\n  mstore\n  dup1\n  mload(0x40)\n  dup1\n  0x40\n  add\n  0x40\n  mstore\n  dup1\n  0x06\n  dup2\n  mstore\n  0x20\n  add\n  0x61646d696e310000000000000000000000000000000000000000000000000000\n  dup2\n  mstore\n  pop\n  dup2\n  mstore\n  0x20\n  add\n  mload(0x40)\n  dup1\n  0x40\n  add\n  0x40\n  mstore\n  dup1\n  0x02\n  dup2\n  mstore\n  0x20\n  add\n  0x4750000000000000000000000000000000000000000000000000000000000000\n  dup2\n  mstore\n  pop\n  dup2\n  mstore\n  0x20\n  add\n    /* \"Storage.sol\":3725:3756  abi.encodePacked(\"admin1\", \"1\") */\n  add(0x20, mload(0x40))\n  tag_27\n  swap1\n  tag_28\n  jump\t// in\ntag_27:\n  mload(0x40)\n  0x20\n  dup2\n  dup4\n  sub\n  sub\n  dup2\n  mstore\n  swap1\n  0x40\n  mstore\n    /* \"Storage.sol\":3715:3757  keccak256(abi.encodePacked(\"admin1\", \"1\")) */\n  dup1\n  mload\n  swap1\n  0x20\n  add\n  keccak256\n    /* \"Storage.sol\":3693:3764  Admin(\"admin1\", \"GP\", keccak256(abi.encodePacked(\"admin1\", \"1\")), true) */\n  dup2\n  mstore\n  0x20\n  add\n    /* \"Storage.sol\":3759:3763  true */\n  0x01\n    /* \"Storage.sol\":3693:3764  Admin(\"admin1\", \"GP\", keccak256(abi.encodePacked(\"admin1\", \"1\")), true) */\n  iszero\n  iszero\n  dup2\n  mstore\n  pop\n    /* \"Storage.sol\":3632:3646  administrators */\n  0x02\n    /* \"Storage.sol\":3632:3690  administrators[0xAb8483F64d9C6d1EcF9b849Ae677dD3315835cb2] */\n  0x00\n    /* \"Storage.sol\":3647:3689  0xAb8483F64d9C6d1EcF9b849Ae677dD3315835cb2 */\n  0xab8483f64d9c6d1ecf9b849ae677dd3315835cb2\n    /* \"Storage.sol\":3632:3690  administrators[0xAb8483F64d9C6d1EcF9b849Ae677dD3315835cb2] */\n  0xffffffffffffffffffffffffffffffffffffffff\n  and\n  0xffffffffffffffffffffffffffffffffffffffff\n  and\n  dup2\n  mstore\n  0x20\n  add\n  swap1\n  dup2\n  mstore\n  0x20\n  add\n  0x00\n  keccak256\n    /* \"Storage.sol\":3632:3764  administrators[0xAb8483F64d9C6d1EcF9b849Ae677dD3315835cb2] = Admin(\"admin1\", \"GP\", keccak256(abi.encodePacked(\"admin1\", \"1\")), true) */\n  0x00\n  dup3\n  add\n  mload\n  dup2\n  0x00\n  add\n  swap1\n  dup1\n  mload\n  swap1\n  0x20\n  add\n  swap1\n  tag_29\n  swap3\n  swap2\n  swap1\n  tag_21\n  jump\t// in\ntag_29:\n  pop\n  0x20\n  dup3\n  add\n  mload\n  dup2\n  0x01\n  add\n  swap1\n  dup1\n  mload\n  swap1\n  0x20\n  add\n  swap1\n  tag_30\n  swap3\n  swap2\n  swap1\n  tag_21\n  jump\t// in\ntag_30:\n  pop\n  0x40\n  dup3\n  add\n  mload\n  dup2\n  0x02\n  add\n  sstore\n  0x60\n  dup3\n  add\n  mload\n  dup2\n  0x03\n  add\n  exp(0x0100, 0x00)\n  dup2\n  sload\n  dup2\n  0xff\n  mul\n  not\n  and\n  swap1\n  dup4\n  iszero\n  iszero\n  mul\n  or\n  swap1\n  sstore\n  pop\n  swap1\n  pop\n  pop\n    /* \"Storage.sol\":3802:3844  0x5B38Da6a701c568545dCfcB03FcB875f56beddC4 */\n  0x5b38da6a701c568545dcfcb03fcb875f56beddc4\n    /* \"Storage.sol\":3775:3786  usingLogins */\n  0x05\n    /* \"Storage.sol\":3775:3799  usingLogins[\"Developer\"] */\n  mload(0x40)\n  tag_31\n  swap1\n  tag_32\n  jump\t// in\ntag_31:\n  swap1\n  dup2\n  mstore\n  0x20\n  add\n  mload(0x40)\n  dup1\n  swap2\n  sub\n  swap1\n  keccak256\n  0x00\n    /* \"Storage.sol\":3775:3844  usingLogins[\"Developer\"] = 0x5B38Da6a701c568545dCfcB03FcB875f56beddC4 */\n  0x0100\n  exp\n  dup2\n  sload\n  dup2\n  0xffffffffffffffffffffffffffffffffffffffff\n  mul\n  not\n  and\n  swap1\n  dup4\n  0xffffffffffffffffffffffffffffffffffffffff\n  and\n  mul\n  or\n  swap1\n  sstore\n  pop\n    /* \"Storage.sol\":3879:3921  0xAb8483F64d9C6d1EcF9b849Ae677dD3315835cb2 */\n  0xab8483f64d9c6d1ecf9b849ae677dd3315835cb2\n    /* \"Storage.sol\":3855:3866  usingLogins */\n  0x05\n    /* \"Storage.sol\":3855:3876  usingLogins[\"admin1\"] */\n  mload(0x40)\n  tag_33\n  swap1\n  tag_34\n  jump\t// in\ntag_33:\n  swap1\n  dup2\n  mstore\n  0x20\n  add\n  mload(0x40)\n  dup1\n  swap2\n  sub\n  swap1\n  keccak256\n  0x00\n    /* \"Storage.sol\":3855:3921  usingLogins[\"admin1\"] = 0xAb8483F64d9C6d1EcF9b849Ae677dD3315835cb2 */\n  0x0100\n  exp\n  dup2\n  sload\n  dup2\n  0xffffffffffffffffffffffffffffffffffffffff\n  mul\n  not\n  and\n  swap1\n  dup4\n  0xffffffffffffffffffffffffffffffffffffffff\n  and\n  mul\n  or\n  swap1\n  sstore\n  pop\n    /* \"Storage.sol\":3993:4014  StatusAddress.Student */\n  0x06\n    /* \"Storage.sol\":3932:3946  usingAddresses */\n  0x04\n    /* \"Storage.sol\":3932:3990  usingAddresses[0x5B38Da6a701c568545dCfcB03FcB875f56beddC4] */\n  0x00\n    /* \"Storage.sol\":3947:3989  0x5B38Da6a701c568545dCfcB03FcB875f56beddC4 */\n  0x5b38da6a701c568545dcfcb03fcb875f56beddc4\n    /* \"Storage.sol\":3932:3990  usingAddresses[0x5B38Da6a701c568545dCfcB03FcB875f56beddC4] */\n  0xffffffffffffffffffffffffffffffffffffffff\n  and\n  0xffffffffffffffffffffffffffffffffffffffff\n  and\n  dup2\n  mstore\n  0x20\n  add\n  swap1\n  dup2\n  mstore\n  0x20\n  add\n  0x00\n  keccak256\n  0x00\n    /* \"Storage.sol\":3932:4014  usingAddresses[0x5B38Da6a701c568545dCfcB03FcB875f56beddC4] = StatusAddress.Student */\n  0x0100\n  exp\n  dup2\n  sload\n  dup2\n  0xff\n  mul\n  not\n  and\n  swap1\n  dup4\n  0x07\n  dup2\n  gt\n  iszero\n  tag_35\n  jumpi\n  tag_36\n  tag_37\n  jump\t// in\ntag_36:\ntag_35:\n  mul\n  or\n  swap1\n  sstore\n  pop\n    /* \"Storage.sol\":4086:4105  StatusAddress.Admin */\n  0x07\n    /* \"Storage.sol\":4025:4039  usingAddresses */\n  0x04\n    /* \"Storage.sol\":4025:4083  usingAddresses[0xAb8483F64d9C6d1EcF9b849Ae677dD3315835cb2] */\n  0x00\n    /* \"Storage.sol\":4040:4082  0xAb8483F64d9C6d1EcF9b849Ae677dD3315835cb2 */\n  0xab8483f64d9c6d1ecf9b849ae677dd3315835cb2\n    /* \"Storage.sol\":4025:4083  usingAddresses[0xAb8483F64d9C6d1EcF9b849Ae677dD3315835cb2] */\n  0xffffffffffffffffffffffffffffffffffffffff\n  and\n  0xffffffffffffffffffffffffffffffffffffffff\n  and\n  dup2\n  mstore\n  0x20\n  add\n  swap1\n  dup2\n  mstore\n  0x20\n  add\n  0x00\n  keccak256\n  0x00\n    /* \"Storage.sol\":4025:4105  usingAddresses[0xAb8483F64d9C6d1EcF9b849Ae677dD3315835cb2] = StatusAddress.Admin */\n  0x0100\n  exp\n  dup2\n  sload\n  dup2\n  0xff\n  mul\n  not\n  and\n  swap1\n  dup4\n  0x07\n  dup2\n  gt\n  iszero\n  tag_38\n  jumpi\n  tag_39\n  tag_37\n  jump\t// in\ntag_39:\ntag_38:\n  mul\n  or\n  swap1\n  sstore\n  pop\n    /* \"Storage.sol\":4239:4338  Student(\"ivan\", \"DM\", \"\\xD0\\x98\", \"\", new string[](0), 0, keccak256(abi.encodePacked(\"ivan\", \"1\"))) */\n  mload(0x40)\n  dup1\n  0xe0\n  add\n  0x40\n  mstore\n  dup1\n  mload(0x40)\n  dup1\n  0x40\n  add\n  0x40\n  mstore\n  dup1\n  0x04\n  dup2\n  mstore\n  0x20\n  add\n  0x6976616e00000000000000000000000000000000000000000000000000000000\n  dup2\n  mstore\n  pop\n  dup2\n  mstore\n  0x20\n  add\n  mload(0x40)\n  dup1\n  0x40\n  add\n  0x40\n  mstore\n  dup1\n  0x02\n  dup2\n  mstore\n  0x20\n  add\n  0x444d000000000000000000000000000000000000000000000000000000000000\n  dup2\n  mstore\n  pop\n  dup2\n  mstore\n  0x20\n  add\n  mload(0x40)\n  dup1\n  0x40\n  add\n  0x40\n  mstore\n  dup1\n  0x02\n  dup2\n  mstore\n  0x20\n  add\n  0xd098000000000000000000000000000000000000000000000000000000000000\n  dup2\n  mstore\n  pop\n  dup2\n  mstore\n  0x20\n  add\n  mload(0x40)\n  dup1\n  0x20\n  add\n  0x40\n  mstore\n  dup1\n  0x00\n  dup2\n  mstore\n  pop\n  dup2\n  mstore\n  0x20\n  add\n    /* \"Storage.sol\":4290:4291  0 */\n  0x00\n    /* \"Storage.sol\":4277:4292  new string[](0) */\n  0xffffffffffffffff\n  dup2\n  gt\n  iszero\n  tag_40\n  jumpi\n  tag_41\n  tag_15\n  jump\t// in\ntag_41:\ntag_40:\n  mload(0x40)\n  swap1\n  dup1\n  dup3\n  mstore\n  dup1\n  0x20\n  mul\n  0x20\n  add\n  dup3\n  add\n  0x40\n  mstore\n  dup1\n  iszero\n  tag_42\n  jumpi\n  dup2\n  0x20\n  add\ntag_43:\n  0x60\n  dup2\n  mstore\n  0x20\n  add\n  swap1\n  0x01\n  swap1\n  sub\n  swap1\n  dup2\n  tag_43\n  jumpi\n  swap1\n  pop\ntag_42:\n  pop\n    /* \"Storage.sol\":4239:4338  Student(\"ivan\", \"DM\", \"\\xD0\\x98\", \"\", new string[](0), 0, keccak256(abi.encodePacked(\"ivan\", \"1\"))) */\n  dup2\n  mstore\n  0x20\n  add\n    /* \"Storage.sol\":4294:4295  0 */\n  0x00\n    /* \"Storage.sol\":4239:4338  Student(\"ivan\", \"DM\", \"\\xD0\\x98\", \"\", new string[](0), 0, keccak256(abi.encodePacked(\"ivan\", \"1\"))) */\n  0xff\n  and\n  dup2\n  mstore\n  0x20\n  add\n    /* \"Storage.sol\":4307:4336  abi.encodePacked(\"ivan\", \"1\") */\n  add(0x20, mload(0x40))\n  tag_44\n  swap1\n  tag_45\n  jump\t// in\ntag_44:\n  mload(0x40)\n  0x20\n  dup2\n  dup4\n  sub\n  sub\n  dup2\n  mstore\n  swap1\n  0x40\n  mstore\n    /* \"Storage.sol\":4297:4337  keccak256(abi.encodePacked(\"ivan\", \"1\")) */\n  dup1\n  mload\n  swap1\n  0x20\n  add\n  keccak256\n    /* \"Storage.sol\":4239:4338  Student(\"ivan\", \"DM\", \"\\xD0\\x98\", \"\", new string[](0), 0, keccak256(abi.encodePacked(\"ivan\", \"1\"))) */\n  dup2\n  mstore\n  pop\n    /* \"Storage.sol\":4184:4192  students */\n  0x00\n    /* \"Storage.sol\":4184:4236  students[0x4B20993Bc481177ec7E8f571ceCaE8A9e22C02db] */\n  dup1\n    /* \"Storage.sol\":4193:4235  0x4B20993Bc481177ec7E8f571ceCaE8A9e22C02db */\n  0x4b20993bc481177ec7e8f571cecae8a9e22c02db\n    /* \"Storage.sol\":4184:4236  students[0x4B20993Bc481177ec7E8f571ceCaE8A9e22C02db] */\n  0xffffffffffffffffffffffffffffffffffffffff\n  and\n  0xffffffffffffffffffffffffffffffffffffffff\n  and\n  dup2\n  mstore\n  0x20\n  add\n  swap1\n  dup2\n  mstore\n  0x20\n  add\n  0x00\n  keccak256\n    /* \"Storage.sol\":4184:4338  students[0x4B20993Bc481177ec7E8f571ceCaE8A9e22C02db] = Student(\"ivan\", \"DM\", \"\\xD0\\x98\", \"\", new string[](0), 0, keccak256(abi.encodePacked(\"ivan\", \"1\"))) */\n  0x00\n  dup3\n  add\n  mload\n  dup2\n  0x00\n  add\n  swap1\n  dup1\n  mload\n  swap1\n  0x20\n  add\n  swap1\n  tag_46\n  swap3\n  swap2\n  swap1\n  tag_21\n  jump\t// in\ntag_46:\n  pop\n  0x20\n  dup3\n  add\n  mload\n  dup2\n  0x01\n  add\n  swap1\n  dup1\n  mload\n  swap1\n  0x20\n  add\n  swap1\n  tag_47\n  swap3\n  swap2\n  swap1\n  tag_21\n  jump\t// in\ntag_47:\n  pop\n  0x40\n  dup3\n  add\n  mload\n  dup2\n  0x02\n  add\n  swap1\n  dup1\n  mload\n  swap1\n  0x20\n  add\n  swap1\n  tag_48\n  swap3\n  swap2\n  swap1\n  tag_21\n  jump\t// in\ntag_48:\n  pop\n  0x60\n  dup3\n  add\n  mload\n  dup2\n  0x03\n  add\n  swap1\n  dup1\n  mload\n  swap1\n  0x20\n  add\n  swap1\n  tag_49\n  swap3\n  swap2\n  swap1\n  tag_21\n  jump\t// in\ntag_49:\n  pop\n  0x80\n  dup3\n  add\n  mload\n  dup2\n  0x04\n  add\n  swap1\n  dup1\n  mload\n  swap1\n  0x20\n  add\n  swap1\n  tag_50\n  swap3\n  swap2\n  swap1\n  tag_26\n  jump\t// in\ntag_50:\n  pop\n  0xa0\n  dup3\n  add\n  mload\n  dup2\n  0x05\n  add\n  exp(0x0100, 0x00)\n  dup2\n  sload\n  dup2\n  0xff\n  mul\n  not\n  and\n  swap1\n  dup4\n  0xff\n  and\n  mul\n  or\n  swap1\n  sstore\n  pop\n  0xc0\n  dup3\n  add\n  mload\n  dup2\n  0x06\n  add\n  sstore\n  swap1\n  pop\n  pop\n    /* \"Storage.sol\":4410:4481  Admin(\"admin2\", \"DM\", keccak256(abi.encodePacked(\"admin2\", \"1\")), true) */\n  mload(0x40)\n  dup1\n  0x80\n  add\n  0x40\n  mstore\n  dup1\n  mload(0x40)\n  dup1\n  0x40\n  add\n  0x40\n  mstore\n  dup1\n  0x06\n  dup2\n  mstore\n  0x20\n  add\n  0x61646d696e320000000000000000000000000000000000000000000000000000\n  dup2\n  mstore\n  pop\n  dup2\n  mstore\n  0x20\n  add\n  mload(0x40)\n  dup1\n  0x40\n  add\n  0x40\n  mstore\n  dup1\n  0x02\n  dup2\n  mstore\n  0x20\n  add\n  0x444d000000000000000000000000000000000000000000000000000000000000\n  dup2\n  mstore\n  pop\n  dup2\n  mstore\n  0x20\n  add\n    /* \"Storage.sol\":4442:4473  abi.encodePacked(\"admin2\", \"1\") */\n  add(0x20, mload(0x40))\n  tag_51\n  swap1\n  tag_52\n  jump\t// in\ntag_51:\n  mload(0x40)\n  0x20\n  dup2\n  dup4\n  sub\n  sub\n  dup2\n  mstore\n  swap1\n  0x40\n  mstore\n    /* \"Storage.sol\":4432:4474  keccak256(abi.encodePacked(\"admin2\", \"1\")) */\n  dup1\n  mload\n  swap1\n  0x20\n  add\n  keccak256\n    /* \"Storage.sol\":4410:4481  Admin(\"admin2\", \"DM\", keccak256(abi.encodePacked(\"admin2\", \"1\")), true) */\n  dup2\n  mstore\n  0x20\n  add\n    /* \"Storage.sol\":4476:4480  true */\n  0x01\n    /* \"Storage.sol\":4410:4481  Admin(\"admin2\", \"DM\", keccak256(abi.encodePacked(\"admin2\", \"1\")), true) */\n  iszero\n  iszero\n  dup2\n  mstore\n  pop\n    /* \"Storage.sol\":4349:4363  administrators */\n  0x02\n    /* \"Storage.sol\":4349:4407  administrators[0x78731D3Ca6b7E34aC0F824c42a7cC18A495cabaB] */\n  0x00\n    /* \"Storage.sol\":4364:4406  0x78731D3Ca6b7E34aC0F824c42a7cC18A495cabaB */\n  0x78731d3ca6b7e34ac0f824c42a7cc18a495cabab\n    /* \"Storage.sol\":4349:4407  administrators[0x78731D3Ca6b7E34aC0F824c42a7cC18A495cabaB] */\n  0xffffffffffffffffffffffffffffffffffffffff\n  and\n  0xffffffffffffffffffffffffffffffffffffffff\n  and\n  dup2\n  mstore\n  0x20\n  add\n  swap1\n  dup2\n  mstore\n  0x20\n  add\n  0x00\n  keccak256\n    /* \"Storage.sol\":4349:4481  administrators[0x78731D3Ca6b7E34aC0F824c42a7cC18A495cabaB] = Admin(\"admin2\", \"DM\", keccak256(abi.encodePacked(\"admin2\", \"1\")), true) */\n  0x00\n  dup3\n  add\n  mload\n  dup2\n  0x00\n  add\n  swap1\n  dup1\n  mload\n  swap1\n  0x20\n  add\n  swap1\n  tag_53\n  swap3\n  swap2\n  swap1\n  tag_21\n  jump\t// in\ntag_53:\n  pop\n  0x20\n  dup3\n  add\n  mload\n  dup2\n  0x01\n  add\n  swap1\n  dup1\n  mload\n  swap1\n  0x20\n  add\n  swap1\n  tag_54\n  swap3\n  swap2\n  swap1\n  tag_21\n  jump\t// in\ntag_54:\n  pop\n  0x40\n  dup3\n  add\n  mload\n  dup2\n  0x02\n  add\n  sstore\n  0x60\n  dup3\n  add\n  mload\n  dup2\n  0x03\n  add\n  exp(0x0100, 0x00)\n  dup2\n  sload\n  dup2\n  0xff\n  mul\n  not\n  and\n  swap1\n  dup4\n  iszero\n  iszero\n  mul\n  or\n  swap1\n  sstore\n  pop\n  swap1\n  pop\n  pop\n    /* \"Storage.sol\":4566:4608  0x4B20993Bc481177ec7E8f571ceCaE8A9e22C02db */\n  0x4b20993bc481177ec7e8f571cecae8a9e22c02db\n    /* \"Storage.sol\":4544:4555  usingLogins */\n  0x05\n    /* \"Storage.sol\":4544:4563  usingLogins[\"ivan\"] */\n  mload(0x40)\n  tag_55\n  swap1\n  tag_56\n  jump\t// in\ntag_55:\n  swap1\n  dup2\n  mstore\n  0x20\n  add\n  mload(0x40)\n  dup1\n  swap2\n  sub\n  swap1\n  keccak256\n  0x00\n    /* \"Storage.sol\":4544:4608  usingLogins[\"ivan\"] = 0x4B20993Bc481177ec7E8f571ceCaE8A9e22C02db */\n  0x0100\n  exp\n  dup2\n  sload\n  dup2\n  0xffffffffffffffffffffffffffffffffffffffff\n  mul\n  not\n  and\n  swap1\n  dup4\n  0xffffffffffffffffffffffffffffffffffffffff\n  and\n  mul\n  or\n  swap1\n  sstore\n  pop\n    /* \"Storage.sol\":4674:4716  0x78731D3Ca6b7E34aC0F824c42a7cC18A495cabaB */\n  0x78731d3ca6b7e34ac0f824c42a7cc18a495cabab\n    /* \"Storage.sol\":4650:4661  usingLogins */\n  0x05\n    /* \"Storage.sol\":4650:4671  usingLogins[\"admin2\"] */\n  mload(0x40)\n  tag_57\n  swap1\n  tag_58\n  jump\t// in\ntag_57:\n  swap1\n  dup2\n  mstore\n  0x20\n  add\n  mload(0x40)\n  dup1\n  swap2\n  sub\n  swap1\n  keccak256\n  0x00\n    /* \"Storage.sol\":4650:4716  usingLogins[\"admin2\"] = 0x78731D3Ca6b7E34aC0F824c42a7cC18A495cabaB */\n  0x0100\n  exp\n  dup2\n  sload\n  dup2\n  0xffffffffffffffffffffffffffffffffffffffff\n  mul\n  not\n  and\n  swap1\n  dup4\n  0xffffffffffffffffffffffffffffffffffffffff\n  and\n  mul\n  or\n  swap1\n  sstore\n  pop\n    /* \"Storage.sol\":4788:4809  StatusAddress.Student */\n  0x06\n    /* \"Storage.sol\":4727:4741  usingAddresses */\n  0x04\n    /* \"Storage.sol\":4727:4785  usingAddresses[0x4B20993Bc481177ec7E8f571ceCaE8A9e22C02db] */\n  0x00\n    /* \"Storage.sol\":4742:4784  0x4B20993Bc481177ec7E8f571ceCaE8A9e22C02db */\n  0x4b20993bc481177ec7e8f571cecae8a9e22c02db\n    /* \"Storage.sol\":4727:4785  usingAddresses[0x4B20993Bc481177ec7E8f571ceCaE8A9e22C02db] */\n  0xffffffffffffffffffffffffffffffffffffffff\n  and\n  0xffffffffffffffffffffffffffffffffffffffff\n  and\n  dup2\n  mstore\n  0x20\n  add\n  swap1\n  dup2\n  mstore\n  0x20\n  add\n  0x00\n  keccak256\n  0x00\n    /* \"Storage.sol\":4727:4809  usingAddresses[0x4B20993Bc481177ec7E8f571ceCaE8A9e22C02db] = StatusAddress.Student */\n  0x0100\n  exp\n  dup2\n  sload\n  dup2\n  0xff\n  mul\n  not\n  and\n  swap1\n  dup4\n  0x07\n  dup2\n  gt\n  iszero\n  tag_59\n  jumpi\n  tag_60\n  tag_37\n  jump\t// in\ntag_60:\ntag_59:\n  mul\n  or\n  swap1\n  sstore\n  pop\n    /* \"Storage.sol\":4881:4900  StatusAddress.Admin */\n  0x07\n    /* \"Storage.sol\":4820:4834  usingAddresses */\n  0x04\n    /* \"Storage.sol\":4820:4878  usingAddresses[0x78731D3Ca6b7E34aC0F824c42a7cC18A495cabaB] */\n  0x00\n    /* \"Storage.sol\":4835:4877  0x78731D3Ca6b7E34aC0F824c42a7cC18A495cabaB */\n  0x78731d3ca6b7e34ac0f824c42a7cc18a495cabab\n    /* \"Storage.sol\":4820:4878  usingAddresses[0x78731D3Ca6b7E34aC0F824c42a7cC18A495cabaB] */\n  0xffffffffffffffffffffffffffffffffffffffff\n  and\n  0xffffffffffffffffffffffffffffffffffffffff\n  and\n  dup2\n  mstore\n  0x20\n  add\n  swap1\n  dup2\n  mstore\n  0x20\n  add\n  0x00\n  keccak256\n  0x00\n    /* \"Storage.sol\":4820:4900  usingAddresses[0x78731D3Ca6b7E34aC0F824c42a7cC18A495cabaB] = StatusAddress.Admin */\n  0x0100\n  exp\n  dup2\n  sload\n  dup2\n  0xff\n  mul\n  not\n  and\n  swap1\n  dup4\n  0x07\n  dup2\n  gt\n  iszero\n  tag_61\n  jumpi\n  tag_62\n  tag_37\n  jump\t// in\ntag_62:\ntag_61:\n  mul\n  or\n  swap1\n  sstore\n  pop\n    /* \"Storage.sol\":5063:5189  Teacher(\"Scientist\", \"DS\", \"\", 1, new uint16[](0), new uint16[](0), keccak256(abi.encodePacked(\"Scientist\", \"1\")), true, true) */\n  mload(0x40)\n  dup1\n  0x0120\n  add\n  0x40\n  mstore\n  dup1\n  mload(0x40)\n  dup1\n  0x40\n  add\n  0x40\n  mstore\n  dup1\n  0x09\n  dup2\n  mstore\n  0x20\n  add\n  0x536369656e746973740000000000000000000000000000000000000000000000\n  dup2\n  mstore\n  pop\n  dup2\n  mstore\n  0x20\n  add\n  mload(0x40)\n  dup1\n  0x40\n  add\n  0x40\n  mstore\n  dup1\n  0x02\n  dup2\n  mstore\n  0x20\n  add\n  0x4453000000000000000000000000000000000000000000000000000000000000\n  dup2\n  mstore\n  pop\n  dup2\n  mstore\n  0x20\n  add\n  mload(0x40)\n  dup1\n  0x20\n  add\n  0x40\n  mstore\n  dup1\n  0x00\n  dup2\n  mstore\n  pop\n  dup2\n  mstore\n  0x20\n  add\n    /* \"Storage.sol\":5094:5095  1 */\n  0x01\n    /* \"Storage.sol\":5063:5189  Teacher(\"Scientist\", \"DS\", \"\", 1, new uint16[](0), new uint16[](0), keccak256(abi.encodePacked(\"Scientist\", \"1\")), true, true) */\n  dup2\n  mstore\n  0x20\n  add\n    /* \"Storage.sol\":5110:5111  0 */\n  0x00\n    /* \"Storage.sol\":5097:5112  new uint16[](0) */\n  0xffffffffffffffff\n  dup2\n  gt\n  iszero\n  tag_63\n  jumpi\n  tag_64\n  tag_15\n  jump\t// in\ntag_64:\ntag_63:\n  mload(0x40)\n  swap1\n  dup1\n  dup3\n  mstore\n  dup1\n  0x20\n  mul\n  0x20\n  add\n  dup3\n  add\n  0x40\n  mstore\n  dup1\n  iszero\n  tag_65\n  jumpi\n  dup2\n  0x20\n  add\n  0x20\n  dup3\n  mul\n  dup1\n  calldatasize\n  dup4\n  calldatacopy\n  dup1\n  dup3\n  add\n  swap2\n  pop\n  pop\n  swap1\n  pop\ntag_65:\n  pop\n    /* \"Storage.sol\":5063:5189  Teacher(\"Scientist\", \"DS\", \"\", 1, new uint16[](0), new uint16[](0), keccak256(abi.encodePacked(\"Scientist\", \"1\")), true, true) */\n  dup2\n  mstore\n  0x20\n  add\n    /* \"Storage.sol\":5127:5128  0 */\n  0x00\n    /* \"Storage.sol\":5114:5129  new uint16[](0) */\n  0xffffffffffffffff\n  dup2\n  gt\n  iszero\n  tag_66\n  jumpi\n  tag_67\n  tag_15\n  jump\t// in\ntag_67:\ntag_66:\n  mload(0x40)\n  swap1\n  dup1\n  dup3\n  mstore\n  dup1\n  0x20\n  mul\n  0x20\n  add\n  dup3\n  add\n  0x40\n  mstore\n  dup1\n  iszero\n  tag_68\n  jumpi\n  dup2\n  0x20\n  add\n  0x20\n  dup3\n  mul\n  dup1\n  calldatasize\n  dup4\n  calldatacopy\n  dup1\n  dup3\n  add\n  swap2\n  pop\n  pop\n  swap1\n  pop\ntag_68:\n  pop\n    /* \"Storage.sol\":5063:5189  Teacher(\"Scientist\", \"DS\", \"\", 1, new uint16[](0), new uint16[](0), keccak256(abi.encodePacked(\"Scientist\", \"1\")), true, true) */\n  dup2\n  mstore\n  0x20\n  add\n    /* \"Storage.sol\":5141:5175  abi.encodePacked(\"Scientist\", \"1\") */\n  add(0x20, mload(0x40))\n  tag_69\n  swap1\n  tag_70\n  jump\t// in\ntag_69:\n  mload(0x40)\n  0x20\n  dup2\n  dup4\n  sub\n  sub\n  dup2\n  mstore\n  swap1\n  0x40\n  mstore\n    /* \"Storage.sol\":5131:5176  keccak256(abi.encodePacked(\"Scientist\", \"1\")) */\n  dup1\n  mload\n  swap1\n  0x20\n  add\n  keccak256\n    /* \"Storage.sol\":5063:5189  Teacher(\"Scientist\", \"DS\", \"\", 1, new uint16[](0), new uint16[](0), keccak256(abi.encodePacked(\"Scientist\", \"1\")), true, true) */\n  dup2\n  mstore\n  0x20\n  add\n    /* \"Storage.sol\":5178:5182  true */\n  0x01\n    /* \"Storage.sol\":5063:5189  Teacher(\"Scientist\", \"DS\", \"\", 1, new uint16[](0), new uint16[](0), keccak256(abi.encodePacked(\"Scientist\", \"1\")), true, true) */\n  iszero\n  iszero\n  dup2\n  mstore\n  0x20\n  add\n    /* \"Storage.sol\":5184:5188  true */\n  0x01\n    /* \"Storage.sol\":5063:5189  Teacher(\"Scientist\", \"DS\", \"\", 1, new uint16[](0), new uint16[](0), keccak256(abi.encodePacked(\"Scientist\", \"1\")), true, true) */\n  iszero\n  iszero\n  dup2\n  mstore\n  pop\n    /* \"Storage.sol\":5008:5016  teachers */\n  0x01\n    /* \"Storage.sol\":5008:5060  teachers[0x617F2E2fD72FD9D5503197092aC168c91465E7f2] */\n  0x00\n    /* \"Storage.sol\":5017:5059  0x617F2E2fD72FD9D5503197092aC168c91465E7f2 */\n  0x617f2e2fd72fd9d5503197092ac168c91465e7f2\n    /* \"Storage.sol\":5008:5060  teachers[0x617F2E2fD72FD9D5503197092aC168c91465E7f2] */\n  0xffffffffffffffffffffffffffffffffffffffff\n  and\n  0xffffffffffffffffffffffffffffffffffffffff\n  and\n  dup2\n  mstore\n  0x20\n  add\n  swap1\n  dup2\n  mstore\n  0x20\n  add\n  0x00\n  keccak256\n    /* \"Storage.sol\":5008:5189  teachers[0x617F2E2fD72FD9D5503197092aC168c91465E7f2] = Teacher(\"Scientist\", \"DS\", \"\", 1, new uint16[](0), new uint16[](0), keccak256(abi.encodePacked(\"Scientist\", \"1\")), true, true) */\n  0x00\n  dup3\n  add\n  mload\n  dup2\n  0x00\n  add\n  swap1\n  dup1\n  mload\n  swap1\n  0x20\n  add\n  swap1\n  tag_71\n  swap3\n  swap2\n  swap1\n  tag_21\n  jump\t// in\ntag_71:\n  pop\n  0x20\n  dup3\n  add\n  mload\n  dup2\n  0x01\n  add\n  swap1\n  dup1\n  mload\n  swap1\n  0x20\n  add\n  swap1\n  tag_72\n  swap3\n  swap2\n  swap1\n  tag_21\n  jump\t// in\ntag_72:\n  pop\n  0x40\n  dup3\n  add\n  mload\n  dup2\n  0x02\n  add\n  swap1\n  dup1\n  mload\n  swap1\n  0x20\n  add\n  swap1\n  tag_73\n  swap3\n  swap2\n  swap1\n  tag_21\n  jump\t// in\ntag_73:\n  pop\n  0x60\n  dup3\n  add\n  mload\n  dup2\n  0x03\n  add\n  sstore\n  0x80\n  dup3\n  add\n  mload\n  dup2\n  0x04\n  add\n  swap1\n  dup1\n  mload\n  swap1\n  0x20\n  add\n  swap1\n  tag_74\n  swap3\n  swap2\n  swap1\n  tag_75\n  jump\t// in\ntag_74:\n  pop\n  0xa0\n  dup3\n  add\n  mload\n  dup2\n  0x05\n  add\n  swap1\n  dup1\n  mload\n  swap1\n  0x20\n  add\n  swap1\n  tag_76\n  swap3\n  swap2\n  swap1\n  tag_75\n  jump\t// in\ntag_76:\n  pop\n  0xc0\n  dup3\n  add\n  mload\n  dup2\n  0x06\n  add\n  sstore\n  0xe0\n  dup3\n  add\n  mload\n  dup2\n  0x07\n  add\n  exp(0x0100, 0x00)\n  dup2\n  sload\n  dup2\n  0xff\n  mul\n  not\n  and\n  swap1\n  dup4\n  iszero\n  iszero\n  mul\n  or\n  swap1\n  sstore\n  pop\n  0x0100\n  dup3\n  add\n  mload\n  dup2\n  0x07\n  add\n  exp(0x0100, 0x01)\n  dup2\n  sload\n  dup2\n  0xff\n  mul\n  not\n  and\n  swap1\n  dup4\n  iszero\n  iszero\n  mul\n  or\n  swap1\n  sstore\n  pop\n  swap1\n  pop\n  pop\n    /* \"Storage.sol\":5200:5208  teachers */\n  0x01\n    /* \"Storage.sol\":5200:5252  teachers[0x617F2E2fD72FD9D5503197092aC168c91465E7f2] */\n  0x00\n    /* \"Storage.sol\":5209:5251  0x617F2E2fD72FD9D5503197092aC168c91465E7f2 */\n  0x617f2e2fd72fd9d5503197092ac168c91465e7f2\n    /* \"Storage.sol\":5200:5252  teachers[0x617F2E2fD72FD9D5503197092aC168c91465E7f2] */\n  0xffffffffffffffffffffffffffffffffffffffff\n  and\n  0xffffffffffffffffffffffffffffffffffffffff\n  and\n  dup2\n  mstore\n  0x20\n  add\n  swap1\n  dup2\n  mstore\n  0x20\n  add\n  0x00\n  keccak256\n    /* \"Storage.sol\":5200:5268  teachers[0x617F2E2fD72FD9D5503197092aC168c91465E7f2].numLaboratories */\n  0x05\n  add\n    /* \"Storage.sol\":5274:5275  3 */\n  0x03\n    /* \"Storage.sol\":5200:5276  teachers[0x617F2E2fD72FD9D5503197092aC168c91465E7f2].numLaboratories.push(3) */\n  swap1\n  dup1\n  0x01\n  dup2\n  sload\n  add\n  dup1\n  dup3\n  sstore\n  dup1\n  swap2\n  pop\n  pop\n  0x01\n  swap1\n  sub\n  swap1\n  0x00\n  mstore\n  keccak256(0x00, 0x20)\n  swap1\n  0x10\n  swap2\n  dup3\n  dup3\n  div\n  add\n  swap2\n  swap1\n  mod\n  0x02\n  mul\n  swap1\n  swap2\n  swap1\n  swap2\n  swap1\n  swap2\n  0x0100\n  exp\n  dup2\n  sload\n  dup2\n  0xffff\n  mul\n  not\n  and\n  swap1\n  dup4\n  0xffff\n  and\n  mul\n  or\n  swap1\n  sstore\n  pop\n    /* \"Storage.sol\":5287:5304  Teacher storage t */\n  0x00\n    /* \"Storage.sol\":5307:5315  teachers */\n  0x01\n    /* \"Storage.sol\":5307:5359  teachers[0x617F2E2fD72FD9D5503197092aC168c91465E7f2] */\n  0x00\n    /* \"Storage.sol\":5316:5358  0x617F2E2fD72FD9D5503197092aC168c91465E7f2 */\n  0x617f2e2fd72fd9d5503197092ac168c91465e7f2\n    /* \"Storage.sol\":5307:5359  teachers[0x617F2E2fD72FD9D5503197092aC168c91465E7f2] */\n  0xffffffffffffffffffffffffffffffffffffffff\n  and\n  0xffffffffffffffffffffffffffffffffffffffff\n  and\n  dup2\n  mstore\n  0x20\n  add\n  swap1\n  dup2\n  mstore\n  0x20\n  add\n  0x00\n  keccak256\n    /* \"Storage.sol\":5287:5359  Teacher storage t = teachers[0x617F2E2fD72FD9D5503197092aC168c91465E7f2] */\n  swap1\n  pop\n    /* \"Storage.sol\":5372:5373  t */\n  dup1\n    /* \"Storage.sol\":5372:5391  t.numSchoolSubjects */\n  0x04\n  add\n    /* \"Storage.sol\":5397:5398  1 */\n  0x01\n    /* \"Storage.sol\":5372:5399  t.numSchoolSubjects.push(1) */\n  swap1\n  dup1\n  0x01\n  dup2\n  sload\n  add\n  dup1\n  dup3\n  sstore\n  dup1\n  swap2\n  pop\n  pop\n  0x01\n  swap1\n  sub\n  swap1\n  0x00\n  mstore\n  keccak256(0x00, 0x20)\n  swap1\n  0x10\n  swap2\n  dup3\n  dup3\n  div\n  add\n  swap2\n  swap1\n  mod\n  0x02\n  mul\n  swap1\n  swap2\n  swap1\n  swap2\n  swap1\n  swap2\n  0x0100\n  exp\n  dup2\n  sload\n  dup2\n  0xffff\n  mul\n  not\n  and\n  swap1\n  dup4\n  0xffff\n  and\n  mul\n  or\n  swap1\n  sstore\n  pop\n    /* \"Storage.sol\":5410:5411  t */\n  dup1\n    /* \"Storage.sol\":5410:5429  t.numSchoolSubjects */\n  0x04\n  add\n    /* \"Storage.sol\":5435:5436  2 */\n  0x02\n    /* \"Storage.sol\":5410:5437  t.numSchoolSubjects.push(2) */\n  swap1\n  dup1\n  0x01\n  dup2\n  sload\n  add\n  dup1\n  dup3\n  sstore\n  dup1\n  swap2\n  pop\n  pop\n  0x01\n  swap1\n  sub\n  swap1\n  0x00\n  mstore\n  keccak256(0x00, 0x20)\n  swap1\n  0x10\n  swap2\n  dup3\n  dup3\n  div\n  add\n  swap2\n  swap1\n  mod\n  0x02\n  mul\n  swap1\n  swap2\n  swap1\n  swap2\n  swap1\n  swap2\n  0x0100\n  exp\n  dup2\n  sload\n  dup2\n  0xffff\n  mul\n  not\n  and\n  swap1\n  dup4\n  0xffff\n  and\n  mul\n  or\n  swap1\n  sstore\n  pop\n    /* \"Storage.sol\":5448:5449  t */\n  dup1\n    /* \"Storage.sol\":5448:5465  t.numLaboratories */\n  0x05\n  add\n    /* \"Storage.sol\":5471:5472  3 */\n  0x03\n    /* \"Storage.sol\":5448:5473  t.numLaboratories.push(3) */\n  swap1\n  dup1\n  0x01\n  dup2\n  sload\n  add\n  dup1\n  dup3\n  sstore\n  dup1\n  swap2\n  pop\n  pop\n  0x01\n  swap1\n  sub\n  swap1\n  0x00\n  mstore\n  keccak256(0x00, 0x20)\n  swap1\n  0x10\n  swap2\n  dup3\n  dup3\n  div\n  add\n  swap2\n  swap1\n  mod\n  0x02\n  mul\n  swap1\n  swap2\n  swap1\n  swap2\n  swap1\n  swap2\n  0x0100\n  exp\n  dup2\n  sload\n  dup2\n  0xffff\n  mul\n  not\n  and\n  swap1\n  dup4\n  0xffff\n  and\n  mul\n  or\n  swap1\n  sstore\n  pop\n    /* \"Storage.sol\":5484:5485  t */\n  dup1\n    /* \"Storage.sol\":5484:5501  t.numLaboratories */\n  0x05\n  add\n    /* \"Storage.sol\":5507:5508  4 */\n  0x04\n    /* \"Storage.sol\":5484:5509  t.numLaboratories.push(4) */\n  swap1\n  dup1\n  0x01\n  dup2\n  sload\n  add\n  dup1\n  dup3\n  sstore\n  dup1\n  swap2\n  pop\n  pop\n  0x01\n  swap1\n  sub\n  swap1\n  0x00\n  mstore\n  keccak256(0x00, 0x20)\n  swap1\n  0x10\n  swap2\n  dup3\n  dup3\n  div\n  add\n  swap2\n  swap1\n  mod\n  0x02\n  mul\n  swap1\n  swap2\n  swap1\n  swap2\n  swap1\n  swap2\n  0x0100\n  exp\n  dup2\n  sload\n  dup2\n  0xffff\n  mul\n  not\n  and\n  swap1\n  dup4\n  0xffff\n  and\n  mul\n  or\n  swap1\n  sstore\n  pop\n    /* \"Storage.sol\":5547:5589  0x617F2E2fD72FD9D5503197092aC168c91465E7f2 */\n  0x617f2e2fd72fd9d5503197092ac168c91465e7f2\n    /* \"Storage.sol\":5520:5531  usingLogins */\n  0x05\n    /* \"Storage.sol\":5520:5544  usingLogins[\"Scientist\"] */\n  mload(0x40)\n  tag_82\n  swap1\n  tag_83\n  jump\t// in\ntag_82:\n  swap1\n  dup2\n  mstore\n  0x20\n  add\n  mload(0x40)\n  dup1\n  swap2\n  sub\n  swap1\n  keccak256\n  0x00\n    /* \"Storage.sol\":5520:5589  usingLogins[\"Scientist\"] = 0x617F2E2fD72FD9D5503197092aC168c91465E7f2 */\n  0x0100\n  exp\n  dup2\n  sload\n  dup2\n  0xffffffffffffffffffffffffffffffffffffffff\n  mul\n  not\n  and\n  swap1\n  dup4\n  0xffffffffffffffffffffffffffffffffffffffff\n  and\n  mul\n  or\n  swap1\n  sstore\n  pop\n    /* \"Storage.sol\":5661:5682  StatusAddress.Teacher */\n  0x05\n    /* \"Storage.sol\":5600:5614  usingAddresses */\n  0x04\n    /* \"Storage.sol\":5600:5658  usingAddresses[0x617F2E2fD72FD9D5503197092aC168c91465E7f2] */\n  0x00\n    /* \"Storage.sol\":5615:5657  0x617F2E2fD72FD9D5503197092aC168c91465E7f2 */\n  0x617f2e2fd72fd9d5503197092ac168c91465e7f2\n    /* \"Storage.sol\":5600:5658  usingAddresses[0x617F2E2fD72FD9D5503197092aC168c91465E7f2] */\n  0xffffffffffffffffffffffffffffffffffffffff\n  and\n  0xffffffffffffffffffffffffffffffffffffffff\n  and\n  dup2\n  mstore\n  0x20\n  add\n  swap1\n  dup2\n  mstore\n  0x20\n  add\n  0x00\n  keccak256\n  0x00\n    /* \"Storage.sol\":5600:5682  usingAddresses[0x617F2E2fD72FD9D5503197092aC168c91465E7f2] = StatusAddress.Teacher */\n  0x0100\n  exp\n  dup2\n  sload\n  dup2\n  0xff\n  mul\n  not\n  and\n  swap1\n  dup4\n  0x07\n  dup2\n  gt\n  iszero\n  tag_84\n  jumpi\n  tag_85\n  tag_37\n  jump\t// in\ntag_85:\ntag_84:\n  mul\n  or\n  swap1\n  sstore\n  pop\n    /* \"Storage.sol\":2506:6125  {\r... */\n  pop\n    /* \"Storage.sol\":2470:6125  constructor(address _logicContract) {\r... */\n  pop\n    /* \"Storage.sol\":36:6130  contract GlobaLStorage {\r... */\n  jump(tag_86)\ntag_7:\n  dup3\n  dup1\n  sload\n  dup3\n  dup3\n  sstore\n  swap1\n  0x00\n  mstore\n  keccak256(0x00, 0x20)\n  swap1\n  dup2\n  add\n  swap3\n  dup3\n  iszero\n  tag_87\n  jumpi\n  swap2\n  0x20\n  mul\n  dup3\n  add\ntag_88:\n  dup3\n  dup2\n  gt\n  iszero\n  tag_89\n  jumpi\n  dup3\n  mload\n  dup3\n  swap1\n  dup1\n  mload\n  swap1\n  0x20\n  add\n  swap1\n  tag_90\n  swap3\n  swap2\n  swap1\n  tag_21\n  jump\t// in\ntag_90:\n  pop\n  swap2\n  0x20\n  add\n  swap2\n  swap1\n  0x01\n  add\n  swap1\n  jump(tag_88)\ntag_89:\ntag_87:\n  pop\n  swap1\n  pop\n  tag_91\n  swap2\n  swap1\n  tag_92\n  jump\t// in\ntag_91:\n  pop\n  swap1\n  jump\t// out\ntag_9:\n  dup3\n  dup1\n  sload\n  dup3\n  dup3\n  sstore\n  swap1\n  0x00\n  mstore\n  keccak256(0x00, 0x20)\n  swap1\n  dup2\n  add\n  swap3\n  dup3\n  iszero\n  tag_93\n  jumpi\n  swap2\n  0x20\n  mul\n  dup3\n  add\ntag_94:\n  dup3\n  dup2\n  gt\n  iszero\n  tag_95\n  jumpi\n  dup3\n  mload\n  dup3\n  swap1\n  dup1\n  mload\n  swap1\n  0x20\n  add\n  swap1\n  tag_96\n  swap3\n  swap2\n  swap1\n  tag_21\n  jump\t// in\ntag_96:\n  pop\n  swap2\n  0x20\n  add\n  swap2\n  swap1\n  0x01\n  add\n  swap1\n  jump(tag_94)\ntag_95:\ntag_93:\n  pop\n  swap1\n  pop\n  tag_97\n  swap2\n  swap1\n  tag_92\n  jump\t// in\ntag_97:\n  pop\n  swap1\n  jump\t// out\ntag_11:\n  dup3\n  dup1\n  sload\n  dup3\n  dup3\n  sstore\n  swap1\n  0x00\n  mstore\n  keccak256(0x00, 0x20)\n  swap1\n  dup2\n  add\n  swap3\n  dup3\n  iszero\n  tag_98\n  jumpi\n  swap2\n  0x20\n  mul\n  dup3\n  add\ntag_99:\n  dup3\n  dup2\n  gt\n  iszero\n  tag_100\n  jumpi\n  dup3\n  mload\n  dup3\n  swap1\n  dup1\n  mload\n  swap1\n  0x20\n  add\n  swap1\n  tag_101\n  swap3\n  swap2\n  swap1\n  tag_21\n  jump\t// in\ntag_101:\n  pop\n  swap2\n  0x20\n  add\n  swap2\n  swap1\n  0x01\n  add\n  swap1\n  jump(tag_99)\ntag_100:\ntag_98:\n  pop\n  swap1\n  pop\n  tag_102\n  swap2\n  swap1\n  tag_92\n  jump\t// in\ntag_102:\n  pop\n  swap1\n  jump\t// out\ntag_21:\n  dup3\n  dup1\n  sload\n  tag_103\n  swap1\n  tag_104\n  jump\t// in\ntag_103:\n  swap1\n  0x00\n  mstore\n  keccak256(0x00, 0x20)\n  swap1\n  0x1f\n  add\n  0x20\n  swap1\n  div\n  dup2\n  add\n  swap3\n  dup3\n  tag_106\n  jumpi\n  0x00\n  dup6\n  sstore\n  jump(tag_105)\ntag_106:\n  dup3\n  0x1f\n  lt\n  tag_107\n  jumpi\n  dup1\n  mload\n  not(0xff)\n  and\n  dup4\n  dup1\n  add\n  or\n  dup6\n  sstore\n  jump(tag_105)\ntag_107:\n  dup3\n  dup1\n  add\n  0x01\n  add\n  dup6\n  sstore\n  dup3\n  iszero\n  tag_105\n  jumpi\n  swap2\n  dup3\n  add\ntag_108:\n  dup3\n  dup2\n  gt\n  iszero\n  tag_109\n  jumpi\n  dup3\n  mload\n  dup3\n  sstore\n  swap2\n  0x20\n  add\n  swap2\n  swap1\n  0x01\n  add\n  swap1\n  jump(tag_108)\ntag_109:\ntag_105:\n  pop\n  swap1\n  pop\n  tag_110\n  swap2\n  swap1\n  tag_111\n  jump\t// in\ntag_110:\n  pop\n  swap1\n  jump\t// out\ntag_26:\n  dup3\n  dup1\n  sload\n  dup3\n  dup3\n  sstore\n  swap1\n  0x00\n  mstore\n  keccak256(0x00, 0x20)\n  swap1\n  dup2\n  add\n  swap3\n  dup3\n  iszero\n  tag_112\n  jumpi\n  swap2\n  0x20\n  mul\n  dup3\n  add\ntag_113:\n  dup3\n  dup2\n  gt\n  iszero\n  tag_114\n  jumpi\n  dup3\n  mload\n  dup3\n  swap1\n  dup1\n  mload\n  swap1\n  0x20\n  add\n  swap1\n  tag_115\n  swap3\n  swap2\n  swap1\n  tag_21\n  jump\t// in\ntag_115:\n  pop\n  swap2\n  0x20\n  add\n  swap2\n  swap1\n  0x01\n  add\n  swap1\n  jump(tag_113)\ntag_114:\ntag_112:\n  pop\n  swap1\n  pop\n  tag_116\n  swap2\n  swap1\n  tag_92\n  jump\t// in\ntag_116:\n  pop\n  swap1\n  jump\t// out\ntag_75:\n  dup3\n  dup1\n  sload\n  dup3\n  dup3\n  sstore\n  swap1\n  0x00\n  mstore\n  keccak256(0x00, 0x20)\n  swap1\n  0x0f\n  add\n  0x10\n  swap1\n  div\n  dup2\n  add\n  swap3\n  dup3\n  iszero\n  tag_117\n  jumpi\n  swap2\n  0x20\n  mul\n  dup3\n  add\n  0x00\ntag_118:\n  dup4\n  dup3\n  gt\n  iszero\n  tag_119\n  jumpi\n  dup4\n  mload\n  dup4\n  dup3\n  0x0100\n  exp\n  dup2\n  sload\n  dup2\n  0xffff\n  mul\n  not\n  and\n  swap1\n  dup4\n  0xffff\n  and\n  mul\n  or\n  swap1\n  sstore\n  pop\n  swap3\n  0x20\n  add\n  swap3\n  0x02\n  add\n  0x20\n  dup2\n  0x01\n  add\n  div\n  swap3\n  dup4\n  add\n  swap3\n  0x01\n  sub\n  mul\n  jump(tag_118)\ntag_119:\n  dup1\n  iszero\n  tag_120\n  jumpi\n  dup3\n  dup2\n  0x0100\n  exp\n  dup2\n  sload\n  swap1\n  0xffff\n  mul\n  not\n  and\n  swap1\n  sstore\n  0x02\n  add\n  0x20\n  dup2\n  0x01\n  add\n  div\n  swap3\n  dup4\n  add\n  swap3\n  0x01\n  sub\n  mul\n  jump(tag_119)\ntag_120:\n  pop\ntag_117:\n  pop\n  swap1\n  pop\n  tag_121\n  swap2\n  swap1\n  tag_111\n  jump\t// in\ntag_121:\n  pop\n  swap1\n  jump\t// out\ntag_92:\ntag_122:\n  dup1\n  dup3\n  gt\n  iszero\n  tag_123\n  jumpi\n  0x00\n  dup2\n  dup2\n  tag_124\n  swap2\n  swap1\n  tag_125\n  jump\t// in\ntag_124:\n  pop\n  0x01\n  add\n  jump(tag_122)\ntag_123:\n  pop\n  swap1\n  jump\t// out\ntag_111:\ntag_126:\n  dup1\n  dup3\n  gt\n  iszero\n  tag_127\n  jumpi\n  0x00\n  dup2\n  0x00\n  swap1\n  sstore\n  pop\n  0x01\n  add\n  jump(tag_126)\ntag_127:\n  pop\n  swap1\n  jump\t// out\ntag_125:\n  pop\n  dup1\n  sload\n  tag_128\n  swap1\n  tag_104\n  jump\t// in\ntag_128:\n  0x00\n  dup3\n  sstore\n  dup1\n  0x1f\n  lt\n  tag_130\n  jumpi\n  pop\n  jump(tag_129)\ntag_130:\n  0x1f\n  add\n  0x20\n  swap1\n  div\n  swap1\n  0x00\n  mstore\n  keccak256(0x00, 0x20)\n  swap1\n  dup2\n  add\n  swap1\n  tag_131\n  swap2\n  swap1\n  tag_111\n  jump\t// in\ntag_131:\ntag_129:\n  pop\n  jump\t// out\n    /* \"#utility.yul\":7:150   */\ntag_133:\n    /* \"#utility.yul\":64:69   */\n  0x00\n    /* \"#utility.yul\":95:101   */\n  dup2\n    /* \"#utility.yul\":89:102   */\n  mload\n    /* \"#utility.yul\":80:102   */\n  swap1\n  pop\n    /* \"#utility.yul\":111:144   */\n  tag_135\n    /* \"#utility.yul\":138:143   */\n  dup2\n    /* \"#utility.yul\":111:144   */\n  tag_136\n  jump\t// in\ntag_135:\n    /* \"#utility.yul\":7:150   */\n  swap3\n  swap2\n  pop\n  pop\n  jump\t// out\n    /* \"#utility.yul\":156:507   */\ntag_3:\n    /* \"#utility.yul\":226:232   */\n  0x00\n    /* \"#utility.yul\":275:277   */\n  0x20\n    /* \"#utility.yul\":263:272   */\n  dup3\n    /* \"#utility.yul\":254:261   */\n  dup5\n    /* \"#utility.yul\":250:273   */\n  sub\n    /* \"#utility.yul\":246:278   */\n  slt\n    /* \"#utility.yul\":243:362   */\n  iszero\n  tag_138\n  jumpi\n    /* \"#utility.yul\":281:360   */\n  tag_139\n  tag_140\n  jump\t// in\ntag_139:\n    /* \"#utility.yul\":243:362   */\ntag_138:\n    /* \"#utility.yul\":401:402   */\n  0x00\n    /* \"#utility.yul\":426:490   */\n  tag_141\n    /* \"#utility.yul\":482:489   */\n  dup5\n    /* \"#utility.yul\":473:479   */\n  dup3\n    /* \"#utility.yul\":462:471   */\n  dup6\n    /* \"#utility.yul\":458:480   */\n  add\n    /* \"#utility.yul\":426:490   */\n  tag_133\n  jump\t// in\ntag_141:\n    /* \"#utility.yul\":416:490   */\n  swap2\n  pop\n    /* \"#utility.yul\":372:500   */\n  pop\n    /* \"#utility.yul\":156:507   */\n  swap3\n  swap2\n  pop\n  pop\n  jump\t// out\n    /* \"#utility.yul\":513:913   */\ntag_142:\n    /* \"#utility.yul\":673:676   */\n  0x00\n    /* \"#utility.yul\":694:778   */\n  tag_144\n    /* \"#utility.yul\":776:777   */\n  0x09\n    /* \"#utility.yul\":771:774   */\n  dup4\n    /* \"#utility.yul\":694:778   */\n  tag_145\n  jump\t// in\ntag_144:\n    /* \"#utility.yul\":687:778   */\n  swap2\n  pop\n    /* \"#utility.yul\":787:880   */\n  tag_146\n    /* \"#utility.yul\":876:879   */\n  dup3\n    /* \"#utility.yul\":787:880   */\n  tag_147\n  jump\t// in\ntag_146:\n    /* \"#utility.yul\":905:906   */\n  0x09\n    /* \"#utility.yul\":900:903   */\n  dup3\n    /* \"#utility.yul\":896:907   */\n  add\n    /* \"#utility.yul\":889:907   */\n  swap1\n  pop\n    /* \"#utility.yul\":513:913   */\n  swap2\n  swap1\n  pop\n  jump\t// out\n    /* \"#utility.yul\":919:1319   */\ntag_148:\n    /* \"#utility.yul\":1079:1082   */\n  0x00\n    /* \"#utility.yul\":1100:1184   */\n  tag_150\n    /* \"#utility.yul\":1182:1183   */\n  0x04\n    /* \"#utility.yul\":1177:1180   */\n  dup4\n    /* \"#utility.yul\":1100:1184   */\n  tag_145\n  jump\t// in\ntag_150:\n    /* \"#utility.yul\":1093:1184   */\n  swap2\n  pop\n    /* \"#utility.yul\":1193:1286   */\n  tag_151\n    /* \"#utility.yul\":1282:1285   */\n  dup3\n    /* \"#utility.yul\":1193:1286   */\n  tag_152\n  jump\t// in\ntag_151:\n    /* \"#utility.yul\":1311:1312   */\n  0x04\n    /* \"#utility.yul\":1306:1309   */\n  dup3\n    /* \"#utility.yul\":1302:1313   */\n  add\n    /* \"#utility.yul\":1295:1313   */\n  swap1\n  pop\n    /* \"#utility.yul\":919:1319   */\n  swap2\n  swap1\n  pop\n  jump\t// out\n    /* \"#utility.yul\":1325:1725   */\ntag_153:\n    /* \"#utility.yul\":1485:1488   */\n  0x00\n    /* \"#utility.yul\":1506:1590   */\n  tag_155\n    /* \"#utility.yul\":1588:1589   */\n  0x06\n    /* \"#utility.yul\":1583:1586   */\n  dup4\n    /* \"#utility.yul\":1506:1590   */\n  tag_145\n  jump\t// in\ntag_155:\n    /* \"#utility.yul\":1499:1590   */\n  swap2\n  pop\n    /* \"#utility.yul\":1599:1692   */\n  tag_156\n    /* \"#utility.yul\":1688:1691   */\n  dup3\n    /* \"#utility.yul\":1599:1692   */\n  tag_157\n  jump\t// in\ntag_156:\n    /* \"#utility.yul\":1717:1718   */\n  0x06\n    /* \"#utility.yul\":1712:1715   */\n  dup3\n    /* \"#utility.yul\":1708:1719   */\n  add\n    /* \"#utility.yul\":1701:1719   */\n  swap1\n  pop\n    /* \"#utility.yul\":1325:1725   */\n  swap2\n  swap1\n  pop\n  jump\t// out\n    /* \"#utility.yul\":1731:2131   */\ntag_158:\n    /* \"#utility.yul\":1891:1894   */\n  0x00\n    /* \"#utility.yul\":1912:1996   */\n  tag_160\n    /* \"#utility.yul\":1994:1995   */\n  0x01\n    /* \"#utility.yul\":1989:1992   */\n  dup4\n    /* \"#utility.yul\":1912:1996   */\n  tag_145\n  jump\t// in\ntag_160:\n    /* \"#utility.yul\":1905:1996   */\n  swap2\n  pop\n    /* \"#utility.yul\":2005:2098   */\n  tag_161\n    /* \"#utility.yul\":2094:2097   */\n  dup3\n    /* \"#utility.yul\":2005:2098   */\n  tag_162\n  jump\t// in\ntag_161:\n    /* \"#utility.yul\":2123:2124   */\n  0x01\n    /* \"#utility.yul\":2118:2121   */\n  dup3\n    /* \"#utility.yul\":2114:2125   */\n  add\n    /* \"#utility.yul\":2107:2125   */\n  swap1\n  pop\n    /* \"#utility.yul\":1731:2131   */\n  swap2\n  swap1\n  pop\n  jump\t// out\n    /* \"#utility.yul\":2137:2537   */\ntag_163:\n    /* \"#utility.yul\":2297:2300   */\n  0x00\n    /* \"#utility.yul\":2318:2402   */\n  tag_165\n    /* \"#utility.yul\":2400:2401   */\n  0x06\n    /* \"#utility.yul\":2395:2398   */\n  dup4\n    /* \"#utility.yul\":2318:2402   */\n  tag_145\n  jump\t// in\ntag_165:\n    /* \"#utility.yul\":2311:2402   */\n  swap2\n  pop\n    /* \"#utility.yul\":2411:2504   */\n  tag_166\n    /* \"#utility.yul\":2500:2503   */\n  dup3\n    /* \"#utility.yul\":2411:2504   */\n  tag_167\n  jump\t// in\ntag_166:\n    /* \"#utility.yul\":2529:2530   */\n  0x06\n    /* \"#utility.yul\":2524:2527   */\n  dup3\n    /* \"#utility.yul\":2520:2531   */\n  add\n    /* \"#utility.yul\":2513:2531   */\n  swap1\n  pop\n    /* \"#utility.yul\":2137:2537   */\n  swap2\n  swap1\n  pop\n  jump\t// out\n    /* \"#utility.yul\":2543:2943   */\ntag_168:\n    /* \"#utility.yul\":2703:2706   */\n  0x00\n    /* \"#utility.yul\":2724:2808   */\n  tag_170\n    /* \"#utility.yul\":2806:2807   */\n  0x09\n    /* \"#utility.yul\":2801:2804   */\n  dup4\n    /* \"#utility.yul\":2724:2808   */\n  tag_145\n  jump\t// in\ntag_170:\n    /* \"#utility.yul\":2717:2808   */\n  swap2\n  pop\n    /* \"#utility.yul\":2817:2910   */\n  tag_171\n    /* \"#utility.yul\":2906:2909   */\n  dup3\n    /* \"#utility.yul\":2817:2910   */\n  tag_172\n  jump\t// in\ntag_171:\n    /* \"#utility.yul\":2935:2936   */\n  0x09\n    /* \"#utility.yul\":2930:2933   */\n  dup3\n    /* \"#utility.yul\":2926:2937   */\n  add\n    /* \"#utility.yul\":2919:2937   */\n  swap1\n  pop\n    /* \"#utility.yul\":2543:2943   */\n  swap2\n  swap1\n  pop\n  jump\t// out\n    /* \"#utility.yul\":2949:3330   */\ntag_83:\n    /* \"#utility.yul\":3134:3137   */\n  0x00\n    /* \"#utility.yul\":3156:3304   */\n  tag_174\n    /* \"#utility.yul\":3300:3303   */\n  dup3\n    /* \"#utility.yul\":3156:3304   */\n  tag_142\n  jump\t// in\ntag_174:\n    /* \"#utility.yul\":3149:3304   */\n  swap2\n  pop\n    /* \"#utility.yul\":3321:3324   */\n  dup2\n    /* \"#utility.yul\":3314:3324   */\n  swap1\n  pop\n    /* \"#utility.yul\":2949:3330   */\n  swap2\n  swap1\n  pop\n  jump\t// out\n    /* \"#utility.yul\":3336:3983   */\ntag_70:\n    /* \"#utility.yul\":3622:3625   */\n  0x00\n    /* \"#utility.yul\":3644:3792   */\n  tag_176\n    /* \"#utility.yul\":3788:3791   */\n  dup3\n    /* \"#utility.yul\":3644:3792   */\n  tag_142\n  jump\t// in\ntag_176:\n    /* \"#utility.yul\":3637:3792   */\n  swap2\n  pop\n    /* \"#utility.yul\":3809:3957   */\n  tag_177\n    /* \"#utility.yul\":3953:3956   */\n  dup3\n    /* \"#utility.yul\":3809:3957   */\n  tag_158\n  jump\t// in\ntag_177:\n    /* \"#utility.yul\":3802:3957   */\n  swap2\n  pop\n    /* \"#utility.yul\":3974:3977   */\n  dup2\n    /* \"#utility.yul\":3967:3977   */\n  swap1\n  pop\n    /* \"#utility.yul\":3336:3983   */\n  swap2\n  swap1\n  pop\n  jump\t// out\n    /* \"#utility.yul\":3989:4370   */\ntag_56:\n    /* \"#utility.yul\":4174:4177   */\n  0x00\n    /* \"#utility.yul\":4196:4344   */\n  tag_179\n    /* \"#utility.yul\":4340:4343   */\n  dup3\n    /* \"#utility.yul\":4196:4344   */\n  tag_148\n  jump\t// in\ntag_179:\n    /* \"#utility.yul\":4189:4344   */\n  swap2\n  pop\n    /* \"#utility.yul\":4361:4364   */\n  dup2\n    /* \"#utility.yul\":4354:4364   */\n  swap1\n  pop\n    /* \"#utility.yul\":3989:4370   */\n  swap2\n  swap1\n  pop\n  jump\t// out\n    /* \"#utility.yul\":4376:5023   */\ntag_45:\n    /* \"#utility.yul\":4662:4665   */\n  0x00\n    /* \"#utility.yul\":4684:4832   */\n  tag_181\n    /* \"#utility.yul\":4828:4831   */\n  dup3\n    /* \"#utility.yul\":4684:4832   */\n  tag_148\n  jump\t// in\ntag_181:\n    /* \"#utility.yul\":4677:4832   */\n  swap2\n  pop\n    /* \"#utility.yul\":4849:4997   */\n  tag_182\n    /* \"#utility.yul\":4993:4996   */\n  dup3\n    /* \"#utility.yul\":4849:4997   */\n  tag_158\n  jump\t// in\ntag_182:\n    /* \"#utility.yul\":4842:4997   */\n  swap2\n  pop\n    /* \"#utility.yul\":5014:5017   */\n  dup2\n    /* \"#utility.yul\":5007:5017   */\n  swap1\n  pop\n    /* \"#utility.yul\":4376:5023   */\n  swap2\n  swap1\n  pop\n  jump\t// out\n    /* \"#utility.yul\":5029:5410   */\ntag_58:\n    /* \"#utility.yul\":5214:5217   */\n  0x00\n    /* \"#utility.yul\":5236:5384   */\n  tag_184\n    /* \"#utility.yul\":5380:5383   */\n  dup3\n    /* \"#utility.yul\":5236:5384   */\n  tag_153\n  jump\t// in\ntag_184:\n    /* \"#utility.yul\":5229:5384   */\n  swap2\n  pop\n    /* \"#utility.yul\":5401:5404   */\n  dup2\n    /* \"#utility.yul\":5394:5404   */\n  swap1\n  pop\n    /* \"#utility.yul\":5029:5410   */\n  swap2\n  swap1\n  pop\n  jump\t// out\n    /* \"#utility.yul\":5416:6063   */\ntag_52:\n    /* \"#utility.yul\":5702:5705   */\n  0x00\n    /* \"#utility.yul\":5724:5872   */\n  tag_186\n    /* \"#utility.yul\":5868:5871   */\n  dup3\n    /* \"#utility.yul\":5724:5872   */\n  tag_153\n  jump\t// in\ntag_186:\n    /* \"#utility.yul\":5717:5872   */\n  swap2\n  pop\n    /* \"#utility.yul\":5889:6037   */\n  tag_187\n    /* \"#utility.yul\":6033:6036   */\n  dup3\n    /* \"#utility.yul\":5889:6037   */\n  tag_158\n  jump\t// in\ntag_187:\n    /* \"#utility.yul\":5882:6037   */\n  swap2\n  pop\n    /* \"#utility.yul\":6054:6057   */\n  dup2\n    /* \"#utility.yul\":6047:6057   */\n  swap1\n  pop\n    /* \"#utility.yul\":5416:6063   */\n  swap2\n  swap1\n  pop\n  jump\t// out\n    /* \"#utility.yul\":6069:6450   */\ntag_34:\n    /* \"#utility.yul\":6254:6257   */\n  0x00\n    /* \"#utility.yul\":6276:6424   */\n  tag_189\n    /* \"#utility.yul\":6420:6423   */\n  dup3\n    /* \"#utility.yul\":6276:6424   */\n  tag_163\n  jump\t// in\ntag_189:\n    /* \"#utility.yul\":6269:6424   */\n  swap2\n  pop\n    /* \"#utility.yul\":6441:6444   */\n  dup2\n    /* \"#utility.yul\":6434:6444   */\n  swap1\n  pop\n    /* \"#utility.yul\":6069:6450   */\n  swap2\n  swap1\n  pop\n  jump\t// out\n    /* \"#utility.yul\":6456:7103   */\ntag_28:\n    /* \"#utility.yul\":6742:6745   */\n  0x00\n    /* \"#utility.yul\":6764:6912   */\n  tag_191\n    /* \"#utility.yul\":6908:6911   */\n  dup3\n    /* \"#utility.yul\":6764:6912   */\n  tag_163\n  jump\t// in\ntag_191:\n    /* \"#utility.yul\":6757:6912   */\n  swap2\n  pop\n    /* \"#utility.yul\":6929:7077   */\n  tag_192\n    /* \"#utility.yul\":7073:7076   */\n  dup3\n    /* \"#utility.yul\":6929:7077   */\n  tag_158\n  jump\t// in\ntag_192:\n    /* \"#utility.yul\":6922:7077   */\n  swap2\n  pop\n    /* \"#utility.yul\":7094:7097   */\n  dup2\n    /* \"#utility.yul\":7087:7097   */\n  swap1\n  pop\n    /* \"#utility.yul\":6456:7103   */\n  swap2\n  swap1\n  pop\n  jump\t// out\n    /* \"#utility.yul\":7109:7490   */\ntag_32:\n    /* \"#utility.yul\":7294:7297   */\n  0x00\n    /* \"#utility.yul\":7316:7464   */\n  tag_194\n    /* \"#utility.yul\":7460:7463   */\n  dup3\n    /* \"#utility.yul\":7316:7464   */\n  tag_168\n  jump\t// in\ntag_194:\n    /* \"#utility.yul\":7309:7464   */\n  swap2\n  pop\n    /* \"#utility.yul\":7481:7484   */\n  dup2\n    /* \"#utility.yul\":7474:7484   */\n  swap1\n  pop\n    /* \"#utility.yul\":7109:7490   */\n  swap2\n  swap1\n  pop\n  jump\t// out\n    /* \"#utility.yul\":7496:8143   */\ntag_19:\n    /* \"#utility.yul\":7782:7785   */\n  0x00\n    /* \"#utility.yul\":7804:7952   */\n  tag_196\n    /* \"#utility.yul\":7948:7951   */\n  dup3\n    /* \"#utility.yul\":7804:7952   */\n  tag_168\n  jump\t// in\ntag_196:\n    /* \"#utility.yul\":7797:7952   */\n  swap2\n  pop\n    /* \"#utility.yul\":7969:8117   */\n  tag_197\n    /* \"#utility.yul\":8113:8116   */\n  dup3\n    /* \"#utility.yul\":7969:8117   */\n  tag_158\n  jump\t// in\ntag_197:\n    /* \"#utility.yul\":7962:8117   */\n  swap2\n  pop\n    /* \"#utility.yul\":8134:8137   */\n  dup2\n    /* \"#utility.yul\":8127:8137   */\n  swap1\n  pop\n    /* \"#utility.yul\":7496:8143   */\n  swap2\n  swap1\n  pop\n  jump\t// out\n    /* \"#utility.yul\":8230:8378   */\ntag_145:\n    /* \"#utility.yul\":8332:8343   */\n  0x00\n    /* \"#utility.yul\":8369:8372   */\n  dup2\n    /* \"#utility.yul\":8354:8372   */\n  swap1\n  pop\n    /* \"#utility.yul\":8230:8378   */\n  swap3\n  swap2\n  pop\n  pop\n  jump\t// out\n    /* \"#utility.yul\":8384:8480   */\ntag_201:\n    /* \"#utility.yul\":8421:8428   */\n  0x00\n    /* \"#utility.yul\":8450:8474   */\n  tag_203\n    /* \"#utility.yul\":8468:8473   */\n  dup3\n    /* \"#utility.yul\":8450:8474   */\n  tag_204\n  jump\t// in\ntag_203:\n    /* \"#utility.yul\":8439:8474   */\n  swap1\n  pop\n    /* \"#utility.yul\":8384:8480   */\n  swap2\n  swap1\n  pop\n  jump\t// out\n    /* \"#utility.yul\":8486:8612   */\ntag_204:\n    /* \"#utility.yul\":8523:8530   */\n  0x00\n    /* \"#utility.yul\":8563:8605   */\n  0xffffffffffffffffffffffffffffffffffffffff\n    /* \"#utility.yul\":8556:8561   */\n  dup3\n    /* \"#utility.yul\":8552:8606   */\n  and\n    /* \"#utility.yul\":8541:8606   */\n  swap1\n  pop\n    /* \"#utility.yul\":8486:8612   */\n  swap2\n  swap1\n  pop\n  jump\t// out\n    /* \"#utility.yul\":8618:8938   */\ntag_104:\n    /* \"#utility.yul\":8662:8668   */\n  0x00\n    /* \"#utility.yul\":8699:8700   */\n  0x02\n    /* \"#utility.yul\":8693:8697   */\n  dup3\n    /* \"#utility.yul\":8689:8701   */\n  div\n    /* \"#utility.yul\":8679:8701   */\n  swap1\n  pop\n    /* \"#utility.yul\":8746:8747   */\n  0x01\n    /* \"#utility.yul\":8740:8744   */\n  dup3\n    /* \"#utility.yul\":8736:8748   */\n  and\n    /* \"#utility.yul\":8767:8785   */\n  dup1\n    /* \"#utility.yul\":8757:8838   */\n  tag_207\n  jumpi\n    /* \"#utility.yul\":8823:8827   */\n  0x7f\n    /* \"#utility.yul\":8815:8821   */\n  dup3\n    /* \"#utility.yul\":8811:8828   */\n  and\n    /* \"#utility.yul\":8801:8828   */\n  swap2\n  pop\n    /* \"#utility.yul\":8757:8838   */\ntag_207:\n    /* \"#utility.yul\":8885:8887   */\n  0x20\n    /* \"#utility.yul\":8877:8883   */\n  dup3\n    /* \"#utility.yul\":8874:8888   */\n  lt\n    /* \"#utility.yul\":8854:8872   */\n  dup2\n    /* \"#utility.yul\":8851:8889   */\n  eq\n    /* \"#utility.yul\":8848:8932   */\n  iszero\n  tag_208\n  jumpi\n    /* \"#utility.yul\":8904:8922   */\n  tag_209\n  tag_210\n  jump\t// in\ntag_209:\n    /* \"#utility.yul\":8848:8932   */\ntag_208:\n    /* \"#utility.yul\":8669:8938   */\n  pop\n    /* \"#utility.yul\":8618:8938   */\n  swap2\n  swap1\n  pop\n  jump\t// out\n    /* \"#utility.yul\":8944:9124   */\ntag_37:\n    /* \"#utility.yul\":8992:9069   */\n  0x4e487b7100000000000000000000000000000000000000000000000000000000\n    /* \"#utility.yul\":8989:8990   */\n  0x00\n    /* \"#utility.yul\":8982:9070   */\n  mstore\n    /* \"#utility.yul\":9089:9093   */\n  0x21\n    /* \"#utility.yul\":9086:9087   */\n  0x04\n    /* \"#utility.yul\":9079:9094   */\n  mstore\n    /* \"#utility.yul\":9113:9117   */\n  0x24\n    /* \"#utility.yul\":9110:9111   */\n  0x00\n    /* \"#utility.yul\":9103:9118   */\n  revert\n    /* \"#utility.yul\":9130:9310   */\ntag_210:\n    /* \"#utility.yul\":9178:9255   */\n  0x4e487b7100000000000000000000000000000000000000000000000000000000\n    /* \"#utility.yul\":9175:9176   */\n  0x00\n    /* \"#utility.yul\":9168:9256   */\n  mstore\n    /* \"#utility.yul\":9275:9279   */\n  0x22\n    /* \"#utility.yul\":9272:9273   */\n  0x04\n    /* \"#utility.yul\":9265:9280   */\n  mstore\n    /* \"#utility.yul\":9299:9303   */\n  0x24\n    /* \"#utility.yul\":9296:9297   */\n  0x00\n    /* \"#utility.yul\":9289:9304   */\n  revert\n    /* \"#utility.yul\":9316:9496   */\ntag_15:\n    /* \"#utility.yul\":9364:9441   */\n  0x4e487b7100000000000000000000000000000000000000000000000000000000\n    /* \"#utility.yul\":9361:9362   */\n  0x00\n    /* \"#utility.yul\":9354:9442   */\n  mstore\n    /* \"#utility.yul\":9461:9465   */\n  0x41\n    /* \"#utility.yul\":9458:9459   */\n  0x04\n    /* \"#utility.yul\":9451:9466   */\n  mstore\n    /* \"#utility.yul\":9485:9489   */\n  0x24\n    /* \"#utility.yul\":9482:9483   */\n  0x00\n    /* \"#utility.yul\":9475:9490   */\n  revert\n    /* \"#utility.yul\":9625:9742   */\ntag_140:\n    /* \"#utility.yul\":9734:9735   */\n  0x00\n    /* \"#utility.yul\":9731:9732   */\n  dup1\n    /* \"#utility.yul\":9724:9736   */\n  revert\n    /* \"#utility.yul\":9748:9907   */\ntag_147:\n    /* \"#utility.yul\":9888:9899   */\n  0x536369656e746973740000000000000000000000000000000000000000000000\n    /* \"#utility.yul\":9884:9885   */\n  0x00\n    /* \"#utility.yul\":9876:9882   */\n  dup3\n    /* \"#utility.yul\":9872:9886   */\n  add\n    /* \"#utility.yul\":9865:9900   */\n  mstore\n    /* \"#utility.yul\":9748:9907   */\n  pop\n  jump\t// out\n    /* \"#utility.yul\":9913:10067   */\ntag_152:\n    /* \"#utility.yul\":10053:10059   */\n  0x6976616e00000000000000000000000000000000000000000000000000000000\n    /* \"#utility.yul\":10049:10050   */\n  0x00\n    /* \"#utility.yul\":10041:10047   */\n  dup3\n    /* \"#utility.yul\":10037:10051   */\n  add\n    /* \"#utility.yul\":10030:10060   */\n  mstore\n    /* \"#utility.yul\":9913:10067   */\n  pop\n  jump\t// out\n    /* \"#utility.yul\":10073:10229   */\ntag_157:\n    /* \"#utility.yul\":10213:10221   */\n  0x61646d696e320000000000000000000000000000000000000000000000000000\n    /* \"#utility.yul\":10209:10210   */\n  0x00\n    /* \"#utility.yul\":10201:10207   */\n  dup3\n    /* \"#utility.yul\":10197:10211   */\n  add\n    /* \"#utility.yul\":10190:10222   */\n  mstore\n    /* \"#utility.yul\":10073:10229   */\n  pop\n  jump\t// out\n    /* \"#utility.yul\":10235:10386   */\ntag_162:\n    /* \"#utility.yul\":10375:10378   */\n  0x3100000000000000000000000000000000000000000000000000000000000000\n    /* \"#utility.yul\":10371:10372   */\n  0x00\n    /* \"#utility.yul\":10363:10369   */\n  dup3\n    /* \"#utility.yul\":10359:10373   */\n  add\n    /* \"#utility.yul\":10352:10379   */\n  mstore\n    /* \"#utility.yul\":10235:10386   */\n  pop\n  jump\t// out\n    /* \"#utility.yul\":10392:10548   */\ntag_167:\n    /* \"#utility.yul\":10532:10540   */\n  0x61646d696e310000000000000000000000000000000000000000000000000000\n    /* \"#utility.yul\":10528:10529   */\n  0x00\n    /* \"#utility.yul\":10520:10526   */\n  dup3\n    /* \"#utility.yul\":10516:10530   */\n  add\n    /* \"#utility.yul\":10509:10541   */\n  mstore\n    /* \"#utility.yul\":10392:10548   */\n  pop\n  jump\t// out\n    /* \"#utility.yul\":10554:10713   */\ntag_172:\n    /* \"#utility.yul\":10694:10705   */\n  0x446576656c6f7065720000000000000000000000000000000000000000000000\n    /* \"#utility.yul\":10690:10691   */\n  0x00\n    /* \"#utility.yul\":10682:10688   */\n  dup3\n    /* \"#utility.yul\":10678:10692   */\n  add\n    /* \"#utility.yul\":10671:10706   */\n  mstore\n    /* \"#utility.yul\":10554:10713   */\n  pop\n  jump\t// out\n    /* \"#utility.yul\":10719:10841   */\ntag_136:\n    /* \"#utility.yul\":10792:10816   */\n  tag_224\n    /* \"#utility.yul\":10810:10815   */\n  dup2\n    /* \"#utility.yul\":10792:10816   */\n  tag_201\n  jump\t// in\ntag_224:\n    /* \"#utility.yul\":10785:10790   */\n  dup2\n    /* \"#utility.yul\":10782:10817   */\n  eq\n    /* \"#utility.yul\":10772:10835   */\n  tag_225\n  jumpi\n    /* \"#utility.yul\":10831:10832   */\n  0x00\n    /* \"#utility.yul\":10828:10829   */\n  dup1\n    /* \"#utility.yul\":10821:10833   */\n  revert\n    /* \"#utility.yul\":10772:10835   */\ntag_225:\n    /* \"#utility.yul\":10719:10841   */\n  pop\n  jump\t// out\n    /* \"Storage.sol\":36:6130  contract GlobaLStorage {\r... */\ntag_86:\n  dataSize(sub_0)\n  dup1\n  dataOffset(sub_0)\n  0x00\n  codecopy\n  0x00\n  return\nstop\ndata_23077a296aa89ae8b0ae9cebbabd0c0e5f6a1cdcfe538546d369bce89d49e5de 4d617468656d61746963616c206d6f64656c696e6720616e6420616e616c79736973\ndata_26e8b079e834208cb7af6041f0347821dcba48a324036711b6873e27a4d1cb28 546865726d616c207068656e6f6d656e6120616e64206d6f6c6563756c61722073747275637475726573\ndata_37c9252157ddc7aa1132b4758a15667ebf4428065a0ebec78fdcbc163cb8db6c 4d6963726f656c656374726f6e69637320616e64206369726375697420656e67696e656572696e67\n\nsub_0: assembly {\n        /* \"Storage.sol\":36:6130  contract GlobaLStorage {\r... */\n      mstore(0x40, 0x80)\n      callvalue\n      dup1\n      iszero\n      tag_1\n      jumpi\n      0x00\n      dup1\n      revert\n    tag_1:\n      pop\n      jumpi(tag_2, lt(calldatasize, 0x04))\n      shr(0xe0, calldataload(0x00))\n      dup1\n      0x86c65d28\n      eq\n      tag_3\n      jumpi\n      dup1\n      0x9cad5d4c\n      eq\n      tag_4\n      jumpi\n      dup1\n      0xeaeb60e3\n      eq\n      tag_5\n      jumpi\n    tag_2:\n      0x00\n      dup1\n      revert\n        /* \"Storage.sol\":2347:2377  string[] public schoolSubjects */\n    tag_3:\n      tag_6\n      0x04\n      dup1\n      calldatasize\n      sub\n      dup2\n      add\n      swap1\n      tag_7\n      swap2\n      swap1\n      tag_8\n      jump\t// in\n    tag_7:\n      tag_9\n      jump\t// in\n    tag_6:\n      mload(0x40)\n      tag_10\n      swap2\n      swap1\n      tag_11\n      jump\t// in\n    tag_10:\n      mload(0x40)\n      dup1\n      swap2\n      sub\n      swap1\n      return\n        /* \"Storage.sol\":2392:2420  string[] public laboratories */\n    tag_4:\n      tag_12\n      0x04\n      dup1\n      calldatasize\n      sub\n      dup2\n      add\n      swap1\n      tag_13\n      swap2\n      swap1\n      tag_8\n      jump\t// in\n    tag_13:\n      tag_14\n      jump\t// in\n    tag_12:\n      mload(0x40)\n      tag_15\n      swap2\n      swap1\n      tag_11\n      jump\t// in\n    tag_15:\n      mload(0x40)\n      dup1\n      swap2\n      sub\n      swap1\n      return\n        /* \"Storage.sol\":2427:2454  string[] public departments */\n    tag_5:\n      tag_16\n      0x04\n      dup1\n      calldatasize\n      sub\n      dup2\n      add\n      swap1\n      tag_17\n      swap2\n      swap1\n      tag_8\n      jump\t// in\n    tag_17:\n      tag_18\n      jump\t// in\n    tag_16:\n      mload(0x40)\n      tag_19\n      swap2\n      swap1\n      tag_11\n      jump\t// in\n    tag_19:\n      mload(0x40)\n      dup1\n      swap2\n      sub\n      swap1\n      return\n        /* \"Storage.sol\":2347:2377  string[] public schoolSubjects */\n    tag_9:\n      0x08\n      dup2\n      dup2\n      sload\n      dup2\n      lt\n      tag_20\n      jumpi\n      0x00\n      dup1\n      revert\n    tag_20:\n      swap1\n      0x00\n      mstore\n      keccak256(0x00, 0x20)\n      add\n      0x00\n      swap2\n      pop\n      swap1\n      pop\n      dup1\n      sload\n      tag_22\n      swap1\n      tag_23\n      jump\t// in\n    tag_22:\n      dup1\n      0x1f\n      add\n      0x20\n      dup1\n      swap2\n      div\n      mul\n      0x20\n      add\n      mload(0x40)\n      swap1\n      dup2\n      add\n      0x40\n      mstore\n      dup1\n      swap3\n      swap2\n      swap1\n      dup2\n      dup2\n      mstore\n      0x20\n      add\n      dup3\n      dup1\n      sload\n      tag_24\n      swap1\n      tag_23\n      jump\t// in\n    tag_24:\n      dup1\n      iszero\n      tag_25\n      jumpi\n      dup1\n      0x1f\n      lt\n      tag_26\n      jumpi\n      0x0100\n      dup1\n      dup4\n      sload\n      div\n      mul\n      dup4\n      mstore\n      swap2\n      0x20\n      add\n      swap2\n      jump(tag_25)\n    tag_26:\n      dup3\n      add\n      swap2\n      swap1\n      0x00\n      mstore\n      keccak256(0x00, 0x20)\n      swap1\n    tag_27:\n      dup2\n      sload\n      dup2\n      mstore\n      swap1\n      0x01\n      add\n      swap1\n      0x20\n      add\n      dup1\n      dup4\n      gt\n      tag_27\n      jumpi\n      dup3\n      swap1\n      sub\n      0x1f\n      and\n      dup3\n      add\n      swap2\n    tag_25:\n      pop\n      pop\n      pop\n      pop\n      pop\n      dup2\n      jump\t// out\n        /* \"Storage.sol\":2392:2420  string[] public laboratories */\n    tag_14:\n      0x09\n      dup2\n      dup2\n      sload\n      dup2\n      lt\n      tag_28\n      jumpi\n      0x00\n      dup1\n      revert\n    tag_28:\n      swap1\n      0x00\n      mstore\n      keccak256(0x00, 0x20)\n      add\n      0x00\n      swap2\n      pop\n      swap1\n      pop\n      dup1\n      sload\n      tag_30\n      swap1\n      tag_23\n      jump\t// in\n    tag_30:\n      dup1\n      0x1f\n      add\n      0x20\n      dup1\n      swap2\n      div\n      mul\n      0x20\n      add\n      mload(0x40)\n      swap1\n      dup2\n      add\n      0x40\n      mstore\n      dup1\n      swap3\n      swap2\n      swap1\n      dup2\n      dup2\n      mstore\n      0x20\n      add\n      dup3\n      dup1\n      sload\n      tag_31\n      swap1\n      tag_23\n      jump\t// in\n    tag_31:\n      dup1\n      iszero\n      tag_32\n      jumpi\n      dup1\n      0x1f\n      lt\n      tag_33\n      jumpi\n      0x0100\n      dup1\n      dup4\n      sload\n      div\n      mul\n      dup4\n      mstore\n      swap2\n      0x20\n      add\n      swap2\n      jump(tag_32)\n    tag_33:\n      dup3\n      add\n      swap2\n      swap1\n      0x00\n      mstore\n      keccak256(0x00, 0x20)\n      swap1\n    tag_34:\n      dup2\n      sload\n      dup2\n      mstore\n      swap1\n      0x01\n      add\n      swap1\n      0x20\n      add\n      dup1\n      dup4\n      gt\n      tag_34\n      jumpi\n      dup3\n      swap1\n      sub\n      0x1f\n      and\n      dup3\n      add\n      swap2\n    tag_32:\n      pop\n      pop\n      pop\n      pop\n      pop\n      dup2\n      jump\t// out\n        /* \"Storage.sol\":2427:2454  string[] public departments */\n    tag_18:\n      0x0a\n      dup2\n      dup2\n      sload\n      dup2\n      lt\n      tag_35\n      jumpi\n      0x00\n      dup1\n      revert\n    tag_35:\n      swap1\n      0x00\n      mstore\n      keccak256(0x00, 0x20)\n      add\n      0x00\n      swap2\n      pop\n      swap1\n      pop\n      dup1\n      sload\n      tag_37\n      swap1\n      tag_23\n      jump\t// in\n    tag_37:\n      dup1\n      0x1f\n      add\n      0x20\n      dup1\n      swap2\n      div\n      mul\n      0x20\n      add\n      mload(0x40)\n      swap1\n      dup2\n      add\n      0x40\n      mstore\n      dup1\n      swap3\n      swap2\n      swap1\n      dup2\n      dup2\n      mstore\n      0x20\n      add\n      dup3\n      dup1\n      sload\n      tag_38\n      swap1\n      tag_23\n      jump\t// in\n    tag_38:\n      dup1\n      iszero\n      tag_39\n      jumpi\n      dup1\n      0x1f\n      lt\n      tag_40\n      jumpi\n      0x0100\n      dup1\n      dup4\n      sload\n      div\n      mul\n      dup4\n      mstore\n      swap2\n      0x20\n      add\n      swap2\n      jump(tag_39)\n    tag_40:\n      dup3\n      add\n      swap2\n      swap1\n      0x00\n      mstore\n      keccak256(0x00, 0x20)\n      swap1\n    tag_41:\n      dup2\n      sload\n      dup2\n      mstore\n      swap1\n      0x01\n      add\n      swap1\n      0x20\n      add\n      dup1\n      dup4\n      gt\n      tag_41\n      jumpi\n      dup3\n      swap1\n      sub\n      0x1f\n      and\n      dup3\n      add\n      swap2\n    tag_39:\n      pop\n      pop\n      pop\n      pop\n      pop\n      dup2\n      jump\t// out\n        /* \"#utility.yul\":7:146   */\n    tag_43:\n        /* \"#utility.yul\":53:58   */\n      0x00\n        /* \"#utility.yul\":91:97   */\n      dup2\n        /* \"#utility.yul\":78:98   */\n      calldataload\n        /* \"#utility.yul\":69:98   */\n      swap1\n      pop\n        /* \"#utility.yul\":107:140   */\n      tag_45\n        /* \"#utility.yul\":134:139   */\n      dup2\n        /* \"#utility.yul\":107:140   */\n      tag_46\n      jump\t// in\n    tag_45:\n        /* \"#utility.yul\":7:146   */\n      swap3\n      swap2\n      pop\n      pop\n      jump\t// out\n        /* \"#utility.yul\":152:481   */\n    tag_8:\n        /* \"#utility.yul\":211:217   */\n      0x00\n        /* \"#utility.yul\":260:262   */\n      0x20\n        /* \"#utility.yul\":248:257   */\n      dup3\n        /* \"#utility.yul\":239:246   */\n      dup5\n        /* \"#utility.yul\":235:258   */\n      sub\n        /* \"#utility.yul\":231:263   */\n      slt\n        /* \"#utility.yul\":228:347   */\n      iszero\n      tag_48\n      jumpi\n        /* \"#utility.yul\":266:345   */\n      tag_49\n      tag_50\n      jump\t// in\n    tag_49:\n        /* \"#utility.yul\":228:347   */\n    tag_48:\n        /* \"#utility.yul\":386:387   */\n      0x00\n        /* \"#utility.yul\":411:464   */\n      tag_51\n        /* \"#utility.yul\":456:463   */\n      dup5\n        /* \"#utility.yul\":447:453   */\n      dup3\n        /* \"#utility.yul\":436:445   */\n      dup6\n        /* \"#utility.yul\":432:454   */\n      add\n        /* \"#utility.yul\":411:464   */\n      tag_43\n      jump\t// in\n    tag_51:\n        /* \"#utility.yul\":401:464   */\n      swap2\n      pop\n        /* \"#utility.yul\":357:474   */\n      pop\n        /* \"#utility.yul\":152:481   */\n      swap3\n      swap2\n      pop\n      pop\n      jump\t// out\n        /* \"#utility.yul\":487:851   */\n    tag_52:\n        /* \"#utility.yul\":575:578   */\n      0x00\n        /* \"#utility.yul\":603:642   */\n      tag_54\n        /* \"#utility.yul\":636:641   */\n      dup3\n        /* \"#utility.yul\":603:642   */\n      tag_55\n      jump\t// in\n    tag_54:\n        /* \"#utility.yul\":658:729   */\n      tag_56\n        /* \"#utility.yul\":722:728   */\n      dup2\n        /* \"#utility.yul\":717:720   */\n      dup6\n        /* \"#utility.yul\":658:729   */\n      tag_57\n      jump\t// in\n    tag_56:\n        /* \"#utility.yul\":651:729   */\n      swap4\n      pop\n        /* \"#utility.yul\":738:790   */\n      tag_58\n        /* \"#utility.yul\":783:789   */\n      dup2\n        /* \"#utility.yul\":778:781   */\n      dup6\n        /* \"#utility.yul\":771:775   */\n      0x20\n        /* \"#utility.yul\":764:769   */\n      dup7\n        /* \"#utility.yul\":760:776   */\n      add\n        /* \"#utility.yul\":738:790   */\n      tag_59\n      jump\t// in\n    tag_58:\n        /* \"#utility.yul\":815:844   */\n      tag_60\n        /* \"#utility.yul\":837:843   */\n      dup2\n        /* \"#utility.yul\":815:844   */\n      tag_61\n      jump\t// in\n    tag_60:\n        /* \"#utility.yul\":810:813   */\n      dup5\n        /* \"#utility.yul\":806:845   */\n      add\n        /* \"#utility.yul\":799:845   */\n      swap2\n      pop\n        /* \"#utility.yul\":579:851   */\n      pop\n        /* \"#utility.yul\":487:851   */\n      swap3\n      swap2\n      pop\n      pop\n      jump\t// out\n        /* \"#utility.yul\":857:1170   */\n    tag_11:\n        /* \"#utility.yul\":970:974   */\n      0x00\n        /* \"#utility.yul\":1008:1010   */\n      0x20\n        /* \"#utility.yul\":997:1006   */\n      dup3\n        /* \"#utility.yul\":993:1011   */\n      add\n        /* \"#utility.yul\":985:1011   */\n      swap1\n      pop\n        /* \"#utility.yul\":1057:1066   */\n      dup2\n        /* \"#utility.yul\":1051:1055   */\n      dup2\n        /* \"#utility.yul\":1047:1067   */\n      sub\n        /* \"#utility.yul\":1043:1044   */\n      0x00\n        /* \"#utility.yul\":1032:1041   */\n      dup4\n        /* \"#utility.yul\":1028:1045   */\n      add\n        /* \"#utility.yul\":1021:1068   */\n      mstore\n        /* \"#utility.yul\":1085:1163   */\n      tag_63\n        /* \"#utility.yul\":1158:1162   */\n      dup2\n        /* \"#utility.yul\":1149:1155   */\n      dup5\n        /* \"#utility.yul\":1085:1163   */\n      tag_52\n      jump\t// in\n    tag_63:\n        /* \"#utility.yul\":1077:1163   */\n      swap1\n      pop\n        /* \"#utility.yul\":857:1170   */\n      swap3\n      swap2\n      pop\n      pop\n      jump\t// out\n        /* \"#utility.yul\":1257:1356   */\n    tag_55:\n        /* \"#utility.yul\":1309:1315   */\n      0x00\n        /* \"#utility.yul\":1343:1348   */\n      dup2\n        /* \"#utility.yul\":1337:1349   */\n      mload\n        /* \"#utility.yul\":1327:1349   */\n      swap1\n      pop\n        /* \"#utility.yul\":1257:1356   */\n      swap2\n      swap1\n      pop\n      jump\t// out\n        /* \"#utility.yul\":1362:1531   */\n    tag_57:\n        /* \"#utility.yul\":1446:1457   */\n      0x00\n        /* \"#utility.yul\":1480:1486   */\n      dup3\n        /* \"#utility.yul\":1475:1478   */\n      dup3\n        /* \"#utility.yul\":1468:1487   */\n      mstore\n        /* \"#utility.yul\":1520:1524   */\n      0x20\n        /* \"#utility.yul\":1515:1518   */\n      dup3\n        /* \"#utility.yul\":1511:1525   */\n      add\n        /* \"#utility.yul\":1496:1525   */\n      swap1\n      pop\n        /* \"#utility.yul\":1362:1531   */\n      swap3\n      swap2\n      pop\n      pop\n      jump\t// out\n        /* \"#utility.yul\":1537:1614   */\n    tag_68:\n        /* \"#utility.yul\":1574:1581   */\n      0x00\n        /* \"#utility.yul\":1603:1608   */\n      dup2\n        /* \"#utility.yul\":1592:1608   */\n      swap1\n      pop\n        /* \"#utility.yul\":1537:1614   */\n      swap2\n      swap1\n      pop\n      jump\t// out\n        /* \"#utility.yul\":1620:1927   */\n    tag_59:\n        /* \"#utility.yul\":1688:1689   */\n      0x00\n        /* \"#utility.yul\":1698:1811   */\n    tag_71:\n        /* \"#utility.yul\":1712:1718   */\n      dup4\n        /* \"#utility.yul\":1709:1710   */\n      dup2\n        /* \"#utility.yul\":1706:1719   */\n      lt\n        /* \"#utility.yul\":1698:1811   */\n      iszero\n      tag_73\n      jumpi\n        /* \"#utility.yul\":1797:1798   */\n      dup1\n        /* \"#utility.yul\":1792:1795   */\n      dup3\n        /* \"#utility.yul\":1788:1799   */\n      add\n        /* \"#utility.yul\":1782:1800   */\n      mload\n        /* \"#utility.yul\":1778:1779   */\n      dup2\n        /* \"#utility.yul\":1773:1776   */\n      dup5\n        /* \"#utility.yul\":1769:1780   */\n      add\n        /* \"#utility.yul\":1762:1801   */\n      mstore\n        /* \"#utility.yul\":1734:1736   */\n      0x20\n        /* \"#utility.yul\":1731:1732   */\n      dup2\n        /* \"#utility.yul\":1727:1737   */\n      add\n        /* \"#utility.yul\":1722:1737   */\n      swap1\n      pop\n        /* \"#utility.yul\":1698:1811   */\n      jump(tag_71)\n    tag_73:\n        /* \"#utility.yul\":1829:1835   */\n      dup4\n        /* \"#utility.yul\":1826:1827   */\n      dup2\n        /* \"#utility.yul\":1823:1836   */\n      gt\n        /* \"#utility.yul\":1820:1921   */\n      iszero\n      tag_74\n      jumpi\n        /* \"#utility.yul\":1909:1910   */\n      0x00\n        /* \"#utility.yul\":1900:1906   */\n      dup5\n        /* \"#utility.yul\":1895:1898   */\n      dup5\n        /* \"#utility.yul\":1891:1907   */\n      add\n        /* \"#utility.yul\":1884:1911   */\n      mstore\n        /* \"#utility.yul\":1820:1921   */\n    tag_74:\n        /* \"#utility.yul\":1669:1927   */\n      pop\n        /* \"#utility.yul\":1620:1927   */\n      pop\n      pop\n      pop\n      jump\t// out\n        /* \"#utility.yul\":1933:2253   */\n    tag_23:\n        /* \"#utility.yul\":1977:1983   */\n      0x00\n        /* \"#utility.yul\":2014:2015   */\n      0x02\n        /* \"#utility.yul\":2008:2012   */\n      dup3\n        /* \"#utility.yul\":2004:2016   */\n      div\n        /* \"#utility.yul\":1994:2016   */\n      swap1\n      pop\n        /* \"#utility.yul\":2061:2062   */\n      0x01\n        /* \"#utility.yul\":2055:2059   */\n      dup3\n        /* \"#utility.yul\":2051:2063   */\n      and\n        /* \"#utility.yul\":2082:2100   */\n      dup1\n        /* \"#utility.yul\":2072:2153   */\n      tag_76\n      jumpi\n        /* \"#utility.yul\":2138:2142   */\n      0x7f\n        /* \"#utility.yul\":2130:2136   */\n      dup3\n        /* \"#utility.yul\":2126:2143   */\n      and\n        /* \"#utility.yul\":2116:2143   */\n      swap2\n      pop\n        /* \"#utility.yul\":2072:2153   */\n    tag_76:\n        /* \"#utility.yul\":2200:2202   */\n      0x20\n        /* \"#utility.yul\":2192:2198   */\n      dup3\n        /* \"#utility.yul\":2189:2203   */\n      lt\n        /* \"#utility.yul\":2169:2187   */\n      dup2\n        /* \"#utility.yul\":2166:2204   */\n      eq\n        /* \"#utility.yul\":2163:2247   */\n      iszero\n      tag_77\n      jumpi\n        /* \"#utility.yul\":2219:2237   */\n      tag_78\n      tag_79\n      jump\t// in\n    tag_78:\n        /* \"#utility.yul\":2163:2247   */\n    tag_77:\n        /* \"#utility.yul\":1984:2253   */\n      pop\n        /* \"#utility.yul\":1933:2253   */\n      swap2\n      swap1\n      pop\n      jump\t// out\n        /* \"#utility.yul\":2259:2439   */\n    tag_79:\n        /* \"#utility.yul\":2307:2384   */\n      0x4e487b7100000000000000000000000000000000000000000000000000000000\n        /* \"#utility.yul\":2304:2305   */\n      0x00\n        /* \"#utility.yul\":2297:2385   */\n      mstore\n        /* \"#utility.yul\":2404:2408   */\n      0x22\n        /* \"#utility.yul\":2401:2402   */\n      0x04\n        /* \"#utility.yul\":2394:2409   */\n      mstore\n        /* \"#utility.yul\":2428:2432   */\n      0x24\n        /* \"#utility.yul\":2425:2426   */\n      0x00\n        /* \"#utility.yul\":2418:2433   */\n      revert\n        /* \"#utility.yul\":2568:2685   */\n    tag_50:\n        /* \"#utility.yul\":2677:2678   */\n      0x00\n        /* \"#utility.yul\":2674:2675   */\n      dup1\n        /* \"#utility.yul\":2667:2679   */\n      revert\n        /* \"#utility.yul\":2691:2793   */\n    tag_61:\n        /* \"#utility.yul\":2732:2738   */\n      0x00\n        /* \"#utility.yul\":2783:2785   */\n      0x1f\n        /* \"#utility.yul\":2779:2786   */\n      not\n        /* \"#utility.yul\":2774:2776   */\n      0x1f\n        /* \"#utility.yul\":2767:2772   */\n      dup4\n        /* \"#utility.yul\":2763:2777   */\n      add\n        /* \"#utility.yul\":2759:2787   */\n      and\n        /* \"#utility.yul\":2749:2787   */\n      swap1\n      pop\n        /* \"#utility.yul\":2691:2793   */\n      swap2\n      swap1\n      pop\n      jump\t// out\n        /* \"#utility.yul\":2799:2921   */\n    tag_46:\n        /* \"#utility.yul\":2872:2896   */\n      tag_86\n        /* \"#utility.yul\":2890:2895   */\n      dup2\n        /* \"#utility.yul\":2872:2896   */\n      tag_68\n      jump\t// in\n    tag_86:\n        /* \"#utility.yul\":2865:2870   */\n      dup2\n        /* \"#utility.yul\":2862:2897   */\n      eq\n        /* \"#utility.yul\":2852:2915   */\n      tag_87\n      jumpi\n        /* \"#utility.yul\":2911:2912   */\n      0x00\n        /* \"#utility.yul\":2908:2909   */\n      dup1\n        /* \"#utility.yul\":2901:2913   */\n      revert\n        /* \"#utility.yul\":2852:2915   */\n    tag_87:\n        /* \"#utility.yul\":2799:2921   */\n      pop\n      jump\t// out\n\n    auxdata: 0xa2646970667358221220ffddcf8f7ebf435e3dde0b4a061df0af97e2f7fbb0a09714d39995433cb7fdd064736f6c63430008070033\n}\n",
				"bytecode": {
					"linkReferences": {},
					"object": "60806040523480156200001157600080fd5b50604051620022c8380380620022c8833981810160405281019062000037919062001956565b60405180604001604052806040518060400160405280600381526020017f4e6f74000000000000000000000000000000000000000000000000000000000081525081526020016040518060400160405280601181526020017f4d617468416e64496e666f726d61746963000000000000000000000000000000815250815250600a906002620000c8929190620015d4565b506040518060a001604052806040518060200160405280600081525081526020016040518060400160405280600481526020017f4d6174680000000000000000000000000000000000000000000000000000000081525081526020016040518060400160405280600781526020017f506879736963730000000000000000000000000000000000000000000000000081525081526020016040518060400160405280601081526020017f436f6d707574657220536369656e63650000000000000000000000000000000081525081526020016040518060400160405280600781526020017f5275737369616e000000000000000000000000000000000000000000000000008152508152506008906005620001e59291906200163b565b506040518061016001604052806040518060400160405280600381526020017f4e6f74000000000000000000000000000000000000000000000000000000000081525081526020016040518060400160405280601981526020017f456c65637472696369747920616e64206d61676e657469736d0000000000000081525081526020016040518060400160405280600b81526020017f50726f746f747970696e6700000000000000000000000000000000000000000081525081526020016040518060400160405280601681526020017f4d656368616e69637320616e6420737472656e6774680000000000000000000081525081526020016040518060600160405280602a815260200162002276602a91398152602001604051806060016040528060288152602001620022a06028913981526020016040518060400160405280601381526020017f4175746f6e6f6d6f7573206176696f6e6963730000000000000000000000000081525081526020016040518060400160405280600881526020017f526f626f7469637300000000000000000000000000000000000000000000000081525081526020016040518060400160405280600b81526020017f50726f6772616d6d696e670000000000000000000000000000000000000000008152508152602001604051806060016040528060228152602001620022546022913981526020016040518060400160405280601f81526020017f417374726f6e6f6d7920616e64204165726f73706163652053797374656d7300815250815250600990600b62000437929190620016a2565b506007600181600181540180825580915050039060005260206000209050506040518060e001604052806040518060400160405280600981526020017f446576656c6f706572000000000000000000000000000000000000000000000081525081526020016040518060400160405280600281526020017f475000000000000000000000000000000000000000000000000000000000000081525081526020016040518060400160405280600281526020017fd0980000000000000000000000000000000000000000000000000000000000008152508152602001604051806020016040528060008152508152602001600067ffffffffffffffff81111562000545576200054462001c6c565b5b6040519080825280602002602001820160405280156200057a57816020015b6060815260200190600190039081620005645790505b508152602001600060ff1681526020016040516020016200059b9062001b75565b60405160208183030381529060405280519060200120815250600080735b38da6a701c568545dcfcb03fcb875f56beddc473ffffffffffffffffffffffffffffffffffffffff1673ffffffffffffffffffffffffffffffffffffffff16815260200190815260200160002060008201518160000190805190602001906200062492919062001709565b5060208201518160010190805190602001906200064392919062001709565b5060408201518160020190805190602001906200066292919062001709565b5060608201518160030190805190602001906200068192919062001709565b506080820151816004019080519060200190620006a09291906200179a565b5060a08201518160050160006101000a81548160ff021916908360ff16021790555060c0820151816006015590505060405180608001604052806040518060400160405280600681526020017f61646d696e31000000000000000000000000000000000000000000000000000081525081526020016040518060400160405280600281526020017f47500000000000000000000000000000000000000000000000000000000000008152508152602001604051602001620007619062001b3a565b604051602081830303815290604052805190602001208152602001600115158152506002600073ab8483f64d9c6d1ecf9b849ae677dd3315835cb273ffffffffffffffffffffffffffffffffffffffff1673ffffffffffffffffffffffffffffffffffffffff1681526020019081526020016000206000820151816000019080519060200190620007f492919062001709565b5060208201518160010190805190602001906200081392919062001709565b506040820151816002015560608201518160030160006101000a81548160ff021916908315150217905550905050735b38da6a701c568545dcfcb03fcb875f56beddc46005604051620008669062001b5e565b908152602001604051809103902060006101000a81548173ffffffffffffffffffffffffffffffffffffffff021916908373ffffffffffffffffffffffffffffffffffffffff16021790555073ab8483f64d9c6d1ecf9b849ae677dd3315835cb26005604051620008d79062001b23565b908152602001604051809103902060006101000a81548173ffffffffffffffffffffffffffffffffffffffff021916908373ffffffffffffffffffffffffffffffffffffffff160217905550600660046000735b38da6a701c568545dcfcb03fcb875f56beddc473ffffffffffffffffffffffffffffffffffffffff1673ffffffffffffffffffffffffffffffffffffffff16815260200190815260200160002060006101000a81548160ff021916908360078111156200099d576200099c62001c0e565b5b021790555060076004600073ab8483f64d9c6d1ecf9b849ae677dd3315835cb273ffffffffffffffffffffffffffffffffffffffff1673ffffffffffffffffffffffffffffffffffffffff16815260200190815260200160002060006101000a81548160ff0219169083600781111562000a1c5762000a1b62001c0e565b5b02179055506040518060e001604052806040518060400160405280600481526020017f6976616e0000000000000000000000000000000000000000000000000000000081525081526020016040518060400160405280600281526020017f444d00000000000000000000000000000000000000000000000000000000000081525081526020016040518060400160405280600281526020017fd0980000000000000000000000000000000000000000000000000000000000008152508152602001604051806020016040528060008152508152602001600067ffffffffffffffff81111562000b105762000b0f62001c6c565b5b60405190808252806020026020018201604052801562000b4557816020015b606081526020019060019003908162000b2f5790505b508152602001600060ff16815260200160405160200162000b669062001ac4565b60405160208183030381529060405280519060200120815250600080734b20993bc481177ec7e8f571cecae8a9e22c02db73ffffffffffffffffffffffffffffffffffffffff1673ffffffffffffffffffffffffffffffffffffffff168152602001908152602001600020600082015181600001908051906020019062000bef92919062001709565b50602082015181600101908051906020019062000c0e92919062001709565b50604082015181600201908051906020019062000c2d92919062001709565b50606082015181600301908051906020019062000c4c92919062001709565b50608082015181600401908051906020019062000c6b9291906200179a565b5060a08201518160050160006101000a81548160ff021916908360ff16021790555060c0820151816006015590505060405180608001604052806040518060400160405280600681526020017f61646d696e32000000000000000000000000000000000000000000000000000081525081526020016040518060400160405280600281526020017f444d000000000000000000000000000000000000000000000000000000000000815250815260200160405160200162000d2c9062001aff565b60405160208183030381529060405280519060200120815260200160011515815250600260007378731d3ca6b7e34ac0f824c42a7cc18a495cabab73ffffffffffffffffffffffffffffffffffffffff1673ffffffffffffffffffffffffffffffffffffffff168152602001908152602001600020600082015181600001908051906020019062000dbf92919062001709565b50602082015181600101908051906020019062000dde92919062001709565b506040820151816002015560608201518160030160006101000a81548160ff021916908315150217905550905050734b20993bc481177ec7e8f571cecae8a9e22c02db600560405162000e319062001aad565b908152602001604051809103902060006101000a81548173ffffffffffffffffffffffffffffffffffffffff021916908373ffffffffffffffffffffffffffffffffffffffff1602179055507378731d3ca6b7e34ac0f824c42a7cc18a495cabab600560405162000ea29062001ae8565b908152602001604051809103902060006101000a81548173ffffffffffffffffffffffffffffffffffffffff021916908373ffffffffffffffffffffffffffffffffffffffff160217905550600660046000734b20993bc481177ec7e8f571cecae8a9e22c02db73ffffffffffffffffffffffffffffffffffffffff1673ffffffffffffffffffffffffffffffffffffffff16815260200190815260200160002060006101000a81548160ff0219169083600781111562000f685762000f6762001c0e565b5b02179055506007600460007378731d3ca6b7e34ac0f824c42a7cc18a495cabab73ffffffffffffffffffffffffffffffffffffffff1673ffffffffffffffffffffffffffffffffffffffff16815260200190815260200160002060006101000a81548160ff0219169083600781111562000fe75762000fe662001c0e565b5b02179055506040518061012001604052806040518060400160405280600981526020017f536369656e74697374000000000000000000000000000000000000000000000081525081526020016040518060400160405280600281526020017f4453000000000000000000000000000000000000000000000000000000000000815250815260200160405180602001604052806000815250815260200160018152602001600067ffffffffffffffff811115620010a857620010a762001c6c565b5b604051908082528060200260200182016040528015620010d75781602001602082028036833780820191505090505b508152602001600067ffffffffffffffff811115620010fb57620010fa62001c6c565b5b6040519080825280602002602001820160405280156200112a5781602001602082028036833780820191505090505b508152602001604051602001620011419062001a89565b604051602081830303815290604052805190602001208152602001600115158152602001600115158152506001600073617f2e2fd72fd9d5503197092ac168c91465e7f273ffffffffffffffffffffffffffffffffffffffff1673ffffffffffffffffffffffffffffffffffffffff1681526020019081526020016000206000820151816000019080519060200190620011dd92919062001709565b506020820151816001019080519060200190620011fc92919062001709565b5060408201518160020190805190602001906200121b92919062001709565b506060820151816003015560808201518160040190805190602001906200124492919062001801565b5060a08201518160050190805190602001906200126392919062001801565b5060c0820151816006015560e08201518160070160006101000a81548160ff0219169083151502179055506101008201518160070160016101000a81548160ff0219169083151502179055509050506001600073617f2e2fd72fd9d5503197092ac168c91465e7f273ffffffffffffffffffffffffffffffffffffffff1673ffffffffffffffffffffffffffffffffffffffff168152602001908152602001600020600501600390806001815401808255809150506001900390600052602060002090601091828204019190066002029091909190916101000a81548161ffff021916908361ffff16021790555060006001600073617f2e2fd72fd9d5503197092ac168c91465e7f273ffffffffffffffffffffffffffffffffffffffff1673ffffffffffffffffffffffffffffffffffffffff168152602001908152602001600020905080600401600190806001815401808255809150506001900390600052602060002090601091828204019190066002029091909190916101000a81548161ffff021916908361ffff16021790555080600401600290806001815401808255809150506001900390600052602060002090601091828204019190066002029091909190916101000a81548161ffff021916908361ffff16021790555080600501600390806001815401808255809150506001900390600052602060002090601091828204019190066002029091909190916101000a81548161ffff021916908361ffff16021790555080600501600490806001815401808255809150506001900390600052602060002090601091828204019190066002029091909190916101000a81548161ffff021916908361ffff16021790555073617f2e2fd72fd9d5503197092ac168c91465e7f26005604051620015019062001a72565b908152602001604051809103902060006101000a81548173ffffffffffffffffffffffffffffffffffffffff021916908373ffffffffffffffffffffffffffffffffffffffff16021790555060056004600073617f2e2fd72fd9d5503197092ac168c91465e7f273ffffffffffffffffffffffffffffffffffffffff1673ffffffffffffffffffffffffffffffffffffffff16815260200190815260200160002060006101000a81548160ff02191690836007811115620015c757620015c662001c0e565b5b0217905550505062001db0565b82805482825590600052602060002090810192821562001628579160200282015b82811115620016275782518290805190602001906200161692919062001709565b5091602001919060010190620015f5565b5b509050620016379190620018b2565b5090565b8280548282559060005260206000209081019282156200168f579160200282015b828111156200168e5782518290805190602001906200167d92919062001709565b50916020019190600101906200165c565b5b5090506200169e9190620018b2565b5090565b828054828255906000526020600020908101928215620016f6579160200282015b82811115620016f5578251829080519060200190620016e492919062001709565b5091602001919060010190620016c3565b5b509050620017059190620018b2565b5090565b828054620017179062001bd8565b90600052602060002090601f0160209004810192826200173b576000855562001787565b82601f106200175657805160ff191683800117855562001787565b8280016001018555821562001787579182015b828111156200178657825182559160200191906001019062001769565b5b509050620017969190620018da565b5090565b828054828255906000526020600020908101928215620017ee579160200282015b82811115620017ed578251829080519060200190620017dc92919062001709565b5091602001919060010190620017bb565b5b509050620017fd9190620018b2565b5090565b82805482825590600052602060002090600f016010900481019282156200189f5791602002820160005b838211156200186d57835183826101000a81548161ffff021916908361ffff16021790555092602001926002016020816001010492830192600103026200182b565b80156200189d5782816101000a81549061ffff02191690556002016020816001010492830192600103026200186d565b505b509050620018ae9190620018da565b5090565b5b80821115620018d65760008181620018cc9190620018f9565b50600101620018b3565b5090565b5b80821115620018f5576000816000905550600101620018db565b5090565b508054620019079062001bd8565b6000825580601f106200191b57506200193c565b601f0160209004906000526020600020908101906200193b9190620018da565b5b50565b600081519050620019508162001d96565b92915050565b6000602082840312156200196f576200196e62001c9b565b5b60006200197f848285016200193f565b91505092915050565b60006200199760098362001b99565b9150620019a48262001ca0565b600982019050919050565b6000620019be60048362001b99565b9150620019cb8262001cc9565b600482019050919050565b6000620019e560068362001b99565b9150620019f28262001cf2565b600682019050919050565b600062001a0c60018362001b99565b915062001a198262001d1b565b600182019050919050565b600062001a3360068362001b99565b915062001a408262001d44565b600682019050919050565b600062001a5a60098362001b99565b915062001a678262001d6d565b600982019050919050565b600062001a7f8262001988565b9150819050919050565b600062001a968262001988565b915062001aa382620019fd565b9150819050919050565b600062001aba82620019af565b9150819050919050565b600062001ad182620019af565b915062001ade82620019fd565b9150819050919050565b600062001af582620019d6565b9150819050919050565b600062001b0c82620019d6565b915062001b1982620019fd565b9150819050919050565b600062001b308262001a24565b9150819050919050565b600062001b478262001a24565b915062001b5482620019fd565b9150819050919050565b600062001b6b8262001a4b565b9150819050919050565b600062001b828262001a4b565b915062001b8f82620019fd565b9150819050919050565b600081905092915050565b600062001bb18262001bb8565b9050919050565b600073ffffffffffffffffffffffffffffffffffffffff82169050919050565b6000600282049050600182168062001bf157607f821691505b6020821081141562001c085762001c0762001c3d565b5b50919050565b7f4e487b7100000000000000000000000000000000000000000000000000000000600052602160045260246000fd5b7f4e487b7100000000000000000000000000000000000000000000000000000000600052602260045260246000fd5b7f4e487b7100000000000000000000000000000000000000000000000000000000600052604160045260246000fd5b600080fd5b7f536369656e746973740000000000000000000000000000000000000000000000600082015250565b7f6976616e00000000000000000000000000000000000000000000000000000000600082015250565b7f61646d696e320000000000000000000000000000000000000000000000000000600082015250565b7f3100000000000000000000000000000000000000000000000000000000000000600082015250565b7f61646d696e310000000000000000000000000000000000000000000000000000600082015250565b7f446576656c6f7065720000000000000000000000000000000000000000000000600082015250565b62001da18162001ba4565b811462001dad57600080fd5b50565b6104948062001dc06000396000f3fe608060405234801561001057600080fd5b50600436106100415760003560e01c806386c65d28146100465780639cad5d4c14610076578063eaeb60e3146100a6575b600080fd5b610060600480360381019061005b91906102ef565b6100d6565b60405161006d9190610355565b60405180910390f35b610090600480360381019061008b91906102ef565b610182565b60405161009d9190610355565b60405180910390f35b6100c060048036038101906100bb91906102ef565b61022e565b6040516100cd9190610355565b60405180910390f35b600881815481106100e657600080fd5b906000526020600020016000915090508054610101906103d0565b80601f016020809104026020016040519081016040528092919081815260200182805461012d906103d0565b801561017a5780601f1061014f5761010080835404028352916020019161017a565b820191906000526020600020905b81548152906001019060200180831161015d57829003601f168201915b505050505081565b6009818154811061019257600080fd5b9060005260206000200160009150905080546101ad906103d0565b80601f01602080910402602001604051908101604052809291908181526020018280546101d9906103d0565b80156102265780601f106101fb57610100808354040283529160200191610226565b820191906000526020600020905b81548152906001019060200180831161020957829003601f168201915b505050505081565b600a818154811061023e57600080fd5b906000526020600020016000915090508054610259906103d0565b80601f0160208091040260200160405190810160405280929190818152602001828054610285906103d0565b80156102d25780601f106102a7576101008083540402835291602001916102d2565b820191906000526020600020905b8154815290600101906020018083116102b557829003601f168201915b505050505081565b6000813590506102e981610447565b92915050565b60006020828403121561030557610304610431565b5b6000610313848285016102da565b91505092915050565b600061032782610377565b6103318185610382565b935061034181856020860161039d565b61034a81610436565b840191505092915050565b6000602082019050818103600083015261036f818461031c565b905092915050565b600081519050919050565b600082825260208201905092915050565b6000819050919050565b60005b838110156103bb5780820151818401526020810190506103a0565b838111156103ca576000848401525b50505050565b600060028204905060018216806103e857607f821691505b602082108114156103fc576103fb610402565b5b50919050565b7f4e487b7100000000000000000000000000000000000000000000000000000000600052602260045260246000fd5b600080fd5b6000601f19601f8301169050919050565b61045081610393565b811461045b57600080fd5b5056fea2646970667358221220ffddcf8f7ebf435e3dde0b4a061df0af97e2f7fbb0a09714d39995433cb7fdd064736f6c634300080700334d617468656d61746963616c206d6f64656c696e6720616e6420616e616c79736973546865726d616c207068656e6f6d656e6120616e64206d6f6c6563756c617220737472756374757265734d6963726f656c656374726f6e69637320616e64206369726375697420656e67696e656572696e67",
					"opcodes": "PUSH1 0x80 PUSH1 0x40 MSTORE CALLVALUE DUP1 ISZERO PUSH3 0x11 JUMPI PUSH1 0x0 DUP1 REVERT JUMPDEST POP PUSH1 0x40 MLOAD PUSH3 0x22C8 CODESIZE SUB DUP1 PUSH3 0x22C8 DUP4 CODECOPY DUP2 DUP2 ADD PUSH1 0x40 MSTORE DUP2 ADD SWAP1 PUSH3 0x37 SWAP2 SWAP1 PUSH3 0x1956 JUMP JUMPDEST PUSH1 0x40 MLOAD DUP1 PUSH1 0x40 ADD PUSH1 0x40 MSTORE DUP1 PUSH1 0x40 MLOAD DUP1 PUSH1 0x40 ADD PUSH1 0x40 MSTORE DUP1 PUSH1 0x3 DUP2 MSTORE PUSH1 0x20 ADD PUSH32 0x4E6F740000000000000000000000000000000000000000000000000000000000 DUP2 MSTORE POP DUP2 MSTORE PUSH1 0x20 ADD PUSH1 0x40 MLOAD DUP1 PUSH1 0x40 ADD PUSH1 0x40 MSTORE DUP1 PUSH1 0x11 DUP2 MSTORE PUSH1 0x20 ADD PUSH32 0x4D617468416E64496E666F726D61746963000000000000000000000000000000 DUP2 MSTORE POP DUP2 MSTORE POP PUSH1 0xA SWAP1 PUSH1 0x2 PUSH3 0xC8 SWAP3 SWAP2 SWAP1 PUSH3 0x15D4 JUMP JUMPDEST POP PUSH1 0x40 MLOAD DUP1 PUSH1 0xA0 ADD PUSH1 0x40 MSTORE DUP1 PUSH1 0x40 MLOAD DUP1 PUSH1 0x20 ADD PUSH1 0x40 MSTORE DUP1 PUSH1 0x0 DUP2 MSTORE POP DUP2 MSTORE PUSH1 0x20 ADD PUSH1 0x40 MLOAD DUP1 PUSH1 0x40 ADD PUSH1 0x40 MSTORE DUP1 PUSH1 0x4 DUP2 MSTORE PUSH1 0x20 ADD PUSH32 0x4D61746800000000000000000000000000000000000000000000000000000000 DUP2 MSTORE POP DUP2 MSTORE PUSH1 0x20 ADD PUSH1 0x40 MLOAD DUP1 PUSH1 0x40 ADD PUSH1 0x40 MSTORE DUP1 PUSH1 0x7 DUP2 MSTORE PUSH1 0x20 ADD PUSH32 0x5068797369637300000000000000000000000000000000000000000000000000 DUP2 MSTORE POP DUP2 MSTORE PUSH1 0x20 ADD PUSH1 0x40 MLOAD DUP1 PUSH1 0x40 ADD PUSH1 0x40 MSTORE DUP1 PUSH1 0x10 DUP2 MSTORE PUSH1 0x20 ADD PUSH32 0x436F6D707574657220536369656E636500000000000000000000000000000000 DUP2 MSTORE POP DUP2 MSTORE PUSH1 0x20 ADD PUSH1 0x40 MLOAD DUP1 PUSH1 0x40 ADD PUSH1 0x40 MSTORE DUP1 PUSH1 0x7 DUP2 MSTORE PUSH1 0x20 ADD PUSH32 0x5275737369616E00000000000000000000000000000000000000000000000000 DUP2 MSTORE POP DUP2 MSTORE POP PUSH1 0x8 SWAP1 PUSH1 0x5 PUSH3 0x1E5 SWAP3 SWAP2 SWAP1 PUSH3 0x163B JUMP JUMPDEST POP PUSH1 0x40 MLOAD DUP1 PUSH2 0x160 ADD PUSH1 0x40 MSTORE DUP1 PUSH1 0x40 MLOAD DUP1 PUSH1 0x40 ADD PUSH1 0x40 MSTORE DUP1 PUSH1 0x3 DUP2 MSTORE PUSH1 0x20 ADD PUSH32 0x4E6F740000000000000000000000000000000000000000000000000000000000 DUP2 MSTORE POP DUP2 MSTORE PUSH1 0x20 ADD PUSH1 0x40 MLOAD DUP1 PUSH1 0x40 ADD PUSH1 0x40 MSTORE DUP1 PUSH1 0x19 DUP2 MSTORE PUSH1 0x20 ADD PUSH32 0x456C65637472696369747920616E64206D61676E657469736D00000000000000 DUP2 MSTORE POP DUP2 MSTORE PUSH1 0x20 ADD PUSH1 0x40 MLOAD DUP1 PUSH1 0x40 ADD PUSH1 0x40 MSTORE DUP1 PUSH1 0xB DUP2 MSTORE PUSH1 0x20 ADD PUSH32 0x50726F746F747970696E67000000000000000000000000000000000000000000 DUP2 MSTORE POP DUP2 MSTORE PUSH1 0x20 ADD PUSH1 0x40 MLOAD DUP1 PUSH1 0x40 ADD PUSH1 0x40 MSTORE DUP1 PUSH1 0x16 DUP2 MSTORE PUSH1 0x20 ADD PUSH32 0x4D656368616E69637320616E6420737472656E67746800000000000000000000 DUP2 MSTORE POP DUP2 MSTORE PUSH1 0x20 ADD PUSH1 0x40 MLOAD DUP1 PUSH1 0x60 ADD PUSH1 0x40 MSTORE DUP1 PUSH1 0x2A DUP2 MSTORE PUSH1 0x20 ADD PUSH3 0x2276 PUSH1 0x2A SWAP2 CODECOPY DUP2 MSTORE PUSH1 0x20 ADD PUSH1 0x40 MLOAD DUP1 PUSH1 0x60 ADD PUSH1 0x40 MSTORE DUP1 PUSH1 0x28 DUP2 MSTORE PUSH1 0x20 ADD PUSH3 0x22A0 PUSH1 0x28 SWAP2 CODECOPY DUP2 MSTORE PUSH1 0x20 ADD PUSH1 0x40 MLOAD DUP1 PUSH1 0x40 ADD PUSH1 0x40 MSTORE DUP1 PUSH1 0x13 DUP2 MSTORE PUSH1 0x20 ADD PUSH32 0x4175746F6E6F6D6F7573206176696F6E69637300000000000000000000000000 DUP2 MSTORE POP DUP2 MSTORE PUSH1 0x20 ADD PUSH1 0x40 MLOAD DUP1 PUSH1 0x40 ADD PUSH1 0x40 MSTORE DUP1 PUSH1 0x8 DUP2 MSTORE PUSH1 0x20 ADD PUSH32 0x526F626F74696373000000000000000000000000000000000000000000000000 DUP2 MSTORE POP DUP2 MSTORE PUSH1 0x20 ADD PUSH1 0x40 MLOAD DUP1 PUSH1 0x40 ADD PUSH1 0x40 MSTORE DUP1 PUSH1 0xB DUP2 MSTORE PUSH1 0x20 ADD PUSH32 0x50726F6772616D6D696E67000000000000000000000000000000000000000000 DUP2 MSTORE POP DUP2 MSTORE PUSH1 0x20 ADD PUSH1 0x40 MLOAD DUP1 PUSH1 0x60 ADD PUSH1 0x40 MSTORE DUP1 PUSH1 0x22 DUP2 MSTORE PUSH1 0x20 ADD PUSH3 0x2254 PUSH1 0x22 SWAP2 CODECOPY DUP2 MSTORE PUSH1 0x20 ADD PUSH1 0x40 MLOAD DUP1 PUSH1 0x40 ADD PUSH1 0x40 MSTORE DUP1 PUSH1 0x1F DUP2 MSTORE PUSH1 0x20 ADD PUSH32 0x417374726F6E6F6D7920616E64204165726F73706163652053797374656D7300 DUP2 MSTORE POP DUP2 MSTORE POP PUSH1 0x9 SWAP1 PUSH1 0xB PUSH3 0x437 SWAP3 SWAP2 SWAP1 PUSH3 0x16A2 JUMP JUMPDEST POP PUSH1 0x7 PUSH1 0x1 DUP2 PUSH1 0x1 DUP2 SLOAD ADD DUP1 DUP3 SSTORE DUP1 SWAP2 POP POP SUB SWAP1 PUSH1 0x0 MSTORE PUSH1 0x20 PUSH1 0x0 KECCAK256 SWAP1 POP POP PUSH1 0x40 MLOAD DUP1 PUSH1 0xE0 ADD PUSH1 0x40 MSTORE DUP1 PUSH1 0x40 MLOAD DUP1 PUSH1 0x40 ADD PUSH1 0x40 MSTORE DUP1 PUSH1 0x9 DUP2 MSTORE PUSH1 0x20 ADD PUSH32 0x446576656C6F7065720000000000000000000000000000000000000000000000 DUP2 MSTORE POP DUP2 MSTORE PUSH1 0x20 ADD PUSH1 0x40 MLOAD DUP1 PUSH1 0x40 ADD PUSH1 0x40 MSTORE DUP1 PUSH1 0x2 DUP2 MSTORE PUSH1 0x20 ADD PUSH32 0x4750000000000000000000000000000000000000000000000000000000000000 DUP2 MSTORE POP DUP2 MSTORE PUSH1 0x20 ADD PUSH1 0x40 MLOAD DUP1 PUSH1 0x40 ADD PUSH1 0x40 MSTORE DUP1 PUSH1 0x2 DUP2 MSTORE PUSH1 0x20 ADD PUSH32 0xD098000000000000000000000000000000000000000000000000000000000000 DUP2 MSTORE POP DUP2 MSTORE PUSH1 0x20 ADD PUSH1 0x40 MLOAD DUP1 PUSH1 0x20 ADD PUSH1 0x40 MSTORE DUP1 PUSH1 0x0 DUP2 MSTORE POP DUP2 MSTORE PUSH1 0x20 ADD PUSH1 0x0 PUSH8 0xFFFFFFFFFFFFFFFF DUP2 GT ISZERO PUSH3 0x545 JUMPI PUSH3 0x544 PUSH3 0x1C6C JUMP JUMPDEST JUMPDEST PUSH1 0x40 MLOAD SWAP1 DUP1 DUP3 MSTORE DUP1 PUSH1 0x20 MUL PUSH1 0x20 ADD DUP3 ADD PUSH1 0x40 MSTORE DUP1 ISZERO PUSH3 0x57A JUMPI DUP2 PUSH1 0x20 ADD JUMPDEST PUSH1 0x60 DUP2 MSTORE PUSH1 0x20 ADD SWAP1 PUSH1 0x1 SWAP1 SUB SWAP1 DUP2 PUSH3 0x564 JUMPI SWAP1 POP JUMPDEST POP DUP2 MSTORE PUSH1 0x20 ADD PUSH1 0x0 PUSH1 0xFF AND DUP2 MSTORE PUSH1 0x20 ADD PUSH1 0x40 MLOAD PUSH1 0x20 ADD PUSH3 0x59B SWAP1 PUSH3 0x1B75 JUMP JUMPDEST PUSH1 0x40 MLOAD PUSH1 0x20 DUP2 DUP4 SUB SUB DUP2 MSTORE SWAP1 PUSH1 0x40 MSTORE DUP1 MLOAD SWAP1 PUSH1 0x20 ADD KECCAK256 DUP2 MSTORE POP PUSH1 0x0 DUP1 PUSH20 0x5B38DA6A701C568545DCFCB03FCB875F56BEDDC4 PUSH20 0xFFFFFFFFFFFFFFFFFFFFFFFFFFFFFFFFFFFFFFFF AND PUSH20 0xFFFFFFFFFFFFFFFFFFFFFFFFFFFFFFFFFFFFFFFF AND DUP2 MSTORE PUSH1 0x20 ADD SWAP1 DUP2 MSTORE PUSH1 0x20 ADD PUSH1 0x0 KECCAK256 PUSH1 0x0 DUP3 ADD MLOAD DUP2 PUSH1 0x0 ADD SWAP1 DUP1 MLOAD SWAP1 PUSH1 0x20 ADD SWAP1 PUSH3 0x624 SWAP3 SWAP2 SWAP1 PUSH3 0x1709 JUMP JUMPDEST POP PUSH1 0x20 DUP3 ADD MLOAD DUP2 PUSH1 0x1 ADD SWAP1 DUP1 MLOAD SWAP1 PUSH1 0x20 ADD SWAP1 PUSH3 0x643 SWAP3 SWAP2 SWAP1 PUSH3 0x1709 JUMP JUMPDEST POP PUSH1 0x40 DUP3 ADD MLOAD DUP2 PUSH1 0x2 ADD SWAP1 DUP1 MLOAD SWAP1 PUSH1 0x20 ADD SWAP1 PUSH3 0x662 SWAP3 SWAP2 SWAP1 PUSH3 0x1709 JUMP JUMPDEST POP PUSH1 0x60 DUP3 ADD MLOAD DUP2 PUSH1 0x3 ADD SWAP1 DUP1 MLOAD SWAP1 PUSH1 0x20 ADD SWAP1 PUSH3 0x681 SWAP3 SWAP2 SWAP1 PUSH3 0x1709 JUMP JUMPDEST POP PUSH1 0x80 DUP3 ADD MLOAD DUP2 PUSH1 0x4 ADD SWAP1 DUP1 MLOAD SWAP1 PUSH1 0x20 ADD SWAP1 PUSH3 0x6A0 SWAP3 SWAP2 SWAP1 PUSH3 0x179A JUMP JUMPDEST POP PUSH1 0xA0 DUP3 ADD MLOAD DUP2 PUSH1 0x5 ADD PUSH1 0x0 PUSH2 0x100 EXP DUP2 SLOAD DUP2 PUSH1 0xFF MUL NOT AND SWAP1 DUP4 PUSH1 0xFF AND MUL OR SWAP1 SSTORE POP PUSH1 0xC0 DUP3 ADD MLOAD DUP2 PUSH1 0x6 ADD SSTORE SWAP1 POP POP PUSH1 0x40 MLOAD DUP1 PUSH1 0x80 ADD PUSH1 0x40 MSTORE DUP1 PUSH1 0x40 MLOAD DUP1 PUSH1 0x40 ADD PUSH1 0x40 MSTORE DUP1 PUSH1 0x6 DUP2 MSTORE PUSH1 0x20 ADD PUSH32 0x61646D696E310000000000000000000000000000000000000000000000000000 DUP2 MSTORE POP DUP2 MSTORE PUSH1 0x20 ADD PUSH1 0x40 MLOAD DUP1 PUSH1 0x40 ADD PUSH1 0x40 MSTORE DUP1 PUSH1 0x2 DUP2 MSTORE PUSH1 0x20 ADD PUSH32 0x4750000000000000000000000000000000000000000000000000000000000000 DUP2 MSTORE POP DUP2 MSTORE PUSH1 0x20 ADD PUSH1 0x40 MLOAD PUSH1 0x20 ADD PUSH3 0x761 SWAP1 PUSH3 0x1B3A JUMP JUMPDEST PUSH1 0x40 MLOAD PUSH1 0x20 DUP2 DUP4 SUB SUB DUP2 MSTORE SWAP1 PUSH1 0x40 MSTORE DUP1 MLOAD SWAP1 PUSH1 0x20 ADD KECCAK256 DUP2 MSTORE PUSH1 0x20 ADD PUSH1 0x1 ISZERO ISZERO DUP2 MSTORE POP PUSH1 0x2 PUSH1 0x0 PUSH20 0xAB8483F64D9C6D1ECF9B849AE677DD3315835CB2 PUSH20 0xFFFFFFFFFFFFFFFFFFFFFFFFFFFFFFFFFFFFFFFF AND PUSH20 0xFFFFFFFFFFFFFFFFFFFFFFFFFFFFFFFFFFFFFFFF AND DUP2 MSTORE PUSH1 0x20 ADD SWAP1 DUP2 MSTORE PUSH1 0x20 ADD PUSH1 0x0 KECCAK256 PUSH1 0x0 DUP3 ADD MLOAD DUP2 PUSH1 0x0 ADD SWAP1 DUP1 MLOAD SWAP1 PUSH1 0x20 ADD SWAP1 PUSH3 0x7F4 SWAP3 SWAP2 SWAP1 PUSH3 0x1709 JUMP JUMPDEST POP PUSH1 0x20 DUP3 ADD MLOAD DUP2 PUSH1 0x1 ADD SWAP1 DUP1 MLOAD SWAP1 PUSH1 0x20 ADD SWAP1 PUSH3 0x813 SWAP3 SWAP2 SWAP1 PUSH3 0x1709 JUMP JUMPDEST POP PUSH1 0x40 DUP3 ADD MLOAD DUP2 PUSH1 0x2 ADD SSTORE PUSH1 0x60 DUP3 ADD MLOAD DUP2 PUSH1 0x3 ADD PUSH1 0x0 PUSH2 0x100 EXP DUP2 SLOAD DUP2 PUSH1 0xFF MUL NOT AND SWAP1 DUP4 ISZERO ISZERO MUL OR SWAP1 SSTORE POP SWAP1 POP POP PUSH20 0x5B38DA6A701C568545DCFCB03FCB875F56BEDDC4 PUSH1 0x5 PUSH1 0x40 MLOAD PUSH3 0x866 SWAP1 PUSH3 0x1B5E JUMP JUMPDEST SWAP1 DUP2 MSTORE PUSH1 0x20 ADD PUSH1 0x40 MLOAD DUP1 SWAP2 SUB SWAP1 KECCAK256 PUSH1 0x0 PUSH2 0x100 EXP DUP2 SLOAD DUP2 PUSH20 0xFFFFFFFFFFFFFFFFFFFFFFFFFFFFFFFFFFFFFFFF MUL NOT AND SWAP1 DUP4 PUSH20 0xFFFFFFFFFFFFFFFFFFFFFFFFFFFFFFFFFFFFFFFF AND MUL OR SWAP1 SSTORE POP PUSH20 0xAB8483F64D9C6D1ECF9B849AE677DD3315835CB2 PUSH1 0x5 PUSH1 0x40 MLOAD PUSH3 0x8D7 SWAP1 PUSH3 0x1B23 JUMP JUMPDEST SWAP1 DUP2 MSTORE PUSH1 0x20 ADD PUSH1 0x40 MLOAD DUP1 SWAP2 SUB SWAP1 KECCAK256 PUSH1 0x0 PUSH2 0x100 EXP DUP2 SLOAD DUP2 PUSH20 0xFFFFFFFFFFFFFFFFFFFFFFFFFFFFFFFFFFFFFFFF MUL NOT AND SWAP1 DUP4 PUSH20 0xFFFFFFFFFFFFFFFFFFFFFFFFFFFFFFFFFFFFFFFF AND MUL OR SWAP1 SSTORE POP PUSH1 0x6 PUSH1 0x4 PUSH1 0x0 PUSH20 0x5B38DA6A701C568545DCFCB03FCB875F56BEDDC4 PUSH20 0xFFFFFFFFFFFFFFFFFFFFFFFFFFFFFFFFFFFFFFFF AND PUSH20 0xFFFFFFFFFFFFFFFFFFFFFFFFFFFFFFFFFFFFFFFF AND DUP2 MSTORE PUSH1 0x20 ADD SWAP1 DUP2 MSTORE PUSH1 0x20 ADD PUSH1 0x0 KECCAK256 PUSH1 0x0 PUSH2 0x100 EXP DUP2 SLOAD DUP2 PUSH1 0xFF MUL NOT AND SWAP1 DUP4 PUSH1 0x7 DUP2 GT ISZERO PUSH3 0x99D JUMPI PUSH3 0x99C PUSH3 0x1C0E JUMP JUMPDEST JUMPDEST MUL OR SWAP1 SSTORE POP PUSH1 0x7 PUSH1 0x4 PUSH1 0x0 PUSH20 0xAB8483F64D9C6D1ECF9B849AE677DD3315835CB2 PUSH20 0xFFFFFFFFFFFFFFFFFFFFFFFFFFFFFFFFFFFFFFFF AND PUSH20 0xFFFFFFFFFFFFFFFFFFFFFFFFFFFFFFFFFFFFFFFF AND DUP2 MSTORE PUSH1 0x20 ADD SWAP1 DUP2 MSTORE PUSH1 0x20 ADD PUSH1 0x0 KECCAK256 PUSH1 0x0 PUSH2 0x100 EXP DUP2 SLOAD DUP2 PUSH1 0xFF MUL NOT AND SWAP1 DUP4 PUSH1 0x7 DUP2 GT ISZERO PUSH3 0xA1C JUMPI PUSH3 0xA1B PUSH3 0x1C0E JUMP JUMPDEST JUMPDEST MUL OR SWAP1 SSTORE POP PUSH1 0x40 MLOAD DUP1 PUSH1 0xE0 ADD PUSH1 0x40 MSTORE DUP1 PUSH1 0x40 MLOAD DUP1 PUSH1 0x40 ADD PUSH1 0x40 MSTORE DUP1 PUSH1 0x4 DUP2 MSTORE PUSH1 0x20 ADD PUSH32 0x6976616E00000000000000000000000000000000000000000000000000000000 DUP2 MSTORE POP DUP2 MSTORE PUSH1 0x20 ADD PUSH1 0x40 MLOAD DUP1 PUSH1 0x40 ADD PUSH1 0x40 MSTORE DUP1 PUSH1 0x2 DUP2 MSTORE PUSH1 0x20 ADD PUSH32 0x444D000000000000000000000000000000000000000000000000000000000000 DUP2 MSTORE POP DUP2 MSTORE PUSH1 0x20 ADD PUSH1 0x40 MLOAD DUP1 PUSH1 0x40 ADD PUSH1 0x40 MSTORE DUP1 PUSH1 0x2 DUP2 MSTORE PUSH1 0x20 ADD PUSH32 0xD098000000000000000000000000000000000000000000000000000000000000 DUP2 MSTORE POP DUP2 MSTORE PUSH1 0x20 ADD PUSH1 0x40 MLOAD DUP1 PUSH1 0x20 ADD PUSH1 0x40 MSTORE DUP1 PUSH1 0x0 DUP2 MSTORE POP DUP2 MSTORE PUSH1 0x20 ADD PUSH1 0x0 PUSH8 0xFFFFFFFFFFFFFFFF DUP2 GT ISZERO PUSH3 0xB10 JUMPI PUSH3 0xB0F PUSH3 0x1C6C JUMP JUMPDEST JUMPDEST PUSH1 0x40 MLOAD SWAP1 DUP1 DUP3 MSTORE DUP1 PUSH1 0x20 MUL PUSH1 0x20 ADD DUP3 ADD PUSH1 0x40 MSTORE DUP1 ISZERO PUSH3 0xB45 JUMPI DUP2 PUSH1 0x20 ADD JUMPDEST PUSH1 0x60 DUP2 MSTORE PUSH1 0x20 ADD SWAP1 PUSH1 0x1 SWAP1 SUB SWAP1 DUP2 PUSH3 0xB2F JUMPI SWAP1 POP JUMPDEST POP DUP2 MSTORE PUSH1 0x20 ADD PUSH1 0x0 PUSH1 0xFF AND DUP2 MSTORE PUSH1 0x20 ADD PUSH1 0x40 MLOAD PUSH1 0x20 ADD PUSH3 0xB66 SWAP1 PUSH3 0x1AC4 JUMP JUMPDEST PUSH1 0x40 MLOAD PUSH1 0x20 DUP2 DUP4 SUB SUB DUP2 MSTORE SWAP1 PUSH1 0x40 MSTORE DUP1 MLOAD SWAP1 PUSH1 0x20 ADD KECCAK256 DUP2 MSTORE POP PUSH1 0x0 DUP1 PUSH20 0x4B20993BC481177EC7E8F571CECAE8A9E22C02DB PUSH20 0xFFFFFFFFFFFFFFFFFFFFFFFFFFFFFFFFFFFFFFFF AND PUSH20 0xFFFFFFFFFFFFFFFFFFFFFFFFFFFFFFFFFFFFFFFF AND DUP2 MSTORE PUSH1 0x20 ADD SWAP1 DUP2 MSTORE PUSH1 0x20 ADD PUSH1 0x0 KECCAK256 PUSH1 0x0 DUP3 ADD MLOAD DUP2 PUSH1 0x0 ADD SWAP1 DUP1 MLOAD SWAP1 PUSH1 0x20 ADD SWAP1 PUSH3 0xBEF SWAP3 SWAP2 SWAP1 PUSH3 0x1709 JUMP JUMPDEST POP PUSH1 0x20 DUP3 ADD MLOAD DUP2 PUSH1 0x1 ADD SWAP1 DUP1 MLOAD SWAP1 PUSH1 0x20 ADD SWAP1 PUSH3 0xC0E SWAP3 SWAP2 SWAP1 PUSH3 0x1709 JUMP JUMPDEST POP PUSH1 0x40 DUP3 ADD MLOAD DUP2 PUSH1 0x2 ADD SWAP1 DUP1 MLOAD SWAP1 PUSH1 0x20 ADD SWAP1 PUSH3 0xC2D SWAP3 SWAP2 SWAP1 PUSH3 0x1709 JUMP JUMPDEST POP PUSH1 0x60 DUP3 ADD MLOAD DUP2 PUSH1 0x3 ADD SWAP1 DUP1 MLOAD SWAP1 PUSH1 0x20 ADD SWAP1 PUSH3 0xC4C SWAP3 SWAP2 SWAP1 PUSH3 0x1709 JUMP JUMPDEST POP PUSH1 0x80 DUP3 ADD MLOAD DUP2 PUSH1 0x4 ADD SWAP1 DUP1 MLOAD SWAP1 PUSH1 0x20 ADD SWAP1 PUSH3 0xC6B SWAP3 SWAP2 SWAP1 PUSH3 0x179A JUMP JUMPDEST POP PUSH1 0xA0 DUP3 ADD MLOAD DUP2 PUSH1 0x5 ADD PUSH1 0x0 PUSH2 0x100 EXP DUP2 SLOAD DUP2 PUSH1 0xFF MUL NOT AND SWAP1 DUP4 PUSH1 0xFF AND MUL OR SWAP1 SSTORE POP PUSH1 0xC0 DUP3 ADD MLOAD DUP2 PUSH1 0x6 ADD SSTORE SWAP1 POP POP PUSH1 0x40 MLOAD DUP1 PUSH1 0x80 ADD PUSH1 0x40 MSTORE DUP1 PUSH1 0x40 MLOAD DUP1 PUSH1 0x40 ADD PUSH1 0x40 MSTORE DUP1 PUSH1 0x6 DUP2 MSTORE PUSH1 0x20 ADD PUSH32 0x61646D696E320000000000000000000000000000000000000000000000000000 DUP2 MSTORE POP DUP2 MSTORE PUSH1 0x20 ADD PUSH1 0x40 MLOAD DUP1 PUSH1 0x40 ADD PUSH1 0x40 MSTORE DUP1 PUSH1 0x2 DUP2 MSTORE PUSH1 0x20 ADD PUSH32 0x444D000000000000000000000000000000000000000000000000000000000000 DUP2 MSTORE POP DUP2 MSTORE PUSH1 0x20 ADD PUSH1 0x40 MLOAD PUSH1 0x20 ADD PUSH3 0xD2C SWAP1 PUSH3 0x1AFF JUMP JUMPDEST PUSH1 0x40 MLOAD PUSH1 0x20 DUP2 DUP4 SUB SUB DUP2 MSTORE SWAP1 PUSH1 0x40 MSTORE DUP1 MLOAD SWAP1 PUSH1 0x20 ADD KECCAK256 DUP2 MSTORE PUSH1 0x20 ADD PUSH1 0x1 ISZERO ISZERO DUP2 MSTORE POP PUSH1 0x2 PUSH1 0x0 PUSH20 0x78731D3CA6B7E34AC0F824C42A7CC18A495CABAB PUSH20 0xFFFFFFFFFFFFFFFFFFFFFFFFFFFFFFFFFFFFFFFF AND PUSH20 0xFFFFFFFFFFFFFFFFFFFFFFFFFFFFFFFFFFFFFFFF AND DUP2 MSTORE PUSH1 0x20 ADD SWAP1 DUP2 MSTORE PUSH1 0x20 ADD PUSH1 0x0 KECCAK256 PUSH1 0x0 DUP3 ADD MLOAD DUP2 PUSH1 0x0 ADD SWAP1 DUP1 MLOAD SWAP1 PUSH1 0x20 ADD SWAP1 PUSH3 0xDBF SWAP3 SWAP2 SWAP1 PUSH3 0x1709 JUMP JUMPDEST POP PUSH1 0x20 DUP3 ADD MLOAD DUP2 PUSH1 0x1 ADD SWAP1 DUP1 MLOAD SWAP1 PUSH1 0x20 ADD SWAP1 PUSH3 0xDDE SWAP3 SWAP2 SWAP1 PUSH3 0x1709 JUMP JUMPDEST POP PUSH1 0x40 DUP3 ADD MLOAD DUP2 PUSH1 0x2 ADD SSTORE PUSH1 0x60 DUP3 ADD MLOAD DUP2 PUSH1 0x3 ADD PUSH1 0x0 PUSH2 0x100 EXP DUP2 SLOAD DUP2 PUSH1 0xFF MUL NOT AND SWAP1 DUP4 ISZERO ISZERO MUL OR SWAP1 SSTORE POP SWAP1 POP POP PUSH20 0x4B20993BC481177EC7E8F571CECAE8A9E22C02DB PUSH1 0x5 PUSH1 0x40 MLOAD PUSH3 0xE31 SWAP1 PUSH3 0x1AAD JUMP JUMPDEST SWAP1 DUP2 MSTORE PUSH1 0x20 ADD PUSH1 0x40 MLOAD DUP1 SWAP2 SUB SWAP1 KECCAK256 PUSH1 0x0 PUSH2 0x100 EXP DUP2 SLOAD DUP2 PUSH20 0xFFFFFFFFFFFFFFFFFFFFFFFFFFFFFFFFFFFFFFFF MUL NOT AND SWAP1 DUP4 PUSH20 0xFFFFFFFFFFFFFFFFFFFFFFFFFFFFFFFFFFFFFFFF AND MUL OR SWAP1 SSTORE POP PUSH20 0x78731D3CA6B7E34AC0F824C42A7CC18A495CABAB PUSH1 0x5 PUSH1 0x40 MLOAD PUSH3 0xEA2 SWAP1 PUSH3 0x1AE8 JUMP JUMPDEST SWAP1 DUP2 MSTORE PUSH1 0x20 ADD PUSH1 0x40 MLOAD DUP1 SWAP2 SUB SWAP1 KECCAK256 PUSH1 0x0 PUSH2 0x100 EXP DUP2 SLOAD DUP2 PUSH20 0xFFFFFFFFFFFFFFFFFFFFFFFFFFFFFFFFFFFFFFFF MUL NOT AND SWAP1 DUP4 PUSH20 0xFFFFFFFFFFFFFFFFFFFFFFFFFFFFFFFFFFFFFFFF AND MUL OR SWAP1 SSTORE POP PUSH1 0x6 PUSH1 0x4 PUSH1 0x0 PUSH20 0x4B20993BC481177EC7E8F571CECAE8A9E22C02DB PUSH20 0xFFFFFFFFFFFFFFFFFFFFFFFFFFFFFFFFFFFFFFFF AND PUSH20 0xFFFFFFFFFFFFFFFFFFFFFFFFFFFFFFFFFFFFFFFF AND DUP2 MSTORE PUSH1 0x20 ADD SWAP1 DUP2 MSTORE PUSH1 0x20 ADD PUSH1 0x0 KECCAK256 PUSH1 0x0 PUSH2 0x100 EXP DUP2 SLOAD DUP2 PUSH1 0xFF MUL NOT AND SWAP1 DUP4 PUSH1 0x7 DUP2 GT ISZERO PUSH3 0xF68 JUMPI PUSH3 0xF67 PUSH3 0x1C0E JUMP JUMPDEST JUMPDEST MUL OR SWAP1 SSTORE POP PUSH1 0x7 PUSH1 0x4 PUSH1 0x0 PUSH20 0x78731D3CA6B7E34AC0F824C42A7CC18A495CABAB PUSH20 0xFFFFFFFFFFFFFFFFFFFFFFFFFFFFFFFFFFFFFFFF AND PUSH20 0xFFFFFFFFFFFFFFFFFFFFFFFFFFFFFFFFFFFFFFFF AND DUP2 MSTORE PUSH1 0x20 ADD SWAP1 DUP2 MSTORE PUSH1 0x20 ADD PUSH1 0x0 KECCAK256 PUSH1 0x0 PUSH2 0x100 EXP DUP2 SLOAD DUP2 PUSH1 0xFF MUL NOT AND SWAP1 DUP4 PUSH1 0x7 DUP2 GT ISZERO PUSH3 0xFE7 JUMPI PUSH3 0xFE6 PUSH3 0x1C0E JUMP JUMPDEST JUMPDEST MUL OR SWAP1 SSTORE POP PUSH1 0x40 MLOAD DUP1 PUSH2 0x120 ADD PUSH1 0x40 MSTORE DUP1 PUSH1 0x40 MLOAD DUP1 PUSH1 0x40 ADD PUSH1 0x40 MSTORE DUP1 PUSH1 0x9 DUP2 MSTORE PUSH1 0x20 ADD PUSH32 0x536369656E746973740000000000000000000000000000000000000000000000 DUP2 MSTORE POP DUP2 MSTORE PUSH1 0x20 ADD PUSH1 0x40 MLOAD DUP1 PUSH1 0x40 ADD PUSH1 0x40 MSTORE DUP1 PUSH1 0x2 DUP2 MSTORE PUSH1 0x20 ADD PUSH32 0x4453000000000000000000000000000000000000000000000000000000000000 DUP2 MSTORE POP DUP2 MSTORE PUSH1 0x20 ADD PUSH1 0x40 MLOAD DUP1 PUSH1 0x20 ADD PUSH1 0x40 MSTORE DUP1 PUSH1 0x0 DUP2 MSTORE POP DUP2 MSTORE PUSH1 0x20 ADD PUSH1 0x1 DUP2 MSTORE PUSH1 0x20 ADD PUSH1 0x0 PUSH8 0xFFFFFFFFFFFFFFFF DUP2 GT ISZERO PUSH3 0x10A8 JUMPI PUSH3 0x10A7 PUSH3 0x1C6C JUMP JUMPDEST JUMPDEST PUSH1 0x40 MLOAD SWAP1 DUP1 DUP3 MSTORE DUP1 PUSH1 0x20 MUL PUSH1 0x20 ADD DUP3 ADD PUSH1 0x40 MSTORE DUP1 ISZERO PUSH3 0x10D7 JUMPI DUP2 PUSH1 0x20 ADD PUSH1 0x20 DUP3 MUL DUP1 CALLDATASIZE DUP4 CALLDATACOPY DUP1 DUP3 ADD SWAP2 POP POP SWAP1 POP JUMPDEST POP DUP2 MSTORE PUSH1 0x20 ADD PUSH1 0x0 PUSH8 0xFFFFFFFFFFFFFFFF DUP2 GT ISZERO PUSH3 0x10FB JUMPI PUSH3 0x10FA PUSH3 0x1C6C JUMP JUMPDEST JUMPDEST PUSH1 0x40 MLOAD SWAP1 DUP1 DUP3 MSTORE DUP1 PUSH1 0x20 MUL PUSH1 0x20 ADD DUP3 ADD PUSH1 0x40 MSTORE DUP1 ISZERO PUSH3 0x112A JUMPI DUP2 PUSH1 0x20 ADD PUSH1 0x20 DUP3 MUL DUP1 CALLDATASIZE DUP4 CALLDATACOPY DUP1 DUP3 ADD SWAP2 POP POP SWAP1 POP JUMPDEST POP DUP2 MSTORE PUSH1 0x20 ADD PUSH1 0x40 MLOAD PUSH1 0x20 ADD PUSH3 0x1141 SWAP1 PUSH3 0x1A89 JUMP JUMPDEST PUSH1 0x40 MLOAD PUSH1 0x20 DUP2 DUP4 SUB SUB DUP2 MSTORE SWAP1 PUSH1 0x40 MSTORE DUP1 MLOAD SWAP1 PUSH1 0x20 ADD KECCAK256 DUP2 MSTORE PUSH1 0x20 ADD PUSH1 0x1 ISZERO ISZERO DUP2 MSTORE PUSH1 0x20 ADD PUSH1 0x1 ISZERO ISZERO DUP2 MSTORE POP PUSH1 0x1 PUSH1 0x0 PUSH20 0x617F2E2FD72FD9D5503197092AC168C91465E7F2 PUSH20 0xFFFFFFFFFFFFFFFFFFFFFFFFFFFFFFFFFFFFFFFF AND PUSH20 0xFFFFFFFFFFFFFFFFFFFFFFFFFFFFFFFFFFFFFFFF AND DUP2 MSTORE PUSH1 0x20 ADD SWAP1 DUP2 MSTORE PUSH1 0x20 ADD PUSH1 0x0 KECCAK256 PUSH1 0x0 DUP3 ADD MLOAD DUP2 PUSH1 0x0 ADD SWAP1 DUP1 MLOAD SWAP1 PUSH1 0x20 ADD SWAP1 PUSH3 0x11DD SWAP3 SWAP2 SWAP1 PUSH3 0x1709 JUMP JUMPDEST POP PUSH1 0x20 DUP3 ADD MLOAD DUP2 PUSH1 0x1 ADD SWAP1 DUP1 MLOAD SWAP1 PUSH1 0x20 ADD SWAP1 PUSH3 0x11FC SWAP3 SWAP2 SWAP1 PUSH3 0x1709 JUMP JUMPDEST POP PUSH1 0x40 DUP3 ADD MLOAD DUP2 PUSH1 0x2 ADD SWAP1 DUP1 MLOAD SWAP1 PUSH1 0x20 ADD SWAP1 PUSH3 0x121B SWAP3 SWAP2 SWAP1 PUSH3 0x1709 JUMP JUMPDEST POP PUSH1 0x60 DUP3 ADD MLOAD DUP2 PUSH1 0x3 ADD SSTORE PUSH1 0x80 DUP3 ADD MLOAD DUP2 PUSH1 0x4 ADD SWAP1 DUP1 MLOAD SWAP1 PUSH1 0x20 ADD SWAP1 PUSH3 0x1244 SWAP3 SWAP2 SWAP1 PUSH3 0x1801 JUMP JUMPDEST POP PUSH1 0xA0 DUP3 ADD MLOAD DUP2 PUSH1 0x5 ADD SWAP1 DUP1 MLOAD SWAP1 PUSH1 0x20 ADD SWAP1 PUSH3 0x1263 SWAP3 SWAP2 SWAP1 PUSH3 0x1801 JUMP JUMPDEST POP PUSH1 0xC0 DUP3 ADD MLOAD DUP2 PUSH1 0x6 ADD SSTORE PUSH1 0xE0 DUP3 ADD MLOAD DUP2 PUSH1 0x7 ADD PUSH1 0x0 PUSH2 0x100 EXP DUP2 SLOAD DUP2 PUSH1 0xFF MUL NOT AND SWAP1 DUP4 ISZERO ISZERO MUL OR SWAP1 SSTORE POP PUSH2 0x100 DUP3 ADD MLOAD DUP2 PUSH1 0x7 ADD PUSH1 0x1 PUSH2 0x100 EXP DUP2 SLOAD DUP2 PUSH1 0xFF MUL NOT AND SWAP1 DUP4 ISZERO ISZERO MUL OR SWAP1 SSTORE POP SWAP1 POP POP PUSH1 0x1 PUSH1 0x0 PUSH20 0x617F2E2FD72FD9D5503197092AC168C91465E7F2 PUSH20 0xFFFFFFFFFFFFFFFFFFFFFFFFFFFFFFFFFFFFFFFF AND PUSH20 0xFFFFFFFFFFFFFFFFFFFFFFFFFFFFFFFFFFFFFFFF AND DUP2 MSTORE PUSH1 0x20 ADD SWAP1 DUP2 MSTORE PUSH1 0x20 ADD PUSH1 0x0 KECCAK256 PUSH1 0x5 ADD PUSH1 0x3 SWAP1 DUP1 PUSH1 0x1 DUP2 SLOAD ADD DUP1 DUP3 SSTORE DUP1 SWAP2 POP POP PUSH1 0x1 SWAP1 SUB SWAP1 PUSH1 0x0 MSTORE PUSH1 0x20 PUSH1 0x0 KECCAK256 SWAP1 PUSH1 0x10 SWAP2 DUP3 DUP3 DIV ADD SWAP2 SWAP1 MOD PUSH1 0x2 MUL SWAP1 SWAP2 SWAP1 SWAP2 SWAP1 SWAP2 PUSH2 0x100 EXP DUP2 SLOAD DUP2 PUSH2 0xFFFF MUL NOT AND SWAP1 DUP4 PUSH2 0xFFFF AND MUL OR SWAP1 SSTORE POP PUSH1 0x0 PUSH1 0x1 PUSH1 0x0 PUSH20 0x617F2E2FD72FD9D5503197092AC168C91465E7F2 PUSH20 0xFFFFFFFFFFFFFFFFFFFFFFFFFFFFFFFFFFFFFFFF AND PUSH20 0xFFFFFFFFFFFFFFFFFFFFFFFFFFFFFFFFFFFFFFFF AND DUP2 MSTORE PUSH1 0x20 ADD SWAP1 DUP2 MSTORE PUSH1 0x20 ADD PUSH1 0x0 KECCAK256 SWAP1 POP DUP1 PUSH1 0x4 ADD PUSH1 0x1 SWAP1 DUP1 PUSH1 0x1 DUP2 SLOAD ADD DUP1 DUP3 SSTORE DUP1 SWAP2 POP POP PUSH1 0x1 SWAP1 SUB SWAP1 PUSH1 0x0 MSTORE PUSH1 0x20 PUSH1 0x0 KECCAK256 SWAP1 PUSH1 0x10 SWAP2 DUP3 DUP3 DIV ADD SWAP2 SWAP1 MOD PUSH1 0x2 MUL SWAP1 SWAP2 SWAP1 SWAP2 SWAP1 SWAP2 PUSH2 0x100 EXP DUP2 SLOAD DUP2 PUSH2 0xFFFF MUL NOT AND SWAP1 DUP4 PUSH2 0xFFFF AND MUL OR SWAP1 SSTORE POP DUP1 PUSH1 0x4 ADD PUSH1 0x2 SWAP1 DUP1 PUSH1 0x1 DUP2 SLOAD ADD DUP1 DUP3 SSTORE DUP1 SWAP2 POP POP PUSH1 0x1 SWAP1 SUB SWAP1 PUSH1 0x0 MSTORE PUSH1 0x20 PUSH1 0x0 KECCAK256 SWAP1 PUSH1 0x10 SWAP2 DUP3 DUP3 DIV ADD SWAP2 SWAP1 MOD PUSH1 0x2 MUL SWAP1 SWAP2 SWAP1 SWAP2 SWAP1 SWAP2 PUSH2 0x100 EXP DUP2 SLOAD DUP2 PUSH2 0xFFFF MUL NOT AND SWAP1 DUP4 PUSH2 0xFFFF AND MUL OR SWAP1 SSTORE POP DUP1 PUSH1 0x5 ADD PUSH1 0x3 SWAP1 DUP1 PUSH1 0x1 DUP2 SLOAD ADD DUP1 DUP3 SSTORE DUP1 SWAP2 POP POP PUSH1 0x1 SWAP1 SUB SWAP1 PUSH1 0x0 MSTORE PUSH1 0x20 PUSH1 0x0 KECCAK256 SWAP1 PUSH1 0x10 SWAP2 DUP3 DUP3 DIV ADD SWAP2 SWAP1 MOD PUSH1 0x2 MUL SWAP1 SWAP2 SWAP1 SWAP2 SWAP1 SWAP2 PUSH2 0x100 EXP DUP2 SLOAD DUP2 PUSH2 0xFFFF MUL NOT AND SWAP1 DUP4 PUSH2 0xFFFF AND MUL OR SWAP1 SSTORE POP DUP1 PUSH1 0x5 ADD PUSH1 0x4 SWAP1 DUP1 PUSH1 0x1 DUP2 SLOAD ADD DUP1 DUP3 SSTORE DUP1 SWAP2 POP POP PUSH1 0x1 SWAP1 SUB SWAP1 PUSH1 0x0 MSTORE PUSH1 0x20 PUSH1 0x0 KECCAK256 SWAP1 PUSH1 0x10 SWAP2 DUP3 DUP3 DIV ADD SWAP2 SWAP1 MOD PUSH1 0x2 MUL SWAP1 SWAP2 SWAP1 SWAP2 SWAP1 SWAP2 PUSH2 0x100 EXP DUP2 SLOAD DUP2 PUSH2 0xFFFF MUL NOT AND SWAP1 DUP4 PUSH2 0xFFFF AND MUL OR SWAP1 SSTORE POP PUSH20 0x617F2E2FD72FD9D5503197092AC168C91465E7F2 PUSH1 0x5 PUSH1 0x40 MLOAD PUSH3 0x1501 SWAP1 PUSH3 0x1A72 JUMP JUMPDEST SWAP1 DUP2 MSTORE PUSH1 0x20 ADD PUSH1 0x40 MLOAD DUP1 SWAP2 SUB SWAP1 KECCAK256 PUSH1 0x0 PUSH2 0x100 EXP DUP2 SLOAD DUP2 PUSH20 0xFFFFFFFFFFFFFFFFFFFFFFFFFFFFFFFFFFFFFFFF MUL NOT AND SWAP1 DUP4 PUSH20 0xFFFFFFFFFFFFFFFFFFFFFFFFFFFFFFFFFFFFFFFF AND MUL OR SWAP1 SSTORE POP PUSH1 0x5 PUSH1 0x4 PUSH1 0x0 PUSH20 0x617F2E2FD72FD9D5503197092AC168C91465E7F2 PUSH20 0xFFFFFFFFFFFFFFFFFFFFFFFFFFFFFFFFFFFFFFFF AND PUSH20 0xFFFFFFFFFFFFFFFFFFFFFFFFFFFFFFFFFFFFFFFF AND DUP2 MSTORE PUSH1 0x20 ADD SWAP1 DUP2 MSTORE PUSH1 0x20 ADD PUSH1 0x0 KECCAK256 PUSH1 0x0 PUSH2 0x100 EXP DUP2 SLOAD DUP2 PUSH1 0xFF MUL NOT AND SWAP1 DUP4 PUSH1 0x7 DUP2 GT ISZERO PUSH3 0x15C7 JUMPI PUSH3 0x15C6 PUSH3 0x1C0E JUMP JUMPDEST JUMPDEST MUL OR SWAP1 SSTORE POP POP POP PUSH3 0x1DB0 JUMP JUMPDEST DUP3 DUP1 SLOAD DUP3 DUP3 SSTORE SWAP1 PUSH1 0x0 MSTORE PUSH1 0x20 PUSH1 0x0 KECCAK256 SWAP1 DUP2 ADD SWAP3 DUP3 ISZERO PUSH3 0x1628 JUMPI SWAP2 PUSH1 0x20 MUL DUP3 ADD JUMPDEST DUP3 DUP2 GT ISZERO PUSH3 0x1627 JUMPI DUP3 MLOAD DUP3 SWAP1 DUP1 MLOAD SWAP1 PUSH1 0x20 ADD SWAP1 PUSH3 0x1616 SWAP3 SWAP2 SWAP1 PUSH3 0x1709 JUMP JUMPDEST POP SWAP2 PUSH1 0x20 ADD SWAP2 SWAP1 PUSH1 0x1 ADD SWAP1 PUSH3 0x15F5 JUMP JUMPDEST JUMPDEST POP SWAP1 POP PUSH3 0x1637 SWAP2 SWAP1 PUSH3 0x18B2 JUMP JUMPDEST POP SWAP1 JUMP JUMPDEST DUP3 DUP1 SLOAD DUP3 DUP3 SSTORE SWAP1 PUSH1 0x0 MSTORE PUSH1 0x20 PUSH1 0x0 KECCAK256 SWAP1 DUP2 ADD SWAP3 DUP3 ISZERO PUSH3 0x168F JUMPI SWAP2 PUSH1 0x20 MUL DUP3 ADD JUMPDEST DUP3 DUP2 GT ISZERO PUSH3 0x168E JUMPI DUP3 MLOAD DUP3 SWAP1 DUP1 MLOAD SWAP1 PUSH1 0x20 ADD SWAP1 PUSH3 0x167D SWAP3 SWAP2 SWAP1 PUSH3 0x1709 JUMP JUMPDEST POP SWAP2 PUSH1 0x20 ADD SWAP2 SWAP1 PUSH1 0x1 ADD SWAP1 PUSH3 0x165C JUMP JUMPDEST JUMPDEST POP SWAP1 POP PUSH3 0x169E SWAP2 SWAP1 PUSH3 0x18B2 JUMP JUMPDEST POP SWAP1 JUMP JUMPDEST DUP3 DUP1 SLOAD DUP3 DUP3 SSTORE SWAP1 PUSH1 0x0 MSTORE PUSH1 0x20 PUSH1 0x0 KECCAK256 SWAP1 DUP2 ADD SWAP3 DUP3 ISZERO PUSH3 0x16F6 JUMPI SWAP2 PUSH1 0x20 MUL DUP3 ADD JUMPDEST DUP3 DUP2 GT ISZERO PUSH3 0x16F5 JUMPI DUP3 MLOAD DUP3 SWAP1 DUP1 MLOAD SWAP1 PUSH1 0x20 ADD SWAP1 PUSH3 0x16E4 SWAP3 SWAP2 SWAP1 PUSH3 0x1709 JUMP JUMPDEST POP SWAP2 PUSH1 0x20 ADD SWAP2 SWAP1 PUSH1 0x1 ADD SWAP1 PUSH3 0x16C3 JUMP JUMPDEST JUMPDEST POP SWAP1 POP PUSH3 0x1705 SWAP2 SWAP1 PUSH3 0x18B2 JUMP JUMPDEST POP SWAP1 JUMP JUMPDEST DUP3 DUP1 SLOAD PUSH3 0x1717 SWAP1 PUSH3 0x1BD8 JUMP JUMPDEST SWAP1 PUSH1 0x0 MSTORE PUSH1 0x20 PUSH1 0x0 KECCAK256 SWAP1 PUSH1 0x1F ADD PUSH1 0x20 SWAP1 DIV DUP2 ADD SWAP3 DUP3 PUSH3 0x173B JUMPI PUSH1 0x0 DUP6 SSTORE PUSH3 0x1787 JUMP JUMPDEST DUP3 PUSH1 0x1F LT PUSH3 0x1756 JUMPI DUP1 MLOAD PUSH1 0xFF NOT AND DUP4 DUP1 ADD OR DUP6 SSTORE PUSH3 0x1787 JUMP JUMPDEST DUP3 DUP1 ADD PUSH1 0x1 ADD DUP6 SSTORE DUP3 ISZERO PUSH3 0x1787 JUMPI SWAP2 DUP3 ADD JUMPDEST DUP3 DUP2 GT ISZERO PUSH3 0x1786 JUMPI DUP3 MLOAD DUP3 SSTORE SWAP2 PUSH1 0x20 ADD SWAP2 SWAP1 PUSH1 0x1 ADD SWAP1 PUSH3 0x1769 JUMP JUMPDEST JUMPDEST POP SWAP1 POP PUSH3 0x1796 SWAP2 SWAP1 PUSH3 0x18DA JUMP JUMPDEST POP SWAP1 JUMP JUMPDEST DUP3 DUP1 SLOAD DUP3 DUP3 SSTORE SWAP1 PUSH1 0x0 MSTORE PUSH1 0x20 PUSH1 0x0 KECCAK256 SWAP1 DUP2 ADD SWAP3 DUP3 ISZERO PUSH3 0x17EE JUMPI SWAP2 PUSH1 0x20 MUL DUP3 ADD JUMPDEST DUP3 DUP2 GT ISZERO PUSH3 0x17ED JUMPI DUP3 MLOAD DUP3 SWAP1 DUP1 MLOAD SWAP1 PUSH1 0x20 ADD SWAP1 PUSH3 0x17DC SWAP3 SWAP2 SWAP1 PUSH3 0x1709 JUMP JUMPDEST POP SWAP2 PUSH1 0x20 ADD SWAP2 SWAP1 PUSH1 0x1 ADD SWAP1 PUSH3 0x17BB JUMP JUMPDEST JUMPDEST POP SWAP1 POP PUSH3 0x17FD SWAP2 SWAP1 PUSH3 0x18B2 JUMP JUMPDEST POP SWAP1 JUMP JUMPDEST DUP3 DUP1 SLOAD DUP3 DUP3 SSTORE SWAP1 PUSH1 0x0 MSTORE PUSH1 0x20 PUSH1 0x0 KECCAK256 SWAP1 PUSH1 0xF ADD PUSH1 0x10 SWAP1 DIV DUP2 ADD SWAP3 DUP3 ISZERO PUSH3 0x189F JUMPI SWAP2 PUSH1 0x20 MUL DUP3 ADD PUSH1 0x0 JUMPDEST DUP4 DUP3 GT ISZERO PUSH3 0x186D JUMPI DUP4 MLOAD DUP4 DUP3 PUSH2 0x100 EXP DUP2 SLOAD DUP2 PUSH2 0xFFFF MUL NOT AND SWAP1 DUP4 PUSH2 0xFFFF AND MUL OR SWAP1 SSTORE POP SWAP3 PUSH1 0x20 ADD SWAP3 PUSH1 0x2 ADD PUSH1 0x20 DUP2 PUSH1 0x1 ADD DIV SWAP3 DUP4 ADD SWAP3 PUSH1 0x1 SUB MUL PUSH3 0x182B JUMP JUMPDEST DUP1 ISZERO PUSH3 0x189D JUMPI DUP3 DUP2 PUSH2 0x100 EXP DUP2 SLOAD SWAP1 PUSH2 0xFFFF MUL NOT AND SWAP1 SSTORE PUSH1 0x2 ADD PUSH1 0x20 DUP2 PUSH1 0x1 ADD DIV SWAP3 DUP4 ADD SWAP3 PUSH1 0x1 SUB MUL PUSH3 0x186D JUMP JUMPDEST POP JUMPDEST POP SWAP1 POP PUSH3 0x18AE SWAP2 SWAP1 PUSH3 0x18DA JUMP JUMPDEST POP SWAP1 JUMP JUMPDEST JUMPDEST DUP1 DUP3 GT ISZERO PUSH3 0x18D6 JUMPI PUSH1 0x0 DUP2 DUP2 PUSH3 0x18CC SWAP2 SWAP1 PUSH3 0x18F9 JUMP JUMPDEST POP PUSH1 0x1 ADD PUSH3 0x18B3 JUMP JUMPDEST POP SWAP1 JUMP JUMPDEST JUMPDEST DUP1 DUP3 GT ISZERO PUSH3 0x18F5 JUMPI PUSH1 0x0 DUP2 PUSH1 0x0 SWAP1 SSTORE POP PUSH1 0x1 ADD PUSH3 0x18DB JUMP JUMPDEST POP SWAP1 JUMP JUMPDEST POP DUP1 SLOAD PUSH3 0x1907 SWAP1 PUSH3 0x1BD8 JUMP JUMPDEST PUSH1 0x0 DUP3 SSTORE DUP1 PUSH1 0x1F LT PUSH3 0x191B JUMPI POP PUSH3 0x193C JUMP JUMPDEST PUSH1 0x1F ADD PUSH1 0x20 SWAP1 DIV SWAP1 PUSH1 0x0 MSTORE PUSH1 0x20 PUSH1 0x0 KECCAK256 SWAP1 DUP2 ADD SWAP1 PUSH3 0x193B SWAP2 SWAP1 PUSH3 0x18DA JUMP JUMPDEST JUMPDEST POP JUMP JUMPDEST PUSH1 0x0 DUP2 MLOAD SWAP1 POP PUSH3 0x1950 DUP2 PUSH3 0x1D96 JUMP JUMPDEST SWAP3 SWAP2 POP POP JUMP JUMPDEST PUSH1 0x0 PUSH1 0x20 DUP3 DUP5 SUB SLT ISZERO PUSH3 0x196F JUMPI PUSH3 0x196E PUSH3 0x1C9B JUMP JUMPDEST JUMPDEST PUSH1 0x0 PUSH3 0x197F DUP5 DUP3 DUP6 ADD PUSH3 0x193F JUMP JUMPDEST SWAP2 POP POP SWAP3 SWAP2 POP POP JUMP JUMPDEST PUSH1 0x0 PUSH3 0x1997 PUSH1 0x9 DUP4 PUSH3 0x1B99 JUMP JUMPDEST SWAP2 POP PUSH3 0x19A4 DUP3 PUSH3 0x1CA0 JUMP JUMPDEST PUSH1 0x9 DUP3 ADD SWAP1 POP SWAP2 SWAP1 POP JUMP JUMPDEST PUSH1 0x0 PUSH3 0x19BE PUSH1 0x4 DUP4 PUSH3 0x1B99 JUMP JUMPDEST SWAP2 POP PUSH3 0x19CB DUP3 PUSH3 0x1CC9 JUMP JUMPDEST PUSH1 0x4 DUP3 ADD SWAP1 POP SWAP2 SWAP1 POP JUMP JUMPDEST PUSH1 0x0 PUSH3 0x19E5 PUSH1 0x6 DUP4 PUSH3 0x1B99 JUMP JUMPDEST SWAP2 POP PUSH3 0x19F2 DUP3 PUSH3 0x1CF2 JUMP JUMPDEST PUSH1 0x6 DUP3 ADD SWAP1 POP SWAP2 SWAP1 POP JUMP JUMPDEST PUSH1 0x0 PUSH3 0x1A0C PUSH1 0x1 DUP4 PUSH3 0x1B99 JUMP JUMPDEST SWAP2 POP PUSH3 0x1A19 DUP3 PUSH3 0x1D1B JUMP JUMPDEST PUSH1 0x1 DUP3 ADD SWAP1 POP SWAP2 SWAP1 POP JUMP JUMPDEST PUSH1 0x0 PUSH3 0x1A33 PUSH1 0x6 DUP4 PUSH3 0x1B99 JUMP JUMPDEST SWAP2 POP PUSH3 0x1A40 DUP3 PUSH3 0x1D44 JUMP JUMPDEST PUSH1 0x6 DUP3 ADD SWAP1 POP SWAP2 SWAP1 POP JUMP JUMPDEST PUSH1 0x0 PUSH3 0x1A5A PUSH1 0x9 DUP4 PUSH3 0x1B99 JUMP JUMPDEST SWAP2 POP PUSH3 0x1A67 DUP3 PUSH3 0x1D6D JUMP JUMPDEST PUSH1 0x9 DUP3 ADD SWAP1 POP SWAP2 SWAP1 POP JUMP JUMPDEST PUSH1 0x0 PUSH3 0x1A7F DUP3 PUSH3 0x1988 JUMP JUMPDEST SWAP2 POP DUP2 SWAP1 POP SWAP2 SWAP1 POP JUMP JUMPDEST PUSH1 0x0 PUSH3 0x1A96 DUP3 PUSH3 0x1988 JUMP JUMPDEST SWAP2 POP PUSH3 0x1AA3 DUP3 PUSH3 0x19FD JUMP JUMPDEST SWAP2 POP DUP2 SWAP1 POP SWAP2 SWAP1 POP JUMP JUMPDEST PUSH1 0x0 PUSH3 0x1ABA DUP3 PUSH3 0x19AF JUMP JUMPDEST SWAP2 POP DUP2 SWAP1 POP SWAP2 SWAP1 POP JUMP JUMPDEST PUSH1 0x0 PUSH3 0x1AD1 DUP3 PUSH3 0x19AF JUMP JUMPDEST SWAP2 POP PUSH3 0x1ADE DUP3 PUSH3 0x19FD JUMP JUMPDEST SWAP2 POP DUP2 SWAP1 POP SWAP2 SWAP1 POP JUMP JUMPDEST PUSH1 0x0 PUSH3 0x1AF5 DUP3 PUSH3 0x19D6 JUMP JUMPDEST SWAP2 POP DUP2 SWAP1 POP SWAP2 SWAP1 POP JUMP JUMPDEST PUSH1 0x0 PUSH3 0x1B0C DUP3 PUSH3 0x19D6 JUMP JUMPDEST SWAP2 POP PUSH3 0x1B19 DUP3 PUSH3 0x19FD JUMP JUMPDEST SWAP2 POP DUP2 SWAP1 POP SWAP2 SWAP1 POP JUMP JUMPDEST PUSH1 0x0 PUSH3 0x1B30 DUP3 PUSH3 0x1A24 JUMP JUMPDEST SWAP2 POP DUP2 SWAP1 POP SWAP2 SWAP1 POP JUMP JUMPDEST PUSH1 0x0 PUSH3 0x1B47 DUP3 PUSH3 0x1A24 JUMP JUMPDEST SWAP2 POP PUSH3 0x1B54 DUP3 PUSH3 0x19FD JUMP JUMPDEST SWAP2 POP DUP2 SWAP1 POP SWAP2 SWAP1 POP JUMP JUMPDEST PUSH1 0x0 PUSH3 0x1B6B DUP3 PUSH3 0x1A4B JUMP JUMPDEST SWAP2 POP DUP2 SWAP1 POP SWAP2 SWAP1 POP JUMP JUMPDEST PUSH1 0x0 PUSH3 0x1B82 DUP3 PUSH3 0x1A4B JUMP JUMPDEST SWAP2 POP PUSH3 0x1B8F DUP3 PUSH3 0x19FD JUMP JUMPDEST SWAP2 POP DUP2 SWAP1 POP SWAP2 SWAP1 POP JUMP JUMPDEST PUSH1 0x0 DUP2 SWAP1 POP SWAP3 SWAP2 POP POP JUMP JUMPDEST PUSH1 0x0 PUSH3 0x1BB1 DUP3 PUSH3 0x1BB8 JUMP JUMPDEST SWAP1 POP SWAP2 SWAP1 POP JUMP JUMPDEST PUSH1 0x0 PUSH20 0xFFFFFFFFFFFFFFFFFFFFFFFFFFFFFFFFFFFFFFFF DUP3 AND SWAP1 POP SWAP2 SWAP1 POP JUMP JUMPDEST PUSH1 0x0 PUSH1 0x2 DUP3 DIV SWAP1 POP PUSH1 0x1 DUP3 AND DUP1 PUSH3 0x1BF1 JUMPI PUSH1 0x7F DUP3 AND SWAP2 POP JUMPDEST PUSH1 0x20 DUP3 LT DUP2 EQ ISZERO PUSH3 0x1C08 JUMPI PUSH3 0x1C07 PUSH3 0x1C3D JUMP JUMPDEST JUMPDEST POP SWAP2 SWAP1 POP JUMP JUMPDEST PUSH32 0x4E487B7100000000000000000000000000000000000000000000000000000000 PUSH1 0x0 MSTORE PUSH1 0x21 PUSH1 0x4 MSTORE PUSH1 0x24 PUSH1 0x0 REVERT JUMPDEST PUSH32 0x4E487B7100000000000000000000000000000000000000000000000000000000 PUSH1 0x0 MSTORE PUSH1 0x22 PUSH1 0x4 MSTORE PUSH1 0x24 PUSH1 0x0 REVERT JUMPDEST PUSH32 0x4E487B7100000000000000000000000000000000000000000000000000000000 PUSH1 0x0 MSTORE PUSH1 0x41 PUSH1 0x4 MSTORE PUSH1 0x24 PUSH1 0x0 REVERT JUMPDEST PUSH1 0x0 DUP1 REVERT JUMPDEST PUSH32 0x536369656E746973740000000000000000000000000000000000000000000000 PUSH1 0x0 DUP3 ADD MSTORE POP JUMP JUMPDEST PUSH32 0x6976616E00000000000000000000000000000000000000000000000000000000 PUSH1 0x0 DUP3 ADD MSTORE POP JUMP JUMPDEST PUSH32 0x61646D696E320000000000000000000000000000000000000000000000000000 PUSH1 0x0 DUP3 ADD MSTORE POP JUMP JUMPDEST PUSH32 0x3100000000000000000000000000000000000000000000000000000000000000 PUSH1 0x0 DUP3 ADD MSTORE POP JUMP JUMPDEST PUSH32 0x61646D696E310000000000000000000000000000000000000000000000000000 PUSH1 0x0 DUP3 ADD MSTORE POP JUMP JUMPDEST PUSH32 0x446576656C6F7065720000000000000000000000000000000000000000000000 PUSH1 0x0 DUP3 ADD MSTORE POP JUMP JUMPDEST PUSH3 0x1DA1 DUP2 PUSH3 0x1BA4 JUMP JUMPDEST DUP2 EQ PUSH3 0x1DAD JUMPI PUSH1 0x0 DUP1 REVERT JUMPDEST POP JUMP JUMPDEST PUSH2 0x494 DUP1 PUSH3 0x1DC0 PUSH1 0x0 CODECOPY PUSH1 0x0 RETURN INVALID PUSH1 0x80 PUSH1 0x40 MSTORE CALLVALUE DUP1 ISZERO PUSH2 0x10 JUMPI PUSH1 0x0 DUP1 REVERT JUMPDEST POP PUSH1 0x4 CALLDATASIZE LT PUSH2 0x41 JUMPI PUSH1 0x0 CALLDATALOAD PUSH1 0xE0 SHR DUP1 PUSH4 0x86C65D28 EQ PUSH2 0x46 JUMPI DUP1 PUSH4 0x9CAD5D4C EQ PUSH2 0x76 JUMPI DUP1 PUSH4 0xEAEB60E3 EQ PUSH2 0xA6 JUMPI JUMPDEST PUSH1 0x0 DUP1 REVERT JUMPDEST PUSH2 0x60 PUSH1 0x4 DUP1 CALLDATASIZE SUB DUP2 ADD SWAP1 PUSH2 0x5B SWAP2 SWAP1 PUSH2 0x2EF JUMP JUMPDEST PUSH2 0xD6 JUMP JUMPDEST PUSH1 0x40 MLOAD PUSH2 0x6D SWAP2 SWAP1 PUSH2 0x355 JUMP JUMPDEST PUSH1 0x40 MLOAD DUP1 SWAP2 SUB SWAP1 RETURN JUMPDEST PUSH2 0x90 PUSH1 0x4 DUP1 CALLDATASIZE SUB DUP2 ADD SWAP1 PUSH2 0x8B SWAP2 SWAP1 PUSH2 0x2EF JUMP JUMPDEST PUSH2 0x182 JUMP JUMPDEST PUSH1 0x40 MLOAD PUSH2 0x9D SWAP2 SWAP1 PUSH2 0x355 JUMP JUMPDEST PUSH1 0x40 MLOAD DUP1 SWAP2 SUB SWAP1 RETURN JUMPDEST PUSH2 0xC0 PUSH1 0x4 DUP1 CALLDATASIZE SUB DUP2 ADD SWAP1 PUSH2 0xBB SWAP2 SWAP1 PUSH2 0x2EF JUMP JUMPDEST PUSH2 0x22E JUMP JUMPDEST PUSH1 0x40 MLOAD PUSH2 0xCD SWAP2 SWAP1 PUSH2 0x355 JUMP JUMPDEST PUSH1 0x40 MLOAD DUP1 SWAP2 SUB SWAP1 RETURN JUMPDEST PUSH1 0x8 DUP2 DUP2 SLOAD DUP2 LT PUSH2 0xE6 JUMPI PUSH1 0x0 DUP1 REVERT JUMPDEST SWAP1 PUSH1 0x0 MSTORE PUSH1 0x20 PUSH1 0x0 KECCAK256 ADD PUSH1 0x0 SWAP2 POP SWAP1 POP DUP1 SLOAD PUSH2 0x101 SWAP1 PUSH2 0x3D0 JUMP JUMPDEST DUP1 PUSH1 0x1F ADD PUSH1 0x20 DUP1 SWAP2 DIV MUL PUSH1 0x20 ADD PUSH1 0x40 MLOAD SWAP1 DUP2 ADD PUSH1 0x40 MSTORE DUP1 SWAP3 SWAP2 SWAP1 DUP2 DUP2 MSTORE PUSH1 0x20 ADD DUP3 DUP1 SLOAD PUSH2 0x12D SWAP1 PUSH2 0x3D0 JUMP JUMPDEST DUP1 ISZERO PUSH2 0x17A JUMPI DUP1 PUSH1 0x1F LT PUSH2 0x14F JUMPI PUSH2 0x100 DUP1 DUP4 SLOAD DIV MUL DUP4 MSTORE SWAP2 PUSH1 0x20 ADD SWAP2 PUSH2 0x17A JUMP JUMPDEST DUP3 ADD SWAP2 SWAP1 PUSH1 0x0 MSTORE PUSH1 0x20 PUSH1 0x0 KECCAK256 SWAP1 JUMPDEST DUP2 SLOAD DUP2 MSTORE SWAP1 PUSH1 0x1 ADD SWAP1 PUSH1 0x20 ADD DUP1 DUP4 GT PUSH2 0x15D JUMPI DUP3 SWAP1 SUB PUSH1 0x1F AND DUP3 ADD SWAP2 JUMPDEST POP POP POP POP POP DUP2 JUMP JUMPDEST PUSH1 0x9 DUP2 DUP2 SLOAD DUP2 LT PUSH2 0x192 JUMPI PUSH1 0x0 DUP1 REVERT JUMPDEST SWAP1 PUSH1 0x0 MSTORE PUSH1 0x20 PUSH1 0x0 KECCAK256 ADD PUSH1 0x0 SWAP2 POP SWAP1 POP DUP1 SLOAD PUSH2 0x1AD SWAP1 PUSH2 0x3D0 JUMP JUMPDEST DUP1 PUSH1 0x1F ADD PUSH1 0x20 DUP1 SWAP2 DIV MUL PUSH1 0x20 ADD PUSH1 0x40 MLOAD SWAP1 DUP2 ADD PUSH1 0x40 MSTORE DUP1 SWAP3 SWAP2 SWAP1 DUP2 DUP2 MSTORE PUSH1 0x20 ADD DUP3 DUP1 SLOAD PUSH2 0x1D9 SWAP1 PUSH2 0x3D0 JUMP JUMPDEST DUP1 ISZERO PUSH2 0x226 JUMPI DUP1 PUSH1 0x1F LT PUSH2 0x1FB JUMPI PUSH2 0x100 DUP1 DUP4 SLOAD DIV MUL DUP4 MSTORE SWAP2 PUSH1 0x20 ADD SWAP2 PUSH2 0x226 JUMP JUMPDEST DUP3 ADD SWAP2 SWAP1 PUSH1 0x0 MSTORE PUSH1 0x20 PUSH1 0x0 KECCAK256 SWAP1 JUMPDEST DUP2 SLOAD DUP2 MSTORE SWAP1 PUSH1 0x1 ADD SWAP1 PUSH1 0x20 ADD DUP1 DUP4 GT PUSH2 0x209 JUMPI DUP3 SWAP1 SUB PUSH1 0x1F AND DUP3 ADD SWAP2 JUMPDEST POP POP POP POP POP DUP2 JUMP JUMPDEST PUSH1 0xA DUP2 DUP2 SLOAD DUP2 LT PUSH2 0x23E JUMPI PUSH1 0x0 DUP1 REVERT JUMPDEST SWAP1 PUSH1 0x0 MSTORE PUSH1 0x20 PUSH1 0x0 KECCAK256 ADD PUSH1 0x0 SWAP2 POP SWAP1 POP DUP1 SLOAD PUSH2 0x259 SWAP1 PUSH2 0x3D0 JUMP JUMPDEST DUP1 PUSH1 0x1F ADD PUSH1 0x20 DUP1 SWAP2 DIV MUL PUSH1 0x20 ADD PUSH1 0x40 MLOAD SWAP1 DUP2 ADD PUSH1 0x40 MSTORE DUP1 SWAP3 SWAP2 SWAP1 DUP2 DUP2 MSTORE PUSH1 0x20 ADD DUP3 DUP1 SLOAD PUSH2 0x285 SWAP1 PUSH2 0x3D0 JUMP JUMPDEST DUP1 ISZERO PUSH2 0x2D2 JUMPI DUP1 PUSH1 0x1F LT PUSH2 0x2A7 JUMPI PUSH2 0x100 DUP1 DUP4 SLOAD DIV MUL DUP4 MSTORE SWAP2 PUSH1 0x20 ADD SWAP2 PUSH2 0x2D2 JUMP JUMPDEST DUP3 ADD SWAP2 SWAP1 PUSH1 0x0 MSTORE PUSH1 0x20 PUSH1 0x0 KECCAK256 SWAP1 JUMPDEST DUP2 SLOAD DUP2 MSTORE SWAP1 PUSH1 0x1 ADD SWAP1 PUSH1 0x20 ADD DUP1 DUP4 GT PUSH2 0x2B5 JUMPI DUP3 SWAP1 SUB PUSH1 0x1F AND DUP3 ADD SWAP2 JUMPDEST POP POP POP POP POP DUP2 JUMP JUMPDEST PUSH1 0x0 DUP2 CALLDATALOAD SWAP1 POP PUSH2 0x2E9 DUP2 PUSH2 0x447 JUMP JUMPDEST SWAP3 SWAP2 POP POP JUMP JUMPDEST PUSH1 0x0 PUSH1 0x20 DUP3 DUP5 SUB SLT ISZERO PUSH2 0x305 JUMPI PUSH2 0x304 PUSH2 0x431 JUMP JUMPDEST JUMPDEST PUSH1 0x0 PUSH2 0x313 DUP5 DUP3 DUP6 ADD PUSH2 0x2DA JUMP JUMPDEST SWAP2 POP POP SWAP3 SWAP2 POP POP JUMP JUMPDEST PUSH1 0x0 PUSH2 0x327 DUP3 PUSH2 0x377 JUMP JUMPDEST PUSH2 0x331 DUP2 DUP6 PUSH2 0x382 JUMP JUMPDEST SWAP4 POP PUSH2 0x341 DUP2 DUP6 PUSH1 0x20 DUP7 ADD PUSH2 0x39D JUMP JUMPDEST PUSH2 0x34A DUP2 PUSH2 0x436 JUMP JUMPDEST DUP5 ADD SWAP2 POP POP SWAP3 SWAP2 POP POP JUMP JUMPDEST PUSH1 0x0 PUSH1 0x20 DUP3 ADD SWAP1 POP DUP2 DUP2 SUB PUSH1 0x0 DUP4 ADD MSTORE PUSH2 0x36F DUP2 DUP5 PUSH2 0x31C JUMP JUMPDEST SWAP1 POP SWAP3 SWAP2 POP POP JUMP JUMPDEST PUSH1 0x0 DUP2 MLOAD SWAP1 POP SWAP2 SWAP1 POP JUMP JUMPDEST PUSH1 0x0 DUP3 DUP3 MSTORE PUSH1 0x20 DUP3 ADD SWAP1 POP SWAP3 SWAP2 POP POP JUMP JUMPDEST PUSH1 0x0 DUP2 SWAP1 POP SWAP2 SWAP1 POP JUMP JUMPDEST PUSH1 0x0 JUMPDEST DUP4 DUP2 LT ISZERO PUSH2 0x3BB JUMPI DUP1 DUP3 ADD MLOAD DUP2 DUP5 ADD MSTORE PUSH1 0x20 DUP2 ADD SWAP1 POP PUSH2 0x3A0 JUMP JUMPDEST DUP4 DUP2 GT ISZERO PUSH2 0x3CA JUMPI PUSH1 0x0 DUP5 DUP5 ADD MSTORE JUMPDEST POP POP POP POP JUMP JUMPDEST PUSH1 0x0 PUSH1 0x2 DUP3 DIV SWAP1 POP PUSH1 0x1 DUP3 AND DUP1 PUSH2 0x3E8 JUMPI PUSH1 0x7F DUP3 AND SWAP2 POP JUMPDEST PUSH1 0x20 DUP3 LT DUP2 EQ ISZERO PUSH2 0x3FC JUMPI PUSH2 0x3FB PUSH2 0x402 JUMP JUMPDEST JUMPDEST POP SWAP2 SWAP1 POP JUMP JUMPDEST PUSH32 0x4E487B7100000000000000000000000000000000000000000000000000000000 PUSH1 0x0 MSTORE PUSH1 0x22 PUSH1 0x4 MSTORE PUSH1 0x24 PUSH1 0x0 REVERT JUMPDEST PUSH1 0x0 DUP1 REVERT JUMPDEST PUSH1 0x0 PUSH1 0x1F NOT PUSH1 0x1F DUP4 ADD AND SWAP1 POP SWAP2 SWAP1 POP JUMP JUMPDEST PUSH2 0x450 DUP2 PUSH2 0x393 JUMP JUMPDEST DUP2 EQ PUSH2 0x45B JUMPI PUSH1 0x0 DUP1 REVERT JUMPDEST POP JUMP INVALID LOG2 PUSH5 0x6970667358 0x22 SLT KECCAK256 SELFDESTRUCT 0xDD 0xCF DUP16 PUSH31 0xBF435E3DDE0B4A061DF0AF97E2F7FBB0A09714D39995433CB7FDD064736F6C PUSH4 0x43000807 STOP CALLER 0x4D PUSH2 0x7468 PUSH6 0x6D6174696361 PUSH13 0x206D6F64656C696E6720616E64 KECCAK256 PUSH2 0x6E61 PUSH13 0x79736973546865726D616C2070 PUSH9 0x656E6F6D656E612061 PUSH15 0x64206D6F6C6563756C617220737472 PUSH22 0x6374757265734D6963726F656C656374726F6E696373 KECCAK256 PUSH2 0x6E64 KECCAK256 PUSH4 0x69726375 PUSH10 0x7420656E67696E656572 PUSH10 0x6E670000000000000000 "
				},
				"gasEstimates": {
					"creation": {
						"codeDepositCost": "234400",
						"executionCost": "infinite",
						"totalCost": "infinite"
					},
					"external": {
						"departments(uint256)": "infinite",
						"laboratories(uint256)": "infinite",
						"schoolSubjects(uint256)": "infinite"
					}
				},
				"methodIdentifiers": {
					"departments(uint256)": "eaeb60e3",
					"laboratories(uint256)": "9cad5d4c",
					"schoolSubjects(uint256)": "86c65d28"
				}
			},
			"storageLayout": {
				"storage": [
					{
						"astId": 93,
						"contract": "Storage.sol:GlobaLStorage",
						"label": "students",
						"offset": 0,
						"slot": "0",
						"type": "t_mapping(t_address,t_struct(Student)31_storage)"
					},
					{
						"astId": 98,
						"contract": "Storage.sol:GlobaLStorage",
						"label": "teachers",
						"offset": 0,
						"slot": "1",
						"type": "t_mapping(t_address,t_struct(Teacher)52_storage)"
					},
					{
						"astId": 103,
						"contract": "Storage.sol:GlobaLStorage",
						"label": "administrators",
						"offset": 0,
						"slot": "2",
						"type": "t_mapping(t_address,t_struct(Admin)88_storage)"
					},
					{
						"astId": 107,
						"contract": "Storage.sol:GlobaLStorage",
						"label": "usingEmails",
						"offset": 0,
						"slot": "3",
						"type": "t_mapping(t_string_memory_ptr,t_bool)"
					},
					{
						"astId": 112,
						"contract": "Storage.sol:GlobaLStorage",
						"label": "usingAddresses",
						"offset": 0,
						"slot": "4",
						"type": "t_mapping(t_address,t_enum(StatusAddress)15)"
					},
					{
						"astId": 116,
						"contract": "Storage.sol:GlobaLStorage",
						"label": "usingLogins",
						"offset": 0,
						"slot": "5",
						"type": "t_mapping(t_string_memory_ptr,t_address)"
					},
					{
						"astId": 121,
						"contract": "Storage.sol:GlobaLStorage",
						"label": "ownerProjects",
						"offset": 0,
						"slot": "6",
						"type": "t_mapping(t_address,t_array(t_uint256)dyn_storage)"
					},
					{
						"astId": 125,
						"contract": "Storage.sol:GlobaLStorage",
						"label": "projects",
						"offset": 0,
						"slot": "7",
						"type": "t_array(t_struct(Project)79_storage)dyn_storage"
					},
					{
						"astId": 128,
						"contract": "Storage.sol:GlobaLStorage",
						"label": "schoolSubjects",
						"offset": 0,
						"slot": "8",
						"type": "t_array(t_string_storage)dyn_storage"
					},
					{
						"astId": 131,
						"contract": "Storage.sol:GlobaLStorage",
						"label": "laboratories",
						"offset": 0,
						"slot": "9",
						"type": "t_array(t_string_storage)dyn_storage"
					},
					{
						"astId": 134,
						"contract": "Storage.sol:GlobaLStorage",
						"label": "departments",
						"offset": 0,
						"slot": "10",
						"type": "t_array(t_string_storage)dyn_storage"
					}
				],
				"types": {
					"t_address": {
						"encoding": "inplace",
						"label": "address",
						"numberOfBytes": "20"
					},
					"t_array(t_address)dyn_storage": {
						"base": "t_address",
						"encoding": "dynamic_array",
						"label": "address[]",
						"numberOfBytes": "32"
					},
					"t_array(t_string_storage)dyn_storage": {
						"base": "t_string_storage",
						"encoding": "dynamic_array",
						"label": "string[]",
						"numberOfBytes": "32"
					},
					"t_array(t_struct(Project)79_storage)dyn_storage": {
						"base": "t_struct(Project)79_storage",
						"encoding": "dynamic_array",
						"label": "struct GlobaLStorage.Project[]",
						"numberOfBytes": "32"
					},
					"t_array(t_uint16)dyn_storage": {
						"base": "t_uint16",
						"encoding": "dynamic_array",
						"label": "uint16[]",
						"numberOfBytes": "32"
					},
					"t_array(t_uint256)dyn_storage": {
						"base": "t_uint256",
						"encoding": "dynamic_array",
						"label": "uint256[]",
						"numberOfBytes": "32"
					},
					"t_bool": {
						"encoding": "inplace",
						"label": "bool",
						"numberOfBytes": "1"
					},
					"t_bytes32": {
						"encoding": "inplace",
						"label": "bytes32",
						"numberOfBytes": "32"
					},
					"t_enum(StatusAddress)15": {
						"encoding": "inplace",
						"label": "enum GlobaLStorage.StatusAddress",
						"numberOfBytes": "1"
					},
					"t_enum(StatusProject)6": {
						"encoding": "inplace",
						"label": "enum GlobaLStorage.StatusProject",
						"numberOfBytes": "1"
					},
					"t_mapping(t_address,t_array(t_string_storage)dyn_storage)": {
						"encoding": "mapping",
						"key": "t_address",
						"label": "mapping(address => string[])",
						"numberOfBytes": "32",
						"value": "t_array(t_string_storage)dyn_storage"
					},
					"t_mapping(t_address,t_array(t_uint256)dyn_storage)": {
						"encoding": "mapping",
						"key": "t_address",
						"label": "mapping(address => uint256[])",
						"numberOfBytes": "32",
						"value": "t_array(t_uint256)dyn_storage"
					},
					"t_mapping(t_address,t_enum(StatusAddress)15)": {
						"encoding": "mapping",
						"key": "t_address",
						"label": "mapping(address => enum GlobaLStorage.StatusAddress)",
						"numberOfBytes": "32",
						"value": "t_enum(StatusAddress)15"
					},
					"t_mapping(t_address,t_string_storage)": {
						"encoding": "mapping",
						"key": "t_address",
						"label": "mapping(address => string)",
						"numberOfBytes": "32",
						"value": "t_string_storage"
					},
					"t_mapping(t_address,t_struct(Admin)88_storage)": {
						"encoding": "mapping",
						"key": "t_address",
						"label": "mapping(address => struct GlobaLStorage.Admin)",
						"numberOfBytes": "32",
						"value": "t_struct(Admin)88_storage"
					},
					"t_mapping(t_address,t_struct(Student)31_storage)": {
						"encoding": "mapping",
						"key": "t_address",
						"label": "mapping(address => struct GlobaLStorage.Student)",
						"numberOfBytes": "32",
						"value": "t_struct(Student)31_storage"
					},
					"t_mapping(t_address,t_struct(Teacher)52_storage)": {
						"encoding": "mapping",
						"key": "t_address",
						"label": "mapping(address => struct GlobaLStorage.Teacher)",
						"numberOfBytes": "32",
						"value": "t_struct(Teacher)52_storage"
					},
					"t_mapping(t_string_memory_ptr,t_address)": {
						"encoding": "mapping",
						"key": "t_string_memory_ptr",
						"label": "mapping(string => address)",
						"numberOfBytes": "32",
						"value": "t_address"
					},
					"t_mapping(t_string_memory_ptr,t_bool)": {
						"encoding": "mapping",
						"key": "t_string_memory_ptr",
						"label": "mapping(string => bool)",
						"numberOfBytes": "32",
						"value": "t_bool"
					},
					"t_string_memory_ptr": {
						"encoding": "bytes",
						"label": "string",
						"numberOfBytes": "32"
					},
					"t_string_storage": {
						"encoding": "bytes",
						"label": "string",
						"numberOfBytes": "32"
					},
					"t_struct(Admin)88_storage": {
						"encoding": "inplace",
						"label": "struct GlobaLStorage.Admin",
						"members": [
							{
								"astId": 81,
								"contract": "Storage.sol:GlobaLStorage",
								"label": "login",
								"offset": 0,
								"slot": "0",
								"type": "t_string_storage"
							},
							{
								"astId": 83,
								"contract": "Storage.sol:GlobaLStorage",
								"label": "FIO",
								"offset": 0,
								"slot": "1",
								"type": "t_string_storage"
							},
							{
								"astId": 85,
								"contract": "Storage.sol:GlobaLStorage",
								"label": "pass",
								"offset": 0,
								"slot": "2",
								"type": "t_bytes32"
							},
							{
								"astId": 87,
								"contract": "Storage.sol:GlobaLStorage",
								"label": "headAdmin",
								"offset": 0,
								"slot": "3",
								"type": "t_bool"
							}
						],
						"numberOfBytes": "128"
					},
					"t_struct(Project)79_storage": {
						"encoding": "inplace",
						"label": "struct GlobaLStorage.Project",
						"members": [
							{
								"astId": 54,
								"contract": "Storage.sol:GlobaLStorage",
								"label": "name",
								"offset": 0,
								"slot": "0",
								"type": "t_string_storage"
							},
							{
								"astId": 56,
								"contract": "Storage.sol:GlobaLStorage",
								"label": "goal",
								"offset": 0,
								"slot": "1",
								"type": "t_string_storage"
							},
							{
								"astId": 58,
								"contract": "Storage.sol:GlobaLStorage",
								"label": "mentor",
								"offset": 0,
								"slot": "2",
								"type": "t_address"
							},
							{
								"astId": 61,
								"contract": "Storage.sol:GlobaLStorage",
								"label": "members",
								"offset": 0,
								"slot": "3",
								"type": "t_array(t_address)dyn_storage"
							},
							{
								"astId": 63,
								"contract": "Storage.sol:GlobaLStorage",
								"label": "numLaboratory",
								"offset": 0,
								"slot": "4",
								"type": "t_uint16"
							},
							{
								"astId": 66,
								"contract": "Storage.sol:GlobaLStorage",
								"label": "needKnowledge",
								"offset": 0,
								"slot": "5",
								"type": "t_array(t_uint16)dyn_storage"
							},
							{
								"astId": 69,
								"contract": "Storage.sol:GlobaLStorage",
								"label": "status",
								"offset": 0,
								"slot": "6",
								"type": "t_enum(StatusProject)6"
							},
							{
								"astId": 74,
								"contract": "Storage.sol:GlobaLStorage",
								"label": "tasksMembers",
								"offset": 0,
								"slot": "7",
								"type": "t_mapping(t_address,t_array(t_string_storage)dyn_storage)"
							},
							{
								"astId": 78,
								"contract": "Storage.sol:GlobaLStorage",
								"label": "roleMembers",
								"offset": 0,
								"slot": "8",
								"type": "t_mapping(t_address,t_string_storage)"
							}
						],
						"numberOfBytes": "288"
					},
					"t_struct(Student)31_storage": {
						"encoding": "inplace",
						"label": "struct GlobaLStorage.Student",
						"members": [
							{
								"astId": 17,
								"contract": "Storage.sol:GlobaLStorage",
								"label": "login",
								"offset": 0,
								"slot": "0",
								"type": "t_string_storage"
							},
							{
								"astId": 19,
								"contract": "Storage.sol:GlobaLStorage",
								"label": "FIO",
								"offset": 0,
								"slot": "1",
								"type": "t_string_storage"
							},
							{
								"astId": 21,
								"contract": "Storage.sol:GlobaLStorage",
								"label": "classLetter",
								"offset": 0,
								"slot": "2",
								"type": "t_string_storage"
							},
							{
								"astId": 23,
								"contract": "Storage.sol:GlobaLStorage",
								"label": "email",
								"offset": 0,
								"slot": "3",
								"type": "t_string_storage"
							},
							{
								"astId": 26,
								"contract": "Storage.sol:GlobaLStorage",
								"label": "strongSides",
								"offset": 0,
								"slot": "4",
								"type": "t_array(t_string_storage)dyn_storage"
							},
							{
								"astId": 28,
								"contract": "Storage.sol:GlobaLStorage",
								"label": "class",
								"offset": 0,
								"slot": "5",
								"type": "t_uint8"
							},
							{
								"astId": 30,
								"contract": "Storage.sol:GlobaLStorage",
								"label": "pass",
								"offset": 0,
								"slot": "6",
								"type": "t_bytes32"
							}
						],
						"numberOfBytes": "224"
					},
					"t_struct(Teacher)52_storage": {
						"encoding": "inplace",
						"label": "struct GlobaLStorage.Teacher",
						"members": [
							{
								"astId": 33,
								"contract": "Storage.sol:GlobaLStorage",
								"label": "login",
								"offset": 0,
								"slot": "0",
								"type": "t_string_storage"
							},
							{
								"astId": 35,
								"contract": "Storage.sol:GlobaLStorage",
								"label": "FIO",
								"offset": 0,
								"slot": "1",
								"type": "t_string_storage"
							},
							{
								"astId": 37,
								"contract": "Storage.sol:GlobaLStorage",
								"label": "email",
								"offset": 0,
								"slot": "2",
								"type": "t_string_storage"
							},
							{
								"astId": 39,
								"contract": "Storage.sol:GlobaLStorage",
								"label": "numDepartment",
								"offset": 0,
								"slot": "3",
								"type": "t_uint256"
							},
							{
								"astId": 42,
								"contract": "Storage.sol:GlobaLStorage",
								"label": "numSchoolSubjects",
								"offset": 0,
								"slot": "4",
								"type": "t_array(t_uint16)dyn_storage"
							},
							{
								"astId": 45,
								"contract": "Storage.sol:GlobaLStorage",
								"label": "numLaboratories",
								"offset": 0,
								"slot": "5",
								"type": "t_array(t_uint16)dyn_storage"
							},
							{
								"astId": 47,
								"contract": "Storage.sol:GlobaLStorage",
								"label": "pass",
								"offset": 0,
								"slot": "6",
								"type": "t_bytes32"
							},
							{
								"astId": 49,
								"contract": "Storage.sol:GlobaLStorage",
								"label": "headTeacher",
								"offset": 0,
								"slot": "7",
								"type": "t_bool"
							},
							{
								"astId": 51,
								"contract": "Storage.sol:GlobaLStorage",
								"label": "scientistManager",
								"offset": 1,
								"slot": "7",
								"type": "t_bool"
							}
						],
						"numberOfBytes": "256"
					},
					"t_uint16": {
						"encoding": "inplace",
						"label": "uint16",
						"numberOfBytes": "2"
					},
					"t_uint256": {
						"encoding": "inplace",
						"label": "uint256",
						"numberOfBytes": "32"
					},
					"t_uint8": {
						"encoding": "inplace",
						"label": "uint8",
						"numberOfBytes": "1"
					}
				}
			},
			"userdoc": {
				"kind": "user",
				"methods": {},
				"version": 1
			}
		}
	}
}